:020000040800F2
:1000000000000320610E0008B9370008C13700085E
:10001000C9370008D1370008D937000800000000B0
:10002000000000000000000000000000E1370008B0
:10003000EF37000800000000FD3700080B3800080B
:10004000B50E0008B50E0008B50E00087D38000892
:10005000B50E0008B50E0008B50E0008B50E000874
:10006000B50E0008B50E0008B50E0008B50E000864
:10007000B50E0008B50E0008B50E0008B50E000854
:10008000B50E0008B50E0008B50E0008B50E000844
:10009000B50E0008B50E0008B50E0008B50E000834
:1000A000B50E0008B50E000889380008B50E000826
:1000B000B50E0008B50E0008B50E0008B50E000814
:1000C000B50E0008B50E0008B50E0008B50E000804
:1000D00019380008B50E0008B50E0008B50E000866
:1000E00065380008B50E0008B50E0008B50E00080A
:1000F0004D380008593800082D380008B50E0008A2
:10010000B50E0008B50E0008B50E0008B50E0008C3
:10011000B50E0008B50E0008B50E0008B50E0008B3
:10012000B50E0008B50E000839380008B50E0008F5
:0C013000B50E0008B50E0008B50E000862
:1001400010B5054C237833B9044B13B10448AFF311
:1001500000800123237010BDC005002000000000B6
:10016000C06C010808B5034B1BB103490348AFF34A
:10017000008008BD00000000C4050020C06C01081C
:1001800001F0FF01102A2BDB10F0070F08D010F848
:10019000013B013A8B422DD010F0070F42B3F6D14C
:1001A000F0B441EA012141EA014122F007047FF065
:1001B00000070023F0E80256083C85EA010586EABC
:1001C000010685FA47F5A3FA87F586FA47F6A5FAF8
:1001D00087F68EB9EED1F0BC01F0FF0102F0070204
:1001E00032B110F8013B013A83EA010313B1F8D1AF
:1001F0000020704701387047002D06BF3546033890
:10020000073815F0010F07D1013015F4807F02BFC8
:10021000013015F4C03F0130F0BC0138704700BF19
:10022000034613F8012B002AFBD1181A0138704736
:1002300081F0004102E000BF83F0004330B54FEA97
:1002400041044FEA430594EA050F08BF90EA020F04
:100250001FBF54EA000C55EA020C7FEA645C7FEA97
:10026000655C00F0E2804FEA5454D4EB5555B8BFBA
:100270006D420CDD2C4480EA020281EA030382EA2B
:10028000000083EA010180EA020281EA0303362DBD
:1002900088BF30BD11F0004F4FEA01314FF4801C90
:1002A0004CEA113102D0404261EB410113F0004FA2
:1002B0004FEA03334CEA133302D0524263EB430359
:1002C00094EA050F00F0A780A4F10104D5F1200EF7
:1002D0000DDB02FA0EFC22FA05F2801841F1000152
:1002E00003FA0EF2801843FA05F359410EE0A5F126
:1002F00020050EF1200E012A03FA0EFC28BF4CF057
:10030000020C43FA05F3C01851EBE37101F000450C
:1003100007D54FF0000EDCF1000C7EEB00006EEB19
:100320000101B1F5801F1BD3B1F5001F0CD34908A3
:100330005FEA30004FEA3C0C04F101044FEA4452FA
:1003400012F5800F80F09A80BCF1004F08BF5FEA81
:10035000500C50F1000041EB045141EA050130BD61
:100360005FEA4C0C404141EB0101013C28BFB1F573
:10037000801FE9D291F0000F04BF01460020B1FABE
:1003800081F308BF2033A3F10B03B3F120020CDA91
:100390000C3208DD02F1140CC2F10C0201FA0CF06F
:1003A00021FA02F10CE002F11402D8BFC2F1200CD4
:1003B00001FA02F120FA0CFCDCBF41EA0C0190408A
:1003C000E41AA2BF01EB0451294330BD6FEA0404D3
:1003D0001F3C1CDA0C340EDC04F11404C4F12002BE
:1003E00020FA04F001FA02F340EA030021FA04F3D0
:1003F00045EA030130BDC4F10C04C4F1200220FA27
:1004000002F001FA04F340EA0300294630BD21FA64
:1004100004F0294630BD94F0000F83F4801306BF2A
:1004200081F480110134013D4EE77FEA645C18BF1E
:100430007FEA655C29D094EA050F08BF90EA020FB5
:1004400005D054EA000C04BF1946104630BD91EAAD
:10045000030F1EBF0021002030BD5FEA545C05D1B0
:100460004000494128BF41F0004130BD14F58004EF
:100470003CBF01F5801130BD01F0004545F0FE4163
:1004800041F470014FF0000030BD7FEA645C1ABF98
:10049000194610467FEA655C1CBF0B46024650EACF
:1004A000013406BF52EA033591EA030F41F40021FB
:1004B00030BD00BF90F0000F04BF0021704730B581
:1004C0004FF4806404F132044FF000054FF0000156
:1004D00050E700BF90F0000F04BF0021704730B517
:1004E0004FF4806404F1320410F0004548BF4042EC
:1004F0004FF000013EE700BF42004FEAE2014FEA41
:1005000031014FEA02701FBF12F07F4393F07F4F1B
:1005100081F06051704732F07F4208BF704793F01E
:100520007F4F04BF41F40021704730B54FF4607431
:1005300001F0004521F000411CE700BF50EA010234
:1005400008BF704730B54FF000050AE050EA0102DD
:1005500008BF704730B511F0004502D5404261EB4D
:1005600041014FF4806404F132045FEA915C3FF48E
:10057000D8AE4FF003025FEADC0C18BF03325FEA2B
:10058000DC0C18BF033202EBDC02C2F1200300FADC
:1005900003FC20FA02F001FA03FE40EA0E0021FA01
:1005A00002F11444BDE600BF70B54FF0FF0C4CF4EF
:1005B000E06C1CEA11541DBF1CEA135594EA0C0FA1
:1005C00095EA0C0F00F0DEF82C4481EA030621EADC
:1005D0004C5123EA4C5350EA013518BF52EA033517
:1005E00041F4801143F4801338D0A0FB02CE4FF0C9
:1005F0000005E1FB02E506F00042E0FB03E54FF0F9
:100600000006E1FB03569CF0000F18BF4EF0010EF0
:10061000A4F1FF04B6F5007F64F5407404D25FEAEC
:100620004E0E6D4146EB060642EAC62141EA55519F
:100630004FEAC52040EA5E504FEACE2EB4F1FD0CE1
:1006400088BFBCF5E06F1ED8BEF1004F08BF5FEA5F
:10065000500E50F1000041EB045170BD06F0004611
:1006600046EA010140EA020081EA0301B4EB5C04BE
:10067000C2BFD4EB0C0541EA045170BD41F48011B6
:100680004FF0000E013C00F3AB8014F1360FDEBFDB
:10069000002001F0004170BDC4F10004203C35DAB7
:1006A0000C341BDC04F11404C4F1200500FA05F33A
:1006B00020FA04F001FA05F240EA020001F00042DB
:1006C00021F0004110EBD37021FA04F642EB060151
:1006D0005EEA430E08BF20EAD37070BDC4F10C047B
:1006E000C4F1200500FA04F320FA05F001FA04F23F
:1006F00040EA020001F0004110EBD37041F100012B
:100700005EEA430E08BF20EAD37070BDC4F1200535
:1007100000FA05F24EEA020E20FA04F301FA05F29D
:1007200043EA020321FA04F001F0004121FA04F245
:1007300020EA020000EBD3705EEA430E08BF20EA15
:10074000D37070BD94F0000F0FD101F0004640004F
:1007500041EB010111F4801F08BF013CF7D041EAD1
:10076000060195F0000F18BF704703F000465200D5
:1007700043EB030313F4801F08BF013DF7D043EAA6
:100780000603704794EA0C0F0CEA135518BF95EA5C
:100790000C0F0CD050EA410618BF52EA4306D1D1E3
:1007A00081EA030101F000414FF0000070BD50EA02
:1007B000410606BF1046194652EA430619D094EA8C
:1007C0000C0F02D150EA013613D195EA0C0F05D176
:1007D00052EA03361CBF104619460AD181EA0301CA
:1007E00001F0004141F0FE4141F470014FF0000082
:1007F00070BD41F0FE4141F4780170BD70B54FF01D
:10080000FF0C4CF4E06C1CEA11541DBF1CEA13559C
:1008100094EA0C0F95EA0C0F00F0A7F8A4EB05047E
:1008200081EA030E52EA03354FEA013100F0888075
:100830004FEA03334FF0805545EA131343EA12633E
:100840004FEA022245EA111545EA10654FEA0026F3
:100850000EF000419D4208BF964244F1FD0404F5AC
:10086000407402D25B084FEA3202B61A65EB030508
:100870005B084FEA32024FF480104FF4002CB6EBC5
:10088000020E75EB030E22BFB61A754640EA0C0045
:100890005B084FEA3202B6EB020E75EB030E22BF85
:1008A000B61A754640EA5C005B084FEA3202B6EBC6
:1008B000020E75EB030E22BFB61A754640EA9C0085
:1008C0005B084FEA3202B6EB020E75EB030E22BF55
:1008D000B61A754640EADC0055EA060E18D04FEA13
:1008E000051545EA16754FEA06164FEAC30343EAB3
:1008F00052734FEAC2025FEA1C1CC0D111F4801F80
:100900000BD141EA00014FF000004FF0004CB6E778
:1009100011F4801F04BF01430020B4F1FD0C88BF17
:10092000BCF5E06F3FF6AFAEB5EB030C04BFB6EB22
:10093000020C5FEA500C50F1000041EB045170BD15
:100940000EF0004E4EEA113114EB5C04C2BFD4EB42
:100950000C0541EA045170BD41F480114FF0000EC6
:10096000013C90E645EA060E8DE60CEA135594EA42
:100970000C0F08BF95EA0C0F3FF43BAF94EA0C0F45
:100980000AD150EA01347FF434AF95EA0C0F7FF4BA
:1009900025AF104619462CE795EA0C0F06D152EA0E
:1009A00003353FF4FDAE1046194622E750EA4106F2
:1009B00018BF52EA43067FF4C5AE50EA41047FF403
:1009C0000DAF52EA43057FF4EBAE12E74FF0FF3C68
:1009D00006E000BF4FF0010C02E000BF4FF0010C39
:1009E0004DF804CD4FEA410C7FEA6C5C4FEA430CB2
:1009F00018BF7FEA6C5C1BD001B050EA410C0CBF01
:100A000052EA430C91EA030F02BF90EA020F002062
:100A1000704710F1000F91EA030F58BF994208BFC9
:100A200090422CBFD8176FEAE37040F00100704786
:100A30004FEA410C7FEA6C5C02D150EA013C07D1DD
:100A40004FEA430C7FEA6C5CD6D152EA033CD3D028
:100A50005DF8040B704700BF8446104662468C4622
:100A60001946634600E000BF01B5FFF7B7FF002855
:100A700048BF10F1000F01BD4DF808EDFFF7F4FF7E
:100A80000CBF012000205DF808FB00BF4DF808ED09
:100A9000FFF7EAFF34BF012000205DF808FB00BF2C
:100AA0004DF808EDFFF7E0FF94BF012000205DF84E
:100AB00008FB00BF4DF808EDFFF7CEFF94BF012003
:100AC00000205DF808FB00BF4DF808EDFFF7C4FFFC
:100AD00034BF012000205DF808FB00BF4FEA410C45
:100AE0007FEA6C5C02D150EA013C0AD14FEA430C28
:100AF0007FEA6C5C02D152EA033C02D14FF0000065
:100B000070474FF0010070474FEA410212F50012A2
:100B100015D211D56FF47873B3EB625212D94FEA44
:100B2000C12343F0004343EA505311F0004F23FA2E
:100B300002F018BF404270474FF00000704750EA83
:100B4000013005D111F0004008BF6FF00040704740
:100B50004FF00000704700BF53B94AB9002908BFE1
:100B600000281CBF4FF0FF314FF0FF3000F06AB992
:100B7000ADF1080C6DE904CE00F006F8DDF804E0F4
:100B8000DDE9022304B070472DE9F047089D0C46CB
:100B9000002B4ED194468C458646B2FA82F262D939
:100BA0004AB1C2F12003914020FA03F30CFA02FC8F
:100BB000194300FA02FE4FEA1C471FFA8CF6B1FBFC
:100BC000F7F44FEA1E4307FB141143EA014304FB09
:100BD00006F199420AD91CEB030304F1FF3080F0BF
:100BE0001281994240F20F81023C6344591A1FFA64
:100BF0008EF3B1FBF7F007FB101143EA014300FB52
:100C000006F69E420AD91CEB030300F1FF3180F087
:100C1000FC809E4240F2F980634402389B1B40EA0C
:100C2000044000211DB1D3400022C5E90032BDE8D7
:100C3000F0878B4205D90DB1C5E9000100210846B6
:100C4000F5E7B3FA83F1002946D1A34202D39042DB
:100C5000C0F0F080861A64EB03030120002DE6D07B
:100C6000C5E90063E3E7002A40F09080A1EB0C04A3
:100C70004FEA1C481FFA8CF70121B4FBF8F64FEA43
:100C80001E4308FB164443EA044307FB06F0984260
:100C900008D91CEB030306F1FF3402D2984200F29C
:100CA000CD8026461C1A1FFA8EF3B4FBF8F008FB21
:100CB000104443EA044300FB07F79F4208D91CEBAA
:100CC000030300F1FF3402D29F4200F2B0802046BD
:100CD000DB1B40EA0640A5E7C1F120068B4022FA63
:100CE00006F71F4320FA06FC04FA01F343EA0C035B
:100CF000F44000FA01F8380C4FEA1349B4FBF0FE57
:100D00001FFA87FC00FB1E4449EA04440EFB0CF961
:100D1000A14502FA01F20AD93C190EF1FF3A80F01E
:100D20008480A14540F28180AEF1020E3C44A4EBE8
:100D300009041FFA83F9B4FBF0F300FB134449EAFA
:100D4000044403FB0CFCA44507D93C1903F1FF3014
:100D500067D2A44565D9023B3C4443EA0E40A0FB60
:100D60000293A4EB0C049C42CE469C4651D34ED039
:100D700055B1B8EB0E0364EB0C0404FA06F6CB4055
:100D80001E43CC40C5E90064002150E7C2F12003B6
:100D900020FA03F10CFA02FC24FA03F394400C430A
:100DA0004FEA1C4800FA02FE1FFA8CF7B3FBF8F07A
:100DB00008FB1031230C43EA014300FB07F1994281
:100DC00008D91CEB030300F1FF362CD299422AD933
:100DD000023863445B1AA4B2B3FBF8F108FB113389
:100DE00044EA034401FB07F3A34208D91CEB0404C3
:100DF00001F1FF3613D2A34211D902396444E41A37
:100E000041EA004139E70446F0E6084606E7C845EE
:100E1000AED2B9EB020E63EB070C0138A8E73146FE
:100E2000EDE7034699E73046D4E7D6467FE76344CB
:100E300002384DE70646234608460FE7023E634464
:100E400030E700BF704700BFD458C4500433C41803
:100E50008C42F9D37047036004308842FBD370475B
:100E60000C48854609F0FAFC0B480C490C4A002353
:100E7000FFF7EDFF0B480C490023FFF7EEFF0B488F
:100E80000B490023FFF7E9FF13F0C0FF01F0B6FDA7
:100E9000FEE700000000032008000020600500209D
:100EA00050D30108C00500206C3C0020E401032061
:100EB000670A0320FEE7000080B483B000AF7860CB
:100EC000064BD3F8902005497B681343C1F8903056
:100ED00000BF0C37BD465DF8047B70470008005822
:100EE00080B485B000AF78604FF0B043DA6C4FF05B
:100EF000B0417B681343CB644FF0B043DA6C7B683E
:100F00001340FB60FB6800BF1437BD465DF8047BEF
:100F1000704780B485B000AF78604FF0B043D3F82D
:100F20004C214FF0B0417B681343C1F84C314FF076
:100F3000B043D3F84C217B681340FB60FB6800BFD3
:100F40001437BD465DF8047B704780B500AF09F0EB
:100F50004BFD09F04FFD4FF48030FFF7ADFF10F06F
:100F60001BFC00F021F800F0C1F800BF80BD0000BC
:100F7000B0B588B000AF0B4B3C1D1D460FCD0FC464
:100F800095E8070003C422800234130C237012F08A
:100F900063F93B1D184611F064F900BF2037BD46C8
:100FA000B0BD00BFD86C010880B588B000AF3B1D54
:100FB00000221A605A609A60DA601A610023BB83CB
:100FC00000237B8300233B830023FB7736E0FB7FFA
:100FD000434ADB0013449B79002B2CD0FB7F404A13
:100FE00052F833303F4A93421BD03E4A934221D8B5
:100FF000B3F1904F03D03C4A934209D01AE0FB7FF3
:10100000374ADB0013449A88BB8B1343BB8312E03F
:10101000FB7F334ADB0013449A887B8B13437B832B
:1010200009E0FB7F2E4ADB0013449A883B8B134375
:101030003B8300E000BFFB7F0133FB77FB7F252B69
:10104000C5D90023FB600123BB6003233B61BB8B3D
:10105000002B14D0BB8B7B600120FFF741FF0120E8
:10106000FFF757FF3B1D19464FF090400AF00AF971
:10107000BB8B002219464FF090400AF069FB7B8B36
:10108000002B12D07B8B7B600220FFF729FF022010
:10109000FFF73FFF3B1D194613480AF0F3F87B8B1F
:1010A0000022194610480AF053FB3B8B002B13D04B
:1010B0003B8B7B600420FFF713FF0420FFF729FF21
:1010C0003B1D194607480AF0DDF83B8B0022194604
:1010D00004480AF03DFB00BF00BF2037BD4680BD7D
:1010E000B88D0108000800480004004880B400AF33
:1010F00000BFBD465DF8047B704780B500AF01F0CE
:10110000BFFB00BF80BD000080B483B000AF78603B
:10111000074BD3F8803023F0070205497B6813435F
:10112000C1F8803000BF0C37BD465DF8047B7047C6
:101130000004005880B483B000AF7860064BD3F849
:10114000902005497B681343C1F8903000BF0C37ED
:10115000BD465DF8047B70470008005880B483B03A
:1011600000AF78604FF0B0430A4AC3F89C204FF0BC
:10117000B043D3F89C3023F47C527B681B024FF0C1
:10118000B0411343C1F89C3000BF0C37BD465DF839
:10119000047B7047FECAFECA80B483B000AF78609B
:1011A0004FF0B0439B6823F400424FF0B0417B689E
:1011B00013438B6000BF0C37BD465DF8047B70475E
:1011C00080B400AF044B1B68C3F30B031846BD4645
:1011D0005DF8047B704700BF002004E080B400AFDE
:1011E000044B1B681B0C9BB21846BD465DF8047B84
:1011F000704700BF002004E080B400AF054B1B69BE
:10120000044A23F00403136100BFBD465DF8047B6C
:10121000704700BF00ED00E080B483B000AF78609D
:101220007B68FF225A6200BF0C37BD465DF8047B25
:10123000704780B483B000AF78607B68CA225A627E
:101240007B6853225A6200BF0C37BD465DF8047BB1
:10125000704780B483B000AF786039607B689B686A
:1012600023F007023B681A437B689A6000BF0C3783
:10127000BD465DF8047B704780B500AF044B4FF46A
:1012800000421A6100F060F800F065F800BF80BD10
:101290000040005880B500AF00F071F800F08AF807
:1012A0001E49002000F0EAFFFFF74FFE0121012058
:1012B00012F08CFB0021002008F0AAFE184812F062
:1012C00057F8002012F0AAF80021002009F0C4F815
:1012D000002008F06DFF002008F096FF114812F082
:1012E000E5F8FF2012F0BAF8002012F0CBF8002148
:1012F000002009F0B1F8002008F086FF01230A4A17
:101300000021002012F048F9002008F07DFF00F0D5
:1013100085FA00F05DF800BF80BD00BFC006002068
:1013200040CA010888030020F46C010880B400AFB3
:1013300000BFBD465DF8047B704780B500AF50200C
:10134000FFF7F8FE00BF80BD80B400AF00BFBD4610
:101350005DF8047B704780B582B000AF002010F0CC
:1013600041FF78607B68002B05D07B689B7918462D
:10137000FFF7F4FE00BF00BF0837BD4680BD80B553
:1013800000AFFFF7D3FFFFF7D8FF00F003F800BF6F
:1013900080BD000080B500AF0548FFF74AFF00217F
:1013A0000348FFF756FF0248FFF736FF00BF80BD36
:1013B0000028004080B500AF4FF40040FFF7ECFE7E
:1013C00012F0F2FA0420FFF79FFE00BF80BD00007C
:1013D00080B588B000AF11F089FD114A002140208E
:1013E00012F020FC0F4B3B600F4B7B603B461946D5
:1013F0000E4811F011F80E4BBB600E4BFB600E4B0C
:101400003B6140F23C537B6107F10803184611F041
:10141000AFFE11F065FD00BF2037BD4680BD00BFA7
:1014200051240108340703203D1400085514000816
:101430004C09032040080320F801032080B483B046
:1014400000AF0346FB7100BF0C37BD465DF8047B5F
:101450007047000080B588B000AF78607B685B683B
:101460000B33FB61FB691B889BB2A3F51243072B6F
:1014700000F2D08001A252F823F000BF9D140008B2
:101480002F150008511500081516000895150008BD
:10149000B9150008D5150008F915000807F10C0367
:1014A000184610F00BFF5E4810F04EF901464FF45D
:1014B000C8735C4A5C4813F0ABFA3B7B19467B7BF4
:1014C0001A46BB7B594813F0A3FA554810F03CF973
:1014D000014640F29113534A534813F099FA3B7C6A
:1014E0001946534813F094FA4D4810F02DF901466F
:1014F0004FF4C9734B4A4C4813F08AFABB7D194626
:10150000FB7D1A463B7E4B4813F082FA444810F0AC
:101510001BF901464FF4CA73424A434813F078FA64
:10152000454813F0E5FA786800F0E0F873E03C48CD
:1015300010F00AF9014640F299133A4A3A4813F07A
:1015400067FA3E4813F0D4FA786800F085F862E054
:10155000334810F0F9F801464FF4CF73314A32485E
:1015600013F056FA364813F0C3FA2D4810F0ECF891
:10157000014640F29F132B4A2B4813F049FAFB69AE
:1015800002331968FB6902335B681A462D4813F071
:101590003FFA40E0224810F0D7F8014640F2A51388
:1015A000204A214813F034FAFB6902331B681946BC
:1015B000254813F02DFA2EE0194810F0C5F8014621
:1015C0004FF4D573174A184813F022FA1F4813F046
:1015D0008FFA20E0124810F0B7F801464FF4D773A5
:1015E000104A114813F014FAFB6902331B681946BC
:1015F000174813F00DFA0EE0094810F0A5F801465F
:1016000040F2B313074A084813F002FA114813F0E6
:101610006FFA00E000BF00BF2037BD4680BD00BFAD
:10162000086D0108E88E0108906D0108A86D010899
:10163000D06D0108F06D0108086E0108286E0108E0
:101640004C6E01089C6E0108C86E0108046F010809
:10165000286F0108646F010880B584B000AF78601E
:101660007B685B680B33FB60FB680233BB60194827
:1016700010F06AF8014640F2CB13174A174813F0EE
:10168000C7F9BB681B781946154813F0C1F9BB6848
:101690001B78002B0DD10F4810F056F801464FF47F
:1016A000E8730D4A0D4813F0B3F90E4813F020FA11
:1016B0000DE0084810F048F801464FF4EA73064A76
:1016C000064813F0A5F9084813F012FA00BF1037C6
:1016D000BD4680BD086D0108FC8E0108906D0108B3
:1016E000886F0108BC6F0108F86F010880B58AB0E7
:1016F00000AF786007F1080300221A605A609A6010
:10170000DA6000237B6200233B627B685B680B33FB
:10171000FB61FB690233BB61BB691B78002B46D1BF
:10172000364810F011F801464FF4F573344A354845
:1017300013F06EF9344813F0DBF9FFF719FC0F23AF
:101740003B727F23BB72FFF749FD78622B480FF095
:10175000FBFF014640F20223294A2A4813F058F9B8
:10176000796A2A4813F054F97B6A9BB2BB82FFF76F
:1017700027FD386221480FF0E7FF014640F20723BA
:101780001F4A204813F044F9396A214813F040F900
:101790003B6A9BB2FB8207F10803184610F078FD04
:1017A00002F046F90021012012F010F922E0BB6995
:1017B0001B78012B10D111480FF0C6FF01464FF4E2
:1017C00005730F4A0F4813F023F9124813F090F9EC
:1017D0007B6800221A700DE008480FF0B5FF014643
:1017E00040F21B23064A074813F012F90A4813F087
:1017F0007FF900BF2837BD4680BD00BF086D0108D6
:10180000108F0108906D01083470010850700108B4
:101810007470010898700108CC70010880B500AFA1
:101820000121002008F040FA0121012008F03CFAD3
:1018300000BF80BD80B584B000AF786009F0B0F81B
:10184000B8607B68FB60FB68B3F1FF3F0AD009F02A
:10185000BFF803461A46FB681344FB6002E0FFF73B
:10186000CBFC30BF09F09CF80246BB68D31AFA687B
:101870009A42F4D800BF00BF1037BD4680BD80B586
:1018800000AF4FF0FF3012F0D1F800BF80BD80B440
:1018900000AF00BFBD465DF8047B704780B582B0E5
:1018A00000AF786039604FF0FF3012F0BFF800BF32
:1018B0000837BD4680BD80B582B000AF786000219A
:1018C000402012F0D1F900BF0837BD4680BD80B579
:1018D00082B000AF7860022012F032FA00BF083701
:1018E000BD4680BD80B582B000AF7860022012F0A6
:1018F00047FA00BF0837BD4680BD000080B582B002
:1019000000AF0346FB80FB88B3F5005F1FD0B3F543
:10191000005F1FDC102B0EDC022B1BDB1A46104B6A
:10192000D34003F00103002B14BF01230023DBB2DB
:10193000002B04D10EE0B3F5805F05D00AE0FB88F0
:10194000184607F065F906E002F038FE03E002F001
:101950006DFE00E000BF00BF0837BD4680BD00BF80
:101960001401010080B400AF0A4B1B78002B07D094
:10197000084B1B78013BDAB2074B1A70002303E0D7
:10198000054B00221A7001231846BD465DF8047B02
:10199000704700BFDE050020DD05002080B500AFE8
:1019A000FFF7E0FF0346002B26D1144B00221A70EC
:1019B000134B1B78042B1CD801A252F823F000BF54
:1019C000D5190008DB190008E1190008E71900081B
:1019D000ED19000804F032F80EE004F035F90BE0E0
:1019E00004F038FA08E004F03BFB05E004F03EFCAC
:1019F00002E004F023F800BF00BF80BDDE05002038
:101A0000DD05002080B500AF0021202012F02CF968
:101A1000202012F00BF800BF80BD000080B500AFA1
:101A2000094A0021202012F0FDF8084B0122084944
:101A3000002000F0FDFC064B1B781421184600F036
:101A4000F5FD00BF80BD00BF9D190008051A000804
:101A5000DC05002080B483B000AF7860064BD3F87B
:101A6000802005497B681343C1F8803000BF0C37E4
:101A7000BD465DF8047B70470008005880B483B011
:101A800000AF7860054B1A6804497B6813430B600C
:101A900000BF0C37BD465DF8047B70470008005856
:101AA00080B483B000AF0D4B9B6A9BB27B600B4B45
:101AB0009B6A9BB23B6005E03B687B60074B9B6A7F
:101AC0009BB23B607A683B689A42F5D13B68184606
:101AD0000C37BD465DF8047B704700BF002800400E
:101AE00080B485B000AF03460A46FB711346BB7154
:101AF000BA791D4913465B001344DB000B441533D0
:101B00001B78FB73FB7B062B09D0FA7B1649134627
:101B10005B001344DB000B441433FA791A70FA7932
:101B2000114913465B001344DB000B441533FA7B69
:101B30001A70FA790C4913465B001344DB000B441E
:101B40001433BA791A70BA79074913465B00134403
:101B5000DB000B441533FA791A7000BF1437BD4609
:101B60005DF8047B704700BFE005002080B485B0BD
:101B700000AF03460A46FB711346BB71294B1B7825
:101B8000DBB2BA799A4232D0BA79274913465B0060
:101B90001344DB000B4414331B78FB73FA7B22499C
:101BA00013465B001344DB000B441533FA791A70BB
:101BB000FA791D4913465B001344DB000B441533CF
:101BC000BA791A70FA79184913465B001344DB009E
:101BD0000B441433FA7B1A70BA79134913465B002D
:101BE0001344DB000B441433FA791A7014E0FA79C9
:101BF0000D4913465B001344DB000B441533BA79DF
:101C00001A70BA79084913465B001344DB000B4491
:101C10001433FA791A7000BF1437BD465DF8047B9F
:101C2000704700BF70060020E005002080B584B03A
:101C300000AF0346FB714E4B1B78DBB2062B18D16D
:101C40004B4B1B78DAB24B4B1A70494AFB79137035
:101C5000FA79494913465B001344DB000B44153302
:101C600006221A70454B4FF0FF321A600023FB81A9
:101C700078E000F009F90346FB81FA793E49134602
:101C80005B001344DB000B4408331968FB89FA79C5
:101C90001944394813465B001344DB0003440833FE
:101CA0001960FA79344913465B001344DB000B4496
:101CB00008331B68BB602E4B1B78DBB219462E4ADB
:101CC0000B465B000B44DB00134408331B68BA6807
:101CD0009A4237D3264B1B787B737A7B264913466F
:101CE0005B001344DB000B4415331B783B7313E09C
:101CF0007A7B214913465B001344DB000B44153308
:101D00001B787B737A7B1C4913465B001344DB0012
:101D10000B4415331B783B733B7B062B0BD03A7B74
:101D2000154913465B001344DB000B4408331B6862
:101D3000BA689A42DCD27A7BFB7911461846FFF7E3
:101D4000CFFE0FE00A4B1B78DAB2FB79114618463A
:101D5000FFF70CFF064B1B78DAB2064B1A70044AE9
:101D6000FB791370FB8918461037BD4680BD00BF54
:101D70007006002071060020E00500207406002097
:101D800080B485B000AF03460A46FB711346BB71B1
:101D9000394B1B78DBB2FA799A4211D1364B1B785A
:101DA000DAB2364B1A70FA79354913465B001344A0
:101DB000DB000B4415331B78DAB22F4B1A703EE070
:101DC000FA792F4913465B001344DB000B441433AC
:101DD0001B78FB73FA792A4913465B001344DB0036
:101DE0000B4415331B78BB73F979FA7B24480B46F7
:101DF0005B000B44DB00034415331B78D8B2204949
:101E000013465B001344DB000B44153302461A7083
:101E1000BB7B062B13D0F979BA7B19480B465B00C4
:101E20000B44DB00034414331B78D8B21449134627
:101E30005B001344DB000B44143302461A70FA793A
:101E40000F4913465B001344DB000B440C330122A3
:101E50001A70094B1B78DBB2062B07D1BB79002B1C
:101E600004D1084B4FF0FF321A6000BF00BF143797
:101E7000BD465DF8047B70477006002071060020A7
:101E8000E00500207406002080B582B000AF1A4B38
:101E90001B68B3F1FF3F26D0FFF702FE7860164BB8
:101EA0001B687A689A4205D8134B1A687B68D31A64
:101EB0007B600AE0114B1B881A467B68D31A3B6093
:101EC0000D4B1B683A6813447B600D4B1B781A4618
:101ED0007B6802FB03F37B600A4B1B781A467B6826
:101EE000D3407B6001E000237B607B689BB2184697
:101EF0000837BD4680BD00BF740600207C06002068
:101F00007A0600207906002080B582B000AF034633
:101F1000FB80FB88002B08D1FFF7C2FD0346214A56
:101F20001360032008F0E9FE39E0FB88012B03D899
:101F30001D4B1B78012B02D0FB88013BFB8000BFAF
:101F40001A4B1B68DB6803F00403002BF8D0174B17
:101F50001B68DB68DAB2154B1B6862F49062DA60CA
:101F6000134B4FF40022DA60032008F0D4FE114B2B
:101F70005B691B0C1B04FA880E4913434B61FFF786
:101F80008FFD0346074A1360084B1B689A68074B8E
:101F90001B6842F480629A60AFF3008000BF08378C
:101FA000BD4680BD7406002079060020C0060020D2
:101FB000000800580028004080B584B000AF454BB1
:101FC0009B6803F48063B3F5806F07D100BF424B79
:101FD0001B68DB6803F00403002BF8D13E4B1B6841
:101FE0009A683D4B1B6822F480629A603B4B1B78D9
:101FF000FB73FA7B3A4913465B001344DB000B4446
:1020000008331B68BB60FFF73FFF0346FB80FB887C
:10201000BA689A4205D20023BB81324B01221A7062
:102020004DE0FB88304A128892B213441A46BB68CE
:10203000934206D92C4B1B88BB812A4B00221A7075
:102040003DE0BB689AB2FB88D31ABB81254B0122C5
:102050001A7034E0FA7B224913465B001344DB001C
:102060000B4408331A68FB889A420AD2FA7B1C494F
:1020700013465B001344DB000B44083300221A6054
:1020800013E0FA7B164913465B001344DB000B4454
:1020900008331968FB88FA7BC91A114813465B009C
:1020A0001344DB00034408331960FA7B0C491346E0
:1020B0005B001344DB000B4415331B78FB73FB7B85
:1020C000062BC7D1BB891846FFF71EFF00BF10378C
:1020D000BD4680BD00280040C006002070060020DC
:1020E000E0050020780600207E06002080B58AB03A
:1020F00000AFEFF310837B617B697B6272B600BF38
:10210000594B1B68CA225A62574B1B6853225A62AA
:10211000554B1B689A68544B1B6822F480629A6086
:10212000524B1B7887F8233097F8232050491346E9
:102130005B001344DB000B440C331B78DBB2022B37
:102140006ED197F823204A4913465B001344DB0005
:102150000B441B68FB6197F82320454913465B003D
:102160001344DB000B4410331B68BB61414B1B78ED
:10217000DBB2002B4CD097F823203D4913465B007F
:102180001344DB000B440D331B78DBB2012B24D14D
:1021900097F8233001211846FFF7F2FD7B6A3B6177
:1021A0003B6983F3108800BF97F82320304913461A
:1021B0005B001344DB000B4404331A6897F82330A8
:1021C0001146184600F032FA274B1B68CA225A62A1
:1021D000254B1B6853225A6212E07B6AFB60FB6846
:1021E00083F3108800BF97F82330184600F09AF95F
:1021F0001D4B1B68CA225A621B4B1B6853225A6232
:1022000097F82330FA691946B86900F095FA22E088
:10221000FFF7D2FE7B6ABB60BB6883F310881AE0CD
:1022200000BF114B1B68DB6803F00403002BF8D0E0
:102230000D4B1B68DB68DAB20B4B1B6862F49062D3
:10224000DA600D4B4FF40022DA607B6A7B607B68BA
:1022500083F3108800BF044B1B68FF225A6200BF43
:102260002837BD4680BD00BFC00600207006002094
:10227000E0050020780600200008005880B588B0EE
:1022800000AF03463960FB715E4B1B68CA225A627D
:102290005C4B1B6853225A625B4B9B685A4A43F063
:1022A00020039360584B9B68DBB203F00703DBB25B
:1022B000C3F10403DAB2554B1A70534B1B6903F494
:1022C000FE034FF4FE023A613A6992FAA2F2FA6012
:1022D000FA687A617A69002A01D1202203E07A69DA
:1022E000B2FA82F2D2B2D340DBB20133DAB2484B57
:1022F0001A70454B1B699BB2C3F30E039BB20133AB
:102300009AB2444B1A80434B1B88013B404A1278D7
:1023100002FB03F3A3F5A0733C4A1278D340BB61E0
:10232000BB694FF6FE72934204D93B4B4FF6FF72E6
:102330001A8003E0BB699AB2374B1A804FF4002031
:10234000FFF79CFB4FF40020FFF784FBFB79002B89
:102350003DD1324B01221A70314B4FF0FF321A60DF
:102360000023FB770CE0FA7F2E4913465B001344F1
:10237000DB000B440C3300221A70FB7F0133FB7728
:10238000FB7F052BEFD9284B06221A701D4B1B68CB
:102390009A681C4B1B6822F480629A60194B1B6878
:1023A000DB68DAB2174B1B6862F49062DA601F4B8D
:1023B0004FF40022DA60032008F0ADFC114B1B68DB
:1023C0009A68104B1B6842F480429A6009E00D4BFA
:1023D0001B68DB6803F48063002B02D0032008F045
:1023E0008CFC084B1B68FF225A6200220321032049
:1023F00008F041FC032008F058FC00BF2037BD4620
:1024000080BD00BFC00600200028004079060020E3
:102410007A0600207C0600207E0600207806002038
:1024200074060020E0050020700600200008005817
:1024300080B48BB000AFF860B9603B601346FB71AD
:10244000002387F82630EFF31083FB61FB693B62C2
:1024500072B600BF04E097F82630013387F82630C3
:1024600097F82630052B0CD897F826202C491346D0
:102470005B001344DB000B440C331B78DBB2002BF6
:10248000E9D197F82630062B38D097F82620244932
:1024900013465B001344DB000B440C3301221A701B
:1024A0003B6ABB61BB6983F3108800BF97F82620A5
:1024B0001B4913465B001344DB000B441033FA68DE
:1024C0001A6097F82620164913465B001344DB0078
:1024D0000B440D33FA791A7097F8262010491346E9
:1024E0005B001344DB000B443A681A60BB6897F842
:1024F00026201A70002387F8273008E03B6A7B61AA
:102500007B6983F3108800BF012387F8273097F891
:10251000273018462C37BD465DF8047B704700BF56
:10252000E005002080B586B000AF0346FB71EFF3F5
:102530001083FB60FB687B6172B600BF032008F06C
:10254000C2FB344B1B68CA225A62324B1B685322AF
:102550005A62FA79304913465B001344DB000B449E
:102560000C331B78DBB2022B42D1FB7900211846D9
:10257000FFF706FC294B1B78FB74FB7C062B2FD145
:10258000274B9B6803F48063B3F5806F07D100BFCE
:10259000204B1B68DB6803F00403002BF8D11D4BB4
:1025A0001B689A681B4B1B6822F480629A6000BF0C
:1025B000184B1B68DB6803F00403002BF8D0154BA5
:1025C0001B68DB68DAB2134B1B6862F49062DA6056
:1025D000144B4FF40022DA60032008F09CFB07E064
:1025E000114B1B78DBB2FA7C9A4201D0FFF7E4FC76
:1025F000084B1B68FF225A62032008F056FB7B69D8
:10260000BB60BB6883F3108800BF00BF1837BD46AE
:1026100080BD00BFC0060020E0050020700600203D
:1026200000280040000800587106002080B586B0E0
:1026300000AF03463960FB71FA793B4913465B00F2
:102640001344DB000B440C331B78DBB2022B03D1A9
:10265000FB791846FFF766FFEFF31083FB60FB681A
:102660007B6172B600BF032008F02DFB2F4B1B6867
:10267000CA225A622D4B1B6853225A62FA792A49A0
:1026800013465B001344DB000B440C3302221A7028
:10269000FA79254913465B001344DB000B440833E9
:1026A0003A681A60FA79204913465B001344DB004C
:1026B0000B4404333A681A60FB791846FFF7B6FA00
:1026C00003467B821A4B1B787B741A4B1B78DBB258
:1026D0007A7C9A4202D0FFF76FFC13E0FA79124934
:1026E00013465B001344DB000B44083319687B8AF4
:1026F000FA79C91A0C4813465B001344DB00034403
:1027000008331960094B1B68FF225A62032008F046
:10271000CCFA7B69BB60BB6883F3108800BF00BF45
:102720001837BD4680BD00BFE0050020C006002070
:10273000700600207106002080B584B000AFF860FC
:102740000B467A60FB727B68984700BF1037BD4626
:1027500080BD000080B582B000AF78607B681B68E8
:102760001A46094B9A4207D1084B1B68002B05D02B
:10277000064B1B68984701E000BF00E000BF00BFA8
:102780000837BD4680BD00BF0080004080060020A5
:1027900080B483B000AF78604FF0B043D3F890308E
:1027A00023F018024FF0B0417B681343C1F890301A
:1027B00000BF0C37BD465DF8047B704780B485B020
:1027C00000AF78604FF0B0439A6C4FF0B0417B6837
:1027D00013438B644FF0B0439A6C7B681340FB60EB
:1027E000FB6800BF1437BD465DF8047B704780B4BA
:1027F00085B000AF78604FF0B043DA6C4FF0B04175
:102800007B681343CB644FF0B043DA6C7B681340B2
:10281000FB60FB6800BF1437BD465DF8047B704762
:1028200080B483B000AF78607B68FF225A6200BF3B
:102830000C37BD465DF8047B704780B483B000AFB1
:1028400078607B68CA225A627B6853225A6200BF52
:102850000C37BD465DF8047B704780B483B000AF91
:10286000786039607B689B6823F007023B681A43F5
:102870007B689A6000BF0C37BD465DF8047B7047EB
:1028800080B500AF224B234A1A60214B4FF4E1324E
:102890005A601F4B00229A601D4B0022DA601C4BCD
:1028A00000221A611A4B0C225A61194B00229A61BC
:1028B000174B00221A62164B00225A62144B002258
:1028C0009A62134B00225A6611480CF03DFA0346F7
:1028D000002B01D000F0E1FC00210D480DF045FB7C
:1028E0000346002B01D000F0D8FC002108480DF071
:1028F0007AFB0346002B01D000F0CFFC04480DF01A
:10290000FBFA0346002B01D000F0C7FC00BF80BDDE
:10291000D80700200080004080B586B002AF4FF499
:10292000A873FB600023BB600023FB8000237B7146
:1029300005F0A8FB0023009300234FF40072284900
:10294000284805F025F90023009300234FF4007276
:102950002349254805F01CF90023009300234FF478
:1029600000721F49214805F013F93B461A462049D9
:102970001D4805F001FA03467B7197F90530002BDD
:1029800005D13B681A461A491A480EF089FE3B46A3
:102990001A461749134805F0EFF903467B7197F97A
:1029A0000530002B05D13B681A46114912480EF03C
:1029B00077FE3B461A460E490C4805F0DDF9034602
:1029C0007B7197F90530002B05D13B681A46084901
:1029D00008480EF065FE00BF1037BD4680BD00BF41
:1029E00008000020507101085C710108687101083D
:1029F000D8090020747101088871010880B500AF02
:102A000007F060FFFEF738FC00F020F800F07AF8DD
:102A100000F098F800F03AFC00F0F6F800F0E2F868
:102A200000F0ACF8FFF72CFF00F0A0F800F0CAFBB4
:102A300000F006FCFEF72EFCFFF76EFF02F07EFFB3
:102A4000FEF7ECFFFEF71BFFFCE7000080B59AB035
:102A500000AF07F1200348220021184612F058F970
:102A60003B1D00221A605A609A60DA601A615A614E
:102A70009A6108F047FF1020FFF78AFE204B1B6881
:102A800023F4C0631E4A43F4007313601C4B1B689D
:102A900003F4C0633B603B6807233B624FF4803321
:102AA0007B620123BB624FF48073FB6240233B6374
:102AB0000023FB6407F12003184609F07DFE03465E
:102AC000002B01D000F0E9FB6F237B600223BB6089
:102AD0000023FB6000233B6100237B610023BB617B
:102AE0000023FB613B1D012118460AF0D9F903467A
:102AF000002B01D000F0D1FB00BF6837BD4680BD80
:102B00000004005880B594B000AF3B46502200212D
:102B1000184612F0FDF84FF440533B604FF48043E9
:102B20007B640223BB640023FB643B4618460AF027
:102B3000F4FD0346002B01D000F0AFFB00BF50377F
:102B4000BD4680BD80B500AF064B074A1A600548F8
:102B500008F052FE0346002B01D000F09EFB00BFA0
:102B600080BD00BF84060020000C005880B400AF78
:102B700000BFBD465DF8047B7047000080B500AF24
:102B8000164B174A1A60154B00225A60134B0F223E
:102B90009A60124B47F6FF72DA60104B00221A61FE
:102BA0000E4B00229A610D4B0022DA610B4B002282
:102BB0005A610A480BF038F80346002B01D000F0A8
:102BC0006CFB0748FFF739FE00210548FFF745FE7B
:102BD0000348FFF725FE00BF80BD00BFC0060020F0
:102BE0000028004080B500AF0420FFF7E7FD022079
:102BF000FFF7E4FD00220F213A2008F03CF83A20CC
:102C000008F053F800BF80BD80B586B000AF3B1D13
:102C100000221A605A609A60DA601A610120FFF798
:102C2000E6FD0420FFF7E3FD0220FFF7E0FD0820AA
:102C3000FFF7DDFD1020FFF7DAFD8020FFF7D7FD5D
:102C400000220321BF4808F083FD00224FF44071A9
:102C5000BD4808F07DFD00224FF48071BB4808F0AC
:102C600077FD00220421BA4808F072FD00220121FC
:102C7000B64808F06DFD00224021B34808F068FD19
:102C800001224021B34808F063FD012220214FF0CA
:102C9000904008F05DFD3A237B600323BB60002376
:102CA000FB603B1D1946A84808F0ECFA40F60443C7
:102CB0007B600023BB600023FB603B1D1946A248DC
:102CC00008F0E0FA4FF400737B600223BB6000233E
:102CD000FB6000233B610A237B613B1D19469D4835
:102CE00008F0D0FA01237B600223BB600023FB6065
:102CF00000233B6108237B613B1D1946924808F085
:102D0000C1FA4FF480737B601223BB600023FB6029
:102D100000233B6104237B613B1D19468D4808F06D
:102D2000B1FA4FF481537B600223BB600023FB6048
:102D300000233B6108237B613B1D1946854808F051
:102D4000A1FA4FF400437B600223BB600023FB60C9
:102D500000233B6101237B613B1D19464FF09040EE
:102D600008F090FA4FF480637B601223BB6000236D
:102D7000FB6000233B6104237B613B1D19464FF040
:102D8000904008F07FFA4FF4C0537B600223BB6091
:102D90000023FB6000233B610A237B613B1D194636
:102DA0004FF0904008F06EFA12237B600023BB6066
:102DB0000023FB603B1D1946654808F063FA4FF499
:102DC00080637B600223BB600023FB6000233B61C8
:102DD00001237B613B1D19465E4808F053FA04232A
:102DE0007B600023BB600023FB603B1D19465948F4
:102DF00008F048FA4FF440737B600223BB60002365
:102E0000FB6000233B6103237B613B1D19464FF0B0
:102E1000904008F037FA40237B600223BB60002318
:102E2000FB6000233B6108237B613B1D19464FF08B
:102E3000904008F027FA08237B600223BB60002340
:102E4000FB6000233B610A237B613B1D19464FF069
:102E5000904008F017FA03237B600123BB60002336
:102E6000FB6000233B613B1D1946364808F00AFA17
:102E70004FF440437B600223BB600023FB600023D0
:102E80003B6101237B613B1D1946304808F0FAF98C
:102E900043F210037B600023BB600023FB603B1DFB
:102EA00019462A4808F0EEF94FF401737B604FF49D
:102EB0008813BB600023FB603B1D1946234808F0C4
:102EC000E1F94FF440737B600123BB600023FB609A
:102ED00000233B613B1D19461B4808F0D3F96823CA
:102EE0007B600223BB600023FB6000233B610A235D
:102EF0007B613B1D1946154808F0C4F908237B6027
:102F00004FF48813BB600023FB603B1D194610483B
:102F100008F0B8F94FF480737B600123BB60002395
:102F2000FB6000233B613B1D1946084808F0AAF9E5
:102F30004FF440637B600223BB600023FB600023EF
:102F40000AE000BF001C004800080048000C0048D0
:102F500000100048000400483B6109237B613B1DD1
:102F60001946724808F08EF904237B600123BB6088
:102F70000023FB6000233B613B1D19466C4808F0B1
:102F800081F901237B600223BB600023FB600023E7
:102F90003B610E237B613B1D1946654808F072F9C1
:102FA00001237B600123BB600023FB6000233B61A6
:102FB0003B1D19465D4808F065F902237B6000233C
:102FC000BB600223FB603B1D1946584808F05AF9C4
:102FD00040237B600123BB600023FB6000233B6137
:102FE0003B1D1946534808F04DF940237B600123EF
:102FF000BB600123FB6001233B613B1D19464E482A
:1030000008F040F920237B600123BB600123FB60B3
:1030100002233B613B1D19464FF0904008F032F906
:1030200000224FF400414FF0904008F091FB012244
:1030300010214FF0904008F08BFB002202213C4809
:1030400008F086FB06237B604FF48813BB600023E7
:10305000FB603B1D19464FF0904008F013F9182310
:103060007B604FF48813BB600023FB603B1D194657
:10307000304808F007F94FF480637B600123BB60A0
:103080000023FB6000233B613B1D1946294808F0E3
:10309000F9F848F210037B600123BB600023FB605A
:1030A00000233B613B1D19464FF0904008F0EAF8C1
:1030B0004FF480437B600023BB600023FB603B1D1B
:1030C00019461A4808F0DEF802237B600123BB6032
:1030D0000023FB6000233B613B1D1946144808F0A8
:1030E000D1F800220521072007F0C5FD072007F0D1
:1030F000DCFD00220521082007F0BDFD082007F0B7
:10310000D4FD00220521092007F0B5FD092007F0B4
:10311000CCFD002205210A2007F0ADFD0A2007F0B2
:10312000C4FD00BF1837BD4680BD00BF000C00487D
:1031300000100048000800480004004880B582B034
:1031400000AF786039601D4B1D4A1A601B4B4FF46D
:1031500082725A60194B00229A60184B4FF4E06259
:10316000DA60164B00221A61144B00225A61134B8D
:103170004FF400729A61114B0022DA610F4B00226A
:103180001A620E4B00225A620C4B00229A620B4BC1
:103190000722DA62094B00221A63084B08225A639D
:1031A00006480AF077FE0346002B01D000F075F8C0
:1031B00000BF18460837BD4680BD00BFCC080020C0
:1031C0000030014080B500AF1B4B1C4A1A601A4BFF
:1031D0004FF482725A60184B00229A60164B4FF4DB
:1031E000E062DA60144B00221A61134B00225A612C
:1031F000114B4FF400729A610F4B2022DA610E4B93
:1032000000221A620C4B00225A620B4B00229A6277
:10321000094B0722DA62084B00221A63064B082288
:103220005A6305480AF036FE0346002B01D000F031
:1032300034F800BF80BD00BF3009002000380040D6
:1032400080B500AF0F4B104A1A600E4B02225A6035
:103250000C4B01229A600B4B0022DA60094B1722BB
:103260001A61084B00225A61064B00229A610548F8
:1032700008F066FB0346002B01D000F00EF800BFFB
:1032800080BD00BF94090020001000A080B400AFF2
:1032900000BFBD465DF8047B704780B400AF72B6D6
:1032A00000BF00BFFDE780B483B000AF78604FF08F
:1032B000B043D3F8903023F440724FF0B0417B68B4
:1032C0001343C1F8903000BF0C37BD465DF8047B56
:1032D000704780B400AF4FF0B043D3F890304FF058
:1032E000B04243F40043C2F8903000BFBD465DF8E1
:1032F000047B704780B485B000AF78604FF0B04376
:10330000DA6C4FF0B0417B681343CB644FF0B043AD
:10331000DA6C7B681340FB60FB6800BF1437BD4666
:103320005DF8047B704780B485B000AF78604FF0E3
:10333000B0431A6D4FF0B0417B6813430B654FF0FB
:10334000B0431A6D7B681340FB60FB6800BF143705
:10335000BD465DF8047B704780B485B000AF7860EF
:103360004FF0B0439A6D4FF0B0417B6813438B65CB
:103370004FF0B0439A6D7B681340FB60FB6800BF61
:103380001437BD465DF8047B704780B485B000AF4C
:1033900078604FF0B043DA6D4FF0B0417B68134373
:1033A000CB654FF0B043DA6D7B681340FB60FB6880
:1033B00000BF1437BD465DF8047B704780B485B00C
:1033C00000AF78604FF0B0431A6E4FF0B0417B68A9
:1033D00013430B664FF0B0431A6E7B681340FB60DB
:1033E000FB6800BF1437BD465DF8047B704780B5AD
:1033F00000AF4FF40020FFF796FF002200212E209F
:1034000007F039FC2E2007F050FC00BF80BD000003
:1034100080B582B000AF78607B681B68054A934234
:1034200003D14FF48010FFF77EFF00BF0837BD4681
:1034300080BD00BF000C005880B596B000AF78602A
:1034400007F1080350220021184611F061FC7B6847
:103450001B68144A934220D108F054FA08F052FA3B
:103460004FF48070FFF71FFF4FF40063BB604FF411
:103470008073BB6407F1080318460AF04EF903464F
:10348000002B01D0FFF709FFFFF723FF4FF4806007
:10349000FFF762FF78680AF0C7FC00BF5837BD46E7
:1034A00080BD00BF0028004080B59CB000AF7860B0
:1034B00007F15C0300221A605A609A60DA601A61B0
:1034C00007F10C0350220021184611F021FC7B6803
:1034D0001B685C4A934256D10123FB6000237B6248
:1034E00007F10C0318460AF018F90346002B01D027
:1034F000FFF7D3FE4FF48040FFF760FF0220FFF795
:10350000F9FEC023FB6502233B6601237B66032390
:10351000BB660723FB6607F15C0319464A4807F0C0
:10352000B1FE4A4B4A4A1A60484B0F225A60474B39
:1035300010229A60454B0022DA60444B80221A61C7
:10354000424B00225A61414B00229A613F4B0022BC
:10355000DA613E4B00221A623C4807F0EBFB03465F
:10356000002B01D0FFF799FE7B68384ADA67374AAB
:103570007B68936200220021242007F07CFB24203A
:1035800007F093FB59E07B681B68324A934254D1A1
:103590000223FB600023BB6207F10C0318460AF00C
:1035A000BCF80346002B01D0FFF777FE0120FFF7A0
:1035B000ECFE0420FFF79EFE0323FB6502233B661F
:1035C00000237B660023BB660823FB6607F15C03D0
:1035D0001946214807F056FE204B214A1A601F4B1E
:1035E00011225A601D4B10229A601C4B0022DA6097
:1035F0001A4B80221A61194B00225A61174B002284
:103600009A61164B0022DA61144B00221A621348A9
:1036100007F090FB0346002B01D0FFF73EFE7B68CE
:103620000E4ADA670D4A7B6893620022002125204A
:1036300007F021FB252007F038FB00BF7037BD469F
:1036400080BD00BF0038014000040048780700201A
:103650004404024000800040000800486C0800203C
:103660004400024080B588B000AF786007F10C03D9
:1036700000221A605A609A60DA601A617B681B68DF
:103680001D4A934217D14FF48050FFF797FE022056
:10369000FFF730FE3823FB6002233B6100237B6190
:1036A0000223BB610523FB6107F10C031946134894
:1036B00007F0E8FD1CE07B681B68114A934217D1B4
:1036C0004FF48040FFF748FE0220FFF713FE4FF44F
:1036D0006043FB6002233B6100237B610023BB61ED
:1036E0000523FB6107F10C031946044807F0CAFDE6
:1036F00000BF2037BD4680BD0030014000040048B7
:103700000038004080B588B000AF786007F10C0346
:1037100000221A605A609A60DA601A617B681B683E
:10372000224A93423ED14FF48070FFF7FCFD022005
:10373000FFF7E0FD0120FFF7DDFD0820FFF7DAFDD0
:103740004FF40073FB6002233B6100237B61002385
:10375000BB610A23FB6107F10C031946144807F00B
:1037600091FD0823FB6002233B6100237B61002362
:10377000BB610A23FB6107F10C0319464FF090402F
:1037800007F080FDE823FB6002233B6100237B619F
:103790000023BB610A23FB6107F10C0319460548AE
:1037A00007F070FD00BF2037BD4680BD001000A0AF
:1037B00000040048000C004880B400AF00BFFDE7E3
:1037C00080B400AF00BFFDE780B400AF00BFFDE7ED
:1037D00080B400AF00BFFDE780B400AF00BFFDE7DD
:1037E00080B400AF00BFBD465DF8047B704780B475
:1037F00000AF00BFBD465DF8047B704780B400AFEA
:1038000000BFBD465DF8047B704780B500AF07F090
:10381000B3F800BF80BD000080B500AF02480BF0D8
:1038200071FB00BF80BD00BFE406002080B500AF83
:1038300007F0BEFF00BF80BD80B500AF024807F0B3
:10384000DFFB00BF80BD00BF7807002080B500AF60
:1038500001F01AFD00BF80BD80B500AF01F04AFD48
:1038600000BF80BD80B500AF4FF4805007F088FFE7
:103870004FF4005007F084FF00BF80BD80B500AF5B
:10388000FEF734FC00BF80BD80B500AF06F0F6F94E
:1038900000BF80BD80B400AF01231846BD465DF86F
:1038A000047B704780B582B000AF7860396011F05A
:1038B000A7FA034616221A604FF0FF33184608375E
:1038C000BD4680BD80B582B000AF78604FF0FF315B
:1038D0007868FFF7E7FF00BFFDE780B586B000AF6F
:1038E000F860B9607A6000237B610AE0AFF3008082
:1038F0000146BB685A1CBA60CAB21A707B690133B0
:103900007B617A697B689A42F0DB7B6818461837DE
:10391000BD4680BD80B483B000AF78604FF0FF3308
:1039200018460C37BD465DF8047B704780B483B001
:1039300000AF786039603B684FF400525A60002352
:1039400018460C37BD465DF8047B704780B483B0E1
:1039500000AF7860012318460C37BD465DF8047B44
:10396000704780B485B000AFF860B9607A6000231A
:1039700018461437BD465DF8047B704780B586B0A5
:1039800000AF7860144A154BD31A7B617B693B61A9
:10399000134B1B68002B02D1114B124A1A60104BBB
:1039A0001A687B6813443A699A4207D211F028FAE0
:1039B00003460C221A604FF0FF3309E0084B1B68E6
:1039C000FB60074B1A687B681344054A1360FB6869
:1039D00018461837BD4680BD0000032000100000C7
:1039E000D80D0020703C002080B400AF034B1B6852
:1039F0001846BD465DF8047B704700BF8075FF1F09
:103A000080B400AF034B1B68DBB21846BD465DF8BF
:103A1000047B70478475FF1F80B400AF034B1B68A5
:103A20001B0A1846BD465DF8047B70478475FF1F6E
:103A3000F0B5B1B004AF07F19403C7F8AC309E4BBA
:103A40003C1D1D460FCD0FC40FCD0FC40FCD0FC4AD
:103A500095E8070003C4228000F024FE0121022023
:103A60000FF0B4FF954A0021042010F0DBF83B1D55
:103A700018460EF0DFFB034687F8AB3097F8AB3003
:103A8000002B12D08E480DF05FFE014640F24F131E
:103A90008C4A8D4810F0BCFF97F8AB3019468B4824
:103AA00010F0B6FFFFF7F9FB0CE085480DF04CFE77
:103AB000014640F25513834A834810F0A9FF844819
:103AC00011F016F800F004FE0FF064F9814B0022AB
:103AD00083F880207F4B4FF6FF72DA827E4A002106
:103AE000012010F09FF801F081FA7C4B8922DA70F6
:103AF0007B4B00227B490020FEF79AFC754B02228B
:103B00005A76744B01221A7641F60D0001F0DAF96B
:103B1000754B80221A80754BA0221A80012001F07B
:103B20008BF8D7F8AC000EF0C9FB0346002B40F031
:103B3000928001F083F9C7F8A400D7F8A4300533C8
:103B40001B781D46D7F8A43004331B781E46D7F8DF
:103B5000A43003331B781A46D7F8A43002331B78FD
:103B60001946D7F8A43001331B781C46D7F8A43087
:103B70001B7807F180000393029401910092334671
:103B80002A465B4910F0BCFFD7F8AC301B781A46C8
:103B9000D7F8AC305B781946D7F8AC309B7807F192
:103BA000680000930B46534910F0AAFFD7F8AC30D9
:103BB000DB781A46D7F8AC301B7907F154004E4930
:103BC00010F09EFFD7F8AC309B7A1A46D7F8AC308D
:103BD000DB7A1946D7F8AC301B7B07F14000009325
:103BE0000B46464910F08CFF0021002006F034FC03
:103BF000002006F009FB07F18002032300210020CA
:103C00000FF0CAFC0FF066FC0346DB88194607F18B
:103C10006802032300200FF0BFFC0FF05BFC03469B
:103C2000DB885B00194607F15402032300200FF0E4
:103C3000B3FC0FF04FFC0346DB881A4613465B00CB
:103C40001344194607F14002032300200FF0A4FC9F
:103C5000002006F0D9FA4FF47A60FDF7EBFD002161
:103C6000002006F0F9FB002006F0CEFA0123244ADA
:103C7000002100200FF090FC0FF02CFC0346DB88A5
:103C8000194607F18002032300200FF085FC0FF096
:103C900021FC0346DB881A4613465B001344194691
:103CA0000323184A00200FF077FC002006F0ACFA3E
:103CB00000BFB437BD46F0BD18730108E118010814
:103CC0009C7101085C8F010828720108407201088C
:103CD00078720108E40D00202D4F00080802002032
:103CE0001D4F0008650E0020680E00206A0E00209F
:103CF000A0720108C0720108D4720108E8720108BC
:103D0000F87201080C730108F0B597B004AF786041
:103D1000922387F847307B6801333B643B6C1B7808
:103D2000FF2B00F04C82FF2B00F31884052B04D0EE
:103D30003E2B00F0878000F011BC3B6C02333B62ED
:103D40003B6AB3F801309AB2A84BDB8A9A4228D179
:103D5000A64B0022DA82A54B002283F88020A448DB
:103D60000DF0F2FC014640F2DB13A24AA24810F02B
:103D70004FFEA24810F0BCFE9D480DF0E5FC014648
:103D80004FF4EE739B4A9C4810F042FE3B6AB3F836
:103D900001309BB219463B6ADB781A46984810F00E
:103DA00037FE01F04BF878627B6A05331B781D46BD
:103DB0007B6A04331B781E467B6A03331B781A46E2
:103DC0007B6A02331B7819467B6A01331B781C46D9
:103DD0007B6A1B7807F1080003930294019100921B
:103DE00033462A46874910F08BFE0021002006F05A
:103DF00033FB002006F008FA0123834A002100204B
:103E00000FF0CAFB0FF066FB0346DB88194607F18B
:103E10000802032300200FF0BFFB0FF05BFB0346FB
:103E2000DB881A4613465B00134419460323774A7E
:103E300000200FF0B1FB002006F0E6F9012000F0B1
:103E4000FBFE8EE33B6C02337B637B6B1B780C2B9E
:103E500048D00C2B00F3B181012B00F0EB80032B39
:103E600040F0AB817B6B0133FB6261480DF06CFC71
:103E7000014640F205235F4A5F4810F0C9FD6448DF
:103E800010F036FE5A480DF05FFC014640F2062362
:103E9000584A594810F0BCFDFB6AB3F803309BB296
:103EA0001846FCF717FB4FF000025A4BFCF77CFB5F
:103EB00002460B4610461946FB6AB3F805309BB222
:103EC0001C46FB6AB3F807309BB21A4613469B00A8
:103ED00013445B000193009402460B464E4810F0D9
:103EE00097FD6BE17B6B01333B6341480DF02CFC8C
:103EF000014640F213233F4A3F4810F089FD4748EE
:103F000010F0F6FD3B6B1B78002B0DD138480DF0FF
:103F10001BFC014640F21623364A374810F078FD64
:103F20003F4810F0E5FD0CE031480DF00DFC014676
:103F300040F21A232F4A304810F06AFD394810F039
:103F4000D7FD2A4BDB8A07F11E0207F11F01184635
:103F50000DF0AAFA034687F8473097F84730002B50
:103F60000DD023480DF0F0FB01464FF40873214AB1
:103F7000214810F04DFD2C4810F0BAFD1EE11C4800
:103F80000DF0E2FB01464FF409731A4A1A4810F08B
:103F90003FFD264810F0ACFDFB7F022B14D1BB7F08
:103FA000022B11D112480DF0CFFB01464FF40A73DA
:103FB000104A114810F02CFDFB7F1946BB7F1A46B2
:103FC0001B4810F025FDF9E009480DF0BDFB014646
:103FD0004FF40B73074A084810F01AFDFB7F19468F
:103FE000BB7F1A46124810F013FDE7E0E40D0020F5
:103FF0009C7101086C8F0108287201085473010834
:1040000080730108A0720108F87201080C7301089E
:10401000BC7301080000F43FF473010864740108E4
:1040200094740108A4740108B4740108D4740108DC
:10403000F87401087B6B0133BB62AC4B93F88130A1
:104040001846FEF76FFAAA480DF07EFB014640F2D3
:104050003D23A84AA84810F0DBFCBB6AB3F8013046
:104060009BB21946A54810F0D3FCA1480DF06CFB9B
:10407000014640F23E239F4A9F4810F0C9FCBB6AAC
:104080009B7A1846BB6A5B7A1C46BB6A1B7A1D4644
:10409000BB6ADB791A46BB6A9B791946BB6A5B79B6
:1040A0000293019100922B4622460146944810F05B
:1040B000AFFC8F480DF048FB014640F245238D4A86
:1040C0008D4810F0A5FCBB6AB3F80B309BB21846C4
:1040D000FCF700FA4FF000028A4BFCF765FA024643
:1040E0000B4610461946BB6AB3F80D309BB21C460E
:1040F000BB6AB3F80F309BB21A4613469B001344B9
:104100005B000193009402460B467F4810F080FC50
:10411000764B93F88030042B04D1744B062283F83D
:10412000802003E0714B052283F88020BB6AB3F83E
:1041300001309AB26D4BDA8200F080FE78627B6AC1
:1041400005331B781D467B6A04331B781E467B6A49
:1041500003331B781A467B6A02331B7819467B6A45
:1041600001331B781C467B6A1B7807F10800039318
:1041700002940191009233462A46644910F0C0FC33
:104180000FF0A8F90346DB88194607F1080203235C
:1041900000200FF001FA0FF09DF90346DB881A4664
:1041A00013465B00134419460323594A00200FF0BD
:1041B000F3F9002006F028F800E000BFD1E13B6CE5
:1041C0000233FB63FB6B1B889BB240F20A429342B3
:1041D00022DCB3F5806FC0F2C381A3F580630A2BA4
:1041E00000F2BE8101A252F823F000BF2542000870
:1041F0009344000841420008B3420008CF4200083F
:10420000314300086145000819450008A143000832
:10421000D9430008BD43000840F60E42934200F027
:1042200089819DE132480DF08FFA01464FF41E73EB
:10423000304A314810F0ECFB364810F059FC8CE164
:104240002B480DF081FA01464FF41F73294A2A4882
:1042500010F0DEFB304810F04BFC244BDB8A2F497A
:1042600018460CF083F9034687F8473097F8473033
:10427000002B10D01E480DF067FA014640F2812352
:104280001C4A1D4810F0C4FB97F8473019462448D3
:1042900010F0BEFB61E116480DF056FA014640F2FF
:1042A0008523144A144810F0B3FB1E4810F020FC7C
:1042B00053E10F480DF048FA014640F28A230D4AB7
:1042C0000D4810F0A5FB184810F012FC45E1084815
:1042D0000DF03AFA014640F28E23064A064810F0E5
:1042E00097FB124810F004FC37E100BFE40D0020FA
:1042F0009C7101086C8F0108287201081C75010867
:10430000687501080000F43FF4730108A072010809
:10431000B8750108C4750108F475010840E2010090
:104320001C7601085076010878760108A476010809
:104330008E480DF009FA014640F292238C4A8D48CE
:1043400010F066FB8C4810F0D3FB8C4BDB8A1846D0
:104350000CF031FB034687F8473097F84730002BC5
:1043600010D082480DF0F0F9014640F29623804AC1
:10437000804810F04DFB97F847301946804810F000
:1043800047FBEAE079480DF0DFF9014640F29A2355
:10439000774A784810F03CFB7A4810F0A9FBDCE043
:1043A00072480DF0D1F9014640F29F23704A7148DE
:1043B00010F02EFB744810F09BFBCEE06B480DF024
:1043C000C3F9014640F2A323694A6A4810F020FB72
:1043D0006E4810F08DFBC0E064480DF0B5F9014661
:1043E00040F2A723624A634810F012FB684810F0BD
:1043F0007FFB5E480DF0A8F901464FF42A735C4A32
:104400005C4810F005FBFB6B0233D3F80230194611
:10441000604810F0FDFA55480DF096F9014640F25B
:10442000AA23534A534810F0F3FAFB6B0233D3F834
:1044300002301946584810F0EBFA504BDB8A012144
:1044400018460CF00CFB034687F8473097F84730C6
:10445000002B10D045480DF077F9014640F2AF230C
:10446000434A444810F0D4FA97F8473019464B486D
:1044700010F0CEFA71E03D480DF066F9014640F2C9
:10448000B3233B4A3B4810F0C3FA454810F030FBD9
:1044900063E0FB6B0233BB6334480DF055F9014612
:1044A00040F2BB23324A334810F0B2FA3D4810F0D4
:1044B0001FFBBB6B9B78002B0DD12C480DF044F9F2
:1044C000014640F2BE232A4A2A4810F0A1FA364893
:1044D00010F00EFB12E025480DF036F9014640F2CF
:1044E000C223234A234810F093FABB6B9B781946EA
:1044F000BB6BDB781A462D4810F08AFA1B480DF08A
:1045000023F901464FF43173194A1A4810F080FA22
:10451000274810F0EDFA20E014480DF015F9014697
:1045200040F2CA23124A134810F072FA214810F0E0
:10453000DFFA12E00D480DF007F9014640F2D223F0
:104540000B4A0C4810F064FA1B4810F0D1FA0B4BE0
:10455000DB8A18460CF096FD00BF01E000BF00E0CA
:1045600000BF012318464C37BD46F0BD9C710108C1
:104570006C8F010828720108E0760108E40D002024
:10458000087701083C7701086477010894770108EF
:10459000C4770108F8770108187801083478010811
:1045A00088780108D0780108FC780108187901089A
:1045B000587901085C7901088879010880B582B0D2
:1045C00000AF9223FB710CF0D2F90346FB71FB792B
:1045D000002B0FD010480DF0B7F801464FF43E7392
:1045E0000E4A0F4810F014FAFB7919460D4810F0E6
:1045F0000FFA0CE008480DF0A7F801464FF43F739E
:10460000064A074810F004FA074810F071FA00BF94
:104610000837BD4680BD00BF9C710108848F01082A
:1046200028720108B0790108E879010880B582B0E4
:1046300000AF9223FB71154BDB8A18460CF0AAF8E9
:104640000346FB71FB79002B0FD011480DF07CF86D
:1046500001464FF442730F4A0F4810F0D9F9FB7925
:1046600019460E4810F0D4F90CE009480DF06CF82A
:1046700001464FF44373074A074810F0C9F9084848
:1046800010F036FA00BF0837BD4680BDE40D0020AB
:104690009C710108A08F010828720108147A010892
:1046A0004C7A010880B582B000AF064B3B60064BE8
:1046B0007B603B46194605480DF0F6F800BF083709
:1046C000BD4680BD28000320B74F00087F4F00087B
:1046D000F0B58DB006AF4FF450733B809223FB755D
:1046E000B1480DF031F8014640F22D33AF4AB048E1
:1046F00010F08EF9AF4810F0FBF90CF0B1FE034654
:10470000FB75FB7D002B0FD0A7480DF01DF801466F
:1047100040F23633A54AA64810F07AF9FB7D1946D7
:10472000A54810F075F90CE09F480DF00DF8014612
:1047300040F23A339D4A9E4810F06AF99F4810F0C3
:10474000D7F900F07BFB38613A69062100200CF0B4
:104750009BFD0346FB75FB7D002B0FD092480CF0B0
:10476000F3FF01464FF45173904A914810F050F90D
:10477000FB7D1946924810F04BF935E08A480CF061
:10478000E3FF01464FF45273884A894810F040F91C
:104790008C4810F0ADF984480CF0D6FF014640F289
:1047A0004933824A824810F033F93B6905331B785C
:1047B00018463B6904331B781C463B6903331B785E
:1047C0001D463B6902331B781A463B6901331B784F
:1047D00019463B691B780293019100922B462246B1
:1047E0000146794810F014F93B6905331A78774B84
:1047F0001A723B6904331A78744B5A723B6903335B
:104800001A78724B9A723B6902331A786F4BDA72DC
:104810003B6901331A786D4B1A733B691A786B4BFD
:104820005A736B4A102118200CF02EFD0346FB75BD
:10483000FB7D002B0FD05C480CF086FF014640F258
:104840007D335A4A5A4810F0E3F8FB7D1946614817
:1048500010F0DEF80CE054480CF076FF014640F210
:104860008133524A524810F0D3F85B4810F040F9B7
:104870005A4A102108200CF007FD0346FB75FB7D0A
:10488000002B0FD048480CF05FFF014640F28A33FE
:10489000464A474810F0BCF8FB7D1946504810F0D6
:1048A000B7F80CE040480CF04FFF014640F28E3361
:1048B0003E4A3F4810F0ACF84A4810F019F9182168
:1048C00001200CF066FD0346FB75FB7D002B0FD02D
:1048D00035480CF039FF014640F29733334A3448EB
:1048E00010F096F8FB7D19463F4810F091F80CE067
:1048F0002D480CF029FF014640F29B332B4A2C48EF
:1049000010F086F8394810F0F3F80CF00FF9034670
:10491000FB75FB7D002B0FD023480CF015FF0146E3
:104920004FF46973214A224810F072F8FB7D194652
:104930002F4810F06DF80CE01B480CF005FF014605
:104940004FF46A73194A1A4810F062F8294810F0B7
:10495000CFF80023FB73FB7B43F00103FB73FB7B6E
:10496000002B6BD0244BBB60BA1DF87BBB1C0193A2
:104970003B1D00931346072200210BF05EFE034609
:10498000FB75FB7D002B3BD007480CF0DDFE01469C
:104990004FF47273054A064810F03AF8FB7D194649
:1049A000164810F035F838E09C710108BC8F0108FA
:1049B000287201087C7A0108A87A0108D87A0108CF
:1049C000F87A0108547B0108A07B01080802002046
:1049D000348F0108E07B0108387C0108448F01080E
:1049E000807C0108D87C0108207D0108607D0108D9
:1049F000907D0108C47D0108E87D0108F07D010873
:104A00007E480CF0A1FE01464FF473737C4A7D484A
:104A10000FF0FEFF7C4810F06BF8FC88BD88B8688A
:104A2000FBF7FEFB0346DAB2BB6800931346002295
:104A3000294620460CF07DFA0346FB75F8887988F4
:104A40003B460093022300220CF073FA0346FB75E9
:104A50000222022100200CF0A5FD0346FB75FB7D20
:104A6000002B0FD065480CF06FFE014640F2EE338C
:104A7000634A64480FF0CCFFFB7D194663480FF092
:104A8000C7FF0CE05D480CF05FFE014640F2F233D8
:104A90005B4A5C480FF0BCFF5D4810F029F85D4BA5
:104AA00001221A705B4B1B7818460BF047FC03463B
:104AB000FB75FB7D002B0FD050480CF045FE0146E6
:104AC0004FF47F734E4A4F480FF0A2FFFB7D19460B
:104AD00051480FF09DFF0CE048480CF035FE0146B0
:104AE0004FF48063464A47480FF092FF4B480FF05F
:104AF000FFFF484B01225A70464B08221A71454B62
:104B000010225A71434B0022DA70424B444A9A6099
:104B1000404B01229A703F4B9C783E4B5D783D4B59
:104B20001B793C4A52793B49C9783A48806800264B
:104B300004960390029101920093002301222946DA
:104B400020460BF04FFC0346FB75FB7D002B0FD07E
:104B50002A480CF0F9FD014640F21B43284A294837
:104B60000FF056FFFB7D19462E480FF051FF0CE069
:104B700022480CF0E9FD014640F21F43204A21483B
:104B80000FF046FF28480FF0B3FF224B9B78002B15
:104B900023D00BF0C8FE0346FB75FB7D002B0FD026
:104BA00016480CF0D1FD014640F22A43144A15483C
:104BB0000FF02EFFFB7D19461C480FF029FF0CE07B
:104BC0000E480CF0C1FD014640F22E430C4A0D4840
:104BD0000FF01EFF16480FF08BFF08480CF0B4FDD5
:104BE000014640F23143064A06480FF011FF1148D2
:104BF0000FF07EFF00BF1C37BD46F0BD9C71010861
:104C0000BC8F010828720108247E0108487E010833
:104C1000847E0108E40D0020B07E0108F07E0108CA
:104C200007B20100207F01086C7F0108A87F0108FE
:104C3000EC7F01082080010880B58CB008AF0346E6
:104C4000FB719223FB72FB79012B06D1694B1B8808
:104C5000FB81694B1B88BB8105E04FF4C863FB8176
:104C60004FF47A63BB81654B93F881301846FDF7AA
:104C700059FCFB79022B2DD1604B93F88030012B2E
:104C800004D05E4B93F88030022B23D10BF038FA1E
:104C90000346FB72FB7A002B0FD059480CF054FDF1
:104CA000014640F25243574A57480FF0B1FEFB7A93
:104CB000194656480FF0ACFE0CE051480CF044FD8C
:104CC000014640F256434F4A4F480FF0A1FE50486C
:104CD0000FF00EFF494AFB7982F88030474B1B7E6C
:104CE000BA89F9890020069000200590494804906F
:104CF0000393494B0293072301930023009300235E
:104D000000200BF021FA0346FB72FB7A002B0FD038
:104D10003B480CF019FD014640F26943394A3A48D4
:104D20000FF076FEFB7A19463C480FF071FE0CE05E
:104D300033480CF009FD014640F26D43314A3248D8
:104D40000FF066FE36480FF0D3FE36490E200BF00A
:104D500078FD0346FB72FB7A002B22D0FB79012BF6
:104D60000FD127480CF0F0FC014640F27643254A6B
:104D700025480FF04DFEFB7A19462B480FF048FEF0
:104D800035E01F480CF0E0FC014640F27A431D4A32
:104D90001D480FF03DFEFB7A194624480FF038FEFF
:104DA00025E0FB79012B14D115480CF0CDFC014610
:104DB00040F28143134A14480FF02AFE1C480FF0BA
:104DC00097FE0E4B93F881301A491846FDF72EFCDA
:104DD0000DE00B480CF0B8FC014640F28743094A4D
:104DE00009480FF015FE14480FF082FE00BF10377F
:104DF000BD4680BD680E00206A0E0020E40D002034
:104E00009C710108D48F0108287201084C800108A8
:104E10009C800108FD0D0020548F0108E4800108EA
:104E20001C810108080200204881010880810108D6
:104E3000BC81010846E00100E881010880B586B028
:104E400000AFFEF7D1FD38613B69B3F1FF3F23D0DE
:104E5000FEF7E2FDB860FEF7D3FD78603B69DAB299
:104E6000164B1A703B691B0ADAB2144B5A707B68F6
:104E7000DAB2124B9A70BB68DAB2104BDA70BB68C8
:104E80001B0ADAB20D4B1A71BB681B0CDAB20B4B62
:104E90005A710A4B7B610BE000200DF0A3F9F8601A
:104EA000FB68002B02D0FB687B6101E0044B7B6157
:104EB0007B6918461837BD4680BD00BFDC0D002059
:104EC0002C8F010880B483B000AF0346FB80124BE7
:104ED0001B7E1946FB88DAB20F4B0B445A760E4BF9
:104EE0001B7E0133DAB20C4B1A76FB881B0A9AB28E
:104EF000094B1B7E1946D2B2074B0B445A76064B20
:104F00001B7E0133DAB2044B1A7600BF0C37BD4664
:104F10005DF8047B704700BFE40D002080B500AF52
:104F2000002101200EF0A0FE00BF80BD80B500AFC3
:104F30000220FFF781FE00BF80BD80B582B000AFC8
:104F40007860002104200EF08FFE00BF0837BD46B8
:104F500080BD80B582B000AF786001200EF0F0FE19
:104F600000BF0837BD4680BD80B582B000AF786015
:104F700001200EF005FF00BF0837BD4680BD80B59B
:104F800084B000AF78607B68FB60FB685B680833C7
:104F900018460DF051FF0346FB72FB7A002B03D03D
:104FA000FB6801221A7003E0FB6800221A7000BF40
:104FB0001037BD4680BD80B584B000AF0346FB719D
:104FC000FB79002B02D0012B06D00BE03F23FB60C6
:104FD000F8680EF075FE05E03F23FB60F8680EF000
:104FE0008FFE00BF00BF1037BD4680BD80B582B0C8
:104FF00000AF074B3B6004233B713B46194642F62A
:1050000029200CF02BFC00BF0837BD4680BD00BF37
:105010001882010880B582B000AF78607B681B7889
:10502000022B1AD0022B1EDC002B02D0012B07D042
:1050300019E00F4B00229A800D4B01221A7313E0E6
:105040000B4B5B7B1846FDF76DFA094B5B7B40F61B
:1050500001011846FDF7EAFA06E0054B5B7B1846AE
:10506000FDF760FA00E000BF00BF0837BD4680BD15
:105070006C0E002080B400AF054BDB68044A43F49B
:105080000043D36000BFBD465DF8047B704700BF9E
:105090000004005880B483B000AF7860064BD3F8AA
:1050A000D42005497B681343C1F8D43000BF0C37C6
:1050B000BD465DF8047B70470008005880B483B09B
:1050C00000AF7860054B1A6A04497B6813430B6292
:1050D00000BF0C37BD465DF8047B704700080058E0
:1050E00080B485B000AF78604FF0B0431A6D4FF0D8
:1050F000B0417B6813430B654FF0B0431A6D7B687A
:105100001340FB60FB6800BF1437BD465DF8047BAD
:10511000704780B485B000AF78604FF0B043D3F8EB
:1051200050214FF0B0417B681343C1F850314FF02C
:10513000B043D3F850217B681340FB60FB6800BF8D
:105140001437BD465DF8047B704780B483B000AF70
:1051500078607B681B6843F480327B681A6000BF0C
:105160000C37BD465DF8047B704780B483B000AF58
:1051700078607B681B6843F001027B681A6000BF9F
:105180000C37BD465DF8047B704780B483B000AF38
:10519000786039607B685A683B681B04DB431A40BF
:1051A0007B685A6000BF0C37BD465DF8047B7047D2
:1051B00080B483B000AF786039607B685A683B6820
:1051C0001B041A437B685A6000BF0C37BD465DF86C
:1051D000047B704780B483B000AF786039607B682F
:1051E0005A683B68DB431A407B685A6000BF0C3743
:1051F000BD465DF8047B704780B483B000AF786033
:1052000039607B683A689A6000BF0C37BD465DF82C
:10521000047B704780B483B000AF786039603B682E
:105220001A047B689A6000BF0C37BD465DF8047BAA
:10523000704780B483B000AF786039607B68DA680B
:105240003B6813403A689A4201D1012300E00023F1
:1052500018460C37BD465DF8047B704780B483B0B8
:1052600000AF786039607B68DA693B6813403A6860
:105270009A4201D1012300E0002318460C37BD46B5
:105280005DF8047B7047000080B500AF022118482C
:10529000FFF7E4FF0346002B08D0154B5B6803F0D3
:1052A0000203002B02D100F0D5F81EE001211048C6
:1052B000FFF7D4FF0346002B08D00D4B5B6803F0CB
:1052C0000103002B02D100F089F80EE00821084804
:1052D000FFF7C4FF0346002B08D0054B5B6803F0C3
:1052E0000803002B02D100F001F900BF00BF80BD10
:1052F000000C005880B500AF02211848FFF799FF55
:105300000346002B08D1154B5B6803F40033002BD8
:1053100002D100F093F81EE008211048FFF789FF42
:105320000346002B08D10D4B5B6803F40023002BD0
:1053300002D100F0BDF80EE020210848FFF779FF08
:105340000346002B08D1054B5B6803F40013002BC8
:1053500002D100F04FF800BF00BF80BD000C005824
:1053600080B500AF4FF48010FFF7D3FE4FF400700C
:10537000FFF7A4FE4FF40070FFF78CFE40BF20BF84
:10538000FFF778FE00BF80BD80B500AF4FF48010FE
:10539000FFF7A6FE0648FFF7E8FE0548FFF7D5FE33
:1053A0002C2005F082FC2D2005F07FFC00BF80BD85
:1053B000000C005880B500AF01210248FFF70AFF3A
:1053C00000BF80BD000C005880B500AF012102482D
:1053D000FFF720FF00BF80BD000C005880B500AF74
:1053E0000DF00EFE01210248FFF706FF00BF80BD51
:1053F000000C005880B500AF20210348FFF7D8FE0D
:105400000DF02EFE00BF80BD000C005880B500AF2F
:1054100002210248FFF7DEFE00BF80BD000C0058ED
:1054200080B500AF02210448FFF7F4FE02210248D4
:10543000FFF7ABFE00BF80BD000C005880B500AF89
:1054400002210348FFF7B4FE0DF05AFE00BF80BDF5
:10545000000C005880B500AF0DF068FE0221024834
:10546000FFF7CAFE00BF80BD000C005880B582B0B7
:1054700000AF786008210C48FFF7DBFE0346002BE5
:1054800007D00A4A7B68136008210748FFF77DFEB2
:1054900006E07B68984708210348FFF7BBFE00BF82
:1054A0000837BD4680BD00BF000C00587C0E0020B0
:1054B00080B500AF08210648FFF77AFE054B1B6850
:1054C000984708210248FFF7A5FE00BF80BD00BF36
:1054D000000C00587C0E002080B500AF0821024867
:1054E000FFF778FE00BF80BD000C005880B500AF0C
:1054F0000DF0C4FE08210248FFF77EFE00BF80BD0C
:10550000000C005880B582B000AF0346FB71F91D56
:105510004FF47A730122034808F05FFD00BF08379B
:10552000BD4680BD3009002080B500AF002240217B
:10553000074806F00DF900220121064806F008F997
:1055400001224021044806F003F90023184680BDDB
:1055500000080048000C00480004004880B500AF77
:10556000012240210B4806F0F3F86420FCF762F9B1
:1055700000224021074806F0EBF80220FCF75AF918
:1055800001224021034806F0E3F86420FCF752F9B9
:1055900000BF80BD0004004880B582B000AF034664
:1055A000FB71002240210A4806F0D2F800220121B6
:1055B000084806F0CDF8FB791846FFF7A3FF012253
:1055C0000121044806F0C4F800BF0837BD4680BD7D
:1055D00000080048000C004880B582B000AF0346C8
:1055E000FB71012240210A4806F0B2F80022012195
:1055F000084806F0ADF8FB791846FFF783FF012253
:105600000121044806F0A4F800BF0837BD4680BD5C
:1056100000080048000C004880B500AF0B480FF0B0
:1056200067FA02210A4806F07BF80346002B03D0F4
:105630003220FCF7FFF8F4E700BF3220FCF7FAF85D
:1056400004480FF055FA00BF80BD00BF1C8201085E
:10565000000C00483482010880B584B000AF786047
:105660003220FFF799FF0023FB7309E0FB7B7A6888
:1056700013441B781846FFF7AFFFFB7B0133FB7326
:10568000FB7B982BF2D9FFF7C7FF00BF1037BD4651
:1056900080BD80B582B000AF78607868FFF7DCFF2E
:1056A0003F20FFF779FF7B6899331B781846FFF797
:1056B00093FF0320FFF770FF7B689A331B7818462F
:1056C000FFF78AFF0420FFF767FF7B689B331B7897
:1056D0001846FFF781FF7B689C331B781846FFF75D
:1056E0007BFF7B689D331B781846FFF775FF2C20E6
:1056F000FFF752FF7B689E331B781846FFF76CFF5D
:1057000000BF0837BD4680BD80B500AF2220FFF73F
:1057100043FFC720FFF760FF2020FFF73DFFFFF7A3
:105720007BFF00BF80BD90B583B000AF0446084644
:1057300011461A462346FB800346BB800B467B80FE
:1057400013463B804420FFF727FFFB88DB089BB212
:10575000DBB21846FFF740FF7B88DB089BB2DBB269
:105760001846FFF739FF4520FFF716FFBB88DBB26D
:105770001846FFF731FFBB881B0A9BB2DBB2184605
:10578000FFF72AFF3B88DBB21846FFF725FF3B886F
:105790001B0A9BB2DBB21846FFF71EFF00BF0C3797
:1057A000BD4690BD80B582B000AF03460A46FB807F
:1057B0001346BB804E20FFF7EFFEFB88DBB2184696
:1057C000FFF70AFF4F20FFF7E7FEBB88DBB2184662
:1057D000FFF702FFBB881B0A9BB2DBB21846FFF73C
:1057E000FBFE00BF0837BD4680BD000080B500AF9E
:1057F000FFF7B4FE6420FCF71DF8FFF70DFF122041
:10580000FFF7CAFEFFF708FF0120FFF7C5FE2720BC
:10581000FFF7E2FE0120FFF7DFFE0020FFF7DCFECE
:105820001120FFF7B9FE0320FFF7D6FE40F2271341
:105830007F2200210020FFF776FF2120FFF7ACFE3A
:105840000020FFF7C9FE8020FFF7C6FE00210020E0
:10585000FFF7A8FFFFF7E0FE0248FFF71AFF00BFBF
:1058600080BD00BF1802002080B582B000AF2420A8
:10587000FFF792FE0023FB8005E0FF20FFF7ACFE60
:10588000FB880133FB80FB88B3F5945FF5D3FFF70A
:105890003BFF00BF0837BD4680BD80B584B000AF78
:1058A00078602420FFF778FE0023FB8109E0FB8964
:1058B0007A6813441B781846FFF78EFEFB89013384
:1058C000FB81FB89B3F5945FF1D3FFF71DFF00BFA8
:1058D0001037BD4680BD80B584B000AF786024200D
:1058E000FFF75AFE0023FB8109E0FB897A68134425
:1058F0001B781846FFF770FEFB890133FB81FB899B
:10590000B3F5945FF1D32620FFF746FE0023FB8119
:1059100009E0FB897A6813441B781846FFF75CFEA0
:10592000FB890133FB81FB89B3F5945FF1D3FFF76A
:10593000EBFE00BF1037BD4680BD000080B584B0CF
:1059400002AF35480FF0D4F8FFF7EEFD0346002B09
:1059500002D04FF0FF335AE030480FF0C9F8FFF79C
:1059600045FFFFF781FF4FF49453FB80FB881846F7
:105970000EF076FA03463B603B68002B05D12848C1
:105980000FF0B6F84FF0FF3341E026480FF0B0F8C3
:10599000FF2300935A234FF494728021386800F05B
:1059A0006BFDFF2000F01AFFFF2300935A234FF4F2
:1059B00094728021386800F05FFD1B480FF098F862
:1059C000386800F0AFFDFF2000F008FF174801F035
:1059D0005DFE3868FFF761FF40F6B830FBF72AFF3D
:1059E00013480FF085F8FFF701FFFFF73DFF11485F
:1059F0000FF07EF838680EF03BFA00233B604FF45E
:105A0000FA60FBF717FF0C480FF072F800231846F6
:105A10000837BD4680BD00BF548201086C82010872
:105A200088820108B0820108C0820108E08F010865
:105A3000D8820108E4820108F482010880B586B0AA
:105A400004AF73480FF054F84FF49453FB80FB8875
:105A500018460EF005FA03463B603B68002B05D163
:105A60006C480FF045F84FF0FF33CCE0FF23009374
:105A70005A234FF494728021386800F0FDFC664888
:105A80000FF036F8386800F04DFDFF2000F0A6FE5C
:105A900062480FF02DF801230093012300225021CA
:105AA0000A2000F03BFF01230093022300225A2129
:105AB0000A2000F033FF0123009303230022642116
:105AC0000A2000F02BFF00230293012301930023FF
:105AD0000093782346224621142000F0CBFF0023B8
