:020000040800F2
:1000000000000320610E0008B93D0008C13D000852
:10001000C93D0008D13D0008D93D0008000000009E
:10002000000000000000000000000000E13D0008AA
:10003000EF3D000800000000FD3D00080B3E0008F9
:10004000B50E0008B50E0008B50E0008913E000878
:10005000B50E0008B50E0008B50E0008A93E000850
:10006000B73E0008C53E0008D33E0008B50E0008A4
:10007000B50E0008B50E0008B50E0008B50E000854
:10008000B50E0008B50E0008B50E0008B50E000844
:10009000B50E0008B50E0008B50E0008E13E0008D8
:1000A000B50E0008193E00089D3E0008B50E000878
:1000B000B50E0008B50E0008B50E0008B50E000814
:1000C000B50E0008B50E0008B50E0008B50E000804
:1000D0002D3E0008B50E0008B50E0008B50E00084C
:1000E000793E0008B50E0008B50E0008B50E0008F0
:1000F000613E00086D3E0008413E0008B50E000854
:10010000B50E0008B50E0008B50E0008B50E0008C3
:10011000B50E0008B50E0008B50E0008B50E0008B3
:10012000B50E0008B50E00084D3E0008B50E0008DB
:0C013000B50E0008B50E0008B50E000862
:1001400010B5054C237833B9044B13B10448AFF311
:1001500000800123237010BD000500200000000076
:10016000A863010808B5034B1BB103490348AFF36B
:10017000008008BD0000000004050020A8630108FD
:1001800001F0FF01102A2BDB10F0070F08D010F848
:10019000013B013A8B422DD010F0070F42B3F6D14C
:1001A000F0B441EA012141EA014122F007047FF065
:1001B00000070023F0E80256083C85EA010586EABC
:1001C000010685FA47F5A3FA87F586FA47F6A5FAF8
:1001D00087F68EB9EED1F0BC01F0FF0102F0070204
:1001E00032B110F8013B013A83EA010313B1F8D1AF
:1001F0000020704701387047002D06BF3546033890
:10020000073815F0010F07D1013015F4807F02BFC8
:10021000013015F4C03F0130F0BC0138704700BF19
:10022000034613F8012B002AFBD1181A0138704736
:1002300081F0004102E000BF83F0004330B54FEA97
:1002400041044FEA430594EA050F08BF90EA020F04
:100250001FBF54EA000C55EA020C7FEA645C7FEA97
:10026000655C00F0E2804FEA5454D4EB5555B8BFBA
:100270006D420CDD2C4480EA020281EA030382EA2B
:10028000000083EA010180EA020281EA0303362DBD
:1002900088BF30BD11F0004F4FEA01314FF4801C90
:1002A0004CEA113102D0404261EB410113F0004FA2
:1002B0004FEA03334CEA133302D0524263EB430359
:1002C00094EA050F00F0A780A4F10104D5F1200EF7
:1002D0000DDB02FA0EFC22FA05F2801841F1000152
:1002E00003FA0EF2801843FA05F359410EE0A5F126
:1002F00020050EF1200E012A03FA0EFC28BF4CF057
:10030000020C43FA05F3C01851EBE37101F000450C
:1003100007D54FF0000EDCF1000C7EEB00006EEB19
:100320000101B1F5801F1BD3B1F5001F0CD34908A3
:100330005FEA30004FEA3C0C04F101044FEA4452FA
:1003400012F5800F80F09A80BCF1004F08BF5FEA81
:10035000500C50F1000041EB045141EA050130BD61
:100360005FEA4C0C404141EB0101013C28BFB1F573
:10037000801FE9D291F0000F04BF01460020B1FABE
:1003800081F308BF2033A3F10B03B3F120020CDA91
:100390000C3208DD02F1140CC2F10C0201FA0CF06F
:1003A00021FA02F10CE002F11402D8BFC2F1200CD4
:1003B00001FA02F120FA0CFCDCBF41EA0C0190408A
:1003C000E41AA2BF01EB0451294330BD6FEA0404D3
:1003D0001F3C1CDA0C340EDC04F11404C4F12002BE
:1003E00020FA04F001FA02F340EA030021FA04F3D0
:1003F00045EA030130BDC4F10C04C4F1200220FA27
:1004000002F001FA04F340EA0300294630BD21FA64
:1004100004F0294630BD94F0000F83F4801306BF2A
:1004200081F480110134013D4EE77FEA645C18BF1E
:100430007FEA655C29D094EA050F08BF90EA020FB5
:1004400005D054EA000C04BF1946104630BD91EAAD
:10045000030F1EBF0021002030BD5FEA545C05D1B0
:100460004000494128BF41F0004130BD14F58004EF
:100470003CBF01F5801130BD01F0004545F0FE4163
:1004800041F470014FF0000030BD7FEA645C1ABF98
:10049000194610467FEA655C1CBF0B46024650EACF
:1004A000013406BF52EA033591EA030F41F40021FB
:1004B00030BD00BF90F0000F04BF0021704730B581
:1004C0004FF4806404F132044FF000054FF0000156
:1004D00050E700BF90F0000F04BF0021704730B517
:1004E0004FF4806404F1320410F0004548BF4042EC
:1004F0004FF000013EE700BF42004FEAE2014FEA41
:1005000031014FEA02701FBF12F07F4393F07F4F1B
:1005100081F06051704732F07F4208BF704793F01E
:100520007F4F04BF41F40021704730B54FF4607431
:1005300001F0004521F000411CE700BF50EA010234
:1005400008BF704730B54FF000050AE050EA0102DD
:1005500008BF704730B511F0004502D5404261EB4D
:1005600041014FF4806404F132045FEA915C3FF48E
:10057000D8AE4FF003025FEADC0C18BF03325FEA2B
:10058000DC0C18BF033202EBDC02C2F1200300FADC
:1005900003FC20FA02F001FA03FE40EA0E0021FA01
:1005A00002F11444BDE600BF70B54FF0FF0C4CF4EF
:1005B000E06C1CEA11541DBF1CEA135594EA0C0FA1
:1005C00095EA0C0F00F0DEF82C4481EA030621EADC
:1005D0004C5123EA4C5350EA013518BF52EA033517
:1005E00041F4801143F4801338D0A0FB02CE4FF0C9
:1005F0000005E1FB02E506F00042E0FB03E54FF0F9
:100600000006E1FB03569CF0000F18BF4EF0010EF0
:10061000A4F1FF04B6F5007F64F5407404D25FEAEC
:100620004E0E6D4146EB060642EAC62141EA55519F
:100630004FEAC52040EA5E504FEACE2EB4F1FD0CE1
:1006400088BFBCF5E06F1ED8BEF1004F08BF5FEA5F
:10065000500E50F1000041EB045170BD06F0004611
:1006600046EA010140EA020081EA0301B4EB5C04BE
:10067000C2BFD4EB0C0541EA045170BD41F48011B6
:100680004FF0000E013C00F3AB8014F1360FDEBFDB
:10069000002001F0004170BDC4F10004203C35DAB7
:1006A0000C341BDC04F11404C4F1200500FA05F33A
:1006B00020FA04F001FA05F240EA020001F00042DB
:1006C00021F0004110EBD37021FA04F642EB060151
:1006D0005EEA430E08BF20EAD37070BDC4F10C047B
:1006E000C4F1200500FA04F320FA05F001FA04F23F
:1006F00040EA020001F0004110EBD37041F100012B
:100700005EEA430E08BF20EAD37070BDC4F1200535
:1007100000FA05F24EEA020E20FA04F301FA05F29D
:1007200043EA020321FA04F001F0004121FA04F245
:1007300020EA020000EBD3705EEA430E08BF20EA15
:10074000D37070BD94F0000F0FD101F0004640004F
:1007500041EB010111F4801F08BF013CF7D041EAD1
:10076000060195F0000F18BF704703F000465200D5
:1007700043EB030313F4801F08BF013DF7D043EAA6
:100780000603704794EA0C0F0CEA135518BF95EA5C
:100790000C0F0CD050EA410618BF52EA4306D1D1E3
:1007A00081EA030101F000414FF0000070BD50EA02
:1007B000410606BF1046194652EA430619D094EA8C
:1007C0000C0F02D150EA013613D195EA0C0F05D176
:1007D00052EA03361CBF104619460AD181EA0301CA
:1007E00001F0004141F0FE4141F470014FF0000082
:1007F00070BD41F0FE4141F4780170BD70B54FF01D
:10080000FF0C4CF4E06C1CEA11541DBF1CEA13559C
:1008100094EA0C0F95EA0C0F00F0A7F8A4EB05047E
:1008200081EA030E52EA03354FEA013100F0888075
:100830004FEA03334FF0805545EA131343EA12633E
:100840004FEA022245EA111545EA10654FEA0026F3
:100850000EF000419D4208BF964244F1FD0404F5AC
:10086000407402D25B084FEA3202B61A65EB030508
:100870005B084FEA32024FF480104FF4002CB6EBC5
:10088000020E75EB030E22BFB61A754640EA0C0045
:100890005B084FEA3202B6EB020E75EB030E22BF85
:1008A000B61A754640EA5C005B084FEA3202B6EBC6
:1008B000020E75EB030E22BFB61A754640EA9C0085
:1008C0005B084FEA3202B6EB020E75EB030E22BF55
:1008D000B61A754640EADC0055EA060E18D04FEA13
:1008E000051545EA16754FEA06164FEAC30343EAB3
:1008F00052734FEAC2025FEA1C1CC0D111F4801F80
:100900000BD141EA00014FF000004FF0004CB6E778
:1009100011F4801F04BF01430020B4F1FD0C88BF17
:10092000BCF5E06F3FF6AFAEB5EB030C04BFB6EB22
:10093000020C5FEA500C50F1000041EB045170BD15
:100940000EF0004E4EEA113114EB5C04C2BFD4EB42
:100950000C0541EA045170BD41F480114FF0000EC6
:10096000013C90E645EA060E8DE60CEA135594EA42
:100970000C0F08BF95EA0C0F3FF43BAF94EA0C0F45
:100980000AD150EA01347FF434AF95EA0C0F7FF4BA
:1009900025AF104619462CE795EA0C0F06D152EA0E
:1009A00003353FF4FDAE1046194622E750EA4106F2
:1009B00018BF52EA43067FF4C5AE50EA41047FF403
:1009C0000DAF52EA43057FF4EBAE12E74FF0FF3C68
:1009D00006E000BF4FF0010C02E000BF4FF0010C39
:1009E0004DF804CD4FEA410C7FEA6C5C4FEA430CB2
:1009F00018BF7FEA6C5C1BD001B050EA410C0CBF01
:100A000052EA430C91EA030F02BF90EA020F002062
:100A1000704710F1000F91EA030F58BF994208BFC9
:100A200090422CBFD8176FEAE37040F00100704786
:100A30004FEA410C7FEA6C5C02D150EA013C07D1DD
:100A40004FEA430C7FEA6C5CD6D152EA033CD3D028
:100A50005DF8040B704700BF8446104662468C4622
:100A60001946634600E000BF01B5FFF7B7FF002855
:100A700048BF10F1000F01BD4DF808EDFFF7F4FF7E
:100A80000CBF012000205DF808FB00BF4DF808ED09
:100A9000FFF7EAFF34BF012000205DF808FB00BF2C
:100AA0004DF808EDFFF7E0FF94BF012000205DF84E
:100AB00008FB00BF4DF808EDFFF7CEFF94BF012003
:100AC00000205DF808FB00BF4DF808EDFFF7C4FFFC
:100AD00034BF012000205DF808FB00BF4FEA410C45
:100AE0007FEA6C5C02D150EA013C0AD14FEA430C28
:100AF0007FEA6C5C02D152EA033C02D14FF0000065
:100B000070474FF0010070474FEA410212F50012A2
:100B100015D211D56FF47873B3EB625212D94FEA44
:100B2000C12343F0004343EA505311F0004F23FA2E
:100B300002F018BF404270474FF00000704750EA83
:100B4000013005D111F0004008BF6FF00040704740
:100B50004FF00000704700BF53B94AB9002908BFE1
:100B600000281CBF4FF0FF314FF0FF3000F06AB992
:100B7000ADF1080C6DE904CE00F006F8DDF804E0F4
:100B8000DDE9022304B070472DE9F047089D0C46CB
:100B9000002B4ED194468C458646B2FA82F262D939
:100BA0004AB1C2F12003914020FA03F30CFA02FC8F
:100BB000194300FA02FE4FEA1C471FFA8CF6B1FBFC
:100BC000F7F44FEA1E4307FB141143EA014304FB09
:100BD00006F199420AD91CEB030304F1FF3080F0BF
:100BE0001281994240F20F81023C6344591A1FFA64
:100BF0008EF3B1FBF7F007FB101143EA014300FB52
:100C000006F69E420AD91CEB030300F1FF3180F087
:100C1000FC809E4240F2F980634402389B1B40EA0C
:100C2000044000211DB1D3400022C5E90032BDE8D7
:100C3000F0878B4205D90DB1C5E9000100210846B6
:100C4000F5E7B3FA83F1002946D1A34202D39042DB
:100C5000C0F0F080861A64EB03030120002DE6D07B
:100C6000C5E90063E3E7002A40F09080A1EB0C04A3
:100C70004FEA1C481FFA8CF70121B4FBF8F64FEA43
:100C80001E4308FB164443EA044307FB06F0984260
:100C900008D91CEB030306F1FF3402D2984200F29C
:100CA000CD8026461C1A1FFA8EF3B4FBF8F008FB21
:100CB000104443EA044300FB07F79F4208D91CEBAA
:100CC000030300F1FF3402D29F4200F2B0802046BD
:100CD000DB1B40EA0640A5E7C1F120068B4022FA63
:100CE00006F71F4320FA06FC04FA01F343EA0C035B
:100CF000F44000FA01F8380C4FEA1349B4FBF0FE57
:100D00001FFA87FC00FB1E4449EA04440EFB0CF961
:100D1000A14502FA01F20AD93C190EF1FF3A80F01E
:100D20008480A14540F28180AEF1020E3C44A4EBE8
:100D300009041FFA83F9B4FBF0F300FB134449EAFA
:100D4000044403FB0CFCA44507D93C1903F1FF3014
:100D500067D2A44565D9023B3C4443EA0E40A0FB60
:100D60000293A4EB0C049C42CE469C4651D34ED039
:100D700055B1B8EB0E0364EB0C0404FA06F6CB4055
:100D80001E43CC40C5E90064002150E7C2F12003B6
:100D900020FA03F10CFA02FC24FA03F394400C430A
:100DA0004FEA1C4800FA02FE1FFA8CF7B3FBF8F07A
:100DB00008FB1031230C43EA014300FB07F1994281
:100DC00008D91CEB030300F1FF362CD299422AD933
:100DD000023863445B1AA4B2B3FBF8F108FB113389
:100DE00044EA034401FB07F3A34208D91CEB0404C3
:100DF00001F1FF3613D2A34211D902396444E41A37
:100E000041EA004139E70446F0E6084606E7C845EE
:100E1000AED2B9EB020E63EB070C0138A8E73146FE
:100E2000EDE7034699E73046D4E7D6467FE76344CB
:100E300002384DE70646234608460FE7023E634464
:100E400030E700BF704700BFD458C4500433C41803
:100E50008C42F9D37047036004308842FBD370475B
:100E60000C48854608F036FC0B480C490C4A002318
:100E7000FFF7EDFF0B480C490023FFF7EEFF0B488F
:100E80000B490023FFF7E9FF13F032FB01F028FEC6
:100E9000FEE700000000032008000020A40400205A
:100EA000F8A40108000500209C6D0020E401032047
:100EB000670A0320FEE7000080B483B000AF7860CB
:100EC000064BD3F8902005497B681343C1F8903056
:100ED00000BF0C37BD465DF8047B70470008005822
:100EE00080B485B000AF78604FF0B043DA6C4FF05B
:100EF000B0417B681343CB644FF0B043DA6C7B683E
:100F00001340FB60FB6800BF1437BD465DF8047BEF
:100F1000704780B485B000AF78604FF0B043D3F82D
:100F20004C214FF0B0417B681343C1F84C314FF076
:100F3000B043D3F84C217B681340FB60FB6800BFD3
:100F40001437BD465DF8047B704780B500AF08F0EC
:100F5000B7FC08F0C1FC4FF48030FFF7ADFF0FF095
:100F600091FF00F021F800F0C1F800BF80BD000043
:100F7000B0B588B000AF0B4B3C1D1D460FCD0FC464
:100F800095E8070003C422800234130C237011F08B
:100F9000F5FC3B1D184610F0F6FC00BF2037BD469F
:100FA000B0BD00BFC063010880B588B000AF3B1D75
:100FB00000221A605A609A60DA601A610023BB83CB
:100FC00000237B8300233B830023FB7736E0FB7FFA
:100FD000434ADB0013449B79002B2CD0FB7F404A13
:100FE00052F833303F4A93421BD03E4A934221D8B5
:100FF000B3F1904F03D03C4A934209D01AE0FB7FF3
:10100000374ADB0013449A88BB8B1343BB8312E03F
:10101000FB7F334ADB0013449A887B8B13437B832B
:1010200009E0FB7F2E4ADB0013449A883B8B134375
:101030003B8300E000BFFB7F0133FB77FB7F252B69
:10104000C5D90023FB600123BB6003233B61BB8B3D
:10105000002B14D0BB8B7B600120FFF741FF0120E8
:10106000FFF757FF3B1D19464FF0904009F082F8FB
:10107000BB8B002219464FF0904009F0E1FA7B8BC0
:10108000002B12D07B8B7B600220FFF729FF022010
:10109000FFF73FFF3B1D1946134809F06BF87B8BA8
:1010A00000221946104809F0CBFA3B8B002B13D0D5
:1010B0003B8B7B600420FFF713FF0420FFF729FF21
:1010C0003B1D1946074809F055F83B8B002219468D
:1010D000044809F0B5FA00BF00BF2037BD4680BD07
:1010E0003C820108000800480004004880B400AFBA
:1010F00000BFBD465DF8047B704780B500AF01F0CE
:101100003BFE00BF80BD000080B483B000AF7860BC
:10111000074BD3F8803023F0070205497B6813435F
:10112000C1F8803000BF0C37BD465DF8047B7047C6
:101130000004005880B483B000AF7860064BD3F849
:10114000902005497B681343C1F8903000BF0C37ED
:10115000BD465DF8047B70470008005880B483B03A
:1011600000AF78604FF0B0430A4AC3F89C204FF0BC
:10117000B043D3F89C3023F47C527B681B024FF0C1
:10118000B0411343C1F89C3000BF0C37BD465DF839
:10119000047B7047FECAFECA80B483B000AF78609B
:1011A0004FF0B0439B6823F400424FF0B0417B689E
:1011B00013438B6000BF0C37BD465DF8047B70475E
:1011C00080B400AF044B1B68C3F30B031846BD4645
:1011D0005DF8047B704700BF002004E080B400AFDE
:1011E000044B1B681B0C9BB21846BD465DF8047B84
:1011F000704700BF002004E080B400AF054B1B69BE
:10120000044A23F00403136100BFBD465DF8047B6C
:10121000704700BF00ED00E080B483B000AF78609D
:101220007B68FF225A6200BF0C37BD465DF8047B25
:10123000704780B483B000AF78607B68CA225A627E
:101240007B6853225A6200BF0C37BD465DF8047BB1
:10125000704780B483B000AF786039607B689B686A
:1012600023F007023B681A437B689A6000BF0C3783
:10127000BD465DF8047B704780B500AF044B4FF46A
:1012800000421A6100F05AF800F05FF800BF80BD1C
:101290000040005880B500AF00F06BF800F084F813
:1012A0001B49002001F03CF8FFF74FFE012101200F
:1012B00011F0FEFE0021002007F020FE154811F07D
:1012C000E9FB0021002008F03DF8002007F0E6FED1
:1012D000114811F05DFCFF2011F032FC002011F0EC
:1012E00043FC0021002008F02DF8002007F002FF49
:1012F00001230A4A0021002011F0C0FC002007F061
:10130000F9FE00F085FA00F05DF800BF80BD00BF77
:1013100040330020EC9B0108CC020020DC63010874
:1013200080B400AF00BFBD465DF8047B704780B558
:1013300000AF5020FFF7FEFE00BF80BD80B400AFBD
:1013400000BFBD465DF8047B704780B582B000AF3A
:10135000002010F0D9FA78607B68002B05D07B68FC
:101360009B791846FFF7FAFE00BF00BF0837BD465D
:1013700080BD80B500AFFFF7D3FFFFF7D8FF00F0C7
:1013800003F800BF80BD000080B500AF0548FFF73F
:1013900050FF00210348FFF75CFF0248FFF73CFFC6
:1013A00000BF80BD0028004080B500AF4FF4004072
:1013B000FFF7F2FE11F06AFE0420FFF7A5FE00BF62
:1013C00080BD000080B588B000AF11F021F9114A4E
:1013D0000021402011F098FF0F4B3B600F4B7B60CA
:1013E0003B4619460E4810F0A9FB0E4BBB600E4B56
:1013F000FB600E4B3B6140F23C537B6107F10803FD
:10140000184611F047FA11F0FDF800BF2037BD462D
:1014100080BD00BF751B010834070320311400088C
:10142000491400084C09032040080320F801032058
:1014300080B483B000AF0346FB7100BF0C37BD46DC
:101440005DF8047B7047000080B588B000AF78601D
:101450007B685B680B33FB61FB691B889BB2A3F560
:101460001243072B00F2D08001A252F823F000BFF4
:1014700091140008231500084515000809160008F6
:1014800089150008AD150008C9150008ED150008FC
:1014900007F10C03184610F0A3FA5E480FF0CAFCDF
:1014A000014640F291135C4A5C4812F023FE3B7BFC
:1014B00019467B7B1A46BB7B594812F01BFE5548E8
:1014C0000FF0B8FC01464FF4C973534A534812F069
:1014D00011FE3B7C1946534812F00CFE4D480FF0AC
:1014E000A9FC014640F293134B4A4C4812F002FE0D
:1014F000BB7D1946FB7D1A463B7E4B4812F0FAFD38
:1015000044480FF097FC014640F29513424A434885
:1015100012F0F0FD454812F05DFE786800F0E0F84A
:1015200073E03C480FF086FC01464FF4CD733A4A15
:101530003A4812F0DFFD3E4812F04CFE786800F0A9
:1015400085F862E033480FF075FC014640F29F13C6
:10155000314A324812F0CEFD364812F03BFE2D489B
:101560000FF068FC01464FF4D0732B4A2B4812F061
:10157000C1FDFB6902331968FB6902335B681A46D7
:101580002D4812F0B7FD40E022480FF053FC014611
:101590004FF4D373204A214812F0ACFDFB690233AB
:1015A0001B681946254812F0A5FD2EE019480FF0DA
:1015B00041FC014640F2AB13174A184812F09AFD5D
:1015C0001F4812F007FE20E012480FF033FC0146DE
:1015D00040F2AF13104A114812F08CFDFB69023340
:1015E0001B681946174812F085FD0EE009480FF0F8
:1015F00021FC01464FF4DA73074A084812F07AFDDD
:10160000114812F0E7FD00E000BF00BF2037BD46E3
:1016100080BD00BFF06301086C8301087864010895
:1016200090640108B8640108D8640108F0640108F6
:10163000106501083465010884650108B06501087A
:10164000EC650108106601084C66010880B584B09D
:1016500000AF78607B685B680B33FB60FB6802332C
:10166000BB6019480FF0E6FB01464FF4E673174ADA
:10167000174812F03FFDBB681B781946154812F059
:1016800039FDBB681B78002B0DD10F480FF0D2FB42
:10169000014640F2D1130D4A0D4812F02BFD0E48C1
:1016A00012F098FD0DE008480FF0C4FB014640F22F
:1016B000D513064A064812F01DFD084812F08AFDAF
:1016C00000BF1037BD4680BDF0630108808301086C
:1016D0007864010870660108A4660108E0660108E4
:1016E00080B58AB000AF786007F1080300221A6065
:1016F0005A609A60DA6000237B6200233B627B6859
:101700005B680B33FB61FB690233BB61BB691B7810
:10171000002B46D136480FF08DFB014640F2EB130B
:10172000344A354812F0E6FC344812F053FDFFF716
:101730001FFC0F233B727F23BB72FFF74FFD7862C4
:101740002B480FF077FB014640F20323294A2A4831
:1017500012F0D0FC796A2A4812F0CCFC7B6A9BB26A
:10176000BB82FFF72DFD386221480FF063FB014675
:101770004FF402731F4A204812F0BCFC396A21481A
:1017800012F0B8FC3B6A9BB2FB8207F108031846D3
:1017900010F010F902F07AFC0021012011F088FC11
:1017A00022E0BB691B78012B10D111480FF042FBDE
:1017B000014640F215230F4A0F4812F09BFC1248D5
:1017C00012F008FD7B6800221A700DE008480FF047
:1017D00031FB01464FF40773064A074812F08AFCB2
:1017E0000A4812F0F7FC00BF2837BD4680BD00BF95
:1017F000F063010894830108786401081C670108FC
:10180000386701085C67010880670108B467010850
:1018100080B500AF0121002007F0BCF901210120B3
:1018200007F0B8F900BF80BD80B584B000AF786024
:1018300008F012F8B8607B68FB60FB68B3F1FF3F0B
:101840000AD008F021F803461A46FB681344FB60EF
:1018500002E0FFF7D1FC30BF07F0FEFF0246BB6895
:10186000D31AFA689A42F4D800BF00BF1037BD46B9
:1018700080BD80B500AF4FF0FF3011F049FC00BFD4
:1018800080BD80B400AF00BFBD465DF8047B7047EB
:1018900080B582B000AF786039604FF0FF3011F052
:1018A00037FC00BF0837BD4680BD80B582B000AFB1
:1018B00078600021402011F049FD00BF0837BD4687
:1018C00080BD80B582B000AF7860022011F0AAFD23
:1018D00000BF0837BD4680BD80B582B000AF7860DC
:1018E000022011F0BFFD00BF0837BD4680BD0000DB
:1018F00080B582B000AF0346FB80FB88B3F5005F84
:101900001FD0B3F5005F1FDC102B0EDC022B1BDB9E
:101910001A46104BD34003F00103002B14BF0123E0
:101920000023DBB2002B04D10EE0B3F5805F05D0BD
:101930000AE0FB88184606F0C5F806E003F06CF9EB
:1019400003E003F0A1F900E000BF00BF0837BD4687
:1019500080BD00BF1401010080B582B000AF034616
:101960003960FB711346BB80FB79042B29D801A297
:1019700052F823F0C119000889190008A5190008B8
:10198000C1190008C1190008BB881A4639680F48F8
:1019900012F0D5FD0E4B1B7843F00203DAB20C4B6C
:1019A0001A700EE0BB881A4639680A4812F0C7FD63
:1019B000074B1B7843F00403DAB2054B1A7000E0C2
:1019C00000BF00BF0837BD4680BD00BF2005002016
:1019D0005E320020C01B002080B582B000AF0346FD
:1019E000FB71094812F0F6FB084B1B78FA799A4212
:1019F00005D0074B01221A70044AFB79137000BF0F
:101A00000837BD4680BD00BF3868010808000020C7
:101A10001C05002080B582B000AF0346FB7106486C
:101A200012F0D8FB054B01221A70054AFB7913709E
:101A300000BF0837BD4680BD386801081C0500207E
:101A40000800002080B582B000AF0346FB71FB792F
:101A5000002B05D001220121064808F0F1FD04E029
:101A600000220121034808F0EBFD00BF0837BD4606
:101A700080BD00BF001C004880B582B000AF0346A7
:101A8000FB71094AFB791370FB79002B07D1012206
:101A90000121064808F0D4FD054B00221A7000BF52
:101AA0000837BD4680BD00BF12000020001C004862
:101AB0001100002080B582B000AF03460A46FB71DA
:101AC0001346BB71FB79002B03D10020FFF7D4FF35
:101AD00009E00120FFF7D0FF054ABB791370044BE2
:101AE0001A78044B1A7000BF0837BD4680BD00BF8E
:101AF000130000205F32002080B483B000AF786014
:101B0000064BD3F8802005497B681343C1F8803029
:101B100000BF0C37BD465DF8047B704700080058D5
:101B200080B483B000AF7860054B1A6804497B68C5
:101B300013430B6000BF0C37BD465DF8047B704754
:101B40000008005880B483B000AF0D4B9B6A9BB275
:101B50007B600B4B9B6A9BB23B6005E03B687B6004
:101B6000074B9B6A9BB23B607A683B689A42F5D10F
:101B70003B6818460C37BD465DF8047B704700BFD4
:101B80000028004080B485B000AF03460A46FB71D0
:101B90001346BB71BA791D4913465B001344DB0041
:101BA0000B4415331B78FB73FB7B062B09D0FA7BA8
:101BB000164913465B001344DB000B441433FA79D7
:101BC0001A70FA79114913465B001344DB000B4489
:101BD0001533FA7B1A70FA790C4913465B001344EB
:101BE000DB000B441433BA791A70BA7907491346EB
:101BF0005B001344DB000B441533FA791A7000BF05
:101C00001437BD465DF8047B704700BF603200208A
:101C100080B485B000AF03460A46FB711346BB7122
:101C2000294B1B78DBB2BA799A4232D0BA7927496C
:101C300013465B001344DB000B4414331B78FB7327
:101C4000FA7B224913465B001344DB000B44153337
:101C5000FA791A70FA791D4913465B001344DB00C8
:101C60000B441533BA791A70FA79184913465B0098
:101C70001344DB000B441433FA7B1A70BA7913490E
:101C800013465B001344DB000B441433FA791A70DB
:101C900014E0FA790D4913465B001344DB000B4452
:101CA0001533BA791A70BA79084913465B001344A0
:101CB000DB000B441433FA791A7000BF1437BD46A9
:101CC0005DF8047B704700BFF032002060320020D6
:101CD00080B584B000AF0346FB714E4B1B78DBB27E
:101CE000062B18D14B4B1B78DAB24B4B1A70494A72
:101CF000FB791370FA79494913465B001344DB0002
:101D00000B44153306221A70454B4FF0FF321A6010
:101D10000023FB8178E000F009F90346FB81FA79A2
:101D20003E4913465B001344DB000B44083319683B
:101D3000FB89FA791944394813465B001344DB00E8
:101D4000034408331960FA79344913465B0013449D
:101D5000DB000B4408331B68BB602E4B1B78DBB2E7
:101D600019462E4A0B465B000B44DB001344083334
:101D70001B68BA689A4237D3264B1B787B737A7BF1
:101D8000264913465B001344DB000B4415331B78D4
:101D90003B7313E07A7B214913465B001344DB005D
:101DA0000B4415331B787B737A7B1C4913465B000D
:101DB0001344DB000B4415331B783B733B7B062B32
:101DC0000BD03A7B154913465B001344DB000B44F0
:101DD00008331B68BA689A42DCD27A7BFB791146D9
:101DE0001846FFF7CFFE0FE00A4B1B78DAB2FB79FB
:101DF00011461846FFF70CFF064B1B78DAB2064B6C
:101E00001A70044AFB791370FB8918461037BD46D7
:101E100080BD00BFF0320020F1320020603200208F
:101E2000F432002080B485B000AF03460A46FB714F
:101E30001346BB71394B1B78DBB2FA799A4211D148
:101E4000364B1B78DAB2364B1A70FA79354913469D
:101E50005B001344DB000B4415331B78DAB22F4BC5
:101E60001A703EE0FA792F4913465B001344DB00F9
:101E70000B4414331B78FB73FA792A4913465B0031
:101E80001344DB000B4415331B78BB73F979FA7BE1
:101E900024480B465B000B44DB00034415331B78DE
:101EA000D8B2204913465B001344DB000B441533C2
:101EB00002461A70BB7B062B13D0F979BA7B1948FE
:101EC0000B465B000B44DB00034414331B78D8B291
:101ED000144913465B001344DB000B4414330246E1
:101EE0001A70FA790F4913465B001344DB000B4468
:101EF0000C3301221A70094B1B78DBB2062B07D179
:101F0000BB79002B04D1084B4FF0FF321A6000BFA1
:101F100000BF1437BD465DF8047B7047F0320020E7
:101F2000F132002060320020F432002080B582B00F
:101F300000AF1A4B1B68B3F1FF3F26D0FFF702FE3C
:101F40007860164B1B687A689A4205D8134B1A685A
:101F50007B68D31A7B600AE0114B1B881A467B68AA
:101F6000D31A3B600D4B1B683A6813447B600D4BE2
:101F70001B781A467B6802FB03F37B600A4B1B78D5
:101F80001A467B68D3407B6001E000237B607B685E
:101F90009BB218460837BD4680BD00BFF432002012
:101FA000FC320020FA320020F932002080B582B0E5
:101FB00000AF0346FB80FB88002B08D1FFF7C2FD72
:101FC0000346214A1360032007F00FFE39E0FB8827
:101FD000012B03D81D4B1B78012B02D0FB88013B42
:101FE000FB8000BF1A4B1B68DB6803F00403002B67
:101FF000F8D0174B1B68DB68DAB2154B1B6862F42C
:102000009062DA60134B4FF40022DA60032007F08D
:10201000FAFD114B5B691B0C1B04FA880E49134334
:102020004B61FFF78FFD0346074A1360084B1B689F
:102030009A68074B1B6842F480629A60AFF3008095
:1020400000BF0837BD4680BDF4320020F9320020C1
:1020500040330020000800580028004080B584B0BC
:1020600000AF454B9B6803F48063B3F5806F07D1E5
:1020700000BF424B1B68DB6803F00403002BF8D160
:102080003E4B1B689A683D4B1B6822F480629A6045
:102090003B4B1B78FB73FA7B3A4913465B001344B6
:1020A000DB000B4408331B68BB60FFF73FFF0346B0
:1020B000FB80FB88BA689A4205D20023BB81324B71
:1020C00001221A704DE0FB88304A128892B2134404
:1020D0001A46BB68934206D92C4B1B88BB812A4BFE
:1020E00000221A703DE0BB689AB2FB88D31ABB810C
:1020F000254B01221A7034E0FA7B224913465B001B
:102100001344DB000B4408331A68FB889A420AD256
:10211000FA7B1C4913465B001344DB000B44083375
:1021200000221A6013E0FA7B164913465B00134441
:10213000DB000B4408331968FB88FA7BC91A114885
:1021400013465B001344DB00034408331960FA7B39
:102150000C4913465B001344DB000B4415331B781A
:10216000FB73FB7B062BC7D1BB891846FFF71EFF0D
:1021700000BF1037BD4680BD00280040403300201E
:10218000F032002060320020F8320020FE320020C1
:1021900080B58AB000AFEFF310837B617B697B620F
:1021A00072B600BF594B1B68CA225A62574B1B6854
:1021B00053225A62554B1B689A68544B1B6822F491
:1021C00080629A60524B1B7887F8233097F823205F
:1021D000504913465B001344DB000B440C331B785F
:1021E000DBB2022B6ED197F823204A4913465B00DD
:1021F0001344DB000B441B68FB6197F8232045491F
:1022000013465B001344DB000B4410331B68BB61B7
:10221000414B1B78DBB2002B4CD097F823203D4973
:1022200013465B001344DB000B440D331B78DBB219
:10223000012B24D197F8233001211846FFF7F2FD36
:102240007B6A3B613B6983F3108800BF97F82320CA
:10225000304913465B001344DB000B4404331A6817
:1022600097F823301146184600F032FA274B1B68C6
:10227000CA225A62254B1B6853225A6212E07B6ABB
:10228000FB60FB6883F3108800BF97F82330184683
:1022900000F09AF91D4B1B68CA225A621B4B1B683F
:1022A00053225A6297F82330FA691946B86900F048
:1022B00095FA22E0FFF7D2FE7B6ABB60BB6883F32E
:1022C00010881AE000BF114B1B68DB6803F00403A1
:1022D000002BF8D00D4B1B68DB68DAB20B4B1B6888
:1022E00062F49062DA600D4B4FF40022DA607B6A90
:1022F0007B607B6883F3108800BF044B1B68FF2260
:102300005A6200BF2837BD4680BD00BF4033002061
:10231000F032002060320020F8320020000800581F
:1023200080B588B000AF03463960FB715E4B1B6817
:10233000CA225A625C4B1B6853225A625B4B9B68F1
:102340005A4A43F020039360584B9B68DBB203F07A
:102350000703DBB2C3F10403DAB2554B1A70534BD7
:102360001B6903F4FE034FF4FE023A613A6992FAE4
:10237000A2F2FA60FA687A617A69002A01D1202211
:1023800003E07A69B2FA82F2D2B2D340DBB201330F
:10239000DAB2484B1A70454B1B699BB2C3F30E036C
:1023A0009BB201339AB2444B1A80434B1B88013BCA
:1023B000404A127802FB03F3A3F5A0733C4A12785B
:1023C000D340BB61BB694FF6FE72934204D93B4BCD
:1023D0004FF6FF721A8003E0BB699AB2374B1A803E
:1023E0004FF40020FFF79CFB4FF40020FFF784FB25
:1023F000FB79002B3DD1324B01221A70314B4FF04B
:10240000FF321A600023FB770CE0FA7F2E49134657
:102410005B001344DB000B440C3300221A70FB7F7B
:102420000133FB77FB7F052BEFD9284B06221A706F
:102430001D4B1B689A681C4B1B6822F480629A60D3
:10244000194B1B68DB68DAB2174B1B6862F49062A9
:10245000DA601F4B4FF40022DA60032007F0D3FB51
:10246000114B1B689A68104B1B6842F480429A60BB
:1024700009E00D4B1B68DB6803F48063002B02D07E
:10248000032007F0B2FB084B1B68FF225A620022B0
:102490000321032007F067FB032007F07EFB00BF4A
:1024A0002037BD4680BD00BF4033002000280040DB
:1024B000F9320020FA320020FC320020FE320020E7
:1024C000F8320020F432002060320020F032002088
:1024D0000008005880B48BB000AFF860B9603B6072
:1024E0001346FB71002387F82630EFF31083FB615E
:1024F000FB693B6272B600BF04E097F826300133F7
:1025000087F8263097F82630052B0CD897F8262028
:102510002C4913465B001344DB000B440C331B783F
:10252000DBB2002BE9D197F82630062B38D097F88C
:102530002620244913465B001344DB000B440C3374
:1025400001221A703B6ABB61BB6983F3108800BF2C
:1025500097F826201B4913465B001344DB000B440D
:102560001033FA681A6097F82620164913465B0064
:102570001344DB000B440D33FA791A7097F82620C8
:10258000104913465B001344DB000B443A681A60A1
:10259000BB6897F826201A70002387F8273008E0D8
:1025A0003B6A7B617B6983F3108800BF012387F856
:1025B000273097F8273018462C37BD465DF8047B46
:1025C000704700BF6032002080B586B000AF034680
:1025D000FB71EFF31083FB60FB687B6172B600BF99
:1025E000032007F0E8FA344B1B68CA225A62324BC8
:1025F0001B6853225A62FA79304913465B00134430
:10260000DB000B440C331B78DBB2022B42D1FB798D
:1026100000211846FFF706FC294B1B78FB74FB7C56
:10262000062B2FD1274B9B6803F48063B3F5806F93
:1026300007D100BF204B1B68DB6803F00403002BAD
:10264000F8D11D4B1B689A681B4B1B6822F48062F3
:102650009A6000BF184B1B68DB6803F00403002B73
:10266000F8D0154B1B68DB68DAB2134B1B6862F4B9
:102670009062DA60144B4FF40022DA60032007F016
:10268000C2FA07E0114B1B78DBB2FA7C9A4201D008
:10269000FFF7E4FC084B1B68FF225A62032007F097
:1026A0007CFA7B69BB60BB6883F3108800BF00BF06
:1026B0001837BD4680BD00BF403300206032002087
:1026C000F03200200028004000080058F1320020BD
:1026D00080B586B000AF03463960FB71FA793B499B
:1026E00013465B001344DB000B440C331B78DBB256
:1026F000022B03D1FB791846FFF766FFEFF3108337
:10270000FB60FB687B6172B600BF032007F053FAE1
:102710002F4B1B68CA225A622D4B1B6853225A62E8
:10272000FA792A4913465B001344DB000B440C334F
:1027300002221A70FA79254913465B001344DB0024
:102740000B4408333A681A60FA79204913465B0053
:102750001344DB000B4404333A681A60FB791846D3
:10276000FFF7B6FA03467B821A4B1B787B741A4B31
:102770001B78DBB27A7C9A4202D0FFF76FFC13E041
:10278000FA79124913465B001344DB000B4408330B
:1027900019687B8AFA79C91A0C4813465B001344FE
:1027A000DB00034408331960094B1B68FF225A629F
:1027B000032007F0F2F97B69BB60BB6883F31088E4
:1027C00000BF00BF1837BD4680BD00BF603200208B
:1027D00040330020F0320020F132002080B584B078
:1027E00000AFF8600B467A60FB727B68984700BFC9
:1027F0001037BD4680BD000080B582B000AF786064
:102800007B681B681A46094B9A4207D1084B1B6824
:10281000002B05D0064B1B68984701E000BF00E085
:1028200000BF00BF0837BD4680BD00BF008000402C
:102830000033002080B483B000AF78604FF0B04325
:10284000D3F8903023F018024FF0B0417B68134367
:10285000C1F8903000BF0C37BD465DF8047B70476F
:1028600080B485B000AF78604FF0B0439A6C4FF001
:10287000B0417B6813438B644FF0B0439A6C7B6824
:102880001340FB60FB6800BF1437BD465DF8047B56
:10289000704780B485B000AF78604FF0B043DA6C19
:1028A0004FF0B0417B681343CB644FF0B043DA6C18
:1028B0007B681340FB60FB6800BF1437BD465DF8C2
:1028C000047B704780B483B000AF78604FF0B043B2
:1028D000DA6C7B68DB434FF0B0411340CB6400BF40
:1028E0000C37BD465DF8047B704780B483B000AF01
:1028F00078604FF0B0431A6D7B6813407A689A4253
:1029000001D1012300E0002318460C37BD465DF8D5
:10291000047B704780B483B000AF78604FF0B04361
:102920009A6D7B68DB434FF0B04113408B6500BF6D
:102930000C37BD465DF8047B704780B483B000AFB0
:1029400078604FF0B0431A6E7B68DB434FF0B041C4
:1029500013400B6600BF0C37BD465DF8047B704723
:1029600080B483B000AF78607B68FF225A6200BFFA
:102970000C37BD465DF8047B704780B483B000AF70
:1029800078607B68CA225A627B6853225A6200BF11
:102990000C37BD465DF8047B704780B483B000AF50
:1029A000786039607B689B6823F007023B681A43B4
:1029B0007B689A6000BF0C37BD465DF8047B7047AA
:1029C00080B586B002AF4FF4A873FB600023BB60F4
:1029D0000023FB8000237B7104F0D0F800230093D8
:1029E00000234FF400722849284803F05DFE0023BD
:1029F000009300234FF400722349254803F054FE4E
:102A00000023009300234FF400721F49214803F074
:102A10004BFE3B461A4620491D4803F039FF03464A
:102A20007B7197F90530002B05D13B681A461A498E
:102A30001A480EF0ABF93B461A461749134803F003
:102A400027FF03467B7197F90530002B05D13B68C2
:102A50001A46114912480EF099F93B461A460E499A
:102A60000C4803F015FF03467B7197F90530002BE6
:102A700005D13B681A46084908480EF087F900BF9F
:102A80001037BD4680BD00BF140000206C690108EE
:102A90007869010884690108F83600209069010806
:102AA000A469010880B500AF0120FFF70BFF0220E9
:102AB000FFF708FF4FF48040FFF73FFF4FF48050CF
:102AC000FFF73BFF4FF40010FFF724FF4FF40050D7
:102AD000FFF7F8FE4FF48070FFF707FF00BF80BDDF
:102AE00080B500AF06F04AFEFEF7C6FB00F052F8D4
:102AF00000F0ACF800F0CAF800F02AFD00F09AF9F6
:102B000000F086F900F0DEF800F036F900F0D2F8B7
:102B100000F07AFC00F0DCFC00F008F900F0B2FCF8
:102B2000FEF7B8FB0020FEF7A7FF06F0DBFE06F07D
:102B3000CDFEFFF745FF03F07BF90220FEF74CFFC7
:102B4000124B1B68B3F57A6F11D972B600BF40BF44
:102B500020BF0020FEF776FFFFF7A4FF00F0D3FDB3
:102B600002214FF4804007F0A1FF62B60AE0074B54
:102B70001B680133054A1360044B1B68194604485F
:102B800011F0B8FAFEF775FEDAE700BFF83A002058
:102B9000B869010880B59AB000AF07F12003482258
:102BA0000021184611F026FC3B1D00221A605A60D5
:102BB0009A60DA601A615A619A6107F067FF102023
:102BC000FFF738FE204B1B6823F4C0631E4A43F412
:102BD000007313601C4B1B6803F4C0633B603B68CD
:102BE00007233B624FF480337B620123BB624FF4C7
:102BF0008073FB6240233B630023FB6407F12003E7
:102C0000184608F00BFF0346002B01D000F0A7FC8C
:102C10006F237B600223BB600023FB6000233B61CA
:102C200000237B610023BB610023FB613B1D01216D
:102C3000184609F067FA0346002B01D000F08FFC1C
:102C400000BF6837BD4680BD0004005880B594B011
:102C500000AF3B4650220021184611F0CBFB4FF449
:102C600040533B604FF480437B640223BB640023EA
:102C7000FB643B46184609F082FE0346002B01D058
:102C800000F06DFC00BF5037BD4680BD80B500AF81
:102C9000064B074A1A60054807F072FE0346002BF0
:102CA00001D000F05CFC00BF80BD00BF04330020F9
:102CB000000C005880B400AF00BFBD465DF8047B37
:102CC0007047000080B500AF164B174A1A60154BCD
:102CD00000225A60134B0F229A60124B47F6FF7284
:102CE000DA60104B00221A610E4B00229A610D4BE4
:102CF0000022DA610B4B00225A610A480AF0C6F83A
:102D00000346002B01D000F02AFC0748FFF735FEF0
:102D100000210548FFF741FE0348FFF721FE00BFF1
:102D200080BD00BF403300200028004080B500AFC8
:102D30000F4B104A1A600E4B00225A600C4B0022B7
:102D40009A600B4B4FF6FF72DA60094B00221A6152
:102D5000074B00225A61064B80229A6104480BF00F
:102D600005F90346002B01D000F0F9FB00BF80BD40
:102D7000643300200044014080B500AF224B234A59
:102D80001A60214B4FF4E1325A601F4B00229A60C7
:102D90001D4B0022DA601C4B00221A611A4B0C22D8
:102DA0005A61194B00229A61174B00221A62164B86
:102DB00000225A62144B00229A62134B00225A6678
:102DC00011480BF037FB0346002B01D000F0C7FB86
:102DD00000210D480CF03FFC0346002B01D000F011
:102DE000BEFB002108480CF074FC0346002B01D008
:102DF00000F0B5FB04480CF0F5FB0346002B01D0B6
:102E000000F0ADFB00BF80BDA43400200080004076
:102E100080B500AF0420FFF723FD0220FFF720FD5F
:102E200000220F213A2006F09EFE3A2006F0B5FE61
:102E300000BF80BD80B586B000AF3B1D00221A6088
:102E40005A609A60DA601A610120FFF722FD0420BF
:102E5000FFF71FFD0220FFF71CFD0820FFF719FDFB
:102E60001020FFF716FD8020FFF713FD002203213D
:102E7000BF4807F0E5FB00224FF44071BD4807F062
:102E8000DFFB00224FF48071BB4807F0D9FB002222
:102E90000421BA4807F0D4FB00220121B64807F00C
:102EA000CFFB00224021B34807F0CAFB012240219A
:102EB000B34807F0C5FB012220214FF0904007F0F6
:102EC000BFFB3A237B600323BB600023FB603B1DF9
:102ED0001946A84807F04EF940F604437B600023EA
:102EE000BB600023FB603B1D1946A24807F042F976
:102EF0004FF400737B600223BB600023FB60002360
:102F00003B610A237B613B1D19469D4807F032F95E
:102F100001237B600223BB600023FB6000233B6135
:102F200008237B613B1D1946924807F023F94FF4B3
:102F300080737B601223BB600023FB6000233B6136
:102F400004237B613B1D19468D4807F013F94FF4AC
:102F500081537B600223BB600023FB6000233B6145
:102F600008237B613B1D1946854807F003F94FF4A0
:102F700000437B600223BB600023FB6000233B61B6
:102F800001237B613B1D19464FF0904007F0F2F89A
:102F90004FF480637B601223BB600023FB6000233F
:102FA0003B6104237B613B1D19464FF0904007F0C5
:102FB000E1F84FF4C0537B600223BB600023FB6049
:102FC00000233B610A237B613B1D19464FF0904073
:102FD00007F0D0F812237B600023BB600023FB6066
:102FE0003B1D1946654807F0C5F84FF480637B60C8
:102FF0000223BB600023FB6000233B6101237B6154
:103000003B1D19465E4807F0B5F804237B6000239A
:10301000BB600023FB603B1D1946594807F0AAF826
:103020004FF440737B600223BB600023FB600023EE
:103030003B6103237B613B1D19464FF0904007F035
:1030400099F840237B600223BB600023FB600023D0
:103050003B6108237B613B1D19464FF0904007F010
:1030600089F808237B600223BB600023FB600023F8
:103070003B610A237B613B1D19464FF0904007F0EE
:1030800079F803237B600123BB600023FB600023EE
:103090003B613B1D1946364807F06CF84FF440433E
:1030A0007B600223BB600023FB6000233B610123A4
:1030B0007B613B1D1946304807F05CF843F2100372
:1030C0007B600023BB600023FB603B1D19462A4840
:1030D00007F050F84FF401737B604FF48813BB6026
:1030E0000023FB603B1D1946234807F043F84FF4CB
:1030F00040737B600123BB600023FB6000233B61C6
:103100003B1D19461B4807F035F868237B600223F6
:10311000BB600023FB6000233B610A237B613B1DF6
:103120001946154807F026F808237B604FF48813EA
:10313000BB600023FB603B1D1946104807F01AF8DE
:103140004FF480737B600123BB600023FB6000238E
:103150003B613B1D1946084807F00CF84FF44063EB
:103160007B600223BB600023FB6000230AE000BFFA
:10317000001C004800080048000C004800100048EF
:10318000000400483B6109237B613B1D19467848D8
:1031900006F0F0FF04237B600123BB600023FB608B
:1031A00000233B613B1D1946724806F0E3FF0123F3
:1031B0007B600223BB600023FB6000233B610E2386
:1031C0007B613B1D19466B4806F0D4FF01237B60F1
:1031D0000123BB600023FB6000233B613B1D1946BC
:1031E000634806F0C7FF02237B600023BB60022315
:1031F000FB603B1D19465E4806F0BCFF40237B6028
:103200000123BB600023FB6000233B613B1D19468B
:10321000594806F0AFFF40237B600123BB600123C8
:10322000FB6001233B613B1D1946544806F0A2FF99
:1032300000224FF400414FF0904007F001FA0122C4
:1032400010214FF0904007F0FBF90022022149487D
:1032500007F0F6F906237B604FF48813BB60002368
:10326000FB603B1D19464FF0904006F083FF18238A
:103270007B604FF48813BB600023FB603B1D194645
:103280003D4806F077FF4FF480637B600123BB600D
:103290000023FB6000233B613B1D1946364806F0C6
:1032A00069FF48F210037B600123BB600023FB60D1
:1032B00000233B613B1D19464FF0904006F05AFF3A
:1032C0004FF480437B600023BB600023FB603B1D09
:1032D0001946274806F04EFF02237B600123BB609E
:1032E0000023FB6000233B613B1D1946214806F08B
:1032F00041FF40237B600123BB600023FB60002370
:103300003B613B1D19464FF0904006F033FF2023F0
:103310007B604FF48813BB600023FB603B1D1946A4
:103320004FF0904006F026FF00220521072006F00E
:103330001AFC072006F031FC00220521082006F0C7
:1033400012FC082006F029FC00220521092006F0C5
:103350000AFC092006F021FC002205210A2006F0C3
:1033600002FC0A2006F019FC00BF1837BD4680BDDC
:10337000000C004800100048000800480004004805
:1033800080B582B000AF786039601D4B1D4A1A606D
:103390001B4B4FF482725A60194B00229A60184BF3
:1033A0004FF4E062DA60164B00221A61144B0022DF
:1033B0005A61134B4FF400729A61114B0022DA618B
:1033C0000F4B00221A620E4B00225A620C4B002255
:1033D0009A620B4B0722DA62094B00221A63084BF0
:1033E00008225A63064809F087FE0346002B01D0E5
:1033F00000F0B5F800BF18460837BD4680BD00BFD5
:10340000983500200030014080B500AF1B4B1C4AAE
:103410001A601A4B4FF482725A60184B00229A605D
:10342000164B4FF4E062DA60144B00221A61134B22
:1034300000225A61114B4FF400729A610F4B202207
:10344000DA610E4B00221A620C4B00225A620B4BBF
:1034500000229A62094B0722DA62084B00221A63A3
:10346000064B08225A63054809F046FE0346002B26
:1034700001D000F074F800BF80BD00BFFC35002013
:103480000038004080B500AF0F4B104A1A600E4B59
:1034900002225A600C4B01229A600B4B0022DA6028
:1034A000094B17221A61084B00225A61064B002271
:1034B0009A61054807F076FB0346002B01D000F027
:1034C0004EF800BF80BD00BF60360020001000A095
:1034D00080B500AF1B4B1C4A1A601A4B1B4A5A603E
:1034E000184B00229A60174B0122DA60154B00221C
:1034F0001A61144B00225A61124B00229A61114B3F
:103500000022DA610F4B00221A620E4807F006F91A
:103510000346002B01D000F022F80021094807F0F3
:1035200098F90346002B01D000F019F80021054856
:1035300007F0DAF90346002B01D000F010F800BFC5
:1035400080BD00BFA436002000540040B57DB110FE
:1035500080B400AF00BFBD465DF8047B704780B407
:1035600000AF72B600BF00BFFDE7000080B483B0BB
:1035700000AF7860064B1B6823F0070204497B68A4
:1035800013430B6000BF0C37BD465DF8047B7047EA
:103590000004005880B400AF074BD3F8883003F420
:1035A0008063B3F5806F01D1012300E0002318464A
:1035B000BD465DF8047B70470004005880B400AF3E
:1035C000074BD3F8883003F40043B3F5004F01D123
:1035D000012300E000231846BD465DF8047B7047D8
:1035E0000004005880B400AF4FF0B0431B684FF0A8
:1035F000B04243F48073136000BFBD465DF8047BA6
:10360000704780B400AF4FF0B0431B6803F4806391
:10361000B3F5806F01D1012300E000231846BD46B9
:103620005DF8047B704780B483B000AF78604FF0E2
:10363000B0439B6823F003024FF0B0417B68134313
:103640008B6000BF0C37BD465DF8047B704780B4CB
:1036500000AF4FF0B0439B6803F00C031846BD4623
:103660005DF8047B704780B483B000AF78604FF0A2
:10367000B0435B6A23F003024FF0B0417B68134311
:103680004B6200BF0C37BD465DF8047B70470000FD
:1036900080B400AF054B1B69044A43F00403136177
:1036A00000BFBD465DF8047B704700BF00ED00E041
:1036B00080B483B000AF786039607B683A682032AC
:1036C00053F82230054A934201D0012300E0002341
:1036D00018460C37BD465DF8047B70470004008037
:1036E00080B485B000AFF860B9607A607B6843F45D
:1036F0008061FB68BA6843F8221000BF1437BD46EA
:103700005DF8047B704780B500AF06F0C9F800F0A3
:1037100009F80220FFF72AFFFFF7BAFF30BF00BF0A
:1037200080BD000080B500AF00BF03211948FFF73E
:10373000BFFF0346002BF8D104211648FFF7B8FF5E
:103740000346002B17D1FFF739FF0346002B04D1A6
:10375000FFF720FF0346002B15D0002204210D485F
:10376000FFF7BEFF00F01AF80B4B1B680A4A23F064
:103770000703136007E000F011F8074B1B68064AC7
:1037800023F007031360002203210248FFF7A8FF7C
:1037900000BF80BD001400580040005880B500AF45
:1037A000FFF720FF00BFFFF72CFF0346002BFAD0E6
:1037B0000120FFF738FF0020FFF755FF00BFFFF79C
:1037C00046FF0346042BFAD100BF80BD80B483B00E
:1037D00000AF78604FF0B043D3F8903023F44072DC
:1037E0004FF0B0417B681343C1F8903000BF0C37F5
:1037F000BD465DF8047B704780B400AF4FF0B04326
:10380000D3F890304FF0B04243F40043C2F8903008
:1038100000BFBD465DF8047B704780B485B000AF43
:1038200078604FF0B043DA6C4FF0B0417B681343DF
:10383000CB644FF0B043DA6C7B681340FB60FB68ED
:1038400000BF1437BD465DF8047B704780B485B077
:1038500000AF78604FF0B0431A6D4FF0B0417B6815
:1038600013430B654FF0B0431A6D7B681340FB6048
:10387000FB6800BF1437BD465DF8047B704780B419
:1038800085B000AF78604FF0B0439A6D4FF0B04113
:103890007B6813438B654FF0B0439A6D7B68134090
:1038A000FB60FB6800BF1437BD465DF8047B7047C2
:1038B00080B485B000AF78604FF0B043DA6D4FF060
:1038C000B0417B681343CB654FF0B043DA6D7B6842
:1038D0001340FB60FB6800BF1437BD465DF8047BF6
:1038E000704780B485B000AF78604FF0B0431A6E77
:1038F0004FF0B0417B6813430B664FF0B0431A6E34
:103900007B681340FB60FB6800BF1437BD465DF861
:10391000047B704780B500AF4FF40020FFF796FF9F
:10392000002200212E2006F01EF92E2006F035F987
:1039300000BF80BD80B582B000AF78607B681B6837
:10394000054A934203D14FF48010FFF77FFF00BF79
:103950000837BD4680BD00BF000C005880B596B04A
:1039600000AF786007F1080350220021184610F0DC
:1039700041FD7B681B68144A934220D107F086F80A
:1039800007F084F84FF48070FFF720FF4FF40063D6
:10399000BB604FF48073BB6407F10803184608F05E
:1039A000EEFF0346002B01D0FFF7D9FDFFF724FF00
:1039B0004FF48060FFF763FF786809F067FB00BF92
:1039C0005837BD4680BD00BF0028004080B588B094
:1039D00000AF786007F10C0300221A605A609A6009
:1039E000DA601A617B681B680A4A93420ED14FF471
:1039F0000030FFF776FF1020FFF70FFF00220021B5
:103A0000192006F0B0F8192006F0C7F800BF2037DB
:103A1000BD4680BD0044014080B59CB000AF7860D9
:103A200007F15C0300221A605A609A60DA601A613A
:103A300007F10C0350220021184610F0DBFC7B68D4
:103A40001B685C4A934256D10123FB6000237B62D2
:103A500007F10C03184608F092FF0346002B01D033
:103A6000FFF77DFD4FF48040FFF73BFF0220FFF79B
:103A7000D4FEC023FB6502233B6601237B66032340
:103A8000BB660723FB6607F15C0319464A4806F04C
:103A900071FB4A4B4A4A1A60484B0F225A60474B07
:103AA00010229A60454B0022DA60444B80221A6152
:103AB000424B00225A61414B00229A613F4B002247
:103AC000DA613E4B00221A623C4806F0ABF803462E
:103AD000002B01D0FFF743FD7B68384ADA67374A8D
:103AE0007B68936200220021242006F03CF8242009
:103AF00006F053F859E07B681B68324A934254D170
:103B00000223FB600023BB6207F10C03184608F098
:103B100036FF0346002B01D0FFF721FD0120FFF700
:103B2000C7FE0420FFF779FE0323FB6502233B66F3
:103B300000237B660023BB660823FB6607F15C035A
:103B40001946214806F016FB204B214A1A601F4BEC
:103B500011225A601D4B10229A601C4B0022DA6021
:103B60001A4B80221A61194B00225A61174B00220E
:103B70009A61164B0022DA61144B00221A62134834
:103B800006F050F80346002B01D0FFF7E8FC7B68F5
:103B90000E4ADA670D4A7B689362002200212520D5
:103BA00005F0E1FF252005F0F8FF00BF7037BD46A6
:103BB00080BD00BF003801400004004844340020AC
:103BC00044040240008000400008004838350020CE
:103BD0004400024080B588B000AF786007F10C0364
:103BE00000221A605A609A60DA601A617B681B686A
:103BF0001D4A934217D14FF48050FFF772FE022006
:103C0000FFF70BFE3823FB6002233B6100237B613F
:103C10000223BB610523FB6107F10C03194613481E
:103C200006F0A8FA1CE07B681B68114A934217D182
:103C30004FF48040FFF723FE0220FFF7EEFD4FF424
:103C40006043FB6002233B6100237B610023BB6177
:103C50000523FB6107F10C031946044806F08AFAB4
:103C600000BF2037BD4680BD003001400004004841
:103C70000038004080B588B000AF786007F10C03D1
:103C800000221A605A609A60DA601A617B681B68C9
:103C9000224A93423ED14FF48070FFF7D7FD0220B5
:103CA000FFF7BBFD0120FFF7B8FD0820FFF7B5FDCA
:103CB0004FF40073FB6002233B6100237B61002310
:103CC000BB610A23FB6107F10C031946144806F097
:103CD00051FA0823FB6002233B6100237B61002330
:103CE000BB610A23FB6107F10C0319464FF09040BA
:103CF00006F040FAE823FB6002233B6100237B616E
:103D00000023BB610A23FB6107F10C031946054838
:103D100006F030FA00BF2037BD4680BD001000A07D
:103D200000040048000C004880B59CB000AF7860EB
:103D300007F15C0300221A605A609A60DA601A6127
:103D400007F10C0350220021184610F053FB7B684A
:103D50001B68174A934226D10423FB604FF440337B
:103D6000FB6207F10C03184608F009FE0346002B1E
:103D700001D0FFF7F4FB0220FFF74FFD4FF4C073B3
:103D8000FB6512233B6600237B660023BB6604238E
:103D9000FB6607F15C031946064806F0EBF94FF4A1
:103DA0000010FFF76CFD00BF7037BD4680BD00BF3F
:103DB000005400400004004880B400AF00BFFDE79D
:103DC00080B400AF00BFFDE780B400AF00BFFDE7E7
:103DD00080B400AF00BFFDE780B400AF00BFFDE7D7
:103DE00080B400AF00BFBD465DF8047B704780B46F
:103DF00000AF00BFBD465DF8047B704780B400AFE4
:103E000000BFBD465DF8047B704780B500AF05F08C
:103E10000FFD00BF80BD000080B500AF02480AF072
:103E20002BF900BF80BD00BF6433002080B500AF18
:103E300002480AF0DDFB00BF80BD00BFB0330020A8
:103E400080B500AF06F046FC00BF80BD80B500AF76
:103E5000024806F04DF800BF80BD00BF443400208A
:103E600080B500AF01F03EFD00BF80BD80B500AF62
:103E700001F06EFD00BF80BD80B500AF4FF48050F3
:103E800006F010FC4FF4005006F00CFC00BF80BDA3
:103E900080B500AFFEF77CF900BF80BD80B500AFF4
:103EA00004F062FE00BF80BD80B500AF022006F0C6
:103EB000F9FB00BF80BD80B500AF042006F0F2FB27
:103EC00000BF80BD80B500AF082006F0EBFB00BF4F
:103ED00080BD80B500AF102006F0E4FB00BF80BDC0
:103EE00080B500AF202006F0DDFB00BF80BD80B4B0
:103EF00000AF01231846BD465DF8047B704780B5CE
:103F000082B000AF7860396010F0ECFA03461622F8
:103F10001A604FF0FF3318460837BD4680BD80B5A4
:103F200082B000AF78604FF0FF317868FFF7E7FFAD
:103F300000BFFDE780B586B000AFF860B9607A6079
:103F400000237B610AE0AFF300800146BB685A1C86
:103F5000BA60CAB21A707B6901337B617A697B6887
:103F60009A42F0DB7B6818461837BD4680BD80B4A6
:103F700083B000AF78604FF0FF3318460C37BD4672
:103F80005DF8047B704780B483B000AF786039601F
:103F90003B684FF400525A60002318460C37BD4668
:103FA0005DF8047B704780B483B000AF7860012374
:103FB00018460C37BD465DF8047B704780B485B069
:103FC00000AFF860B9607A60002318461437BD4628
:103FD0005DF8047B7047000080B586B000AF786064
:103FE000144A154BD31A7B617B693B61134B1B68E9
:103FF000002B02D1114B124A1A60104B1A687B68D1
:1040000013443A699A4207D210F06CFA03460C2224
:104010001A604FF0FF3309E0084B1B68FB60074B49
:104020001A687B681344054A1360FB681846183702
:10403000BD4680BD0000032000100000FC3A0020B7
:10404000A06D002080B400AF034B1B681846BD462E
:104050005DF8047B704700BF8075FF1F80B400AF20
:10406000034B1B68DBB21846BD465DF8047B704706
:104070008475FF1F80B400AF034B1B681B0A1846F2
:10408000BD465DF8047B70478475FF1FF0B5B1B085
:1040900004AF07F19403C7F8AC309E4B3C1D1D469E
:1040A0000FCD0FC40FCD0FC40FCD0FC495E807007F
:1040B00003C4228000F024FE012102200EF0F8FF4C
:1040C000954A002104200FF01FF93B1D18460DF002
:1040D00043FC034687F8AB3097F8AB30002B12D087
:1040E0008E480CF0A7FE014640F24F138C4A8D48D3
:1040F00010F000F897F8AB3019468B480FF0FAFF34
:10410000FFF72DFA0CE085480CF094FE014640F2D2
:104110005513834A83480FF0EDFF844810F05AF896
:1041200000F004FE0EF0C8F9814B002283F88020D5
:104130007F4B4FF6FF72DA827E4A002101200FF09A
:10414000E3F801F081FA7C4B8922DA707B4B002284
:104150007B490020FEF7BEF9754B02225A76744B5C
:1041600001221A7641F60D0001F0DAF9754B802232
:104170001A80754BA0221A80012001F08BF8D7F825
:10418000AC000DF02DFC0346002B40F0928001F0B6
:1041900083F9C7F8A400D7F8A43005331B781D466F
:1041A000D7F8A43004331B781E46D7F8A430033365
:1041B0001B781A46D7F8A43002331B781946D7F873
:1041C000A43001331B781C46D7F8A4301B7807F1C4
:1041D0008000039302940191009233462A465B4982
:1041E00010F000F8D7F8AC301B781A46D7F8AC308E
:1041F0005B781946D7F8AC309B7807F168000093DC
:104200000B4653490FF0EEFFD7F8AC30DB781A4677
:10421000D7F8AC301B7907F154004E490FF0E2FF9C
:10422000D7F8AC309B7A1A46D7F8AC30DB7A19460F
:10423000D7F8AC301B7B07F1400000930B46464992
:104240000FF0D0FF0021002005F07CF8002004F0E2
:1042500051FF07F180020323002100200EF00EFD24
:104260000EF0AAFC0346DB88194607F16802032317
:1042700000200EF003FD0EF09FFC0346DB885B0080
:10428000194607F15402032300200EF0F7FC0EF04C
:1042900093FC0346DB881A4613465B001344194619
:1042A00007F14002032300200EF0E8FC002004F098
:1042B00021FF4FF47A60FDF7B7FA0021002005F0E6
:1042C00041F8002004F016FF0123244A00210020B9
:1042D0000EF0D4FC0EF070FC0346DB88194607F1A3
:1042E0008002032300200EF0C9FC0EF065FC03469B
:1042F000DB881A4613465B00134419460323184A09
:1043000000200EF0BBFC002004F0F4FE00BFB43728
:10431000BD46F0BD486B0108CD0F0108CC6901080E
:1043200088840108586A0108706A0108A86A0108AF
:10433000083B002089550008140200207955000828
:10434000893B00208C3B00208E3B0020D06A010876
:10435000F06A0108046B0108186B0108286B01085A
:104360003C6B0108F0B597B004AF7860922387F8F2
:1043700047307B6801333B643B6C1B78FF2B00F0BC
:104380004C82FF2B00F31884052B04D03E2B00F049
:10439000878000F011BC3B6C02333B623B6AB3F890
:1043A00001309AB2A84BDB8A9A4228D1A64B002250
:1043B000DA82A54B002283F88020A4480CF03AFD55
:1043C000014640F2DB13A24AA2480FF093FEA24836
:1043D0000FF000FF9D480CF02DFD01464FF4EE73E9
:1043E0009B4A9C480FF086FE3B6AB3F801309BB2B3
:1043F00019463B6ADB781A4698480FF07BFE01F0BD
:104400004BF878627B6A05331B781D467B6A043360
:104410001B781E467B6A03331B781A467B6A02337D
:104420001B7819467B6A01331B781C467B6A1B7814
:1044300007F10800039302940191009233462A4643
:1044400087490FF0CFFE0021002004F07BFF002001
:1044500004F050FE0123834A002100200EF00EFCE0
:104460000EF0AAFB0346DB88194607F10802032376
:1044700000200EF003FC0EF09FFB0346DB881A467B
:1044800013465B00134419460323774A00200EF0BD
:10449000F5FB002004F02EFE012000F0FBFE8EE371
:1044A0003B6C02337B637B6B1B780C2B48D00C2B53
:1044B00000F3B181012B00F0EB80032B40F0AB81C6
:1044C0007B6B0133FB6261480CF0B4FC014640F2A7
:1044D00005235F4A5F480FF00DFE64480FF07AFE37
:1044E0005A480CF0A7FC014640F20623584A5948A6
:1044F0000FF000FEFB6AB3F803309BB21846FBF7DF
:10450000E9FF4FF000025A4BFCF74EF802460B460B
:1045100010461946FB6AB3F805309BB21C46FB6A8D
:10452000B3F807309BB21A4613469B0013445B0056
:104530000193009402460B464E480FF0DBFD6BE101
:104540007B6B01333B6341480CF074FC014640F245
:1045500013233F4A3F480FF0CDFD47480FF03AFE86
:104560003B6B1B78002B0DD138480CF063FC0146E7
:1045700040F21623364A37480FF0BCFD3F480FF093
:1045800029FE0CE031480CF055FC014640F21A239C
:104590002F4A30480FF0AEFD39480FF01BFE2A4B72
:1045A000DB8A07F11E0207F11F0118460CF0F2FA30
:1045B000034687F8473097F84730002B0DD0234843
:1045C0000CF038FC01464FF40873214A21480FF0E3
:1045D00091FD2C480FF0FEFD1EE11C480CF02AFC5A
:1045E00001464FF409731A4A1A480FF083FD264812
:1045F0000FF0F0FDFB7F022B14D1BB7F022B11D1FA
:1046000012480CF017FC01464FF40A73104A114887
:104610000FF070FDFB7F1946BB7F1A461B480FF059
:1046200069FDF9E009480CF005FC01464FF40B73F5
:10463000074A08480FF05EFDFB7F1946BB7F1A460C
:1046400012480FF057FDE7E0083B0020CC69010855
:1046500098840108586A0108846B0108B06B01084E
:10466000D06A0108286B01083C6B0108EC6B01085B
:104670000000F43F246C0108946C0108C46C01082C
:10468000D46C0108E46C0108046D0108286D010870
:104690007B6B0133BB62AC4B93F881301846FDF75E
:1046A00093FFAA480CF0C6FB014640F23D23A84AFE
:1046B000A8480FF01FFDBB6AB3F801309BB2194642
:1046C000A5480FF017FDA1480CF0B4FB014640F2DD
:1046D0003E239F4A9F480FF00DFDBB6A9B7A184608
:1046E000BB6A5B7A1C46BB6A1B7A1D46BB6ADB79D8
:1046F0001A46BB6A9B791946BB6A5B7902930191A2
:1047000000922B462246014694480FF0F3FC8F4856
:104710000CF090FB014640F245238D4A8D480FF086
:10472000E9FCBB6AB3F80B309BB21846FBF7D2FE2C
:104730004FF000028A4BFBF737FF02460B4610464C
:104740001946BB6AB3F80D309BB21C46BB6AB3F87E
:104750000F309BB21A4613469B0013445B00019333
:10476000009402460B467F480FF0C4FC764B93F84A
:104770008030042B04D1744B062283F8802003E0A0
:10478000714B052283F88020BB6AB3F801309AB2DE
:104790006D4BDA8200F080FE78627B6A05331B780D
:1047A0001D467B6A04331B781E467B6A03331B78E5
:1047B0001A467B6A02331B7819467B6A01331B78E1
:1047C0001C467B6A1B7807F1080003930294019151
:1047D000009233462A4664490FF004FD0EF0ECF9CE
:1047E0000346DB88194607F10802032300200EF078
:1047F00045FA0EF0E1F90346DB881A4613465B00E2
:10480000134419460323594A00200EF037FA0020BA
:1048100004F070FC00E000BFD1E13B6C0233FB63AD
:10482000FB6B1B889BB240F20A42934222DCB3F539
:10483000806FC0F2C381A3F580630A2B00F2BE81B2
:1048400001A252F823F000BF81480008EF4A000897
:104850009D4800080F4900082B4900088D490008B1
:10486000BD4B0008754B0008FD490008354A00089B
:10487000194A000840F60E42934200F089819DE1FA
:1048800032480CF0D7FA01464FF41E73304A3148D3
:104890000FF030FC36480FF09DFC8CE12B480CF0FB
:1048A000C9FA01464FF41F73294A2A480FF022FC27
:1048B00030480FF08FFC244BDB8A2F4918460BF051
:1048C000CBF9034687F8473097F84730002B10D0D4
:1048D0001E480CF0AFFA014640F281231C4A1D48E5
:1048E0000FF008FC97F84730194624480FF002FCF7
:1048F00061E116480CF09EFA014640F28523144A05
:1049000014480FF0F7FB1E480FF064FC53E10F480A
:104910000CF090FA014640F28A230D4A0D480FF040
:10492000E9FB18480FF056FC45E108480CF082FA04
:10493000014640F28E23064A06480FF0DBFB124880
:104940000FF048FC37E100BF083B0020CC690108AC
:1049500098840108586A01084C6D0108986D010897
:104960000000F43F246C0108D06A0108E86D0108DA
:10497000F46D0108246E010840E201004C6E01084C
:10498000806E0108A86E0108D46E01088E480CF0F4
:1049900051FA014640F292238C4A8D480FF0AAFB4F
:1049A0008C480FF017FC8C4BDB8A18460BF079FB18
:1049B000034687F8473097F84730002B10D08248DD
:1049C0000CF038FA014640F29623804A80480FF0F6
:1049D00091FB97F84730194680480FF08BFBEAE0CF
:1049E00079480CF027FA014640F29A23774A784832
:1049F0000FF080FB7A480FF0EDFBDCE072480CF022
:104A000019FA014640F29F23704A71480FF072FB79
:104A100074480FF0DFFBCEE06B480CF00BFA014658
:104A200040F2A323694A6A480FF064FB6E480FF016
:104A3000D1FBC0E064480CF0FDF9014640F2A72329
:104A4000624A63480FF056FB68480FF0C3FB5E48AC
:104A50000CF0F0F901464FF42A735C4A5C480FF001
:104A600049FBFB6B0233D3F80230194660480FF064
:104A700041FB55480CF0DEF9014640F2AA23534AA7
:104A800053480FF037FBFB6B0233D3F80230194663
:104A900058480FF02FFB504BDB8A012118460BF0D2
:104AA00054FB034687F8473097F84730002B10D067
:104AB00045480CF0BFF9014640F2AF23434A444851
:104AC0000FF018FB97F8473019464B480FF012FBD0
:104AD00071E03D480CF0AEF9014640F2B3233B4A89
:104AE0003B480FF007FB45480FF074FB63E0FB6B9E
:104AF0000233BB6334480CF09DF9014640F2BB23FE
:104B0000324A33480FF0F6FA3D480FF063FBBB6BB7
:104B10009B78002B0DD12C480CF08CF9014640F20B
:104B2000BE232A4A2A480FF0E5FA36480FF052FB16
:104B300012E025480CF07EF9014640F2C223234AD8
:104B400023480FF0D7FABB6B9B781946BB6BDB7819
:104B50001A462D480FF0CEFA1B480CF06BF90146AF
:104B60004FF43173194A1A480FF0C4FA27480FF06E
:104B700031FB20E014480CF05DF9014640F2CA23F5
:104B8000124A13480FF0B6FA21480FF023FB12E047
:104B90000D480CF04FF9014640F2D2230B4A0C4865
:104BA0000FF0A8FA1B480FF015FB0B4BDB8A1846D9
:104BB0000BF0DEFD00BF01E000BF00E000BF0123FD
:104BC00018464C37BD46F0BDCC69010898840108F1
:104BD000586A0108106F0108083B0020386F01086F
:104BE0006C6F0108946F0108C46F0108F46F01082D
:104BF000287001084870010864700108B870010845
:104C0000007101082C7101084871010888710108C0
:104C10008C710108B871010880B582B000AF922391
:104C2000FB710BF01AFA0346FB71FB79002B0FD0D6
:104C300010480CF0FFF801464FF43E730E4A0F483F
:104C40000FF058FAFB7919460D480FF053FA0CE0B3
:104C500008480CF0EFF801464FF43F73064A074846
:104C60000FF048FA07480FF0B5FA00BF0837BD4605
:104C700080BD00BFCC690108B0840108586A0108F2
:104C8000E07101081872010880B582B000AF92236C
:104C9000FB71154BDB8A18460BF0F2F80346FB71EB
:104CA000FB79002B0FD011480CF0C4F801464FF4EB
:104CB00042730F4A0F480FF01DFAFB7919460E4850
:104CC0000FF018FA0CE009480CF0B4F801464FF464
:104CD0004373074A07480FF00DFA08480FF07AFAB5
:104CE00000BF0837BD4680BD083B0020CC690108E5
:104CF000CC840108586A0108447201087C720108DA
:104D000080B582B000AF064B3B60064B7B603B46F4
:104D1000194605480CF03EF900BF0837BD4680BD76
:104D20002800032013560008DB550008F0B58DB0AD
:104D300006AF4FF450733B809223FB75B1480CF0E3
:104D400079F8014640F22D33AF4AB0480FF0D2F95E
:104D5000AF480FF03FFA0BF0F9FE0346FB75FB7D01
:104D6000002B0FD0A7480CF065F8014640F236330F
:104D7000A54AA6480FF0BEF9FB7D1946A5480FF0DD
:104D8000B9F90CE09F480CF055F8014640F23A336F
:104D90009D4A9E480FF0AEF99F480FF01BFA00F0B5
:104DA0007BFB38613A69062100200BF0E3FD0346E6
:104DB000FB75FB7D002B0FD092480CF03BF80146B1
:104DC0004FF45173904A91480FF094F9FB7D1946C6
:104DD00092480FF08FF935E08A480CF02BF8014625
:104DE0004FF45273884A89480FF084F98C480FF0C9
:104DF000F1F984480CF01EF8014640F24933824A2A
:104E000082480FF077F93B6905331B7818463B69F8
:104E100004331B781C463B6903331B781D463B69F2
:104E200002331B781A463B6901331B7819463B69EC
:104E30001B780293019100922B4622460146794845
:104E40000FF058F93B6905331A78774B1A723B69B2
:104E500004331A78744B5A723B6903331A78724BD5
:104E60009A723B6902331A786F4BDA723B690133ED
:104E70001A786D4B1A733B691A786B4B5A736B4AED
:104E8000102118200BF076FD0346FB75FB7D002BEF
:104E90000FD05C480BF0CEFF014640F27D335A4AFA
:104EA0005A480FF027F9FB7D194661480FF022F9A7
:104EB0000CE054480BF0BEFF014640F28133524AE9
:104EC00052480FF017F95B480FF084F95A4A102145
:104ED00008200BF04FFD0346FB75FB7D002B0FD028
:104EE00048480BF0A7FF014640F28A33464A47483C
:104EF0000FF000F9FB7D194650480FF0FBF80CE06D
:104F000040480BF097FF014640F28E333E4A3F483F
:104F10000FF0F0F84A480FF05DF9182101200BF06E
:104F2000AEFD0346FB75FB7D002B0FD035480BF023
:104F300081FF014640F29733334A34480FF0DAF8E4
:104F4000FB7D19463F480FF0D5F80CE02D480BF0DB
:104F500071FF014640F29B332B4A2C480FF0CAF8F0
:104F600039480FF037F90BF057F90346FB75FB7D15
:104F7000002B0FD023480BF05DFF01464FF46973FF
:104F8000214A22480FF0B6F8FB7D19462F480FF052
:104F9000B1F80CE01B480BF04DFF01464FF46A736B
:104FA000194A1A480FF0A6F829480FF013F9002300
:104FB000FB73FB7B43F00103FB73FB7B002B6BD08C
:104FC000244BBB60BA1DF87BBB1C01933B1D0093B7
:104FD0001346072200210AF0A6FE0346FB75FB7D5F
:104FE000002B3BD007480BF025FF01464FF47273AE
:104FF000054A06480FF07EF8FB7D194616480FF06B
:1050000079F838E0CC690108E8840108586A010899
:10501000AC720108D87201080873010828730108EE
:1050200084730108D0730108140200206084010811
:10503000107401086874010870840108B0740108D4
:10504000087501085075010890750108C0750108C0
:10505000F475010818760108207601087E480BF0E7
:10506000E9FE01464FF473737C4A7D480FF042F825
:105070007C480FF0AFF8FC88BD88B868FBF7D0F823
:105080000346DAB2BB680093134600222946204645
:105090000BF0C5FA0346FB75F88879883B46009308
:1050A000022300220BF0BBFA0346FB750222022109
:1050B00000200BF0EDFD0346FB75FB7D002B0FD0B0
:1050C00065480BF0B7FE014640F2EE33634A644890
:1050D0000FF010F8FB7D194663480FF00BF80CE059
:1050E0005D480BF0A7FE014640F2F2335B4A5C4894
:1050F0000FF000F85D480FF06DF85D4B01221A705B
:105100005B4B1B7818460AF08FFC0346FB75FB7D52
:10511000002B0FD050480BF08DFE01464FF47F73EB
:105120004E4A4F480EF0E6FFFB7D194651480EF0FF
:10513000E1FF0CE048480BF07DFE01464FF4806330
:10514000464A47480EF0D6FF4B480FF043F8484B0D
:1051500001225A70464B08221A71454B10225A718F
:10516000434B0022DA70424B444A9A60404B012282
:105170009A703F4B9C783E4B5D783D4B1B793C4A87
:1051800052793B49C9783A488068002604960390D2
:1051900002910192009300230122294620460AF041
:1051A00097FC0346FB75FB7D002B0FD02A480BF0C4
:1051B00041FE014640F21B43284A29480EF09AFF5F
:1051C000FB7D19462E480EF095FF0CE022480BF0AF
:1051D00031FE014640F21F43204A21480EF08AFF6B
:1051E00028480EF0F7FF224B9B78002B23D00AF0C3
:1051F00010FF0346FB75FB7D002B0FD016480BF00C
:1052000019FE014640F22A43144A15480EF072FF77
:10521000FB7D19461C480EF06DFF0CE00E480BF0AC
:1052200009FE014640F22E430C4A0D480EF062FF83
:1052300016480EF0CFFF08480BF0FCFD014640F287
:105240003143064A06480EF055FF11480EF0C2FFE2
:1052500000BF1C37BD46F0BDCC690108E8840108D9
:10526000586A01085476010878760108B476010876
:10527000083B0020E07601082077010807B2010012
:10528000507701089C770108D87701081C7801083D
:105290005078010880B58CB008AF0346FB719223AB
:1052A000FB72FB79012B06D1694B1B88FB81694B93
:1052B0001B88BB8105E04FF4C863FB814FF47A6320
:1052C000BB81654B93F881301846FDF77DF9FB797A
:1052D000022B2DD1604B93F88030012B04D05E4B14
:1052E00093F88030022B23D10AF080FA0346FB7238
:1052F000FB7A002B0FD059480BF09CFD014640F281
:105300005243574A57480EF0F5FEFB7A1946564865
:105310000EF0F0FE0CE051480BF08CFD014640F21F
:1053200056434F4A4F480EF0E5FE50480EF052FFEC
:10533000494AFB7982F88030474B1B7EBA89F9894C
:105340000020069000200590494804900393494BA3
:1053500002930723019300230093002300200AF007
:1053600069FA0346FB72FB7A002B0FD03B480BF027
:1053700061FD014640F26943394A3A480EF0BAFEEF
:10538000FB7A19463C480EF0B5FE0CE033480BF0B2
:1053900051FD014640F26D43314A32480EF0AAFEFB
:1053A00036480EF017FF36490E200AF0C0FD0346BE
:1053B000FB72FB7A002B22D0FB79012B0FD12748FF
:1053C0000BF038FD014640F27643254A25480EF0A1
:1053D00091FEFB7A19462B480EF08CFE35E01F48F3
:1053E0000BF028FD014640F27A431D4A1D480EF09D
:1053F00081FEFB7A194624480EF07CFE25E0FB79FD
:10540000012B14D115480BF015FD014640F28143E4
:10541000134A14480EF06EFE1C480EF0DBFE0E4BD5
:1054200093F881301A491846FDF752F90DE00B4800
:105430000BF000FD014640F28743094A09480EF08F
:1054400059FE14480EF0C6FE00BF1037BD4680BDA1
:105450008C3B00208E3B0020083B0020CC690108DB
:1054600000850108586A01087C780108CC78010899
:10547000213B002080840108147901084C7901083F
:105480001402002078790108B0790108EC7901084C
:1054900046E00100187A010880B586B000AFFEF73B
:1054A000D1FD38613B69B3F1FF3F23D0FEF7E2FD48
:1054B000B860FEF7D3FD78603B69DAB2164B1A701C
:1054C0003B691B0ADAB2144B5A707B68DAB2124B92
:1054D0009A70BB68DAB2104BDA70BB681B0ADAB29A
:1054E0000D4B1A71BB681B0CDAB20B4B5A710A4B8D
:1054F0007B610BE000200CF007FAF860FB68002BE2
:1055000002D0FB687B6101E0044B7B617B6918463C
:105510001837BD4680BD00BF003B002058840108FD
:1055200080B483B000AF0346FB80124B1B7E19464C
:10553000FB88DAB20F4B0B445A760E4B1B7E0133BD
:10554000DAB20C4B1A76FB881B0A9AB2094B1B7E07
:105550001946D2B2074B0B445A76064B1B7E0133D9
:10556000DAB2044B1A7600BF0C37BD465DF8047BF7
:10557000704700BF083B002080B500AF002101202C
:105580000DF0E4FE00BF80BD80B500AF0220FFF744
:1055900081FE00BF80BD80B582B000AF7860002181
:1055A00004200DF0D3FE00BF0837BD4680BD80B596
:1055B00082B000AF786001200DF034FF00BF0837E3
:1055C000BD4680BD80B582B000AF786001200DF08F
:1055D00049FF00BF0837BD4680BD80B584B000AF2D
:1055E00078607B68FB60FB685B68083318460CF0EA
:1055F000B5FF0346FB72FB7A002B03D0FB68012248
:105600001A7003E0FB6800221A7000BF1037BD4615
:1056100080BD80B584B000AF0346FB71FB79002BE1
:1056200002D0012B06D00BE03F23FB60F8680DF0A1
:10563000B9FE05E03F23FB60F8680DF0D3FE00BF24
:1056400000BF1037BD4680BD80B582B000AF074BAC
:105650003B6004233B713B46194642F629200BF080
:1056600073FC00BF0837BD4680BD00BF487A010803
:1056700080B582B000AF78607B681B78022B1AD0AF
:10568000022B1EDC002B02D0012B07D019E00F4BA0
:1056900000229A800D4B01221A7313E00B4B5B7BA7
:1056A0001846FCF791FF094B5B7B40F60101184659
:1056B000FDF70EF806E0054B5B7B1846FCF784FF10
:1056C00000E000BF00BF0837BD4680BD903B002012
:1056D00080B400AF054BDB68044A43F40043D36059
:1056E00000BFBD465DF8047B704700BF0004005852
:1056F00080B483B000AF7860064BD3F8D42005495E
:105700007B681343C1F8D43000BF0C37BD465DF849
:10571000047B70470008005880B483B000AF786005
:10572000054B1A6A04497B6813430B6200BF0C37B0
:10573000BD465DF8047B70470008005880B485B012
:1057400000AF78604FF0B0431A6D4FF0B0417B6806
:1057500013430B654FF0B0431A6D7B681340FB6039
:10576000FB6800BF1437BD465DF8047B704780B40A
:1057700085B000AF78604FF0B043D3F850214FF0C0
:10578000B0417B681343C1F850314FF0B043D3F8B8
:1057900050217B681340FB60FB6800BF1437BD4697
:1057A0005DF8047B704780B483B000AF78607B689D
:1057B0001B6843F480327B681A6000BF0C37BD461B
:1057C0005DF8047B704780B483B000AF78607B687D
:1057D0001B6843F001027B681A6000BF0C37BD46AE
:1057E0005DF8047B704780B483B000AF78603960A7
:1057F0007B685A683B681B04DB431A407B685A602D
:1058000000BF0C37BD465DF8047B704780B483B0A1
:1058100000AF786039607B685A683B681B041A43A4
:105820007B685A6000BF0C37BD465DF8047B70474B
:1058300080B483B000AF786039607B685A683B6899
:10584000DB431A407B685A6000BF0C37BD465DF8E9
:10585000047B704780B483B000AF786039607B68A8
:105860003A689A6000BF0C37BD465DF8047B70470C
:1058700080B483B000AF786039603B681A047B68FD
:105880009A6000BF0C37BD465DF8047B704780B45A
:1058900083B000AF786039607B68DA683B6813409A
:1058A0003A689A4201D1012300E0002318460C37E0
:1058B000BD465DF8047B704780B483B000AF78606C
:1058C00039607B68DA693B6813403A689A4201D1D3
:1058D000012300E0002318460C37BD465DF8047B29
:1058E0007047000080B500AF02211848FFF7E4FFC1
:1058F0000346002B08D0154B5B6803F00203002B16
:1059000002D100F0D5F81EE001211048FFF7D4FFC6
:105910000346002B08D00D4B5B6803F00103002BFE
:1059200002D100F089F80EE008210848FFF7C4FF13
:105930000346002B08D0054B5B6803F00803002BDF
:1059400002D100F001F900BF00BF80BD000C00587B
:1059500080B500AF02211848FFF799FF0346002BDE
:1059600008D1154B5B6803F40033002B02D100F023
:1059700093F81EE008211048FFF789FF0346002B2B
:1059800008D10D4B5B6803F40023002B02D100F01B
:10599000BDF80EE020210848FFF779FF0346002BF1
:1059A00008D1054B5B6803F40013002B02D100F013
:1059B0004FF800BF00BF80BD000C005880B500AF9D
:1059C0004FF48010FFF7D3FE4FF40070FFF7A4FEF2
:1059D0004FF40070FFF78CFE40BF20BFFFF778FE4A
:1059E00000BF80BD80B500AF4FF48010FFF7A6FE6A
:1059F0000648FFF7E8FE0548FFF7D5FE2C2004F027
:105A0000CCF82D2004F0C9F800BF80BD000C005870
:105A100080B500AF01210248FFF70AFF00BF80BD3B
:105A2000000C005880B500AF01210248FFF720FFAD
:105A300000BF80BD000C005880B500AF0CF072FEB6
:105A400001210248FFF706FF00BF80BD000C00588F
:105A500080B500AF20210348FFF7D8FE0CF092FE7E
:105A600000BF80BD000C005880B500AF0221024885
:105A7000FFF7DEFE00BF80BD000C005880B500AF10
:105A800002210448FFF7F4FE02210248FFF7ABFEB3
:105A900000BF80BD000C005880B500AF0221034854
:105AA000FFF7B4FE0CF0BEFE00BF80BD000C005836
:105AB00080B500AF0CF0CCFE02210248FFF7CAFE11
:105AC00000BF80BD000C005880B582B000AF786088
:105AD00008210C48FFF7DBFE0346002B07D00A4ADB
