:020000040800F2
:1000000000000320610E0008613500086935000812
:1000100071350008793500088135000800000000BE
:10002000000000000000000000000000893500080A
:100030009735000800000000A5350008B33500081A
:10004000B50E0008B50E0008B50E000825360008EC
:10005000B50E0008B50E0008B50E0008B50E000874
:10006000B50E0008B50E0008B50E0008B50E000864
:10007000B50E0008B50E0008B50E0008B50E000854
:10008000B50E0008B50E0008B50E0008B50E000844
:10009000B50E0008B50E0008B50E0008B50E000834
:1000A000B50E0008B50E000831360008B50E000880
:1000B000B50E0008B50E0008B50E0008B50E000814
:1000C000B50E0008B50E0008B50E0008B50E000804
:1000D000C1350008B50E0008B50E0008B50E0008C1
:1000E0000D360008B50E0008B50E0008B50E000864
:1000F000F535000801360008D5350008B50E0008B2
:10010000B50E0008B50E0008B50E0008B50E0008C3
:10011000B50E0008B50E0008B50E0008B50E0008B3
:10012000B50E0008B50E0008E1350008B50E000850
:0C013000B50E0008B50E0008B50E000862
:1001400010B5054C237833B9044B13B10448AFF311
:1001500000800123237010BD500400200000000027
:100160006840010808B5034B1BB103490348AFF3CE
:10017000008008BD00000000540400206840010811
:1001800001F0FF01102A2BDB10F0070F08D010F848
:10019000013B013A8B422DD010F0070F42B3F6D14C
:1001A000F0B441EA012141EA014122F007047FF065
:1001B00000070023F0E80256083C85EA010586EABC
:1001C000010685FA47F5A3FA87F586FA47F6A5FAF8
:1001D00087F68EB9EED1F0BC01F0FF0102F0070204
:1001E00032B110F8013B013A83EA010313B1F8D1AF
:1001F0000020704701387047002D06BF3546033890
:10020000073815F0010F07D1013015F4807F02BFC8
:10021000013015F4C03F0130F0BC0138704700BF19
:10022000034613F8012B002AFBD1181A0138704736
:1002300081F0004102E000BF83F0004330B54FEA97
:1002400041044FEA430594EA050F08BF90EA020F04
:100250001FBF54EA000C55EA020C7FEA645C7FEA97
:10026000655C00F0E2804FEA5454D4EB5555B8BFBA
:100270006D420CDD2C4480EA020281EA030382EA2B
:10028000000083EA010180EA020281EA0303362DBD
:1002900088BF30BD11F0004F4FEA01314FF4801C90
:1002A0004CEA113102D0404261EB410113F0004FA2
:1002B0004FEA03334CEA133302D0524263EB430359
:1002C00094EA050F00F0A780A4F10104D5F1200EF7
:1002D0000DDB02FA0EFC22FA05F2801841F1000152
:1002E00003FA0EF2801843FA05F359410EE0A5F126
:1002F00020050EF1200E012A03FA0EFC28BF4CF057
:10030000020C43FA05F3C01851EBE37101F000450C
:1003100007D54FF0000EDCF1000C7EEB00006EEB19
:100320000101B1F5801F1BD3B1F5001F0CD34908A3
:100330005FEA30004FEA3C0C04F101044FEA4452FA
:1003400012F5800F80F09A80BCF1004F08BF5FEA81
:10035000500C50F1000041EB045141EA050130BD61
:100360005FEA4C0C404141EB0101013C28BFB1F573
:10037000801FE9D291F0000F04BF01460020B1FABE
:1003800081F308BF2033A3F10B03B3F120020CDA91
:100390000C3208DD02F1140CC2F10C0201FA0CF06F
:1003A00021FA02F10CE002F11402D8BFC2F1200CD4
:1003B00001FA02F120FA0CFCDCBF41EA0C0190408A
:1003C000E41AA2BF01EB0451294330BD6FEA0404D3
:1003D0001F3C1CDA0C340EDC04F11404C4F12002BE
:1003E00020FA04F001FA02F340EA030021FA04F3D0
:1003F00045EA030130BDC4F10C04C4F1200220FA27
:1004000002F001FA04F340EA0300294630BD21FA64
:1004100004F0294630BD94F0000F83F4801306BF2A
:1004200081F480110134013D4EE77FEA645C18BF1E
:100430007FEA655C29D094EA050F08BF90EA020FB5
:1004400005D054EA000C04BF1946104630BD91EAAD
:10045000030F1EBF0021002030BD5FEA545C05D1B0
:100460004000494128BF41F0004130BD14F58004EF
:100470003CBF01F5801130BD01F0004545F0FE4163
:1004800041F470014FF0000030BD7FEA645C1ABF98
:10049000194610467FEA655C1CBF0B46024650EACF
:1004A000013406BF52EA033591EA030F41F40021FB
:1004B00030BD00BF90F0000F04BF0021704730B581
:1004C0004FF4806404F132044FF000054FF0000156
:1004D00050E700BF90F0000F04BF0021704730B517
:1004E0004FF4806404F1320410F0004548BF4042EC
:1004F0004FF000013EE700BF42004FEAE2014FEA41
:1005000031014FEA02701FBF12F07F4393F07F4F1B
:1005100081F06051704732F07F4208BF704793F01E
:100520007F4F04BF41F40021704730B54FF4607431
:1005300001F0004521F000411CE700BF50EA010234
:1005400008BF704730B54FF000050AE050EA0102DD
:1005500008BF704730B511F0004502D5404261EB4D
:1005600041014FF4806404F132045FEA915C3FF48E
:10057000D8AE4FF003025FEADC0C18BF03325FEA2B
:10058000DC0C18BF033202EBDC02C2F1200300FADC
:1005900003FC20FA02F001FA03FE40EA0E0021FA01
:1005A00002F11444BDE600BF70B54FF0FF0C4CF4EF
:1005B000E06C1CEA11541DBF1CEA135594EA0C0FA1
:1005C00095EA0C0F00F0DEF82C4481EA030621EADC
:1005D0004C5123EA4C5350EA013518BF52EA033517
:1005E00041F4801143F4801338D0A0FB02CE4FF0C9
:1005F0000005E1FB02E506F00042E0FB03E54FF0F9
:100600000006E1FB03569CF0000F18BF4EF0010EF0
:10061000A4F1FF04B6F5007F64F5407404D25FEAEC
:100620004E0E6D4146EB060642EAC62141EA55519F
:100630004FEAC52040EA5E504FEACE2EB4F1FD0CE1
:1006400088BFBCF5E06F1ED8BEF1004F08BF5FEA5F
:10065000500E50F1000041EB045170BD06F0004611
:1006600046EA010140EA020081EA0301B4EB5C04BE
:10067000C2BFD4EB0C0541EA045170BD41F48011B6
:100680004FF0000E013C00F3AB8014F1360FDEBFDB
:10069000002001F0004170BDC4F10004203C35DAB7
:1006A0000C341BDC04F11404C4F1200500FA05F33A
:1006B00020FA04F001FA05F240EA020001F00042DB
:1006C00021F0004110EBD37021FA04F642EB060151
:1006D0005EEA430E08BF20EAD37070BDC4F10C047B
:1006E000C4F1200500FA04F320FA05F001FA04F23F
:1006F00040EA020001F0004110EBD37041F100012B
:100700005EEA430E08BF20EAD37070BDC4F1200535
:1007100000FA05F24EEA020E20FA04F301FA05F29D
:1007200043EA020321FA04F001F0004121FA04F245
:1007300020EA020000EBD3705EEA430E08BF20EA15
:10074000D37070BD94F0000F0FD101F0004640004F
:1007500041EB010111F4801F08BF013CF7D041EAD1
:10076000060195F0000F18BF704703F000465200D5
:1007700043EB030313F4801F08BF013DF7D043EAA6
:100780000603704794EA0C0F0CEA135518BF95EA5C
:100790000C0F0CD050EA410618BF52EA4306D1D1E3
:1007A00081EA030101F000414FF0000070BD50EA02
:1007B000410606BF1046194652EA430619D094EA8C
:1007C0000C0F02D150EA013613D195EA0C0F05D176
:1007D00052EA03361CBF104619460AD181EA0301CA
:1007E00001F0004141F0FE4141F470014FF0000082
:1007F00070BD41F0FE4141F4780170BD70B54FF01D
:10080000FF0C4CF4E06C1CEA11541DBF1CEA13559C
:1008100094EA0C0F95EA0C0F00F0A7F8A4EB05047E
:1008200081EA030E52EA03354FEA013100F0888075
:100830004FEA03334FF0805545EA131343EA12633E
:100840004FEA022245EA111545EA10654FEA0026F3
:100850000EF000419D4208BF964244F1FD0404F5AC
:10086000407402D25B084FEA3202B61A65EB030508
:100870005B084FEA32024FF480104FF4002CB6EBC5
:10088000020E75EB030E22BFB61A754640EA0C0045
:100890005B084FEA3202B6EB020E75EB030E22BF85
:1008A000B61A754640EA5C005B084FEA3202B6EBC6
:1008B000020E75EB030E22BFB61A754640EA9C0085
:1008C0005B084FEA3202B6EB020E75EB030E22BF55
:1008D000B61A754640EADC0055EA060E18D04FEA13
:1008E000051545EA16754FEA06164FEAC30343EAB3
:1008F00052734FEAC2025FEA1C1CC0D111F4801F80
:100900000BD141EA00014FF000004FF0004CB6E778
:1009100011F4801F04BF01430020B4F1FD0C88BF17
:10092000BCF5E06F3FF6AFAEB5EB030C04BFB6EB22
:10093000020C5FEA500C50F1000041EB045170BD15
:100940000EF0004E4EEA113114EB5C04C2BFD4EB42
:100950000C0541EA045170BD41F480114FF0000EC6
:10096000013C90E645EA060E8DE60CEA135594EA42
:100970000C0F08BF95EA0C0F3FF43BAF94EA0C0F45
:100980000AD150EA01347FF434AF95EA0C0F7FF4BA
:1009900025AF104619462CE795EA0C0F06D152EA0E
:1009A00003353FF4FDAE1046194622E750EA4106F2
:1009B00018BF52EA43067FF4C5AE50EA41047FF403
:1009C0000DAF52EA43057FF4EBAE12E74FF0FF3C68
:1009D00006E000BF4FF0010C02E000BF4FF0010C39
:1009E0004DF804CD4FEA410C7FEA6C5C4FEA430CB2
:1009F00018BF7FEA6C5C1BD001B050EA410C0CBF01
:100A000052EA430C91EA030F02BF90EA020F002062
:100A1000704710F1000F91EA030F58BF994208BFC9
:100A200090422CBFD8176FEAE37040F00100704786
:100A30004FEA410C7FEA6C5C02D150EA013C07D1DD
:100A40004FEA430C7FEA6C5CD6D152EA033CD3D028
:100A50005DF8040B704700BF8446104662468C4622
:100A60001946634600E000BF01B5FFF7B7FF002855
:100A700048BF10F1000F01BD4DF808EDFFF7F4FF7E
:100A80000CBF012000205DF808FB00BF4DF808ED09
:100A9000FFF7EAFF34BF012000205DF808FB00BF2C
:100AA0004DF808EDFFF7E0FF94BF012000205DF84E
:100AB00008FB00BF4DF808EDFFF7CEFF94BF012003
:100AC00000205DF808FB00BF4DF808EDFFF7C4FFFC
:100AD00034BF012000205DF808FB00BF4FEA410C45
:100AE0007FEA6C5C02D150EA013C0AD14FEA430C28
:100AF0007FEA6C5C02D152EA033C02D14FF0000065
:100B000070474FF0010070474FEA410212F50012A2
:100B100015D211D56FF47873B3EB625212D94FEA44
:100B2000C12343F0004343EA505311F0004F23FA2E
:100B300002F018BF404270474FF00000704750EA83
:100B4000013005D111F0004008BF6FF00040704740
:100B50004FF00000704700BF53B94AB9002908BFE1
:100B600000281CBF4FF0FF314FF0FF3000F06AB992
:100B7000ADF1080C6DE904CE00F006F8DDF804E0F4
:100B8000DDE9022304B070472DE9F047089D0C46CB
:100B9000002B4ED194468C458646B2FA82F262D939
:100BA0004AB1C2F12003914020FA03F30CFA02FC8F
:100BB000194300FA02FE4FEA1C471FFA8CF6B1FBFC
:100BC000F7F44FEA1E4307FB141143EA014304FB09
:100BD00006F199420AD91CEB030304F1FF3080F0BF
:100BE0001281994240F20F81023C6344591A1FFA64
:100BF0008EF3B1FBF7F007FB101143EA014300FB52
:100C000006F69E420AD91CEB030300F1FF3180F087
:100C1000FC809E4240F2F980634402389B1B40EA0C
:100C2000044000211DB1D3400022C5E90032BDE8D7
:100C3000F0878B4205D90DB1C5E9000100210846B6
:100C4000F5E7B3FA83F1002946D1A34202D39042DB
:100C5000C0F0F080861A64EB03030120002DE6D07B
:100C6000C5E90063E3E7002A40F09080A1EB0C04A3
:100C70004FEA1C481FFA8CF70121B4FBF8F64FEA43
:100C80001E4308FB164443EA044307FB06F0984260
:100C900008D91CEB030306F1FF3402D2984200F29C
:100CA000CD8026461C1A1FFA8EF3B4FBF8F008FB21
:100CB000104443EA044300FB07F79F4208D91CEBAA
:100CC000030300F1FF3402D29F4200F2B0802046BD
:100CD000DB1B40EA0640A5E7C1F120068B4022FA63
:100CE00006F71F4320FA06FC04FA01F343EA0C035B
:100CF000F44000FA01F8380C4FEA1349B4FBF0FE57
:100D00001FFA87FC00FB1E4449EA04440EFB0CF961
:100D1000A14502FA01F20AD93C190EF1FF3A80F01E
:100D20008480A14540F28180AEF1020E3C44A4EBE8
:100D300009041FFA83F9B4FBF0F300FB134449EAFA
:100D4000044403FB0CFCA44507D93C1903F1FF3014
:100D500067D2A44565D9023B3C4443EA0E40A0FB60
:100D60000293A4EB0C049C42CE469C4651D34ED039
:100D700055B1B8EB0E0364EB0C0404FA06F6CB4055
:100D80001E43CC40C5E90064002150E7C2F12003B6
:100D900020FA03F10CFA02FC24FA03F394400C430A
:100DA0004FEA1C4800FA02FE1FFA8CF7B3FBF8F07A
:100DB00008FB1031230C43EA014300FB07F1994281
:100DC00008D91CEB030300F1FF362CD299422AD933
:100DD000023863445B1AA4B2B3FBF8F108FB113389
:100DE00044EA034401FB07F3A34208D91CEB0404C3
:100DF00001F1FF3613D2A34211D902396444E41A37
:100E000041EA004139E70446F0E6084606E7C845EE
:100E1000AED2B9EB020E63EB070C0138A8E73146FE
:100E2000EDE7034699E73046D4E7D6467FE76344CB
:100E300002384DE70646234608460FE7023E634464
:100E400030E700BF704700BFD458C4500433C41803
:100E50008C42F9D37047036004308842FBD370475B
:100E60000C48854607F020FF0B480C490C4A00232C
:100E7000FFF7EDFF0B480C490023FFF7EEFF0B488F
:100E80000B490023FFF7E9FF11F0C8F901F0AEFCB0
:100E9000FEE700000000032008000020EC03002013
:100EA00030B201085004002020210020E40103207A
:100EB000670A0320FEE7000080B483B000AF7860CB
:100EC000064BD3F8902005497B681343C1F8903056
:100ED00000BF0C37BD465DF8047B70470008005822
:100EE00080B485B000AF78604FF0B043DA6C4FF05B
:100EF000B0417B681343CB644FF0B043DA6C7B683E
:100F00001340FB60FB6800BF1437BD465DF8047BEF
:100F1000704780B485B000AF78604FF0B043D3F82D
:100F20004C214FF0B0417B681343C1F84C314FF076
:100F3000B043D3F84C217B681340FB60FB6800BFD3
:100F40001437BD465DF8047B704780B500AF07F0ED
:100F500071FF07F075FF4FF48030FFF7ADFF0EF023
:100F600051F900F021F800F0C1F800BF80BD000089
:100F7000B0B588B000AF0B4B3C1D1D460FCD0FC464
:100F800095E8070003C422800234130C23700FF08D
:100F900083FB3B1D18460EF0AAFD00BF2037BD465F
:100FA000B0BD00BF8040010880B588B000AF3B1DD8
:100FB00000221A605A609A60DA601A610023BB83CB
:100FC00000237B8300233B830023FB7736E0FB7FFA
:100FD000434ADB0013449B79002B2CD0FB7F404A13
:100FE00052F833303F4A93421BD03E4A934221D8B5
:100FF000B3F1904F03D03C4A934209D01AE0FB7FF3
:10100000374ADB0013449A88BB8B1343BB8312E03F
:10101000FB7F334ADB0013449A887B8B13437B832B
:1010200009E0FB7F2E4ADB0013449A883B8B134375
:101030003B8300E000BFFB7F0133FB77FB7F252B69
:10104000C5D90023FB600123BB6003233B61BB8B3D
:10105000002B14D0BB8B7B600120FFF741FF0120E8
:10106000FFF757FF3B1D19464FF0904008F030FB4B
:10107000BB8B002219464FF0904008F08FFD7B8B10
:10108000002B12D07B8B7B600220FFF729FF022010
:10109000FFF73FFF3B1D1946134808F019FB7B8BF8
:1010A00000221946104808F079FD3B8B002B13D025
:1010B0003B8B7B600420FFF713FF0420FFF729FF21
:1010C0003B1D1946074808F003FB3B8B00221946DD
:1010D000044808F063FD00BF00BF2037BD4680BD57
:1010E000C05D0108000800480004004880B400AF5B
:1010F00000BFBD465DF8047B704780B500AF01F0CE
:1011000029FB00BF80BD000080B483B000AF7860D1
:10111000074BD3F8803023F0070205497B6813435F
:10112000C1F8803000BF0C37BD465DF8047B7047C6
:101130000004005880B483B000AF7860064BD3F849
:10114000902005497B681343C1F8903000BF0C37ED
:10115000BD465DF8047B70470008005880B483B03A
:1011600000AF78604FF0B0430A4AC3F89C204FF0BC
:10117000B043D3F89C3023F47C527B681B024FF0C1
:10118000B0411343C1F89C3000BF0C37BD465DF839
:10119000047B7047FECAFECA80B483B000AF78609B
:1011A0004FF0B0439B6823F400424FF0B0417B689E
:1011B00013438B6000BF0C37BD465DF8047B70475E
:1011C00080B400AF044B1B68C3F30B031846BD4645
:1011D0005DF8047B704700BF002004E080B400AFDE
:1011E000044B1B681B0C9BB21846BD465DF8047B84
:1011F000704700BF002004E080B400AF054B1B69BE
:10120000044A23F00403136100BFBD465DF8047B6C
:10121000704700BF00ED00E080B483B000AF78609D
:101220007B68FF225A6200BF0C37BD465DF8047B25
:10123000704780B483B000AF78607B68CA225A627E
:101240007B6853225A6200BF0C37BD465DF8047BB1
:10125000704780B483B000AF786039607B689B686A
:1012600023F007023B681A437B689A6000BF0C3783
:10127000BD465DF8047B704780B500AF044B4FF46A
:1012800000421A6100F060F800F065F800BF80BD10
:101290000040005880B500AF00F071F800F08AF807
:1012A0001E49002000F054FFFFF74FFE01210120EE
:1012B0000FF0ACFD0021002007F0D0F818480FF027
:1012C00077FA00200FF0CAFA0021002007F0EAFAAE
:1012D000002007F093F9002007F0BCF911480FF047
:1012E00005FBFF200FF0DAFA00200FF0EBFA0021E7
:1012F000002007F0D7FA002007F0ACF901230A4AD2
:10130000002100200FF068FB002007F0A3F900F097
:1013100085FA00F05DF800BF80BD00BF4C050020DD
:1013200020A90108140200209C40010880B400AFED
:1013300000BFBD465DF8047B704780B500AF50200C
:10134000FFF7F8FE00BF80BD80B400AF00BFBD4610
:101350005DF8047B704780B582B000AF00200EF0CE
:1013600087FB78607B68002B05D07B689B791846EB
:10137000FFF7F4FE00BF00BF0837BD4680BD80B553
:1013800000AFFFF7D3FFFFF7D8FF00F003F800BF6F
:1013900080BD000080B500AF0548FFF74AFF00217F
:1013A0000348FFF756FF0248FFF736FF00BF80BD36
:1013B0000028004080B500AF4FF40040FFF7ECFE7E
:1013C0000FF012FD0420FFF79FFE00BF80BD00005C
:1013D00080B588B000AF0EF0A9FF114A002110209F
:1013E0000FF040FE0F4B3B600F4B7B603B461946B6
:1013F0000E480EF057FC0E4BBB600E4BFB600E4BC5
:101400003B6140F23C537B6107F1080318460FF043
:10141000CFF80EF085FF00BF2037BD4680BD00BF6E
:10142000DDFC0008340703203D14000855140008B3
:101430004C09032040080320F801032080B483B046
:1014400000AF0346FB7100BF0C37BD465DF8047B5F
:101450007047000080B588B000AF78607B685B683B
:101460000B33FB61FB691B889BB2A3F51243072B6F
:1014700000F2D08001A252F823F000BF9D140008B2
:101480002F150008511500081516000895150008BD
:10149000B9150008D5150008F915000807F10C0367
:1014A00018460EF051FB5E480DF083FE01464FF4E6
:1014B000C8735C4A5C4810F0CBFC3B7B19467B7BD5
:1014C0001A46BB7B594810F0C3FC55480DF071FE1D
:1014D000014640F29113534A534810F0B9FC3B7C4B
:1014E0001946534810F0B4FC4D480DF062FE014619
:1014F0004FF4C9734B4A4C4810F0AAFCBB7D194607
:10150000FB7D1A463B7E4B4810F0A2FC44480DF090
:1015100050FE01464FF4CA73424A434810F098FC0B
:10152000454810F0FDFC786800F0E0F873E03C48B6
:101530000DF03FFE014640F299133A4A3A4810F046
:1015400087FC3E4810F0ECFC786800F085F862E01B
:1015500033480DF02EFE01464FF4CF73314A324826
:1015600010F076FC364810F0DBFC2D480DF021FE23
:10157000014640F29F132B4A2B4810F069FCFB698F
:1015800002331968FB6902335B681A462D4810F074
:101590005FFC40E022480DF00CFE014640F2A5132E
:1015A000204A214810F054FCFB6902331B6819469D
:1015B000254810F04DFC2EE019480DF0FAFD0146CB
:1015C0004FF4D573174A184810F042FC1F4810F02A
:1015D000A7FC20E012480DF0ECFD01464FF4D77354
:1015E000104A114810F034FCFB6902331B6819469D
:1015F000174810F02DFC0EE009480DF0DAFD014609
:1016000040F2B313074A084810F022FC114810F0CA
:1016100087FC00E000BF00BF2037BD4680BD00BF93
:10162000B0400108F05E010838410108504101084E
:101630007841010898410108B0410108D0410108F2
:10164000F44101084442010870420108AC4201081B
:10165000D04201080C43010880B584B000AF786027
:101660007B685B680B33FB60FB680233BB60194827
:101670000DF09FFD014640F2CB13174A174810F0BA
:10168000E7FBBB681B781946154810F0E1FBBB6807
:101690001B78002B0DD10F480DF08BFD01464FF448
:1016A000E8730D4A0D4810F0D3FB0E4810F038FCDB
:1016B0000DE008480DF07DFD01464FF4EA73064A3F
:1016C000064810F0C5FB084810F02AFC00BF103790
:1016D000BD4680BDB0400108045F010838410108E3
:1016E0003043010864430108A043010880B58AB073
:1016F00000AF786007F1080300221A605A609A6010
:10170000DA6000237B6200233B627B685B680B33FB
:10171000FB61FB690233BB61BB691B78002B46D1BF
:1017200036480DF046FD01464FF4F573344A35480E
:1017300010F08EFB344810F0F3FBFFF719FC0F2379
:101740003B727F23BB72FFF749FD78622B480DF097
:1017500030FD014640F20223294A2A4810F078FB66
:10176000796A2A4810F074FB7B6A9BB2BB82FFF750
:1017700027FD386221480DF01CFD014640F2072389
:101780001F4A204810F064FB396A214810F060FBC2
:101790003B6A9BB2FB8207F1080318460EF0BEF9C4
:1017A00002F01AF8002101200FF030FB22E0BB69A3
:1017B0001B78012B10D111480DF0FBFC01464FF4B2
:1017C00005730F4A0F4810F043FB124810F0A8FBB6
:1017D0007B6800221A700DE008480DF0EAFC014613
:1017E00040F21B23064A074810F032FB0A4810F06B
:1017F00097FB00BF2837BD4680BD00BFB040010841
:10180000185F010838410108DC430108F84301086A
:101810001C440108404401087444010880B500AF2D
:101820000121002006F066FC0121012006F062FC87
:1018300000BF80BD80B584B000AF786007F0D6FAF5
:10184000B8607B68FB60FB68B3F1FF3F0AD007F02C
:10185000E5FA03461A46FB681344FB6002E0FFF713
:10186000CBFC30BF07F0C2FA0246BB68D31AFA6855
:101870009A42F4D800BF00BF1037BD4680BD80B586
:1018800000AF4FF0FF300FF0F1FA00BF80BD80B421
:1018900000AF00BFBD465DF8047B704780B582B0E5
:1018A00000AF786039604FF0FF300FF0DFFA00BF13
:1018B0000837BD4680BD80B582B000AF786000219A
:1018C00010200FF0F1FB00BF0837BD4680BD80B58A
:1018D00082B000AF786002200FF052FC00BF0837E2
:1018E000BD4680BD80B582B000AF786002200FF0A9
:1018F00067FC00BF0837BD4680BD80B582B000AF31
:101900000346FB80FB88B3F5805F03D0B3F5005F2F
:1019100003D005E002F026FD02E002F05BFD00BF0F
:1019200000BF0837BD4680BD80B483B000AF78608B
:10193000064BD3F8802005497B681343C1F88030FB
:1019400000BF0C37BD465DF8047B704700080058A7
:1019500080B483B000AF7860054B1A6804497B6897
:1019600013430B6000BF0C37BD465DF8047B704726
:101970000008005880B483B000AF0D4B9B6A9BB247
:101980007B600B4B9B6A9BB23B6005E03B687B60D6
:10199000074B9B6A9BB23B607A683B689A42F5D1E1
:1019A0003B6818460C37BD465DF8047B704700BFA6
:1019B0000028004080B485B000AF03460A46FB71A2
:1019C0001346BB71BA791D4913465B001344DB0013
:1019D0000B4415331B78FB73FB7B062B09D0FA7B7A
:1019E000164913465B001344DB000B441433FA79A9
:1019F0001A70FA79114913465B001344DB000B445B
:101A00001533FA7B1A70FA790C4913465B001344BC
:101A1000DB000B441433BA791A70BA7907491346BC
:101A20005B001344DB000B441533FA791A7000BFD6
:101A30001437BD465DF8047B704700BF6C0400207E
:101A400080B485B000AF03460A46FB711346BB71F4
:101A5000294B1B78DBB2BA799A4232D0BA7927493E
:101A600013465B001344DB000B4414331B78FB73F9
:101A7000FA7B224913465B001344DB000B44153309
:101A8000FA791A70FA791D4913465B001344DB009A
:101A90000B441533BA791A70FA79184913465B006A
:101AA0001344DB000B441433FA7B1A70BA791349E0
:101AB00013465B001344DB000B441433FA791A70AD
:101AC00014E0FA790D4913465B001344DB000B4424
:101AD0001533BA791A70BA79084913465B00134472
:101AE000DB000B441433FA791A7000BF1437BD467B
:101AF0005DF8047B704700BFFC0400206C040020EC
:101B000080B584B000AF0346FB714E4B1B78DBB24F
:101B1000062B18D14B4B1B78DAB24B4B1A70494A43
:101B2000FB791370FA79494913465B001344DB00D3
:101B30000B44153306221A70454B4FF0FF321A60E2
:101B40000023FB8178E000F009F90346FB81FA7974
:101B50003E4913465B001344DB000B44083319680D
:101B6000FB89FA791944394813465B001344DB00BA
:101B7000034408331960FA79344913465B0013446F
:101B8000DB000B4408331B68BB602E4B1B78DBB2B9
:101B900019462E4A0B465B000B44DB001344083306
:101BA0001B68BA689A4237D3264B1B787B737A7BC3
:101BB000264913465B001344DB000B4415331B78A6
:101BC0003B7313E07A7B214913465B001344DB002F
:101BD0000B4415331B787B737A7B1C4913465B00DF
:101BE0001344DB000B4415331B783B733B7B062B04
:101BF0000BD03A7B154913465B001344DB000B44C2
:101C000008331B68BA689A42DCD27A7BFB791146AA
:101C10001846FFF7CFFE0FE00A4B1B78DAB2FB79CC
:101C200011461846FFF70CFF064B1B78DAB2064B3D
:101C30001A70044AFB791370FB8918461037BD46A9
:101C400080BD00BFFC040020FD0400206C040020C7
:101C50000005002080B485B000AF03460A46FB7142
:101C60001346BB71394B1B78DBB2FA799A4211D11A
:101C7000364B1B78DAB2364B1A70FA79354913466F
:101C80005B001344DB000B4415331B78DAB22F4B97
:101C90001A703EE0FA792F4913465B001344DB00CB
:101CA0000B4414331B78FB73FA792A4913465B0003
:101CB0001344DB000B4415331B78BB73F979FA7BB3
:101CC00024480B465B000B44DB00034415331B78B0
:101CD000D8B2204913465B001344DB000B44153394
:101CE00002461A70BB7B062B13D0F979BA7B1948D0
:101CF0000B465B000B44DB00034414331B78D8B263
:101D0000144913465B001344DB000B4414330246B2
:101D10001A70FA790F4913465B001344DB000B4439
:101D20000C3301221A70094B1B78DBB2062B07D14A
:101D3000BB79002B04D1084B4FF0FF321A6000BF73
:101D400000BF1437BD465DF8047B7047FC040020DB
:101D5000FD0400206C0400200005002080B582B046
:101D600000AF1A4B1B68B3F1FF3F26D0FFF702FE0E
:101D70007860164B1B687A689A4205D8134B1A682C
:101D80007B68D31A7B600AE0114B1B881A467B687C
:101D9000D31A3B600D4B1B683A6813447B600D4BB4
:101DA0001B781A467B6802FB03F37B600A4B1B78A7
:101DB0001A467B68D3407B6001E000237B607B6830
:101DC0009BB218460837BD4680BD00BF0005002005
:101DD00008050020060500200505002080B582B01A
:101DE00000AF0346FB80FB88002B08D1FFF7C2FD44
:101DF0000346214A1360032007F0A5F939E0FB8868
:101E0000012B03D81D4B1B78012B02D0FB88013B13
:101E1000FB8000BF1A4B1B68DB6803F00403002B38
:101E2000F8D0174B1B68DB68DAB2154B1B6862F4FD
:101E30009062DA60134B4FF40022DA60032007F05F
:101E400090F9114B5B691B0C1B04FA880E49134374
:101E50004B61FFF78FFD0346074A1360084B1B6871
:101E60009A68074B1B6842F480629A60AFF3008067
:101E700000BF0837BD4680BD0005002005050020D5
:101E80004C050020000800580028004080B584B0B0
:101E900000AF454B9B6803F48063B3F5806F07D1B7
:101EA00000BF424B1B68DB6803F00403002BF8D132
:101EB0003E4B1B689A683D4B1B6822F480629A6017
:101EC0003B4B1B78FB73FA7B3A4913465B00134488
:101ED000DB000B4408331B68BB60FFF73FFF034682
:101EE000FB80FB88BA689A4205D20023BB81324B43
:101EF00001221A704DE0FB88304A128892B21344D6
:101F00001A46BB68934206D92C4B1B88BB812A4BCF
:101F100000221A703DE0BB689AB2FB88D31ABB81DD
:101F2000254B01221A7034E0FA7B224913465B00EC
:101F30001344DB000B4408331A68FB889A420AD228
:101F4000FA7B1C4913465B001344DB000B44083347
:101F500000221A6013E0FA7B164913465B00134413
:101F6000DB000B4408331968FB88FA7BC91A114857
:101F700013465B001344DB00034408331960FA7B0B
:101F80000C4913465B001344DB000B4415331B78EC
:101F9000FB73FB7B062BC7D1BB891846FFF71EFFDF
:101FA00000BF1037BD4680BD002800404C05002012
:101FB000FC0400206C040020040500200A05002019
:101FC00080B58AB000AFEFF310837B617B697B62E1
:101FD00072B600BF594B1B68CA225A62574B1B6826
:101FE00053225A62554B1B689A68544B1B6822F463
:101FF00080629A60524B1B7887F8233097F8232031
:10200000504913465B001344DB000B440C331B7830
:10201000DBB2022B6ED197F823204A4913465B00AE
:102020001344DB000B441B68FB6197F823204549F0
:1020300013465B001344DB000B4410331B68BB6189
:10204000414B1B78DBB2002B4CD097F823203D4945
:1020500013465B001344DB000B440D331B78DBB2EB
:10206000012B24D197F8233001211846FFF7F2FD08
:102070007B6A3B613B6983F3108800BF97F823209C
:10208000304913465B001344DB000B4404331A68E9
:1020900097F823301146184600F032FA274B1B6898
:1020A000CA225A62254B1B6853225A6212E07B6A8D
:1020B000FB60FB6883F3108800BF97F82330184655
:1020C00000F09AF91D4B1B68CA225A621B4B1B6811
:1020D00053225A6297F82330FA691946B86900F01A
:1020E00095FA22E0FFF7D2FE7B6ABB60BB6883F300
:1020F00010881AE000BF114B1B68DB6803F0040373
:10210000002BF8D00D4B1B68DB68DAB20B4B1B6859
:1021100062F49062DA600D4B4FF40022DA607B6A61
:102120007B607B6883F3108800BF044B1B68FF2231
:102130005A6200BF2837BD4680BD00BF4C05002055
:10214000FC0400206C040020040500200008005856
:1021500080B588B000AF03463960FB715E4B1B68E9
:10216000CA225A625C4B1B6853225A625B4B9B68C3
:102170005A4A43F020039360584B9B68DBB203F04C
:102180000703DBB2C3F10403DAB2554B1A70534BA9
:102190001B6903F4FE034FF4FE023A613A6992FAB6
:1021A000A2F2FA60FA687A617A69002A01D12022E3
:1021B00003E07A69B2FA82F2D2B2D340DBB20133E1
:1021C000DAB2484B1A70454B1B699BB2C3F30E033E
:1021D0009BB201339AB2444B1A80434B1B88013B9C
:1021E000404A127802FB03F3A3F5A0733C4A12782D
:1021F000D340BB61BB694FF6FE72934204D93B4B9F
:102200004FF6FF721A8003E0BB699AB2374B1A800F
:102210004FF40020FFF79CFB4FF40020FFF784FBF6
:10222000FB79002B3DD1324B01221A70314B4FF01C
:10223000FF321A600023FB770CE0FA7F2E49134629
:102240005B001344DB000B440C3300221A70FB7F4D
:102250000133FB77FB7F052BEFD9284B06221A7041
:102260001D4B1B689A681C4B1B6822F480629A60A5
:10227000194B1B68DB68DAB2174B1B6862F490627B
:10228000DA601F4B4FF40022DA60032006F069FF8A
:10229000114B1B689A68104B1B6842F480429A608D
:1022A00009E00D4B1B68DB6803F48063002B02D050
:1022B000032006F048FF084B1B68FF225A620022E9
:1022C0000321032006F0FDFE032006F014FF00BFEB
:1022D0002037BD4680BD00BF4C05002000280040CF
:1022E0000505002006050020080500200A0500203D
:1022F00004050020000500206C040020FC040020E0
:102300000008005880B48BB000AFF860B9603B6043
:102310001346FB71002387F82630EFF31083FB612F
:10232000FB693B6272B600BF04E097F826300133C8
:1023300087F8263097F82630052B0CD897F82620FA
:102340002C4913465B001344DB000B440C331B7811
:10235000DBB2002BE9D197F82630062B38D097F85E
:102360002620244913465B001344DB000B440C3346
:1023700001221A703B6ABB61BB6983F3108800BFFE
:1023800097F826201B4913465B001344DB000B44DF
:102390001033FA681A6097F82620164913465B0036
:1023A0001344DB000B440D33FA791A7097F826209A
:1023B000104913465B001344DB000B443A681A6073
:1023C000BB6897F826201A70002387F8273008E0AA
:1023D0003B6A7B617B6983F3108800BF012387F828
:1023E000273097F8273018462C37BD465DF8047B18
:1023F000704700BF6C04002080B586B000AF034674
:10240000FB71EFF31083FB60FB687B6172B600BF6A
:10241000032006F07EFE344B1B68CA225A62324B00
:102420001B6853225A62FA79304913465B00134401
:10243000DB000B440C331B78DBB2022B42D1FB795F
:1024400000211846FFF706FC294B1B78FB74FB7C28
:10245000062B2FD1274B9B6803F48063B3F5806F65
:1024600007D100BF204B1B68DB6803F00403002B7F
:10247000F8D11D4B1B689A681B4B1B6822F48062C5
:102480009A6000BF184B1B68DB6803F00403002B45
:10249000F8D0154B1B68DB68DAB2134B1B6862F48B
:1024A0009062DA60144B4FF40022DA60032006F0E9
:1024B00058FE07E0114B1B78DBB2FA7C9A4201D040
:1024C000FFF7E4FC084B1B68FF225A62032006F06A
:1024D00012FE7B69BB60BB6883F3108800BF00BF3E
:1024E0001837BD4680BD00BF4C0500206C0400209D
:1024F000FC0400200028004000080058FD040020D3
:1025000080B586B000AF03463960FB71FA793B496C
:1025100013465B001344DB000B440C331B78DBB227
:10252000022B03D1FB791846FFF766FFEFF3108308
:10253000FB60FB687B6172B600BF032006F0E9FD1B
:102540002F4B1B68CA225A622D4B1B6853225A62BA
:10255000FA792A4913465B001344DB000B440C3321
:1025600002221A70FA79254913465B001344DB00F6
:102570000B4408333A681A60FA79204913465B0025
:102580001344DB000B4404333A681A60FB791846A5
:10259000FFF7B6FA03467B821A4B1B787B741A4B03
:1025A0001B78DBB27A7C9A4202D0FFF76FFC13E013
:1025B000FA79124913465B001344DB000B440833DD
:1025C00019687B8AFA79C91A0C4813465B001344D0
:1025D000DB00034408331960094B1B68FF225A6271
:1025E000032006F088FD7B69BB60BB6883F310881D
:1025F00000BF00BF1837BD4680BD00BF6C0400207F
:102600004C050020FC040020FD04002080B584B0AF
:1026100000AFF8600B467A60FB727B68984700BF9A
:102620001037BD4680BD000080B582B000AF786035
:102630007B681B681A46094B9A4207D1084B1B68F6
:10264000002B05D0064B1B68984701E000BF00E057
:1026500000BF00BF0837BD4680BD00BF00800040FE
:102660000C05002080B483B000AF78604FF0B04319
:10267000D3F8903023F018024FF0B0417B68134339
:10268000C1F8903000BF0C37BD465DF8047B704741
:1026900080B485B000AF78604FF0B0439A6C4FF0D3
:1026A000B0417B6813438B644FF0B0439A6C7B68F6
:1026B0001340FB60FB6800BF1437BD465DF8047B28
:1026C000704780B485B000AF78604FF0B043DA6CEB
:1026D0004FF0B0417B681343CB644FF0B043DA6CEA
:1026E0007B681340FB60FB6800BF1437BD465DF894
:1026F000047B704780B483B000AF78607B68FF22B2
:102700005A6200BF0C37BD465DF8047B704780B449
:1027100083B000AF78607B68CA225A627B6853221C
:102720005A6200BF0C37BD465DF8047B704780B429
:1027300083B000AF786039607B689B6823F0070244
:102740003B681A437B689A6000BF0C37BD465DF852
:10275000047B704780B500AF224B234A1A60214B9F
:102760004FF4E1325A601F4B00229A601D4B002249
:10277000DA601C4B00221A611A4B0C225A61194B69
:1027800000229A61174B00221A62164B00225A62ED
:10279000144B00229A62134B00225A6611480AF029
:1027A0005DF80346002B01D000F04BFC00210D48E2
:1027B0000BF065F90346002B01D000F042FC00212C
:1027C00008480BF09AF90346002B01D000F039FCC1
:1027D00004480BF01BF90346002B01D000F031FC3C
:1027E00000BF80BD640600200080004080B500AFBF
:1027F00006F08EFAFEF740FD00F01CF800F076F8C7
:1028000000F094F800F016FC00F0F2F800F0DEF8AA
:1028100000F0A8F8FFF79EFF00F09CF800F0A6FB80
:1028200000F0E2FBFEF736FD03F004F8FFF727F8AF
:10283000FCE7000080B59AB000AF07F12003482202
:10284000002118460FF06CFC3B1D00221A605A60F4
:102850009A60DA601A615A619A6107F079FA102079
:10286000FFF700FF204B1B6823F4C0631E4A43F4AC
:10287000007313601C4B1B6803F4C0633B603B6830
:1028800007233B624FF480337B620123BB624FF42A
:102890008073FB6240233B630023FB6407F120034A
:1028A000184607F0A3FE0346002B01D000F0C9FB39
:1028B0006F237B600223BB600023FB6000233B612E
:1028C00000237B610023BB610023FB613B1D0121D1
:1028D000184608F0FFF90346002B01D000F0B1FBC9
:1028E00000BF6837BD4680BD0004005880B594B075
:1028F00000AF3B465022002118460FF011FC4FF468
:1029000040533B604FF480437B640223BB6400234D
:10291000FB643B46184608F01AFE0346002B01D024
:1029200000F08FFB00BF5037BD4680BD80B500AFC3
:10293000064B074A1A60054807F084F90346002B46
:1029400001D000F07EFB00BF80BD00BF100500205D
:10295000000C005880B400AF00BFBD465DF8047B9A
:102960007047000080B500AF164B174A1A60154B30
:1029700000225A60134B0F229A60124B47F6FF72E7
:10298000DA60104B00221A610E4B00229A610D4B47
:102990000022DA610B4B00225A610A4809F05EF806
:1029A0000346002B01D000F04CFB0748FFF7AFFEB9
:1029B00000210548FFF7BBFE0348FFF79BFE00BF61
:1029C00080BD00BF4C0500200028004080B500AF4E
:1029D0000420FFF75DFE0220FFF75AFE00220F21C0
:1029E0003A2006F06EFB3A2006F085FB00BF80BD62
:1029F00080B586B000AF3B1D00221A605A609A6015
:102A0000DA601A610120FFF75CFE0420FFF759FE2F
:102A10000220FFF756FE0820FFF753FE1020FFF7B5
:102A200050FE8020FFF74DFE00220321BF4807F033
:102A3000B5F800224FF44071BD4807F0AFF800220E
:102A40004FF48071BB4807F0A9F800220421BA486E
:102A500007F0A4F800220121B64807F09FF80022F1
:102A60004021B34807F09AF801224021B34807F00B
:102A700095F8012220214FF0904007F08FF83A237B
:102A80007B600323BB600023FB603B1D1946A84805
:102A900006F01EFE40F604437B600023BB6000236B
:102AA000FB603B1D1946A24806F012FE4FF400736E
:102AB0007B600223BB600023FB6000233B610A2391
:102AC0007B613B1D19469D4806F002FE01237B6099
:102AD0000223BB600023FB6000233B6108237B6172
:102AE0003B1D1946924806F0F3FD4FF480737B605E
:102AF0001223BB600023FB6000233B6104237B6146
:102B00003B1D19468D4806F0E3FD4FF481537B6071
:102B10000223BB600023FB6000233B6108237B6131
:102B20003B1D1946854806F0D3FD4FF400437B60FA
:102B30000223BB600023FB6000233B6101237B6118
:102B40003B1D19464FF0904006F0C2FD4FF48063E4
:102B50007B601223BB600023FB6000233B610423E6
:102B60007B613B1D19464FF0904006F0B1FD4FF4DC
:102B7000C0537B600223BB600023FB6000233B61EA
:102B80000A237B613B1D19464FF0904006F0A0FDE3
:102B900012237B600023BB600023FB603B1D1946B2
:102BA000654806F095FD4FF480637B600223BB60AF
:102BB0000023FB6000233B6101237B613B1D194621
:102BC0005E4806F085FD04237B600023BB60002384
:102BD000FB603B1D1946594806F07AFD4FF44073DF
:102BE0007B600223BB600023FB6000233B61032367
:102BF0007B613B1D19464FF0904006F069FD402374
:102C00007B600223BB600023FB6000233B61082341
:102C10007B613B1D19464FF0904006F059FD08239B
:102C20007B600223BB600023FB6000233B610A231F
:102C30007B613B1D19464FF0904006F049FD032390
:102C40007B600123BB600023FB6000233B613B1DD5
:102C50001946364806F03CFD4FF440437B600223A2
:102C6000BB600023FB6000233B6101237B613B1DB4
:102C70001946304806F02CFD43F210037B60002318
:102C8000BB600023FB603B1D19462A4806F020FD6F
:102C90004FF401737B604FF48813BB600023FB602B
:102CA0003B1D1946234806F013FD4FF440737B602B
:102CB0000123BB600023FB6000233B613B1D1946E1
:102CC0001B4806F005FD68237B600223BB600023E0
:102CD000FB6000233B610A237B613B1D19461548BD
:102CE00006F0F6FC08237B604FF48813BB600023DA
:102CF000FB603B1D1946104806F0EAFC4FF4807358
:102D00007B600123BB600023FB6000233B613B1D14
:102D10001946084806F0DCFC4FF440637B60022350
:102D2000BB600023FB6000230AE000BF001C0048DA
:102D300000080048000C004800100048000400484B
:102D40003B6109237B613B1D1946624806F0C0FCCC
:102D500004237B600123BB600023FB6000233B61F5
:102D60003B1D19465C4806F0B3FC01237B6002233F
:102D7000BB600023FB6000233B610E237B613B1D96
:102D80001946554806F0A4FC01237B600123BB6073
:102D90000023FB6000233B613B1D19464D4806F0B4
:102DA00097FC02237B600023BB600223FB603B1D7A
:102DB0001946484806F08CFC40237B600123BB6029
:102DC0000023FB6000233B613B1D1946434806F08E
:102DD0007FFC40237B600123BB600123FB60012358
:102DE0003B613B1D19463E4806F072FC20237B6088
:102DF0000123BB600123FB6002233B613B1D19469D
:102E00004FF0904006F064FC00224FF400414FF078
:102E1000904006F0C3FE012210214FF0904006F0D2
:102E2000BDFE002202212C4806F0B8FE06237B607E
:102E30004FF48813BB600023FB603B1D19464FF025
:102E4000904006F045FC18237B604FF48813BB606C
:102E50000023FB603B1D1946204806F039FC4FF467
:102E600080637B600123BB600023FB6000233B6128
:102E70003B1D1946194806F02BFC48F210037B60F5
:102E80000123BB600023FB6000233B613B1D19460F
:102E90004FF0904006F01CFC4FF480437B60002311
:102EA000BB600023FB603B1D19460A4806F010FC7E
:102EB00002237B600123BB600023FB6000233B6196
:102EC0003B1D1946044806F003FC00BF1837BD46F9
:102ED00080BD00BF000C00480010004800080048FA
:102EE0000004004880B582B000AF786039601D4BA7
:102EF0001D4A1A601B4B4FF482725A60194B002214
:102F00009A60184B4FF4E062DA60164B00221A61A7
:102F1000144B00225A61134B4FF400729A61114B0B
:102F20000022DA610F4B00221A620E4B00225A6215
:102F30000C4B00229A620B4B0722DA62094B0022EB
:102F40001A63084B08225A63064808F0BDFE034680
:102F5000002B01D000F075F800BF18460837BD46B9
:102F600080BD00BF580700200030014080B500AF91
:102F70001B4B1C4A1A601A4B4FF482725A60184B52
:102F800000229A60164B4FF4E062DA60144B002284
:102F90001A61134B00225A61114B4FF400729A616F
:102FA0000F4B2022DA610E4B00221A620C4B0022DA
:102FB0005A620B4B00229A62094B0722DA62084BD5
:102FC00000221A63064B08225A63054808F07CFE6B
:102FD0000346002B01D000F034F800BF80BD00BFD5
:102FE000BC0700200038004080B500AF0F4B104AEE
:102FF0001A600E4B02225A600C4B01229A600B4B56
:103000000022DA60094B17221A61084B00225A612C
:10301000064B00229A61054806F0B8FE0346002BD5
:1030200001D000F00EF800BF80BD00BF20080020D6
:10303000001000A080B400AF00BFBD465DF8047B67
:10304000704780B400AF72B600BF00BFFDE780B428
:1030500083B000AF78604FF0B043D3F8903023F4E2
:1030600040724FF0B0417B681343C1F8903000BF0D
:103070000C37BD465DF8047B704780B400AF4FF05D
:10308000B043D3F890304FF0B04243F40043C2F85D
:10309000903000BFBD465DF8047B704780B485B0BA
:1030A00000AF78604FF0B043DA6C4FF0B0417B680E
:1030B0001343CB644FF0B043DA6C7B681340FB6082
:1030C000FB6800BF1437BD465DF8047B704780B4D1
:1030D00085B000AF78604FF0B0431A6D4FF0B0414B
:1030E0007B6813430B654FF0B0431A6D7B68134048
:1030F000FB60FB6800BF1437BD465DF8047B70477A
:1031000080B485B000AF78604FF0B0439A6D4FF057
:10311000B0417B6813438B654FF0B0439A6D7B6879
:103120001340FB60FB6800BF1437BD465DF8047BAD
:10313000704780B485B000AF78604FF0B043DA6D6F
:103140004FF0B0417B681343CB654FF0B043DA6D6D
:103150007B681340FB60FB6800BF1437BD465DF819
:10316000047B704780B485B000AF78604FF0B04307
:103170001A6E4FF0B0417B6813430B664FF0B043BB
:103180001A6E7B681340FB60FB6800BF1437BD46B6
:103190005DF8047B704780B500AF4FF40020FFF767
:1031A00096FF002200212E2005F08BFF2E2005F037
:1031B000A2FF00BF80BD000080B582B000AF786084
:1031C0007B681B68054A934203D14FF48010FFF7D8
:1031D0007EFF00BF0837BD4680BD00BF000C005811
:1031E00080B596B000AF786007F108035022002147
:1031F00018460EF095FF7B681B68144A934220D155
:1032000006F0A6FD06F0A4FD4FF48070FFF71FFF47
:103210004FF40063BB604FF48073BB6407F1080395
:10322000184608F094F90346002B01D0FFF709FF78
:10323000FFF723FF4FF48060FFF762FF786808F024
:103240000DFD00BF5837BD4680BD00BF00280040BF
:1032500080B59CB000AF786007F15C0300221A6073
:103260005A609A60DA601A6107F10C03502200215B
:1032700018460EF055FF7B681B685C4A934256D196
:103280000123FB6000237B6207F10C03184608F062
:103290005EF90346002B01D0FFF7D3FE4FF48040C8
:1032A000FFF760FF0220FFF7F9FEC023FB65022352
:1032B0003B6601237B660323BB660723FB6607F19E
:1032C0005C0319464A4806F003FA4A4B4A4A1A6018
:1032D000484B0F225A60474B10229A60454B002200
:1032E000DA60444B80221A61424B00225A61414B02
:1032F00000229A613F4B0022DA613E4B00221A62A3
:103300003C4805F03DFF0346002B01D0FFF799FE36
:103310007B68384ADA67374A7B689362002200216B
:10332000242005F0CEFE242005F0E5FE59E07B6860
:103330001B68324A934254D10223FB600023BB62D4
:1033400007F10C03184608F002F90346002B01D0E0
:10335000FFF777FE0120FFF7ECFE0420FFF79EFE4B
:103360000323FB6502233B6600237B660023BB66C9
:103370000823FB6607F15C031946214806F0A8F90B
:10338000204B214A1A601F4B11225A601D4B1022FC
:103390009A601C4B0022DA601A4B80221A61194B8A
:1033A00000225A61174B00229A61164B0022DA6103
:1033B000144B00221A62134805F0E2FE0346002B6C
:1033C00001D0FFF73EFE7B680E4ADA670D4A7B6844
:1033D000936200220021252005F073FE252005F0D0
:1033E0008AFE00BF7037BD4680BD00BF0038014077
:1033F000000400480406002044040240008000400D
:1034000000080048F80600204400024080B588B05B
:1034100000AF786007F10C0300221A605A609A60CE
:10342000DA601A617B681B681D4A934217D14FF41A
:103430008050FFF797FE0220FFF730FE3823FB6035
:1034400002233B6100237B610223BB610523FB61F7
:1034500007F10C031946134806F03AF91CE07B68A3
:103460001B68114A934217D14FF48040FFF748FE82
:103470000220FFF713FE4FF46043FB6002233B6121
:1034800000237B610023BB610523FB6107F10C0373
:103490001946044806F01CF900BF2037BD4680BD20
:1034A00000300140000400480038004080B588B07A
:1034B00000AF786007F10C0300221A605A609A602E
:1034C000DA601A617B681B68224A93423ED14FF44E
:1034D0008070FFF7FCFD0220FFF7E0FD0120FFF701
:1034E000DDFD0820FFF7DAFD4FF40073FB600223D7
:1034F0003B6100237B610023BB610A23FB6107F171
:103500000C031946144806F0E3F80823FB60022375
:103510003B6100237B610023BB610A23FB6107F150
:103520000C0319464FF0904006F0D2F8E823FB60F8
:1035300002233B6100237B610023BB610A23FB6103
:1035400007F10C031946054806F0C2F800BF203702
:10355000BD4680BD001000A000040048000C0048DB
:1035600080B400AF00BFFDE780B400AF00BFFDE74F
:1035700080B400AF00BFFDE780B400AF00BFFDE73F
:1035800080B400AF00BFFDE780B400AF00BFBD4610
:103590005DF8047B704780B400AF00BFBD465DF8A6
:1035A000047B704780B400AF00BFBD465DF8047B6C
:1035B000704780B500AF05F005FC00BF80BD00007E
:1035C00080B500AF024809F027FA00BF80BD00BFF8
:1035D0007005002080B500AF06F010FB00BF80BD75
:1035E00080B500AF024805F031FF00BF80BD00BFCD
:1035F0000406002080B500AF01F01AFD00BF80BDB9
:1036000080B500AF01F04AFD00BF80BD80B500AFBE
:103610004FF4805006F0DAFA4FF4005006F0D6FA74
:1036200000BF80BD80B500AFFEF7CAFC00BF80BD03
:1036300080B500AF04F048FD00BF80BD80B400AF8E
:1036400001231846BD465DF8047B704780B582B003
:1036500000AF786039600EF0DBFD034616221A6079
:103660004FF0FF3318460837BD4680BD80B582B0A5
:1036700000AF78604FF0FF317868FFF7E7FF00BFD9
:10368000FDE780B586B000AFF860B9607A600023CE
:103690007B610AE0AFF300800146BB685A1CBA6048
:1036A000CAB21A707B6901337B617A697B689A427E
:1036B000F0DB7B6818461837BD4680BD80B483B008
:1036C00000AF78604FF0FF3318460C37BD465DF809
:1036D000047B704780B483B000AF786039603B688A
:1036E0004FF400525A60002318460C37BD465DF86F
:1036F000047B704780B483B000AF78600123184624
:103700000C37BD465DF8047B704780B485B000AFD0
:10371000F860B9607A60002318461437BD465DF83A
:10372000047B704780B586B000AF7860144A154BB3
:10373000D31A7B617B693B61134B1B68002B02D161
:10374000114B124A1A60104B1A687B6813443A698D
:103750009A4207D20EF05CFD03460C221A604FF02D
:10376000FF3309E0084B1B68FB60074B1A687B6856
:103770001344054A1360FB6818461837BD4680BDE0
:103780000000032000100000640800202021002019
:1037900080B400AF034B1B681846BD465DF8047B40
:1037A000704700BF8075FF1F80B400AF034B1B68DC
:1037B000DBB21846BD465DF8047B70478475FF1F79
:1037C00080B400AF034B1B681B0A1846BD465DF86A
:1037D000047B70478475FF1FF0B5B1B004AF07F1EB
:1037E0009403C7F8AC309E4B3C1D1D460FCD0FC453
:1037F0000FCD0FC40FCD0FC495E8070003C422807E
:1038000000F024FE012102200DF000FB954A00216A
:1038100004200DF027FC3B1D18460CF051F903461F
:1038200087F8AB3097F8AB30002B12D08E480BF0F6
:10383000C0FC014640F24F138C4A8D480EF008FB45
:1038400097F8AB3019468B480EF002FBFFF7F9FBF7
:103850000CE085480BF0ADFC014640F25513834A5D
:1038600083480EF0F5FA84480EF05AFB00F004FE8F
:103870000CF0B0FC814B002283F880207F4B4FF688
:10388000FF72DA827E4A002101200DF0EBFB01F08D
:1038900081FA7C4B8922DA707B4B00227B49002025
:1038A000FEF730FD754B02225A76744B01221A76D0
:1038B00041F60D0001F0DAF9754B80221A80754B44
:1038C000A0221A80012001F08BF8D7F8AC000CF090
:1038D0003BF90346002B40F0928001F083F9C7F8D2
:1038E000A400D7F8A43005331B781D46D7F8A430C0
:1038F00004331B781E46D7F8A43003331B781A46CE
:10390000D7F8A43002331B781946D7F8A430013316
:103910001B781C46D7F8A4301B7807F1800003936E
:1039200002940191009233462A465B490EF000FB57
:10393000D7F8AC301B781A46D7F8AC305B7819460C
:10394000D7F8AC309B7807F1680000930B465349D9
:103950000EF0EEFAD7F8AC30DB781A46D7F8AC3078
:103960001B7907F154004E490EF0E2FAD7F8AC305B
:103970009B7A1A46D7F8AC30DB7A1946D7F8AC30C8
:103980001B7B07F1400000930B4646490EF0D0FA2E
:103990000021002004F086FF002004F05BFE07F108
:1039A00080020323002100200DF016F80CF0B2FF76
:1039B0000346DB88194607F16802032300200DF057
:1039C0000BF80CF0A7FF0346DB885B00194607F1F4
:1039D0005402032300200CF0FFFF0CF09BFF034672
:1039E000DB881A4613465B001344194607F1400270
:1039F000032300200CF0F0FF002004F02BFE4FF416
:103A00007A60FDF717FF0021002004F04BFF002033
:103A100004F020FE0123244A002100200CF0DCFFEA
:103A20000CF078FF0346DB88194607F18002032378
:103A300000200CF0D1FF0CF06DFF0346DB881A4626
:103A400013465B00134419460323184A00200CF068
:103A5000C3FF002004F0FEFD00BFB437BD46F0BD3B
:103A6000744601084DF30008F8440108645F01083A
:103A7000844501089C450108D445010870080020D0
:103A8000D54C000808000020C54C0008F1080020B3
:103A9000F4080020F6080020FC4501081C46010837
:103AA00030460108444601085446010868460108AA
:103AB000F0B597B004AF7860922387F847307B6801
:103AC00001333B643B6C1B78FF2B00F04C82FF2BD7
:103AD00000F31884052B04D03E2B00F0878000F003
:103AE00011BC3B6C02333B623B6AB3F801309AB2C3
:103AF000A84BDB8A9A4228D1A64B0022DA82A54B3A
:103B0000002283F88020A4480BF053FB014640F2CA
:103B1000DB13A24AA2480EF09BF9A2480EF000FA6D
:103B20009D480BF046FB01464FF4EE739B4A9C48C0
:103B30000EF08EF93B6AB3F801309BB219463B6A2E
:103B4000DB781A4698480EF083F901F04BF878625A
:103B50007B6A05331B781D467B6A04331B781E463F
:103B60007B6A03331B781A467B6A02331B7819463B
:103B70007B6A01331B781C467B6A1B7807F10800BF
:103B8000039302940191009233462A4687490EF02E
:103B9000CFF90021002004F085FE002004F05AFD3A
:103BA0000123834A002100200CF016FF0CF0B2FE26
:103BB0000346DB88194607F10802032300200CF0B6
:103BC0000BFF0CF0A7FE0346DB881A4613465B008A
:103BD000134419460323774A00200CF0FDFE002011
:103BE00004F038FD012000F0FBFE8EE33B6C023355
:103BF0007B637B6B1B780C2B48D00C2B00F3B181C3
:103C0000012B00F0EB80032B40F0AB817B6B013389
:103C1000FB6261480BF0CDFA014640F205235F4A92
:103C20005F480EF015F964480EF07AF95A480BF027
:103C3000C0FA014640F20623584A59480EF008F9E6
:103C4000FB6AB3F803309BB21846FCF743FC4FF015
:103C500000025A4BFCF7A8FC02460B4610461946D8
:103C6000FB6AB3F805309BB21C46FB6AB3F8073019
:103C70009BB21A4613469B0013445B0001930094C9
:103C800002460B464E480EF0E3F86BE17B6B0133C6
:103C90003B6341480BF08DFA014640F213233F4A43
:103CA0003F480EF0D5F847480EF03AF93B6B1B78C9
:103CB000002B0DD138480BF07CFA014640F2162358
:103CC000364A37480EF0C4F83F480EF029F90CE0A8
:103CD00031480BF06EFA014640F21A232F4A304861
:103CE0000EF0B6F839480EF01BF92A4BDB8A07F1C3
:103CF0001E0207F11F0118460BF060F9034687F812
:103D0000473097F84730002B0DD023480BF051FA7D
:103D100001464FF40873214A21480EF099F82C48C7
:103D20000EF0FEF81EE11C480BF043FA01464FF47A
:103D300009731A4A1A480EF08BF826480EF0F0F86C
:103D4000FB7F022B14D1BB7F022B11D112480BF049
:103D500030FA01464FF40A73104A11480EF078F811
:103D6000FB7F1946BB7F1A461B480EF071F8F9E03D
:103D700009480BF01EFA01464FF40B73074A084836
:103D80000EF066F8FB7F1946BB7F1A4612480EF00C
:103D90005FF8E7E070080020F8440108745F01084C
:103DA00084450108B0460108DC460108FC450108CD
:103DB0005446010868460108184701080000F43F0E
:103DC00050470108C0470108F047010800480108B2
:103DD0001048010830480108544801087B6B013342
:103DE000BB62AC4B93F881301846FEF705FBAA483E
:103DF0000BF0DFF9014640F23D23A84AA8480EF037
:103E000027F8BB6AB3F801309BB21946A5480EF0FB
:103E10001FF8A1480BF0CDF9014640F23E239F4A1E
:103E20009F480EF015F8BB6A9B7A1846BB6A5B7A0E
:103E30001C46BB6A1B7A1D46BB6ADB791A46BB6A05
:103E40009B791946BB6A5B790293019100922B46DC
:103E50002246014694480DF0FBFF8F480BF0A9F96C
:103E6000014640F245238D4A8D480DF0F1FFBB6AB3
:103E7000B3F80B309BB21846FCF72CFB4FF0000256
:103E80008A4BFCF791FB02460B4610461946BB6A6B
:103E9000B3F80D309BB21C46BB6AB3F80F309BB22F
:103EA0001A4613469B0013445B000193009402469C
:103EB0000B467F480DF0CCFF764B93F88030042BF7
:103EC00004D1744B062283F8802003E0714B052255
:103ED00083F88020BB6AB3F801309AB26D4BDA8266
:103EE00000F080FE78627B6A05331B781D467B6A92
:103EF00004331B781E467B6A03331B781A467B6AA1
:103F000002331B7819467B6A01331B781C467B6A97
:103F10001B7807F108000393029401910092334645
:103F20002A4664490EF004F80CF0F4FC0346DB88E2
:103F3000194607F10802032300200CF04DFD0CF098
:103F4000E9FC0346DB881A4613465B001344194616
:103F50000323594A00200CF03FFD002004F07AFBB7
:103F600000E000BFD1E13B6C0233FB63FB6B1B88BD
:103F70009BB240F20A42934222DCB3F5806FC0F25A
:103F8000C381A3F580630A2B00F2BE8101A252F81F
:103F900023F000BFCD3F00083B420008E93F000886
:103FA0005B40000877400008D9400008094300083A
:103FB000C1420008494100088141000865410008EC
:103FC00040F60E42934200F089819DE132480BF0A9
:103FD000F0F801464FF41E73304A31480DF038FFB7
:103FE00036480DF09DFF8CE12B480BF0E2F80146BE
:103FF0004FF41F73294A2A480DF02AFF30480DF06C
:104000008FFF244BDB8A2F4918460AF039F8034604
:1040100087F8473097F84730002B10D01E480BF038
:10402000C8F8014640F281231C4A1D480DF010FFDC
:1040300097F84730194624480DF00AFF61E1164809
:104040000BF0B7F8014640F28523144A14480DF0EE
:10405000FFFE1E480DF064FF53E10F480BF0A9F876
:10406000014640F28A230D4A0D480DF0F1FE184832
:104070000DF056FF45E108480BF09BF8014640F271
:104080008E23064A06480DF0E3FE12480DF048FF65
:1040900037E100BF70080020F8440108745F010890
:1040A0008445010878480108C44801080000F43F2D
:1040B00050470108FC45010814490108204901083E
:1040C0005049010840E2010078490108AC49010863
:1040D000D4490108004A01088E480BF06AF80146ED
:1040E00040F292238C4A8D480DF0B2FE8C480DF0C0
:1040F00017FF8C4BDB8A18460AF0E7F9034687F86E
:10410000473097F84730002B10D082480BF051F819
:10411000014640F29623804A80480DF099FE97F8B8
:104120004730194680480DF093FEEAE079480BF0DD
:1041300040F8014640F29A23774A78480DF088FE0D
:104140007A480DF0EDFEDCE072480BF032F80146E3
:1041500040F29F23704A71480DF07AFE74480DF0CA
:10416000DFFECEE06B480BF024F8014640F2A323BB
:10417000694A6A480DF06CFE6E480DF0D1FEC0E051
:1041800064480BF016F8014640F2A723624A6348E0
:104190000DF05EFE68480DF0C3FE5E480BF009F8B6
:1041A00001464FF42A735C4A5C480DF051FEFB6BEC
:1041B0000233D3F80230194660480DF049FE5548E5
:1041C0000AF0F7FF014640F2AA23534A53480DF084
:1041D0003FFEFB6B0233D3F80230194658480DF00E
:1041E00037FE504BDB8A012118460AF0C2F903461C
:1041F00087F8473097F84730002B10D045480AF031
:10420000D8FF014640F2AF23434A44480DF020FE58
:1042100097F8473019464B480DF01AFE71E03D48BB
:104220000AF0C7FF014640F2B3233B4A3B480DF07A
:104230000FFE45480DF074FE63E0FB6B0233BB6379
:1042400034480AF0B6FF014640F2BB23324A3348F5
:104250000DF0FEFD3D480DF063FEBB6B9B78002B1F
:104260000DD12C480AF0A5FF014640F2BE232A4A90
:104270002A480DF0EDFD36480DF052FE12E02548BB
:104280000AF097FF014640F2C223234A23480DF06B
:10429000DFFDBB6B9B781946BB6BDB781A462D485C
:1042A0000DF0D6FD1B480AF084FF01464FF4317330
:1042B000194A1A480DF0CCFD27480DF031FE20E0D8
:1042C00014480AF076FF014640F2CA23124A134806
:1042D0000DF0BEFD21480DF023FE12E00D480AF05E
:1042E00068FF014640F2D2230B4A0C480DF0B0FDA6
:1042F0001B480DF015FE0B4BDB8A18460AF04CFCF0
:1043000000BF01E000BF00E000BF012318464C37AA
:10431000BD46F0BDF8440108745F010884450108FA
:104320003C4A010870080020644A0108984A0108C4
:10433000C04A0108F04A0108204B0108544B01080B
:10434000744B0108904B0108E44B01082C4C010808
:10435000584C0108744C0108B44C0108B84C0108D1
:10436000E44C010880B582B000AF9223FB710AF0E3
:1043700088F80346FB71FB79002B0FD010480AF038
:1043800018FF01464FF43E730E4A0F480DF060FDD2
:10439000FB7919460D480DF05BFD0CE008480AF06A
:1043A00008FF01464FF43F73064A07480DF050FDE1
:1043B00007480DF0B5FD00BF0837BD4680BD00BF02
:1043C000F84401088C5F0108844501080C4D010880
:1043D000444D010880B582B000AF9223FB71154BAC
:1043E000DB8A184609F060FF0346FB71FB79002B5E
:1043F0000FD011480AF0DDFE01464FF442730F4A18
:104400000F480DF025FDFB7919460E480DF020FDF3
:104410000CE009480AF0CDFE01464FF44373074A09
:1044200007480DF015FD08480DF07AFD00BF08376C
:10443000BD4680BD70080020F8440108A85F01084F
:1044400084450108704D0108A84D010880B582B06F
:1044500000AF064B3B60064B7B603B461946054868
:104460000AF058FF00BF0837BD4680BD2800032072
:104470005F4D0008274D0008F0B58DB006AF4FF432
:1044800050733B809223FB75B1480AF092FE0146BF
:1044900040F22D33AF4AB0480DF0DAFCAF480DF0D2
:1044A0003FFD0AF067FD0346FB75FB7D002B0FD037
:1044B000A7480AF07EFE014640F23633A54AA648D8
:1044C0000DF0C6FCFB7D1946A5480DF0C1FC0CE0C3
:1044D0009F480AF06EFE014640F23A339D4A9E48DC
:1044E0000DF0B6FC9F480DF01BFD00F07BFB386122
:1044F0003A69062100200AF051FC0346FB75FB7D5A
:10450000002B0FD092480AF054FE01464FF451732D
:10451000904A91480DF09CFCFB7D194692480DF0A5
:1045200097FC35E08A480AF044FE01464FF4527386
:10453000884A89480DF08CFC8C480DF0F1FC8448C9
:104540000AF037FE014640F24933824A82480DF0B4
:104550007FFC3B6905331B7818463B6904331B78A5
:104560001C463B6903331B781D463B6902331B78AD
:104570001A463B6901331B7819463B691B78029345
:10458000019100922B462246014679480DF060FCCD
:104590003B6905331A78774B1A723B6904331A78F2
:1045A000744B5A723B6903331A78724B9A723B69A7
:1045B00002331A786F4BDA723B6901331A786D4B0C
:1045C0001A733B691A786B4B5A736B4A1021182087
:1045D0000AF0E4FB0346FB75FB7D002B0FD05C4823
:1045E0000AF0E7FD014640F27D335A4A5A480DF081
:1045F0002FFCFB7D194661480DF02AFC0CE0544865
:104600000AF0D7FD014640F28133524A52480DF07C
:104610001FFC5B480DF084FC5A4A102108200AF068
:10462000BDFB0346FB75FB7D002B0FD048480AF00D
:10463000C0FD014640F28A33464A47480DF008FC67
:10464000FB7D194650480DF003FC0CE040480AF091
:10465000B0FD014640F28E333E4A3F480DF0F8FB74
:104660004A480DF05DFC182101200AF01CFC0346AD
:10467000FB75FB7D002B0FD035480AF09AFD0146F3
:1046800040F29733334A34480DF0E2FBFB7D194684
:104690003F480DF0DDFB0CE02D480AF08AFD014695
:1046A00040F29B332B4A2C480DF0D2FB39480DF0D9
:1046B00037FC09F0C5FF0346FB75FB7D002B0FD0CF
:1046C00023480AF076FD01464FF46973214A2248D7
:1046D0000DF0BEFBFB7D19462F480DF0B9FB0CE039
:1046E0001B480AF066FD01464FF46A73194A1A48DE
:1046F0000DF0AEFB29480DF013FC0023FB73FB7B90
:1047000043F00103FB73FB7B002B6BD0244BBB609E
:10471000BA1DF87BBB1C01933B1D00931346072277
:10472000002109F014FD0346FB75FB7D002B3BD0F7
:1047300007480AF03EFD01464FF47273054A0648E9
:104740000DF086FBFB7D194616480DF081FB38E025
:10475000F8440108C45F010884450108D84D0108E8
:10476000044E0108344E0108544E0108B04E0108B1
:10477000FC4E0108080000203C5F01083C4F010886
:10478000944F01084C5F0108DC4F010834500108C8
:104790007C500108BC500108EC5001082051010870
:1047A000445101084C5101087E480AF002FD0146BF
:1047B0004FF473737C4A7D480DF04AFB7C480DF042
:1047C000AFFBFC88BD88B868FBF72AFD0346DAB268
:1047D000BB68009313460022294620460AF033F9AD
:1047E0000346FB75F88879883B4600930223002234
:1047F0000AF029F90346FB750222022100200AF083
:104800005BFC0346FB75FB7D002B0FD065480AF06F
:10481000D0FC014640F2EE33634A64480DF018FBC9
:10482000FB7D194663480DF013FB0CE05D480AF070
:10483000C0FC014640F2F2335B4A5C480DF008FBD5
:104840005D480DF06DFB5D4B01221A705B4B1B78D0
:10485000184609F0FDFA0346FB75FB7D002B0FD0CF
:1048600050480AF0A6FC01464FF47F734E4A4F4869
:104870000DF0EEFAFB7D194651480DF0E9FA0CE017
:1048800048480AF096FC01464FF48063464A474880
:104890000DF0DEFA4B480DF043FB484B01225A70F5
:1048A000464B08221A71454B10225A71434B002285
:1048B000DA70424B444A9A60404B01229A703F4B57
:1048C0009C783E4B5D783D4B1B793C4A52793B4985
:1048D000C9783A48806800260496039002910192B4
:1048E0000093002301222946204609F005FB0346D8
:1048F000FB75FB7D002B0FD02A480AF05AFC0146BD
:1049000040F21B43284A29480DF0A2FAFB7D1946C4
:104910002E480DF09DFA0CE022480AF04AFC0146B0
:1049200040F21F43204A21480DF092FA28480DF02A
:10493000F7FA224B9B78002B23D009F07EFD03462B
:10494000FB75FB7D002B0FD016480AF032FC0146A8
:1049500040F22A43144A15480DF07AFAFB7D1946B5
:104960001C480DF075FA0CE00E480AF022FC0146D6
:1049700040F22E430C4A0D480DF06AFA16480DF02D
:10498000CFFA08480AF015FC014640F23143064AC6
:1049900006480DF05DFA11480DF0C2FA00BF1C3751
:1049A000BD46F0BDF8440108C45F01088445010814
:1049B00080510108A4510108E0510108700800204D
:1049C0000C5201084C52010807B201007C52010848
:1049D000C852010804530108485301087C530108D8
:1049E00080B58CB008AF0346FB719223FB72FB7954
:1049F000012B06D1694B1B88FB81694B1B88BB814E
:104A000005E04FF4C863FB814FF47A63BB81654BCB
:104A100093F881301846FDF7EFFCFB79022B2DD17E
:104A2000604B93F88030012B04D05E4B93F88030BC
:104A3000022B23D109F0EEF80346FB72FB7A002B20
:104A40000FD059480AF0B5FB014640F25243574A8D
:104A500057480DF0FDF9FB7A194656480DF0F8F964
:104A60000CE051480AF0A5FB014640F256434F4A7C
:104A70004F480DF0EDF950480DF052FA494AFB79D4
:104A800082F88030474B1B7EBA89F9890020069056
:104A900000200590494804900393494B0293072353
:104AA0000193002300930023002009F0D7F8034668
:104AB000FB72FB7A002B0FD03B480AF07AFB0146D1
:104AC00040F26943394A3A480DF0C2F9FB7A194677
:104AD0003C480DF0BDF90CE033480AF06AFB014692
:104AE00040F26D43314A32480DF0B2F936480DF0CC
:104AF00017FA36490E2009F02EFC0346FB72FB7AAA
:104B0000002B22D0FB79012B0FD127480AF051FB53
:104B1000014640F27643254A25480DF099F9FB7A83
:104B200019462B480DF094F935E01F480AF041FB77
:104B3000014640F27A431D4A1D480DF089F9FB7A7F
:104B4000194624480DF084F925E0FB79012B14D196
:104B500015480AF02EFB014640F28143134A1448DF
:104B60000DF076F91C480DF0DBF90E4B93F881300F
:104B70001A491846FDF7C4FC0DE00B480AF019FB72
:104B8000014640F28743094A09480DF061F914488B
:104B90000DF0C6F900BF1037BD4680BDF4080020F7
:104BA000F608002070080020F8440108DC5F0108C6
:104BB00084450108A8530108F8530108890800201A
:104BC0005C5F010840540108785401080800002087
:104BD000A4540108DC5401081855010846E00100FE
:104BE0004455010880B586B000AFFEF7D1FD3861AD
:104BF0003B69B3F1FF3F23D0FEF7E2FDB860FEF75B
:104C0000D3FD78603B69DAB2164B1A703B691B0A18
:104C1000DAB2144B5A707B68DAB2124B9A70BB68E6
:104C2000DAB2104BDA70BB681B0ADAB20D4B1A719C
:104C3000BB681B0CDAB20B4B5A710A4B7B610BE061
:104C400000200AF015FFF860FB68002B02D0FB681B
:104C50007B6101E0044B7B617B6918461837BD46D8
:104C600080BD00BF68080020345F010880B483B0B5
:104C700000AF0346FB80124B1B7E1946FB88DAB25D
:104C80000F4B0B445A760E4B1B7E0133DAB20C4BA2
:104C90001A76FB881B0A9AB2094B1B7E1946D2B2C0
:104CA000074B0B445A76064B1B7E0133DAB2044B9A
:104CB0001A7600BF0C37BD465DF8047B704700BF15
:104CC0007008002080B500AF002101200CF0ECF945
:104CD00000BF80BD80B500AF0220FFF781FE00BF9E
:104CE00080BD80B582B000AF7860002104200CF058
:104CF000DBF900BF0837BD4680BD80B582B000AF8C
:104D0000786001200CF03CFA00BF0837BD4680BD3A
:104D100080B582B000AF786001200CF051FA00BF7E
:104D20000837BD4680BD80B584B000AF78607B6831
:104D3000FB60FB685B68083318460BF09DFA03467E
:104D4000FB72FB7A002B03D0FB6801221A7003E090
:104D5000FB6800221A7000BF1037BD4680BD80B5C9
:104D600084B000AF0346FB71FB79002B02D0012B0E
:104D700006D00BE00F23FB60F8680CF0C1F905E0EA
:104D80000F23FB60F8680CF0DBF900BF00BF1037A1
:104D9000BD4680BD80B582B000AF074B3B600423A9
:104DA0003B713B46194642F629200AF08DFA00BFB6
:104DB0000837BD4680BD00BF7455010880B582B07C
:104DC00000AF78607B681B78022B1AD0022B1EDCA8
:104DD000002B02D0012B07D019E00F4B00229A8044
:104DE0000D4B01221A7313E00B4B5B7B1846FDF74A
:104DF00003FB094B5B7B40F601011846FDF780FB86
:104E000006E0054B5B7B1846FDF7F6FA00E000BFB5
:104E100000BF0837BD4680BDF808002080B400AF51
:104E2000054BDB68044A43F40043D36000BFBD4632
:104E30005DF8047B704700BF0004005880B483B065
:104E400000AF7860064BD3F8D42005497B68134344
:104E5000C1F8D43000BF0C37BD465DF8047B704705
:104E60000008005880B483B000AF7860054B1A6A20
:104E700004497B6813430B6200BF0C37BD465DF8E5
:104E8000047B70470008005880B485B000AF78609C
:104E90004FF0B0431A6D4FF0B0417B6813430B6580
:104EA0004FF0B0431A6D7B681340FB60FB6800BF96
:104EB0001437BD465DF8047B704780B485B000AF01
:104EC00078604FF0B043D3F850214FF0B0417B6889
:104ED0001343C1F850314FF0B043D3F850217B68F1
:104EE0001340FB60FB6800BF1437BD465DF8047BD0
:104EF000704780B483B000AF78607B681B6843F470
:104F000080327B681A6000BF0C37BD465DF8047BB9
:104F1000704780B483B000AF78607B681B6843F053
:104F200001027B681A6000BF0C37BD465DF8047B48
:104F3000704780B483B000AF786039607B685A688E
:104F40003B681B04DB431A407B685A6000BF0C3788
:104F5000BD465DF8047B704780B483B000AF7860D5
:104F600039607B685A683B681B041A437B685A6047
:104F700000BF0C37BD465DF8047B704780B483B03A
:104F800000AF786039607B685A683B68DB431A4041
:104F90007B685A6000BF0C37BD465DF8047B7047E4
:104FA00080B483B000AF786039607B683A689A60FB
:104FB00000BF0C37BD465DF8047B704780B483B0FA
:104FC00000AF786039603B681A047B689A6000BF64
:104FD0000C37BD465DF8047B704780B483B000AFEA
:104FE000786039607B68DA683B6813403A689A42B7
:104FF00001D1012300E0002318460C37BD465DF8BF
:10500000047B704780B483B000AF786039607B6800
:10501000DA693B6813403A689A4201D1012300E003
:10502000002318460C37BD465DF8047B704700002E
:1050300080B500AF02211848FFF7E4FF0346002BBC
:1050400008D0154B5B6803F00203002B02D100F07F
:10505000D5F81EE001211048FFF7D4FF0346002BCE
:1050600008D00D4B5B6803F00103002B02D100F068
:1050700089F80EE008210848FFF7C4FF0346002B1B
:1050800008D0054B5B6803F00803002B02D100F049
:1050900001F900BF00BF80BD000C005880B500AF13
:1050A00002211848FFF799FF0346002B08D1154B42
:1050B0005B6803F40033002B02D100F093F81EE08C
:1050C00008211048FFF789FF0346002B08D10D4B3C
:1050D0005B6803F40023002B02D100F0BDF80EE062
:1050E00020210848FFF779FF0346002B08D1054B24
:1050F0005B6803F40013002B02D100F04FF800BFEF
:1051000000BF80BD000C005880B500AF4FF4801088
:10511000FFF7D3FE4FF40070FFF7A4FE4FF40070CA
:10512000FFF78CFE40BF20BFFFF778FE00BF80BDB9
:1051300080B500AF4FF48010FFF7A6FE0648FFF7DA
:10514000E8FE0548FFF7D5FE2C2003F0D4FF2D2004
:1051500003F0D1FF00BF80BD000C005880B500AF48
:1051600001210248FFF70AFF00BF80BD000C005874
:1051700080B500AF01210248FFF720FF00BF80BDCE
:10518000000C005880B500AF0BF05AF9012102481D
:10519000FFF706FF00BF80BD000C005880B500AFD0
:1051A00020210348FFF7D8FE0BF07AF900BF80BD3D
:1051B000000C005880B500AF02210248FFF7DEFE68
:1051C00000BF80BD000C005880B500AF022104482C
:1051D000FFF7F4FE02210248FFF7ABFE00BF80BDDF
:1051E000000C005880B500AF02210348FFF7B4FE61
:1051F0000BF0A6F900BF80BD000C005880B500AFD1
:105200000BF0B4F902210248FFF7CAFE00BF80BDCF
:10521000000C005880B582B000AF786008210C48BF
:10522000FFF7DBFE0346002B07D00A4A7B681360BA
:1052300008210748FFF77DFE06E07B6898470821B4
:105240000348FFF7BBFE00BF0837BD4680BD00BF67
:10525000000C00580809002080B500AF082106485E
:10526000FFF77AFE054B1B68984708210248FFF7B5
:10527000A5FE00BF80BD00BF000C0058080900203B
:1052800080B500AF08210248FFF778FE00BF80BD5F
:10529000000C005880B500AF0BF010FA082102484E
:1052A000FFF77EFE00BF80BD000C005880B582B0C5
:1052B00000AF0346FB71F91D4FF47A7301220348D6
:1052C00006F0A5FD00BF0837BD4680BDBC07002025
:1052D00080B500AF00224021074804F05FFC0022A7
:1052E0000121064804F05AFC01224021044804F040
:1052F00055FC0023184680BD00080048000C0048FB
:105300000004004880B500AF00224021074804F0A7
:1053100045FC00220121064804F040FC0022402107
:10532000044804F03BFC00BF80BD00BF00080048FB
:10533000000C00480004004880B500AF0122402165
:105340000B4804F02BFC6420FCF774FA0022402187
:10535000074804F023FC0220FCF76CFA01224021EC
:10536000034804F01BFC6420FCF764FA00BF80BD16
:105370000004004880B582B000AF0346FB710022F4
:1053800040210A4804F00AFC00220121084804F0E8
:1053900005FCFB791846FFF789FF0122012104482B
:1053A00004F0FCFB00BF0837BD4680BD0008004884
:1053B000000C004880B582B000AF0346FB710122AB
:1053C00040210A4804F0EAFB00220121084804F0C9
:1053D000E5FBFB791846FFF769FF0122012104482C
:1053E00004F0DCFB00BF0837BD4680BD0008004864
:1053F000000C004880B500AF0B480CF091FD022175
:105400000A4804F0B3FB0346002B03D03220FCF71C
:1054100011FAF4E700BF3220FCF70CFA04480CF054
:105420007FFD00BF80BD00BF78550108000C00481B
:105430009055010880B584B000AF78603220FFF746
:1054400099FF0023FB7309E0FB7B7A6813441B7808
:105450001846FFF7AFFFFB7B0133FB73FB7B982BF9
:10546000F2D9FFF7C7FF00BF1037BD4680BD80B53A
:1054700082B000AF78607868FFF7DCFF3F20FFF76D
:1054800079FF7B6899331B781846FFF793FF032059
:10549000FFF770FF7B689A331B781846FFF78AFF87
:1054A0000420FFF767FF7B689B331B781846FFF7E4
:1054B00081FF7B689C331B781846FFF77BFF7B6876
:1054C0009D331B781846FFF775FF2C20FFF752FF1E
:1054D0007B689E331B781846FFF76CFF00BF0837C8
:1054E000BD4680BD80B500AF2220FFF743FFC72037
:1054F000FFF760FF2020FFF73DFFFFF77BFF00BFB6
:1055000080BD80B500AF2220FFF734FF0F20FFF7EA
:1055100051FF2020FFF72EFFFFF76CFF00BF80BD7B
:1055200090B583B000AF0446084611461A4623469C
:10553000FB800346BB800B467B8013463B804420A8
:10554000FFF718FFFB88DB089BB2DBB21846FFF7BA
:1055500031FF7B88DB089BB2DBB21846FFF72AFFDE
:105560004520FFF707FFBB88DBB21846FFF722FF95
:10557000BB881B0A9BB2DBB21846FFF71BFF3B88B8
:10558000DBB21846FFF716FF3B881B0A9BB2DBB263
:105590001846FFF70FFF00BF0C37BD4690BD80B522
:1055A00082B000AF03460A46FB801346BB804E2004
:1055B000FFF7E0FEFB88DBB21846FFF7FBFE4F204B
:1055C000FFF7D8FEBB88DBB21846FFF7F3FEBB88B7
:1055D0001B0A9BB2DBB21846FFF7ECFE00BF083790
:1055E000BD4680BD80B500AFFFF7A6FE6420FCF786
:1055F00021F9FFF7FFFE1220FFF7BCFEFFF7FAFECE
:105600000120FFF7B7FE2720FFF7D4FE0120FFF7A8
:10561000D1FE0020FFF7CEFE1120FFF7ABFE0320E6
:10562000FFF7C8FE40F227137F2200210020FFF77A
:1056300077FF2120FFF79EFE0020FFF7BBFE8020B2
:10564000FFF7B8FE00210020FFF7A9FFFFF7D2FE09
:105650000248FFF70CFF00BF80BD00BFB80000206C
:1056600080B582B000AF2420FFF784FE0023FB80CA
:1056700005E0FF20FFF79EFEFB880133FB80FB88DF
:10568000B3F5945FF5D3FFF72DFF00BF0837BD4694
:1056900080BD80B584B000AF78602420FFF76AFE3B
:1056A0000023FB8109E0FB897A6813441B781846C4
:1056B000FFF780FEFB890133FB81FB89B3F5945F23
:1056C000F1D3FFF70FFF00BF1037BD4680BD80B597
:1056D00084B000AF78602420FFF74CFE0023FB81EC
:1056E00009E0FB897A6813441B781846FFF762FECD
:1056F000FB890133FB81FB89B3F5945FF1D326204D
:10570000FFF738FE0023FB8109E0FB897A68134428
:105710001B781846FFF74EFEFB890133FB81FB899E
:10572000B3F5945FF1D3FFF7DDFE00BF1037BD4640
:1057300080BD000080B584B000AF786000224021B9
:10574000334804F02BFA0220FCF774F801224021C0
:105750002F4804F023FA0220FCF76CF82D48FFF7DD
:1057600069FE3720FFF706FE0020FFF723FE00202A
:10577000FFF720FE0020FFF71DFE0020FFF71AFEB6
:105780000020FFF717FE4020FFF714FE0020FFF770
:1057900011FE0020FFF70EFE0020FFF70BFE002099
:1057A000FFF708FE3C20FFF7E5FD8020FFF702FE33
:1057B0002220FFF7DFFDC020FFF7FCFD2020FFF7D0
:1057C000D9FDFFF717FE40F227137F2200210020AA
:1057D000FFF7A6FE00210020FFF7E1FE2420FFF7DF
:1057E000C9FD0023FB8109E0FB897A6813441B781B
:1057F0001846FFF7DFFDFB890133FB81FB89B3F519
:10580000945FF1D3FFF77DFE00BF1037BD4680BD2A
:10581000000400481800002080B500AF1020FFF7FA
:10582000A9FD0120FFF7C6FD6420FCF703F800BFC7
:1058300080BD000080B588B004AFBD480CF070FB9F
:10584000FFF746FD0346002B02D04FF0FF33B3E1D4
:10585000B8480CF065FBFFF7C5FEFFF701FF4FF4FA
:105860009453BB81BB8918460BF01AFD0346BB60FD
:10587000BB68002B05D1B0480CF052FB4FF0FF3352
:105880009AE1AE480CF04CFBFF2300935A234FF4EF
:1058900094728021B86800F099F9FF2000F048FB6D
:1058A000FF2300935A234FF494728021B86800F0CC
:1058B0008DF9A3480CF034FBB86800F0DDF9FF2047
:1058C00000F036FB9F4801F0B3FBB868FFF7E1FE3C
:1058D00040F6B830FBF7AEFFFF2300935A234FF496
:1058E00094728021B86800F071F997480CF018FBA9
:1058F000B86800F0C1F9FF2000F01AFB93480CF0E3
:105900000FFB012300930123002250210A2000F005
:10591000DDFB01230093022300225A210A2000F01C
:10592000D5FB012300930323002264210A2000F009
:10593000CDFB0023029301230193002300937823DE
:1059400046224621142000F06DFC0023029301231F
:10595000019300230093782314224621462000F06F
:1059600061FC002302930123019300230093782319
:1059700046224621142000F001FD01230293012359
:10598000019300230093782382224621502000F0C7
:10599000F5FC0023019301230093002314225F21CF
:1059A0002D2000F06FFD0123019301230093FF23BD
:1059B00014225F21692000F065FD01230293012379
:1059C0000193002300935F237D225F21552000F087
:1059D00029FC0123029301230193002300937323E5
:1059E00069224B21692000F01DFCFF230193002355
:1059F0000093574B574A00210A2000F077FF0023FD
:105A00000193FF230093544B544A14210A2000F0C1
:105A10006DFFFF230193002300934F4B504A212138
:105A20000A2001F039F900230193FF230093484B2A
:105A30004C4A32210A2001F02FF9FF230193002361
:105A40000093494B494A0021822000F0A3FF002324
:105A50000193FF230093464B464A1421822000F015
:105A600099FFB868FFF733FE40F6B830FBF7E2FE67
:105A7000FF2300935A234FF494728021B86800F0FA
:105A8000A5F83D480CF04CFAB86800F0F5F80C2386
:105A90003B7122237B713823BB710A23FB73BB79D3
:105AA0000133DBB2BB71BB793C2B17D17B7901335E
:105AB000DBB27B710023BB717B793C2B0ED13B7930
:105AC0000133DBB23B7100237B713B79182B05D18D
:105AD00000233B7100237B710023BB71274B9B8804
