:020000040800F2
:1000000000000320610E0008653900086D39000802
:10001000753900087D3900088539000800000000A6
:100020000000000000000000000000008D39000802
:100030009B39000800000000A9390008B739000802
:10004000B50E0008B50E0008B50E0008293A0008E4
:10005000B50E0008B50E0008B50E0008413A0008BC
:100060004F3A00085D3A00086B3A0008B50E0008E8
:10007000B50E0008B50E0008B50E0008B50E000854
:10008000B50E0008B50E0008B50E0008B50E000844
:10009000B50E0008B50E0008B50E0008793A000844
:1000A000B50E0008B50E0008353A0008B50E000878
:1000B000B50E0008B50E0008B50E0008B50E000814
:1000C000B50E0008B50E0008B50E0008B50E000804
:1000D000C5390008B50E0008B50E0008B50E0008B9
:1000E000113A0008B50E0008B50E0008B50E00085C
:1000F000F9390008053A0008D9390008B50E00089A
:10010000B50E0008B50E0008B50E0008B50E0008C3
:10011000B50E0008B50E0008B50E0008B50E0008B3
:10012000B50E0008B50E0008E5390008B50E000848
:0C013000B50E0008B50E0008B50E000862
:1001400010B5054C237833B9044B13B10448AFF311
:1001500000800123237010BDC003002000000000B8
:100160001874010808B5034B1BB103490348AFF3EA
:10017000008008BD00000000C403002018740108BE
:1001800001F0FF01102A2BDB10F0070F08D010F848
:10019000013B013A8B422DD010F0070F42B3F6D14C
:1001A000F0B441EA012141EA014122F007047FF065
:1001B00000070023F0E80256083C85EA010586EABC
:1001C000010685FA47F5A3FA87F586FA47F6A5FAF8
:1001D00087F68EB9EED1F0BC01F0FF0102F0070204
:1001E00032B110F8013B013A83EA010313B1F8D1AF
:1001F0000020704701387047002D06BF3546033890
:10020000073815F0010F07D1013015F4807F02BFC8
:10021000013015F4C03F0130F0BC0138704700BF19
:10022000034613F8012B002AFBD1181A0138704736
:1002300081F0004102E000BF83F0004330B54FEA97
:1002400041044FEA430594EA050F08BF90EA020F04
:100250001FBF54EA000C55EA020C7FEA645C7FEA97
:10026000655C00F0E2804FEA5454D4EB5555B8BFBA
:100270006D420CDD2C4480EA020281EA030382EA2B
:10028000000083EA010180EA020281EA0303362DBD
:1002900088BF30BD11F0004F4FEA01314FF4801C90
:1002A0004CEA113102D0404261EB410113F0004FA2
:1002B0004FEA03334CEA133302D0524263EB430359
:1002C00094EA050F00F0A780A4F10104D5F1200EF7
:1002D0000DDB02FA0EFC22FA05F2801841F1000152
:1002E00003FA0EF2801843FA05F359410EE0A5F126
:1002F00020050EF1200E012A03FA0EFC28BF4CF057
:10030000020C43FA05F3C01851EBE37101F000450C
:1003100007D54FF0000EDCF1000C7EEB00006EEB19
:100320000101B1F5801F1BD3B1F5001F0CD34908A3
:100330005FEA30004FEA3C0C04F101044FEA4452FA
:1003400012F5800F80F09A80BCF1004F08BF5FEA81
:10035000500C50F1000041EB045141EA050130BD61
:100360005FEA4C0C404141EB0101013C28BFB1F573
:10037000801FE9D291F0000F04BF01460020B1FABE
:1003800081F308BF2033A3F10B03B3F120020CDA91
:100390000C3208DD02F1140CC2F10C0201FA0CF06F
:1003A00021FA02F10CE002F11402D8BFC2F1200CD4
:1003B00001FA02F120FA0CFCDCBF41EA0C0190408A
:1003C000E41AA2BF01EB0451294330BD6FEA0404D3
:1003D0001F3C1CDA0C340EDC04F11404C4F12002BE
:1003E00020FA04F001FA02F340EA030021FA04F3D0
:1003F00045EA030130BDC4F10C04C4F1200220FA27
:1004000002F001FA04F340EA0300294630BD21FA64
:1004100004F0294630BD94F0000F83F4801306BF2A
:1004200081F480110134013D4EE77FEA645C18BF1E
:100430007FEA655C29D094EA050F08BF90EA020FB5
:1004400005D054EA000C04BF1946104630BD91EAAD
:10045000030F1EBF0021002030BD5FEA545C05D1B0
:100460004000494128BF41F0004130BD14F58004EF
:100470003CBF01F5801130BD01F0004545F0FE4163
:1004800041F470014FF0000030BD7FEA645C1ABF98
:10049000194610467FEA655C1CBF0B46024650EACF
:1004A000013406BF52EA033591EA030F41F40021FB
:1004B00030BD00BF90F0000F04BF0021704730B581
:1004C0004FF4806404F132044FF000054FF0000156
:1004D00050E700BF90F0000F04BF0021704730B517
:1004E0004FF4806404F1320410F0004548BF4042EC
:1004F0004FF000013EE700BF42004FEAE2014FEA41
:1005000031014FEA02701FBF12F07F4393F07F4F1B
:1005100081F06051704732F07F4208BF704793F01E
:100520007F4F04BF41F40021704730B54FF4607431
:1005300001F0004521F000411CE700BF50EA010234
:1005400008BF704730B54FF000050AE050EA0102DD
:1005500008BF704730B511F0004502D5404261EB4D
:1005600041014FF4806404F132045FEA915C3FF48E
:10057000D8AE4FF003025FEADC0C18BF03325FEA2B
:10058000DC0C18BF033202EBDC02C2F1200300FADC
:1005900003FC20FA02F001FA03FE40EA0E0021FA01
:1005A00002F11444BDE600BF70B54FF0FF0C4CF4EF
:1005B000E06C1CEA11541DBF1CEA135594EA0C0FA1
:1005C00095EA0C0F00F0DEF82C4481EA030621EADC
:1005D0004C5123EA4C5350EA013518BF52EA033517
:1005E00041F4801143F4801338D0A0FB02CE4FF0C9
:1005F0000005E1FB02E506F00042E0FB03E54FF0F9
:100600000006E1FB03569CF0000F18BF4EF0010EF0
:10061000A4F1FF04B6F5007F64F5407404D25FEAEC
:100620004E0E6D4146EB060642EAC62141EA55519F
:100630004FEAC52040EA5E504FEACE2EB4F1FD0CE1
:1006400088BFBCF5E06F1ED8BEF1004F08BF5FEA5F
:10065000500E50F1000041EB045170BD06F0004611
:1006600046EA010140EA020081EA0301B4EB5C04BE
:10067000C2BFD4EB0C0541EA045170BD41F48011B6
:100680004FF0000E013C00F3AB8014F1360FDEBFDB
:10069000002001F0004170BDC4F10004203C35DAB7
:1006A0000C341BDC04F11404C4F1200500FA05F33A
:1006B00020FA04F001FA05F240EA020001F00042DB
:1006C00021F0004110EBD37021FA04F642EB060151
:1006D0005EEA430E08BF20EAD37070BDC4F10C047B
:1006E000C4F1200500FA04F320FA05F001FA04F23F
:1006F00040EA020001F0004110EBD37041F100012B
:100700005EEA430E08BF20EAD37070BDC4F1200535
:1007100000FA05F24EEA020E20FA04F301FA05F29D
:1007200043EA020321FA04F001F0004121FA04F245
:1007300020EA020000EBD3705EEA430E08BF20EA15
:10074000D37070BD94F0000F0FD101F0004640004F
:1007500041EB010111F4801F08BF013CF7D041EAD1
:10076000060195F0000F18BF704703F000465200D5
:1007700043EB030313F4801F08BF013DF7D043EAA6
:100780000603704794EA0C0F0CEA135518BF95EA5C
:100790000C0F0CD050EA410618BF52EA4306D1D1E3
:1007A00081EA030101F000414FF0000070BD50EA02
:1007B000410606BF1046194652EA430619D094EA8C
:1007C0000C0F02D150EA013613D195EA0C0F05D176
:1007D00052EA03361CBF104619460AD181EA0301CA
:1007E00001F0004141F0FE4141F470014FF0000082
:1007F00070BD41F0FE4141F4780170BD70B54FF01D
:10080000FF0C4CF4E06C1CEA11541DBF1CEA13559C
:1008100094EA0C0F95EA0C0F00F0A7F8A4EB05047E
:1008200081EA030E52EA03354FEA013100F0888075
:100830004FEA03334FF0805545EA131343EA12633E
:100840004FEA022245EA111545EA10654FEA0026F3
:100850000EF000419D4208BF964244F1FD0404F5AC
:10086000407402D25B084FEA3202B61A65EB030508
:100870005B084FEA32024FF480104FF4002CB6EBC5
:10088000020E75EB030E22BFB61A754640EA0C0045
:100890005B084FEA3202B6EB020E75EB030E22BF85
:1008A000B61A754640EA5C005B084FEA3202B6EBC6
:1008B000020E75EB030E22BFB61A754640EA9C0085
:1008C0005B084FEA3202B6EB020E75EB030E22BF55
:1008D000B61A754640EADC0055EA060E18D04FEA13
:1008E000051545EA16754FEA06164FEAC30343EAB3
:1008F00052734FEAC2025FEA1C1CC0D111F4801F80
:100900000BD141EA00014FF000004FF0004CB6E778
:1009100011F4801F04BF01430020B4F1FD0C88BF17
:10092000BCF5E06F3FF6AFAEB5EB030C04BFB6EB22
:10093000020C5FEA500C50F1000041EB045170BD15
:100940000EF0004E4EEA113114EB5C04C2BFD4EB42
:100950000C0541EA045170BD41F480114FF0000EC6
:10096000013C90E645EA060E8DE60CEA135594EA42
:100970000C0F08BF95EA0C0F3FF43BAF94EA0C0F45
:100980000AD150EA01347FF434AF95EA0C0F7FF4BA
:1009900025AF104619462CE795EA0C0F06D152EA0E
:1009A00003353FF4FDAE1046194622E750EA4106F2
:1009B00018BF52EA43067FF4C5AE50EA41047FF403
:1009C0000DAF52EA43057FF4EBAE12E74FF0FF3C68
:1009D00006E000BF4FF0010C02E000BF4FF0010C39
:1009E0004DF804CD4FEA410C7FEA6C5C4FEA430CB2
:1009F00018BF7FEA6C5C1BD001B050EA410C0CBF01
:100A000052EA430C91EA030F02BF90EA020F002062
:100A1000704710F1000F91EA030F58BF994208BFC9
:100A200090422CBFD8176FEAE37040F00100704786
:100A30004FEA410C7FEA6C5C02D150EA013C07D1DD
:100A40004FEA430C7FEA6C5CD6D152EA033CD3D028
:100A50005DF8040B704700BF8446104662468C4622
:100A60001946634600E000BF01B5FFF7B7FF002855
:100A700048BF10F1000F01BD4DF808EDFFF7F4FF7E
:100A80000CBF012000205DF808FB00BF4DF808ED09
:100A9000FFF7EAFF34BF012000205DF808FB00BF2C
:100AA0004DF808EDFFF7E0FF94BF012000205DF84E
:100AB00008FB00BF4DF808EDFFF7CEFF94BF012003
:100AC00000205DF808FB00BF4DF808EDFFF7C4FFFC
:100AD00034BF012000205DF808FB00BF4FEA410C45
:100AE0007FEA6C5C02D150EA013C0AD14FEA430C28
:100AF0007FEA6C5C02D152EA033C02D14FF0000065
:100B000070474FF0010070474FEA410212F50012A2
:100B100015D211D56FF47873B3EB625212D94FEA44
:100B2000C12343F0004343EA505311F0004F23FA2E
:100B300002F018BF404270474FF00000704750EA83
:100B4000013005D111F0004008BF6FF00040704740
:100B50004FF00000704700BF53B94AB9002908BFE1
:100B600000281CBF4FF0FF314FF0FF3000F06AB992
:100B7000ADF1080C6DE904CE00F006F8DDF804E0F4
:100B8000DDE9022304B070472DE9F047089D0C46CB
:100B9000002B4ED194468C458646B2FA82F262D939
:100BA0004AB1C2F12003914020FA03F30CFA02FC8F
:100BB000194300FA02FE4FEA1C471FFA8CF6B1FBFC
:100BC000F7F44FEA1E4307FB141143EA014304FB09
:100BD00006F199420AD91CEB030304F1FF3080F0BF
:100BE0001281994240F20F81023C6344591A1FFA64
:100BF0008EF3B1FBF7F007FB101143EA014300FB52
:100C000006F69E420AD91CEB030300F1FF3180F087
:100C1000FC809E4240F2F980634402389B1B40EA0C
:100C2000044000211DB1D3400022C5E90032BDE8D7
:100C3000F0878B4205D90DB1C5E9000100210846B6
:100C4000F5E7B3FA83F1002946D1A34202D39042DB
:100C5000C0F0F080861A64EB03030120002DE6D07B
:100C6000C5E90063E3E7002A40F09080A1EB0C04A3
:100C70004FEA1C481FFA8CF70121B4FBF8F64FEA43
:100C80001E4308FB164443EA044307FB06F0984260
:100C900008D91CEB030306F1FF3402D2984200F29C
:100CA000CD8026461C1A1FFA8EF3B4FBF8F008FB21
:100CB000104443EA044300FB07F79F4208D91CEBAA
:100CC000030300F1FF3402D29F4200F2B0802046BD
:100CD000DB1B40EA0640A5E7C1F120068B4022FA63
:100CE00006F71F4320FA06FC04FA01F343EA0C035B
:100CF000F44000FA01F8380C4FEA1349B4FBF0FE57
:100D00001FFA87FC00FB1E4449EA04440EFB0CF961
:100D1000A14502FA01F20AD93C190EF1FF3A80F01E
:100D20008480A14540F28180AEF1020E3C44A4EBE8
:100D300009041FFA83F9B4FBF0F300FB134449EAFA
:100D4000044403FB0CFCA44507D93C1903F1FF3014
:100D500067D2A44565D9023B3C4443EA0E40A0FB60
:100D60000293A4EB0C049C42CE469C4651D34ED039
:100D700055B1B8EB0E0364EB0C0404FA06F6CB4055
:100D80001E43CC40C5E90064002150E7C2F12003B6
:100D900020FA03F10CFA02FC24FA03F394400C430A
:100DA0004FEA1C4800FA02FE1FFA8CF7B3FBF8F07A
:100DB00008FB1031230C43EA014300FB07F1994281
:100DC00008D91CEB030300F1FF362CD299422AD933
:100DD000023863445B1AA4B2B3FBF8F108FB113389
:100DE00044EA034401FB07F3A34208D91CEB0404C3
:100DF00001F1FF3613D2A34211D902396444E41A37
:100E000041EA004139E70446F0E6084606E7C845EE
:100E1000AED2B9EB020E63EB070C0138A8E73146FE
:100E2000EDE7034699E73046D4E7D6467FE76344CB
:100E300002384DE70646234608460FE7023E634464
:100E400030E700BF704700BFD458C4500433C41803
:100E50008C42F9D37047036004308842FBD370475B
:100E60000C48854609F072FB0B480C490C4A0023DC
:100E7000FFF7EDFF0B480C490023FFF7EEFF0B488F
:100E80000B490023FFF7E9FF14F09EFB01F0DAFDA8
:100E9000FEE700000000032008000020640300209B
:100EA00040F00108C00300208C350020E40103203D
:100EB000670A0320FEE7000080B483B000AF7860CB
:100EC000064BD3F8902005497B681343C1F8903056
:100ED00000BF0C37BD465DF8047B70470008005822
:100EE00080B485B000AF78604FF0B043DA6C4FF05B
:100EF000B0417B681343CB644FF0B043DA6C7B683E
:100F00001340FB60FB6800BF1437BD465DF8047BEF
:100F1000704780B485B000AF78604FF0B043D3F82D
:100F20004C214FF0B0417B681343C1F84C314FF076
:100F3000B043D3F84C217B681340FB60FB6800BFD3
:100F40001437BD465DF8047B704780B500AF09F0EB
:100F5000C3FB09F0C7FB4FF48030FFF7ADFF11F082
:100F600027F800F021F800F0C1F800BF80BD0000B4
:100F7000B0B588B000AF0B4B3C1D1D460FCD0FC464
:100F800095E8070003C422800234130C237012F08A
:100F900049FD3B1D184611F04AFD00BF2037BD46F4
:100FA000B0BD00BF3074010880B588B000AF3B1DF4
:100FB00000221A605A609A60DA601A610023BB83CB
:100FC00000237B8300233B830023FB7736E0FB7FFA
:100FD000434ADB0013449B79002B2CD0FB7F404A13
:100FE00052F833303F4A93421BD03E4A934221D8B5
:100FF000B3F1904F03D03C4A934209D01AE0FB7FF3
:10100000374ADB0013449A88BB8B1343BB8312E03F
:10101000FB7F334ADB0013449A887B8B13437B832B
:1010200009E0FB7F2E4ADB0013449A883B8B134375
:101030003B8300E000BFFB7F0133FB77FB7F252B69
:10104000C5D90023FB600123BB6003233B61BB8B3D
:10105000002B14D0BB8B7B600120FFF741FF0120E8
:10106000FFF757FF3B1D19464FF0904009F082FFF4
:10107000BB8B002219464FF090400AF0E1F97B8BC0
:10108000002B12D07B8B7B600220FFF729FF022010
:10109000FFF73FFF3B1D1946134809F06BFF7B8BA1
:1010A0000022194610480AF0CBF93B8B002B13D0D5
:1010B0003B8B7B600420FFF713FF0420FFF729FF21
:1010C0003B1D1946074809F055FF3B8B0022194686
:1010D00004480AF0B5F900BF00BF2037BD4680BD07
:1010E00064940108000800480004004880B400AF80
:1010F00000BFBD465DF8047B704780B500AF01F0CE
:1011000055FC00BF80BD000080B483B000AF7860A4
:10111000074BD3F8803023F0070205497B6813435F
:10112000C1F8803000BF0C37BD465DF8047B7047C6
:101130000004005880B483B000AF7860064BD3F849
:10114000902005497B681343C1F8903000BF0C37ED
:10115000BD465DF8047B70470008005880B483B03A
:1011600000AF78604FF0B0430A4AC3F89C204FF0BC
:10117000B043D3F89C3023F47C527B681B024FF0C1
:10118000B0411343C1F89C3000BF0C37BD465DF839
:10119000047B7047FECAFECA80B483B000AF78609B
:1011A0004FF0B0439B6823F400424FF0B0417B689E
:1011B00013438B6000BF0C37BD465DF8047B70475E
:1011C00080B400AF044B1B68C3F30B031846BD4645
:1011D0005DF8047B704700BF002004E080B400AFDE
:1011E000044B1B681B0C9BB21846BD465DF8047B84
:1011F000704700BF002004E080B400AF054B1B69BE
:10120000044A23F00403136100BFBD465DF8047B6C
:10121000704700BF00ED00E080B483B000AF78609D
:101220007B68FF225A6200BF0C37BD465DF8047B25
:10123000704780B483B000AF78607B68CA225A627E
:101240007B6853225A6200BF0C37BD465DF8047BB1
:10125000704780B483B000AF786039607B689B686A
:1012600023F007023B681A437B689A6000BF0C3783
:10127000BD465DF8047B704780B500AF044B4FF46A
:1012800000421A6100F060F800F065F800BF80BD10
:101290000040005880B500AF00F071F800F08AF807
:1012A0001E49002001F080F8FFF74FFE01210120C8
:1012B00012F072FF0021002008F022FD184812F001
:1012C0003DFC002012F090FC0021002008F03CFFC3
:1012D000002008F0E5FD002008F00EFE114812F095
:1012E000CBFCFF2012F0A0FC002012F0B1FC00218A
:1012F000002008F029FF002008F0FEFD01230A4A23
:101300000021002012F02EFD002008F0F5FD00F075
:1013100085FA00F05DF800BF80BD00BFC404002066
:1013200030E701088C0100204C74010880B400AF44
:1013300000BFBD465DF8047B704780B500AF50200C
:10134000FFF7F8FE00BF80BD80B400AF00BFBD4610
:101350005DF8047B704780B582B000AF002011F0CB
:1013600027FB78607B68002B05D07B689B7918464B
:10137000FFF7F4FE00BF00BF0837BD4680BD80B553
:1013800000AFFFF7D3FFFFF7D8FF00F003F800BF6F
:1013900080BD000080B500AF0548FFF74AFF00217F
:1013A0000348FFF756FF0248FFF736FF00BF80BD36
:1013B0000028004080B500AF4FF40040FFF7ECFE7E
:1013C00012F0D8FE0420FFF79FFE00BF80BD000092
:1013D00080B588B000AF12F06FF9114A00214020AB
:1013E00013F006F80F4B3B600F4B7B603B461946F2
:1013F0000E4811F0F7FB0E4BBB600E4BFB600E4B23
:101400003B6140F23C537B6107F10803184612F040
:1014100095FA12F04BF900BF2037BD4680BD00BFE2
:101420001D2C0108340703203D1400085514000842
:101430004C09032040080320F801032080B483B046
:1014400000AF0346FB7100BF0C37BD465DF8047B5F
:101450007047000080B588B000AF78607B685B683B
:101460000B33FB61FB691B889BB2A3F51243072B6F
:1014700000F2D08001A252F823F000BF9D140008B2
:101480002F150008511500081516000895150008BD
:10149000B9150008D5150008F915000807F10C0367
:1014A000184611F0F1FA5E4810F059FD01464FF46C
:1014B000C8735C4A5C4813F091FE3B7B19467B7B0A
:1014C0001A46BB7B594813F089FE554810F047FD7A
:1014D000014640F29113534A534813F07FFE3B7C80
:1014E0001946534813F07AFE4D4810F038FD014676
:1014F0004FF4C9734B4A4C4813F070FEBB7D19463C
:10150000FB7D1A463B7E4B4813F068FE444810F0C2
:1015100026FD01464FF4CA73424A434813F05EFE6B
:10152000454813F0C3FE786800F0E0F873E03C48EB
:1015300010F015FD014640F299133A4A3A4813F06B
:101540004DFE3E4813F0B2FE786800F085F862E088
:10155000334810F004FD01464FF4CF73314A32484E
:1015600013F03CFE364813F0A1FE2D4810F0F7FCB6
:10157000014640F29F132B4A2B4813F02FFEFB69C4
:1015800002331968FB6902335B681A462D4813F071
:1015900025FE40E0224810F0E2FC014640F2A5138F
:1015A000204A214813F01AFEFB6902331B681946D2
:1015B000254813F013FE2EE0194810F0D0FC014628
:1015C0004FF4D573174A184813F008FE1F4813F05C
:1015D0006DFE20E0124810F0C2FC01464FF4D773B4
:1015E000104A114813F0FAFDFB6902331B681946D3
:1015F000174813F0F3FD0EE0094810F0B0FC014667
:1016000040F2B313074A084813F0E8FD114813F0FD
:101610004DFE00E000BF00BF2037BD4680BD00BFCB
:101620006074010894950108E874010800750108C8
:101630002875010848750108607501088075010862
:10164000A4750108F4750108207601085C7601088C
:1016500080760108BC76010880B584B000AF786060
:101660007B685B680B33FB60FB680233BB60194827
:1016700010F075FC014640F2CB13174A174813F0DF
:10168000ADFDBB681B781946154813F0A7FDBB6874
:101690001B78002B0DD10F4810F061FC01464FF470
:1016A000E8730D4A0D4813F099FD0E4813F0FEFD46
:1016B0000DE0084810F053FC01464FF4EA73064A67
:1016C000064813F08BFD084813F0F0FD00BF1037FB
:1016D000BD4680BD60740108A8950108E874010842
:1016E000E0760108147701085077010880B58AB0C8
:1016F00000AF786007F1080300221A605A609A6010
:10170000DA6000237B6200233B627B685B680B33FB
:10171000FB61FB690233BB61BB691B78002B46D1BF
:10172000364810F01CFC01464FF4F573344A354836
:1017300013F054FD344813F0B9FDFFF719FC0F23E3
:101740003B727F23BB72FFF749FD78622B4810F094
:1017500006FC014640F20223294A2A4813F03EFDC6
:10176000796A2A4813F03AFD7B6A9BB2BB82FFF785
:1017700027FD3862214810F0F2FB014640F20723B2
:101780001F4A204813F02AFD396A214813F026FD2C
:101790003B6A9BB2FB8207F10803184611F05EF921
:1017A00002F040FA0021012012F0F6FC22E0BB69B1
:1017B0001B78012B10D1114810F0D1FB01464FF4DA
:1017C00005730F4A0F4813F009FD124813F06EFD20
:1017D0007B6800221A700DE0084810F0C0FB01463B
:1017E00040F21B23064A074813F0F8FC0A4813F09E
:1017F0005DFD00BF2837BD4680BD00BF6074010895
:10180000BC950108E87401088C770108A8770108E5
:10181000CC770108F07701082478010880B500AF83
:101820000121002008F0B8F80121012008F0B4F8E7
:1018300000BF80BD80B584B000AF786008F028FF9D
:10184000B8607B68FB60FB68B3F1FF3F0AD008F02B
:1018500037FF03461A46FB681344FB6002E0FFF7BC
:10186000CBFC30BF08F014FF0246BB68D31AFA68FD
:101870009A42F4D800BF00BF1037BD4680BD80B586
:1018800000AF4FF0FF3012F0B7FC00BF80BD80B456
:1018900000AF00BFBD465DF8047B704780B582B0E5
:1018A00000AF786039604FF0FF3012F0A5FC00BF48
:1018B0000837BD4680BD80B582B000AF786000219A
:1018C000402012F0B7FD00BF0837BD4680BD80B58F
:1018D00082B000AF7860022012F018FE00BF083717
:1018E000BD4680BD80B582B000AF7860022012F0A6
:1018F0002DFE00BF0837BD4680BD000080B582B018
:1019000000AF0346FB80FB88B3F5005F1FD0B3F543
:10191000005F1FDC102B0EDC022B1BDB1A46104B6A
:10192000D34003F00103002B14BF01230023DBB2DB
:10193000002B04D10EE0B3F5805F05D00AE0FB88F0
:10194000184606F0AFFE06E002F032FF03E002F0B8
:1019500067FF00E000BF00BF0837BD4680BD00BF85
:101960001401010080B582B000AF0346FB71094845
:1019700013F09CFC084B1B78FA799A4205D0074B70
:1019800001221A70044AFB79137000BF0837BD4664
:1019900080BD00BFA878010808000020DF030020F8
:1019A00080B400AF034B00221A7000BFBD465DF843
:1019B000047B7047DF03002080B400AF034B1B782B
:1019C0001846BD465DF8047B704700BFDF0300206A
:1019D00080B483B000AF0346FB71044AFB791370F7
:1019E00000BF0C37BD465DF8047B7047DE03002066
:1019F00080B400AF034B1B781846BD465DF8047BEE
:101A0000704700BFDE03002080B582B000AF786071
:101A1000064B18787A681346DB021344194600F027
:101A20009BFE00BF0837BD4680BD00BFDD03002020
:101A300080B500AFFFF7DCFF0346022B0AD0022B74
:101A40000CDC002B0CD0012B00D007E00520FFF7A9
:101A500089FF06E00220FFF785FF02E000BF00E0FB
:101A600000BF00BF80BD000080B500AF084B1B78F1
:101A7000002B09D0064B1B781846FFF773FF044B69
:101A800000221A70002300E00123184680BD00BF29
:101A9000E003002080B500AFFFF7E6FFFFF78CFF03
:101AA0000346002B35D0FFF77BFF1B4B1B78013B18
:101AB000042B2BD801A252F823F000BFD11A000842
:101AC000D71A0008E31A0008E91A0008FB1A0008F0
:101AD00004F0A4F81DE004F08FF90020FFF778FF70
:101AE00017E004F077FA14E004F062FB0120FFF73E
:101AF0006FFF0320FFF788FF0BE004F047FC022094
:101B0000FFF766FF0A20FFF77FFF02E004F086F888
:101B100000BF00BF80BD00BF0800002080B500AF3F
:101B20000021202012F086FC202012F065FB00BF6F
:101B300080BD000080B500AF0C4A0021202012F0CB
:101B400057FC0B4B01220B49002000F007FD0A4B0C
:101B500000220A49002000F001FD064B1B781421E9
:101B6000184600F0F9FD00BF80BD00BF951A0008BF
:101B70001D1B0008DC030020311A0008DD030020D3
:101B800080B483B000AF7860064BD3F8802005495D
:101B90007B681343C1F8803000BF0C37BD465DF849
:101BA000047B70470008005880B483B000AF7860B1
:101BB000054B1A6804497B6813430B6000BF0C3760
:101BC000BD465DF8047B70470008005880B483B0C0
:101BD00000AF0D4B9B6A9BB27B600B4B9B6A9BB229
:101BE0003B6005E03B687B60074B9B6A9BB23B60B8
:101BF0007A683B689A42F5D13B6818460C37BD4677
:101C00005DF8047B704700BF0028004080B485B0B9
:101C100000AF03460A46FB711346BB71BA791D49F2
:101C200013465B001344DB000B4415331B78FB7336
:101C3000FB7B062B09D0FA7B164913465B00134445
:101C4000DB000B441433FA791A70FA791149134600
:101C50005B001344DB000B441533FA7B1A70FA79EE
:101C60000C4913465B001344DB000B441433BA7970
:101C70001A70BA79074913465B001344DB000B4422
:101C80001533FA791A7000BF1437BD465DF8047B2E
:101C9000704700BFE403002080B485B000AF034666
:101CA0000A46FB711346BB71294B1B78DBB2BA792C
:101CB0009A4232D0BA79274913465B001344DB00BD
:101CC0000B4414331B78FB73FA7B224913465B00E9
:101CD0001344DB000B441533FA791A70FA791D4965
:101CE00013465B001344DB000B441533BA791A70BA
:101CF000FA79184913465B001344DB000B44143394
:101D0000FA7B1A70BA79134913465B001344DB005F
:101D10000B441433FA791A7014E0FA790D4913461A
:101D20005B001344DB000B441533BA791A70BA799F
:101D3000084913465B001344DB000B441433FA7963
:101D40001A7000BF1437BD465DF8047B704700BFB2
:101D500074040020E403002080B584B000AF034683
:101D6000FB714E4B1B78DBB2062B18D14B4B1B780B
:101D7000DAB24B4B1A70494AFB791370FA79494928
:101D800013465B001344DB000B44153306221A7024
:101D9000454B4FF0FF321A600023FB8178E000F0E2
:101DA00009F90346FB81FA793E4913465B00134467
:101DB000DB000B4408331968FB89FA791944394868
:101DC00013465B001344DB00034408331960FA79BF
:101DD000344913465B001344DB000B4408331B6893
:101DE000BB602E4B1B78DBB219462E4A0B465B00BC
:101DF0000B44DB00134408331B68BA689A4237D39C
:101E0000264B1B787B737A7B264913465B00134471
:101E1000DB000B4415331B783B7313E07A7B2149BD
:101E200013465B001344DB000B4415331B787B73B4
:101E30007A7B1C4913465B001344DB000B441533CB
:101E40001B783B733B7B062B0BD03A7B1549134623
:101E50005B001344DB000B4408331B68BA689A42EA
:101E6000DCD27A7BFB7911461846FFF7CFFE0FE0F4
:101E70000A4B1B78DAB2FB7911461846FFF70CFFC4
:101E8000064B1B78DAB2064B1A70044AFB791370C2
:101E9000FB8918461037BD4680BD00BF7404002082
:101EA00075040020E40300207804002080B485B08D
:101EB00000AF03460A46FB711346BB71394B1B78D2
:101EC000DBB2FA799A4211D1364B1B78DAB2364B33
:101ED0001A70FA79354913465B001344DB000B4452
:101EE00015331B78DAB22F4B1A703EE0FA792F497E
:101EF00013465B001344DB000B4414331B78FB7365
:101F0000FA792A4913465B001344DB000B4415336E
:101F10001B78BB73F979FA7B24480B465B000B44B2
:101F2000DB00034415331B78D8B2204913465B000D
:101F30001344DB000B44153302461A70BB7B062B9F
:101F400013D0F979BA7B19480B465B000B44DB00D0
:101F5000034414331B78D8B2144913465B0013446E
:101F6000DB000B44143302461A70FA790F4913460A
:101F70005B001344DB000B440C3301221A70094B45
:101F80001B78DBB2062B07D1BB79002B04D1084BA1
:101F90004FF0FF321A6000BF00BF1437BD465DF836
:101FA000047B70477404002075040020E4030020C3
:101FB0007804002080B582B000AF1A4B1B68B3F1E3
:101FC000FF3F26D0FFF702FE7860164B1B687A6849
:101FD0009A4205D8134B1A687B68D31A7B600AE0D3
:101FE000114B1B881A467B68D31A3B600D4B1B684C
:101FF0003A6813447B600D4B1B781A467B6802FBE2
:1020000003F37B600A4B1B781A467B68D3407B60E6
:1020100001E000237B607B689BB218460837BD4611
:1020200080BD00BF78040020800400207E040020D2
:102030007D04002080B582B000AF0346FB80FB88A2
:10204000002B08D1FFF7C2FD0346214A136003208D
:1020500008F0CBFC39E0FB88012B03D81D4B1B7823
:10206000012B02D0FB88013BFB8000BF1A4B1B6891
:10207000DB6803F00403002BF8D0174B1B68DB6808
:10208000DAB2154B1B6862F49062DA60134B4FF4BE
:102090000022DA60032008F0B6FC114B5B691B0CD0
:1020A0001B04FA880E4913434B61FFF78FFD03466B
:1020B000074A1360084B1B689A68074B1B6842F479
:1020C00080629A60AFF3008000BF0837BD4680BDD4
:1020D000780400207D040020C4040020000800587B
:1020E0000028004080B584B000AF454B9B6803F4E6
:1020F0008063B3F5806F07D100BF424B1B68DB687C
:1021000003F00403002BF8D13E4B1B689A683D4B4B
:102110001B6822F480629A603B4B1B78FB73FA7B4E
:102120003A4913465B001344DB000B4408331B6839
:10213000BB60FFF73FFF0346FB80FB88BA689A420B
:1021400005D20023BB81324B01221A704DE0FB887F
:10215000304A128892B213441A46BB68934206D999
:102160002C4B1B88BB812A4B00221A703DE0BB68B8
:102170009AB2FB88D31ABB81254B01221A7034E036
:10218000FA7B224913465B001344DB000B440833FF
:102190001A68FB889A420AD2FA7B1C4913465B00F4
:1021A0001344DB000B44083300221A6013E0FA7B6F
:1021B000164913465B001344DB000B4408331968CF
:1021C000FB88FA7BC91A114813465B001344DB00F5
:1021D000034408331960FA7B0C4913465B0013442F
:1021E000DB000B4415331B78FB73FB7B062BC7D13D
:1021F000BB891846FFF71EFF00BF1037BD4680BDE4
:1022000000280040C404002074040020E4030020DF
:102210007C0400208204002080B58AB000AFEFF378
:1022200010837B617B697B6272B600BF594B1B6870
:10223000CA225A62574B1B6853225A62554B1B687D
:102240009A68544B1B6822F480629A60524B1B7848
:1022500087F8233097F82320504913465B00134436
:10226000DB000B440C331B78DBB2022B6ED197F8EA
:1022700023204A4913465B001344DB000B441B68D0
:10228000FB6197F82320454913465B001344DB00AC
:102290000B4410331B68BB61414B1B78DBB2002B36
:1022A0004CD097F823203D4913465B001344DB00D4
:1022B0000B440D331B78DBB2012B24D197F823306C
:1022C00001211846FFF7F2FD7B6A3B613B6983F30E
:1022D000108800BF97F82320304913465B00134451
:1022E000DB000B4404331A6897F823301146184674
:1022F00000F032FA274B1B68CA225A62254B1B6832
:1023000053225A6212E07B6AFB60FB6883F31088F9
:1023100000BF97F82330184600F09AF91D4B1B6850
:10232000CA225A621B4B1B6853225A6297F8233009
:10233000FA691946B86900F095FA22E0FFF7D2FE73
:102340007B6ABB60BB6883F310881AE000BF114B47
:102350001B68DB6803F00403002BF8D00D4B1B68EF
:10236000DB68DAB20B4B1B6862F49062DA600D4BEB
:102370004FF40022DA607B6A7B607B6883F310880D
:1023800000BF044B1B68FF225A6200BF2837BD46BE
:1023900080BD00BFC404002074040020E4030020BA
:1023A0007C0400200008005880B588B000AF0346C8
:1023B0003960FB715E4B1B68CA225A625C4B1B681A
:1023C00053225A625B4B9B685A4A43F02003936046
:1023D000584B9B68DBB203F00703DBB2C3F1040385
:1023E000DAB2554B1A70534B1B6903F4FE034FF4DA
:1023F000FE023A613A6992FAA2F2FA60FA687A61E8
:102400007A69002A01D1202203E07A69B2FA82F2C5
:10241000D2B2D340DBB20133DAB2484B1A70454B2B
:102420001B699BB2C3F30E039BB201339AB2444BB8
:102430001A80434B1B88013B404A127802FB03F38E
:10244000A3F5A0733C4A1278D340BB61BB694FF639
:10245000FE72934204D93B4B4FF6FF721A8003E0A1
:10246000BB699AB2374B1A804FF40020FFF79CFBF0
:102470004FF40020FFF784FBFB79002B3DD1324B5A
:1024800001221A70314B4FF0FF321A600023FB77A4
:102490000CE0FA7F2E4913465B001344DB000B442B
:1024A0000C3300221A70FB7F0133FB77FB7F052B77
:1024B000EFD9284B06221A701D4B1B689A681C4BDB
:1024C0001B6822F480629A60194B1B68DB68DAB2E1
:1024D000174B1B6862F49062DA601F4B4FF40022C6
:1024E000DA60032008F08FFA114B1B689A68104BD2
:1024F0001B6842F480429A6009E00D4B1B68DB6860
:1025000003F48063002B02D0032008F06EFA084B1E
:102510001B68FF225A6200220321032008F023FADD
:10252000032008F03AFA00BF2037BD4680BD00BF47
:10253000C4040020002800407D0400207E04002008
:1025400080040020820400207C0400207804002005
:10255000E4030020740400200008005880B48BB00D
:1025600000AFF860B9603B601346FB71002387F849
:102570002630EFF31083FB61FB693B6272B600BF4C
:1025800004E097F82630013387F8263097F8263094
:10259000052B0CD897F826202C4913465B001344D2
:1025A000DB000B440C331B78DBB2002BE9D197F82E
:1025B0002630062B38D097F82620244913465B0096
:1025C0001344DB000B440C3301221A703B6ABB61DD
:1025D000BB6983F3108800BF97F826201B49134678
:1025E0005B001344DB000B441033FA681A6097F861
:1025F0002620164913465B001344DB000B440D33C1
:10260000FA791A7097F82620104913465B00134494
:10261000DB000B443A681A60BB6897F826201A70F2
:10262000002387F8273008E03B6A7B617B6983F3EE
:10263000108800BF012387F8273097F82730184605
:102640002C37BD465DF8047B704700BFE4030020D3
:1026500080B586B000AF0346FB71EFF31083FB60DB
:10266000FB687B6172B600BF032008F0A4F9344B0D
:102670001B68CA225A62324B1B6853225A62FA798B
:10268000304913465B001344DB000B440C331B78CA
:10269000DBB2022B42D1FB7900211846FFF706FC82
:1026A000294B1B78FB74FB7C062B2FD1274B9B6897
:1026B00003F48063B3F5806F07D100BF204B1B6824
:1026C000DB6803F00403002BF8D11D4B1B689A68EC
:1026D0001B4B1B6822F480629A6000BF184B1B687A
:1026E000DB6803F00403002BF8D0154B1B68DB6894
:1026F000DAB2134B1B6862F49062DA60144B4FF449
:102700000022DA60032008F07EF907E0114B1B7805
:10271000DBB2FA7C9A4201D0FFF7E4FC084B1B685D
:10272000FF225A62032008F038F97B69BB60BB685E
:1027300083F3108800BF00BF1837BD4680BD00BFBF
:10274000C4040020E403002074040020002800409A
:10275000000800587504002080B586B000AF03461D
:102760003960FB71FA793B4913465B001344DB0087
:102770000B440C331B78DBB2022B03D1FB791846D8
:10278000FFF766FFEFF31083FB60FB687B6172B6B7
:1027900000BF032008F00FF92F4B1B68CA225A62B2
:1027A0002D4B1B6853225A62FA792A4913465B0063
:1027B0001344DB000B440C3302221A70FA792549CA
:1027C00013465B001344DB000B4408333A681A607D
:1027D000FA79204913465B001344DB000B440433B1
:1027E0003A681A60FB791846FFF7B6FA03467B820F
:1027F0001A4B1B787B741A4B1B78DBB27A7C9A429B
:1028000002D0FFF76FFC13E0FA79124913465B0020
:102810001344DB000B44083319687B8AFA79C91A20
:102820000C4813465B001344DB0003440833196073
:10283000094B1B68FF225A62032008F0AEF87B693F
:10284000BB60BB6883F3108800BF00BF1837BD466C
:1028500080BD00BFE4030020C404002074040020F5
:102860007504002080B584B000AFF8600B467A6034
:10287000FB727B68984700BF1037BD4680BD0000E3
:1028800080B582B000AF78607B681B681A46094B40
:102890009A4207D1084B1B68002B05D0064B1B68DA
:1028A000984701E000BF00E000BF00BF0837BD4609
:1028B00080BD00BF008000408404002080B483B04D
:1028C00000AF78604FF0B043D3F8903023F0180297
:1028D0004FF0B0417B681343C1F8903000BF0C3714
:1028E000BD465DF8047B704780B485B000AF78606A
:1028F0004FF0B0439A6C4FF0B0417B6813438B6448
:102900004FF0B0439A6C7B681340FB60FB6800BFDC
:102910001437BD465DF8047B704780B485B000AFC6
:1029200078604FF0B043DA6C4FF0B0417B681343EE
:10293000CB644FF0B043DA6C7B681340FB60FB68FC
:1029400000BF1437BD465DF8047B704780B483B088
:1029500000AF78607B68FF225A6200BF0C37BD462B
:102960005DF8047B704780B483B000AF78607B680B
:10297000CA225A627B6853225A6200BF0C37BD4696
:102980005DF8047B704780B483B000AF7860396035
:102990007B689B6823F007023B681A437B689A6058
:1029A00000BF0C37BD465DF8047B704780B500AFB3
:1029B000224B234A1A60214B4FF4E1325A601F4BDD
:1029C00000229A601D4B0022DA601C4B00221A6123
:1029D0001A4B0C225A61194B00229A61174B0022A4
:1029E0001A62164B00225A62144B00229A62134B51
:1029F00000225A6611480CF007FE0346002B01D056
:102A000000F0D9FC00210D480DF00FFF0346002B0C
:102A100001D000F0D0FC002108480DF044FF03462F
:102A2000002B01D000F0C7FC04480DF0C5FE0346A2
:102A3000002B01D000F0BFFC00BF80BDDC050020F2
:102A40000080004080B500AF07F0B4FDFEF714FC35
:102A500000F028F800F082F800F0A0F800F0A4FCE4
:102A600000F0FEF800F0EAF800F0B4F8FFF79EFF7F
:102A700000F0A8F800F0F4FB00F056FC00F02EFC8B
:102A8000FEF708FC03F054F8FFF754F805F082FE57
:102A90000220FEF767FF002005F0A6FEFEF7EFFE1E
:102AA00000BFF8E780B59AB000AF07F120034822D5
:102AB0000021184612F00AFD3B1D00221A605A60E0
:102AC0009A60DA601A615A619A6109F07BFB102002
:102AD000FFF7F4FE204B1B6823F4C0631E4A43F447
:102AE000007313601C4B1B6803F4C0633B603B68BE
:102AF00007233B624FF480337B620123BB624FF4B8
:102B00008073FB6240233B630023FB6407F12003D7
:102B100018460AF0B1FA0346002B01D000F04BFC36
:102B20006F237B600223BB600023FB6000233B61BB
:102B300000237B610023BB610023FB613B1D01215E
:102B400018460AF00DFE0346002B01D000F033FCBE
:102B500000BF6837BD4680BD0004005880B594B002
:102B600000AF3B4650220021184612F0AFFC4FF454
:102B700040533B604FF480437B640223BB640023DB
:102B8000FB643B4618460BF028FA0346002B01D0A5
:102B900000F011FC00BF5037BD4680BD80B500AFCE
:102BA000064B074A1A60054809F086FA0346002BCF
:102BB00001D000F000FC00BF80BD00BF88040020F1
:102BC000000C005880B400AF00BFBD465DF8047B28
:102BD0007047000080B500AF164B174A1A60154BBE
:102BE00000225A60134B0F229A60124B47F6FF7275
:102BF000DA60104B00221A610E4B00229A610D4BD5
:102C00000022DA610B4B00225A610A480BF06CFC7F
:102C10000346002B01D000F0CEFB0748FFF7A3FED0
:102C200000210548FFF7AFFE0348FFF78FFE00BF06
:102C300080BD00BFC40400200028004080B500AF64
:102C40000420FFF751FE0220FFF74EFE00220F2165
:102C50003A2007F088FE3A2007F09FFE00BF80BDB3
:102C600080B586B000AF3B1D00221A605A609A60A2
:102C7000DA601A610120FFF750FE0420FFF74DFED5
:102C80000220FFF74AFE0820FFF747FE1020FFF75B
:102C900044FE8020FFF741FE00220321BF4808F0D8
:102CA000CFFB00224FF44071BD4808F0C9FB002261
:102CB0004FF48071BB4808F0C3FB00220421BA48DE
:102CC00008F0BEFB00220121B64808F0B9FB002243
:102CD0004021B34808F0B4FB01224021B34808F07A
:102CE000AFFB012220214FF0904008F0A9FB3A23CE
:102CF0007B600323BB600023FB603B1D1946A84893
:102D000008F038F940F604437B600023BB600023E1
:102D1000FB603B1D1946A24808F02CF94FF40073E4
:102D20007B600223BB600023FB6000233B610A231E
:102D30007B613B1D19469D4808F01CF901237B600F
:102D40000223BB600023FB6000233B6108237B61FF
:102D50003B1D1946924808F00DF94FF480737B60D3
:102D60001223BB600023FB6000233B6104237B61D3
:102D70003B1D19468D4808F0FDF84FF481537B60E8
:102D80000223BB600023FB6000233B6108237B61BF
:102D90003B1D1946854808F0EDF84FF400437B6071
:102DA0000223BB600023FB6000233B6101237B61A6
:102DB0003B1D19464FF0904008F0DCF84FF480635B
:102DC0007B601223BB600023FB6000233B61042374
:102DD0007B613B1D19464FF0904008F0CBF84FF453
:102DE000C0537B600223BB600023FB6000233B6178
:102DF0000A237B613B1D19464FF0904008F0BAF85A
:102E000012237B600023BB600023FB603B1D19463F
:102E1000654808F0AFF84FF480637B600223BB6025
:102E20000023FB6000233B6101237B613B1D1946AE
:102E30005E4808F09FF804237B600023BB600023FA
:102E4000FB603B1D1946594808F094F84FF4407355
:102E50007B600223BB600023FB6000233B610323F4
:102E60007B613B1D19464FF0904008F083F84023EA
:102E70007B600223BB600023FB6000233B610823CF
:102E80007B613B1D19464FF0904008F073F8082312
:102E90007B600223BB600023FB6000233B610A23AD
:102EA0007B613B1D19464FF0904008F063F8032307
:102EB0007B600123BB600023FB6000233B613B1D63
:102EC0001946364808F056F84FF440437B60022319
:102ED000BB600023FB6000233B6101237B613B1D42
:102EE0001946304808F046F843F210037B6000238F
:102EF000BB600023FB603B1D19462A4808F03AF8E6
:102F00004FF401737B604FF48813BB600023FB60B8
:102F10003B1D1946234808F02DF84FF440737B60A1
:102F20000123BB600023FB6000233B613B1D19466E
:102F30001B4808F01FF868237B600223BB60002356
:102F4000FB6000233B610A237B613B1D194615484A
:102F500008F010F808237B604FF48813BB6000234F
:102F6000FB603B1D1946104808F004F84FF48073CD
:102F70007B600123BB600023FB6000233B613B1DA2
:102F80001946084807F0F6FF4FF440637B600223C0
:102F9000BB600023FB6000230AE000BF001C004868
:102FA00000080048000C00480010004800040048D9
:102FB0003B6109237B613B1D1946834807F0DAFF1B
:102FC00004237B600123BB600023FB6000233B6183
:102FD0003B1D19467D4807F0CDFF01237B6002238E
:102FE000BB600023FB6000233B610E237B613B1D24
:102FF0001946764807F0BEFF01237B600123BB60C2
:103000000023FB6000233B613B1D19466E4807F01F
:10301000B1FF02237B600023BB600223FB603B1DEA
:103020001946694807F0A6FF40237B600123BB6077
:103030000023FB6000233B613B1D1946644807F0F9
:1030400099FF40237B600123BB600123FB600123C8
:103050003B613B1D19465F4807F08CFF20237B60D6
:103060000123BB600123FB6002233B613B1D19462A
:103070004FF0904007F07EFF00224FF400414FF0E8
:10308000904008F0DDF9012210214FF0904008F047
:10309000D7F9002202214D4808F0D2F906237B60BF
:1030A0004FF48813BB600023FB603B1D19464FF0B3
:1030B000904007F05FFF18237B604FF48813BB60DC
:1030C0000023FB603B1D1946414807F053FF4FF4B6
:1030D00080637B600123BB600023FB6000233B61B6
:1030E0003B1D19463A4807F045FF48F210037B6044
:1030F0000123BB600023FB6000233B613B1D19469D
:103100004FF0904007F036FF4FF480437B60002380
:10311000BB600023FB603B1D19462B4807F02AFFCC
:1031200002237B600123BB600023FB6000233B6123
:103130003B1D1946254807F01DFF40237B600123F6
:10314000BB600023FB6000233B613B1D19464FF031
:10315000904007F00FFF20237B604FF48813BB6083
:103160000023FB603B1D19464FF0904007F002FF23
:1031700000220521072007F0F6FB072007F00DFCD1
:1031800000220521082007F0EEFB082007F005FCCF
:1031900000220521092007F0E6FB092007F0FDFBCE
:1031A000002205210A2007F0DEFB0A2007F0F5FBCC
:1031B00000220521172007F0D6FB172007F0EDFBB2
:1031C00000BF1837BD4680BD000C00480010004805
:1031D000000800480004004880B582B000AF786065
:1031E00039601D4B1D4A1A601B4B4FF482725A60A6
:1031F000194B00229A60184B4FF4E062DA60164BCC
:1032000000221A61144B00225A61134B4FF40072D2
:103210009A61114B0022DA610F4B00221A620E4BA9
:1032200000225A620C4B00229A620B4B0722DA6290
:10323000094B00221A63084B08225A6306480BF018
:1032400089FA0346002B01D000F0B5F800BF1846FC
:103250000837BD4680BD00BFD006002000300140C9
:1032600080B500AF1B4B1C4A1A601A4B4FF4827298
:103270005A60184B00229A60164B4FF4E062DA60F5
:10328000144B00221A61134B00225A61114B4FF468
:1032900000729A610F4B2022DA610E4B00221A62F3
:1032A0000C4B00225A620B4B00229A62094B0722F8
:1032B000DA62084B00221A63064B08225A6305485B
:1032C0000BF048FA0346002B01D000F074F800BF61
:1032D00080BD00BF340700200038004080B500AF3B
:1032E0000F4B104A1A600E4B02225A600C4B0122FF
:1032F0009A600B4B0022DA60094B17221A61084BC7
:1033000000225A61064B00229A61054808F078FFB6
:103310000346002B01D000F04EF800BF80BD00BF77
:1033200098070020001000A080B500AF1B4B1C4A7E
:103330001A601A4B1B4A5A60184B00229A60174BAE
:103340000122DA60154B00221A61144B00225A61E7
:10335000124B00229A61114B0022DA610F4B0022BE
:103360001A620E4808F0C0F80346002B01D000F0A6
:1033700022F80021094808F007FE0346002B01D07F
:1033800000F019F80021054808F049FE0346002B1B
:1033900001D000F010F800BF80BD00BFDC070020A6
:1033A00000540040B57DB11080B400AF00BFBD46F1
:1033B0005DF8047B704780B400AF72B600BF00BFF9
:1033C000FDE780B483B000AF78604FF0B043D3F82E
:1033D000903023F440724FF0B0417B681343C1F842
:1033E000903000BF0C37BD465DF8047B704780B459
:1033F00000AF4FF0B043D3F890304FF0B04243F4F9
:103400000043C2F8903000BFBD465DF8047B7047B2
:1034100080B485B000AF78604FF0B043DA6C4FF005
:10342000B0417B681343CB644FF0B043DA6C7B68E8
:103430001340FB60FB6800BF1437BD465DF8047B9A
:10344000704780B485B000AF78604FF0B0431A6D1C
:103450004FF0B0417B6813430B654FF0B0431A6DDA
:103460007B681340FB60FB6800BF1437BD465DF806
:10347000047B704780B485B000AF78604FF0B043F4
:103480009A6D4FF0B0417B6813438B654FF0B043AA
:103490009A6D7B681340FB60FB6800BF1437BD4624
:1034A0005DF8047B704780B485B000AF78604FF062
:1034B000B043DA6D4FF0B0417B681343CB654FF0FA
:1034C000B043DA6D7B681340FB60FB6800BF1437C4
:1034D000BD465DF8047B704780B485B000AF78606E
:1034E0004FF0B0431A6E4FF0B0417B6813430B6648
:1034F0004FF0B0431A6E7B681340FB60FB6800BF5F
:103500001437BD465DF8047B704780B500AF4FF4BB
:103510000020FFF796FF002200212E2007F023FA5B
:103520002E2007F03AFA00BF80BD000080B582B0BF
:1035300000AF78607B681B68054A934203D14FF463
:103540008010FFF77EFF00BF0837BD4680BD00BF7B
:10355000000C005880B596B000AF786007F1080302
:1035600050220021184611F0B1FF7B681B68144AF5
:10357000934220D108F026FE08F024FE4FF480701C
:10358000FFF71FFF4FF40063BB604FF48073BB6411
:1035900007F1080318460AF020FD0346002B01D06E
:1035A000FFF709FFFFF723FF4FF48060FFF762FF8B
:1035B00078680BF099F800BF5837BD4680BD00BF52
:1035C0000028004080B59CB000AF786007F15C0334
:1035D00000221A605A609A60DA601A6107F10C03DF
:1035E00050220021184611F071FF7B681B685C4A6D
:1035F000934256D10123FB6000237B6207F10C0349
:1036000018460AF0EAFC0346002B01D0FFF7D3FE70
:103610004FF48040FFF760FF0220FFF7F9FEC02360
:10362000FB6502233B6601237B660323BB660723FE
:10363000FB6607F15C0319464A4807F09BFC4A4BBE
:103640004A4A1A60484B0F225A60474B10229A6030
:10365000454B0022DA60444B80221A61424B002223
:103660005A61414B00229A613F4B0022DA613E4B86
:1036700000221A623C4807F0D5F90346002B01D01E
:10368000FFF799FE7B68384ADA67374A7B689362AE
:1036900000220021242007F066F9242007F07DF99C
:1036A00059E07B681B68324A934254D10223FB6085
:1036B0000023BB6207F10C0318460AF08EFC034698
:1036C000002B01D0FFF777FE0120FFF7ECFE04206E
:1036D000FFF79EFE0323FB6502233B6600237B6608
:1036E0000023BB660823FB6607F15C0319462148EB
:1036F00007F040FC204B214A1A601F4B11225A60F0
:103700001D4B10229A601C4B0022DA601A4B80225B
:103710001A61194B00225A61174B00229A61164B0D
:103720000022DA61144B00221A62134807F07AF97A
:103730000346002B01D0FFF73EFE7B680E4ADA6796
:103740000D4A7B68936200220021252007F00BF9C7
:10375000252007F022F900BF7037BD4680BD00BFAD
:1037600000380140000400487C0500204404024069
:10377000008000400008004870060020440002401D
:1037800080B588B000AF786007F10C0300221A60A2
:103790005A609A60DA601A617B681B681D4A93421E
:1037A00017D14FF48050FFF797FE0220FFF730FE4D
:1037B0003823FB6002233B6100237B610223BB6152
:1037C0000523FB6107F10C031946134807F0D2FBF0
:1037D0001CE07B681B68114A934217D14FF480406C
:1037E000FFF748FE0220FFF713FE4FF46043FB6033
:1037F00002233B6100237B610023BB610523FB6146
:1038000007F10C031946044807F0B4FB00BF20374A
:10381000BD4680BD00300140000400480038004033
:1038200080B588B000AF786007F10C0300221A6001
:103830005A609A60DA601A617B681B68224A934278
:103840003ED14FF48070FFF7FCFD0220FFF7E0FD52
:103850000120FFF7DDFD0820FFF7DAFD4FF40073CC
:10386000FB6002233B6100237B610023BB610A23D1
:10387000FB6107F10C031946144807F07BFB082392
:10388000FB6002233B6100237B610023BB610A23B1
:10389000FB6107F10C0319464FF0904007F06AFBFB
:1038A000E823FB6002233B6100237B610023BB61B3
:1038B0000A23FB6107F10C031946054807F05AFB80
:1038C00000BF2037BD4680BD001000A000040048A6
:1038D000000C004880B59CB000AF786007F15C0335
:1038E00000221A605A609A60DA601A6107F10C03CC
:1038F00050220021184611F0E9FD7B681B68174A29
:10390000934226D10423FB604FF44033FB6207F15E
:103910000C0318460AF061FB0346002B01D0FFF7A9
:103920004AFD0220FFF774FD4FF4C073FB651223BC
:103930003B6600237B660023BB660423FB6607F11E
:103940005C031946064807F015FB4FF40010FFF71B
:1039500091FD00BF7037BD4680BD00BF00540040E0
:103960000004004880B400AF00BFFDE780B400AFA2
:1039700000BFFDE780B400AF00BFFDE780B400AF3B
:1039800000BFFDE780B400AF00BFFDE780B400AF2B
:1039900000BFBD465DF8047B704780B400AF00BF38
:1039A000BD465DF8047B704780B400AF00BFBD46E4
:1039B0005DF8047B704780B500AF06F055FE00BF90
:1039C00080BD000080B500AF02480BF0FBFE00BFD9
:1039D00080BD00BFE804002080B500AF07F060FDA7
:1039E00000BF80BD80B500AF024807F081F900BF7D
:1039F00080BD00BF7C05002080B500AF01F03EFD1A
:103A000000BF80BD80B500AF01F06EFD00BF80BD7E
:103A100080B500AF4FF4805007F02AFD4FF40050FE
:103A200007F026FD00BF80BD80B500AFFEF7F4FBB8
:103A300000BF80BD80B500AF05F098FF00BF80BD1E
:103A400080B500AF022007F013FD00BF80BD80B538
:103A500000AF042007F00CFD00BF80BD80B500AFB3
:103A6000082007F005FD00BF80BD80B500AF102025
:103A700007F0FEFC00BF80BD80B500AF202007F03E
:103A8000F7FC00BF80BD80B400AF01231846BD46DF
:103A90005DF8047B704780B582B000AF7860396014
:103AA00011F08CFD034616221A604FF0FF331846C2
:103AB0000837BD4680BD80B582B000AF78604FF05A
:103AC000FF317868FFF7E7FF00BFFDE780B586B0FC
:103AD00000AFF860B9607A6000237B610AE0AFF361
:103AE00000800146BB685A1CBA60CAB21A707B6972
:103AF00001337B617A697B689A42F0DB7B68184608
:103B00001837BD4680BD80B483B000AF78604FF0F9
:103B1000FF3318460C37BD465DF8047B704780B410
:103B200083B000AF786039603B684FF400525A6050
:103B3000002318460C37BD465DF8047B704780B4FF
:103B400083B000AF7860012318460C37BD465DF89E
:103B5000047B704780B485B000AFF860B9607A60CC
:103B6000002318461437BD465DF8047B70470000FB
:103B700080B586B000AF7860144A154BD31A7B61CC
:103B80007B693B61134B1B68002B02D1114B124A1E
:103B90001A60104B1A687B6813443A699A4207D23C
:103BA00011F00CFD03460C221A604FF0FF3309E0C0
:103BB000084B1B68FB60074B1A687B681344054A77
:103BC0001360FB6818461837BD4680BD000003200F
:103BD00000100000300800209035002080B400AFB5
:103BE000034B1B681846BD465DF8047B704700BF59
:103BF0008075FF1F80B400AF034B1B68DBB2184613
:103C0000BD465DF8047B70478475FF1F80B400AF2C
:103C1000034B1B681B0A1846BD465DF8047B7047C2
:103C20008475FF1FF0B5B1B004AF07F19403C7F876
:103C3000AC309E4B3C1D1D460FCD0FC40FCD0FC4A5
:103C40000FCD0FC495E8070003C4228000F024FEC6
:103C50000121022010F0A0FA954A0021042010F062
:103C6000C7FB3B1D18460EF0CBFE034687F8AB3072
:103C700097F8AB30002B12D08E480EF070F9014649
:103C800040F24F138C4A8D4811F0A8FA97F8AB30E8
:103C900019468B4811F0A2FAFFF78DFB0CE085481E
:103CA0000EF05DF9014640F25513834A834811F046
:103CB00095FA844811F0FAFA00F004FE0FF050FC77
:103CC000814B002283F880207F4B4FF6FF72DA820F
:103CD0007E4A0021012010F08BFB01F081FA7C4B21
:103CE0008922DA707B4B00227B490020FEF736FCEC
:103CF000754B02225A76744B01221A7641F60D005A
:103D000001F0DAF9754B80221A80754BA0221A80D7
:103D1000012001F08BF8D7F8AC000EF0B5FE034699
:103D2000002B40F0928001F083F9C7F8A400D7F887
:103D3000A43005331B781D46D7F8A43004331B7814
:103D40001E46D7F8A43003331B781A46D7F8A430A0
:103D500002331B781946D7F8A43001331B781C4670
:103D6000D7F8A4301B7807F18000039302940191E7
:103D7000009233462A465B4911F0A0FAD7F8AC30DE
:103D80001B781A46D7F8AC305B781946D7F8AC30B8
:103D90009B7807F1680000930B46534911F08EFAA7
:103DA000D7F8AC30DB781A46D7F8AC301B7907F17E
:103DB00054004E4911F082FAD7F8AC309B7A1A467B
:103DC000D7F8AC30DB7A1946D7F8AC301B7B07F15B
:103DD000400000930B46464911F070FA0021002084
:103DE00006F0B2F9002006F087F807F180020323FD
:103DF000002100200FF0B6FF0FF052FF0346DB88D2
:103E0000194607F16802032300200FF0ABFF0FF003
:103E100047FF0346DB885B00194607F15402032382
:103E200000200FF09FFF0FF03BFF0346DB881A4690
:103E300013465B001344194607F140020323002098
:103E40000FF090FF002006F057F84FF47A60FDF76E
:103E5000F1FC0021002006F077F9002006F04CF874
:103E60000123244A002100200FF07CFF0FF018FFEF
:103E70000346DB88194607F18002032300200FF078
:103E800071FF0FF00DFF0346DB881A4613465B00F7
:103E9000134419460323184A00200FF063FF002043
:103EA00006F02AF800BFB437BD46F0BD307A0108ED
:103EB000F9200108B4780108089601084079010842
:103EC00058790108907901083C0800202151000828
:103ED0000C00002011510008BD080020C00800207F
:103EE000C2080020B8790108D8790108EC790108E6
:103EF000007A0108107A0108247A0108F0B597B019
:103F000004AF7860922387F847307B6801333B64C5
:103F10003B6C1B78FF2B00F04C82FF2B00F31884C6
:103F2000052B04D03E2B00F0878000F011BC3B6CC9
:103F300002333B623B6AB3F801309AB2A84BDB8A8A
:103F40009A4228D1A64B0022DA82A54B002283F8A0
:103F50008020A4480EF003F8014640F2DB13A24A89
:103F6000A24811F03BF9A24811F0A0F99D480DF0CC
:103F7000F6FF01464FF4EE739B4A9C4811F02EF970
:103F80003B6AB3F801309BB219463B6ADB781A46AC
:103F9000984811F023F901F04BF878627B6A0533F9
:103FA0001B781D467B6A04331B781E467B6A0333ED
:103FB0001B781A467B6A02331B7819467B6A0133E9
:103FC0001B781C467B6A1B7807F108000393029458
:103FD0000191009233462A46874911F06FF900217A
:103FE000002006F0B1F8002005F086FF0123834A87
:103FF000002100200FF0B6FE0FF052FE0346DB88D2
:10400000194607F10802032300200FF0ABFE0FF062
:1040100047FE0346DB881A4613465B0013441946E5
:104020000323774A00200FF09DFE002005F064FF77
:10403000012000F0FBFE8EE33B6C02337B637B6B65
:104040001B780C2B48D00C2B00F3B181012B00F016
:10405000EB80032B40F0AB817B6B0133FB6261484B
:104060000DF07DFF014640F205235F4A5F4811F0E5
:10407000B5F8644811F01AF95A480DF070FF01467E
:1040800040F20623584A594811F0A8F8FB6AB3F8E1
:1040900003309BB21846FCF71DFA4FF000025A4B52
:1040A000FCF782FA02460B4610461946FB6AB3F843
:1040B00005309BB21C46FB6AB3F807309BB21A4628
:1040C00013469B0013445B000193009402460B4689
:1040D0004E4811F083F86BE17B6B01333B63414841
:1040E0000DF03DFF014640F213233F4A3F4811F0D7
:1040F00075F8474811F0DAF83B6B1B78002B0DD1AF
:1041000038480DF02CFF014640F21623364A374856
:1041100011F064F83F4811F0C9F80CE031480DF097
:104120001EFF014640F21A232F4A304811F056F87C
:10413000394811F0BBF82A4BDB8A07F11E0207F160
:104140001F0118460DF010FE034687F8473097F818
:104150004730002B0DD023480DF001FF01464FF4EE
:104160000873214A214811F039F82C4811F09EF8C3
:104170001EE11C480DF0F3FE01464FF409731A4A84
:104180001A4811F02BF8264811F090F8FB7F022B0B
:1041900014D1BB7F022B11D112480DF0E0FE014675
:1041A0004FF40A73104A114811F018F8FB7F1946B2
:1041B000BB7F1A461B4811F011F8F9E009480DF0D1
:1041C000CEFE01464FF40B73074A084811F006F87B
:1041D000FB7F1946BB7F1A46124810F0FFFFE7E04D
:1041E0003C080020B47801081896010840790108BD
:1041F0006C7A0108987A0108B8790108107A0108E8
:10420000247A0108D47A01080000F43F0C7B0108ED
:104210007C7B0108AC7B0108BC7B0108CC7B0108DE
:10422000EC7B0108107C01087B6B0133BB62AC4B5B
:1042300093F881301846FEF70BFAAA480DF08FFE6E
:10424000014640F23D23A84AA84810F0C7FFBB6AC8
:10425000B3F801309BB21946A54810F0BFFFA14842
:104260000DF07DFE014640F23E239F4A9F4810F02C
:10427000B5FFBB6A9B7A1846BB6A5B7A1C46BB6A71
:104280001B7A1D46BB6ADB791A46BB6A9B791946C5
:10429000BB6A5B790293019100922B46224601464C
:1042A000944810F09BFF8F480DF059FE014640F2F4
:1042B00045238D4A8D4810F091FFBB6AB3F80B304F
:1042C0009BB21846FCF706F94FF000028A4BFCF748
:1042D0006BF902460B4610461946BB6AB3F80D301F
:1042E0009BB21C46BB6AB3F80F309BB21A4613460A
:1042F0009B0013445B000193009402460B467F48E9
:1043000010F06CFF764B93F88030042B04D1744B83
:10431000062283F8802003E0714B052283F8802079
:10432000BB6AB3F801309AB26D4BDA8200F080FEBE
:1043300078627B6A05331B781D467B6A04331B78E1
:104340001E467B6A03331B781A467B6A02331B784E
:1043500019467B6A01331B781C467B6A1B7807F180
:104360000800039302940191009233462A4664495F
:1043700010F0A4FF0FF094FC0346DB88194607F108
:104380000802032300200FF0EDFC0FF089FC034628
:10439000DB881A4613465B00134419460323594A27
:1043A00000200FF0DFFC002005F0A6FD00E000BFBC
:1043B000D1E13B6C0233FB63FB6B1B889BB240F289
:1043C0000A42934222DCB3F5806FC0F2C381A3F5A9
:1043D00080630A2B00F2BE8101A252F823F000BFD5
:1043E000194400088746000835440008A74400081F
:1043F000C344000825450008554700080D4700083C
:1044000095450008CD450008B145000840F60E422C
:10441000934200F089819DE132480DF0A0FD0146F4
:104420004FF41E73304A314810F0D8FE364810F071
:104430003DFF8CE12B480DF092FD01464FF41F73B8
:10444000294A2A4810F0CAFE304810F02FFF244BAA
:10445000DB8A2F4918460CF0E9FC034687F8473001
:1044600097F84730002B10D01E480DF078FD01461C
:1044700040F281231C4A1D4810F0B0FE97F84730E7
:104480001946244810F0AAFE61E116480DF067FDB8
:10449000014640F28523144A144810F09FFE1E483E
:1044A00010F004FF53E10F480DF059FD014640F2B2
:1044B0008A230D4A0D4810F091FE184810F0F6FEC0
:1044C00045E108480DF04BFD014640F28E23064AB7
:1044D000064810F083FE124810F0E8FE37E100BFF6
:1044E0003C080020B47801081896010840790108BA
:1044F000347C0108807C01080000F43F0C7B01083B
:10450000B8790108D07C0108DC7C01080C7D010829
:1045100040E20100347D0108687D0108907D0108BA
:10452000BC7D01088E480DF01AFD014640F2922331
:104530008C4A8D4810F052FE8C4810F0B7FE8C4B20
:10454000DB8A18460CF097FE034687F8473097F849
:104550004730002B10D082480DF001FD014640F29B
:104560009623804A804810F039FE97F84730194664
:10457000804810F033FEEAE079480DF0F0FC014687
:1045800040F29A23774A784810F028FE7A4810F0D3
:104590008DFEDCE072480DF0E2FC014640F29F2304
:1045A000704A714810F01AFE744810F07FFECEE099
:1045B0006B480DF0D4FC014640F2A323694A6A48D7
:1045C00010F00CFE6E4810F071FEC0E064480DF073
:1045D000C6FC014640F2A723624A634810F0FEFD84
:1045E000684810F063FE5E480DF0B9FC01464FF4D8
:1045F0002A735C4A5C4810F0F1FDFB6B0233D3F880
:1046000002301946604810F0E9FD55480DF0A7FC4E
:10461000014640F2AA23534A534810F0DFFDFB6BDA
:104620000233D3F802301946584810F0D7FD504BEA
:10463000DB8A012118460CF072FE034687F84730EA
:1046400097F84730002B10D045480DF088FC014604
:1046500040F2AF23434A444810F0C0FD97F847307A
:1046600019464B4810F0BAFD71E03D480DF077FC5B
:10467000014640F2B3233B4A3B4810F0AFFD4548AA
:1046800010F014FE63E0FB6B0233BB6334480DF0A3
:1046900066FC014640F2BB23324A334810F09EFDCF
:1046A0003D4810F003FEBB6B9B78002B0DD12C48CE
:1046B0000DF055FC014640F2BE232A4A2A4810F06C
:1046C0008DFD364810F0F2FD12E025480DF047FC54
:1046D000014640F2C223234A234810F07FFDBB6B02
:1046E0009B781946BB6BDB781A462D4810F076FD97
:1046F0001B480DF034FC01464FF43173194A1A4837
:1047000010F06CFD274810F0D1FD20E014480DF0AA
:1047100026FC014640F2CA23124A134810F05EFDFF
:10472000214810F0C3FD12E00D480DF018FC0146C1
:1047300040F2D2230B4A0C4810F050FD1B4810F0F9
:10474000B5FD0B4BDB8A18460DF0FCF800BF01E00D
:1047500000BF00E000BF012318464C37BD46F0BD46
:10476000B47801081896010840790108F87D01081D
:104770003C080020207E0108547E01087C7E010850
:10478000AC7E0108DC7E0108107F0108307F010843
:104790004C7F0108A07F0108E87F01081480010810
:1047A000308001087080010874800108A080010831
:1047B00080B582B000AF9223FB710CF038FD034648
:1047C000FB71FB79002B0FD010480DF0C8FB0146A0
:1047D0004FF43E730E4A0F4810F000FDFB79194666
:1047E0000D4810F0FBFC0CE008480DF0B8FB01464A
:1047F0004FF43F73064A074810F0F0FC074810F0EA
:1048000055FD00BF0837BD4680BD00BFB478010824
:104810003096010840790108C8800108008101082C
:1048200080B582B000AF9223FB71154BDB8A18462E
:104830000CF010FC0346FB71FB79002B0FD01148E4
:104840000DF08DFB01464FF442730F4A0F4810F0F4
:10485000C5FCFB7919460E4810F0C0FC0CE0094875
:104860000DF07DFB01464FF44373074A074810F0F3
:10487000B5FC084810F01AFD00BF0837BD4680BDE2
:104880003C080020B47801084C96010840790108E2
:104890002C8101086481010880B582B000AF064B0D
:1048A0003B60064B7B603B46194605480DF008FC13
:1048B00000BF0837BD4680BD28000320AB5100086B
:1048C00073510008F0B58DB006AF4FF450733B80C4
:1048D0009223FB75B1480DF042FB014640F22D33A7
:1048E000AF4AB04810F07AFCAF4810F0DFFC0DF092
:1048F00017FA0346FB75FB7D002B0FD0A7480DF080
:104900002EFB014640F23633A54AA64810F066FC5D
:10491000FB7D1946A54810F061FC0CE09F480DF0A6
:104920001EFB014640F23A339D4A9E4810F056FC69
:104930009F4810F0BBFC00F07BFB38613A69062110
:1049400000200DF001F90346FB75FB7D002B0FD015
:1049500092480DF004FB01464FF45173904A914880
:1049600010F03CFCFB7D1946924810F037FC35E016
:104970008A480DF0F4FA01464FF45273884A894888
:1049800010F02CFC8C4810F091FC84480DF0E7FAF4
:10499000014640F24933824A824810F01FFC3B69CD
:1049A00005331B7818463B6904331B781C463B696A
:1049B00003331B781D463B6902331B781A463B695B
:1049C00001331B7819463B691B78029301910092D1
:1049D0002B4622460146794810F000FC3B6905331E
:1049E0001A78774B1A723B6904331A78744B5A72EF
:1049F0003B6903331A78724B9A723B6902331A7817
:104A00006F4BDA723B6901331A786D4B1A733B694D
:104A10001A786B4B5A736B4A102118200DF094F8DA
:104A20000346FB75FB7D002B0FD05C480DF097FA19
:104A3000014640F27D335A4A5A4810F0CFFBFB7DC5
:104A40001946614810F0CAFB0CE054480DF087FA93
:104A5000014640F28133524A524810F0BFFB5B4896
:104A600010F024FC5A4A102108200DF06DF803467E
:104A7000FB75FB7D002B0FD048480DF070FA014606
:104A800040F28A33464A474810F0A8FBFB7D19469E
:104A9000504810F0A3FB0CE040480DF060FA0146CE
:104AA00040F28E333E4A3F4810F098FB4A4810F0DF
:104AB000FDFB182101200DF0CCF80346FB75FB7DB2
:104AC000002B0FD035480DF04AFA014640F29733DB
:104AD000334A344810F082FBFB7D19463F4810F002
:104AE0007DFB0CE02D480DF03AFA014640F29B3375
:104AF0002B4A2C4810F072FB394810F0D7FB0CF011
:104B000075FC0346FB75FB7D002B0FD023480DF091
:104B100026FA01464FF46973214A224810F05EFBE1
:104B2000FB7D19462F4810F059FB0CE01B480DF097
:104B300016FA01464FF46A73194A1A4810F04EFBF0
:104B4000294810F0B3FB0023FB73FB7B43F0010308
:104B5000FB73FB7B002B6BD0244BBB60BA1DF87B37
:104B6000BB1C01933B1D00931346072200210CF050
:104B7000C4F90346FB75FB7D002B3BD007480DF0C5
:104B8000EEF901464FF47273054A064810F026FB11
:104B9000FB7D1946164810F021FB38E0B478010877
:104BA000689601084079010894810108C0810108D4
:104BB000F0810108108201086C820108B8820108A6
:104BC0000C000020E0950108F882010850830108DC
:104BD000F095010898830108F083010838840108E2
:104BE00078840108A8840108DC8401080085010894
:104BF000088501087E480DF0B2F901464FF4737341
:104C00007C4A7D4810F0EAFA7C4810F04FFBFC88A3
:104C1000BD88B868FBF704FB0346DAB2BB680093B3
:104C200013460022294620460CF0E3FD0346FB759F
:104C3000F88879883B460093022300220CF0D9FDC6
:104C40000346FB750222022100200DF00BF90346FA
:104C5000FB75FB7D002B0FD065480DF080F90146F8
:104C600040F2EE33634A644810F0B8FAFB7D19460F
:104C7000634810F0B3FA0CE05D480DF070F901469E
:104C800040F2F2335B4A5C4810F0A8FA5D4810F03D
:104C90000DFB5D4B01221A705B4B1B7818460BF025
:104CA000ADFF0346FB75FB7D002B0FD050480DF088
:104CB00056F901464FF47F734E4A4F4810F08EFA72
:104CC000FB7D1946514810F089FA0CE048480DF078
:104CD00046F901464FF48063464A474810F07EFA91
:104CE0004B4810F0E3FA484B01225A70464B082219
:104CF0001A71454B10225A71434B0022DA70424B15
:104D0000444A9A60404B01229A703F4B9C783E4B3C
:104D10005D783D4B1B793C4A52793B49C9783A480A
:104D2000806800260496039002910192009300236C
:104D30000122294620460BF0B5FF0346FB75FB7D9B
:104D4000002B0FD02A480DF00AF9014640F21B4310
:104D5000284A294810F042FAFB7D19462E4810F0E7
:104D60003DFA0CE022480DF0FAF8014640F21F43EC
:104D7000204A214810F032FA284810F097FA224BC6
:104D80009B78002B23D00CF02EFA0346FB75FB7D9D
:104D9000002B0FD016480DF0E2F8014640F22A43EE
:104DA000144A154810F01AFAFB7D19461C4810F0F9
:104DB00015FA0CE00E480DF0D2F8014640F22E43F1
:104DC0000C4A0D4810F00AFA164810F06FFA08481D
:104DD0000DF0C5F8014640F23143064A064810F08E
:104DE000FDF9114810F062FA00BF1C37BD46F0BD56
:104DF000B478010868960108407901083C850108EB
:104E0000608501089C8501083C080020C8850108D0
:104E10000886010807B20100388601088486010867
:104E2000C0860108048701083887010880B58CB066
:104E300008AF0346FB719223FB72FB79012B06D16D
:104E4000694B1B88FB81694B1B88BB8105E04FF4D4
:104E5000C863FB814FF47A63BB81654B93F8813063
:104E60001846FDF7F5FBFB79022B2DD1604B93F82B
:104E70008030012B04D05E4B93F88030022B23D17D
:104E80000BF09EFD0346FB72FB7A002B0FD05948B6
:104E90000DF065F8014640F25243574A574810F06A
:104EA0009DF9FB7A1946564810F098F90CE05148E4
:104EB0000DF055F8014640F256434F4A4F4810F066
:104EC0008DF9504810F0F2F9494AFB7982F88030A8
:104ED000474B1B7EBA89F989002006900020059077
:104EE000494804900393494B0293072301930023FD
:104EF0000093002300200BF087FD0346FB72FB7A32
:104F0000002B0FD03B480DF02AF8014640F26943D0
:104F1000394A3A4810F062F9FB7A19463C4810F0D9
:104F20005DF90CE033480DF01AF8014640F26D438C
:104F3000314A324810F052F9364810F0B7F9364984
:104F40000E200CF0DEF80346FB72FB7A002B22D019
:104F5000FB79012B0FD127480DF001F8014640F2F3
:104F60007643254A254810F039F9FB7A19462B4833
:104F700010F034F935E01F480CF0F1FF014640F223
:104F80007A431D4A1D4810F029F9FB7A1946244836
:104F900010F024F925E0FB79012B14D115480CF011
:104FA000DEFF014640F28143134A144810F016F91F
:104FB0001C4810F07BF90E4B93F881301A491846C3
:104FC000FDF7CAFB0DE00B480CF0C9FF014640F2AB
:104FD0008743094A094810F001F9144810F066F9AE
:104FE00000BF1037BD4680BDC0080020C2080020A9
:104FF0003C080020B4780108809601084079010837
:1050000064870108B487010855080020009601084C
:10501000FC870108348801080C0000206088010822
:1050200098880108D488010846E001000089010839
:1050300080B586B000AFFEF7D1FD38613B69B3F1B2
:10504000FF3F23D0FEF7E2FDB860FEF7D3FD7860A6
:105050003B69DAB2164B1A703B691B0ADAB2144B81
:105060005A707B68DAB2124B9A70BB68DAB2104B96
:10507000DA70BB681B0ADAB20D4B1A71BB681B0CE5
:10508000DAB20B4B5A710A4B7B610BE000200DF03A
:105090008FFCF860FB68002B02D0FB687B6101E0AD
:1050A000044B7B617B6918461837BD4680BD00BF45
:1050B00034080020D895010880B483B000AF0346BF
:1050C000FB80124B1B7E1946FB88DAB20F4B0B4458
:1050D0005A760E4B1B7E0133DAB20C4B1A76FB88E4
:1050E0001B0A9AB2094B1B7E1946D2B2074B0B44DE
:1050F0005A76064B1B7E0133DAB2044B1A7600BF98
:105100000C37BD465DF8047B704700BF3C080020AB
:1051100080B500AF002101200FF08CF900BF80BDE9
:1051200080B500AF0220FFF781FE00BF80BD80B5D3
:1051300082B000AF7860002104200FF07BF900BF3F
:105140000837BD4680BD80B582B000AF78600120D1
:105150000FF0DCF900BF0837BD4680BD80B582B0D6
:1051600000AF786001200FF0F1F900BF0837BD46AD
:1051700080BD80B584B000AF78607B68FB60FB6861
:105180005B68083318460EF03DFA0346FB72FB7A63
:10519000002B03D0FB6801221A7003E0FB68002299
:1051A0001A7000BF1037BD4680BD80B584B000AF17
:1051B0000346FB71FB79002B02D0012B06D00BE0DC
:1051C0003F23FB60F8680FF061F905E03F23FB60C7
:1051D000F8680FF07BF900BF00BF1037BD4680BDF7
:1051E00080B582B000AF074B3B6004233B713B4668
:1051F000194642F629200CF03DFF00BF0837BD4696
:1052000080BD00BF3089010880B582B000AF7860F2
:105210007B681B78022B1AD0022B1EDC002B02D0DD
:10522000012B07D019E00F4B00229A800D4B012271
:105230001A7313E00B4B5B7B1846FDF709FA094B19
:105240005B7B40F601011846FDF786FA06E0054B48
:105250005B7B1846FDF7FCF900E000BF00BF083794
:10526000BD4680BDC408002080B400AF054BDB689C
:10527000044A43F40043D36000BFBD465DF8047B9D
:10528000704700BF0004005880B483B000AF78605E
:10529000064BD3F8D42005497B681343C1F8D430BA
:1052A00000BF0C37BD465DF8047B7047000800580E
:1052B00080B483B000AF7860054B1A6A04497B68FC
:1052C00013430B6200BF0C37BD465DF8047B70478B
:1052D0000008005880B485B000AF78604FF0B0434C
:1052E0001A6D4FF0B0417B6813430B654FF0B0432C
:1052F0001A6D7B681340FB60FB6800BF1437BD4626
:105300005DF8047B704780B485B000AF78604FF0E3
:10531000B043D3F850214FF0B0417B681343C1F83C
:1053200050314FF0B043D3F850217B681340FB60FD
:10533000FB6800BF1437BD465DF8047B704780B43E
:1053400083B000AF78607B681B6843F480327B6871
:105350001A6000BF0C37BD465DF8047B704780B40F
:1053600083B000AF78607B681B6843F001027B6804
:105370001A6000BF0C37BD465DF8047B704780B4EF
:1053800083B000AF786039607B685A683B681B0463
:10539000DB431A407B685A6000BF0C37BD465DF89E
:1053A000047B704780B483B000AF786039607B685D
:1053B0005A683B681B041A437B685A6000BF0C376D
:1053C000BD465DF8047B704780B483B000AF786061
:1053D00039607B685A683B68DB431A407B685A60D7
:1053E00000BF0C37BD465DF8047B704780B483B0C6
:1053F00000AF786039607B683A689A6000BF0C370C
:10540000BD465DF8047B704780B483B000AF786020
:1054100039603B681A047B689A6000BF0C37BD4650
:105420005DF8047B704780B483B000AF786039606A
:105430007B68DA683B6813403A689A4201D10123DD
:1054400000E0002318460C37BD465DF8047B70472A
:1054500080B483B000AF786039607B68DA693B68FC
:1054600013403A689A4201D1012300E00023184614
:105470000C37BD465DF8047B7047000080B500AF77
:1054800002211848FFF7E4FF0346002B08D0154B14
:105490005B6803F00203002B02D100F0D5F81EE098
:1054A00001211048FFF7D4FF0346002B08D00D4B15
:1054B0005B6803F00103002B02D100F089F80EE0D5
:1054C00008210848FFF7C4FF0346002B08D0054B0E
:1054D0005B6803F00803002B02D100F001F900BF64
:1054E00000BF80BD000C005880B500AF02211848F5
:1054F000FFF799FF0346002B08D1154B5B6803F4B7
:105500000033002B02D100F093F81EE00821104870
:10551000FFF789FF0346002B08D10D4B5B6803F4AE
:105520000023002B02D100F0BDF80EE02021084836
:10553000FFF779FF0346002B08D1054B5B6803F4A6
:105540000013002B02D100F04FF800BF00BF80BD58
:10555000000C005880B500AF4FF48010FFF7D3FE69
:105560004FF40070FFF7A4FE4FF40070FFF78CFEBD
:1055700040BF20BFFFF778FE00BF80BD80B500AF01
:105580004FF48010FFF7A6FE0648FFF7E8FE054837
:10559000FFF7D5FE2C2005F000FA2D2005F0FDF9CF
:1055A00000BF80BD000C005880B500AF012102484B
:1055B000FFF70AFF00BF80BD000C005880B500AFA8
:1055C00001210248FFF720FF00BF80BD000C0058FA
:1055D00080B500AF0EF0FAF801210248FFF706FF90
:1055E00000BF80BD000C005880B500AF20210348EB
:1055F000FFF7D8FE0EF01AF900BF80BD000C00586E
:1056000080B500AF02210248FFF7DEFE00BF80BD7B
:10561000000C005880B500AF02210448FFF7F4FEEB
:1056200002210248FFF7ABFE00BF80BD000C00580E
:1056300080B500AF02210348FFF7B4FE0EF046F933
:1056400000BF80BD000C005880B500AF0EF054F9CB
:1056500002210248FFF7CAFE00BF80BD000C0058BF
:1056600080B582B000AF786008210C48FFF7DBFE00
:105670000346002B07D00A4A7B68136008210748BD
:10568000FFF77DFE06E07B68984708210348FFF797
:10569000BBFE00BF0837BD4680BD00BF000C0058F0
:1056A000D408002080B500AF08210648FFF77AFE35
:1056B000054B1B68984708210248FFF7A5FE00BF6D
:1056C00080BD00BF000C0058D408002080B500AF9A
:1056D00008210248FFF778FE00BF80BD000C00588B
:1056E00080B500AF0EF0B0F908210248FFF77EFE4A
:1056F00000BF80BD000C005880B582B000AF0346EB
:10570000FB71F91D4FF47A730122034809F0C5F8C3
:1057100000BF0837BD4680BD3407002080B500AF0C
:1057200000224021074805F08BFE00220121064897
:1057300005F086FE01224021044805F081FE002389
:10574000184680BD00080048000C004800040048CE
:1057500080B500AF012240210B4805F071FE6420A6
:10576000FCF768F800224021074805F069FE022096
:10577000FCF760F801224021034805F061FE642037
:10578000FCF758F800BF80BD0004004880B582B027
:1057900000AF0346FB71002240210A4805F050FE8D
:1057A00000220121084805F04BFEFB791846FFF75F
:1057B000A3FF01220121044805F042FE00BF083783
:1057C000BD4680BD00080048000C004880B582B08E
:1057D00000AF0346FB71012240210A4805F030FE6C
:1057E00000220121084805F02BFEFB791846FFF73F
:1057F00083FF01220121044805F022FE00BF083783
:10580000BD4680BD00080048000C004880B500AFD0
:105810000B480FF04BFD02210A4805F0F9FD034645
:10582000002B03D03220FCF705F8F4E700BF32204C
:10583000FCF700F804480FF039FD00BF80BD00BF41
:1058400034890108000C00484C89010880B584B0F7
:1058500000AF78603220FFF799FF0023FB7309E067
:10586000FB7B7A6813441B781846FFF7AFFFFB7B7E
:105870000133FB73FB7B982BF2D9FFF7C7FF00BF07
:105880001037BD4680BD80B582B000AF78607868C3
:10589000FFF7DCFF3F20FFF779FF7B6899331B7828
:1058A0001846FFF793FF0320FFF770FF7B689A33DA
:1058B0001B781846FFF78AFF0420FFF767FF7B6815
:1058C0009B331B781846FFF781FF7B689C331B785E
:1058D0001846FFF77BFF7B689D331B781846FFF760
:1058E00075FF2C20FFF752FF7B689E331B7818460C
:1058F000FFF76CFF00BF0837BD4680BD80B500AF25
:105900002220FFF743FFC720FFF760FF2020FFF7AB
:105910003DFFFFF77BFF00BF80BD90B583B000AFB8
:105920000446084611461A462346FB800346BB80C0
:105930000B467B8013463B804420FFF727FFFB8804
:10594000DB089BB2DBB21846FFF740FF7B88DB0821
:105950009BB2DBB21846FFF739FF4520FFF716FF71
:10596000BB88DBB21846FFF731FFBB881B0A9BB22E
:10597000DBB21846FFF72AFF3B88DBB21846FFF779
:1059800025FF3B881B0A9BB2DBB21846FFF71EFFC0
:1059900000BF0C37BD4690BD80B582B000AF034656
:1059A0000A46FB801346BB804E20FFF7EFFEFB88C4
:1059B000DBB21846FFF70AFF4F20FFF7E7FEBB8870
:1059C000DBB21846FFF702FFBB881B0A9BB2DBB2B3
:1059D0001846FFF7FBFE00BF0837BD4680BD00003C
:1059E00080B500AFFFF7B4FE6420FBF723FFFFF79D
:1059F0000DFF1220FFF7CAFEFFF708FF0120FFF797
:105A0000C5FE2720FFF7E2FE0120FFF7DFFE0020A2
:105A1000FFF7DCFE1120FFF7B9FE0320FFF7D6FEEB
:105A200040F227137F2200210020FFF776FF21207C
:105A3000FFF7ACFE0020FFF7C9FE8020FFF7C6FE8F
:105A400000210020FFF7A8FFFFF7E0FE0248FFF764
:105A50001AFF00BF80BD00BF1C00002080B582B0CF
:105A600000AF2420FFF792FE0023FB8005E0FF201B
:105A7000FFF7ACFEFB880133FB80FB88B3F5945F36
:105A8000F5D3FFF73BFF00BF0837BD4680BD80B5AB
:105A900084B000AF78602420FFF778FE0023FB81FC
:105AA00009E0FB897A6813441B781846FFF78EFEDD
:105AB000FB890133FB81FB89B3F5945FF1D3FFF7D9
:105AC0001DFF00BF1037BD4680BD80B584B000AF5C
:105AD00078602420FFF75AFE0023FB8109E0FB8950
