:020000040800F2
:1000000000000320610E00086D3F0008753F0008E6
:100010007D3F0008853F00088D3F0008000000007C
:10002000000000000000000000000000953F0008F4
:10003000A33F000800000000B13F0008BF3F0008D8
:10004000B50E0008B50E0008B50E000845400008C2
:10005000B50E0008B50E0008B50E00085D4000089A
:100060006B4000087940000887400008B50E000882
:10007000B50E0008B50E0008B50E0008B50E000854
:10008000B50E0008B50E0008B50E0008B50E000844
:10009000B50E0008B50E0008B50E00089540000822
:1000A000B50E0008CD3F000851400008B50E00080D
:1000B000B50E0008B50E0008B50E0008B50E000814
:1000C000B50E0008B50E0008B50E0008B50E000804
:1000D000E13F0008B50E0008B50E0008B50E000897
:1000E0002D400008B50E0008B50E0008B50E00083A
:1000F0001540000821400008F53F0008B50E000833
:10010000B50E0008B50E0008B50E0008B50E0008C3
:10011000B50E0008B50E0008B50E0008B50E0008B3
:10012000B50E0008B50E000801400008B50E000825
:0C013000B50E0008B50E0008B50E000862
:1001400010B5054C237833B9044B13B10448AFF311
:1001500000800123237010BD100300200000000068
:100160006084010808B5034B1BB103490348AFF392
:10017000008008BD00000000140300206084010816
:1001800001F0FF01102A2BDB10F0070F08D010F848
:10019000013B013A8B422DD010F0070F42B3F6D14C
:1001A000F0B441EA012141EA014122F007047FF065
:1001B00000070023F0E80256083C85EA010586EABC
:1001C000010685FA47F5A3FA87F586FA47F6A5FAF8
:1001D00087F68EB9EED1F0BC01F0FF0102F0070204
:1001E00032B110F8013B013A83EA010313B1F8D1AF
:1001F0000020704701387047002D06BF3546033890
:10020000073815F0010F07D1013015F4807F02BFC8
:10021000013015F4C03F0130F0BC0138704700BF19
:10022000034613F8012B002AFBD1181A0138704736
:1002300081F0004102E000BF83F0004330B54FEA97
:1002400041044FEA430594EA050F08BF90EA020F04
:100250001FBF54EA000C55EA020C7FEA645C7FEA97
:10026000655C00F0E2804FEA5454D4EB5555B8BFBA
:100270006D420CDD2C4480EA020281EA030382EA2B
:10028000000083EA010180EA020281EA0303362DBD
:1002900088BF30BD11F0004F4FEA01314FF4801C90
:1002A0004CEA113102D0404261EB410113F0004FA2
:1002B0004FEA03334CEA133302D0524263EB430359
:1002C00094EA050F00F0A780A4F10104D5F1200EF7
:1002D0000DDB02FA0EFC22FA05F2801841F1000152
:1002E00003FA0EF2801843FA05F359410EE0A5F126
:1002F00020050EF1200E012A03FA0EFC28BF4CF057
:10030000020C43FA05F3C01851EBE37101F000450C
:1003100007D54FF0000EDCF1000C7EEB00006EEB19
:100320000101B1F5801F1BD3B1F5001F0CD34908A3
:100330005FEA30004FEA3C0C04F101044FEA4452FA
:1003400012F5800F80F09A80BCF1004F08BF5FEA81
:10035000500C50F1000041EB045141EA050130BD61
:100360005FEA4C0C404141EB0101013C28BFB1F573
:10037000801FE9D291F0000F04BF01460020B1FABE
:1003800081F308BF2033A3F10B03B3F120020CDA91
:100390000C3208DD02F1140CC2F10C0201FA0CF06F
:1003A00021FA02F10CE002F11402D8BFC2F1200CD4
:1003B00001FA02F120FA0CFCDCBF41EA0C0190408A
:1003C000E41AA2BF01EB0451294330BD6FEA0404D3
:1003D0001F3C1CDA0C340EDC04F11404C4F12002BE
:1003E00020FA04F001FA02F340EA030021FA04F3D0
:1003F00045EA030130BDC4F10C04C4F1200220FA27
:1004000002F001FA04F340EA0300294630BD21FA64
:1004100004F0294630BD94F0000F83F4801306BF2A
:1004200081F480110134013D4EE77FEA645C18BF1E
:100430007FEA655C29D094EA050F08BF90EA020FB5
:1004400005D054EA000C04BF1946104630BD91EAAD
:10045000030F1EBF0021002030BD5FEA545C05D1B0
:100460004000494128BF41F0004130BD14F58004EF
:100470003CBF01F5801130BD01F0004545F0FE4163
:1004800041F470014FF0000030BD7FEA645C1ABF98
:10049000194610467FEA655C1CBF0B46024650EACF
:1004A000013406BF52EA033591EA030F41F40021FB
:1004B00030BD00BF90F0000F04BF0021704730B581
:1004C0004FF4806404F132044FF000054FF0000156
:1004D00050E700BF90F0000F04BF0021704730B517
:1004E0004FF4806404F1320410F0004548BF4042EC
:1004F0004FF000013EE700BF42004FEAE2014FEA41
:1005000031014FEA02701FBF12F07F4393F07F4F1B
:1005100081F06051704732F07F4208BF704793F01E
:100520007F4F04BF41F40021704730B54FF4607431
:1005300001F0004521F000411CE700BF50EA010234
:1005400008BF704730B54FF000050AE050EA0102DD
:1005500008BF704730B511F0004502D5404261EB4D
:1005600041014FF4806404F132045FEA915C3FF48E
:10057000D8AE4FF003025FEADC0C18BF03325FEA2B
:10058000DC0C18BF033202EBDC02C2F1200300FADC
:1005900003FC20FA02F001FA03FE40EA0E0021FA01
:1005A00002F11444BDE600BF70B54FF0FF0C4CF4EF
:1005B000E06C1CEA11541DBF1CEA135594EA0C0FA1
:1005C00095EA0C0F00F0DEF82C4481EA030621EADC
:1005D0004C5123EA4C5350EA013518BF52EA033517
:1005E00041F4801143F4801338D0A0FB02CE4FF0C9
:1005F0000005E1FB02E506F00042E0FB03E54FF0F9
:100600000006E1FB03569CF0000F18BF4EF0010EF0
:10061000A4F1FF04B6F5007F64F5407404D25FEAEC
:100620004E0E6D4146EB060642EAC62141EA55519F
:100630004FEAC52040EA5E504FEACE2EB4F1FD0CE1
:1006400088BFBCF5E06F1ED8BEF1004F08BF5FEA5F
:10065000500E50F1000041EB045170BD06F0004611
:1006600046EA010140EA020081EA0301B4EB5C04BE
:10067000C2BFD4EB0C0541EA045170BD41F48011B6
:100680004FF0000E013C00F3AB8014F1360FDEBFDB
:10069000002001F0004170BDC4F10004203C35DAB7
:1006A0000C341BDC04F11404C4F1200500FA05F33A
:1006B00020FA04F001FA05F240EA020001F00042DB
:1006C00021F0004110EBD37021FA04F642EB060151
:1006D0005EEA430E08BF20EAD37070BDC4F10C047B
:1006E000C4F1200500FA04F320FA05F001FA04F23F
:1006F00040EA020001F0004110EBD37041F100012B
:100700005EEA430E08BF20EAD37070BDC4F1200535
:1007100000FA05F24EEA020E20FA04F301FA05F29D
:1007200043EA020321FA04F001F0004121FA04F245
:1007300020EA020000EBD3705EEA430E08BF20EA15
:10074000D37070BD94F0000F0FD101F0004640004F
:1007500041EB010111F4801F08BF013CF7D041EAD1
:10076000060195F0000F18BF704703F000465200D5
:1007700043EB030313F4801F08BF013DF7D043EAA6
:100780000603704794EA0C0F0CEA135518BF95EA5C
:100790000C0F0CD050EA410618BF52EA4306D1D1E3
:1007A00081EA030101F000414FF0000070BD50EA02
:1007B000410606BF1046194652EA430619D094EA8C
:1007C0000C0F02D150EA013613D195EA0C0F05D176
:1007D00052EA03361CBF104619460AD181EA0301CA
:1007E00001F0004141F0FE4141F470014FF0000082
:1007F00070BD41F0FE4141F4780170BD70B54FF01D
:10080000FF0C4CF4E06C1CEA11541DBF1CEA13559C
:1008100094EA0C0F95EA0C0F00F0A7F8A4EB05047E
:1008200081EA030E52EA03354FEA013100F0888075
:100830004FEA03334FF0805545EA131343EA12633E
:100840004FEA022245EA111545EA10654FEA0026F3
:100850000EF000419D4208BF964244F1FD0404F5AC
:10086000407402D25B084FEA3202B61A65EB030508
:100870005B084FEA32024FF480104FF4002CB6EBC5
:10088000020E75EB030E22BFB61A754640EA0C0045
:100890005B084FEA3202B6EB020E75EB030E22BF85
:1008A000B61A754640EA5C005B084FEA3202B6EBC6
:1008B000020E75EB030E22BFB61A754640EA9C0085
:1008C0005B084FEA3202B6EB020E75EB030E22BF55
:1008D000B61A754640EADC0055EA060E18D04FEA13
:1008E000051545EA16754FEA06164FEAC30343EAB3
:1008F00052734FEAC2025FEA1C1CC0D111F4801F80
:100900000BD141EA00014FF000004FF0004CB6E778
:1009100011F4801F04BF01430020B4F1FD0C88BF17
:10092000BCF5E06F3FF6AFAEB5EB030C04BFB6EB22
:10093000020C5FEA500C50F1000041EB045170BD15
:100940000EF0004E4EEA113114EB5C04C2BFD4EB42
:100950000C0541EA045170BD41F480114FF0000EC6
:10096000013C90E645EA060E8DE60CEA135594EA42
:100970000C0F08BF95EA0C0F3FF43BAF94EA0C0F45
:100980000AD150EA01347FF434AF95EA0C0F7FF4BA
:1009900025AF104619462CE795EA0C0F06D152EA0E
:1009A00003353FF4FDAE1046194622E750EA4106F2
:1009B00018BF52EA43067FF4C5AE50EA41047FF403
:1009C0000DAF52EA43057FF4EBAE12E74FF0FF3C68
:1009D00006E000BF4FF0010C02E000BF4FF0010C39
:1009E0004DF804CD4FEA410C7FEA6C5C4FEA430CB2
:1009F00018BF7FEA6C5C1BD001B050EA410C0CBF01
:100A000052EA430C91EA030F02BF90EA020F002062
:100A1000704710F1000F91EA030F58BF994208BFC9
:100A200090422CBFD8176FEAE37040F00100704786
:100A30004FEA410C7FEA6C5C02D150EA013C07D1DD
:100A40004FEA430C7FEA6C5CD6D152EA033CD3D028
:100A50005DF8040B704700BF8446104662468C4622
:100A60001946634600E000BF01B5FFF7B7FF002855
:100A700048BF10F1000F01BD4DF808EDFFF7F4FF7E
:100A80000CBF012000205DF808FB00BF4DF808ED09
:100A9000FFF7EAFF34BF012000205DF808FB00BF2C
:100AA0004DF808EDFFF7E0FF94BF012000205DF84E
:100AB00008FB00BF4DF808EDFFF7CEFF94BF012003
:100AC00000205DF808FB00BF4DF808EDFFF7C4FFFC
:100AD00034BF012000205DF808FB00BF4FEA410C45
:100AE0007FEA6C5C02D150EA013C0AD14FEA430C28
:100AF0007FEA6C5C02D152EA033C02D14FF0000065
:100B000070474FF0010070474FEA410212F50012A2
:100B100015D211D56FF47873B3EB625212D94FEA44
:100B2000C12343F0004343EA505311F0004F23FA2E
:100B300002F018BF404270474FF00000704750EA83
:100B4000013005D111F0004008BF6FF00040704740
:100B50004FF00000704700BF53B94AB9002908BFE1
:100B600000281CBF4FF0FF314FF0FF3000F06AB992
:100B7000ADF1080C6DE904CE00F006F8DDF804E0F4
:100B8000DDE9022304B070472DE9F047089D0C46CB
:100B9000002B4ED194468C458646B2FA82F262D939
:100BA0004AB1C2F12003914020FA03F30CFA02FC8F
:100BB000194300FA02FE4FEA1C471FFA8CF6B1FBFC
:100BC000F7F44FEA1E4307FB141143EA014304FB09
:100BD00006F199420AD91CEB030304F1FF3080F0BF
:100BE0001281994240F20F81023C6344591A1FFA64
:100BF0008EF3B1FBF7F007FB101143EA014300FB52
:100C000006F69E420AD91CEB030300F1FF3180F087
:100C1000FC809E4240F2F980634402389B1B40EA0C
:100C2000044000211DB1D3400022C5E90032BDE8D7
:100C3000F0878B4205D90DB1C5E9000100210846B6
:100C4000F5E7B3FA83F1002946D1A34202D39042DB
:100C5000C0F0F080861A64EB03030120002DE6D07B
:100C6000C5E90063E3E7002A40F09080A1EB0C04A3
:100C70004FEA1C481FFA8CF70121B4FBF8F64FEA43
:100C80001E4308FB164443EA044307FB06F0984260
:100C900008D91CEB030306F1FF3402D2984200F29C
:100CA000CD8026461C1A1FFA8EF3B4FBF8F008FB21
:100CB000104443EA044300FB07F79F4208D91CEBAA
:100CC000030300F1FF3402D29F4200F2B0802046BD
:100CD000DB1B40EA0640A5E7C1F120068B4022FA63
:100CE00006F71F4320FA06FC04FA01F343EA0C035B
:100CF000F44000FA01F8380C4FEA1349B4FBF0FE57
:100D00001FFA87FC00FB1E4449EA04440EFB0CF961
:100D1000A14502FA01F20AD93C190EF1FF3A80F01E
:100D20008480A14540F28180AEF1020E3C44A4EBE8
:100D300009041FFA83F9B4FBF0F300FB134449EAFA
:100D4000044403FB0CFCA44507D93C1903F1FF3014
:100D500067D2A44565D9023B3C4443EA0E40A0FB60
:100D60000293A4EB0C049C42CE469C4651D34ED039
:100D700055B1B8EB0E0364EB0C0404FA06F6CB4055
:100D80001E43CC40C5E90064002150E7C2F12003B6
:100D900020FA03F10CFA02FC24FA03F394400C430A
:100DA0004FEA1C4800FA02FE1FFA8CF7B3FBF8F07A
:100DB00008FB1031230C43EA014300FB07F1994281
:100DC00008D91CEB030300F1FF362CD299422AD933
:100DD000023863445B1AA4B2B3FBF8F108FB113389
:100DE00044EA034401FB07F3A34208D91CEB0404C3
:100DF00001F1FF3613D2A34211D902396444E41A37
:100E000041EA004139E70446F0E6084606E7C845EE
:100E1000AED2B9EB020E63EB070C0138A8E73146FE
:100E2000EDE7034699E73046D4E7D6467FE76344CB
:100E300002384DE70646234608460FE7023E634464
:100E400030E700BF704700BFD458C4500433C41803
:100E50008C42F9D37047036004308842FBD370475B
:100E60000C4885460AF05CF90B480C490C4A0023F3
:100E7000FFF7EDFF0B480C490023FFF7EEFF0B488F
:100E80000B490023FFF7E9FF15F0C4FB02F05AF805
:100E9000FEE700000000032008000020AC02002054
:100EA000E02E0208100300205C680020E40103200B
:100EB000670A0320FEE7000080B483B000AF7860CB
:100EC000064BD3F8902005497B681343C1F8903056
:100ED00000BF0C37BD465DF8047B70470008005822
:100EE00080B485B000AF78604FF0B043DA6C4FF05B
:100EF000B0417B681343CB644FF0B043DA6C7B683E
:100F00001340FB60FB6800BF1437BD465DF8047BEF
:100F1000704780B485B000AF78604FF0B043D3F82D
:100F20004C214FF0B0417B681343C1F84C314FF076
:100F3000B043D3F84C217B681340FB60FB6800BFD3
:100F40001437BD465DF8047B704780B500AF0AF0EA
:100F5000ADF90AF0B1F94FF48030FFF7ADFF12F0B0
:100F60002BF800F021F800F0C1F800BF80BD0000B0
:100F7000B0B588B000AF0B4B3C1D1D460FCD0FC464
:100F800095E8070003C422800234130C237013F089
:100F90008FFD3B1D184612F090FD00BF2037BD4667
:100FA000B0BD00BF7884010880B588B000AF3B1D9C
:100FB00000221A605A609A60DA601A610023BB83CB
:100FC00000237B8300233B830023FB7736E0FB7FFA
:100FD000434ADB0013449B79002B2CD0FB7F404A13
:100FE00052F833303F4A93421BD03E4A934221D8B5
:100FF000B3F1904F03D03C4A934209D01AE0FB7FF3
:10100000374ADB0013449A88BB8B1343BB8312E03F
:10101000FB7F334ADB0013449A887B8B13437B832B
:1010200009E0FB7F2E4ADB0013449A883B8B134375
:101030003B8300E000BFFB7F0133FB77FB7F252B69
:10104000C5D90023FB600123BB6003233B61BB8B3D
:10105000002B14D0BB8B7B600120FFF741FF0120E8
:10106000FFF757FF3B1D19464FF090400AF06CFD0B
:10107000BB8B002219464FF090400AF0CBFF7B8BD0
:10108000002B12D07B8B7B600220FFF729FF022010
:10109000FFF73FFF3B1D194613480AF055FD7B8BB8
:1010A0000022194610480AF0B5FF3B8B002B13D0E5
:1010B0003B8B7B600420FFF713FF0420FFF729FF21
:1010C0003B1D194607480AF03FFD3B8B002219469D
:1010D00004480AF09FFF00BF00BF2037BD4680BD17
:1010E000B0A60108000800480004004880B400AF22
:1010F00000BFBD465DF8047B704780B500AF02F0CD
:1011000045F800BF80BD000080B483B000AF7860B8
:10111000074BD3F8803023F0070205497B6813435F
:10112000C1F8803000BF0C37BD465DF8047B7047C6
:101130000004005880B483B000AF7860064BD3F849
:10114000902005497B681343C1F8903000BF0C37ED
:10115000BD465DF8047B70470008005880B483B03A
:1011600000AF78604FF0B0430A4AC3F89C204FF0BC
:10117000B043D3F89C3023F47C527B681B024FF0C1
:10118000B0411343C1F89C3000BF0C37BD465DF839
:10119000047B7047FECAFECA80B483B000AF78609B
:1011A0004FF0B0439B6823F400424FF0B0417B689E
:1011B00013438B6000BF0C37BD465DF8047B70475E
:1011C00080B400AF044B1B68C3F30B031846BD4645
:1011D0005DF8047B704700BF002004E080B400AFDE
:1011E000044B1B681B0C9BB21846BD465DF8047B84
:1011F000704700BF002004E080B400AF054B1B69BE
:10120000044A23F00403136100BFBD465DF8047B6C
:10121000704700BF00ED00E080B483B000AF78609D
:101220007B68FF225A6200BF0C37BD465DF8047B25
:10123000704780B483B000AF78607B68CA225A627E
:101240007B6853225A6200BF0C37BD465DF8047BB1
:10125000704780B483B000AF786039607B689B686A
:1012600023F007023B681A437B689A6000BF0C3783
:10127000BD465DF8047B704780B500AF044B4FF46A
:1012800000421A6100F05AF800F05FF800BF80BD1C
:101290000040005880B500AF00F06BF800F084F813
:1012A0001B49002001F04CFBFFF74FFE01210120FC
:1012B00013F098FF0021002009F046FB154813F0B9
:1012C00083FC0021002009F063FD002009F00CFCE4
:1012D000114813F0F7FCFF2013F0CCFC002013F0B2
:1012E000DDFC0021002009F053FD002009F028FC5E
:1012F00001230A4A0021002013F05AFD002009F0C2
:101300001FFC00F085FA00F05DF800BF80BD00BF53
:1013100054310020D4250208D40000209484010810
:1013200080B400AF00BFBD465DF8047B704780B558
:1013300000AF5020FFF7FEFE00BF80BD80B400AFBD
:1013400000BFBD465DF8047B704780B582B000AF3A
:10135000002012F073FB78607B68002B05D07B685F
:101360009B791846FFF7FAFE00BF00BF0837BD465D
:1013700080BD80B500AFFFF7D3FFFFF7D8FF00F0C7
:1013800003F800BF80BD000080B500AF0548FFF73F
:1013900050FF00210348FFF75CFF0248FFF73CFFC6
:1013A00000BF80BD0028004080B500AF4FF4004072
:1013B000FFF7F2FE13F004FF0420FFF7A5FE00BFC5
:1013C00080BD000080B588B000AF13F0BBF9114AB2
:1013D0000021402014F032F80F4B3B600F4B7B6034
:1013E0003B4619460E4812F043FC0E4BBB600E4BB9
:1013F000FB600E4B3B6140F23C537B6107F10803FD
:10140000184613F0E1FA13F097F900BF2037BD46F4
:1014100080BD00BFA93C0108340703203114000837
:10142000491400084C09032040080320F801032058
:1014300080B483B000AF0346FB7100BF0C37BD46DC
:101440005DF8047B7047000080B588B000AF78601D
:101450007B685B680B33FB61FB691B889BB2A3F560
:101460001243072B00F2D08001A252F823F000BFF4
:1014700091140008231500084515000809160008F6
:1014800089150008AD150008C9150008ED150008FC
:1014900007F10C03184612F03DFB5E4811F063FDA6
:1014A000014640F291135C4A5C4814F0BDFE3B7B60
:1014B00019467B7B1A46BB7B594814F0B5FE55484C
:1014C00011F051FD01464FF4C973534A534814F0CB
:1014D000ABFE3B7C1946534814F0A6FE4D4811F074
:1014E00042FD014640F293134B4A4C4814F09CFED7
:1014F000BB7D1946FB7D1A463B7E4B4814F094FE9B
:10150000444811F030FD014640F29513424A4348E9
:1015100014F08AFE454814F0EFFE786800F0E0F819
:1015200073E03C4811F01FFD01464FF4CD733A4A79
:101530003A4814F079FE3E4814F0DEFE786800F078
:1015400085F862E0334811F00EFD014640F29F132A
:10155000314A324814F068FE364814F0CDFE2D486A
:1015600011F001FD01464FF4D0732B4A2B4814F0C3
:101570005BFEFB6902331968FB6902335B681A463C
:101580002D4814F051FE40E0224811F0ECFC0146D9
:101590004FF4D373204A214814F046FEFB6902330E
:1015A0001B681946254814F03FFE2EE0194811F03B
:1015B000DAFC014640F2AB13174A184814F034FE27
:1015C0001F4814F099FE20E0124811F0CCFC0146AF
:1015D00040F2AF13104A114814F026FEFB690233A3
:1015E0001B681946174814F01FFE0EE0094811F059
:1015F000BAFC01464FF4DA73074A084814F014FEA7
:10160000114814F079FE00E000BF00BF2037BD464E
:1016100080BD00BFA8840108E0A70108308501084B
:10162000488501087085010890850108A885010892
:10163000C8850108EC8501083C8601086886010818
:10164000A4860108C88601080487010880B584B013
:1016500000AF78607B685B680B33FB60FB6802332C
:10166000BB60194811F07FFC01464FF4E673174A3E
:10167000174814F0D9FDBB681B781946154814F0BB
:10168000D3FDBB681B78002B0DD10F4811F06BFC0C
:10169000014640F2D1130D4A0D4814F0C5FD0E4825
:1016A00014F02AFE0DE0084811F05DFC014640F2FE
:1016B000D513064A064814F0B7FD084814F01CFE7E
:1016C00000BF1037BD4680BDA8840108F4A70108FB
:1016D00030850108288701085C8701089887010880
:1016E00080B58AB000AF786007F1080300221A6065
:1016F0005A609A60DA6000237B6200233B627B6859
:101700005B680B33FB61FB690233BB61BB691B7810
:10171000002B46D1364811F026FC014640F2EB136F
:10172000344A354814F080FD344814F0E5FDFFF7E5
:101730001FFC0F233B727F23BB72FFF74FFD7862C4
:101740002B4811F010FC014640F20323294A2A4895
:1017500014F06AFD796A2A4814F066FD7B6A9BB230
:10176000BB82FFF72DFD3862214811F0FCFB0146DA
:101770004FF402731F4A204814F056FD396A21487D
:1017800014F052FD3B6A9BB2FB8207F10803184636
:1017900012F0AAF902F054FD0021012013F022FDFD
:1017A00022E0BB691B78012B10D1114811F0DBFB43
:1017B000014640F215230F4A0F4814F035FD124838
:1017C00014F09AFD7B6800221A700DE0084811F0B1
:1017D000CAFB01464FF40773064A074814F024FD7C
:1017E0000A4814F089FD00BF2837BD4680BD00BF00
:1017F000A884010808A8010830850108D4870108D9
:10180000F087010814880108388801086C880108ED
:1018100080B500AF0121002008F0E2FE0121012087
:1018200008F0DEFE00BF80BD80B584B000AF7860F8
:1018300009F018FDB8607B68FB60FB68B3F1FF3FFF
:101840000AD009F027FD03461A46FB681344FB60E3
:1018500002E0FFF7D1FC30BF09F004FD0246BB688F
:10186000D31AFA689A42F4D800BF00BF1037BD46B9
:1018700080BD80B500AF4FF0FF3013F0E3FC00BF38
:1018800080BD80B400AF00BFBD465DF8047B7047EB
:1018900080B582B000AF786039604FF0FF3013F050
:1018A000D1FC00BF0837BD4680BD80B582B000AF17
:1018B00078600021402013F0E3FD00BF0837BD46EB
:1018C00080BD80B582B000AF7860022013F044FE86
:1018D00000BF0837BD4680BD80B582B000AF7860DC
:1018E000022013F059FE00BF0837BD4680BD00003E
:1018F00080B582B000AF0346FB80FB88B3F5005F84
:101900001FD0B3F5005F1FDC102B0EDC022B1BDB9E
:101910001A46104BD34003F00103002B14BF0123E0
:101920000023DBB2002B04D10EE0B3F5805F05D0BD
:101930000AE0FB88184607F0F3FB06E003F046FADE
:1019400003E003F07BFA00E000BF00BF0837BD46AC
:1019500080BD00BF1401010080B582B000AF034616
:101960003960FB711346BB80FB79042B29D801A297
:1019700052F823F0C119000889190008A5190008B8
:10198000C1190008C1190008BB881A4639680F48F8
:1019900014F067FE0E4B1B7843F00203DAB20C4BD7
:1019A0001A700EE0BB881A4639680A4814F059FECE
:1019B000074B1B7843F00403DAB2054B1A7000E0C2
:1019C00000BF00BF0837BD4680BD00BF3403002004
:1019D00072300020D419002080B582B000AF0346D9
:1019E000FB71094814F088FC084B1B78FA799A427D
:1019F00005D0074B01221A70044AFB79137000BF0F
:101A00000837BD4680BD00BFF088010808000020EF
:101A10002F03002080B582B000AF0346FB7106485B
:101A200014F06AFC054B01221A70054AFB79137009
:101A300000BF0837BD4680BDF08801082F03002095
:101A40000800002080B400AF034B00221A7000BFD2
:101A5000BD465DF8047B70472F03002080B400AFC3
:101A6000034B1B781846BD465DF8047B704700BFEA
:101A70002F03002080B483B000AF0346FB71044AFB
:101A8000FB79137000BF0C37BD465DF8047B7047CF
:101A90002E03002080B400AF034B1B781846BD46D0
:101AA0005DF8047B704700BF2E03002080B582B034
:101AB00000AF7860064B18787A681346DB0213444F
:101AC000194601F015F900BF0837BD4680BD00BFBB
:101AD0002D03002080B500AFFFF7DCFF0346032B8A
:101AE00016D801A252F823F0111B0008F91A0008B9
:101AF000011B0008091B00080220FFF76DFF08E02A
:101B00001020FFF769FF04E00220FFF765FF00E007
:101B100000BF00BF80BD00BF80B582B000AF012311
:101B2000FB71002007F024FC024B1B781846083795
:101B3000BD4680BD38380020B0B596B000AFB74B79
:101B40003C1D1D460FCD0FC495E8030084E803003B
:101B5000B34814F0D1FB0422B249002011F050FC2C
:101B6000B04B9B78032B04D8AE4B9B7887F855304D
:101B700013E0AC4B9B7803F00103DBB2002B04D1E4
:101B8000A84B9B785B08DBB205E0A64B9B785B0813
:101B9000DBB20133DBB287F85530A24B9B78032BC5
:101BA00003D8012387F8543002E0022387F8543029
:101BB0009C4B9B78013B9B0058333B4453F8543C6F
:101BC000FB64984B9B781946974814F02DFB954B76
:101BD0009B789B001A46F96C002011F011FC002341
:101BE000A7F8563045E0B7F85630DB000233FA6C00
:101BF0001A44B7F856301288DB0058333B4423F8B8
:101C00003C2CB7F85630DB00FA6C13441B88B7F84D
:101C10005620C3F58373013399B2D30058333B4444
:101C20000A4623F83A2CB7F85630DB000633FA6C34
:101C30001A44B7F856301288DB0058333B4423F877
:101C4000382CB7F85630DB000433FA6C13441B8889
:101C5000B7F85620C3F58373013399B2D3005833D4
:101C60003B440A4623F8362CB7F856300133A7F820
:101C700056306C4B9B781A46B7F856309342B2D325
:101C8000002387F8523097F8523087F853300023FA
:101C9000A7F8563039E0B7F85630DB0058333B44EC
:101CA00033F83A3C1946B7F85630DB0058333B441A
:101CB00033F8363C1A465D4814F0B6FAB7F8563099
:101CC000DB0058333B4433F83A2C594B1B8C9A4277
:101CD00016D9B7F85630DB0058333B4433F8362C6E
:101CE000534B1B8C9A420BD2B7F85630DBB2013300
:101CF00087F8533097F8533019464E4814F094FA49
:101D0000B7F856300133A7F8563097F855309BB2E4
:101D1000B7F856209A42BED30023A7F8563047E0C2
:101D2000B7F8562013465B001344DB0058333B449E
:101D300033F83C3C1946B7F8562013465B00134471
:101D4000DB0058333B4433F8383C1A463A4814F029
:101D50006BFAB7F8562013465B001344DB00583388
:101D60003B4433F83C3C1E33314AD28B93421ADA5F
:101D7000B7F8562013465B001344DB0058333B444E
:101D800033F8383C1D332A4AD28B93420BDBB7F829
:101D90005630DBB2013387F8523097F8523019468B
:101DA000264814F041FAB7F856300133A7F85630F8
:101DB00097F854309BB2B7F856209A42B0D397F8B0
:101DC000533097F8522002FB03F3002B1DD097F8F5
:101DD000531097F852305A1E13465B0013440B44BD
:101DE0001946174814F020FA164814F085FA97F8A7
:101DF0005230013BDBB297F8542012FB03F3DAB206
:101E000097F853301344DBB203E00E4814F074FA31
:101E1000002318465837BD46B0BD00BF0C8A0108E4
:101E2000C08901080C000020D08901082C89010814
:101E300038380020508901088C890108B0890108D0
:101E4000E48901086089010880B582B000AF0346CB
:101E5000FB71094AFB791370FB79002B07D1012232
:101E6000012106480AF0D6F8054B00221A7000BF7F
:101E70000837BD4680BD00BF12000020001C00488E
:101E80001100002080B582B000AF03460A46FB7106
:101E90001346BB71FB79002B03D10020FFF7D4FF61
:101EA00009E00120FFF7D0FF054ABB791370044B0E
:101EB0001A78044B1A7000BF0837BD4680BD00BFBA
:101EC000130000207330002080B500AF1C4B1B783E
:101ED000002B23D01B4B1B78013BDAB2194B1A7035
:101EE000184B1B78042B29D8174B1B78002B08D0D4
:101EF0000122012115480AF08DF8134B00221A70B7
:101F000007E00022012111480AF084F80E4B01225B
:101F10001A700F4B1A780B4B1A700FE0084B1B7896
:101F2000002B0BD1084B1B78002B07D0012201217D
:101F300006480AF06FF8044B00221A7000BF80BDFB
:101F4000120000207330002011000020001C004807
:101F50001300002080B582B000AFFFF7B5FF504BF3
:101F60001B7803F00603002B24D0FFF7D5FD0346B2
:101F7000BB71BB79042B1DD14A4B00221A70484B10
:101F80001B78022B02D0042B04D013E00420FFF7AF
:101F900023FD0FE0FFF7D0FD0346FB71FB79002B1B
:101FA00004D0FB791946404814F03EF90820FFF7A9
:101FB00013FD00BFFFF752FD0346002B6BD0FFF768
:101FC00041FD374B1B78013B0F2B61D801A252F822
:101FD00023F000BF152000081B20000891200008F6
:101FE0002720000891200008912000089120000877
:101FF0003920000891200008912000089120000855
:1020000091200008912000089120000891200008EC
:102010007F20000804F0EEFA3DE004F033FB0020DE
:10202000FFF728FD37E004F0E1FB0120FFF722FD78
:102030000A20FFF73BFD2EE004F0A2FCFB79002B09
:1020400016D0FB791946184814F0EEF8174B9B7818
:102050005A1EFB79591E164813465B0013445B0059
:1020600003440B441B78184607F046F80023FB7125
:102070000220FFF7FFFC0320FFF718FD0BE004F040
:1020800043FD0320FFF7F6FC0320FFF70FFD02E0FE
:1020900004F0B0FA00BF00BF0837BD4680BD00BFE6
:1020A0000800002038380020E48901080C000020D6
:1020B000CCA8010880B500AF0021202013F0E0F982
:1020C000202013F0BFF800BF80BD000080B500AF36
:1020D0000C4A0021202013F0B1F90B4B01220B49CF
:1020E000002000F007FD0A4B00220A49002000F002
:1020F00001FD064B1B781421184600F0F9FD00BFC6
:1021000080BD00BF551F0008B52000082C0300202B
:10211000D51A00082D03002080B483B000AF78608A
:10212000064BD3F8802005497B681343C1F8803003
:1021300000BF0C37BD465DF8047B704700080058AF
:1021400080B483B000AF7860054B1A6804497B689F
:1021500013430B6000BF0C37BD465DF8047B70472E
:102160000008005880B483B000AF0D4B9B6A9BB24F
:102170007B600B4B9B6A9BB23B6005E03B687B60DE
:10218000074B9B6A9BB23B607A683B689A42F5D1E9
:102190003B6818460C37BD465DF8047B704700BFAE
:1021A0000028004080B485B000AF03460A46FB71AA
:1021B0001346BB71BA791D4913465B001344DB001B
:1021C0000B4415331B78FB73FB7B062B09D0FA7B82
:1021D000164913465B001344DB000B441433FA79B1
:1021E0001A70FA79114913465B001344DB000B4463
:1021F0001533FA7B1A70FA790C4913465B001344C5
:10220000DB000B441433BA791A70BA7907491346C4
:102210005B001344DB000B441533FA791A7000BFDE
:102220001437BD465DF8047B704700BF7430002052
:1022300080B485B000AF03460A46FB711346BB71FC
:10224000294B1B78DBB2BA799A4232D0BA79274946
:1022500013465B001344DB000B4414331B78FB7301
:10226000FA7B224913465B001344DB000B44153311
:10227000FA791A70FA791D4913465B001344DB00A2
:102280000B441533BA791A70FA79184913465B0072
:102290001344DB000B441433FA7B1A70BA791349E8
:1022A00013465B001344DB000B441433FA791A70B5
:1022B00014E0FA790D4913465B001344DB000B442C
:1022C0001533BA791A70BA79084913465B0013447A
:1022D000DB000B441433FA791A7000BF1437BD4683
:1022E0005DF8047B704700BF04310020743000208B
:1022F00080B584B000AF0346FB714E4B1B78DBB258
:10230000062B18D14B4B1B78DAB24B4B1A70494A4B
:10231000FB791370FA79494913465B001344DB00DB
:102320000B44153306221A70454B4FF0FF321A60EA
:102330000023FB8178E000F009F90346FB81FA797C
:102340003E4913465B001344DB000B440833196815
:10235000FB89FA791944394813465B001344DB00C2
:10236000034408331960FA79344913465B00134477
:10237000DB000B4408331B68BB602E4B1B78DBB2C1
:1023800019462E4A0B465B000B44DB00134408330E
:102390001B68BA689A4237D3264B1B787B737A7BCB
:1023A000264913465B001344DB000B4415331B78AE
:1023B0003B7313E07A7B214913465B001344DB0037
:1023C0000B4415331B787B737A7B1C4913465B00E7
:1023D0001344DB000B4415331B783B733B7B062B0C
:1023E0000BD03A7B154913465B001344DB000B44CA
:1023F00008331B68BA689A42DCD27A7BFB791146B3
:102400001846FFF7CFFE0FE00A4B1B78DAB2FB79D4
:1024100011461846FFF70CFF064B1B78DAB2064B45
:102420001A70044AFB791370FB8918461037BD46B1
:1024300080BD00BF04310020053100207430002031
:102440000831002080B485B000AF03460A46FB7116
:102450001346BB71394B1B78DBB2FA799A4211D122
:10246000364B1B78DAB2364B1A70FA793549134677
:102470005B001344DB000B4415331B78DAB22F4B9F
:102480001A703EE0FA792F4913465B001344DB00D3
:102490000B4414331B78FB73FA792A4913465B000B
:1024A0001344DB000B4415331B78BB73F979FA7BBB
:1024B00024480B465B000B44DB00034415331B78B8
:1024C000D8B2204913465B001344DB000B4415339C
:1024D00002461A70BB7B062B13D0F979BA7B1948D8
:1024E0000B465B000B44DB00034414331B78D8B26B
:1024F000144913465B001344DB000B4414330246BB
:102500001A70FA790F4913465B001344DB000B4441
:102510000C3301221A70094B1B78DBB2062B07D152
:10252000BB79002B04D1084B4FF0FF321A6000BF7B
:1025300000BF1437BD465DF8047B704704310020AE
:1025400005310020743000200831002080B582B0B1
:1025500000AF1A4B1B68B3F1FF3F26D0FFF702FE16
:102560007860164B1B687A689A4205D8134B1A6834
:102570007B68D31A7B600AE0114B1B881A467B6884
:10258000D31A3B600D4B1B683A6813447B600D4BBC
:102590001B781A467B6802FB03F37B600A4B1B78AF
:1025A0001A467B68D3407B6001E000237B607B6838
:1025B0009BB218460837BD4680BD00BF08310020D9
:1025C000103100200E3100200D31002080B582B086
:1025D00000AF0346FB80FB88002B08D1FFF7C2FD4C
:1025E0000346214A1360032008F0E9FF39E0FB8825
:1025F000012B03D81D4B1B78012B02D0FB88013B1C
:10260000FB8000BF1A4B1B68DB6803F00403002B40
:10261000F8D0174B1B68DB68DAB2154B1B6862F405
:102620009062DA60134B4FF40022DA60032008F066
:10263000D4FF114B5B691B0C1B04FA880E49134332
:102640004B61FFF78FFD0346074A1360084B1B6879
:102650009A68074B1B6842F480629A60AFF300806F
:1026600000BF0837BD4680BD083100200D31002075
:1026700054310020000800580028004080B584B084
:1026800000AF454B9B6803F48063B3F5806F07D1BF
:1026900000BF424B1B68DB6803F00403002BF8D13A
:1026A0003E4B1B689A683D4B1B6822F480629A601F
:1026B0003B4B1B78FB73FA7B3A4913465B00134490
:1026C000DB000B4408331B68BB60FFF73FFF03468A
:1026D000FB80FB88BA689A4205D20023BB81324B4B
:1026E00001221A704DE0FB88304A128892B21344DE
:1026F0001A46BB68934206D92C4B1B88BB812A4BD8
:1027000000221A703DE0BB689AB2FB88D31ABB81E5
:10271000254B01221A7034E0FA7B224913465B00F4
:102720001344DB000B4408331A68FB889A420AD230
:10273000FA7B1C4913465B001344DB000B4408334F
:1027400000221A6013E0FA7B164913465B0013441B
:10275000DB000B4408331968FB88FA7BC91A11485F
:1027600013465B001344DB00034408331960FA7B13
:102770000C4913465B001344DB000B4415331B78F4
:10278000FB73FB7B062BC7D1BB891846FFF71EFFE7
:1027900000BF1037BD4680BD0028004054310020E6
:1027A00004310020743000200C3100201231002050
:1027B00080B58AB000AFEFF310837B617B697B62E9
:1027C00072B600BF594B1B68CA225A62574B1B682E
:1027D00053225A62554B1B689A68544B1B6822F46B
:1027E00080629A60524B1B7887F8233097F8232039
:1027F000504913465B001344DB000B440C331B7839
:10280000DBB2022B6ED197F823204A4913465B00B6
:102810001344DB000B441B68FB6197F823204549F8
:1028200013465B001344DB000B4410331B68BB6191
:10283000414B1B78DBB2002B4CD097F823203D494D
:1028400013465B001344DB000B440D331B78DBB2F3
:10285000012B24D197F8233001211846FFF7F2FD10
:102860007B6A3B613B6983F3108800BF97F82320A4
:10287000304913465B001344DB000B4404331A68F1
:1028800097F823301146184600F032FA274B1B68A0
:10289000CA225A62254B1B6853225A6212E07B6A95
:1028A000FB60FB6883F3108800BF97F8233018465D
:1028B00000F09AF91D4B1B68CA225A621B4B1B6819
:1028C00053225A6297F82330FA691946B86900F022
:1028D00095FA22E0FFF7D2FE7B6ABB60BB6883F308
:1028E00010881AE000BF114B1B68DB6803F004037B
:1028F000002BF8D00D4B1B68DB68DAB20B4B1B6862
:1029000062F49062DA600D4B4FF40022DA607B6A69
:102910007B607B6883F3108800BF044B1B68FF2239
:102920005A6200BF2837BD4680BD00BF5431002029
:1029300004310020743000200C31002000080058C1
:1029400080B588B000AF03463960FB715E4B1B68F1
:10295000CA225A625C4B1B6853225A625B4B9B68CB
:102960005A4A43F020039360584B9B68DBB203F054
:102970000703DBB2C3F10403DAB2554B1A70534BB1
:102980001B6903F4FE034FF4FE023A613A6992FABE
:10299000A2F2FA60FA687A617A69002A01D12022EB
:1029A00003E07A69B2FA82F2D2B2D340DBB20133E9
:1029B000DAB2484B1A70454B1B699BB2C3F30E0346
:1029C0009BB201339AB2444B1A80434B1B88013BA4
:1029D000404A127802FB03F3A3F5A0733C4A127835
:1029E000D340BB61BB694FF6FE72934204D93B4BA7
:1029F0004FF6FF721A8003E0BB699AB2374B1A8018
:102A00004FF40020FFF79CFB4FF40020FFF784FBFE
:102A1000FB79002B3DD1324B01221A70314B4FF024
:102A2000FF321A600023FB770CE0FA7F2E49134631
:102A30005B001344DB000B440C3300221A70FB7F55
:102A40000133FB77FB7F052BEFD9284B06221A7049
:102A50001D4B1B689A681C4B1B6822F480629A60AD
:102A6000194B1B68DB68DAB2174B1B6862F4906283
:102A7000DA601F4B4FF40022DA60032008F0ADFD4E
:102A8000114B1B689A68104B1B6842F480429A6095
:102A900009E00D4B1B68DB6803F48063002B02D058
:102AA000032008F08CFD084B1B68FF225A620022AD
:102AB0000321032008F041FD032008F058FD00BF6A
:102AC0002037BD4680BD00BF5431002000280040A3
:102AD0000D3100200E310020103100201231002075
:102AE0000C31002008310020743000200431002017
:102AF0000008005880B48BB000AFF860B9603B604C
:102B00001346FB71002387F82630EFF31083FB6137
:102B1000FB693B6272B600BF04E097F826300133D0
:102B200087F8263097F82630052B0CD897F8262002
:102B30002C4913465B001344DB000B440C331B7819
:102B4000DBB2002BE9D197F82630062B38D097F866
:102B50002620244913465B001344DB000B440C334E
:102B600001221A703B6ABB61BB6983F3108800BF06
:102B700097F826201B4913465B001344DB000B44E7
:102B80001033FA681A6097F82620164913465B003E
:102B90001344DB000B440D33FA791A7097F82620A2
:102BA000104913465B001344DB000B443A681A607B
:102BB000BB6897F826201A70002387F8273008E0B2
:102BC0003B6A7B617B6983F3108800BF012387F830
:102BD000273097F8273018462C37BD465DF8047B20
:102BE000704700BF7430002080B586B000AF034648
:102BF000FB71EFF31083FB60FB687B6172B600BF73
:102C0000032008F0C2FC344B1B68CA225A62324BC4
:102C10001B6853225A62FA79304913465B00134409
:102C2000DB000B440C331B78DBB2022B42D1FB7967
:102C300000211846FFF706FC294B1B78FB74FB7C30
:102C4000062B2FD1274B9B6803F48063B3F5806F6D
:102C500007D100BF204B1B68DB6803F00403002B87
:102C6000F8D11D4B1B689A681B4B1B6822F48062CD
:102C70009A6000BF184B1B68DB6803F00403002B4D
:102C8000F8D0154B1B68DB68DAB2134B1B6862F493
:102C90009062DA60144B4FF40022DA60032008F0EF
:102CA0009CFC07E0114B1B78DBB2FA7C9A4201D006
:102CB000FFF7E4FC084B1B68FF225A62032008F070
:102CC00056FC7B69BB60BB6883F3108800BF00BF04
:102CD0001837BD4680BD00BF54310020743000203D
:102CE0000431002000280040000800580531002071
:102CF00080B586B000AF03463960FB71FA793B4975
:102D000013465B001344DB000B440C331B78DBB22F
:102D1000022B03D1FB791846FFF766FFEFF3108310
:102D2000FB60FB687B6172B600BF032008F02DFCDE
:102D30002F4B1B68CA225A622D4B1B6853225A62C2
:102D4000FA792A4913465B001344DB000B440C3329
:102D500002221A70FA79254913465B001344DB00FE
:102D60000B4408333A681A60FA79204913465B002D
:102D70001344DB000B4404333A681A60FB791846AD
:102D8000FFF7B6FA03467B821A4B1B787B741A4B0B
:102D90001B78DBB27A7C9A4202D0FFF76FFC13E01B
:102DA000FA79124913465B001344DB000B440833E5
:102DB00019687B8AFA79C91A0C4813465B001344D8
:102DC000DB00034408331960094B1B68FF225A6279
:102DD000032008F0CCFB7B69BB60BB6883F31088E1
:102DE00000BF00BF1837BD4680BD00BF7430002053
:102DF00054310020043100200531002080B584B01A
:102E000000AFF8600B467A60FB727B68984700BFA2
:102E10001037BD4680BD000080B582B000AF78603D
:102E20007B681B681A46094B9A4207D1084B1B68FE
:102E3000002B05D0064B1B68984701E000BF00E05F
:102E400000BF00BF0837BD4680BD00BF0080004006
:102E50001431002080B483B000AF78604FF0B043ED
:102E6000D3F8903023F018024FF0B0417B68134341
:102E7000C1F8903000BF0C37BD465DF8047B704749
:102E800080B485B000AF78604FF0B0439A6C4FF0DB
:102E9000B0417B6813438B644FF0B0439A6C7B68FE
:102EA0001340FB60FB6800BF1437BD465DF8047B30
:102EB000704780B485B000AF78604FF0B043DA6CF3
:102EC0004FF0B0417B681343CB644FF0B043DA6CF2
:102ED0007B681340FB60FB6800BF1437BD465DF89C
:102EE000047B704780B483B000AF78607B68FF22BA
:102EF0005A6200BF0C37BD465DF8047B704780B452
:102F000083B000AF78607B68CA225A627B68532224
:102F10005A6200BF0C37BD465DF8047B704780B431
:102F200083B000AF786039607B689B6823F007024C
:102F30003B681A437B689A6000BF0C37BD465DF85A
:102F4000047B704780B500AF08F01EF9FEF794F9D6
:102F500000F02AF800F084F800F0A2F800F002FD7A
:102F600000F072F900F05EF900F0B6F800F00EF92A
:102F700000F0AAF800F052FC00F0B4FC00F0E0F819
:102F800000F08AFCFEF786F90020FEF75DFF03F0F3
:102F9000BBFAFFF79BF806F0C1F90220FEF71CFD13
:102FA000FEF767FCFCE7000080B59AB000AF07F1C0
:102FB000200348220021184613F0AEFA3B1D0022E0
:102FC0001A605A609A60DA601A615A619A6109F06F
:102FD000FDFE1020FFF73EFF204B1B6823F4C0636B
:102FE0001E4A43F4007313601C4B1B6803F4C06358
:102FF0003B603B6807233B624FF480337B620123D5
:10300000BB624FF48073FB6240233B630023FB648D
:1030100007F1200318460AF0A1FD0346002B01D05A
:1030200000F0A7FC6F237B600223BB600023FB60E2
:1030300000233B6100237B610023BB610023FB6114
:103040003B1D012118460BF0FDF80346002B01D073
:1030500000F08FFC00BF6837BD4680BD00040058FB
:1030600080B594B000AF3B4650220021184613F0C3
:1030700053FA4FF440533B604FF480437B64022388
:10308000BB640023FB643B4618460BF018FD034667
:10309000002B01D000F06DFC00BF5037BD4680BD55
:1030A00080B500AF064B074A1A60054809F008FED4
:1030B0000346002B01D000F05CFC00BF80BD00BFC8
:1030C00018310020000C005880B400AF00BFBD468E
:1030D0005DF8047B7047000080B500AF164B174ABF
:1030E0001A60154B00225A60134B0F229A60124B44
:1030F00047F6FF72DA60104B00221A610E4B002275
:103100009A610D4B0022DA610B4B00225A610A488A
:103110000BF05CFF0346002B01D000F02AFC0748AF
:10312000FFF7EDFE00210548FFF7F9FE0348FFF722
:10313000D9FE00BF80BD00BF5431002000280040F0
:1031400080B500AF0F4B104A1A600E4B00225A6038
:103150000C4B00229A600B4B4FF6FF72DA60094B62
:1031600000221A61074B00225A61064B80229A61A5
:1031700004480CF09BFF0346002B01D000F0F9FB44
:1031800000BF80BD783100200044014080B500AF11
:10319000224B234A1A60214B4FF4E1325A601F4BF5
:1031A00000229A601D4B0022DA601C4B00221A613B
:1031B0001A4B0C225A61194B00229A61174B0022BC
:1031C0001A62164B00225A62144B00229A62134B69
:1031D00000225A6611480DF01BFA0346002B01D05D
:1031E00000F0C7FB00210D480EF023FB0346002B27
:1031F00001D000F0BEFB002108480EF058FB03464A
:10320000002B01D000F0B5FB04480EF0D9FA0346BC
:10321000002B01D000F0ADFB00BF80BDB832002014
:103220000080004080B500AF0420FFF729FE022097
:10323000FFF726FE00220F213A2008F07EF93A20FF
:1032400008F095F900BF80BD80B586B000AF3B1D8A
:1032500000221A605A609A60DA601A610120FFF752
:1032600028FE0420FFF725FE0220FFF722FE08209B
:10327000FFF71FFE1020FFF71CFE8020FFF719FE4E
:1032800000220321BF4808F0C5FE00224FF4407120
:10329000BD4808F0BFFE00224FF48071BB4808F023
:1032A000B9FE00220421BA4808F0B4FE0022012130
:1032B000B64808F0AFFE00224021B34808F0AAFE4D
:1032C00001224021B34808F0A5FE012220214FF041
:1032D000904008F09FFE3A237B600323BB600023ED
:1032E000FB603B1D1946A84808F02EFC40F604433D
:1032F0007B600023BB600023FB603B1D1946A24896
:1033000008F022FC4FF400737B600223BB600023B3
:10331000FB6000233B610A237B613B1D19469D48EE
:1033200008F012FC01237B600223BB600023FB60DA
:1033300000233B6108237B613B1D1946924808F03E
:1033400003FC4FF480737B601223BB600023FB609F
:1033500000233B6104237B613B1D19468D4808F027
:10336000F3FB4FF481537B600223BB600023FB60BF
:1033700000233B6108237B613B1D1946854808F00B
:10338000E3FB4FF400437B600223BB600023FB6040
:1033900000233B6101237B613B1D19464FF09040A8
:1033A00008F0D2FB4FF480637B601223BB600023E4
:1033B000FB6000233B6104237B613B1D19464FF0FA
:1033C000904008F0C1FB4FF4C0537B600223BB6008
:1033D0000023FB6000233B610A237B613B1D1946F0
:1033E0004FF0904008F0B0FB12237B600023BB60DD
:1033F0000023FB603B1D1946654808F0A5FB4FF410
:1034000080637B600223BB600023FB6000233B6181
:1034100001237B613B1D19465E4808F095FB0423A0
:103420007B600023BB600023FB603B1D19465948AD
:1034300008F08AFB4FF440737B600223BB600023DB
:10344000FB6000233B6103237B613B1D19464FF06A
:10345000904008F079FB40237B600223BB6000238F
:10346000FB6000233B6108237B613B1D19464FF045
:10347000904008F069FB08237B600223BB600023B7
:10348000FB6000233B610A237B613B1D19464FF023
:10349000904008F059FB03237B600123BB600023AD
:1034A000FB6000233B613B1D1946364808F04CFB8E
:1034B0004FF440437B600223BB600023FB6000238A
:1034C0003B6101237B613B1D1946304808F03CFB02
:1034D00043F210037B600023BB600023FB603B1DB5
:1034E00019462A4808F030FB4FF401737B604FF413
:1034F0008813BB600023FB603B1D1946234808F07E
:1035000023FB4FF440737B600123BB600023FB600F
:1035100000233B613B1D19461B4808F015FB68233F
:103520007B600223BB600023FB6000233B610A2316
:103530007B613B1D1946154808F006FB08237B609C
:103540004FF48813BB600023FB603B1D19461048F5
:1035500008F0FAFA4FF480737B600123BB6000230C
:10356000FB6000233B613B1D1946084808F0ECFA5C
:103570004FF440637B600223BB600023FB600023A9
:103580000AE000BF001C004800080048000C00488A
:1035900000100048000400483B6109237B613B1D8B
:1035A0001946784808F0D0FA04237B600123BB60F9
:1035B0000023FB6000233B613B1D1946724808F065
:1035C000C3FA01237B600223BB600023FB6000235E
:1035D0003B610E237B613B1D19466B4808F0B4FA32
:1035E00001237B600123BB600023FB6000233B6160
:1035F0003B1D1946634808F0A7FA02237B600023AD
:10360000BB600223FB603B1D19465E4808F09CFA34
:1036100040237B600123BB600023FB6000233B61F0
:103620003B1D1946594808F08FFA40237B6001235F
:10363000BB600123FB6001233B613B1D19465448DD
:1036400008F082FA00224FF400414FF0904008F059
:10365000E1FC012210214FF0904008F0DBFC002239
:103660000221494808F0D6FC06237B604FF48813FA
:10367000BB600023FB603B1D19464FF0904008F0F3
:1036800063FA18237B604FF48813BB600023FB6050
:103690003B1D19463D4808F057FA4FF480637B60A4
:1036A0000123BB600023FB6000233B613B1D1946E7
:1036B000364808F049FA48F210037B600123BB60EA
:1036C0000023FB6000233B613B1D19464FF09040F7
:1036D00008F03AFA4FF480437B600023BB6000237C
:1036E000FB603B1D1946274808F02EFA02237B6039
:1036F0000123BB600023FB6000233B613B1D194697
:10370000214808F021FA40237B600123BB6000239D
:10371000FB6000233B613B1D19464FF0904008F0D1
:1037200013FA20237B604FF48813BB600023FB60F7
:103730003B1D19464FF0904008F006FA0022052183
:10374000072007F0FAFE072007F011FF00220521ED
:10375000082007F0F2FE082007F009FF00220521EB
:10376000092007F0EAFE092007F001FF00220521E9
:103770000A2007F0E2FE0A2007F0F9FE00BF183722
:10378000BD4680BD000C00480010004800080048FD
:103790000004004880B582B000AF786039601D4BEE
:1037A0001D4A1A601B4B4FF482725A60194B00225B
:1037B0009A60184B4FF4E062DA60164B00221A61EF
:1037C000144B00225A61134B4FF400729A61114B53
:1037D0000022DA610F4B00221A620E4B00225A625D
:1037E0000C4B00229A620B4B0722DA62094B002233
:1037F0001A63084B08225A6306480BF01DFD034666
:10380000002B01D000F0B5F800BF18460837BD46C0
:1038100080BD00BFAC3300200030014080B500AF58
:103820001B4B1C4A1A601A4B4FF482725A60184B99
:1038300000229A60164B4FF4E062DA60144B0022CB
:103840001A61134B00225A61114B4FF400729A61B6
:103850000F4B2022DA610E4B00221A620C4B002221
:103860005A620B4B00229A62094B0722DA62084B1C
:1038700000221A63064B08225A6305480BF0DCFC51
:103880000346002B01D000F074F800BF80BD00BFDC
:10389000103400200038004080B500AF0F4B104AB4
:1038A0001A600E4B02225A600C4B01229A600B4B9D
:1038B0000022DA60094B17221A61084B00225A6174
:1038C000064B00229A61054809F09EFA0346002B38
:1038D00001D000F04EF800BF80BD00BF743400205E
:1038E000001000A080B500AF1B4B1C4A1A601A4B99
:1038F0001B4A5A60184B00229A60174B0122DA606B
:10390000154B00221A61144B00225A61124B0022FF
:103910009A61114B0022DA610F4B00221A620E48A5
:1039200008F0E6FB0346002B01D000F022F800214E
:10393000094809F02DF90346002B01D000F019F8D1
:103940000021054809F06FF90346002B01D000F073
:1039500010F800BF80BD00BFB83400200054004004
:10396000B57DB11080B400AF00BFBD465DF8047BEB
:10397000704780B400AF72B600BF00BFFDE780B4EF
:1039800083B000AF78604FF0B043D3F8903023F4A9
:1039900040724FF0B0417B681343C1F8903000BFD4
:1039A0000C37BD465DF8047B704780B400AF4FF024
:1039B000B043D3F890304FF0B04243F40043C2F824
:1039C000903000BFBD465DF8047B704780B485B081
:1039D00000AF78604FF0B043DA6C4FF0B0417B68D5
:1039E0001343CB644FF0B043DA6C7B681340FB6049
:1039F000FB6800BF1437BD465DF8047B704780B498
:103A000085B000AF78604FF0B0431A6D4FF0B04111
:103A10007B6813430B654FF0B0431A6D7B6813400E
:103A2000FB60FB6800BF1437BD465DF8047B704740
:103A300080B485B000AF78604FF0B0439A6D4FF01E
:103A4000B0417B6813438B654FF0B0439A6D7B6840
:103A50001340FB60FB6800BF1437BD465DF8047B74
:103A6000704780B485B000AF78604FF0B043DA6D36
:103A70004FF0B0417B681343CB654FF0B043DA6D34
:103A80007B681340FB60FB6800BF1437BD465DF8E0
:103A9000047B704780B485B000AF78604FF0B043CE
:103AA0001A6E4FF0B0417B6813430B664FF0B04382
:103AB0001A6E7B681340FB60FB6800BF1437BD467D
:103AC0005DF8047B704780B500AF4FF40020FFF72E
:103AD00096FF002200212E2007F02FFD2E2007F058
:103AE00046FD00BF80BD000080B582B000AF7860A9
:103AF0007B681B68054A934203D14FF48010FFF79F
:103B00007EFF00BF0837BD4680BD00BF000C0058D7
:103B100080B596B000AF786007F10803502200210D
:103B2000184612F0F9FC7B681B68144A934220D1B6
:103B300009F04CF909F04AF94FF48070FFF71FFFC4
:103B40004FF40063BB604FF48073BB6407F108035C
:103B500018460AF0B4FF0346002B01D0FFF709FF17
:103B6000FFF723FF4FF48060FFF762FF78680BF0E8
:103B70002DFB00BF5837BD4680BD00BF0028004068
:103B800080B588B000AF786007F10C0300221A609E
:103B90005A609A60DA601A617B681B680A4A93422D
:103BA0000ED14FF40030FFF775FF1020FFF70EFF26
:103BB00000220021192007F0C0FC192007F0D7FCD3
:103BC00000BF2037BD4680BD0044014080B59CB099
:103BD00000AF786007F15C0300221A605A609A60B7
:103BE000DA601A6107F10C0350220021184612F026
:103BF00093FC7B681B685C4A934256D10123FB60AF
:103C000000237B6207F10C0318460AF058FF0346B5
:103C1000002B01D0FFF7ADFE4FF48040FFF73AFFD5
:103C20000220FFF7D3FEC023FB6502233B6601237E
:103C30007B660323BB660723FB6607F15C0319461B
:103C40004A4807F081FF4A4B4A4A1A60484B0F2204
:103C50005A60474B10229A60454B0022DA60444B71
:103C600080221A61424B00225A61414B00229A6124
:103C70003F4B0022DA613E4B00221A623C4807F0BB
:103C8000BBFC0346002B01D0FFF773FE7B68384A6C
:103C9000DA67374A7B68936200220021242007F00C
:103CA0004CFC242007F063FC59E07B681B68324A17
:103CB000934254D10223FB600023BB6207F10C0343
:103CC00018460AF0FCFE0346002B01D0FFF751FE18
:103CD0000120FFF7C6FE0420FFF778FE0323FB65F3
:103CE00002233B6600237B660023BB660823FB663A
:103CF00007F15C031946214807F026FF204B214AB3
:103D00001A601F4B11225A601D4B10229A601C4BE7
:103D10000022DA601A4B80221A61194B00225A6184
:103D2000174B00229A61164B0022DA61144B0022D5
:103D30001A62134807F060FC0346002B01D0FFF71E
:103D400018FE7B680E4ADA670D4A7B689362002290
:103D50000021252007F0F1FB252007F008FC00BF1B
:103D60007037BD4680BD00BF0038014000040048E8
:103D700058320020440402400080004000080048FF
:103D80004C3300204400024080B588B000AF78601A
:103D900007F10C0300221A605A609A60DA601A6117
:103DA0007B681B681D4A934217D14FF48050FFF780
:103DB00071FE0220FFF70AFE3823FB6002233B61FD
:103DC00000237B610223BB610523FB6107F10C0328
:103DD0001946134807F0B8FE1CE07B681B68114ABF
:103DE000934217D14FF48040FFF722FE0220FFF7E5
:103DF000EDFD4FF46043FB6002233B6100237B61D8
:103E00000023BB610523FB6107F10C03194604483D
:103E100007F09AFE00BF2037BD4680BD003001404C
:103E2000000400480038004080B588B000AF7860DA
:103E300007F10C0300221A605A609A60DA601A6176
:103E40007B681B68224A93423ED14FF48070FFF793
:103E5000D6FD0220FFF7BAFD0120FFF7B7FD0820CD
:103E6000FFF7B4FD4FF40073FB6002233B610023B6
:103E70007B610023BB610A23FB6107F10C03194638
:103E8000144807F061FE0823FB6002233B61002316
:103E90007B610023BB610A23FB6107F10C03194618
:103EA0004FF0904007F050FEE823FB6002233B6197
:103EB00000237B610023BB610A23FB6107F10C0334
:103EC0001946054807F040FE00BF2037BD4680BDBB
:103ED000001000A000040048000C004880B59CB011
:103EE00000AF786007F15C0300221A605A609A60A4
:103EF000DA601A6107F10C0350220021184612F013
:103F00000BFB7B681B68174A934226D10423FB6096
:103F10004FF44033FB6207F10C0318460AF0CFFD63
:103F20000346002B01D0FFF724FD0220FFF74EFDD2
:103F30004FF4C073FB6512233B6600237B660023AE
:103F4000BB660423FB6607F15C031946064807F0CD
:103F5000FBFD4FF40010FFF76BFD00BF7037BD464F
:103F600080BD00BF005400400004004880B400AF92
:103F700000BFFDE780B400AF00BFFDE780B400AF35
:103F800000BFFDE780B400AF00BFFDE780B400AF25
:103F900000BFFDE780B400AF00BFBD465DF8047B05
:103FA000704780B400AF00BFBD465DF8047B70472A
:103FB00080B400AF00BFBD465DF8047B704780B59C
:103FC00000AF07F03BF900BF80BD000080B500AF37
:103FD00002480CF040F900BF80BD00BF78310020DE
:103FE00080B500AF02480CF0F1FB00BF80BD00BF00
:103FF000C431002080B500AF08F056F800BF80BD86
:1040000080B500AF024807F05DFC00BF80BD00BF77
:104010005832002080B500AF01F03EFD00BF80BDEA
:1040200080B500AF01F06EFD00BF80BD80B500AF70
:104030004FF4805008F020F84FF4005008F01CF8BE
:1040400000BF80BD80B500AFFEF7B2FB00BF80BDF2
:1040500080B500AF06F0AEFA00BF80BD80B500AFFE
:10406000022008F009F800BF80BD80B500AF042031
:1040700008F002F800BF80BD80B500AF082007F04F
:10408000FBFF00BF80BD80B500AF102007F0F4FF3C
:1040900000BF80BD80B500AF202007F0EDFF00BF5E
:1040A00080BD80B400AF01231846BD465DF8047B97
:1040B000704780B582B000AF7860396012F0A4FA22
:1040C000034616221A604FF0FF3318460837BD46E4
:1040D00080BD80B582B000AF78604FF0FF31786866
:1040E000FFF7E7FF00BFFDE780B586B000AFF860DF
:1040F000B9607A6000237B610AE0AFF3008001467B
:10410000BB685A1CBA60CAB21A707B6901337B6102
:104110007A697B689A42F0DB7B6818461837BD469F
:1041200080BD80B483B000AF78604FF0FF33184695
:104130000C37BD465DF8047B704780B483B000AF98
:10414000786039603B684FF400525A60002318468B
:104150000C37BD465DF8047B704780B483B000AF78
:104160007860012318460C37BD465DF8047B704724
:1041700080B485B000AFF860B9607A60002318465B
:104180001437BD465DF8047B7047000080B586B0EB
:1041900000AF7860144A154BD31A7B617B693B6191
:1041A000134B1B68002B02D1114B124A1A60104BA3
:1041B0001A687B6813443A699A4207D212F024FACB
:1041C00003460C221A604FF0FF3309E0084B1B68CE
:1041D000FB60074B1A687B681344054A1360FB6851
:1041E00018461837BD4680BD0000032000100000AF
:1041F0000C3500206068002080B400AF034B1B68C2
:104200001846BD465DF8047B704700BF8075FF1FF0
:1042100080B400AF034B1B68DBB21846BD465DF8A7
:10422000047B70478475FF1F80B400AF034B1B688D
:104230001B0A1846BD465DF8047B70478475FF1F56
:10424000F0B5B1B004AF07F19403C7F8AC309E4BA2
:104250003C1D1D460FCD0FC40FCD0FC40FCD0FC495
:1042600095E8070003C4228000F024FE012102200B
:1042700010F0B8FF954A0021042011F0DFF83B1D33
:1042800018460FF003FC034687F8AB3097F8AB30C5
:10429000002B12D08E480EF066FE014640F24F13FE
:1042A0008C4A8D4811F0C0FF97F8AB3019468B4807
:1042B00011F0BAFFFFF75DFB0CE085480EF053FEEE
:1042C000014640F25513834A834811F0ADFF8448FC
:1042D00012F012F800F004FE10F088F9814B002271
:1042E00083F880207F4B4FF6FF72DA827E4A0021EE
:1042F000012011F0A3F801F081FA7C4B8922DA70D9
:104300007B4B00227B490020FEF7F4FB754B022219
:104310005A76744B01221A7641F60D0001F0DAF953
:10432000754B80221A80754BA0221A80012001F063
:104330008BF8D7F8AC000FF0EDFB0346002B40F0F4
:10434000928001F083F9C7F8A400D7F8A4300533B0
:104350001B781D46D7F8A43004331B781E46D7F8C7
:10436000A43003331B781A46D7F8A43002331B78E5
:104370001946D7F8A43001331B781C46D7F8A4306F
:104380001B7807F180000393029401910092334659
:104390002A465B4911F0B8FFD7F8AC301B781A46B3
:1043A000D7F8AC305B781946D7F8AC309B7807F17A
:1043B000680000930B46534911F0A6FFD7F8AC30C4
:1043C000DB781A46D7F8AC301B7907F154004E4918
:1043D00011F09AFFD7F8AC309B7A1A46D7F8AC3078
:1043E000DB7A1946D7F8AC301B7B07F1400000930D
:1043F0000B46464911F088FF0021002006F0C8FC5A
:10440000002006F09DFB07F180020323002100201D
:1044100010F0CEFC10F06AFC0346DB88194607F169
:1044200068020323002010F0C3FC10F05FFC034679
:10443000DB885B00194607F154020323002010F0CB
:10444000B7FC10F053FC0346DB881A4613465B00AA
:104450001344194607F140020323002010F0A8FC82
:10446000002006F06DFB4FF47A60FDF7DDF90021C6
:10447000002006F08DFC002006F062FB0123244A98
:104480000021002010F094FC10F030FC0346DB8883
:10449000194607F180020323002010F089FC10F078
:1044A00025FC0346DB881A4613465B001344194675
:1044B0000323184A002010F07BFC002006F040FB8C
:1044C00000BFB437BD46F0BDA08B01080131010823
:1044D000248A010820A90108B08A0108C88A0108B5
:1044E000008B0108183500203D57000814000020FB
:1044F0002D570008993500209C3500209E3500205E
:10450000288B0108488B01085C8B0108708B01081F
:10451000808B0108948B0108F0B597B004AF7860E8
:10452000922387F847307B6801333B643B6C1B78F0
:10453000FF2B00F04C82FF2B00F31884052B04D0D6
:104540003E2B00F0878000F011BC3B6C02333B62D5
:104550003B6AB3F801309AB2A84BDB8A9A4228D161
:10456000A64B0022DA82A54B002283F88020A448C3
:104570000EF0F9FC014640F2DB13A24AA24811F00A
:1045800053FEA24811F0B8FE9D480EF0ECFC014627
:104590004FF4EE739B4A9C4811F046FE3B6AB3F819
:1045A00001309BB219463B6ADB781A46984811F0F5
:1045B0003BFE01F04BF878627B6A05331B781D46A1
:1045C0007B6A04331B781E467B6A03331B781A46CA
:1045D0007B6A02331B7819467B6A01331B781C46C1
:1045E0007B6A1B7807F10800039302940191009203
:1045F00033462A46874911F087FE0021002006F045
:10460000C7FB002006F09CFA0123834A002100200A
:1046100010F0CEFB10F06AFB0346DB88194607F169
:1046200008020323002010F0C3FB10F05FFB0346D9
:10463000DB881A4613465B00134419460323774A66
:10464000002010F0B5FB002006F07AFA012000F0FF
:10465000FBFE8EE33B6C02337B637B6B1B780C2B86
:1046600048D00C2B00F3B181012B00F0EB80032B21
:1046700040F0AB817B6B0133FB6261480EF073FC51
:10468000014640F205235F4A5F4811F0CDFD6448C2
:1046900011F032FE5A480EF066FC014640F2062345
:1046A000584A594811F0C0FDFB6AB3F803309BB279
:1046B0001846FBF70FFF4FF000025A4BFBF774FF51
:1046C00002460B4610461946FB6AB3F805309BB20A
:1046D0001C46FB6AB3F807309BB21A4613469B0090
:1046E00013445B000193009402460B464E4811F0C0
:1046F0009BFD6BE17B6B01333B6341480EF033FC68
:10470000014640F213233F4A3F4811F08DFD4748D0
:1047100011F0F2FD3B6B1B78002B0DD138480EF0E9
:1047200022FC014640F21623364A374811F07CFD40
:104730003F4811F0E1FD0CE031480EF014FC014659
:1047400040F21A232F4A304811F06EFD394811F01B
:10475000D3FD2A4BDB8A07F11E0207F11F01184621
:104760000EF006FB034687F8473097F84730002BDA
:104770000DD023480EF0F7FB01464FF40873214A91
:10478000214811F051FD2C4811F0B6FD1EE11C48E6
:104790000EF0E9FB01464FF409731A4A1A4811F06A
:1047A00043FD264811F0A8FDFB7F022B14D1BB7FEF
:1047B000022B11D112480EF0D6FB01464FF40A73BA
:1047C000104A114811F030FDFB7F1946BB7F1A4695
:1047D0001B4811F029FDF9E009480EF0C4FB014621
:1047E0004FF40B73074A084811F01EFDFB7F194672
:1047F000BB7F1A46124811F017FDE7E0183500207C
:10480000248A010830A90108B08A0108DC8B01085C
:10481000088C0108288B0108808B0108948B010803
:10482000448C01080000F43F7C8C0108EC8C0108EA
:104830001C8D01082C8D01083C8D01085C8D010840
:10484000808D01087B6B0133BB62AC4B93F88130E8
:104850001846FEF7C9F9AA480EF085FB014640F25A
:104860003D23A84AA84811F0DFFCBB6AB3F8013029
:104870009BB21946A54811F0D7FCA1480EF073FB76
:10488000014640F23E239F4A9F4811F0CDFCBB6A8F
:104890009B7A1846BB6A5B7A1C46BB6A1B7A1D462C
:1048A000BB6ADB791A46BB6A9B791946BB6A5B799E
:1048B0000293019100922B4622460146944811F042
:1048C000B3FC8F480EF04FFB014640F245238D4A62
:1048D0008D4811F0A9FCBB6AB3F80B309BB21846A7
:1048E000FBF7F8FD4FF000028A4BFBF75DFE024636
:1048F0000B4610461946BB6AB3F80D309BB21C46F6
:10490000BB6AB3F80F309BB21A4613469B001344A0
:104910005B000193009402460B467F4811F084FC33
:10492000764B93F88030042B04D1744B062283F825
:10493000802003E0714B052283F88020BB6AB3F826
:1049400001309AB26D4BDA8200F080FE78627B6AA9
:1049500005331B781D467B6A04331B781E467B6A31
:1049600003331B781A467B6A02331B7819467B6A2D
:1049700001331B781C467B6A1B7807F10800039300
:1049800002940191009233462A46644911F0BCFC1E
:1049900010F0ACF90346DB88194607F1080203233F
:1049A000002010F005FA10F0A1F90346DB881A4642
:1049B00013465B00134419460323594A002010F0A4
:1049C000F7F9002006F0BCF800E000BFD1E13B6C35
:1049D0000233FB63FB6B1B889BB240F20A4293429B
:1049E00022DCB3F5806FC0F2C381A3F580630A2B8C
:1049F00000F2BE8101A252F823F000BF354A000840
:104A0000A34C0008514A0008C34A0008DF4A0008C6
:104A1000414B0008714D0008294D0008B14B0008BA
:104A2000E94B0008CD4B000840F60E42934200F0DF
:104A300089819DE132480EF096FA01464FF41E73CB
:104A4000304A314811F0F0FB364811F055FC8CE14A
:104A50002B480EF088FA01464FF41F73294A2A4862
:104A600011F0E2FB304811F047FC244BDB8A2F4960
:104A700018460DF0DFF9034687F8473097F84730BE
:104A8000002B10D01E480EF06EFA014640F2812332
:104A90001C4A1D4811F0C8FB97F8473019462448B6
:104AA00011F0C2FB61E116480EF05DFA014640F2DA
:104AB0008523144A144811F0B7FB1E4811F01CFC62
:104AC00053E10F480EF04FFA014640F28A230D4A97
:104AD0000D4811F0A9FB184811F00EFC45E10848FB
:104AE0000EF041FA014640F28E23064A064811F0C4
:104AF0009BFB124811F000FC37E100BF1835002085
:104B0000248A010830A90108B08A0108A48D01088F
:104B1000F08D01080000F43F7C8C0108288B01080F
:104B2000408E01084C8E01087C8E010840E2010095
:104B3000A48E0108D88E0108008F01082C8F01086F
:104B40008E480EF010FA014640F292238C4A8D48AE
:104B500011F06AFB8C4811F0CFFB8C4BDB8A1846B6
:104B60000DF08DFB034687F8473097F84730002B50
:104B700010D082480EF0F7F9014640F29623804AA1
:104B8000804811F051FB97F847301946804811F0E2
:104B90004BFBEAE079480EF0E6F9014640F29A2331
:104BA000774A784811F040FB7A4811F0A5FBDCE029
:104BB00072480EF0D8F9014640F29F23704A7148BE
:104BC00011F032FB744811F097FBCEE06B480EF009
:104BD000CAF9014640F2A323694A6A4811F024FB4E
:104BE0006E4811F089FBC0E064480EF0BCF9014644
:104BF00040F2A723624A634811F016FB684811F09F
:104C00007BFB5E480EF0AFF901464FF42A735C4A15
:104C10005C4811F009FBFB6B0233D3F802301946F4
:104C2000604811F001FB55480EF09DF9014640F235
:104C3000AA23534A534811F0F7FAFB6B0233D3F817
:104C400002301946584811F0EFFA504BDB8A012127
:104C500018460DF068FB034687F8473097F8473051
:104C6000002B10D045480EF07EF9014640F2AF23EC
:104C7000434A444811F0D8FA97F8473019464B4850
:104C800011F0D2FA71E03D480EF06DF9014640F2A4
:104C9000B3233B4A3B4811F0C7FA454811F02CFBBF
:104CA00063E0FB6B0233BB6334480EF05CF90146F2
:104CB00040F2BB23324A334811F0B6FA3D4811F0B6
:104CC0001BFBBB6B9B78002B0DD12C480EF04BF9D6
:104CD000014640F2BE232A4A2A4811F0A5FA364876
:104CE00011F00AFB12E025480EF03DF9014640F2B2
:104CF000C223234A234811F097FABB6B9B781946CD
:104D0000BB6BDB781A462D4811F08EFA1B480EF06B
:104D10002AF901464FF43173194A1A4811F084FAFE
:104D2000274811F0E9FA20E014480EF01CF901467A
:104D300040F2CA23124A134811F076FA214811F0C2
:104D4000DBFA12E00D480EF00EF9014640F2D223D4
:104D50000B4A0C4811F068FA1B4811F0CDFA0B4BC6
:104D6000DB8A18460DF0F2FD00BF01E000BF00E055
:104D700000BF012318464C37BD46F0BD248A010808
:104D800030A90108B08A0108688F01081835002091
:104D9000908F0108C48F0108EC8F01081C90010856
:104DA0004C90010880900108A0900108BC90010877
:104DB000109101085891010884910108A0910108FF
:104DC000E0910108E49101081092010880B582B0D9
:104DD00000AF9223FB710DF02EFA0346FB71FB79B5
:104DE000002B0FD010480EF0BEF801464FF43E7372
:104DF0000E4A0F4811F018FAFB7919460D4811F0C8
:104E000013FA0CE008480EF0AEF801464FF43F7379
:104E1000064A074811F008FA074811F06DFA00BF7A
:104E20000837BD4680BD00BF248A010848A9010893
:104E3000B08A0108389201087092010880B582B0EA
:104E400000AF9223FB71154BDB8A18460DF006F973
:104E50000346FB71FB79002B0FD011480EF083F84D
:104E600001464FF442730F4A0F4811F0DDF9FB7908
:104E700019460E4811F0D8F90CE009480EF073F805
:104E800001464FF44373074A074811F0CDF908482B
:104E900011F032FA00BF0837BD4680BD183500203A
:104EA000248A010864A90108B08A01089C920108BB
:104EB000D492010880B582B000AF064B3B60064B30
:104EC0007B603B46194605480EF0FEF800BF0837E8
:104ED000BD4680BD28000320C75700088F57000833
:104EE000F0B58DB006AF4FF450733B809223FB7545
:104EF000B1480EF038F8014640F22D33AF4AB048C1
:104F000011F092F9AF4811F0F7F90DF00DFF0346DB
:104F1000FB75FB7D002B0FD0A7480EF024F801464F
:104F200040F23633A54AA64811F07EF9FB7D1946BA
:104F3000A54811F079F90CE09F480EF014F80146ED
:104F400040F23A339D4A9E4811F06EF99F4811F0A5
:104F5000D3F900F07BFB38613A69062100200DF09F
:104F6000F7FD0346FB75FB7D002B0FD092480DF03B
:104F7000FAFF01464FF45173904A914811F054F9E9
:104F8000FB7D1946924811F04FF935E08A480DF043
:104F9000EAFF01464FF45273884A894811F044F9F8
:104FA0008C4811F0A9F984480DF0DDFF014640F26C
:104FB0004933824A824811F037F93B6905331B783F
:104FC00018463B6904331B781C463B6903331B7846
:104FD0001D463B6902331B781A463B6901331B7837
:104FE00019463B691B780293019100922B46224699
:104FF0000146794811F018F93B6905331A78774B67
:105000001A723B6904331A78744B5A723B69033342
:105010001A78724B9A723B6902331A786F4BDA72C4
:105020003B6901331A786D4B1A733B691A786B4BE5
:105030005A736B4A102118200DF08AFD0346FB7548
:10504000FB7D002B0FD05C480DF08DFF014640F238
:105050007D335A4A5A4811F0E7F8FB7D19466148FA
:1050600011F0E2F80CE054480DF07DFF014640F2EB
:105070008133524A524811F0D7F85B4811F03CF99D
:105080005A4A102108200DF063FD0346FB75FB7D95
:10509000002B0FD048480DF066FF014640F28A33DE
:1050A000464A474811F0C0F8FB7D1946504811F0B8
:1050B000BBF80CE040480DF056FF014640F28E333D
:1050C0003E4A3F4811F0B0F84A4811F015F918214E
:1050D00001200DF0C2FD0346FB75FB7D002B0FD0B8
:1050E00035480DF040FF014640F29733334A3448CB
:1050F00011F09AF8FB7D19463F4811F095F80CE045
:105100002D480DF030FF014640F29B332B4A2C48CE
:1051100011F08AF8394811F0EFF80DF06BF90346F9
:10512000FB75FB7D002B0FD023480DF01CFF0146C3
:105130004FF46973214A224811F076F8FB7D194635
:105140002F4811F071F80CE01B480DF00CFF0146E0
:105150004FF46A73194A1A4811F066F8294811F099
:10516000CBF80023FB73FB7B43F00103FB73FB7B5A
:10517000002B6BD0244BBB60BA1DF87BBB1C01938A
:105180003B1D00931346072200210CF0BAFE034694
:10519000FB75FB7D002B3BD007480DF0E4FE01467C
:1051A0004FF47273054A064811F03EF8FB7D19462C
:1051B000164811F039F838E0248A010880A901085E
:1051C000B08A010804930108309301086093010834
:1051D00080930108DC930108289401081400002042
:1051E000F8A8010868940108C094010808A90108FA
:1051F0000895010860950108A8950108E89501083F
:10520000189601084C9601087096010878960108D6
:105210007E480DF0A8FE01464FF473737C4A7D482A
:1052200011F002F87C4811F067F8FC88BD88B86876
:10523000FAF7F6FF0346DAB2BB6800931346002282
:10524000294620460DF0D9FA0346FB75F88879887F
:105250003B460093022300220DF0CFFA0346FB7574
:105260000222022100200DF001FE0346FB75FB7DAA
:10527000002B0FD065480DF076FE014640F2EE336C
:10528000634A644810F0D0FFFB7D1946634810F074
:10529000CBFF0CE05D480DF066FE014640F2F233B4
:1052A0005B4A5C4810F0C0FF5D4811F025F85D4B8B
:1052B00001221A705B4B1B7818460CF0A3FC0346C6
:1052C000FB75FB7D002B0FD050480DF04CFE0146C6
:1052D0004FF47F734E4A4F4810F0A6FFFB7D1946EE
:1052E000514810F0A1FF0CE048480DF03CFE01468B
:1052F0004FF48063464A474810F096FF4B4810F041
:10530000FBFF484B01225A70464B08221A71454B4D
:1053100010225A71434B0022DA70424B444A9A6081
:10532000404B01229A703F4B9C783E4B5D783D4B41
:105330001B793C4A52793B49C9783A488068002633
:1053400004960390029101920093002301222946C2
:1053500020460CF0ABFC0346FB75FB7D002B0FD009
:105360002A480DF000FE014640F21B43284A294816
:1053700010F05AFFFB7D19462E4810F055FF0CE047
:1053800022480DF0F0FD014640F21F43204A21481B
:1053900010F04AFF284810F0AFFF224B9B78002BFB
:1053A00023D00CF024FF0346FB75FB7D002B0FD0B0
:1053B00016480DF0D8FD014640F22A43144A15481C
:1053C00010F032FFFB7D19461C4810F02DFF0CE059
:1053D0000E480DF0C8FD014640F22E430C4A0D4820
:1053E00010F022FF164810F087FF08480DF0BBFDB3
:1053F000014640F23143064A064810F015FF1148B5
:1054000010F07AFF00BF1C37BD46F0BD248A0108AA
:1054100080A90108B08A0108AC960108D09601085D
:105420000C97010818350020389701087897010873
:1054300007B20100A8970108F49701083098010805
:1054400074980108A898010880B58CB008AF03468D
:10545000FB719223FB72FB79012B06D1694B1B88F0
:10546000FB81694B1B88BB8105E04FF4C863FB815E
:105470004FF47A63BB81654B93F881301846FDF792
:10548000B3FBFB79022B2DD1604B93F88030012BBD
:1054900004D05E4B93F88030022B23D10CF094FAA9
:1054A0000346FB72FB7A002B0FD059480DF05BFDD1
:1054B000014640F25243574A574810F0B5FEFB7A76
:1054C0001946564810F0B0FE0CE051480DF04BFD67
:1054D000014640F256434F4A4F4810F0A5FE50484F
:1054E00010F00AFF494AFB7982F88030474B1B7E57
:1054F000BA89F98900200690002005904948049057
:105500000393494B02930723019300230093002345
:1055100000200CF07DFA0346FB72FB7A002B0FD0C3
:105520003B480DF020FD014640F26943394A3A48B4
:1055300010F07AFEFB7A19463C4810F075FE0CE03C
:1055400033480DF010FD014640F26D43314A3248B8
:1055500010F06AFE364810F0CFFE36490E200CF0EF
:10556000D4FD0346FB72FB7A002B22D0FB79012B82
:105570000FD127480DF0F7FC014640F27643254A4B
:10558000254810F051FEFB7A19462B4810F04CFECE
:1055900035E01F480DF0E7FC014640F27A431D4A12
:1055A0001D4810F041FEFB7A1946244810F03CFEDD
:1055B00025E0FB79012B14D115480DF0D4FC0146F0
:1055C00040F28143134A144810F02EFE1C4810F09C
:1055D00093FE0E4B93F881301A491846FDF788FB6D
:1055E0000DE00B480DF0BFFC014640F28743094A2D
:1055F000094810F019FE144810F07EFE00BF103765
:10560000BD4680BD9C3500209E3500201835002009
:10561000248A010898A90108B08A0108D4980108D1
:10562000249901083135002018A901086C99010856
:10563000A499010814000020D0990108089A0108D3
:10564000449A010846E00100709A010880B586B0CE
:1056500000AFFEF7D1FD38613B69B3F1FF3F23D0C6
:10566000FEF7E2FDB860FEF7D3FD78603B69DAB281
:10567000164B1A703B691B0ADAB2144B5A707B68DE
:10568000DAB2124B9A70BB68DAB2104BDA70BB68B0
:105690001B0ADAB20D4B1A71BB681B0CDAB20B4B4A
:1056A0005A710A4B7B610BE000200EF0C7F9F860DD
:1056B000FB68002B02D0FB687B6101E0044B7B613F
:1056C0007B6918461837BD4680BD00BF10350020E5
:1056D000F0A8010880B483B000AF0346FB80124BF2
:1056E0001B7E1946FB88DAB20F4B0B445A760E4BE1
:1056F0001B7E0133DAB20C4B1A76FB881B0A9AB276
:10570000094B1B7E1946D2B2074B0B445A76064B07
:105710001B7E0133DAB2044B1A7600BF0C37BD464C
:105720005DF8047B704700BF1835002080B500AFDE
:10573000002101200FF0A4FE00BF80BD80B500AFA6
:105740000220FFF781FE00BF80BD80B582B000AFB0
:105750007860002104200FF093FE00BF0837BD469B
:1057600080BD80B582B000AF786001200FF0F4FEFC
:1057700000BF0837BD4680BD80B582B000AF7860FD
:1057800001200FF009FF00BF0837BD4680BD80B57E
:1057900084B000AF78607B68FB60FB685B680833AF
:1057A00018460EF075FF0346FB72FB7A002B03D000
:1057B000FB6801221A7003E0FB6800221A7000BF28
:1057C0001037BD4680BD80B584B000AF0346FB7185
:1057D000FB79002B02D0012B06D00BE03F23FB60AE
:1057E000F8680FF079FE05E03F23FB60F8680FF0E2
:1057F00093FE00BF00BF1037BD4680BD80B582B0AC
:1058000000AF074B3B6004233B713B46194642F611
:1058100029200DF033FC00BF0837BD4680BD00BF16
:10582000A09A010880B582B000AF78607B681B78D1
:10583000022B1AD0022B1EDC002B02D0012B07D02A
:1058400019E00F4B00229A800D4B01221A7313E0CE
:105850000B4B5B7B1846FDF7C7F9094B5B7B40F6AA
:1058600001011846FDF744FA06E0054B5B7B18463C
:10587000FDF7BAF900E000BF00BF0837BD4680BDA4
:10588000A035002080B400AF054BDB68044A43F428
:105890000043D36000BFBD465DF8047B704700BF86
:1058A0000004005880B483B000AF7860064BD3F892
:1058B000D42005497B681343C1F8D43000BF0C37AE
:1058C000BD465DF8047B70470008005880B483B083
:1058D00000AF7860054B1A6A04497B6813430B627A
:1058E00000BF0C37BD465DF8047B704700080058C8
:1058F00080B485B000AF78604FF0B0431A6D4FF0C0
:10590000B0417B6813430B654FF0B0431A6D7B6861
:105910001340FB60FB6800BF1437BD465DF8047B95
:10592000704780B485B000AF78604FF0B043D3F8D3
:1059300050214FF0B0417B681343C1F850314FF014
:10594000B043D3F850217B681340FB60FB6800BF75
:105950001437BD465DF8047B704780B483B000AF58
:1059600078607B681B6843F480327B681A6000BFF4
:105970000C37BD465DF8047B704780B483B000AF40
:1059800078607B681B6843F001027B681A6000BF87
:105990000C37BD465DF8047B704780B483B000AF20
:1059A000786039607B685A683B681B04DB431A40A7
:1059B0007B685A6000BF0C37BD465DF8047B7047BA
:1059C00080B483B000AF786039607B685A683B6808
:1059D0001B041A437B685A6000BF0C37BD465DF854
:1059E000047B704780B483B000AF786039607B6817
:1059F0005A683B68DB431A407B685A6000BF0C372B
:105A0000BD465DF8047B704780B483B000AF78601A
:105A100039607B683A689A6000BF0C37BD465DF814
:105A2000047B704780B483B000AF786039603B6816
:105A30001A047B689A6000BF0C37BD465DF8047B92
:105A4000704780B483B000AF786039607B68DA68F3
:105A50003B6813403A689A4201D1012300E00023D9
:105A600018460C37BD465DF8047B704780B483B0A0
:105A700000AF786039607B68DA693B6813403A6848
:105A80009A4201D1012300E0002318460C37BD469D
:105A90005DF8047B7047000080B500AF0221184814
:105AA000FFF7E4FF0346002B08D0154B5B6803F0BB
:105AB0000203002B02D100F0D5F81EE001211048AE
:105AC000FFF7D4FF0346002B08D00D4B5B6803F0B3
:105AD0000103002B02D100F089F80EE008210848EC
