:020000040800F2
:1000000000000320610E00080139000809390008CA
:1000100011390008193900082139000800000000D2
:100020000000000000000000000000002939000866
:10003000373900080000000045390008533900082E
:10004000B50E0008B50E0008B50E0008D939000835
:10005000B50E0008B50E0008B50E0008F13900080D
:10006000FF3900080D3A00081B3A0008B50E0008D9
:10007000B50E0008B50E0008B50E0008B50E000854
:10008000B50E0008B50E0008B50E0008B50E000844
:10009000B50E0008B50E0008B50E0008293A000894
:1000A000B50E000861390008E5390008B50E0008F2
:1000B000B50E0008B50E0008B50E0008B50E000814
:1000C000B50E0008B50E0008B50E0008B50E000804
:1000D00075390008B50E0008B50E0008B50E000809
:1000E000C1390008B50E0008B50E0008B50E0008AD
:1000F000A9390008B539000889390008B50E00088B
:10010000B50E0008B50E0008B50E0008B50E0008C3
:10011000B50E0008B50E0008B50E0008B50E0008B3
:10012000B50E0008B50E000895390008B50E000898
:0C013000B50E0008B50E0008B50E000862
:1001400010B5054C237833B9044B13B10448AFF311
:1001500000800123237010BD100300200000000068
:100160003078010808B5034B1BB103490348AFF3CE
:10017000008008BD00000000140300203078010852
:1001800001F0FF01102A2BDB10F0070F08D010F848
:10019000013B013A8B422DD010F0070F42B3F6D14C
:1001A000F0B441EA012141EA014122F007047FF065
:1001B00000070023F0E80256083C85EA010586EABC
:1001C000010685FA47F5A3FA87F586FA47F6A5FAF8
:1001D00087F68EB9EED1F0BC01F0FF0102F0070204
:1001E00032B110F8013B013A83EA010313B1F8D1AF
:1001F0000020704701387047002D06BF3546033890
:10020000073815F0010F07D1013015F4807F02BFC8
:10021000013015F4C03F0130F0BC0138704700BF19
:10022000034613F8012B002AFBD1181A0138704736
:1002300081F0004102E000BF83F0004330B54FEA97
:1002400041044FEA430594EA050F08BF90EA020F04
:100250001FBF54EA000C55EA020C7FEA645C7FEA97
:10026000655C00F0E2804FEA5454D4EB5555B8BFBA
:100270006D420CDD2C4480EA020281EA030382EA2B
:10028000000083EA010180EA020281EA0303362DBD
:1002900088BF30BD11F0004F4FEA01314FF4801C90
:1002A0004CEA113102D0404261EB410113F0004FA2
:1002B0004FEA03334CEA133302D0524263EB430359
:1002C00094EA050F00F0A780A4F10104D5F1200EF7
:1002D0000DDB02FA0EFC22FA05F2801841F1000152
:1002E00003FA0EF2801843FA05F359410EE0A5F126
:1002F00020050EF1200E012A03FA0EFC28BF4CF057
:10030000020C43FA05F3C01851EBE37101F000450C
:1003100007D54FF0000EDCF1000C7EEB00006EEB19
:100320000101B1F5801F1BD3B1F5001F0CD34908A3
:100330005FEA30004FEA3C0C04F101044FEA4452FA
:1003400012F5800F80F09A80BCF1004F08BF5FEA81
:10035000500C50F1000041EB045141EA050130BD61
:100360005FEA4C0C404141EB0101013C28BFB1F573
:10037000801FE9D291F0000F04BF01460020B1FABE
:1003800081F308BF2033A3F10B03B3F120020CDA91
:100390000C3208DD02F1140CC2F10C0201FA0CF06F
:1003A00021FA02F10CE002F11402D8BFC2F1200CD4
:1003B00001FA02F120FA0CFCDCBF41EA0C0190408A
:1003C000E41AA2BF01EB0451294330BD6FEA0404D3
:1003D0001F3C1CDA0C340EDC04F11404C4F12002BE
:1003E00020FA04F001FA02F340EA030021FA04F3D0
:1003F00045EA030130BDC4F10C04C4F1200220FA27
:1004000002F001FA04F340EA0300294630BD21FA64
:1004100004F0294630BD94F0000F83F4801306BF2A
:1004200081F480110134013D4EE77FEA645C18BF1E
:100430007FEA655C29D094EA050F08BF90EA020FB5
:1004400005D054EA000C04BF1946104630BD91EAAD
:10045000030F1EBF0021002030BD5FEA545C05D1B0
:100460004000494128BF41F0004130BD14F58004EF
:100470003CBF01F5801130BD01F0004545F0FE4163
:1004800041F470014FF0000030BD7FEA645C1ABF98
:10049000194610467FEA655C1CBF0B46024650EACF
:1004A000013406BF52EA033591EA030F41F40021FB
:1004B00030BD00BF90F0000F04BF0021704730B581
:1004C0004FF4806404F132044FF000054FF0000156
:1004D00050E700BF90F0000F04BF0021704730B517
:1004E0004FF4806404F1320410F0004548BF4042EC
:1004F0004FF000013EE700BF42004FEAE2014FEA41
:1005000031014FEA02701FBF12F07F4393F07F4F1B
:1005100081F06051704732F07F4208BF704793F01E
:100520007F4F04BF41F40021704730B54FF4607431
:1005300001F0004521F000411CE700BF50EA010234
:1005400008BF704730B54FF000050AE050EA0102DD
:1005500008BF704730B511F0004502D5404261EB4D
:1005600041014FF4806404F132045FEA915C3FF48E
:10057000D8AE4FF003025FEADC0C18BF03325FEA2B
:10058000DC0C18BF033202EBDC02C2F1200300FADC
:1005900003FC20FA02F001FA03FE40EA0E0021FA01
:1005A00002F11444BDE600BF70B54FF0FF0C4CF4EF
:1005B000E06C1CEA11541DBF1CEA135594EA0C0FA1
:1005C00095EA0C0F00F0DEF82C4481EA030621EADC
:1005D0004C5123EA4C5350EA013518BF52EA033517
:1005E00041F4801143F4801338D0A0FB02CE4FF0C9
:1005F0000005E1FB02E506F00042E0FB03E54FF0F9
:100600000006E1FB03569CF0000F18BF4EF0010EF0
:10061000A4F1FF04B6F5007F64F5407404D25FEAEC
:100620004E0E6D4146EB060642EAC62141EA55519F
:100630004FEAC52040EA5E504FEACE2EB4F1FD0CE1
:1006400088BFBCF5E06F1ED8BEF1004F08BF5FEA5F
:10065000500E50F1000041EB045170BD06F0004611
:1006600046EA010140EA020081EA0301B4EB5C04BE
:10067000C2BFD4EB0C0541EA045170BD41F48011B6
:100680004FF0000E013C00F3AB8014F1360FDEBFDB
:10069000002001F0004170BDC4F10004203C35DAB7
:1006A0000C341BDC04F11404C4F1200500FA05F33A
:1006B00020FA04F001FA05F240EA020001F00042DB
:1006C00021F0004110EBD37021FA04F642EB060151
:1006D0005EEA430E08BF20EAD37070BDC4F10C047B
:1006E000C4F1200500FA04F320FA05F001FA04F23F
:1006F00040EA020001F0004110EBD37041F100012B
:100700005EEA430E08BF20EAD37070BDC4F1200535
:1007100000FA05F24EEA020E20FA04F301FA05F29D
:1007200043EA020321FA04F001F0004121FA04F245
:1007300020EA020000EBD3705EEA430E08BF20EA15
:10074000D37070BD94F0000F0FD101F0004640004F
:1007500041EB010111F4801F08BF013CF7D041EAD1
:10076000060195F0000F18BF704703F000465200D5
:1007700043EB030313F4801F08BF013DF7D043EAA6
:100780000603704794EA0C0F0CEA135518BF95EA5C
:100790000C0F0CD050EA410618BF52EA4306D1D1E3
:1007A00081EA030101F000414FF0000070BD50EA02
:1007B000410606BF1046194652EA430619D094EA8C
:1007C0000C0F02D150EA013613D195EA0C0F05D176
:1007D00052EA03361CBF104619460AD181EA0301CA
:1007E00001F0004141F0FE4141F470014FF0000082
:1007F00070BD41F0FE4141F4780170BD70B54FF01D
:10080000FF0C4CF4E06C1CEA11541DBF1CEA13559C
:1008100094EA0C0F95EA0C0F00F0A7F8A4EB05047E
:1008200081EA030E52EA03354FEA013100F0888075
:100830004FEA03334FF0805545EA131343EA12633E
:100840004FEA022245EA111545EA10654FEA0026F3
:100850000EF000419D4208BF964244F1FD0404F5AC
:10086000407402D25B084FEA3202B61A65EB030508
:100870005B084FEA32024FF480104FF4002CB6EBC5
:10088000020E75EB030E22BFB61A754640EA0C0045
:100890005B084FEA3202B6EB020E75EB030E22BF85
:1008A000B61A754640EA5C005B084FEA3202B6EBC6
:1008B000020E75EB030E22BFB61A754640EA9C0085
:1008C0005B084FEA3202B6EB020E75EB030E22BF55
:1008D000B61A754640EADC0055EA060E18D04FEA13
:1008E000051545EA16754FEA06164FEAC30343EAB3
:1008F00052734FEAC2025FEA1C1CC0D111F4801F80
:100900000BD141EA00014FF000004FF0004CB6E778
:1009100011F4801F04BF01430020B4F1FD0C88BF17
:10092000BCF5E06F3FF6AFAEB5EB030C04BFB6EB22
:10093000020C5FEA500C50F1000041EB045170BD15
:100940000EF0004E4EEA113114EB5C04C2BFD4EB42
:100950000C0541EA045170BD41F480114FF0000EC6
:10096000013C90E645EA060E8DE60CEA135594EA42
:100970000C0F08BF95EA0C0F3FF43BAF94EA0C0F45
:100980000AD150EA01347FF434AF95EA0C0F7FF4BA
:1009900025AF104619462CE795EA0C0F06D152EA0E
:1009A00003353FF4FDAE1046194622E750EA4106F2
:1009B00018BF52EA43067FF4C5AE50EA41047FF403
:1009C0000DAF52EA43057FF4EBAE12E74FF0FF3C68
:1009D00006E000BF4FF0010C02E000BF4FF0010C39
:1009E0004DF804CD4FEA410C7FEA6C5C4FEA430CB2
:1009F00018BF7FEA6C5C1BD001B050EA410C0CBF01
:100A000052EA430C91EA030F02BF90EA020F002062
:100A1000704710F1000F91EA030F58BF994208BFC9
:100A200090422CBFD8176FEAE37040F00100704786
:100A30004FEA410C7FEA6C5C02D150EA013C07D1DD
:100A40004FEA430C7FEA6C5CD6D152EA033CD3D028
:100A50005DF8040B704700BF8446104662468C4622
:100A60001946634600E000BF01B5FFF7B7FF002855
:100A700048BF10F1000F01BD4DF808EDFFF7F4FF7E
:100A80000CBF012000205DF808FB00BF4DF808ED09
:100A9000FFF7EAFF34BF012000205DF808FB00BF2C
:100AA0004DF808EDFFF7E0FF94BF012000205DF84E
:100AB00008FB00BF4DF808EDFFF7CEFF94BF012003
:100AC00000205DF808FB00BF4DF808EDFFF7C4FFFC
:100AD00034BF012000205DF808FB00BF4FEA410C45
:100AE0007FEA6C5C02D150EA013C0AD14FEA430C28
:100AF0007FEA6C5C02D152EA033C02D14FF0000065
:100B000070474FF0010070474FEA410212F50012A2
:100B100015D211D56FF47873B3EB625212D94FEA44
:100B2000C12343F0004343EA505311F0004F23FA2E
:100B300002F018BF404270474FF00000704750EA83
:100B4000013005D111F0004008BF6FF00040704740
:100B50004FF00000704700BF53B94AB9002908BFE1
:100B600000281CBF4FF0FF314FF0FF3000F06AB992
:100B7000ADF1080C6DE904CE00F006F8DDF804E0F4
:100B8000DDE9022304B070472DE9F047089D0C46CB
:100B9000002B4ED194468C458646B2FA82F262D939
:100BA0004AB1C2F12003914020FA03F30CFA02FC8F
:100BB000194300FA02FE4FEA1C471FFA8CF6B1FBFC
:100BC000F7F44FEA1E4307FB141143EA014304FB09
:100BD00006F199420AD91CEB030304F1FF3080F0BF
:100BE0001281994240F20F81023C6344591A1FFA64
:100BF0008EF3B1FBF7F007FB101143EA014300FB52
:100C000006F69E420AD91CEB030300F1FF3180F087
:100C1000FC809E4240F2F980634402389B1B40EA0C
:100C2000044000211DB1D3400022C5E90032BDE8D7
:100C3000F0878B4205D90DB1C5E9000100210846B6
:100C4000F5E7B3FA83F1002946D1A34202D39042DB
:100C5000C0F0F080861A64EB03030120002DE6D07B
:100C6000C5E90063E3E7002A40F09080A1EB0C04A3
:100C70004FEA1C481FFA8CF70121B4FBF8F64FEA43
:100C80001E4308FB164443EA044307FB06F0984260
:100C900008D91CEB030306F1FF3402D2984200F29C
:100CA000CD8026461C1A1FFA8EF3B4FBF8F008FB21
:100CB000104443EA044300FB07F79F4208D91CEBAA
:100CC000030300F1FF3402D29F4200F2B0802046BD
:100CD000DB1B40EA0640A5E7C1F120068B4022FA63
:100CE00006F71F4320FA06FC04FA01F343EA0C035B
:100CF000F44000FA01F8380C4FEA1349B4FBF0FE57
:100D00001FFA87FC00FB1E4449EA04440EFB0CF961
:100D1000A14502FA01F20AD93C190EF1FF3A80F01E
:100D20008480A14540F28180AEF1020E3C44A4EBE8
:100D300009041FFA83F9B4FBF0F300FB134449EAFA
:100D4000044403FB0CFCA44507D93C1903F1FF3014
:100D500067D2A44565D9023B3C4443EA0E40A0FB60
:100D60000293A4EB0C049C42CE469C4651D34ED039
:100D700055B1B8EB0E0364EB0C0404FA06F6CB4055
:100D80001E43CC40C5E90064002150E7C2F12003B6
:100D900020FA03F10CFA02FC24FA03F394400C430A
:100DA0004FEA1C4800FA02FE1FFA8CF7B3FBF8F07A
:100DB00008FB1031230C43EA014300FB07F1994281
:100DC00008D91CEB030300F1FF362CD299422AD933
:100DD000023863445B1AA4B2B3FBF8F108FB113389
:100DE00044EA034401FB07F3A34208D91CEB0404C3
:100DF00001F1FF3613D2A34211D902396444E41A37
:100E000041EA004139E70446F0E6084606E7C845EE
:100E1000AED2B9EB020E63EB070C0138A8E73146FE
:100E2000EDE7034699E73046D4E7D6467FE76344CB
:100E300002384DE70646234608460FE7023E634464
:100E400030E700BF704700BFD458C4500433C41803
:100E50008C42F9D37047036004308842FBD370475B
:100E60000C48854609F068FC0B480C490C4A0023E5
:100E7000FFF7EDFF0B480C490023FFF7EEFF0B488F
:100E80000B490023FFF7E9FF14F0ACFD02F0E4F892
:100E9000FEE700000000032008000020AC02002054
:100EA000000D0208100300206C680020E4010320FC
:100EB000670A0320FEE7000080B483B000AF7860CB
:100EC000064BD3F8902005497B681343C1F8903056
:100ED00000BF0C37BD465DF8047B70470008005822
:100EE00080B485B000AF78604FF0B043DA6C4FF05B
:100EF000B0417B681343CB644FF0B043DA6C7B683E
:100F00001340FB60FB6800BF1437BD465DF8047BEF
:100F1000704780B485B000AF78604FF0B043D3F82D
:100F20004C214FF0B0417B681343C1F84C314FF076
:100F3000B043D3F84C217B681340FB60FB6800BFD3
:100F40001437BD465DF8047B704780B500AF09F0EB
:100F5000D9FC09F0E3FC4FF48030FFF7ADFF11F04E
:100F6000D3F900F021F800F0C1F800BF80BD000007
:100F7000B0B588B000AF0B4B3C1D1D460FCD0FC464
:100F800095E8070003C422800234130C237012F08A
:100F900037FF3B1D184611F038FF00BF2037BD4614
:100FA000B0BD00BF4878010880B588B000AF3B1DD8
:100FB00000221A605A609A60DA601A610023BB83CB
:100FC00000237B8300233B830023FB7736E0FB7FFA
:100FD000434ADB0013449B79002B2CD0FB7F404A13
:100FE00052F833303F4A93421BD03E4A934221D8B5
:100FF000B3F1904F03D03C4A934209D01AE0FB7FF3
:10100000374ADB0013449A88BB8B1343BB8312E03F
:10101000FB7F334ADB0013449A887B8B13437B832B
:1010200009E0FB7F2E4ADB0013449A883B8B134375
:101030003B8300E000BFFB7F0133FB77FB7F252B69
:10104000C5D90023FB600123BB6003233B61BB8B3D
:10105000002B14D0BB8B7B600120FFF741FF0120E8
:10106000FFF757FF3B1D19464FF090400AF0A4F8D8
:10107000BB8B002219464FF090400AF003FB7B8B9C
:10108000002B12D07B8B7B600220FFF729FF022010
:10109000FFF73FFF3B1D194613480AF08DF87B8B85
:1010A0000022194610480AF0EDFA3B8B002B13D0B2
:1010B0003B8B7B600420FFF713FF0420FFF729FF21
:1010C0003B1D194607480AF077F83B8B002219466A
:1010D00004480AF0D7FA00BF00BF2037BD4680BDE4
:1010E0007C9B0108000800480004004880B400AF61
:1010F00000BFBD465DF8047B704780B500AF02F0CD
:10110000BDF800BF80BD000080B483B000AF786040
:10111000074BD3F8803023F0070205497B6813435F
:10112000C1F8803000BF0C37BD465DF8047B7047C6
:101130000004005880B483B000AF7860064BD3F849
:10114000902005497B681343C1F8903000BF0C37ED
:10115000BD465DF8047B70470008005880B483B03A
:1011600000AF78604FF0B0430A4AC3F89C204FF0BC
:10117000B043D3F89C3023F47C527B681B024FF0C1
:10118000B0411343C1F89C3000BF0C37BD465DF839
:10119000047B7047FECAFECA80B483B000AF78609B
:1011A0004FF0B0439B6823F400424FF0B0417B689E
:1011B00013438B6000BF0C37BD465DF8047B70475E
:1011C00080B400AF044B1B68C3F30B031846BD4645
:1011D0005DF8047B704700BF002004E080B400AFDE
:1011E000044B1B681B0C9BB21846BD465DF8047B84
:1011F000704700BF002004E080B400AF054B1B69BE
:10120000044A23F00403136100BFBD465DF8047B6C
:10121000704700BF00ED00E080B483B000AF78609D
:101220007B68FF225A6200BF0C37BD465DF8047B25
:10123000704780B483B000AF78607B68CA225A627E
:101240007B6853225A6200BF0C37BD465DF8047BB1
:10125000704780B483B000AF786039607B689B686A
:1012600023F007023B681A437B689A6000BF0C3783
:10127000BD465DF8047B704780B500AF044B4FF46A
:1012800000421A6100F05AF800F05FF800BF80BD1C
:101290000040005880B500AF00F06BF800F084F813
:1012A0001B49002001F09CFBFFF74FFE01210120AC
:1012B00013F070F90021002008F052FE154812F0DA
:1012C0002BFE0021002009F06FF8002008F018FF25
:1012D000114812F09FFEFF2012F074FE002012F061
:1012E00085FE0021002009F05FF8002008F034FF9F
:1012F00001230A4A0021002012F002FF002008F01A
:101300002BFF00F085FA00F05DF800BF80BD00BF44
:1013100058310020F0030208D4000020647801084E
:1013200080B400AF00BFBD465DF8047B704780B558
:1013300000AF5020FFF7FEFE00BF80BD80B400AFBD
:1013400000BFBD465DF8047B704780B582B000AF3A
:10135000002011F01BFD78607B68002B05D07B68B6
:101360009B791846FFF7FAFE00BF00BF0837BD465D
:1013700080BD80B500AFFFF7D3FFFFF7D8FF00F0C7
:1013800003F800BF80BD000080B500AF0548FFF73F
:1013900050FF00210348FFF75CFF0248FFF73CFFC6
:1013A00000BF80BD0028004080B500AF4FF4004072
:1013B000FFF7F2FE13F0ACF80420FFF7A5FE00BF24
:1013C00080BD000080B588B000AF12F063FB114A09
:1013D0000021802013F01AFA0F4B3B600F4B7B600B
:1013E0003B4619460E4811F0EBFD0E4BBB600E4B11
:1013F000FB600E4B3B6140F23C537B6107F10803FD
:10140000184612F089FC12F03FFB00BF2037BD46A2
:1014100080BD00BFF92F01083407032031140008F4
:10142000491400084C09032040080320F801032058
:1014300080B483B000AF0346FB7100BF0C37BD46DC
:101440005DF8047B7047000080B588B000AF78601D
:101450007B685B680B33FB61FB691B889BB2A3F560
:101460001243072B00F2D08001A252F823F000BFF4
:1014700091140008231500084515000809160008F6
:1014800089150008AD150008C9150008ED150008FC
:1014900007F10C03184611F0E5FC5E4810F00BFF55
:1014A000014640F291135C4A5C4814F0A5F83B7B7E
:1014B00019467B7B1A46BB7B594814F09DF855486A
:1014C00010F0F9FE01464FF4C973534A534814F023
:1014D00093F83B7C1946534814F08EF84D4810F0B1
:1014E000EAFE014640F293134B4A4C4814F084F84C
:1014F000BB7D1946FB7D1A463B7E4B4814F07CF8B9
:10150000444810F0D8FE014640F29513424A434841
:1015100014F072F8454814F0D7F8786800F0E0F855
:1015200073E03C4810F0C7FE01464FF4CD733A4AD1
:101530003A4814F061F83E4814F0C6F8786800F0B4
:1015400085F862E0334810F0B6FE014640F29F1382
:10155000314A324814F050F8364814F0B5F82D48A6
:1015600010F0A9FE01464FF4D0732B4A2B4814F01B
:1015700043F8FB6902331968FB6902335B681A465A
:101580002D4814F039F840E0224810F094FE01464E
:101590004FF4D373204A214814F02EF8FB6902332C
:1015A0001B681946254814F027F82EE0194810F05A
:1015B00082FE014640F2AB13174A184814F01CF89B
:1015C0001F4814F081F820E0124810F074FE014624
:1015D00040F2AF13104A114814F00EF8FB690233C1
:1015E0001B681946174814F007F80EE0094810F078
:1015F00062FE01464FF4DA73074A084813F0FCFF15
:10160000114814F061F800E000BF00BF2037BD466C
:1016100080BD00BF78780108AC9C01080079010802
:101620001879010840790108607901087879010882
:1016300098790108BC7901080C7A0108387A010808
:10164000747A0108987A0108D47A010880B584B0C8
:1016500000AF78607B685B680B33FB60FB6802332C
:10166000BB60194810F027FE01464FF4E673174A95
:10167000174813F0C1FFBB681B781946154813F0D3
:10168000BBFFBB681B78002B0DD10F4810F013FE79
:10169000014640F2D1130D4A0D4813F0ADFF0E483C
:1016A00014F012F80DE0084810F005FE014640F273
:1016B000D513064A064813F09FFF084814F004F8B3
:1016C00000BF1037BD4680BD78780108C09C010876
:1016D00000790108F87A01082C7B0108687B010871
:1016E00080B58AB000AF786007F1080300221A6065
:1016F0005A609A60DA6000237B6200233B627B6859
:101700005B680B33FB61FB690233BB61BB691B7810
:10171000002B46D1364810F0CEFD014640F2EB13C7
:10172000344A354813F068FF344813F0CDFFFFF713
:101730001FFC0F233B727F23BB72FFF74FFD7862C4
:101740002B4810F0B8FD014640F20323294A2A48ED
:1017500013F052FF796A2A4813F04EFF7B6A9BB25E
:10176000BB82FFF72DFD3862214810F0A4FD014631
:101770004FF402731F4A204813F03EFF396A214894
:1017800013F03AFF3B6A9BB2FB8207F1080318464D
:1017900011F052FB02F01EFA0021012012F0FAFEB5
:1017A00022E0BB691B78012B10D1114810F083FD9A
:1017B000014640F215230F4A0F4813F01DFF12484F
:1017C00013F082FF7B6800221A700DE0084810F0C9
:1017D00072FD01464FF40773064A074813F00CFFE9
:1017E0000A4813F071FF00BF2837BD4680BD00BF17
:1017F00078780108D49C010800790108A47B0108CD
:10180000C07B0108E47B0108087C01083C7C0108DE
:1018100080B500AF0121002008F0EEF90121012080
:1018200008F0EAF900BF80BD80B584B000AF7860F1
:1018300009F044F8B8607B68FB60FB68B3F1FF3FD8
:101840000AD009F053F803461A46FB681344FB60BC
:1018500002E0FFF7D1FC30BF09F030F80246BB6868
:10186000D31AFA689A42F4D800BF00BF1037BD46B9
:1018700080BD80B500AF4FF0FF3012F0BBFE00BF5F
:1018800080BD80B582B000AF786039604FF0FF3026
:1018900012F0B0FE00BF0837BD4680BD80B582B0F3
:1018A00000AF78600021802012F0D2FF00BF08371F
:1018B000BD4680BD80B582B000AF7860022013F0D5
:1018C00033F800BF0837BD4680BD80B582B000AF99
:1018D0007860022013F048F800BF0837BD4680BD8D
:1018E00080B582B000AF0346FB80FB88B3F5005F94
:1018F0001FD0B3F5005F1FDC102B0EDC022B1BDBAF
:101900001A46104BD34003F00103002B14BF0123F0
:101910000023DBB2002B04D10EE0B3F5805F05D0CD
:101920000AE0FB88184606F061FF06E002F018FFA7
:1019300003E002F04DFF00E000BF00BF0837BD46E6
:1019400080BD00BF1401010080B582B000AF034626
:101950003960FB711346BB80FB79042B29D801A2A7
:1019600052F823F0B11900087919000895190008F8
:10197000B1190008B1190008BB881A4639680F4828
:1019800014F057F80E4B1B7843F00203DAB20C4BFD
:101990001A700EE0BB881A4639680A4814F049F8F4
:1019A000074B1B7843F00403DAB2054B1A7000E0D2
:1019B00000BF00BF0837BD4680BD00BF3803002010
:1019C00076300020D819002080B582B000AF0346E1
:1019D000FB71094813F078FE084B1B78FA799A429C
:1019E00005D0074B01221A70044AFB79137000BF1F
:1019F0000837BD4680BD00BFC07C0108080000203C
:101A00003503002080B582B000AF0346FB71064865
:101A100013F05AFE054B01221A70054AFB79137028
:101A200000BF0837BD4680BDC07C010835030020DB
:101A30000800002080B400AF034B00221A7000BFE2
:101A4000BD465DF8047B70473503002080B400AFCD
:101A5000034B1B781846BD465DF8047B704700BFFA
:101A60003503002080B483B000AF0346FB71044A05
:101A7000FB79137000BF0C37BD465DF8047B7047DF
:101A80003403002080B400AF034B1B781846BD46DA
:101A90005DF8047B704700BF3403002080B582B03E
:101AA00000AF7860064B18787A681346DB0213445F
:101AB000194601F06DF900BF0837BD4680BD00BF73
:101AC0002D03002080B500AFFFF7DCFF0346032B9A
:101AD00016D801A252F823F0011B0008E91A0008E9
:101AE000F11A0008F91A00080220FFF76DFF08E05C
:101AF0001020FFF769FF04E00220FFF765FF00E018
:101B000000BF00BF80BD00BF80B582B000AF012321
:101B1000FB71002006F038FF024B1B78184608378F
:101B2000BD4680BD40380020B0B596B000AFB74B81
:101B30003C1D1D460FCD0FC495E8030084E803004B
:101B4000B34813F0C1FD0422B249002010F000FE9A
:101B5000B04B9B78032B04D8AE4B9B7887F855305D
:101B600013E0AC4B9B7803F00103DBB2002B04D1F4
:101B7000A84B9B785B08DBB205E0A64B9B785B0823
:101B8000DBB20133DBB287F85530A24B9B78032BD5
:101B900003D8012387F8543002E0022387F8543039
:101BA0009C4B9B78013B9B0058333B4453F8543C7F
:101BB000FB64984B9B781946974813F01DFD954B95
:101BC0009B789B001A46F96C002010F0C1FD0023A1
:101BD000A7F8563045E0B7F85630DB000233FA6C10
:101BE0001A44B7F856301288DB0058333B4423F8C8
:101BF0003C2CB7F85630DB00FA6C13441B88B7F85E
:101C00005620C3F58373013399B2D30058333B4454
:101C10000A4623F83A2CB7F85630DB000633FA6C44
:101C20001A44B7F856301288DB0058333B4423F887
:101C3000382CB7F85630DB000433FA6C13441B8899
:101C4000B7F85620C3F58373013399B2D3005833E4
:101C50003B440A4623F8362CB7F856300133A7F830
:101C600056306C4B9B781A46B7F856309342B2D335
:101C7000002387F8523097F8523087F8533000230A
:101C8000A7F8563039E0B7F85630DB0058333B44FC
:101C900033F83A3C1946B7F85630DB0058333B442A
:101CA00033F8363C1A465D4813F0A6FCB7F85630B8
:101CB000DB0058333B4433F83A2C594B1B8C9A4287
:101CC00016D9B7F85630DB0058333B4433F8362C7E
:101CD000534B1B8C9A420BD2B7F85630DBB2013310
:101CE00087F8533097F8533019464E4813F084FC68
:101CF000B7F856300133A7F8563097F855309BB2F5
:101D0000B7F856209A42BED30023A7F8563047E0D2
:101D1000B7F8562013465B001344DB0058333B44AE
:101D200033F83C3C1946B7F8562013465B00134481
:101D3000DB0058333B4433F8383C1A463A4813F03A
:101D40005BFCB7F8562013465B001344DB005833A6
:101D50003B4433F83C3C1E33314AD28B93421ADA6F
:101D6000B7F8562013465B001344DB0058333B445E
:101D700033F8383C1D332A4AD28B93420BDBB7F839
:101D80005630DBB2013387F8523097F8523019469B
:101D9000264813F031FCB7F856300133A7F8563017
:101DA00097F854309BB2B7F856209A42B0D397F8C0
:101DB000533097F8522002FB03F3002B1ED097F804
:101DC000532097F85230013B97F8551001FB03F36D
:101DD00013441946164813F00FFC164813F074FC10
:101DE00097F85230013BDBB297F8552012FB03F312
:101DF000DAB297F853301344DBB203E00D4813F026
:101E000063FC002318465837BD46B0BDDC7D010891
:101E1000907D01080C000020A07D0108FC7C0108D9
:101E200040380020207D01085C7D0108807D01088C
:101E3000B47D0108307D010880B582B000AF034653
:101E4000FB71FB79002B05D001220121064809F026
:101E500019FC04E000220121034809F013FC00BF33
:101E60000837BD4680BD00BF001C004880B582B069
:101E700000AF0346FB71094AFB791370FB79002B15
:101E800007D101220121064809F0FCFB054B002285
:101E90001A7000BF0837BD4680BD00BF1200002089
:101EA000001C00481100002080B582B000AF03463E
:101EB0000A46FB711346BB71FB79002B03D100204E
:101EC000FFF7D4FF09E00120FFF7D0FF054ABB79F7
:101ED0001370044B1A78044B1A7000BF0837BD46C4
:101EE00080BD00BF130000207730002080B500AF18
:101EF0001C4B1B78002B23D01B4B1B78013BDAB209
:101F0000194B1A70184B1B78042B29D8174B1B78C8
:101F1000002B08D001220121154809F0B3FB134B17
:101F200000221A7007E000220121114809F0AAFBE3
:101F30000E4B01221A700F4B1A780B4B1A700FE0E0
:101F4000084B1B78002B0BD1084B1B78002B07D0BC
:101F500001220121064809F095FB044B00221A706A
:101F600000BF80BD1200002077300020110000204B
:101F7000001C00481300002080B400AF034B002277
:101F80001A6000BFBD465DF8047B70473003002037
:101F900080B500AF0B4B1B68B3F5C87F0CD20A4865
:101FA00013F092FB0021402012F052FC054B1B68FD
:101FB0000133044A136002E0044813F085FB00BFBC
:101FC00080BD00BF30030020F47D01080C7E0108B5
:101FD00080B582B000AFFFF789FF504B1B7803F04C
:101FE0000603002B24D0FFF78FFD0346BB71BB799E
:101FF000042B1DD14A4B00221A70484B1B78022B30
:1020000002D0042B04D013E00420FFF7DDFC0FE026
:10201000FFF78AFD0346FB71FB79002B04D0FB79A7
:102020001946404813F0E8FA0820FFF7CDFC00BF3E
:10203000FFF70CFD0346002B6BD0FFF7FBFC374B83
:102040001B78013B0F2B61D801A252F823F000BF8F
:1020500091200008972000080D210008A320000807
:102060000D2100080D2100080D210008B5200008F1
:102070000D2100080D2100080D2100080D21000888
:102080000D2100080D2100080D210008FB2000088B
:1020900003F0B4FE3DE003F0F9FE0020FFF7E2FCA0
:1020A00037E003F0A7FF0120FFF7DCFC0A20FFF771
:1020B000F5FC2EE004F068F8FB79002B16D0FB79D4
:1020C0001946184813F098FA174B9B785A1EFB795B
:1020D000591E164813465B0013445B0003440B442F
:1020E0001B78184606F06EFB0023FB710220FFF7F9
:1020F000B9FC0320FFF7D2FC0BE004F009F9032040
:10210000FFF7B0FC0320FFF7C9FC02E003F076FE06
:1021100000BF00BF0837BD4680BD00BF08000020DB
:1021200040380020B47D01080C000020989D010873
:1021300080B500AF0021202012F08AFB202012F091
:1021400059FAFFF719FF00BF80BD000080B500AF4E
:10215000134A0021202012F059FB124A002140208E
:1021600012F054FB104B01221049002000F012FD28
:102170000F4B00220F49002000F00CFDFFF7FCFE82
:102180000021202012F064FB0021402012F060FBAF
:10219000064B1B781421184600F0FAFD00BF80BDE5
:1021A000D11F0008911F0008312100082C030020D6
:1021B000C51A00082D03002080B483B000AF7860FA
:1021C000064BD3F8802005497B681343C1F8803063
:1021D00000BF0C37BD465DF8047B7047000800580F
:1021E00080B483B000AF7860054B1A6804497B68FF
:1021F00013430B6000BF0C37BD465DF8047B70478E
:102200000008005880B483B000AF0D4B9B6A9BB2AE
:102210007B600B4B9B6A9BB23B6005E03B687B603D
:10222000074B9B6A9BB23B607A683B689A42F5D148
:102230003B6818460C37BD465DF8047B704700BF0D
:102240000028004080B485B000AF03460A46FB7109
:102250001346BB71BA791D4913465B001344DB007A
:102260000B4415331B78FB73FB7B062B09D0FA7BE1
:10227000164913465B001344DB000B441433FA7910
:102280001A70FA79114913465B001344DB000B44C2
:102290001533FA7B1A70FA790C4913465B00134424
:1022A000DB000B441433BA791A70BA790749134624
:1022B0005B001344DB000B441533FA791A7000BF3E
:1022C0001437BD465DF8047B704700BF78300020AE
:1022D00080B485B000AF03460A46FB711346BB715C
:1022E000294B1B78DBB2BA799A4232D0BA792749A6
:1022F00013465B001344DB000B4414331B78FB7361
:10230000FA7B224913465B001344DB000B44153370
:10231000FA791A70FA791D4913465B001344DB0001
:102320000B441533BA791A70FA79184913465B00D1
:102330001344DB000B441433FA7B1A70BA79134947
:1023400013465B001344DB000B441433FA791A7014
:1023500014E0FA790D4913465B001344DB000B448B
:102360001533BA791A70BA79084913465B001344D9
:10237000DB000B441433FA791A7000BF1437BD46E2
:102380005DF8047B704700BF0831002078300020E2
:1023900080B584B000AF0346FB714E4B1B78DBB2B7
:1023A000062B18D14B4B1B78DAB24B4B1A70494AAB
:1023B000FB791370FA79494913465B001344DB003B
:1023C0000B44153306221A70454B4FF0FF321A604A
:1023D0000023FB8178E000F009F90346FB81FA79DC
:1023E0003E4913465B001344DB000B440833196875
:1023F000FB89FA791944394813465B001344DB0022
:10240000034408331960FA79344913465B001344D6
:10241000DB000B4408331B68BB602E4B1B78DBB220
:1024200019462E4A0B465B000B44DB00134408336D
:102430001B68BA689A4237D3264B1B787B737A7B2A
:10244000264913465B001344DB000B4415331B780D
:102450003B7313E07A7B214913465B001344DB0096
:102460000B4415331B787B737A7B1C4913465B0046
:102470001344DB000B4415331B783B733B7B062B6B
:102480000BD03A7B154913465B001344DB000B4429
:1024900008331B68BA689A42DCD27A7BFB79114612
:1024A0001846FFF7CFFE0FE00A4B1B78DAB2FB7934
:1024B00011461846FFF70CFF064B1B78DAB2064BA5
:1024C0001A70044AFB791370FB8918461037BD4611
:1024D00080BD00BF08310020093100207830002085
:1024E0000C31002080B485B000AF03460A46FB7172
:1024F0001346BB71394B1B78DBB2FA799A4211D182
:10250000364B1B78DAB2364B1A70FA7935491346D6
:102510005B001344DB000B4415331B78DAB22F4BFE
:102520001A703EE0FA792F4913465B001344DB0032
:102530000B4414331B78FB73FA792A4913465B006A
:102540001344DB000B4415331B78BB73F979FA7B1A
:1025500024480B465B000B44DB00034415331B7817
:10256000D8B2204913465B001344DB000B441533FB
:1025700002461A70BB7B062B13D0F979BA7B194837
:102580000B465B000B44DB00034414331B78D8B2CA
:10259000144913465B001344DB000B44143302461A
:1025A0001A70FA790F4913465B001344DB000B44A1
:1025B0000C3301221A70094B1B78DBB2062B07D1B2
:1025C000BB79002B04D1084B4FF0FF321A6000BFDB
:1025D00000BF1437BD465DF8047B7047083100200A
:1025E00009310020783000200C31002080B582B005
:1025F00000AF1A4B1B68B3F1FF3F26D0FFF702FE76
:102600007860164B1B687A689A4205D8134B1A6893
:102610007B68D31A7B600AE0114B1B881A467B68E3
:10262000D31A3B600D4B1B683A6813447B600D4B1B
:102630001B781A467B6802FB03F37B600A4B1B780E
:102640001A467B68D3407B6001E000237B607B6897
:102650009BB218460837BD4680BD00BF0C31002034
:1026600014310020123100201131002080B582B0D9
:1026700000AF0346FB80FB88002B08D1FFF7C2FDAB
:102680000346214A1360032008F0D1FA39E0FB88A1
:10269000012B03D81D4B1B78012B02D0FB88013B7B
:1026A000FB8000BF1A4B1B68DB6803F00403002BA0
:1026B000F8D0174B1B68DB68DAB2154B1B6862F465
:1026C0009062DA60134B4FF40022DA60032008F0C6
:1026D000BCFA114B5B691B0C1B04FA880E491343AF
:1026E0004B61FFF78FFD0346074A1360084B1B68D9
:1026F0009A68074B1B6842F480629A60AFF30080CF
:1027000000BF0837BD4680BD0C31002011310020CC
:1027100058310020000800580028004080B584B0DF
:1027200000AF454B9B6803F48063B3F5806F07D11E
:1027300000BF424B1B68DB6803F00403002BF8D199
:102740003E4B1B689A683D4B1B6822F480629A607E
:102750003B4B1B78FB73FA7B3A4913465B001344EF
:10276000DB000B4408331B68BB60FFF73FFF0346E9
:10277000FB80FB88BA689A4205D20023BB81324BAA
:1027800001221A704DE0FB88304A128892B213443D
:102790001A46BB68934206D92C4B1B88BB812A4B37
:1027A00000221A703DE0BB689AB2FB88D31ABB8145
:1027B000254B01221A7034E0FA7B224913465B0054
:1027C0001344DB000B4408331A68FB889A420AD290
:1027D000FA7B1C4913465B001344DB000B440833AF
:1027E00000221A6013E0FA7B164913465B0013447B
:1027F000DB000B4408331968FB88FA7BC91A1148BF
:1028000013465B001344DB00034408331960FA7B72
:102810000C4913465B001344DB000B4415331B7853
:10282000FB73FB7B062BC7D1BB891846FFF71EFF46
:1028300000BF1037BD4680BD002800405831002041
:10284000083100207830002010310020163100209F
:1028500080B58AB000AFEFF310837B617B697B6248
:1028600072B600BF594B1B68CA225A62574B1B688D
:1028700053225A62554B1B689A68544B1B6822F4CA
:1028800080629A60524B1B7887F8233097F8232098
:10289000504913465B001344DB000B440C331B7898
:1028A000DBB2022B6ED197F823204A4913465B0016
:1028B0001344DB000B441B68FB6197F82320454958
:1028C00013465B001344DB000B4410331B68BB61F1
:1028D000414B1B78DBB2002B4CD097F823203D49AD
:1028E00013465B001344DB000B440D331B78DBB253
:1028F000012B24D197F8233001211846FFF7F2FD70
:102900007B6A3B613B6983F3108800BF97F8232003
:10291000304913465B001344DB000B4404331A6850
:1029200097F823301146184600F032FA274B1B68FF
:10293000CA225A62254B1B6853225A6212E07B6AF4
:10294000FB60FB6883F3108800BF97F823301846BC
:1029500000F09AF91D4B1B68CA225A621B4B1B6878
:1029600053225A6297F82330FA691946B86900F081
:1029700095FA22E0FFF7D2FE7B6ABB60BB6883F367
:1029800010881AE000BF114B1B68DB6803F00403DA
:10299000002BF8D00D4B1B68DB68DAB20B4B1B68C1
:1029A00062F49062DA600D4B4FF40022DA607B6AC9
:1029B0007B607B6883F3108800BF044B1B68FF2299
:1029C0005A6200BF2837BD4680BD00BF5831002085
:1029D0000831002078300020103100200008005815
:1029E00080B588B000AF03463960FB715E4B1B6851
:1029F000CA225A625C4B1B6853225A625B4B9B682B
:102A00005A4A43F020039360584B9B68DBB203F0B3
:102A10000703DBB2C3F10403DAB2554B1A70534B10
:102A20001B6903F4FE034FF4FE023A613A6992FA1D
:102A3000A2F2FA60FA687A617A69002A01D120224A
:102A400003E07A69B2FA82F2D2B2D340DBB2013348
:102A5000DAB2484B1A70454B1B699BB2C3F30E03A5
:102A60009BB201339AB2444B1A80434B1B88013B03
:102A7000404A127802FB03F3A3F5A0733C4A127894
:102A8000D340BB61BB694FF6FE72934204D93B4B06
:102A90004FF6FF721A8003E0BB699AB2374B1A8077
:102AA0004FF40020FFF79CFB4FF40020FFF784FB5E
:102AB000FB79002B3DD1324B01221A70314B4FF084
:102AC000FF321A600023FB770CE0FA7F2E49134691
:102AD0005B001344DB000B440C3300221A70FB7FB5
:102AE0000133FB77FB7F052BEFD9284B06221A70A9
:102AF0001D4B1B689A681C4B1B6822F480629A600D
:102B0000194B1B68DB68DAB2174B1B6862F49062E2
:102B1000DA601F4B4FF40022DA60032008F095F8CA
:102B2000114B1B689A68104B1B6842F480429A60F4
:102B300009E00D4B1B68DB6803F48063002B02D0B7
:102B4000032008F074F8084B1B68FF225A62002229
:102B50000321032008F029F8032008F040F800BF03
:102B60002037BD4680BD00BF5831002000280040FE
:102B700011310020123100201431002016310020C4
:102B8000103100200C310020783000200831002066
:102B90000008005880B48BB000AFF860B9603B60AB
:102BA0001346FB71002387F82630EFF31083FB6197
:102BB000FB693B6272B600BF04E097F82630013330
:102BC00087F8263097F82630052B0CD897F8262062
:102BD0002C4913465B001344DB000B440C331B7879
:102BE000DBB2002BE9D197F82630062B38D097F8C6
:102BF0002620244913465B001344DB000B440C33AE
:102C000001221A703B6ABB61BB6983F3108800BF65
:102C100097F826201B4913465B001344DB000B4446
:102C20001033FA681A6097F82620164913465B009D
:102C30001344DB000B440D33FA791A7097F8262001
:102C4000104913465B001344DB000B443A681A60DA
:102C5000BB6897F826201A70002387F8273008E011
:102C60003B6A7B617B6983F3108800BF012387F88F
:102C7000273097F8273018462C37BD465DF8047B7F
:102C8000704700BF7830002080B586B000AF0346A3
:102C9000FB71EFF31083FB60FB687B6172B600BFD2
:102CA000032007F0AAFF344B1B68CA225A62324B3A
:102CB0001B6853225A62FA79304913465B00134469
:102CC000DB000B440C331B78DBB2022B42D1FB79C7
:102CD00000211846FFF706FC294B1B78FB74FB7C90
:102CE000062B2FD1274B9B6803F48063B3F5806FCD
:102CF00007D100BF204B1B68DB6803F00403002BE7
:102D0000F8D11D4B1B689A681B4B1B6822F480622C
:102D10009A6000BF184B1B68DB6803F00403002BAC
:102D2000F8D0154B1B68DB68DAB2134B1B6862F4F2
:102D30009062DA60144B4FF40022DA60032007F04F
:102D400084FF07E0114B1B78DBB2FA7C9A4201D07A
:102D5000FFF7E4FC084B1B68FF225A62032007F0D0
:102D60003EFF7B69BB60BB6883F3108800BF00BF78
:102D70001837BD4680BD00BF583100207830002094
:102D800008310020002800400008005809310020C8
:102D900080B586B000AF03463960FB71FA793B49D4
:102DA00013465B001344DB000B440C331B78DBB28F
:102DB000022B03D1FB791846FFF766FFEFF3108370
:102DC000FB60FB687B6172B600BF032007F015FF54
:102DD0002F4B1B68CA225A622D4B1B6853225A6222
:102DE000FA792A4913465B001344DB000B440C3389
:102DF00002221A70FA79254913465B001344DB005E
:102E00000B4408333A681A60FA79204913465B008C
:102E10001344DB000B4404333A681A60FB7918460C
:102E2000FFF7B6FA03467B821A4B1B787B741A4B6A
:102E30001B78DBB27A7C9A4202D0FFF76FFC13E07A
:102E4000FA79124913465B001344DB000B44083344
:102E500019687B8AFA79C91A0C4813465B00134437
:102E6000DB00034408331960094B1B68FF225A62D8
:102E7000032007F0B4FE7B69BB60BB6883F3108856
:102E800000BF00BF1837BD4680BD00BF78300020AE
:102E900058310020083100200931002080B584B06D
:102EA00000AFF8600B467A60FB727B68984700BF02
:102EB0001037BD4680BD000080B582B000AF78609D
:102EC0007B681B681A46094B9A4207D1084B1B685E
:102ED000002B05D0064B1B68984701E000BF00E0BF
:102EE00000BF00BF0837BD4680BD00BF0080004066
:102EF0001831002080B483B000AF78604FF0B04349
:102F0000D3F8903023F018024FF0B0417B681343A0
:102F1000C1F8903000BF0C37BD465DF8047B7047A8
:102F200080B483B000AF78604FF0B043DA6C7B6858
:102F3000DB434FF0B0411340CB6400BF0C37BD46BC
:102F40005DF8047B704780B483B000AF78604FF0C9
:102F5000B0431A6D7B6813407A689A4201D101230D
:102F600000E0002318460C37BD465DF8047B70472F
:102F700080B483B000AF78604FF0B0439A6D7B6847
:102F8000DB434FF0B04113408B6500BF0C37BD46AB
:102F90005DF8047B704780B483B000AF78604FF079
:102FA000B0431A6E7B68DB434FF0B04113400B66B1
:102FB00000BF0C37BD465DF8047B704780B483B01A
:102FC00000AF78607B68FF225A6200BF0C37BD46B5
:102FD0005DF8047B704780B483B000AF78607B6895
:102FE000CA225A627B6853225A6200BF0C37BD4620
:102FF0005DF8047B704780B483B000AF78603960BF
:103000007B689B6823F007023B681A437B689A60E1
:1030100000BF0C37BD465DF8047B704780B500AF3C
:103020000120FFF77DFF0220FFF77AFF4FF4804079
:10303000FFF7B1FF4FF48050FFF7ADFF4FF40010E2
:10304000FFF796FF4FF40050FFF76AFF4FF48070D0
:10305000FFF779FF00BF80BD80B500AF07F0C0FB70
:10306000FEF70AF900F03EF800F098F800F0B6F824
:1030700000F094F900F0CEF800F000F900F0C2F88A
:10308000FEF708F9FFF762F8134B1B68B3F57A6F88
:1030900013D907F049FC07F03BFC72B600BF40BFF4
:1030A00020BF0020FEF7C8FEFFF7B8FF0B4B1B78D0
:1030B0001846FFF7E9FD62B60AE0074B1B680133CB
:1030C000054A1360044B1B681946054812F094FA30
:1030D000FEF7CFFBD8E700BF103500202C030020FF
:1030E000707E010880B59AB000AF07F12003482236
:1030F0000021184612F0F8FB3B1D00221A605A60AE
:103100009A60DA601A615A619A6109F063F81020D6
:10311000FFF7F0FE204B1B6823F4C0631E4A43F404
:10312000007313601C4B1B6803F4C0633B603B6877
:1031300007233B624FF480337B620123BB624FF471
:103140008073FB6240233B630023FB6407F1200391
:10315000184609F083FE0346002B01D000F025F944
:103160006F237B600223BB600023FB6000233B6175
:1031700000237B610023BB610023FB613B1D012118
:1031800018460AF0DFF90346002B01D000F00DF9D4
:1031900000BF6837BD4680BD0004005880B594B0BC
:1031A00000AF3B4650220021184612F09DFB4FF421
:1031B00040533B604FF480437B640223BB64002395
:1031C000FB643B4618460AF0FAFD0346002B01D08B
:1031D00000F0EBF800BF5037BD4680BD80B500AFB2
:1031E000064B074A1A60054808F06EFF0346002B9D
:1031F00001D000F0DAF800BF80BD00BF1C31002014
:10320000000C005880B400AF00BFBD465DF8047BE1
:103210007047000080B500AF164B174A1A60154B77
:1032200000225A60134B0F229A60124B47F6FF722E
:10323000DA60104B00221A610E4B00229A610D4B8E
:103240000022DA610B4B00225A610A480BF03EF86B
:103250000346002B01D000F0A8F80748FFF7BBFE9B
:1032600000210548FFF7C7FE0348FFF7A7FE00BF90
:1032700080BD00BF583100200028004080B500AF5D
:10328000224B234A1A60214B4FF4E1325A601F4B04
:1032900000229A601D4B0022DA601C4B00221A614A
:1032A0001A4B0C225A61194B00229A61174B0022CB
:1032B0001A62164B00225A62144B00229A62134B78
:1032C00000225A6611480CF04BFB0346002B01D03C
:1032D00000F06BF800210D480DF053FC0346002B65
:1032E00001D000F062F8002108480DF088FC034688
:1032F000002B01D000F059F804480DF009FC0346FA
:10330000002B01D000F051F800BF80BDBC3200207E
:103310000080004080B582B000AF786039601D4BFE
:103320001D4A1A601B4B4FF482725A60194B0022DF
:103330009A60184B4FF4E062DA60164B00221A6173
:10334000144B00225A61134B4FF400729A61114BD7
:103350000022DA610F4B00221A620E4B00225A62E1
:103360000C4B00229A620B4B0722DA62094B0022B7
:103370001A63084B08225A6306480BF0DDF803462F
:10338000002B01D000F011F800BF18460837BD46E9
:1033900080BD00BFB03300200030014080B400AFDA
:1033A00000BFBD465DF8047B704780B400AF72B6C5
:1033B00000BF00BFFDE780B483B000AF78604FF07E
:1033C000B043D3F8903023F440724FF0B0417B68A3
:1033D0001343C1F8903000BF0C37BD465DF8047B45
:1033E000704780B400AF4FF0B043D3F890304FF047
:1033F000B04243F40043C2F8903000BFBD465DF8D0
:10340000047B704780B485B000AF78604FF0B04364
:10341000DA6C4FF0B0417B681343CB644FF0B0439C
:10342000DA6C7B681340FB60FB6800BF1437BD4655
:103430005DF8047B704780B485B000AF78604FF0D2
:10344000B0431A6D4FF0B0417B6813430B654FF0EA
:10345000B0431A6D7B681340FB60FB6800BF1437F4
:10346000BD465DF8047B704780B485B000AF7860DE
:103470004FF0B0439A6D4FF0B0417B6813438B65BA
:103480004FF0B0439A6D7B681340FB60FB6800BF50
:103490001437BD465DF8047B704780B485B000AF3B
:1034A00078604FF0B043DA6D4FF0B0417B68134362
:1034B000CB654FF0B043DA6D7B681340FB60FB686F
:1034C00000BF1437BD465DF8047B704780B483B0FD
:1034D00000AF78604FF0B0439A6D7B68DB434FF0EC
:1034E000B04113408B6500BF0C37BD465DF8047BCF
:1034F000704780B485B000AF78604FF0B0431A6E6B
:103500004FF0B0417B6813430B664FF0B0431A6E27
:103510007B681340FB60FB6800BF1437BD465DF855
:10352000047B704780B483B000AF78604FF0B04345
:103530001A6E7B68DB434FF0B04113400B6600BF4F
:103540000C37BD465DF8047B704780B500AF4FF483
:103550000020FFF770FF002200212E2007F025FB3E
:103560002E2007F03CFB00BF80BD000080B582B07C
:1035700000AF78607B681B68054A934203D14FF423
:103580008010FFF758FF00BF0837BD4680BD00BF61
:10359000000C005880B596B000AF786007F10803C2
:1035A00050220021184612F09FF97B681B68144ACC
:1035B000934220D108F00EFE08F00CFE4FF480700C
:1035C000FFF7F9FE4FF40063BB604FF48073BB64F8
:1035D00007F1080318460AF0F2FB0346002B01D05E
:1035E000FFF7E3FEFFF7FDFE4FF48060FFF73CFFBF
:1035F00078680AF06BFF00BF5837BD4680BD00BF3A
:103600000028004080B588B000AF786007F10C0357
:1036100000221A605A609A60DA601A617B681B683F
:103620000A4A93420ED14FF40030FFF762FF102098
:10363000FFF7E8FE00220021192007F0B6FA192052
:1036400007F0CDFA00BF2037BD4680BD00440140E1
:1036500080B59CB000AF786007F15C0300221A606F
:103660005A609A60DA601A6107F10C035022002157
:10367000184612F039F97B681B685C4A934256D1B0
:103680000123FB6000237B6207F10C0318460AF05C
:1036900096FB0346002B01D0FFF787FE4FF48040D6
:1036A000FFF727FF0220FFF7ADFEC023FB650223D3
:1036B0003B6601237B660323BB660723FB6607F19A
:1036C0005C0319464A4807F077FD4A4B4A4A1A609C
:1036D000484B0F225A60474B10229A60454B0022FC
:1036E000DA60444B80221A61424B00225A61414BFE
:1036F00000229A613F4B0022DA613E4B00221A629F
:103700003C4807F0B1FA0346002B01D0FFF74DFE0D
:103710007B68384ADA67374A7B6893620022002167
:10372000242007F042FA242007F059FA59E07B6878
:103730001B68324A934254D10223FB600023BB62D0
:1037400007F10C0318460AF03AFB0346002B01D0A0
:10375000FFF72BFE0120FFF7A0FE0420FFF752FE2B
:103760000323FB6502233B6600237B660023BB66C5
:103770000823FB6607F15C031946214807F01CFD8E
:10378000204B214A1A601F4B11225A601D4B1022F8
:103790009A601C4B0022DA601A4B80221A61194B86
:1037A00000225A61174B00229A61164B0022DA61FF
:1037B000144B00221A62134807F056FA0346002BF6
:1037C00001D0FFF7F2FD7B680E4ADA670D4A7B688D
:1037D000936200220021252007F0E7F9252007F059
:1037E000FEF900BF7037BD4680BD00BF0038014004
:1037F000000400485C320020440402400080004085
:1038000000080048503300204400024080B588B0D2
:1038100000AF786007F10C0300221A605A609A60CA
:10382000DA601A617B681B681D4A934217D14FF416
:103830008050FFF75EFE0220FFF7E4FD3823FB60B7
:1038400002233B6100237B610223BB610523FB61F3
:1038500007F10C031946134807F0AEFC1CE07B6827
:103860001B68114A934217D14FF48040FFF7FCFDCB
:103870000220FFF7C7FD4FF46043FB6002233B616A
:1038800000237B610023BB610523FB6107F10C036F
:103890001946044807F090FC00BF2037BD4680BDA4
:1038A00000300140000400480038004080B582B07C
:1038B00000AF78607B681B680E4A934208D14FF4D2
:1038C0008050FFF72FFE38210B4807F0E5FD0DE093
:1038D0007B681B68094A934208D14FF48040FFF788
:1038E000F5FD4FF46041044807F0D6FD00BF0837EE
:1038F000BD4680BD00300140000400480038004053
:1039000080B400AF00BFFDE780B400AF00BFFDE7AB
:1039100080B400AF00BFFDE780B400AF00BFFDE79B
:1039200080B400AF00BFFDE780B400AF00BFBD466C
:103930005DF8047B704780B400AF00BFBD465DF802
:10394000047B704780B400AF00BFBD465DF8047BC8
:10395000704780B500AF06F09DFF00BF80BD00003E
:1039600080B500AF02480BF01EFE00BF80BD00BF57
:103970007C31002080B500AF02480CF0CFF800BFCA
:1039800080BD00BFC831002080B500AF07F0C4FE85
:1039900000BF80BD80B500AF024807F0CBFA00BF82
:1039A00080BD00BF5C32002080B500AF01F03EFD5D
:1039B00000BF80BD80B500AF01F06EFD00BF80BDCF
:1039C00080B500AF4FF4805007F08EFE4FF40050EA
:1039D00007F08AFE00BF80BD80B500AFFEF738FF5C
:1039E00000BF80BD80B500AF06F0F0F800BF80BD1D
:1039F00080B500AF022007F077FE00BF80BD80B524
:103A000000AF042007F070FE00BF80BD80B500AF9E
:103A1000082007F069FE00BF80BD80B500AF102010
:103A200007F062FE00BF80BD80B500AF202007F028
:103A30005BFE00BF80BD80B400AF01231846BD46C9
:103A40005DF8047B704780B582B000AF7860396064
:103A500011F0C2FF034616221A604FF0FF331846DA
:103A60000837BD4680BD80B582B000AF78604FF0AA
:103A7000FF317868FFF7E7FF00BFFDE780B586B04C
:103A800000AFF860B9607A6000237B610AE0AFF3B1
:103A900000800146BB685A1CBA60CAB21A707B69C2
:103AA00001337B617A697B689A42F0DB7B68184658
:103AB0001837BD4680BD80B483B000AF78604FF04A
:103AC000FF3318460C37BD465DF8047B704780B461
:103AD00083B000AF786039603B684FF400525A60A1
:103AE000002318460C37BD465DF8047B704780B450
:103AF00083B000AF7860012318460C37BD465DF8EF
:103B0000047B704780B485B000AFF860B9607A601C
:103B1000002318461437BD465DF8047B704700004B
:103B200080B586B000AF7860144A154BD31A7B611C
:103B30007B693B61134B1B68002B02D1114B124A6E
:103B40001A60104B1A687B6813443A699A4207D28C
:103B500011F042FF03460C221A604FF0FF3309E0D8
:103B6000084B1B68FB60074B1A687B681344054AC7
:103B70001360FB6818461837BD4680BD000003205F
:103B800000100000143500207068002080B400AFE1
:103B9000034B1B681846BD465DF8047B704700BFA9
:103BA0008075FF1F80B400AF034B1B68DBB2184663
:103BB000BD465DF8047B70478475FF1F80B400AF7D
:103BC000034B1B681B0A1846BD465DF8047B704713
:103BD0008475FF1FF0B5B1B004AF07F19403C7F8C7
:103BE000AC309E4B3C1D1D460FCD0FC40FCD0FC4F6
:103BF0000FCD0FC495E8070003C4228000F024FE17
:103C00000121022010F0C6FC954A0021042010F08A
:103C1000FDFD3B1D18460FF0E1F8034687F8AB3079
:103C200097F8AB30002B12D08E480EF044FB0146C3
:103C300040F24F138C4A8D4811F0DEFC97F8AB3000
:103C400019468B4811F0D8FCFFF7AFFB0CE0854814
:103C50000EF031FB014640F25513834A834811F0C0
:103C6000CBFC844811F030FD00F004FE0FF066FE3E
:103C7000814B002283F880207F4B4FF6FF72DA825F
:103C80007E4A0021012010F0C1FD01F081FA7C4B39
:103C90008922DA707B4B00227B490020FEF77AFFF5
:103CA000754B02225A76744B01221A7641F60D00AA
:103CB00001F0DAF9754B80221A80754BA0221A8028
:103CC000012001F08BF8D7F8AC000FF0CBF80346D9
:103CD000002B40F0928001F083F9C7F8A400D7F8D8
:103CE000A43005331B781D46D7F8A43004331B7865
:103CF0001E46D7F8A43003331B781A46D7F8A430F1
:103D000002331B781946D7F8A43001331B781C46C0
:103D1000D7F8A4301B7807F1800003930294019137
:103D2000009233462A465B4911F0D6FCD7F8AC30F6
:103D30001B781A46D7F8AC305B781946D7F8AC3008
:103D40009B7807F1680000930B46534911F0C4FCBF
:103D5000D7F8AC30DB781A46D7F8AC301B7907F1CE
:103D600054004E4911F0B8FCD7F8AC309B7A1A4693
:103D7000D7F8AC30DB7A1946D7F8AC301B7B07F1AB
:103D8000400000930B46464911F0A6FC002100209C
:103D900006F00AFB002006F0DFF907F1800203239A
:103DA0000021002010F0ACF910F048F90346DB8840
:103DB000194607F168020323002010F0A1F910F062
:103DC0003DF90346DB885B00194607F154020323E3
:103DD000002010F095F910F031F90346DB881A46FF
:103DE00013465B001344194607F1400203230020E9
:103DF00010F086F9002006F0AFF94FF47A60FDF775
:103E000013FD0021002006F0CFFA002006F0A4F9EF
:103E10000123244A0021002010F072F910F00EF95D
:103E20000346DB88194607F180020323002010F0C7
:103E300067F910F003F90346DB881A4613465B0066
:103E4000134419460323184A002010F059F90020A2
:103E500006F082F900BFB437BD46F0BD008001080E
:103E600051240108847E0108EC9D0108107F01089F
:103E7000287F0108607F010820350020D15000080C
:103E800014000020C1500008A1350020A4350020F6
:103E9000A6350020887F0108A87F0108BC7F0108A3
:103EA000D07F0108E07F0108F47F0108F0B597B0EA
:103EB00004AF7860922387F847307B6801333B6416
:103EC0003B6C1B78FF2B00F04C82FF2B00F3188417
:103ED000052B04D03E2B00F0878000F011BC3B6C1A
:103EE00002333B623B6AB3F801309AB2A84BDB8ADB
:103EF0009A4228D1A64B0022DA82A54B002283F8F1
:103F00008020A4480EF0D7F9014640F2DB13A24A04
:103F1000A24811F071FBA24811F0D6FB9D480EF0AB
:103F2000CAF901464FF4EE739B4A9C4811F064FBBA
:103F30003B6AB3F801309BB219463B6ADB781A46FC
:103F4000984811F059FB01F04BF878627B6A053311
:103F50001B781D467B6A04331B781E467B6A03333D
:103F60001B781A467B6A02331B7819467B6A013339
:103F70001B781C467B6A1B7807F1080003930294A8
:103F80000191009233462A46874911F0A5FB002192
:103F9000002006F009FA002006F0DEF80123834A2B
:103FA0000021002010F0ACF810F048F80346DB8840
:103FB000194607F108020323002010F0A1F810F0C1
:103FC0003DF80346DB881A4613465B001344194646
:103FD0000323774A002010F093F8002006F0BCF885
:103FE000012000F0FBFE8EE33B6C02337B637B6BB6
:103FF0001B780C2B48D00C2B00F3B181012B00F067
:10400000EB80032B40F0AB817B6B0133FB6261489B
:104010000EF051F9014640F205235F4A5F4811F066
:10402000EBFA644811F050FB5A480EF044F901468F
:1040300040F20623584A594811F0DEFAFB6AB3F8F9
:1040400003309BB21846FCF745FA4FF000025A4B7A
:10405000FCF7AAFA02460B4610461946FB6AB3F86B
:1040600005309BB21C46FB6AB3F807309BB21A4678
:1040700013469B0013445B000193009402460B46D9
:104080004E4811F0B9FA6BE17B6B01333B63414859
:104090000EF011F9014640F213233F4A3F4811F058
:1040A000ABFA474811F010FB3B6B1B78002B0DD18E
:1040B00038480EF000F9014640F21623364A3748D8
:1040C00011F09AFA3F4811F0FFFA0CE031480EF077
:1040D000F2F8014640F21A232F4A304811F08CFAC8
:1040E000394811F0F1FA2A4BDB8A07F11E0207F179
:1040F0001F0118460DF0E4FF034687F8473097F894
:104100004730002B0DD023480EF0D5F801464FF470
:104110000873214A214811F06FFA2C4811F0D4FAA3
:104120001EE11C480EF0C7F801464FF409731A4A05
:104130001A4811F061FA264811F0C6FAFB7F022BEB
:1041400014D1BB7F022B11D112480EF0B4F80146F6
:104150004FF40A73104A114811F04EFAFB7F1946CA
:10416000BB7F1A461B4811F047FAF9E009480EF0E8
:10417000A2F801464FF40B73074A084811F03CFAC5
:10418000FB7F1946BB7F1A46124811F035FAE7E06B
:1041900020350020847E0108FC9D0108107F010865
:1041A0003C80010868800108887F0108E07F0108E1
:1041B000F47F0108A48001080000F43FDC800108BE
:1041C0004C8101087C8101088C8101089C810108D7
:1041D000BC810108E08101087B6B0133BB62AC4B01
:1041E00093F881301846FEF74FFDAA480EF063F8A9
:1041F000014640F23D23A84AA84811F0FDF9BB6AE8
:10420000B3F801309BB21946A54811F0F5F9A14861
:104210000EF051F8014640F23E239F4A9F4811F0AC
:10422000EBF9BB6A9B7A1846BB6A5B7A1C46BB6A91
:104230001B7A1D46BB6ADB791A46BB6A9B79194615
:10424000BB6A5B790293019100922B46224601469C
:10425000944811F0D1F98F480EF02DF8014640F244
:1042600045238D4A8D4811F0C7F9BB6AB3F80B306E
:104270009BB21846FCF72EF94FF000028A4BFCF770
:1042800093F902460B4610461946BB6AB3F80D3047
:104290009BB21C46BB6AB3F80F309BB21A4613465A
:1042A0009B0013445B000193009402460B467F4839
:1042B00011F0A2F9764B93F88030042B04D1744BA3
:1042C000062283F8802003E0714B052283F88020CA
:1042D000BB6AB3F801309AB26D4BDA8200F080FE0F
:1042E00078627B6A05331B781D467B6A04331B7832
:1042F0001E467B6A03331B781A467B6A02331B789F
:1043000019467B6A01331B781C467B6A1B7807F1D0
:104310000800039302940191009233462A466449AF
:1043200011F0DAF90FF08AFE0346DB88194607F12F
:104330000802032300200FF0E3FE0FF07FFE034688
:10434000DB881A4613465B00134419460323594A77
:1043500000200FF0D5FE002005F0FEFE00E000BFBB
:10436000D1E13B6C0233FB63FB6B1B889BB240F2D9
:104370000A42934222DCB3F5806FC0F2C381A3F5F9
:1043800080630A2B00F2BE8101A252F823F000BF25
:10439000C943000837460008E543000857440008B1
:1043A00073440008D544000805470008BD460008CE
:1043B000454500087D4500086145000840F60E426D
:1043C000934200F089819DE132480DF074FF01466F
:1043D0004FF41E73304A314811F00EF9364811F08F
:1043E00073F98CE12B480DF066FF01464FF41F7303
:1043F000294A2A4811F000F9304811F065F9244B98
:10440000DB8A2F4918460CF0BDFE034687F847307B
:1044100097F84730002B10D01E480DF04CFF014696
:1044200040F281231C4A1D4811F0E6F897F8473006
:104430001946244811F0E0F861E116480DF03BFF01
:10444000014640F28523144A144811F0D5F81E485D
:1044500011F03AF953E10F480DF02DFF014640F2FB
:104460008A230D4A0D4811F0C7F8184811F02CF9AD
:1044700045E108480DF01FFF014640F28E23064A31
:10448000064811F0B9F8124811F01EF937E100BFE3
:1044900020350020847E0108FC9D0108107F010862
:1044A00004820108508201080000F43FDC8001080A
:1044B000887F0108A0820108AC820108DC82010823
:1044C00040E2010004830108388301086083010889
:1044D0008C8301088E480DF0EEFE014640F29223D7
:1044E0008C4A8D4811F088F88C4811F0EDF88C4B0F
:1044F000DB8A18460DF06BF8034687F8473097F8CB
:104500004730002B10D082480DF0D5FE014640F216
:104510009623804A804811F06FF897F84730194683
:10452000804811F069F8EAE079480DF0C4FE0146D0
:1045300040F29A23774A784811F05EF87A4811F0F1
:10454000C3F8DCE072480DF0B6FE014640F29F234E
:10455000704A714811F050F8744811F0B5F8CEE087
:104560006B480DF0A8FE014640F2A323694A6A4851
:1045700011F042F86E4811F0A7F8C0E064480DF061
:104580009AFE014640F2A723624A634811F034F8CC
:10459000684811F099F85E480DF08DFE01464FF421
:1045A0002A735C4A5C4811F027F8FB6B0233D3F89E
:1045B00002301946604811F01FF855480DF07BFE97
:1045C000014640F2AA23534A534811F015F8FB6BF9
:1045D0000233D3F802301946584811F00DF8504B09
:1045E000DB8A012118460DF046F8034687F847306C
:1045F00097F84730002B10D045480DF05CFE01467F
:1046000040F2AF23434A444810F0F6FF97F8473092
:1046100019464B4810F0F0FF71E03D480DF04BFE9D
:10462000014640F2B3233B4A3B4810F0E5FF4548C2
:1046300011F04AF863E0FB6B0233BB6334480DF0C2
:104640003AFE014640F2BB23324A334810F0D4FF11
:104650003D4811F039F8BB6B9B78002B0DD12C48ED
:104660000DF029FE014640F2BE232A4A2A4810F0E6
:10467000C3FF364811F028F812E025480DF01BFE64
:10468000014640F2C223234A234810F0B5FFBB6B1A
:104690009B781946BB6BDB781A462D4810F0ACFFAF
:1046A0001B480DF008FE01464FF43173194A1A48B1
:1046B00010F0A2FF274811F007F820E014480DF091
:1046C000FAFD014640F2CA23124A134810F094FF43
:1046D000214810F0F9FF12E00D480DF0ECFD014605
:1046E00040F2D2230B4A0C4810F086FF1B4810F012
:1046F000EBFF0B4BDB8A18460DF0D0FA00BF01E050
:1047000000BF00E000BF012318464C37BD46F0BD96
:10471000847E0108FC9D0108107F0108C883010800
:1047200020350020F0830108248401084C8401080E
:104730007C840108AC840108E0840108008501083C
:104740001C85010870850108B8850108E485010809
:104750000086010840860108448601087086010829
:1047600080B582B000AF9223FB710CF00CFF0346C2
:10477000FB71FB79002B0FD010480DF09CFD01461A
:104780004FF43E730E4A0F4810F036FFFB7919467E
:104790000D4810F031FF0CE008480DF08CFD01468B
:1047A0004FF43F73064A074810F026FF074810F001
:1047B0008BFF00BF0837BD4680BD00BF847E010867
:1047C000149E0108107F010898860108D086010810
:1047D00080B582B000AF9223FB71154BDB8A18467F
:1047E0000CF0E4FD0346FB71FB79002B0FD0114860
:1047F0000DF061FD01464FF442730F4A0F4810F06F
:10480000FBFEFB7919460E4810F0F6FE0CE0094855
:104810000DF051FD01464FF44373074A074810F06D
:10482000EBFE084810F050FF00BF0837BD4680BDC2
:1048300020350020847E0108309E0108107F010889
:10484000FC8601083487010880B582B000AF064BB2
:104850003B60064B7B603B46194605480DF0DCFD8E
:1048600000BF0837BD4680BD280003205B5100080B
:1048700023510008F0B58DB006AF4FF450733B8064
:104880009223FB75B1480DF016FD014640F22D3321
:10489000AF4AB04810F0B0FEAF4810F015FF0DF071
:1048A000EBFB0346FB75FB7D002B0FD0A7480DF0FB
:1048B00002FD014640F23633A54AA64810F09CFEA0
:1048C000FB7D1946A54810F097FE0CE09F480DF0BF
:1048D000F2FC014640F23A339D4A9E4810F08CFEAD
:1048E0009F4810F0F1FE00F07BFB38613A69062129
:1048F00000200DF0D5FA0346FB75FB7D002B0FD091
:1049000092480DF0D8FC01464FF45173904A9148FB
:1049100010F072FEFB7D1946924810F06DFE35E0F6
:104920008A480DF0C8FC01464FF45273884A894802
:1049300010F062FE8C4810F0C7FE84480DF0BBFCFE
:10494000014640F24933824A824810F055FE3B69E5
:1049500005331B7818463B6904331B781C463B69BA
:1049600003331B781D463B6902331B781A463B69AB
:1049700001331B7819463B691B7802930191009221
:104980002B4622460146794810F036FE3B69053336
:104990001A78774B1A723B6904331A78744B5A723F
:1049A0003B6903331A78724B9A723B6902331A7867
:1049B0006F4BDA723B6901331A786D4B1A733B699E
:1049C0001A786B4B5A736B4A102118200DF068FA55
:1049D0000346FB75FB7D002B0FD05C480DF06BFC94
:1049E000014640F27D335A4A5A4810F005FEFB7DDD
:1049F0001946614810F000FE0CE054480DF05BFCD5
:104A0000014640F28133524A524810F0F5FD5B48AE
:104A100010F05AFE5A4A102108200DF041FA0346C0
:104A2000FB75FB7D002B0FD048480DF044FC014680
:104A300040F28A33464A474810F0DEFDFB7D1946B6
:104A4000504810F0D9FD0CE040480DF034FC014610
:104A500040F28E333E4A3F4810F0CEFD4A4810F0F7
:104A600033FE182101200DF0A0FA0346FB75FB7DF3
:104A7000002B0FD035480DF01EFC014640F2973355
:104A8000334A344810F0B8FDFB7D19463F4810F01A
:104A9000B3FD0CE02D480DF00EFC014640F29B33B7
:104AA0002B4A2C4810F0A8FD394810F00DFE0CF0F0
:104AB00049FE0346FB75FB7D002B0FD023480DF00C
:104AC000FAFB01464FF46973214A224810F094FD25
:104AD000FB7D19462F4810F08FFD0CE01B480DF0B0
:104AE000EAFB01464FF46A73194A1A4810F084FD34
:104AF000294810F0E9FD0023FB73FB7B43F0010321
:104B0000FB73FB7B002B6BD0244BBB60BA1DF87B87
:104B1000BB1C01933B1D00931346072200210CF0A0
:104B200098FB0346FB75FB7D002B3BD007480DF03F
:104B3000C2FB01464FF47273054A064810F05CFD53
:104B4000FB7D1946164810F057FD38E0847E0108B9
:104B50004C9E0108107F01086487010890870108B6
:104B6000C0870108E08701083C880108888801089F
:104B700014000020C49D0108C8880108208901088C
:104B8000D49D010868890108C0890108088A0108C4
:104B9000488A0108788A0108AC8A0108D08A01088D
:104BA000D88A01087E480DF086FB01464FF47373E6
:104BB0007C4A7D4810F020FD7C4810F085FDFC8883
:104BC000BD88B868FBF72CFB0346DAB2BB680093DC
:104BD00013460022294620460CF0B7FF0346FB751A
:104BE000F88879883B460093022300220CF0ADFF41
:104BF0000346FB750222022100200DF0DFFA034676
:104C0000FB75FB7D002B0FD065480DF054FB014672
:104C100040F2EE33634A644810F0EEFCFB7D194627
:104C2000634810F0E9FC0CE05D480DF044FB0146E0
:104C300040F2F2335B4A5C4810F0DEFC5D4810F055
:104C400043FD5D4B01221A705B4B1B7818460CF03C
:104C500081F90346FB75FB7D002B0FD050480DF00A
:104C60002AFB01464FF47F734E4A4F4810F0C4FCB4
:104C7000FB7D1946514810F0BFFC0CE048480DF090
:104C80001AFB01464FF48063464A474810F0B4FCD3
:104C90004B4810F019FD484B01225A70464B082230
:104CA0001A71454B10225A71434B0022DA70424B65
:104CB000444A9A60404B01229A703F4B9C783E4B8D
:104CC0005D783D4B1B793C4A52793B49C9783A485B
:104CD00080680026049603900291019200930023BD
:104CE0000122294620460CF089F90346FB75FB7D1D
:104CF000002B0FD02A480DF0DEFA014640F21B438C
:104D0000284A294810F078FCFB7D19462E4810F0FF
:104D100073FC0CE022480DF0CEFA014640F21F432E
:104D2000204A214810F068FC284810F0CDFC224BA6
:104D30009B78002B23D00CF002FC0346FB75FB7D17
:104D4000002B0FD016480DF0B6FA014640F22A4368
:104D5000144A154810F050FCFB7D19461C4810F011
:104D60004BFC0CE00E480DF0A6FA014640F22E4333
:104D70000C4A0D4810F040FC164810F0A5FC0848FD
:104D80000DF099FA014640F23143064A064810F008
:104D900033FC114810F098FC00BF1C37BD46F0BD35
:104DA000847E01084C9E0108107F01080C8B0108CD
:104DB000308B01086C8B010820350020988B01088E
:104DC000D88B010807B20100088C0108548C010837
:104DD000908C0108D48C0108088D010880B58CB036
:104DE00008AF0346FB719223FB72FB79012B06D1BE
:104DF000694B1B88FB81694B1B88BB8105E04FF425
:104E0000C863FB814FF47A63BB81654B93F88130B3
:104E10001846FDF739FFFB79022B2DD1604B93F833
:104E20008030012B04D05E4B93F88030022B23D1CD
:104E30000BF072FF0346FB72FB7A002B0FD0594830
:104E40000DF039FA014640F25243574A574810F0E4
:104E5000D3FBFB7A1946564810F0CEFB0CE05148C4
:104E60000DF029FA014640F256434F4A4F4810F0E0
:104E7000C3FB504810F028FC494AFB7982F8803087
:104E8000474B1B7EBA89F9890020069000200590C7
:104E9000494804900393494B02930723019300234D
:104EA0000093002300200BF05BFF0346FB72FB7AAC
:104EB000002B0FD03B480DF0FEF9014640F269434C
:104EC000394A3A4810F098FBFB7A19463C4810F0F2
:104ED00093FB0CE033480DF0EEF9014640F26D43D0
:104EE000314A324810F088FB364810F0EDFB364965
:104EF0000E200CF0B2FA0346FB72FB7A002B22D094
:104F0000FB79012B0FD127480DF0D5F9014640F26E
:104F10007643254A254810F06FFBFB7A19462B484B
:104F200010F06AFB35E01F480DF0C5F9014640F26C
:104F30007A431D4A1D4810F05FFBFB7A194624484E
:104F400010F05AFB25E0FB79012B14D115480DF028
:104F5000B2F9014640F28143134A144810F04CFB69
:104F60001C4810F0B1FB0E4B93F881301A491846DB
:104F7000FDF70EFF0DE00B480DF09DF9014640F2E4
:104F80008743094A094810F037FB144810F09CFB8E
:104F900000BF1037BD4680BDA4350020A6350020D7
:104FA00020350020847E0108649E0108107F0108DE
:104FB000348D0108848D010839350020E49D0108F5
:104FC000CC8D0108048E010814000020308E0108E9
:104FD000688E0108A48E010846E00100D08E010809
:104FE00080B586B000AFFEF7D1FD38613B69B3F103
:104FF000FF3F23D0FEF7E2FDB860FEF7D3FD7860F7
:105000003B69DAB2164B1A703B691B0ADAB2144BD1
:105010005A707B68DAB2124B9A70BB68DAB2104BE6
:10502000DA70BB681B0ADAB20D4B1A71BB681B0C35
:10503000DAB20B4B5A710A4B7B610BE000200DF08A
:10504000A5FEF860FB68002B02D0FB687B6101E0E5
:10505000044B7B617B6918461837BD4680BD00BF95
:1050600018350020BC9D010880B483B000AF034612
:10507000FB80124B1B7E1946FB88DAB20F4B0B44A8
:105080005A760E4B1B7E0133DAB20C4B1A76FB8834
:105090001B0A9AB2094B1B7E1946D2B2074B0B442E
:1050A0005A76064B1B7E0133DAB2044B1A7600BFE8
:1050B0000C37BD465DF8047B704700BF20350020EB
:1050C00080B500AF002101200FF0C2FB00BF80BD02
:1050D00080B500AF0220FFF781FE00BF80BD80B524
:1050E00082B000AF7860002104200FF0B1FB00BF58
:1050F0000837BD4680BD80B582B000AF7860012022
:105100000FF012FC00BF0837BD4680BD80B582B0ED
:1051100000AF786001200FF027FC00BF0837BD46C4
:1051200080BD80B584B000AF78607B68FB60FB68B1
:105130005B68083318460EF053FC0346FB72FB7A9B
:10514000002B03D0FB6801221A7003E0FB680022E9
:105150001A7000BF1037BD4680BD80B584B000AF67
:105160000346FB71FB79002B02D0012B06D00BE02C
:105170007F23FB60F8680FF097FB05E07F23FB605F
:10518000F8680FF0B1FB00BF00BF1037BD4680BD0F
:1051900080B582B000AF074B3B6004233B713B46B8
:1051A000194642F629200DF011F900BF0837BD4617
:1051B00080BD00BF008F010880B582B000AF78606D
:1051C0007B681B78022B1AD0022B1EDC002B02D02E
:1051D000012B07D019E00F4B00229A800D4B0122C2
:1051E0001A7313E00B4B5B7B1846FDF74DFD094B23
:1051F0005B7B40F601011846FDF7CAFD06E0054B52
:105200005B7B1846FDF740FD00E000BF00BF08379C
:10521000BD4680BDA835002080B400AF054BDB68DB
:10522000044A43F40043D36000BFBD465DF8047BED
:10523000704700BF0004005880B483B000AF7860AE
:10524000064BD3F8D42005497B681343C1F8D4300A
:1052500000BF0C37BD465DF8047B7047000800585E
:1052600080B483B000AF7860054B1A6A04497B684C
:1052700013430B6200BF0C37BD465DF8047B7047DB
:105280000008005880B485B000AF78604FF0B0439C
:105290001A6D4FF0B0417B6813430B654FF0B0437C
:1052A0001A6D7B681340FB60FB6800BF1437BD4676
:1052B0005DF8047B704780B485B000AF78604FF034
:1052C000B043D3F850214FF0B0417B681343C1F88D
:1052D00050314FF0B043D3F850217B681340FB604E
:1052E000FB6800BF1437BD465DF8047B704780B48F
:1052F00083B000AF78607B681B6843F480327B68C2
:105300001A6000BF0C37BD465DF8047B704780B45F
:1053100083B000AF78607B681B6843F001027B6854
:105320001A6000BF0C37BD465DF8047B704780B43F
:1053300083B000AF786039607B685A683B681B04B3
:10534000DB431A407B685A6000BF0C37BD465DF8EE
:10535000047B704780B483B000AF786039607B68AD
:105360005A683B681B041A437B685A6000BF0C37BD
:10537000BD465DF8047B704780B483B000AF7860B1
:1053800039607B685A683B68DB431A407B685A6027
:1053900000BF0C37BD465DF8047B704780B483B016
:1053A00000AF786039607B683A689A6000BF0C375C
:1053B000BD465DF8047B704780B483B000AF786071
:1053C00039603B681A047B689A6000BF0C37BD46A1
:1053D0005DF8047B704780B483B000AF78603960BB
:1053E0007B68DA683B6813403A689A4201D101232E
:1053F00000E0002318460C37BD465DF8047B70477B
:1054000080B483B000AF786039607B68DA693B684C
:1054100013403A689A4201D1012300E00023184664
:105420000C37BD465DF8047B7047000080B500AFC7
:1054300002211848FFF7E4FF0346002B08D0154B64
:105440005B6803F00203002B02D100F0D5F81EE0E8
:1054500001211048FFF7D4FF0346002B08D00D4B65
:105460005B6803F00103002B02D100F089F80EE025
:1054700008210848FFF7C4FF0346002B08D0054B5E
:105480005B6803F00803002B02D100F001F900BFB4
:1054900000BF80BD000C005880B500AF0221184845
:1054A000FFF799FF0346002B08D1154B5B6803F407
:1054B0000033002B02D100F093F81EE008211048C1
:1054C000FFF789FF0346002B08D10D4B5B6803F4FF
:1054D0000023002B02D100F0BDF80EE02021084887
:1054E000FFF779FF0346002B08D1054B5B6803F4F7
:1054F0000013002B02D100F04FF800BF00BF80BDA9
:10550000000C005880B500AF4FF48010FFF7D3FEB9
:105510004FF40070FFF7A4FE4FF40070FFF78CFE0D
:1055200040BF20BFFFF778FE00BF80BD80B500AF51
:105530004FF48010FFF7A6FE0648FFF7E8FE054887
:10554000FFF7D5FE2C2005F04AFB2D2005F047FB88
:1055500000BF80BD000C005880B500AF012102489B
:10556000FFF70AFF00BF80BD000C005880B500AFF8
:1055700001210248FFF720FF00BF80BD000C00584A
:1055800080B500AF0EF010FB01210248FFF706FFC7
:1055900000BF80BD000C005880B500AF202103483B
:1055A000FFF7D8FE0EF030FB00BF80BD000C0058A6
:1055B00080B500AF02210248FFF7DEFE00BF80BDCC
:1055C000000C005880B500AF02210448FFF7F4FE3C
:1055D00002210248FFF7ABFE00BF80BD000C00585F
:1055E00080B500AF02210348FFF7B4FE0EF05CFB6C
:1055F00000BF80BD000C005880B500AF0EF06AFB04
:1056000002210248FFF7CAFE00BF80BD000C00580F
:1056100080B582B000AF786008210C48FFF7DBFE50
:105620000346002B07D00A4A7B681360082107480D
:10563000FFF77DFE06E07B68984708210348FFF7E7
:10564000BBFE00BF0837BD4680BD00BF000C005840
:10565000B835002080B500AF08210648FFF77AFE74
:10566000054B1B68984708210248FFF7A5FE00BFBD
:1056700080BD00BF000C0058B835002080B500AFD9
:1056800008210248FFF778FE00BF80BD000C0058DB
:1056900080B500AF0EF0C6FB08210248FFF77EFE82
:1056A00000BF80BD000C005880B582B000AF03463B
:1056B000FB71F91D4FF47A730122034809F007F8D2
:1056C00000BF0837BD4680BD1434002080B485B0CB
:1056D00000AFF860084611461A4603467B810B4628
:1056E0003B811346FB80234B00221A60214AFB6852
:1056F0001360204A7B8913811E4A3B8953811D4ACE
:105700003B8B93811B4B0222DA827B8903F00703D8
:105710009BB2002B03D17B89DB089BB204E07B8921
:10572000DB089BB201339BB2124A5382114A3B8978
:105730009382104AFB88D3810E4B00221A82FB8889
:10574000002B02D0FB88B42B06D10A4A7B899380B8
:10575000084A3B89D38006E0064A3B899380054A84
:105760007B89D38000BF00BF1437BD465DF8047B42
:10577000704700BFBC35002080B483B000AF7860B4
:10578000044A7B68136000BF0C37BD465DF8047B9C
:10579000704700BFBC35002080B58AB000AF03461B
:1057A000FB800B46BB8013467B809F4B9B88FA880F
:1057B0009A4204D89C4BDB88BA889A4203D99B480A
:1057C0000FF082FF2DE1984BDB89B3F5877F2BD05B
:1057D000B3F5877F00F32281B42B16D0B42B00F3EE
:1057E0001D81002B02D05A2B05D017E1FB88FB84CA
:1057F000BB88BB8422E08C4B1A89BB88D31A9BB22E
:10580000013BFB84FB88BB8418E0874B1A89FB882B
:10581000D31A9BB2013BFB84834B5A89BB88D31AB2
:105820009BB2013BBB8409E0BB88FB847E4B5A8959
:10583000FB88D31A9BB2013BBB8400BF7A4B1B8A07
:10584000032B00F2ED8001A252F823F09B580008D0
:105850005D5800086D5800087D580008724B1A8981
:10586000FB8CD31A9BB2013BFB8417E06E4B5A8929
:10587000BB8CD31A9BB2013BBB840FE06A4B1A89E5
:10588000FB8CD31A9BB2013BFB84674B5A89BB8CC0
:10589000D31A9BB2013BBB8400E000BF624B1B8963
:1058A000FA8C9A4204D8604B5B89BA8C9A4203D92D
:1058B0005E480FF009FFB4E05B4BDB8A022B39D165
:1058C000FB8CDB089BB21946BB8C574A528A02FB01
:1058D00003F30B443B61544B1A683B6913441B7838
:1058E000FB737B88002B13D1FB8C03F00703802212
:1058F00042FA03F35BB2DB435AB297F90F3013401D
:1059000059B2494B1A683B691344CAB21A7088E00D
:10591000FB8C03F00703802242FA03F35AB297F993
:105920000F30134359B2404B1A683B691344CAB253
:105930001A7076E03C4BDB8A042B37D1FB8C9B083A
:105940009BB21946BB8C384A528A02FB03F30B44C4
:10595000BB617B8803F003037B80334B1A68BB6910
:1059600013441B78FB75FB8C03F003035B00C02220
:1059700042FA03F35BB2DB435AB297F91730134094
:105980005BB2FB757B889A01FB8C03F003035B0021
:1059900042FA03F35AB297F91730134359B2224B24
:1059A0001A68BB691344CAB21A703AE01E4BDB8A0C
:1059B000072B36D1FB8C5B089BB21946BB8C1A4A6D
:1059C000528A02FB03F30B443B62174B1A683B6A93
:1059D00013441B78FB77FB8C03F001039B00F02240
:1059E00042FA03F35BB2DB435AB297F91F3013401C
:1059F0005BB2FB777B881A01FB8C03F001039B00F1
:105A000042FA03F35AB297F91F30134359B2064BC7
:105A10001A683B6A1344CAB21A7002E000BF00E081
:105A200000BF2837BD4680BDBC3500202C90010842
:105A300080B489B000AF0346FB804C4BDB8A022B5D
:105A400025D10023FB831CE00023BB8311E0BA8B2C
:105A5000FB8B4649498A01FB03F31344BB60434B6C
:105A60001A68BB681344FA88D2B21A70BB8B013330
:105A7000BB833E4B5B8ABA8B9A42E8D3FB8B0133E4
:105A8000FB833A4B9B8AFA8B9A42DDD368E0374B13
:105A9000DB8A042B35D100237B832CE000233B835E
:105AA00021E03A8B7B8B3149498A01FB03F3134494
:105AB000FB60FB889B015AB2FB881B015BB213435E
:105AC0005AB2FB889B005BB213435AB2FB885BB2AD
:105AD000134359B2254B1A68FB681344CAB21A70B3
