:020000040800F2
:1000000000000320610E0008D1220008D922000858
:10001000E1220008E9220008F122000800000000A7
:10002000000000000000000000000000F9220008AD
:100030000723000800000000152300082323000800
:10004000B50E0008B50E0008B50E0008A92300087B
:10005000B50E0008B50E0008B50E0008C123000853
:10006000CF230008DD230008EB230008B50E0008AD
:10007000B50E0008B50E0008B50E0008B50E000854
:10008000B50E0008B50E0008B50E0008B50E000844
:10009000B50E0008B50E0008B50E0008F9230008DB
:1000A000B50E000831230008B5230008B50E00087E
:1000B000B50E0008B50E0008B50E0008B50E000814
:1000C000B50E0008B50E0008B50E0008B50E000804
:1000D00045230008B50E0008B50E0008B50E00084F
:1000E00091230008B50E0008B50E0008B50E0008F3
:1000F000792300088523000859230008B50E00085D
:10010000B50E0008B50E0008B50E0008B50E0008C3
:10011000B50E0008B50E0008B50E0008B50E0008B3
:10012000B50E0008B50E000865230008B50E0008DE
:0C013000B50E0008B50E0008B50E000862
:1001400010B5054C237833B9044B13B10448AFF311
:1001500000800123237010BDF80100200000000082
:10016000D0B7000808B5034B1BB103490348AFF3F0
:10017000008008BD00000000FC010020D0B700088E
:1001800001F0FF01102A2BDB10F0070F08D010F848
:10019000013B013A8B422DD010F0070F42B3F6D14C
:1001A000F0B441EA012141EA014122F007047FF065
:1001B00000070023F0E80256083C85EA010586EABC
:1001C000010685FA47F5A3FA87F586FA47F6A5FAF8
:1001D00087F68EB9EED1F0BC01F0FF0102F0070204
:1001E00032B110F8013B013A83EA010313B1F8D1AF
:1001F0000020704701387047002D06BF3546033890
:10020000073815F0010F07D1013015F4807F02BFC8
:10021000013015F4C03F0130F0BC0138704700BF19
:10022000034613F8012B002AFBD1181A0138704736
:1002300081F0004102E000BF83F0004330B54FEA97
:1002400041044FEA430594EA050F08BF90EA020F04
:100250001FBF54EA000C55EA020C7FEA645C7FEA97
:10026000655C00F0E2804FEA5454D4EB5555B8BFBA
:100270006D420CDD2C4480EA020281EA030382EA2B
:10028000000083EA010180EA020281EA0303362DBD
:1002900088BF30BD11F0004F4FEA01314FF4801C90
:1002A0004CEA113102D0404261EB410113F0004FA2
:1002B0004FEA03334CEA133302D0524263EB430359
:1002C00094EA050F00F0A780A4F10104D5F1200EF7
:1002D0000DDB02FA0EFC22FA05F2801841F1000152
:1002E00003FA0EF2801843FA05F359410EE0A5F126
:1002F00020050EF1200E012A03FA0EFC28BF4CF057
:10030000020C43FA05F3C01851EBE37101F000450C
:1003100007D54FF0000EDCF1000C7EEB00006EEB19
:100320000101B1F5801F1BD3B1F5001F0CD34908A3
:100330005FEA30004FEA3C0C04F101044FEA4452FA
:1003400012F5800F80F09A80BCF1004F08BF5FEA81
:10035000500C50F1000041EB045141EA050130BD61
:100360005FEA4C0C404141EB0101013C28BFB1F573
:10037000801FE9D291F0000F04BF01460020B1FABE
:1003800081F308BF2033A3F10B03B3F120020CDA91
:100390000C3208DD02F1140CC2F10C0201FA0CF06F
:1003A00021FA02F10CE002F11402D8BFC2F1200CD4
:1003B00001FA02F120FA0CFCDCBF41EA0C0190408A
:1003C000E41AA2BF01EB0451294330BD6FEA0404D3
:1003D0001F3C1CDA0C340EDC04F11404C4F12002BE
:1003E00020FA04F001FA02F340EA030021FA04F3D0
:1003F00045EA030130BDC4F10C04C4F1200220FA27
:1004000002F001FA04F340EA0300294630BD21FA64
:1004100004F0294630BD94F0000F83F4801306BF2A
:1004200081F480110134013D4EE77FEA645C18BF1E
:100430007FEA655C29D094EA050F08BF90EA020FB5
:1004400005D054EA000C04BF1946104630BD91EAAD
:10045000030F1EBF0021002030BD5FEA545C05D1B0
:100460004000494128BF41F0004130BD14F58004EF
:100470003CBF01F5801130BD01F0004545F0FE4163
:1004800041F470014FF0000030BD7FEA645C1ABF98
:10049000194610467FEA655C1CBF0B46024650EACF
:1004A000013406BF52EA033591EA030F41F40021FB
:1004B00030BD00BF90F0000F04BF0021704730B581
:1004C0004FF4806404F132044FF000054FF0000156
:1004D00050E700BF90F0000F04BF0021704730B517
:1004E0004FF4806404F1320410F0004548BF4042EC
:1004F0004FF000013EE700BF42004FEAE2014FEA41
:1005000031014FEA02701FBF12F07F4393F07F4F1B
:1005100081F06051704732F07F4208BF704793F01E
:100520007F4F04BF41F40021704730B54FF4607431
:1005300001F0004521F000411CE700BF50EA010234
:1005400008BF704730B54FF000050AE050EA0102DD
:1005500008BF704730B511F0004502D5404261EB4D
:1005600041014FF4806404F132045FEA915C3FF48E
:10057000D8AE4FF003025FEADC0C18BF03325FEA2B
:10058000DC0C18BF033202EBDC02C2F1200300FADC
:1005900003FC20FA02F001FA03FE40EA0E0021FA01
:1005A00002F11444BDE600BF70B54FF0FF0C4CF4EF
:1005B000E06C1CEA11541DBF1CEA135594EA0C0FA1
:1005C00095EA0C0F00F0DEF82C4481EA030621EADC
:1005D0004C5123EA4C5350EA013518BF52EA033517
:1005E00041F4801143F4801338D0A0FB02CE4FF0C9
:1005F0000005E1FB02E506F00042E0FB03E54FF0F9
:100600000006E1FB03569CF0000F18BF4EF0010EF0
:10061000A4F1FF04B6F5007F64F5407404D25FEAEC
:100620004E0E6D4146EB060642EAC62141EA55519F
:100630004FEAC52040EA5E504FEACE2EB4F1FD0CE1
:1006400088BFBCF5E06F1ED8BEF1004F08BF5FEA5F
:10065000500E50F1000041EB045170BD06F0004611
:1006600046EA010140EA020081EA0301B4EB5C04BE
:10067000C2BFD4EB0C0541EA045170BD41F48011B6
:100680004FF0000E013C00F3AB8014F1360FDEBFDB
:10069000002001F0004170BDC4F10004203C35DAB7
:1006A0000C341BDC04F11404C4F1200500FA05F33A
:1006B00020FA04F001FA05F240EA020001F00042DB
:1006C00021F0004110EBD37021FA04F642EB060151
:1006D0005EEA430E08BF20EAD37070BDC4F10C047B
:1006E000C4F1200500FA04F320FA05F001FA04F23F
:1006F00040EA020001F0004110EBD37041F100012B
:100700005EEA430E08BF20EAD37070BDC4F1200535
:1007100000FA05F24EEA020E20FA04F301FA05F29D
:1007200043EA020321FA04F001F0004121FA04F245
:1007300020EA020000EBD3705EEA430E08BF20EA15
:10074000D37070BD94F0000F0FD101F0004640004F
:1007500041EB010111F4801F08BF013CF7D041EAD1
:10076000060195F0000F18BF704703F000465200D5
:1007700043EB030313F4801F08BF013DF7D043EAA6
:100780000603704794EA0C0F0CEA135518BF95EA5C
:100790000C0F0CD050EA410618BF52EA4306D1D1E3
:1007A00081EA030101F000414FF0000070BD50EA02
:1007B000410606BF1046194652EA430619D094EA8C
:1007C0000C0F02D150EA013613D195EA0C0F05D176
:1007D00052EA03361CBF104619460AD181EA0301CA
:1007E00001F0004141F0FE4141F470014FF0000082
:1007F00070BD41F0FE4141F4780170BD70B54FF01D
:10080000FF0C4CF4E06C1CEA11541DBF1CEA13559C
:1008100094EA0C0F95EA0C0F00F0A7F8A4EB05047E
:1008200081EA030E52EA03354FEA013100F0888075
:100830004FEA03334FF0805545EA131343EA12633E
:100840004FEA022245EA111545EA10654FEA0026F3
:100850000EF000419D4208BF964244F1FD0404F5AC
:10086000407402D25B084FEA3202B61A65EB030508
:100870005B084FEA32024FF480104FF4002CB6EBC5
:10088000020E75EB030E22BFB61A754640EA0C0045
:100890005B084FEA3202B6EB020E75EB030E22BF85
:1008A000B61A754640EA5C005B084FEA3202B6EBC6
:1008B000020E75EB030E22BFB61A754640EA9C0085
:1008C0005B084FEA3202B6EB020E75EB030E22BF55
:1008D000B61A754640EADC0055EA060E18D04FEA13
:1008E000051545EA16754FEA06164FEAC30343EAB3
:1008F00052734FEAC2025FEA1C1CC0D111F4801F80
:100900000BD141EA00014FF000004FF0004CB6E778
:1009100011F4801F04BF01430020B4F1FD0C88BF17
:10092000BCF5E06F3FF6AFAEB5EB030C04BFB6EB22
:10093000020C5FEA500C50F1000041EB045170BD15
:100940000EF0004E4EEA113114EB5C04C2BFD4EB42
:100950000C0541EA045170BD41F480114FF0000EC6
:10096000013C90E645EA060E8DE60CEA135594EA42
:100970000C0F08BF95EA0C0F3FF43BAF94EA0C0F45
:100980000AD150EA01347FF434AF95EA0C0F7FF4BA
:1009900025AF104619462CE795EA0C0F06D152EA0E
:1009A00003353FF4FDAE1046194622E750EA4106F2
:1009B00018BF52EA43067FF4C5AE50EA41047FF403
:1009C0000DAF52EA43057FF4EBAE12E74FF0FF3C68
:1009D00006E000BF4FF0010C02E000BF4FF0010C39
:1009E0004DF804CD4FEA410C7FEA6C5C4FEA430CB2
:1009F00018BF7FEA6C5C1BD001B050EA410C0CBF01
:100A000052EA430C91EA030F02BF90EA020F002062
:100A1000704710F1000F91EA030F58BF994208BFC9
:100A200090422CBFD8176FEAE37040F00100704786
:100A30004FEA410C7FEA6C5C02D150EA013C07D1DD
:100A40004FEA430C7FEA6C5CD6D152EA033CD3D028
:100A50005DF8040B704700BF8446104662468C4622
:100A60001946634600E000BF01B5FFF7B7FF002855
:100A700048BF10F1000F01BD4DF808EDFFF7F4FF7E
:100A80000CBF012000205DF808FB00BF4DF808ED09
:100A9000FFF7EAFF34BF012000205DF808FB00BF2C
:100AA0004DF808EDFFF7E0FF94BF012000205DF84E
:100AB00008FB00BF4DF808EDFFF7CEFF94BF012003
:100AC00000205DF808FB00BF4DF808EDFFF7C4FFFC
:100AD00034BF012000205DF808FB00BF4FEA410C45
:100AE0007FEA6C5C02D150EA013C0AD14FEA430C28
:100AF0007FEA6C5C02D152EA033C02D14FF0000065
:100B000070474FF0010070474FEA410212F50012A2
:100B100015D211D56FF47873B3EB625212D94FEA44
:100B2000C12343F0004343EA505311F0004F23FA2E
:100B300002F018BF404270474FF00000704750EA83
:100B4000013005D111F0004008BF6FF00040704740
:100B50004FF00000704700BF53B94AB9002908BFE1
:100B600000281CBF4FF0FF314FF0FF3000F06AB992
:100B7000ADF1080C6DE904CE00F006F8DDF804E0F4
:100B8000DDE9022304B070472DE9F047089D0C46CB
:100B9000002B4ED194468C458646B2FA82F262D939
:100BA0004AB1C2F12003914020FA03F30CFA02FC8F
:100BB000194300FA02FE4FEA1C471FFA8CF6B1FBFC
:100BC000F7F44FEA1E4307FB141143EA014304FB09
:100BD00006F199420AD91CEB030304F1FF3080F0BF
:100BE0001281994240F20F81023C6344591A1FFA64
:100BF0008EF3B1FBF7F007FB101143EA014300FB52
:100C000006F69E420AD91CEB030300F1FF3180F087
:100C1000FC809E4240F2F980634402389B1B40EA0C
:100C2000044000211DB1D3400022C5E90032BDE8D7
:100C3000F0878B4205D90DB1C5E9000100210846B6
:100C4000F5E7B3FA83F1002946D1A34202D39042DB
:100C5000C0F0F080861A64EB03030120002DE6D07B
:100C6000C5E90063E3E7002A40F09080A1EB0C04A3
:100C70004FEA1C481FFA8CF70121B4FBF8F64FEA43
:100C80001E4308FB164443EA044307FB06F0984260
:100C900008D91CEB030306F1FF3402D2984200F29C
:100CA000CD8026461C1A1FFA8EF3B4FBF8F008FB21
:100CB000104443EA044300FB07F79F4208D91CEBAA
:100CC000030300F1FF3402D29F4200F2B0802046BD
:100CD000DB1B40EA0640A5E7C1F120068B4022FA63
:100CE00006F71F4320FA06FC04FA01F343EA0C035B
:100CF000F44000FA01F8380C4FEA1349B4FBF0FE57
:100D00001FFA87FC00FB1E4449EA04440EFB0CF961
:100D1000A14502FA01F20AD93C190EF1FF3A80F01E
:100D20008480A14540F28180AEF1020E3C44A4EBE8
:100D300009041FFA83F9B4FBF0F300FB134449EAFA
:100D4000044403FB0CFCA44507D93C1903F1FF3014
:100D500067D2A44565D9023B3C4443EA0E40A0FB60
:100D60000293A4EB0C049C42CE469C4651D34ED039
:100D700055B1B8EB0E0364EB0C0404FA06F6CB4055
:100D80001E43CC40C5E90064002150E7C2F12003B6
:100D900020FA03F10CFA02FC24FA03F394400C430A
:100DA0004FEA1C4800FA02FE1FFA8CF7B3FBF8F07A
:100DB00008FB1031230C43EA014300FB07F1994281
:100DC00008D91CEB030300F1FF362CD299422AD933
:100DD000023863445B1AA4B2B3FBF8F108FB113389
:100DE00044EA034401FB07F3A34208D91CEB0404C3
:100DF00001F1FF3613D2A34211D902396444E41A37
:100E000041EA004139E70446F0E6084606E7C845EE
:100E1000AED2B9EB020E63EB070C0138A8E73146FE
:100E2000EDE7034699E73046D4E7D6467FE76344CB
:100E300002384DE70646234608460FE7023E634464
:100E400030E700BF704700BFD458C4500433C41803
:100E50008C42F9D37047036004308842FBD370475B
:100E60000C48854602F062F90B480C490C4A0023F5
:100E7000FFF7EDFF0B480C490023FFF7EEFF0B488F
:100E80000B490023FFF7E9FF08F024FF00F064FEA0
:100E9000FEE700000000032008000020E40100201D
:100EA00070CD0008F801002004090020D8000320BC
:100EB000D8000320FEE7000080B483B000AF786064
:100EC0004FF0B0430A4AC3F89C204FF0B043D3F828
:100ED0009C3023F47C527B681B024FF0B0411343DB
:100EE000C1F89C3000BF0C37BD465DF8047B7047ED
:100EF000FECAFECA80B500AF044B4FF400421A612F
:100F000000F006F800F00BF800BF80BD004000586C
:100F100080B400AF00BFBD465DF8047B704780B56C
:100F200082B000AF002007F037FA78607B68002BB2
:100F300005D07B689B791846FFF7BEFF00BF00BF56
:100F40000837BD4680BD80B400AF00BFBD465DF828
:100F5000047B704780B582B000AF786039604FF095
:100F6000FF3007F0B5FD00BF0837BD4680BD00006B
:100F700080B582B000AF0346FB80FB88B3F5005F0D
:100F80001FD0B3F5005F1FDC102B0EDC022B1BDB28
:100F90001A46104BD34003F00103002B14BF01236A
:100FA0000023DBB2002B04D10EE0B3F5805F05D047
:100FB0000AE0FB88184602F067F806E001F0CEFA76
:100FC00003E001F003FB00E000BF00BF0837BD46AF
:100FD00080BD00BF1401010080B582B000AF0346A0
:100FE000FB71FB79002B05D001220121064802F09C
:100FF0000FFF04E000220121034802F009FF00BFB7
:101000000837BD4680BD00BF001C004880B483B0D7
:1010100000AF0D4B9B6A9BB27B600B4B9B6A9BB2F4
:101020003B6005E03B687B60074B9B6A9BB23B6083
:101030007A683B689A42F5D13B6818460C37BD4642
:101040005DF8047B704700BF0028004080B485B085
:1010500000AF03460A46FB711346BB71BA791D49BE
:1010600013465B001344DB000B4415331B78FB7302
:10107000FB7B062B09D0FA7B164913465B00134411
:10108000DB000B441433FA791A70FA7911491346CC
:101090005B001344DB000B441533FA7B1A70FA79BA
:1010A0000C4913465B001344DB000B441433BA793C
:1010B0001A70BA79074913465B001344DB000B44EE
:1010C0001533FA791A7000BF1437BD465DF8047BFA
:1010D000704700BF1402002080B485B000AF034603
:1010E0000A46FB711346BB71294B1B78DBB2BA79F8
:1010F0009A4232D0BA79274913465B001344DB0089
:101100000B4414331B78FB73FA7B224913465B00B4
:101110001344DB000B441533FA791A70FA791D4930
:1011200013465B001344DB000B441533BA791A7085
:10113000FA79184913465B001344DB000B4414335F
:10114000FA7B1A70BA79134913465B001344DB002B
:101150000B441433FA791A7014E0FA790D491346E6
:101160005B001344DB000B441533BA791A70BA796B
:10117000084913465B001344DB000B441433FA792F
:101180001A7000BF1437BD465DF8047B704700BF7E
:10119000A40200201402002080B584B000AF0346F2
:1011A000FB714E4B1B78DBB2062B18D14B4B1B78D7
:1011B000DAB24B4B1A70494AFB791370FA794949F4
:1011C00013465B001344DB000B44153306221A70F0
:1011D000454B4FF0FF321A600023FB8178E000F0AE
:1011E00009F90346FB81FA793E4913465B00134433
:1011F000DB000B4408331968FB89FA791944394834
:1012000013465B001344DB00034408331960FA798A
:10121000344913465B001344DB000B4408331B685E
:10122000BB602E4B1B78DBB219462E4A0B465B0087
:101230000B44DB00134408331B68BA689A4237D367
:10124000264B1B787B737A7B264913465B0013443D
:10125000DB000B4415331B783B7313E07A7B214989
:1012600013465B001344DB000B4415331B787B7380
:101270007A7B1C4913465B001344DB000B44153397
:101280001B783B733B7B062B0BD03A7B15491346EF
:101290005B001344DB000B4408331B68BA689A42B6
:1012A000DCD27A7BFB7911461846FFF7CFFE0FE0C0
:1012B0000A4B1B78DAB2FB7911461846FFF70CFF90
:1012C000064B1B78DAB2064B1A70044AFB7913708E
:1012D000FB8918461037BD4680BD00BFA402002020
:1012E000A502002014020020A802002080B485B0CE
:1012F00000AF03460A46FB711346BB71394B1B789E
:10130000DBB2FA799A4211D1364B1B78DAB2364BFE
:101310001A70FA79354913465B001344DB000B441D
:1013200015331B78DAB22F4B1A703EE0FA792F4949
:1013300013465B001344DB000B4414331B78FB7330
:10134000FA792A4913465B001344DB000B4415333A
:101350001B78BB73F979FA7B24480B465B000B447E
:10136000DB00034415331B78D8B2204913465B00D9
:101370001344DB000B44153302461A70BB7B062B6B
:1013800013D0F979BA7B19480B465B000B44DB009C
:10139000034414331B78D8B2144913465B0013443A
:1013A000DB000B44143302461A70FA790F491346D6
:1013B0005B001344DB000B440C3301221A70094B11
:1013C0001B78DBB2062B07D1BB79002B04D1084B6D
:1013D0004FF0FF321A6000BF00BF1437BD465DF802
:1013E000047B7047A4020020A50200201402002004
:1013F000A802002080B582B000AF1A4B1B68B3F181
:10140000FF3F26D0FFF702FE7860164B1B687A6814
:101410009A4205D8134B1A687B68D31A7B600AE09E
:10142000114B1B881A467B68D31A3B600D4B1B6817
:101430003A6813447B600D4B1B781A467B6802FBAD
:1014400003F37B600A4B1B781A467B68D3407B60B2
:1014500001E000237B607B689BB218460837BD46DD
:1014600080BD00BFA8020020B0020020AE02002014
:10147000AD02002080B582B000AF0346FB80FB8840
:10148000002B08D1FFF7C2FD0346214A1360032059
:1014900002F09FF839E0FB88012B03D81D4B1B7825
:1014A000012B02D0FB88013BFB8000BF1A4B1B685D
:1014B000DB6803F00403002BF8D0174B1B68DB68D4
:1014C000DAB2154B1B6862F49062DA60134B4FF48A
:1014D0000022DA60032002F08AF8114B5B691B0CD2
:1014E0001B04FA880E4913434B61FFF78FFD034637
:1014F000074A1360084B1B689A68074B1B6842F445
:1015000080629A60AFF3008000BF0837BD4680BD9F
:10151000A8020020AD020020F402002000080058BC
:101520000028004080B584B000AF454B9B6803F4B1
:101530008063B3F5806F07D100BF424B1B68DB6847
:1015400003F00403002BF8D13E4B1B689A683D4B17
:101550001B6822F480629A603B4B1B78FB73FA7B1A
:101560003A4913465B001344DB000B4408331B6805
:10157000BB60FFF73FFF0346FB80FB88BA689A42D7
:1015800005D20023BB81324B01221A704DE0FB884B
:10159000304A128892B213441A46BB68934206D965
:1015A0002C4B1B88BB812A4B00221A703DE0BB6884
:1015B0009AB2FB88D31ABB81254B01221A7034E002
:1015C000FA7B224913465B001344DB000B440833CB
:1015D0001A68FB889A420AD2FA7B1C4913465B00C0
:1015E0001344DB000B44083300221A6013E0FA7B3B
:1015F000164913465B001344DB000B44083319689B
:10160000FB88FA7BC91A114813465B001344DB00C0
:10161000034408331960FA7B0C4913465B001344FA
:10162000DB000B4415331B78FB73FB7B062BC7D108
:10163000BB891846FFF71EFF00BF1037BD4680BDAF
:1016400000280040F4020020A40200201402002020
:10165000AC020020B202002080B58AB000AFEFF3E8
:1016600010837B617B697B6272B600BF594B1B683C
:10167000CA225A62574B1B6853225A62554B1B6849
:101680009A68544B1B6822F480629A60524B1B7814
:1016900087F8233097F82320504913465B00134402
:1016A000DB000B440C331B78DBB2022B6ED197F8B6
:1016B00023204A4913465B001344DB000B441B689C
:1016C000FB6197F82320454913465B001344DB0078
:1016D0000B4410331B68BB61414B1B78DBB2002B02
:1016E0004CD097F823203D4913465B001344DB00A0
:1016F0000B440D331B78DBB2012B24D197F8233038
:1017000001211846FFF7F2FD7B6A3B613B6983F3D9
:10171000108800BF97F82320304913465B0013441C
:10172000DB000B4404331A6897F82330114618463F
:1017300000F0DEF8274B1B68CA225A62254B1B6853
:1017400053225A6212E07B6AFB60FB6883F31088C5
:1017500000BF97F82330184600F046F81D4B1B6871
:10176000CA225A621B4B1B6853225A6297F82330D5
:10177000FA691946B86900F041F922E0FFF7D2FE94
:101780007B6ABB60BB6883F310881AE000BF114B13
:101790001B68DB6803F00403002BF8D00D4B1B68BB
:1017A000DB68DAB20B4B1B6862F49062DA600D4BB7
:1017B0004FF40022DA607B6A7B607B6883F31088D9
:1017C00000BF044B1B68FF225A6200BF2837BD468A
:1017D00080BD00BFF4020020A402002014020020FB
:1017E000AC0200200008005880B586B000AF034668
:1017F000FB71EFF31083FB60FB687B6172B600BF87
:10180000032001F0CCFE344B1B68CA225A62324BD3
:101810001B6853225A62FA79304913465B0013441D
:10182000DB000B440C331B78DBB2022B42D1FB797B
:1018300000211846FFF75AFD294B1B78FB74FB7CEF
:10184000062B2FD1274B9B6803F48063B3F5806F81
:1018500007D100BF204B1B68DB6803F00403002B9B
:10186000F8D11D4B1B689A681B4B1B6822F48062E1
:101870009A6000BF184B1B68DB6803F00403002B61
:10188000F8D0154B1B68DB68DAB2134B1B6862F4A7
:101890009062DA60144B4FF40022DA60032001F00A
:1018A000A6FE07E0114B1B78DBB2FA7C9A4201D00E
:1018B000FFF738FE084B1B68FF225A62032001F035
:1018C00060FE7B69BB60BB6883F3108800BF00BF0C
:1018D0001837BD4680BD00BFF4020020140200206E
:1018E000A40200200028004000080058A5020020A3
:1018F00080B586B000AF03463960FB71FA793B4989
:1019000013465B001344DB000B440C331B78DBB243
:10191000022B03D1FB791846FFF766FFEFF3108324
:10192000FB60FB687B6172B600BF032001F037FEED
:101930002F4B1B68CA225A622D4B1B6853225A62D6
:10194000FA792A4913465B001344DB000B440C333D
:1019500002221A70FA79254913465B001344DB0012
:101960000B4408333A681A60FA79204913465B0041
:101970001344DB000B4404333A681A60FB791846C1
:10198000FFF70AFC03467B821A4B1B787B741A4BC9
:101990001B78DBB27A7C9A4202D0FFF7C3FD13E0DA
:1019A000FA79124913465B001344DB000B440833F9
:1019B00019687B8AFA79C91A0C4813465B001344EC
:1019C000DB00034408331960094B1B68FF225A628D
:1019D000032001F0D6FD7B69BB60BB6883F31088F0
:1019E00000BF00BF1837BD4680BD00BF14020020F5
:1019F000F4020020A4020020A502002080B584B0DB
:101A000000AFF8600B467A60FB727B68984700BFB6
:101A10001037BD4680BD000080B582B000AF786051
:101A20007B681B681A46094B9A4207D1084B1B6812
:101A3000002B05D0064B1B68984701E000BF00E073
:101A400000BF00BF0837BD4680BD00BF008000401A
:101A5000B402002080B483B000AF78604FF0B04390
:101A6000D3F8903023F018024FF0B0417B68134355
:101A7000C1F8903000BF0C37BD465DF8047B70475D
:101A800080B483B000AF78604FF0B043DA6C7B680D
:101A9000DB434FF0B0411340CB6400BF0C37BD4671
:101AA0005DF8047B704780B483B000AF78604FF07E
:101AB000B0431A6D7B6813407A689A4201D10123C2
:101AC00000E0002318460C37BD465DF8047B7047E4
:101AD00080B483B000AF78604FF0B0439A6D7B68FC
:101AE000DB434FF0B04113408B6500BF0C37BD4660
:101AF0005DF8047B704780B483B000AF78604FF02E
:101B0000B0431A6E7B68DB434FF0B04113400B6665
:101B100000BF0C37BD465DF8047B704780B500AF51
:101B20000120FFF7ADFF0220FFF7AAFF4FF480402E
:101B3000FFF7E1FF4FF48050FFF7DDFF4FF4001097
:101B4000FFF7C6FF4FF40050FFF79AFF4FF4807085
:101B5000FFF7A9FF00BF80BD80B500AF01F01AFB01
:101B6000FFF7C8F900F034F800F08EF800F0ACF898
:101B700000F00AF901F0AAFB01F0A2FB00F0B8F8AE
:101B8000114B1B68B3F57A6F11D972B600BF40BF15
:101B900020BF0020FFF720FAFFF7C0FF00F0CFF9C9
:101BA00002214FF4804002F037FA62B60AE0064B99
:101BB0001B680133044A1360034B1B681946034832
:101BC00007F0C2FEDCE700BFB005002034B8000813
:101BD00080B59AB000AF07F12003482200211846D3
:101BE00007F0FAFF3B1D00221A605A609A60DA6023
:101BF0001A615A619A6102F0FFF91020FFF72AFF7B
:101C0000204B1B6823F4C0631E4A43F40073136027
:101C10001C4B1B6803F4C0633B603B6807233B62BB
:101C20004FF480337B620123BB624FF48073FB620D
:101C300040233B630023FB6407F12003184602F0B6
:101C4000DDFD0346002B01D000F0A5F86F237B607B
:101C50000223BB600023FB6000233B6100237B6108
:101C60000023BB610023FB613B1D0121184603F0EB
:101C700039F90346002B01D000F08DF800BF68371A
:101C8000BD4680BD0004005880B594B000AF3B460F
:101C900050220021184607F09FFF4FF440533B604D
:101CA0004FF480437B640223BB640023FB643B4608
:101CB000184603F054FD0346002B01D000F06BF8EA
:101CC00000BF5037BD4680BD80B500AF064B074A08
:101CD0001A60054802F00AF90346002B01D000F013
:101CE0005AF800BF80BD00BFB8020020000C0058A9
:101CF00080B500AF224B234A1A60214B4FF4E132EA
:101D00005A601F4B00229A601D4B0022DA601C4B68
:101D100000221A611A4B0C225A61194B00229A6157
:101D2000174B00221A62164B00225A62144B0022F3
:101D30009A62134B00225A66114804F0BDFF034615
:101D4000002B01D000F027F800210D4806F0C5F85F
:101D50000346002B01D000F01EF80021084806F0D1
:101D6000FAF80346002B01D000F015F8044806F0FD
:101D70007BF80346002B01D000F00DF800BF80BDBA
:101D8000580400200080004080B400AF00BFBD4672
:101D90005DF8047B704780B400AF72B600BF00BF2F
:101DA000FDE7000080B483B000AF7860064B1B688D
:101DB00023F0070204497B6813430B6000BF0C3714
:101DC000BD465DF8047B70470004005880B400AF46
:101DD000074BD3F8883003F48063B3F5806F01D1EB
:101DE000012300E000231846BD465DF8047B7047E0
:101DF0000004005880B400AF074BD3F8883003F4D8
:101E00000043B3F5004F01D1012300E00023184641
:101E1000BD465DF8047B70470004005880B400AFF5
:101E20004FF0B0431B684FF0B04243F4807313602F
:101E300000BFBD465DF8047B704780B400AF4FF033
:101E4000B0431B6803F48063B3F5806F01D10123B5
:101E500000E000231846BD465DF8047B704780B45F
:101E600083B000AF78604FF0B0439B6823F003026B
:101E70004FF0B0417B6813438B6000BF0C37BD4609
:101E80005DF8047B704780B400AF4FF0B0439B68AF
:101E900003F00C031846BD465DF8047B704780B420
:101EA00083B000AF78604FF0B0435B6A23F0030269
:101EB0004FF0B0417B6813434B6200BF0C37BD4607
:101EC0005DF8047B7047000080B400AF054B1B69D0
:101ED000044A43F00403136100BFBD465DF8047B70
:101EE000704700BF00ED00E080B483B000AF7860C1
:101EF00039607B683A68203253F82230054A9342B1
:101F000001D0012300E0002318460C37BD465DF8E0
:101F1000047B70470004008080B485B000AFF86097
:101F2000B9607A607B6843F48061FB68BA6843F803
:101F3000221000BF1437BD465DF8047B704780B5A2
:101F400000AF01F0ADF900F009F80220FFF72AFF19
:101F5000FFF7BAFF30BF00BF80BD000080B500AF03
:101F600000BF03211948FFF7BFFF0346002BF8D13C
:101F700004211648FFF7B8FF0346002B17D1FFF7DF
:101F800039FF0346002B04D1FFF720FF0346002B47
:101F900015D0002204210D48FFF7BEFF00F01AF80B
:101FA0000B4B1B680A4A23F00703136007E000F09D
:101FB00011F8074B1B68064A23F007031360002241
:101FC00003210248FFF7A8FF00BF80BD001400589E
:101FD0000040005880B500AFFFF720FF00BFFFF7BB
:101FE0002CFF0346002BFAD00120FFF738FF00201A
:101FF000FFF755FF00BFFFF746FF0346042BFAD15A
:1020000000BF80BD80B485B000AF78604FF0B043B2
:10201000DA6C4FF0B0417B681343CB644FF0B043B0
:10202000DA6C7B681340FB60FB6800BF1437BD4669
:102030005DF8047B704780B485B000AF78604FF0E6
:10204000B0431A6D4FF0B0417B6813430B654FF0FE
:10205000B0431A6D7B681340FB60FB6800BF143708
:10206000BD465DF8047B704780B485B000AF7860F2
:102070004FF0B043DA6D4FF0B0417B681343CB654E
:102080004FF0B043DA6D7B681340FB60FB6800BF24
:102090001437BD465DF8047B704780B485B000AF4F
:1020A00078604FF0B0431A6E4FF0B0417B68134335
:1020B0000B664FF0B0431A6E7B681340FB60FB6801
:1020C00000BF1437BD465DF8047B704780B500AF94
:1020D0004FF40020FFF7AFFF002200212E2001F077
:1020E00036FA2E2001F04DFA00BF80BD80B582B0D7
:1020F00000AF78607B681B68054A934203D14FF4B8
:102100008010FFF798FF00BF0837BD4680BD00BFB5
:10211000000C005880B59CB000AF786007F15C03FC
:1021200000221A605A609A60DA601A6107F10C03A3
:1021300050220021184607F04FFD7B681B685C4A5F
:10214000934256D10123FB6000237B6207F10C030D
:10215000184603F004FB0346002B01D0FFF71BFEDB
:102160004FF48040FFF799FF0220FFF74BFFC02399
:10217000FB6502233B6601237B660323BB660723C3
:10218000FB6607F15C0319464A4801F0B9FC4A4B6B
:102190004A4A1A60484B0F225A60474B10229A60F5
:1021A000454B0022DA60444B80221A61424B0022E8
:1021B0005A61414B00229A613F4B0022DA613E4B4B
:1021C00000221A623C4801F021FA0346002B01D09C
:1021D000FFF7E1FD7B68384ADA67374A7B6893622C
:1021E00000220021242001F0B2F9242001F0C9F9D5
:1021F00059E07B681B68324A934254D10223FB604A
:102200000023BB6207F10C03184603F0A8FA03464B
:10221000002B01D0FFF7BFFD0120FFF725FF0420B1
:10222000FFF7F0FE0323FB6502233B6600237B667A
:102230000023BB660823FB6607F15C0319462148AF
:1022400001F05EFC204B214A1A601F4B11225A609C
:102250001D4B10229A601C4B0022DA601A4B802220
:102260001A61194B00225A61174B00229A61164BD2
:102270000022DA61144B00221A62134801F0C6F9F9
:102280000346002B01D0FFF786FD7B680E4ADA6714
:102290000D4A7B68936200220021252001F057F946
:1022A000252001F06EF900BF7037BD4680BD00BF2C
:1022B0000038014000040048F803002044040240B4
:1022C0000080004000080048EC0400204400024068
:1022D00080B400AF00BFFDE780B400AF00BFFDE7F2
:1022E00080B400AF00BFFDE780B400AF00BFFDE7E2
:1022F00080B400AF00BFFDE780B400AF00BFBD46B3
:102300005DF8047B704780B400AF00BFBD465DF848
:10231000047B704780B400AF00BFBD465DF8047B0E
:10232000704780B500AF00F08FFF00BF80BD000098
:1023300080B500AF024804F052FB00BF80BD00BF73
:102340001803002080B500AF024804F093FD00BFE1
:1023500080BD00BF6403002080B500AF01F0A2FD86
:1023600000BF80BD80B500AF024801F0B5FA00BFE4
:1023700080BD00BFF803002080B500AF00F0C6F9B3
:1023800000BF80BD80B500AF00F0F6F900BF80BD92
:1023900080B500AF4FF4805001F06CFD4FF4005059
:1023A00001F068FD00BF80BD80B500AFFFF754F9B4
:1023B00000BF80BD80B500AF00F0A2FE00BF80BDB1
:1023C00080B500AF022001F055FD00BF80BD80B593
:1023D00000AF042001F04EFD00BF80BD80B500AF0E
:1023E000082001F047FD00BF80BD80B500AF102080
:1023F00001F040FD00BF80BD80B500AF202001F09E
:1024000039FD00BF80BD80B400AF01231846BD4632
:102410005DF8047B704780B582B000AF78603960AA
:1024200007F052FC034616221A604FF0FF3318469D
:102430000837BD4680BD80B582B000AF78604FF0F0
:10244000FF317868FFF7E7FF00BFFDE780B586B092
:1024500000AFF860B9607A6000237B610AE0AFF3F7
:1024600000800146BB685A1CBA60CAB21A707B6908
:1024700001337B617A697B689A42F0DB7B6818469E
:102480001837BD4680BD80B483B000AF78604FF090
:10249000FF3318460C37BD465DF8047B704780B4A7
:1024A00083B000AF786039603B684FF400525A60E7
:1024B000002318460C37BD465DF8047B704780B496
:1024C00083B000AF7860012318460C37BD465DF835
:1024D000047B704780B485B000AFF860B9607A6063
:1024E000002318461437BD465DF8047B7047000092
:1024F00080B586B000AF7860144A154BD31A7B6163
:102500007B693B61134B1B68002B02D1114B124AB4
:102510001A60104B1A687B6813443A699A4207D2D2
:1025200007F0D2FB03460C221A604FF0FF3309E09C
:10253000084B1B68FB60074B1A687B681344054A0D
:102540001360FB6818461837BD4680BD00000320A5
:1025500000100000B40500200809002080B582B0FA
:1025600000AF9223FB7105F0DAFD0346FB71FB79A6
:10257000002B0FD0104805F0F6FD01464FF43E73D6
:102580000E4A0F4807F0E0F9FB7919460D4807F0AD
:10259000DBF90CE0084805F0E6FD01464FF43F7317
:1025A000064A074807F0D0F9074807F035FA00BF98
:1025B0000837BD4680BD00BF48B80008F0C8000815
:1025C000D4B800085CC0000894C0000880B582B090
:1025D00000AF9223FB71154BDB8A184605F048FDCE
:1025E0000346FB71FB79002B0FD0114805F0BBFDB2
:1025F00001464FF442730F4A0F4807F0A5F9FB79E3
:1026000019460E4807F0A0F90CE0094805F0ABFDAB
:1026100001464FF44373074A074807F095F9084805
:1026200007F0FAF900BF0837BD4680BDB8050020A5
:1026300048B800080CC90008D4B80008C0C0000899
:10264000F8C0000880B582B000AF7860012006F0C5
:102650003BFB00BF0837BD4680BD80B483B000AFF0
:10266000786039607B685A683B681B041A437B6852
:102670005A6000BF0C37BD465DF8047B704780B4DC
:1026800083B000AF786039607B683A689A6000BFB9
:102690000C37BD465DF8047B704780B483B000AF53
:1026A000786039603B681A047B689A6000BF0C3719
:1026B000BD465DF8047B704780B483B000AF78609E
:1026C00039607B68DA683B6813403A689A4201D106
:1026D000012300E0002318460C37BD465DF8047B5B
:1026E000704780B483B000AF786039607B68DA6986
:1026F0003B6813403A689A4201D1012300E000236D
:1027000018460C37BD465DF8047B704780B500AFB6
:1027100002211848FFF7E5FF0346002B08D0154BB0
:102720005B6803F00203002B02D100F07FF81EE08B
:1027300001211048FFF7D5FF0346002B08D00D4BB1
:102740005B6803F00103002B02D100F04BF80EE0B0
:1027500008210848FFF7C5FF0346002B08D0054BAA
:102760005B6803F00803002B02D100F07FF800BF84
:1027700000BF80BD000C005880B500AF0221184892
:10278000FFF79AFF0346002B08D1154B5B6803F453
:102790000033002B02D100F03DF81EE00821104864
:1027A000FFF78AFF0346002B08D10D4B5B6803F44B
:1027B0000023002B02D100F045F80EE0202108484C
:1027C000FFF77AFF0346002B08D1054B5B6803F443
:1027D0000013002B02D100F011F800BF00BF80BD34
:1027E000000C005880B500AF06F086F801210248C1
:1027F000FFF745FF00BF80BD000C005880B500AF5B
:1028000020210348FFF729FF06F0A6F800BF80BD8E
:10281000000C005880B500AF02210348FFF71DFFF0
:1028200006F0A4F800BF80BD000C005880B500AFD2
:1028300006F0B2F802210248FFF721FF00BF80BD79
:10284000000C005880B500AF08210648FFF705FFCF
:10285000054B1B68984708210248FFF71EFF00BF81
:1028600080BD00BF000C00583C06002080B500AFC2
:1028700006F0B4F808210248FFF701FF00BF80BD51
:10288000000C005880B582B000AF03463960FB7180
:10289000FB793968184600F0C3F800BF0837BD4619
:1028A00080BD80B582B000AF03460A46FB71134677
:1028B000BB71BA1DFB791146184600F085F800BFC0
:1028C0000837BD4680BD000080B582B000AF03462A
:1028D000FB80FB88023B0E2B30D801A252F823F07C
:1028E000252900083D2900081D2900083D29000868
:1028F0003D2900083D2900082D2900083D29000830
:102900003D2900083D2900083D2900083D2900080F
:102910003D2900083D29000835290008082000F05D
:1029200030FE0CE0072000F02CFE08E0092000F04B
:1029300028FE04E00A2000F024FE00E000BF00BFF3
:102940000837BD4680BD00BF80B582B000AF0346EA
:10295000FB80FB88023B0E2B30D801A252F823F0FB
:10296000A5290008BD2900089D290008BD290008E7
:10297000BD290008BD290008AD290008BD290008AF
:10298000BD290008BD290008BD290008BD2900088F
:10299000BD290008BD290008B5290008082000F05D
:1029A000FEFD0CE0072000F0FAFD08E0092000F031
:1029B000F6FD04E00A2000F0F2FD00E000BF00BFD9
:1029C0000837BD4680BD00BF80B584B000AF034668
:1029D0003960FB710023BB81FB7903F07F03FB713E
:1029E000FB793B733B681B787B7300224FF40041FB
:1029F0004FF0904001F00CFA07F10C010A2302227B
:102A0000064803F033F901224FF400414FF09040A3
:102A100001F0FEF900BF1037BD4680BD4C05002017
:102A200080B582B000AF03463960FB71FB7963F07B
:102A30007F03DBB2FB7100224FF400414FF0904066
:102A400001F0E6F9F91D0A2301220A4803F00EF904
:102A50000A2301223968074803F07EFA01224FF465
:102A600000414FF0904001F0D3F900BF0837BD4658
:102A700080BD00BF4C05002080B400AF00BF00BF88
:102A800000BF00BF00BF00BF00BF00BF00BF00BF4E
:102A900000BF00BF00BF00BF00BF00BF00BF00BF3E
:102AA00000BF00BF00BF00BF00BF00BF00BF00BF2E
:102AB00000BF00BF00BF00BF00BF00BF00BFBD46DA
:102AC0005DF8047B704780B582B000AF0346FB80A1
:102AD00001E0FFF7D1FFFB885A1EFA80002BF8D1E6
:102AE00000BF00BF0837BD4680BD80B582B000AFD3
:102AF0000346FB8003E04FF47A70FFF7E4FFFB88A6
:102B00005A1EFA80002BF6D100BF00BF0837BD4621
:102B100080BD80B582B000AF0023FB71FB1D19465C
:102B20002220FFF7AFFEFB7918460837BD4680BD6F
:102B300080B582B000AF0023FB71FB1D19460A204F
:102B4000FFF7A0FEFB7918460837BD4680BD80B56B
:102B500084B000AF0346FB710023FB730120FFF735
:102B6000C4FFFFF7E5FF03461A46FB79934206D000
:102B7000FB7B0133FB73FB7B3B2BEFD900E000BFFA
:102B8000FB7B18461037BD4680BD80B500AF0121E4
:102B90000120FFF786FE8120FFF7D9FF0346184684
:102BA00080BD80B500AF02210120FFF77AFE012031
:102BB000FFF79BFF02210120FFF773FE8220FFF742
:102BC000C6FF0346184680BD80B500AF0421012032
:102BD000FFF767FEA020FFF7BAFF0346184680BD47
:102BE00080B5C2B000AF07F58473A3F58273186097
:102BF00007F58473A3F58473196007F58473A3F54F
:102C0000847207F58473A3F5827307F108001268D4
:102C1000196807F086F807F58473A3F584731B68B9
:102C20009AB207F108010123034805F03FFC00BFF9
:102C300007F58477BD4680BD4006002080B400AF14
:102C4000084B00221A70084B00221A80074B002202
:102C50001A60074B00221A6000BFBD465DF8047B76
:102C6000704700BF60060020620600206406002056
:102C70006806002080B582B000AF5D4B1B78022B48
:102C800000F0AA80022B00F3A980002B02D0012BB8
:102C900027D0A3E0574B1B8801339AB2554B1A80BB
:102CA000554B1B685B00544A13604FF480415348F6
:102CB00001F096F80346002B05D04F4B1B6843F0FC
:102CC00001034D4A13604C4B1B689BB24AF6A92284
:102CD000934240F08580FFF7B1FF454B01221A7007
:102CE0007EE0454B1B685B08434A1360444B1B68FE
:102CF00003F00103002B05D03F4B1B6843F000435A
:102D00003D4A13603E4B1B685B083D4A13604FF41D
:102D100080413A4801F064F80346002B05D0384B57
:102D20001B6843F00043364A1360324B1B88013363
:102D30009AB2304B1A802F4B1B883F2B52D9314B04
:102D400000221A602C4B1B682F4A13602C4B1B6807
:102D50002E4A13600023FB8018E02A4B1B685B0897
:102D6000284A1360244B1B6803F00103002B05D095
:102D7000244B1B6843F00043224A13601E4B1B6820
:102D80009B081D4A1360FB880133FB80FB880F2BD7
:102D9000E3D90023BB8018E01A4B1B685B08194A73
:102DA0001360174B1B6803F00103002B05D0154B74
:102DB0001B6843F00043134A1360114B1B689B08C8
:102DC0000F4A1360BB880133BB80BB880F2BE3D94C
:102DD000074B02221A7005E000BF04E000BF02E0CA
:102DE00000BF00E000BF00BF0837BD4680BD00BF88
:102DF000600600206206002064060020000C0048E7
:102E000068060020740600206C0600207006002072
:102E100080B500AF744B1B78002B30D1734B1A6810
:102E2000734B1B681340002B06D001224FF48041E6
:102E3000704800F0EDFF05E000224FF480416D483E
:102E400000F0E6FF694B1B685B00684A13606A4B41
:102E50001B8801339AB2684B1A80674B1B881F2B63
:102E600040F2BF80644B00221A80614B634A1A60B3
:102E70005E4B01221A605C4B01221A70B1E05A4B82
:102E80001B78012B31D1594B1A68594B1B681340E1
:102E9000002B06D001224FF48041564800F0B8FFC5
:102EA00005E000224FF48041524800F0B1FF4F4B43
:102EB0001B685B004D4A13604F4B1B8801339AB26D
:102EC0004D4B1A804C4B1B881F2B40F28A804A4B7B
:102ED00000221A804A4B1B68454A1360434B01226B
:102EE0001A60414B02221A707BE03F4B1B78022B89
:102EF0003DD1414B1B8803F00103002B19D13B4B03
:102F00001A683B4B1B681340002B06D001224FF47C
:102F10008041384800F07CFF05E000224FF48041FA
:102F2000344800F075FF314B1B685B002F4A13607B
:102F300004E04FF480412F4800F082FF2E4B1B88A5
:102F400001339AB22C4B1A802B4B1B883F2B48D94C
:102F5000294B00221A80264B00221A60234B0122A3
:102F60001A60214B03221A70FFF71BFE39E01E4B3B
:102F70001B78032B2FD100224FF480411D4800F015
:102F800047FF1D4B1B8801339AB21B4B1A801A4B0B
:102F90001B88202B25D11B4B1B88002B15D0194BD0
:102FA0001B88013B9AB2174B1A80134B00221A80E0
:102FB0000F4B4FF055321A600C4B01221A600A4B2E
:102FC00000221A70FFF700FE0BE0074B04221A7074
:102FD000FFF7DBFD05E0044B1B78042B01D100F06B
:102FE00073F800BF80BD00BF780600207C0600207B
:102FF00080060020000C00487A06002055555595A3
:10300000840600208806002080B500AF1020FFF75E
:103010005BFC0220FFF758FC00BF80BD80B500AF0D
:103020001020FFF791FC0420FFF74EFCFFF706FE8F
:1030300000BF80BD80B594B000AFFFF71BFE104B02
:103040001B78022B18D11020FFF77EFC3B1D4C2271
:103050000021184606F0C0FD03233B81094B1B6885
:103060007B60FFF756FD03463B733B1D4C21184622
:10307000FFF7B6FDFFF7E2FD00BF5037BD4680BD4C
:10308000600600207406002080B582B000AF0346C1
:10309000FB80FB88102B02D1FFF7CCFF0FE0FB88F1
:1030A000042B02D1FFF7B0FF09E0FB88022B02D10D
:1030B000FFF7B4FF03E0FB88082B00D100BF00BF7F
:1030C0000837BD4680BD000080B500AF024803F060
:1030D00057FC00BF80BD00BF1803002080B582B040
:1030E00000AF78607B681B68044A934201D1FFF708
:1030F0008FFE00BF0837BD4680BD00BF00440140C1
:1031000080B400AF074B1B686FF001021A61064BD9
:103110001B680133044A136000BFBD465DF8047BA1
:10312000704700BF8C060020D806002080B400AF96
:10313000074B00229A60064BD3F88830044A43F4C8
:103140007003C2F8883000BFBD465DF8047B70474D
:1031500000ED00E080B400AF054B5B68044A23F04B
:103160000103536000BFBD465DF8047B704700BF9C
:10317000002004E080B400AF054B5B68044A23F0F4
:103180000203536000BFBD465DF8047B704700BF7B
:10319000002004E080B582B000AF0023FB710C4B2F
:1031A0001B680B4A43F480731360032000F0C4F9DA
:1031B000002000F00FF80346002B02D00123FB7122
:1031C00001E0FEF783FFFB7918460837BD4680BD56
:1031D0000040005880B584B000AF78600023FB73D6
:1031E000174B1B78002B24D002F028F80246144B12
:1031F0001B7819464FF47A73B3FBF1F3B2FBF3F388
:10320000184600F0DAF90346002B0FD17B680F2B2C
:1032100009D8002279684FF0FF3000F098F9094A88
:103220007B68136007E00123FB7304E00123FB7359
:1032300001E00123FB73FB7B18461037BD4680BDC0
:10324000100000200C00002080B400AF064B1B785B
:103250001A46064B1B681344044A136000BFBD4660
:103260005DF8047B704700BF10000020DC060020E2
:1032700080B400AF034B1B681846BD465DF8047B65
:10328000704700BFDC06002080B400AF034B1B6812
:103290001846BD465DF8047B704700BF0C00002057
:1032A00080B400AF054B1B68044A23F0020313608F
:1032B00000BFBD465DF8047B704700BF10E000E032
:1032C00080B500AFFFF746FF00BF80BD80B500AFFF
:1032D000FFF750FF00BF80BD80B485B000AF7860BD
:1032E0007B6803F00703FB600C4BDB68BB60BA68CC
:1032F0004FF6FF031340BB60FB681A02BB68134321
:1033000043F0BF6343F40033BB60044ABB68D3603F
:1033100000BF1437BD465DF8047B704700ED00E048
:1033200080B400AF044BDB681B0A03F007031846A8
:10333000BD465DF8047B704700ED00E080B483B0CB
:1033400000AF0346FB7197F90730002B0BDBFB79CD
:1033500003F01F02074997F907305B09012000FAC3
:1033600002F241F8232000BF0C37BD465DF8047B14
:10337000704700BF00E100E080B483B000AF0346B7
:10338000FB7197F90730002B12DBFB7903F01F026A
:103390000A4997F907305B09012000FA02F220334D
:1033A00041F82320BFF34F8F00BFBFF36F8F00BFE3
:1033B00000BF0C37BD465DF8047B704700E100E0BC
:1033C00080B483B000AF0346FB7197F90730002B40
:1033D0000CDBFB7903F01F02074997F907305B0903
:1033E000012000FA02F2403341F8232000BF0C37DD
:1033F000BD465DF8047B704700E100E080B483B017
:1034000000AF0346FB7197F90730002B0CDBFB790B
:1034100003F01F02074997F907305B09012000FA02
:1034200002F2603341F8232000BF0C37BD465DF83F
:10343000047B704700E100E080B483B000AF034636
:103440003960FB7197F90730002B0ADB3B68DAB271
:103450000C4997F907301201D2B20B4483F80023CC
:103460000AE03B68DAB20849FB7903F00F03043B3A
:103470001201D2B20B441A7600BF0C37BD465DF87C
:10348000047B704700E100E000ED00E080B489B00B
:1034900000AFF860B9607A60FB6803F00703FB6176
:1034A000FB69C3F10703042B28BF0423BB61FB693D
:1034B0000433062B02D9FB69033B00E000237B6148
:1034C0004FF0FF32BB6902FA03F3DA43BB681A40DC
:1034D0007B699A404FF0FF317B6901FA03F3D943CE
:1034E0007B680B40134318462437BD465DF8047BC8
:1034F0007047000080B582B000AF78607B68013B08
:10350000B3F1807F01D301230FE00A4A7B68013BBE
:1035100053600F214FF0FF30FFF78EFF054B002265
:103520009A60044B07221A60002318460837BD46EC
:1035300080BD00BF10E000E080B582B000AF7860D1
:103540007868FFF7C9FE00BF0837BD4680BD80B56B
:1035500086B000AF0346B9607A60FB73FFF7E0FE08
:1035600078617A68B9687869FFF790FF024697F941
:103570000F3011461846FFF75FFF00BF1837BD46F2
:1035800080BD80B582B000AF0346FB7197F907306C
:103590001846FFF7D3FE00BF0837BD4680BD80B593
:1035A00082B000AF0346FB7197F907301846FFF76A
:1035B000E3FE00BF0837BD4680BD80B582B000AFD6
:1035C00078607868FFF796FF034618460837BD46CF
:1035D00080BD80B582B000AF0346FB7197F907301C
:1035E0001846FFF7EDFE00BF0837BD4680BD80B529
:1035F00082B000AF0346FB7197F907301846FFF71A
:10360000FDFE00BF0837BD4680BD000080B584B018
:1036100000AF78607B68002B01D101238EE07B68CE
:103620001B681A46474B9A420FD87B681B681A469C
:10363000454B1344454AA2FB03231B099A007B68B0
:103640005A647B68424A1A640EE07B681B681A461B
:10365000404B13443D4AA2FB03231B099A007B689D
:103660005A647B683C4A1A647B68022283F82520EE
:103670007B681B681B68FB60FB6823F4FF4323F037
:103680007003FB607B689A687B68DB681A437B6821
:103690001B691A437B685B691A437B689B691A4301
:1036A0007B68DB691A437B681B6A1343FA68134320
:1036B000FB607B681B68FA681A60786800F0BCF9E8
:1036C0007B689B68B3F5804F02D17B6800225A600B
:1036D0007B685A687B689B6C02F03F021A607B68CB
:1036E000DB6C7A68126D5A607B685B68002B10D0C7
:1036F0007B685B68042B0CD8786800F0DBF97B688A
:103700005B6D00221A607B689B6D7A68D26D5A608F
:1037100008E07B6800225A657B6800229A657B6816
:103720000022DA657B680022DA637B68012283F875
:1037300025207B68002283F82420002318461037B8
:10374000BD4680BD07040240F8FFFDBFCDCCCCCC08
:1037500000000240F8FBFDBF0004024080B483B0CB
:1037600000AF78607B68002B01D101234FE07B68BC
:1037700093F82530DBB2022B08D07B680422DA6391
:103780007B68002283F82420012340E07B681B68CB
:103790001A687B681B6822F00E021A607B689B6CBB
:1037A0001A687B689B6C22F480721A607B681B68C5
:1037B0001A687B681B6822F001021A607B685B6CE8
:1037C00003F01C027B681B6C012101FA02F25A60B3
:1037D0007B68DB6C7A68126D5A607B685B6D002BCE
:1037E0000CD07B685B6D1A687B685B6D22F480721D
:1037F0001A607B689B6D7A68D26D5A607B68012283
:1038000083F825207B68002283F8242000231846B3
:103810000C37BD465DF8047B704780B584B000AFBF
:1038200078600023FB737B6893F82530DBB2022BB2
:1038300005D07B680422DA630123FB7347E07B68D1
:103840001B681A687B681B6822F00E021A607B688E
:103850001B681A687B681B6822F001021A607B688B
:103860009B6C1A687B689B6C22F480721A607B6880
:103870005B6C03F01C027B681B6C012101FA02F2F5
:103880005A607B68DB6C7A68126D5A607B685B6D8E
:10389000002B0CD07B685B6D1A687B685B6D22F433
:1038A00080721A607B689B6D7A68D26D5A607B6803
:1038B000012283F825207B68002283F824207B687E
:1038C0009B6B002B03D07B689B6B78689847FB7BD6
:1038D00018461037BD4680BD80B584B000AF786013
:1038E0007B681B6C1B68FB607B681B681B68BB608C
:1038F0007B685B6C03F01C0304229A40FB68134056
:10390000002B26D0BB6803F00403002B21D07B687A
:103910001B681B6803F02003002B07D17B681B6822
:103920001A687B681B6822F004021A607B685B6C73
:1039300003F01C027B681B6C042101FA02F25A603E
:103940007B681B6B002B71D07B681B6B786898477A
:103950006CE07B685B6C03F01C0302229A40FB68FE
:103960001340002B2ED0BB6803F00203002B29D09C
:103970007B681B681B6803F02003002B0BD17B685E
:103980001B681A687B681B6822F00A021A607B6851
:10399000012283F825207B685B6C03F01C027B68A6
:1039A0001B6C022101FA02F25A607B68002283F844
:1039B00024207B68DB6A002B38D07B68DB6A786860
:1039C000984733E07B685B6C03F01C0308229A4045
:1039D000FB681340002B2AD0BB6803F00803002BC0
:1039E00025D07B681B681A687B681B6822F00E0272
:1039F0001A607B685B6C03F01C027B681B6C012106
:103A000001FA02F25A607B680122DA637B680122C4
:103A100083F825207B68002283F824207B685B6B79
:103A2000002B04D07B685B6B7868984700BF00BFB1
:103A30001037BD4680BD000080B485B000AF78600F
:103A40007B681B681A46174B9A420AD87B685B6CE6
:103A50009B089B0003F1804303F502337A6893646B
:103A600007E07B685B6C9B089A000F4B13447A68F5
:103A700093647B681B68DBB2083B0C4AA2FB032300
:103A80001B09FB607B680A4ADA64FB6803F01F03CA
:103A900001229A407B681A6500BF1437BD465DF865
:103AA000047B7047070402401C080240CDCCCCCCFC
:103AB0008008024080B485B000AF78607B685B68A6
:103AC00003F03F03FB60FA680B4B13449B001A465C
:103AD0007B685A657B68094A9A65FB68013B03F07D
:103AE000030301229A407B68DA6500BF1437BD46A4
:103AF0005DF8047B704700BF3F8200104009024020
:103B000080B487B000AF7860396000237B614CE1FE
:103B10003B681A6801217B6901FA03F31340FB60DB
:103B2000FB68002B00F03E813B685B6803F00303F9
:103B3000012B05D03B685B6803F00303022B30D1F7
:103B40007B689B683B617B695B00032202FA03F39D
:103B5000DB433A6913403B613B68DA687B695B0091
:103B600002FA03F33A6913433B617B683A699A604E
:103B70007B685B683B6101227B6902FA03F3DB43EC
:103B80003A6913403B613B685B681B0903F0010223
:103B90007B6902FA03F33A6913433B617B683A6934
:103BA0005A603B685B6803F00303032B17D07B6804
:103BB000DB683B617B695B00032202FA03F3DB43B2
:103BC0003A6913403B613B689A687B695B0002FA83
:103BD00003F33A6913433B617B683A69DA603B68F7
:103BE0005B6803F00303022B23D17B69DA087B684F
:103BF000083253F822303B617B6903F007039B00D6
:103C00000F2202FA03F3DB433A6913403B613B683E
:103C10001A697B6903F007039B0002FA03F33A6910
:103C200013433B617B69DA087B680832396943F8E2
:103C300022107B681B683B617B695B00032202FAF0
:103C400003F3DB433A6913403B613B685B6803F075
:103C500003027B695B0002FA03F33A6913433B6199
:103C60007B683A691A603B685B6803F44033002B59
:103C700000F09880544A7B699B08023352F8233045
:103C80003B617B6903F003039B000F2202FA03F3FD
:103C9000DB433A6913403B617B68B3F1904F19D025
:103CA0007B684A4A934213D07B68494A93420DD0BD
:103CB0007B68484A934207D07B68474A934201D1C8
:103CC000042308E0072306E0032304E0022302E0C4
:103CD000012300E000237A6902F00302920093407E
:103CE0003A6913433B6138497B699B0802333A695F
:103CF00041F82320394B1B683B61FB68DB433A6981
:103D000013403B613B685B6803F48013002B03D0D6
:103D10003A69FB6813433B61304A3B6913602F4BA0
:103D20005B683B61FB68DB433A6913403B613B687E
:103D30005B6803F40013002B03D03A69FB6813435C
:103D40003B61264A3B695360244BD3F880303B618A
:103D5000FB68DB433A6913403B613B685B6803F4F3
:103D60008033002B03D03A69FB6813433B611B4A45
:103D70003B69C2F88030194BD3F884303B61FB6853
:103D8000DB433A6913403B613B685B6803F40033F3
:103D9000002B03D03A69FB6813433B610F4A3B6930
:103DA000C2F884307B6901337B613B681A687B69A8
:103DB00022FA03F3002B7FF4ABAE00BF00BF1C3729
:103DC000BD465DF8047B70470000014000040048D8
:103DD00000080048000C0048001000480008005887
:103DE00080B485B000AF78600B467B807B681A6931
:103DF0007B881340002B02D00123FB7301E00023DA
:103E0000FB73FB7B18461437BD465DF8047B704797
:103E100080B483B000AF78600B467B8013467B7024
:103E20007B78002B03D07A887B689A6102E07A88DD
:103E30007B689A6200BF0C37BD465DF8047B704713
:103E400080B485B000AF78600B467B807B685B698F
:103E5000FB607A88FB6813401A04FB68D9437B88AF
:103E60000B401A437B689A6100BF1437BD465DF86A
:103E7000047B704780B582B000AF0346FB80084BDF
:103E8000DA68FB881340002B06D0054AFB88D36014
:103E9000FB881846FDF76CF800BF0837BD4680BDAB
:103EA0000008005880B582B000AF0A4BDB687B6029
:103EB000084B1A687B68DB43064913400B60054AD0
:103EC0007B685360786800F007F800BF0837BD468C
:103ED00080BD00BF0015005880B483B000AF78608B
:103EE00000BF0C37BD465DF8047B704780B584B0D9
:103EF00000AF78600023FB737B68002B1ED0134B50
:103F0000BB607B6893F83830DBB2002B02D1786855
:103F1000FEF7ECF8B86800F05BF8BB681B6843F08C
:103F20000112BB681A60786800F02CF87B680022E8
:103F30005A637B68012283F8382001E00123FB7378
:103F4000FB7B18461037BD4680BD00BF000C0058F3
:103F500080B485B000AFF860B9601346FB7100BF54
:103F60001437BD465DF8047B704780B485B000AF60
:103F7000F860B9601346FB7100BF1437BD465DF8A9
:103F8000047B704780B485B000AF78600023FB608D
:103F90000FE07A68FB689B0013440B4A5A607A680A
:103FA000FB6806339B001344084A5A60FB680133E0
:103FB000FB60FB68052BECD900BF00BF1437BD4682
:103FC0005DF8047B704700BF513F00086B3F00085D
:103FD00080B483B000AF78607B6800221A607B6891
:103FE0004FF03F125A607B683F229A6000BF0C3747
:103FF000BD465DF8047B704780B400AF054B1B687D
:10400000044A43F48073136000BFBD465DF8047B2F
:10401000704700BF0004005880B582B000AF7860E0
:104020000B46FB707B68B3F5804F04D1FB781846D4
:1040300000F042F803E0FB78184600F013F800BFE8
:104040000837BD4680BD000080B400AF044B1B683C
:1040500003F4C0631846BD465DF8047B704700BF9B
:104060000004005880B483B000AF0346FB71104BCE
:104070001B680F4A23F0070313600E4B1B690D4AA0
:1040800043F004031361FB79012B01D130BF02E03F
:1040900040BF20BF20BF074B1B69064A23F0040323
:1040A000136100BF0C37BD465DF8047B704700BF4D
:1040B0000004005800ED00E080B483B000AF034678
:1040C000FB71114B1B6823F007030F4A43F00103F8
:1040D00013600E4B1B690D4A43F004031361FB7917
:1040E000012B01D130BF02E040BF20BF20BF074BF2
:1040F0001B69064A23F00403136100BF0C37BD4659
:104100005DF8047B704700BF0004005800ED00E03C
:1041100080B400AF4FF0B0431B6803F48013B3F5D5
:10412000801F01D1012300E000231846BD465DF841
:10413000047B704780B400AF4FF0B0431B684FF072
:10414000B04243F48033136000BFBD465DF8047B8A
:10415000704780B400AF4FF0B0431B684FF0B042DF
:1041600023F48033136000BFBD465DF8047B7047C5
:1041700080B400AF4FF0B0431B6803F40033B3F5D5
:10418000003F01D1012300E000231846BD465DF841
:10419000047B704780B400AF4FF0B0431B684FF012
:1041A000B04243F48073136000BFBD465DF8047BEA
:1041B000704780B400AF4FF0B0431B684FF0B0427F
:1041C00023F48073136000BFBD465DF8047B704725
:1041D00080B400AF4FF0B0431B6803F48063B3F5C5
:1041E000806F01D1012300E000231846BD465DF831
:1041F000047B704780B483B000AF78604FF0B04369
:104200005B6823F0FE427B681B064FF0B04113430E
:104210004B6000BF0C37BD465DF8047B704780B42F
:1042200000AF4FF0B043D3F898304FF0B04243F0B6
:104230000103C2F8983000BFBD465DF8047B7047AB
:1042400080B400AF4FF0B043D3F898304FF0B04295
:1042500023F00103C2F8983000BFBD465DF8047B2F
:10426000704780B400AF4FF0B043D3F8983003F0FC
:104270000203022B01D1012300E000231846BD46B2
:104280005DF8047B704780B400AF4FF0B043D3F8C3
:1042900090304FF0B04243F00103C2F8903000BFBD
:1042A000BD465DF8047B704780B400AF4FF0B0436B
:1042B000D3F890304FF0B04223F00103C2F89030B1
:1042C00000BFBD465DF8047B704780B400AF4FF07F
:1042D000B043D3F890304FF0B04243F00403C2F83B
:1042E000903000BFBD465DF8047B704780B400AFDE
:1042F0004FF0B043D3F890304FF0B04223F00403B6
:10430000C2F8903000BFBD465DF8047B704780B4B2
:1043100000AF4FF0B043D3F8903003F00203022B0C
:1043200001D1012300E000231846BD465DF8047B5F
:10433000704780B400AF4FF0B043D3F894304FF0E3
:10434000B04243F00103C2F8943000BFBD465DF8AF
:10435000047B704780B400AF4FF0B043D3F8943083
:104360004FF0B04223F00103C2F8943000BFBD46C5
:104370005DF8047B704780B400AF4FF0B043D3F8D2
:10438000943003F00203022B01D1012300E000234B
:104390001846BD465DF8047B704780B400AF4FF00F
:1043A000B043D3F894304FF0B04243F00403C2F866
:1043B000943000BFBD465DF8047B704780B400AF09
:1043C0004FF0B043D3F894304FF0B04223F00403E1
:1043D000C2F8943000BFBD465DF8047B704780B4DE
:1043E00000AF4FF0B043D3F8943003F00803082B2C
:1043F00001D1012300E000231846BD465DF8047B8F
:10440000704780B483B000AF78604FF0B043D3F80A
:10441000943023F470627B681B024FF0B041134369
:10442000C1F8943000BF0C37BD465DF8047B70477F
:1044300080B400AF4FF0B0431B684FF0B04243F080
:104440000103136000BFBD465DF8047B704780B474
:1044500000AF4FF0B0431B684FF0B04223F00103B0
:10446000136000BFBD465DF8047B704780B400AFA9
:104470004FF0B0431B6803F00203022B01D101236C
:1044800000E000231846BD465DF8047B704780B409
:1044900083B000AF78604FF0B0431B6823F0F002A8
:1044A0004FF0B0417B6813430B6000BF0C37BD4633
:1044B0005DF8047B704780B483B000AF4FF0B04329
:1044C0001B6803F0F0037B607B68B02B01D9B0233D
:1044D0007B607B6818460C37BD465DF8047B7047EF
:1044E00080B483B000AF78604FF0B0435B6823F4D2
:1044F0007F427B681B024FF0B04113434B6000BF0B
:104500000C37BD465DF8047B704780B483B000AFC4
:1045100078604FF0B0439B6823F003024FF0B04146
:104520007B6813438B6000BF0C37BD465DF8047B8E
:10453000704780B400AF4FF0B0439B6803F00C03AA
:104540001846BD465DF8047B704780B483B000AF69
:1045500078604FF0B0439B6823F0F0024FF0B04119
:104560007B6813438B6000BF0C37BD465DF8047B4E
:10457000704780B483B000AF78604FF0B043D3F899
:10458000083123F0F0024FF0B0417B681343C1F8CB
:10459000083100BF0C37BD465DF8047B704780B41E
:1045A00083B000AF78604FF0B043D3F8083123F008
:1045B0000F027B681B094FF0B0411343C1F808316B
:1045C00000BF0C37BD465DF8047B704780B483B0F4
:1045D00000AF78604FF0B0439B6823F4E0624FF087
:1045E000B0417B6813438B6000BF0C37BD465DF85C
:1045F000047B704780B483B000AF78604FF0B04365
:104600009B6823F460524FF0B0417B6813438B608A
:1046100000BF0C37BD465DF8047B704780B400AF27
:104620004FF0B0439B6803F0F0031846BD465DF8B9
:10463000047B704780B400AF4FF0B043D3F808312B
:104640001B0103F0F0031846BD465DF8047B70477C
:1046500080B400AF4FF0B0439B6803F4E0631846AA
:10466000BD465DF8047B704780B400AF4FF0B043A7
:104670009B6803F460531846BD465DF8047B7047A1
:1046800080B400AF4FF0B0431B684FF0B04243F02E
:104690008073136000BFBD465DF8047B704780B433
:1046A00000AF4FF0B0431B684FF0B04223F080736F
:1046B000136000BFBD465DF8047B704780B400AF57
:1046C0004FF0B0431B6803F00073B3F1007F01D1DA
:1046D000012300E000231846BD465DF8047B7047C7
:1046E00080B400AF4FF0B043DB681B0A03F07F03D8
:1046F0001846BD465DF8047B704780B400AF4FF0AC
:10470000B043DB6803F060431846BD465DF8047BA8
:10471000704780B400AF4FF0B043DB6803F0700324
:104720001846BD465DF8047B704780B400AF4FF07B
:10473000B043DB6803F003031846BD465DF8047B15
:10474000704780B400AF4FF0B0439B6803F48033F0
:10475000B3F5803F01D1012300E000231846BD4698
:104760005DF8047B704780B400AF4FF0B043D3F8DE
:10477000083103F40033B3F5003F01D1012300E019
:1047800000231846BD465DF8047B704780B400AF37
:104790004FF0B043D3F8083103F48033B3F5803FD2
:1047A00001D1012300E000231846BD465DF8047BDB
:1047B000704780B400AF4FF0B0439B6803F4003300
:1047C000B3F5003F01D1012300E000231846BD46A8
:1047D0005DF8047B704780B400AF4FF0B0439B6836
:1047E00003F48023B3F5802F01D1012300E00023DF
:1047F0001846BD465DF8047B7047000090B58DB04B
:1048000000AF78607B68002B01D1012363E37B68F4
:104810001B6803F02003002B00F08D80FFF789FE5A
:10482000F862FFF782FFB862FB6A002B05D0FB6AD3
:104830000C2B47D1BB6A012B44D17B68DB69002B71
:1048400001D1012347E37B685C6AFFF734FE03462E
:104850009C4214D97B685B6A184600F02FFD034622
:10486000002B01D0012336E37B685B6A1846FFF713
:104870000EFE7B681B6A1846FFF732FE13E07B686A
:104880005B6A1846FFF703FE7B681B6A1846FFF752
:1048900027FE7B685B6A184600F010FD0346002B7C
:1048A00001D0012317E300F0C9FC0346A44A1360BA
:1048B000A44B1B681846FEF78DFC0346002B39D02D
:1048C000012308E37B68DB69002B1ED0FFF7B0FDF6
:1048D000FEF7CEFC786208E0FEF7CAFC02467B6A6F
:1048E000D31A022B01D90323F5E2FFF7BFFD0346DC
:1048F000002BF1D07B685B6A1846FFF7C8FD7B6828
:104900001B6A1846FFF7ECFD15E0FFF7A0FDFEF768
:10491000AFFC786208E0FEF7ABFC02467B6AD31A74
:10492000022B01D90323D6E2FFF7A0FD0346002B9B
:10493000F1D100E000BF7B681B6803F00103002B8E
:1049400047D0FFF7F6FD3862FFF7EFFEF8613B6AEC
:10495000082B05D03B6A0C2B08D1FB69032B05D132
:104960007B685B68002B34D10123B4E27B685B6811
:10497000B3F5803F02D1FFF7DDFB01E0FFF7E9FB74
:104980007B685B68002B12D0FEF772FC786208E04F
:10499000FEF76EFC02467B6AD31A642B01D903230F
:1049A00099E2FFF7E5FB0346002BF1D011E0FEF79B
:1049B0005FFC786208E0FEF75BFC02467B6AD31A74
:1049C000642B01D9032386E2FFF7D2FB0346002BB9
:1049D000F1D17B681B6803F00203002B4CD0FFF77A
:1049E000A8FDB861FFF7A1FE7861BB69042B05D073
:1049F000BB690C2B0ED17B69022B0BD17B68DB686A
:104A0000002B01D1012366E27B681B691846FFF782
:104A1000F1FB31E07B68DB68002B19D0FFF7BAFBB4
:104A2000FEF726FC786208E0FEF722FC02467B6A6D
:104A3000D31A022B01D903234DE2FFF7C9FB03462A
:104A4000002BF1D07B681B691846FFF7D3FB13E0FE
:104A5000FFF7AFFBFEF70CFC786208E0FEF708FCFE
:104A600002467B6AD31A022B01D9032333E2FFF7F4
:104A7000AFFB0346002BF1D17B681B6803F00803F2
:104A8000002B06D17B681B6803F01003002B00F09D
:104A9000A3807B685B69002B76D07B681B6803F082
:104AA0001003002B46D0FFF766FC0346002B13D102
:104AB000FFF73FFCFEF7DCFB786208E0FEF7D8FB6F
:104AC00002467B6AD31A022B01D9032303E2FFF7C4
:104AD00052FC0346002BF1D0FFF75FFCFEF7C8FB4A
:104AE000786208E0FEF7C4FB02467B6AD31A032B08
:104AF00001D90323EFE1FFF772FC0346002BF1D04D
:104B00007B689B691846FFF77CFCFFF723FCFEF7E8
:104B1000AFFB786208E0FEF7ABFB02467B6AD31A74
:104B2000022B01D90323D6E1FFF725FC0346002B16
:104B3000F1D151E0FFF7FDFBFEF79AFB78620CE044
:104B4000080000200C000020FEF792FB02467B6A62
:104B5000D31A022B01D90323BDE1FFF70CFC034656
:104B6000002BF1D0FFF72AFC08E0FEF781FB02469C
:104B70007B6AD31A032B01D90323ACE1FFF72FFC87
:104B80000346002BF1D127E0FFF718FCFEF770FB7E
:104B9000786208E0FEF76CFB02467B6AD31A032BAF
:104BA00001D9032397E1FFF71AFC0346002BF1D14B
:104BB000FFF7D0FBFEF75CFB786208E0FEF758FBDE
:104BC00002467B6AD31A022B01D9032383E1FFF744
:104BD000D2FB0346002BF1D17B681B6803F0040372
:104BE000002B5BD0A74B1B6803F48073002B14D100
:104BF000FFF702FAFEF73CFB786208E0FEF738FBAD
:104C000002467B6AD31A022B01D9032363E19D4B31
:104C10001B6803F48073002BF0D07B689B68012B2A
:104C200002D1FFF730FB0CE07B689B68052B04D1B9
:104C3000FFF74BFBFFF727FB03E0FFF735FBFFF721
:104C400055FB7B689B68002B14D0FEF711FB786244
:104C50000AE0FEF70DFB02467B6AD31A41F2883266
:104C6000934201D9032336E1FFF751FB0346002BA2
:104C7000EFD013E0FEF7FCFA78620AE0FEF7F8FAEC
:104C800002467B6AD31A41F28832934201D9032348
:104C900021E1FFF73CFB0346002BEFD17B681B684B
:104CA00003F04003002B2CD07B689B6A002B14D0B0
:104CB000FFF7B5FAFEF7DCFA786208E0FEF7D8FAFB
:104CC00002467B6AD31A022B01D9032303E1FFF7C3
:104CD000C8FA0346002BF1D013E0FFF7B1FAFEF754
:104CE000C7FA786208E0FEF7C3FA02467B6AD31A75
:104CF000022B01D90323EEE0FFF7B3FA0346002BA2
:104D0000F1D17B68DB6A002B00F0E480FFF711FC37
:104D100038614FF0B043DB68FB607B68DB6A022BD5
:104D200040F0B480FB6803F003027B681B6B9A427F
:104D300023D1FB6803F070027B685B6B9A421CD145
:104D4000FB681B0A03F07F027B689B6B9A4214D1BD
:104D5000FB6803F478127B68DB6B9A420DD1FB6829
:104D600003F060627B681B6C9A4206D1FB6803F01B
:104D700060427B685B6C9A425DD03B690C2B58D0DB
:104D80004FF0B0431B6803F08063002B01D0012378
:104D9000A1E0FFF784FCFEF76BFA786208E0FEF70B
:104DA00067FA02467B6AD31A022B01D9032392E0E9
:104DB0004FF0B0431B6803F00073002BEFD14FF0AE
:104DC000B043DA68304B13407A68116B7A68526BE3
:104DD00011437A68926B120211437A68D26B1143C5
:104DE0007A68126C11437A68526C0A434FF0B041F2
:104DF0001343CB60FFF744FC4FF0B043DB684FF048
:104E0000B04243F08053D360FEF732FA786208E094
:104E1000FEF72EFA02467B6AD31A022B01D903232E
:104E200059E04FF0B0431B6803F00073002BEFD044
:104E300050E001234FE04FF0B0431B6803F00073D4
:104E4000002B47D1FFF71CFC4FF0B043DB684FF05D
:104E5000B04243F08053D360FEF70AFA786208E06C
:104E6000FEF706FA02467B6AD31A022B01D9032306
:104E700031E04FF0B0431B6803F00073002BEFD01C
:104E800028E000BF000400588C80C1113B690C2B46
:104E90001ED0FFF704FCFEF7EBF9786208E0FEF79E
:104EA000E7F902467B6AD31A022B01D9032312E0E9
:104EB0004FF0B0431B6803F00073002BEFD14FF0AD
:104EC000B043DA684FF0B041054B1340CB6001E0CE
:104ED000012300E0002318463437BD4690BD00BFD3
:104EE000FCFFFEEE80B584B000AF786039607B686F
:104EF000002B01D101232DE1984B1B6803F0070320
:104F00003A689A421BD9954B1B6823F007029349D4
:104F10003B6813430B60FEF7ABF9F86008E0FEF75F
:104F2000A7F90246FB68D31A022B01D9032311E12A
:104F30008A4B1B6803F007033A689A42EFD17B68FB
:104F40001B6803F00203002B16D07B689B68184691
:104F5000FFF7FBFAFEF78CF9F86008E0FEF788F936
:104F60000246FB68D31A022B01D90323F2E0FFF7B4
:104F7000E8FB0346002BF1D07B681B6803F020039D
:104F8000002B16D07B685B691846FFF7F2FAFEF734
:104F90006FF9F86008E0FEF76BF90246FB68D31A78
:104FA000022B01D90323D5E0FFF7DDFB0346002BDD
:104FB000F1D07B681B6803F04003002B16D07B68A0
:104FC0009B691846FFF7EBFAFEF752F9F86008E024
:104FD000FEF74EF90246FB68D31A022B01D90323D0
:104FE000B8E0FFF7D3FB0346002BF1D07B681B68CA
:104FF00003F00403002B16D07B68DB681846FFF72C
:10500000E5FAFEF735F9F86008E0FEF731F90246F7
:10501000FB68D31A022B01D903239BE0FFF7C9FBDE
:105020000346002BF1D07B681B6803F00803002BBC
:1050300017D07B681B69DB001846FFF7DBFAFEF729
:1050400017F9F86008E0FEF713F90246FB68D31A77
:10505000022B01D903237DE0FFF7BDFB0346002BA4
:10506000F1D07B681B6803F00103002B43D07B6801
:105070005B68022B06D1FFF77BF80346002B1ED19D
:10508000012367E07B685B68032B06D1FFF716FB03
:105090000346002B13D101235CE07B685B68002B87
:1050A00006D1FFF7E3F90346002B08D1012351E0B5
:1050B000FFF78EF80346002B01D101234AE07B68FD
:1050C0005B681846FFF721FAFEF7D2F8F8600AE0AD
:1050D000FEF7CEF80246FB68D31A41F288329342BB
:1050E00001D9032336E0FFF724FA02467B685B68A8
:1050F0009B009A42ECD1194B1B6803F007033A68F6
:105100009A421BD2154B1B6823F0070213493B68D8
:1051100013430B60FEF7ACF8F86008E0FEF7A8F860
:105120000246FB68D31A022B01D9032312E00B4B72
:105130001B6803F007033A689A42EFD100F07EF84B
:105140000346074A1360FEF79FF803461846FEF72A
:1051500041F8034618461037BD4680BD0040005850
:105160000800002090B585B000AFFFF7E2F9786045
:105170007B68002B0AD1FFF79EF903461B0903F059
:105180000F032B4A52F82330FB604BE07B68042B63
:1051900002D1284BFB6045E07B68082B0AD1FEF763
:1051A000B7FF0346012B02D1224BFB603AE0224BB2
:1051B000FB6037E0FFF7B9FA38603B68022B03D099
:1051C0003B68032B03D00DE01A4BBB6015E0FEF7E4
:1051D0009FFF0346012B02D1164BBB600DE0164B1F
:1051E000BB600AE0FFF767F903461B0903F00F03F2
:1051F0000F4A52F82330BB6000BFFFF771FA024636
:10520000BB6803FB02F4FFF784FA03461B09013372
:10521000B4FBF3F4FFF771FA03465B0F0133B4FB01
:10522000F3F3FB60FB6818461437BD4690BD00BF22
:1052300088C900080024F4000048E80198B500AFD0
:10524000FFF790FF0446FFF7E9F903461B0903F057
:105250000F03034A52F82330B4FBF3F3184698BD0A
:1052600028C9000898B500AFFFF7E8FF0446FFF72C
:10527000EFF903461B0A03F00703044A52F82330F0
:1052800003F01F0324FA03F3184698BD68C9000809
:1052900098B500AFFFF7D2FF0446FFF7E5F90346E4
:1052A000DB0A03F00703044A52F8233003F01F031C
:1052B00024FA03F3184698BD68C9000890B585B074
:1052C00000AF78607B68B02B03D9154BDB6AFB60BD
:1052D00007E07B681B0903F00F03114A52F82330E3
:1052E000FB60FFF7A7F903461B0903F00F030D4A04
:1052F00052F82330FA68B2FBF3F3BB60BB680A4A8A
:10530000A2FB03239C0CFEF79FFE03461946204692
:1053100000F00CF8034618461437BD4690BD00BF98
:1053200088C9000828C9000883DE1B4390B593B0E4
:1053300000AF78603960374B07F128040FCB84E861
:105340000F00354A07F11C0307CA83E80700334BF7
:1053500007F10C040FCB84E80F0000237B643B684B
:10536000B3F5007F1AD100233B6413E03B6C9B0034
:1053700048333B4453F8203C7A689A4207D83B6C48
:105380009B0048333B4453F83C3C7B6420E03B6C3F
:1053900001333B643B6C032BE8D919E00023FB632A
:1053A00013E0FB6B9B0048333B4453F82C3C7A687A
:1053B0009A4207D8FB6B9B0048333B4453F83C3C74
:1053C0007B6405E0FB6B0133FB63FB6B022BE8D9CD
:1053D000134B1B6823F0070211497B6C13430B60CE
:1053E000FDF746FFB86308E0FDF742FF0246BB6BDE
:1053F000D31A022B01D9032307E0094B1B6803F0E2
:1054000007037A6C9A42EFD1002318464C37BD4609
:1054100090BD00BFC4C80008D4C80008E0C8000898
:105420000040005880B400AF4FF0B043D3F8903044
:1054300003F00103012B01D1012300E000231846F2
:10544000BD465DF8047B704780B400AF4FF0B043B9
:10545000D3F8903003F00203022B01D1012300E0C6
:1054600000231846BD465DF8047B704780B483B0C6
:1054700000AF78604FF0B043D3F8943023F440424B
:105480004FF0B0417B681343C1F8943000BF0C3734
:10549000BD465DF8047B704780B483B000AF786090
:1054A0004FF0B0435B6A23F003024FF0B0417B68DA
:1054B00013434B6200BF0C37BD465DF8047B704759
:1054C00080B483B000AF78604FF0B0435B6A23F0E4
:1054D00030024FF0B0417B6813434B6200BF0C3782
:1054E000BD465DF8047B704780B483B000AF786040
:1054F0004FF0B043D3F8883023F003024FF0B041AF
:105500007B681343C1F8883000BF0C37BD465DF897
:10551000047B704780B483B000AF78604FF0B04335
:10552000D3F8883023F440624FF0B0417B681343D6
:10553000C1F8883000BF0C37BD465DF8047B70476A
:1055400080B483B000AF78604FF0B043D3F88820C8
:105550007B681B0903F47F23DB431A407B681B0134
:1055600003F47F234FF0B0411343C1F8883000BFEC
:105570000C37BD465DF8047B704780B483B000AF44
:1055800078604FF0B043D3F888207B681B0C1B0475
:10559000DB431A407B681B044FF0B0411343C1F852
:1055A000883000BF0C37BD465DF8047B704780B47F
:1055B00083B000AF78604FF0B043D3F8883023F465
:1055C00040024FF0B0417B681343C1F8883000BF00
:1055D0000C37BD465DF8047B704780B483B000AFE4
:1055E00078604FF0B043D3F8883023F040424FF05A
:1055F000B0417B681343C1F8883000BF0C37BD460B
:105600005DF8047B704780B483B000AF78604FF0E2
:10561000B043D3F8883023F040624FF0B0417B684C
:105620001343C1F8883000BF0C37BD465DF8047BDA
:10563000704780B582B000AF78607868FFF7E3FF0D
:1056400000BF0837BD4680BD80B483B000AF78602E
:105650004FF0B043D3F8883023F040524FF0B041C0
:105660007B681343C1F8883000BF0C37BD465DF836
:10567000047B704780B483B000AF78604FF0B043D4
:10568000D3F8903023F440724FF0B0417B6813435D
:10569000C1F8903000BF0C37BD465DF8047B704701
:1056A00080B400AF4FF0B043D3F8903003F44073B0
:1056B0001846BD465DF8047B704780B400AF4FF0DC
:1056C000B043D3F890304FF0B04243F48033C2F887
:1056D000903000BFBD465DF8047B704780B400AFDA
:1056E0004FF0B043D3F890304FF0B04223F4803302
:1056F000C2F8903000BFBD465DF8047B704780B4AF
:1057000000AF4FF0B0431B684FF0B04243F08063EE
:10571000136000BFBD465DF8047B704780B400AFE6
:105720004FF0B0431B684FF0B04223F0806313602A
:1057300000BFBD465DF8047B704780B400AF4FF0FA
:10574000B0431B6803F00063B3F1006F01D1012384
:1057500000E000231846BD465DF8047B704780B525
:1057600088B000AF78600023FB770023BB777B68AD
:105770001B6803F04003002B34D07B681B6BB3F530
:10578000400F21D0B3F5400F1BD8B3F5000F1DD04B
:10579000B3F5000F15D8002B0BD0B3F5800F10D147
:1057A0004FF0B043DB684FF0B04243F48033D36036
:1057B0000DE07B680433184600F047F90346FB7799
:1057C00005E00123FB7702E000BF00E000BFFB7FA4
:1057D000002B05D17B681B6B1846FFF7E8FE01E044
:1057E000FB7FBB777B681B6803F40063002B46D00C
:1057F000FFF756FFB8617B681B6CBA699A423CD0D0
:10580000FEF7FAFBBB69002B05D17B681B6C1846C1
:10581000FFF730FF2EE04FF0B043D3F890307B61BC
:10582000FFF74BFFFFF75AFF7B6923F440727B6859
:105830001B6C13437B614FF0B0427B69C2F8903020
:10584000FFF7F0FD0346012B14D1FDF711FD386180
:105850000BE0FDF70DFD02463B69D31A41F2883299
:10586000934202D90323FB7704E0FFF7EDFD0346E3
:10587000012BEED1FB7FBB7701E0FB7FBB777B6821
:105880001B6803F00103002B04D07B689B6918465A
:10589000FFF72AFE7B681B6803F00203002B04D08D
:1058A0007B68DB691846FFF735FE7B681B6803F0F1
:1058B0001003002B04D07B689B6A1846FFF75DFE3F
:1058C0007B681B6803F02003002B04D07B68DB6A35
:1058D0001846FFF752FE7B681B6803F00403002B99
:1058E00004D07B681B6A1846FFF72AFE7B681B689A
:1058F00003F00803002B04D07B685B6A1846FFF7AF
:105900001FFE7B681B6803F48073002B22D07B682A
:105910005B6B1846FFF78DFE7B685B6BB3F1006F26
:1059200007D14FF0B043DB684FF0B04243F08073D3
:10593000D3607B685B6BB3F1806F0BD17B68043302
:10594000184600F0DDF80346FB77FB7F002B01D003
:10595000FB7FBB777B681B6803F40073002B2BD0A5
:105960007B689B6BB3F1804F08D07B689B6BB3F176
:10597000004F03D07B689B6B002B05D17B689B6B32
:105980001846FFF72AFE0AE07B689B6B23F08053E2
:10599000FB600020FFF721FEF868FFF734FE7B680C
:1059A0009B6BB3F1C05F07D14FF0B043DB684FF0A2
:1059B000B04243F08073D3607B681B6803F480635C
:1059C000002B22D07B68DB6B1846FFF73DFE7B681F
:1059D000DB6BB3F1005F07D14FF0B043DB684FF0F2
:1059E000B04243F48033D3607B68DB6BB3F1805FFC
:1059F0000BD17B680433184600F0DDF80346FB77D3
:105A0000FB7F002B01D0FB7FBB777B681B6803F417
:105A10008053002B04D07B685B6C1846FFF726FD93
:105A20007B681B6803F40053002B09D07B68DB6C98
:105A30001846FFF745FD7B689B6C1846FFF72CFD69
:105A4000BB7F18462037BD4680BD80B584B000AF0F
:105A500078600023FB73FFF761FEFDF709FCB86077
:105A600009E0FDF705FC0246BB68D31A022B02D9F8
:105A70000323FB7304E0FFF760FE0346002BF0D125
:105A8000FB7B002B37D14FF0B0431B6923F4FE4260
:105A90007B681B681B024FF0B04113430B614FF052
:105AA000B0431B6923F478127B685B684FF0B04108
:105AB00013430B61FFF723FEFDF7DAFBB86009E043
:105AC000FDF7D6FB0246BB68D31A022B02D903238B
:105AD000FB7304E0FFF731FE0346012BF0D1FB7BA3
