:020000040800F2
:1000000000000320610E0008E1350008E935000812
:10001000F1350008F935000801360008000000003D
:100020000000000000000000000000000936000889
:100030001736000800000000253600083336000897
:10004000B50E0008B50E0008B50E0008A53600086C
:10005000B50E0008B50E0008B50E0008B50E000874
:10006000B50E0008B50E0008B50E0008B50E000864
:10007000B50E0008B50E0008B50E0008B50E000854
:10008000B50E0008B50E0008B50E0008B50E000844
:10009000B50E0008B50E0008B50E0008B50E000834
:1000A000B50E0008B50E0008B1360008B50E000800
:1000B000B50E0008B50E0008B50E0008B50E000814
:1000C000B50E0008B50E0008B50E0008B50E000804
:1000D00041360008B50E0008B50E0008B50E000840
:1000E0008D360008B50E0008B50E0008B50E0008E4
:1000F000753600088136000855360008B50E000830
:10010000B50E0008B50E0008B50E0008B50E0008C3
:10011000B50E0008B50E0008B50E0008B50E0008B3
:10012000B50E0008B50E000861360008B50E0008CF
:0C013000B50E0008B50E0008B50E000862
:1001400010B5054C237833B9044B13B10448AFF311
:1001500000800123237010BD500400200000000027
:100160004060010808B5034B1BB103490348AFF3D6
:10017000008008BD00000000540400204060010819
:1001800001F0FF01102A2BDB10F0070F08D010F848
:10019000013B013A8B422DD010F0070F42B3F6D14C
:1001A000F0B441EA012141EA014122F007047FF065
:1001B00000070023F0E80256083C85EA010586EABC
:1001C000010685FA47F5A3FA87F586FA47F6A5FAF8
:1001D00087F68EB9EED1F0BC01F0FF0102F0070204
:1001E00032B110F8013B013A83EA010313B1F8D1AF
:1001F0000020704701387047002D06BF3546033890
:10020000073815F0010F07D1013015F4807F02BFC8
:10021000013015F4C03F0130F0BC0138704700BF19
:10022000034613F8012B002AFBD1181A0138704736
:1002300081F0004102E000BF83F0004330B54FEA97
:1002400041044FEA430594EA050F08BF90EA020F04
:100250001FBF54EA000C55EA020C7FEA645C7FEA97
:10026000655C00F0E2804FEA5454D4EB5555B8BFBA
:100270006D420CDD2C4480EA020281EA030382EA2B
:10028000000083EA010180EA020281EA0303362DBD
:1002900088BF30BD11F0004F4FEA01314FF4801C90
:1002A0004CEA113102D0404261EB410113F0004FA2
:1002B0004FEA03334CEA133302D0524263EB430359
:1002C00094EA050F00F0A780A4F10104D5F1200EF7
:1002D0000DDB02FA0EFC22FA05F2801841F1000152
:1002E00003FA0EF2801843FA05F359410EE0A5F126
:1002F00020050EF1200E012A03FA0EFC28BF4CF057
:10030000020C43FA05F3C01851EBE37101F000450C
:1003100007D54FF0000EDCF1000C7EEB00006EEB19
:100320000101B1F5801F1BD3B1F5001F0CD34908A3
:100330005FEA30004FEA3C0C04F101044FEA4452FA
:1003400012F5800F80F09A80BCF1004F08BF5FEA81
:10035000500C50F1000041EB045141EA050130BD61
:100360005FEA4C0C404141EB0101013C28BFB1F573
:10037000801FE9D291F0000F04BF01460020B1FABE
:1003800081F308BF2033A3F10B03B3F120020CDA91
:100390000C3208DD02F1140CC2F10C0201FA0CF06F
:1003A00021FA02F10CE002F11402D8BFC2F1200CD4
:1003B00001FA02F120FA0CFCDCBF41EA0C0190408A
:1003C000E41AA2BF01EB0451294330BD6FEA0404D3
:1003D0001F3C1CDA0C340EDC04F11404C4F12002BE
:1003E00020FA04F001FA02F340EA030021FA04F3D0
:1003F00045EA030130BDC4F10C04C4F1200220FA27
:1004000002F001FA04F340EA0300294630BD21FA64
:1004100004F0294630BD94F0000F83F4801306BF2A
:1004200081F480110134013D4EE77FEA645C18BF1E
:100430007FEA655C29D094EA050F08BF90EA020FB5
:1004400005D054EA000C04BF1946104630BD91EAAD
:10045000030F1EBF0021002030BD5FEA545C05D1B0
:100460004000494128BF41F0004130BD14F58004EF
:100470003CBF01F5801130BD01F0004545F0FE4163
:1004800041F470014FF0000030BD7FEA645C1ABF98
:10049000194610467FEA655C1CBF0B46024650EACF
:1004A000013406BF52EA033591EA030F41F40021FB
:1004B00030BD00BF90F0000F04BF0021704730B581
:1004C0004FF4806404F132044FF000054FF0000156
:1004D00050E700BF90F0000F04BF0021704730B517
:1004E0004FF4806404F1320410F0004548BF4042EC
:1004F0004FF000013EE700BF42004FEAE2014FEA41
:1005000031014FEA02701FBF12F07F4393F07F4F1B
:1005100081F06051704732F07F4208BF704793F01E
:100520007F4F04BF41F40021704730B54FF4607431
:1005300001F0004521F000411CE700BF50EA010234
:1005400008BF704730B54FF000050AE050EA0102DD
:1005500008BF704730B511F0004502D5404261EB4D
:1005600041014FF4806404F132045FEA915C3FF48E
:10057000D8AE4FF003025FEADC0C18BF03325FEA2B
:10058000DC0C18BF033202EBDC02C2F1200300FADC
:1005900003FC20FA02F001FA03FE40EA0E0021FA01
:1005A00002F11444BDE600BF70B54FF0FF0C4CF4EF
:1005B000E06C1CEA11541DBF1CEA135594EA0C0FA1
:1005C00095EA0C0F00F0DEF82C4481EA030621EADC
:1005D0004C5123EA4C5350EA013518BF52EA033517
:1005E00041F4801143F4801338D0A0FB02CE4FF0C9
:1005F0000005E1FB02E506F00042E0FB03E54FF0F9
:100600000006E1FB03569CF0000F18BF4EF0010EF0
:10061000A4F1FF04B6F5007F64F5407404D25FEAEC
:100620004E0E6D4146EB060642EAC62141EA55519F
:100630004FEAC52040EA5E504FEACE2EB4F1FD0CE1
:1006400088BFBCF5E06F1ED8BEF1004F08BF5FEA5F
:10065000500E50F1000041EB045170BD06F0004611
:1006600046EA010140EA020081EA0301B4EB5C04BE
:10067000C2BFD4EB0C0541EA045170BD41F48011B6
:100680004FF0000E013C00F3AB8014F1360FDEBFDB
:10069000002001F0004170BDC4F10004203C35DAB7
:1006A0000C341BDC04F11404C4F1200500FA05F33A
:1006B00020FA04F001FA05F240EA020001F00042DB
:1006C00021F0004110EBD37021FA04F642EB060151
:1006D0005EEA430E08BF20EAD37070BDC4F10C047B
:1006E000C4F1200500FA04F320FA05F001FA04F23F
:1006F00040EA020001F0004110EBD37041F100012B
:100700005EEA430E08BF20EAD37070BDC4F1200535
:1007100000FA05F24EEA020E20FA04F301FA05F29D
:1007200043EA020321FA04F001F0004121FA04F245
:1007300020EA020000EBD3705EEA430E08BF20EA15
:10074000D37070BD94F0000F0FD101F0004640004F
:1007500041EB010111F4801F08BF013CF7D041EAD1
:10076000060195F0000F18BF704703F000465200D5
:1007700043EB030313F4801F08BF013DF7D043EAA6
:100780000603704794EA0C0F0CEA135518BF95EA5C
:100790000C0F0CD050EA410618BF52EA4306D1D1E3
:1007A00081EA030101F000414FF0000070BD50EA02
:1007B000410606BF1046194652EA430619D094EA8C
:1007C0000C0F02D150EA013613D195EA0C0F05D176
:1007D00052EA03361CBF104619460AD181EA0301CA
:1007E00001F0004141F0FE4141F470014FF0000082
:1007F00070BD41F0FE4141F4780170BD70B54FF01D
:10080000FF0C4CF4E06C1CEA11541DBF1CEA13559C
:1008100094EA0C0F95EA0C0F00F0A7F8A4EB05047E
:1008200081EA030E52EA03354FEA013100F0888075
:100830004FEA03334FF0805545EA131343EA12633E
:100840004FEA022245EA111545EA10654FEA0026F3
:100850000EF000419D4208BF964244F1FD0404F5AC
:10086000407402D25B084FEA3202B61A65EB030508
:100870005B084FEA32024FF480104FF4002CB6EBC5
:10088000020E75EB030E22BFB61A754640EA0C0045
:100890005B084FEA3202B6EB020E75EB030E22BF85
:1008A000B61A754640EA5C005B084FEA3202B6EBC6
:1008B000020E75EB030E22BFB61A754640EA9C0085
:1008C0005B084FEA3202B6EB020E75EB030E22BF55
:1008D000B61A754640EADC0055EA060E18D04FEA13
:1008E000051545EA16754FEA06164FEAC30343EAB3
:1008F00052734FEAC2025FEA1C1CC0D111F4801F80
:100900000BD141EA00014FF000004FF0004CB6E778
:1009100011F4801F04BF01430020B4F1FD0C88BF17
:10092000BCF5E06F3FF6AFAEB5EB030C04BFB6EB22
:10093000020C5FEA500C50F1000041EB045170BD15
:100940000EF0004E4EEA113114EB5C04C2BFD4EB42
:100950000C0541EA045170BD41F480114FF0000EC6
:10096000013C90E645EA060E8DE60CEA135594EA42
:100970000C0F08BF95EA0C0F3FF43BAF94EA0C0F45
:100980000AD150EA01347FF434AF95EA0C0F7FF4BA
:1009900025AF104619462CE795EA0C0F06D152EA0E
:1009A00003353FF4FDAE1046194622E750EA4106F2
:1009B00018BF52EA43067FF4C5AE50EA41047FF403
:1009C0000DAF52EA43057FF4EBAE12E74FF0FF3C68
:1009D00006E000BF4FF0010C02E000BF4FF0010C39
:1009E0004DF804CD4FEA410C7FEA6C5C4FEA430CB2
:1009F00018BF7FEA6C5C1BD001B050EA410C0CBF01
:100A000052EA430C91EA030F02BF90EA020F002062
:100A1000704710F1000F91EA030F58BF994208BFC9
:100A200090422CBFD8176FEAE37040F00100704786
:100A30004FEA410C7FEA6C5C02D150EA013C07D1DD
:100A40004FEA430C7FEA6C5CD6D152EA033CD3D028
:100A50005DF8040B704700BF8446104662468C4622
:100A60001946634600E000BF01B5FFF7B7FF002855
:100A700048BF10F1000F01BD4DF808EDFFF7F4FF7E
:100A80000CBF012000205DF808FB00BF4DF808ED09
:100A9000FFF7EAFF34BF012000205DF808FB00BF2C
:100AA0004DF808EDFFF7E0FF94BF012000205DF84E
:100AB00008FB00BF4DF808EDFFF7CEFF94BF012003
:100AC00000205DF808FB00BF4DF808EDFFF7C4FFFC
:100AD00034BF012000205DF808FB00BF4FEA410C45
:100AE0007FEA6C5C02D150EA013C0AD14FEA430C28
:100AF0007FEA6C5C02D152EA033C02D14FF0000065
:100B000070474FF0010070474FEA410212F50012A2
:100B100015D211D56FF47873B3EB625212D94FEA44
:100B2000C12343F0004343EA505311F0004F23FA2E
:100B300002F018BF404270474FF00000704750EA83
:100B4000013005D111F0004008BF6FF00040704740
:100B50004FF00000704700BF53B94AB9002908BFE1
:100B600000281CBF4FF0FF314FF0FF3000F06AB992
:100B7000ADF1080C6DE904CE00F006F8DDF804E0F4
:100B8000DDE9022304B070472DE9F047089D0C46CB
:100B9000002B4ED194468C458646B2FA82F262D939
:100BA0004AB1C2F12003914020FA03F30CFA02FC8F
:100BB000194300FA02FE4FEA1C471FFA8CF6B1FBFC
:100BC000F7F44FEA1E4307FB141143EA014304FB09
:100BD00006F199420AD91CEB030304F1FF3080F0BF
:100BE0001281994240F20F81023C6344591A1FFA64
:100BF0008EF3B1FBF7F007FB101143EA014300FB52
:100C000006F69E420AD91CEB030300F1FF3180F087
:100C1000FC809E4240F2F980634402389B1B40EA0C
:100C2000044000211DB1D3400022C5E90032BDE8D7
:100C3000F0878B4205D90DB1C5E9000100210846B6
:100C4000F5E7B3FA83F1002946D1A34202D39042DB
:100C5000C0F0F080861A64EB03030120002DE6D07B
:100C6000C5E90063E3E7002A40F09080A1EB0C04A3
:100C70004FEA1C481FFA8CF70121B4FBF8F64FEA43
:100C80001E4308FB164443EA044307FB06F0984260
:100C900008D91CEB030306F1FF3402D2984200F29C
:100CA000CD8026461C1A1FFA8EF3B4FBF8F008FB21
:100CB000104443EA044300FB07F79F4208D91CEBAA
:100CC000030300F1FF3402D29F4200F2B0802046BD
:100CD000DB1B40EA0640A5E7C1F120068B4022FA63
:100CE00006F71F4320FA06FC04FA01F343EA0C035B
:100CF000F44000FA01F8380C4FEA1349B4FBF0FE57
:100D00001FFA87FC00FB1E4449EA04440EFB0CF961
:100D1000A14502FA01F20AD93C190EF1FF3A80F01E
:100D20008480A14540F28180AEF1020E3C44A4EBE8
:100D300009041FFA83F9B4FBF0F300FB134449EAFA
:100D4000044403FB0CFCA44507D93C1903F1FF3014
:100D500067D2A44565D9023B3C4443EA0E40A0FB60
:100D60000293A4EB0C049C42CE469C4651D34ED039
:100D700055B1B8EB0E0364EB0C0404FA06F6CB4055
:100D80001E43CC40C5E90064002150E7C2F12003B6
:100D900020FA03F10CFA02FC24FA03F394400C430A
:100DA0004FEA1C4800FA02FE1FFA8CF7B3FBF8F07A
:100DB00008FB1031230C43EA014300FB07F1994281
:100DC00008D91CEB030300F1FF362CD299422AD933
:100DD000023863445B1AA4B2B3FBF8F108FB113389
:100DE00044EA034401FB07F3A34208D91CEB0404C3
:100DF00001F1FF3613D2A34211D902396444E41A37
:100E000041EA004139E70446F0E6084606E7C845EE
:100E1000AED2B9EB020E63EB070C0138A8E73146FE
:100E2000EDE7034699E73046D4E7D6467FE76344CB
:100E300002384DE70646234608460FE7023E634464
:100E400030E700BF704700BFD458C4500433C41803
:100E50008C42F9D37047036004308842FBD370475B
:100E60000C48854609F064FA0B480C490C4A0023EB
:100E7000FFF7EDFF0B480C490023FFF7EEFF0B488F
:100E80000B490023FFF7E9FF13F0B2F901F0CCFCA6
:100E9000FEE700000000032008000020EC03002013
:100EA00038D301085004002060260020E40103200C
:100EB000670A0320FEE7000080B483B000AF7860CB
:100EC000064BD3F8902005497B681343C1F8903056
:100ED00000BF0C37BD465DF8047B70470008005822
:100EE00080B485B000AF78604FF0B043DA6C4FF05B
:100EF000B0417B681343CB644FF0B043DA6C7B683E
:100F00001340FB60FB6800BF1437BD465DF8047BEF
:100F1000704780B485B000AF78604FF0B043D3F82D
:100F20004C214FF0B0417B681343C1F84C314FF076
:100F3000B043D3F84C217B681340FB60FB6800BFD3
:100F40001437BD465DF8047B704780B500AF09F0EB
:100F5000B5FA09F0B9FA4FF48030FFF7ADFF0FF0A2
:100F600025FE00F021F800F0C1F800BF80BD0000B0
:100F7000B0B588B000AF0B4B3C1D1D460FCD0FC464
:100F800095E8070003C422800234130C237011F08B
:100F90006DFB3B1D184610F07EFA00BF2037BD46A2
:100FA000B0BD00BF5860010880B588B000AF3B1DE0
:100FB00000221A605A609A60DA601A610023BB83CB
:100FC00000237B8300233B830023FB7736E0FB7FFA
:100FD000434ADB0013449B79002B2CD0FB7F404A13
:100FE00052F833303F4A93421BD03E4A934221D8B5
:100FF000B3F1904F03D03C4A934209D01AE0FB7FF3
:10100000374ADB0013449A88BB8B1343BB8312E03F
:10101000FB7F334ADB0013449A887B8B13437B832B
:1010200009E0FB7F2E4ADB0013449A883B8B134375
:101030003B8300E000BFFB7F0133FB77FB7F252B69
:10104000C5D90023FB600123BB6003233B61BB8B3D
:10105000002B14D0BB8B7B600120FFF741FF0120E8
:10106000FFF757FF3B1D19464FF0904009F074FE03
:10107000BB8B002219464FF090400AF0D3F87B8BCF
:10108000002B12D07B8B7B600220FFF729FF022010
:10109000FFF73FFF3B1D1946134809F05DFE7B8BB0
:1010A0000022194610480AF0BDF83B8B002B13D0E4
:1010B0003B8B7B600420FFF713FF0420FFF729FF21
:1010C0003B1D1946074809F047FE3B8B0022194695
:1010D00004480AF0A7F800BF00BF2037BD4680BD16
:1010E000087E0108000800480004004880B400AFF2
:1010F00000BFBD465DF8047B704780B500AF01F0CE
:1011000047FB00BF80BD000080B483B000AF7860B3
:10111000074BD3F8803023F0070205497B6813435F
:10112000C1F8803000BF0C37BD465DF8047B7047C6
:101130000004005880B483B000AF7860064BD3F849
:10114000902005497B681343C1F8903000BF0C37ED
:10115000BD465DF8047B70470008005880B483B03A
:1011600000AF78604FF0B0430A4AC3F89C204FF0BC
:10117000B043D3F89C3023F47C527B681B024FF0C1
:10118000B0411343C1F89C3000BF0C37BD465DF839
:10119000047B7047FECAFECA80B483B000AF78609B
:1011A0004FF0B0439B6823F400424FF0B0417B689E
:1011B00013438B6000BF0C37BD465DF8047B70475E
:1011C00080B400AF044B1B68C3F30B031846BD4645
:1011D0005DF8047B704700BF002004E080B400AFDE
:1011E000044B1B681B0C9BB21846BD465DF8047B84
:1011F000704700BF002004E080B400AF054B1B69BE
:10120000044A23F00403136100BFBD465DF8047B6C
:10121000704700BF00ED00E080B483B000AF78609D
:101220007B68FF225A6200BF0C37BD465DF8047B25
:10123000704780B483B000AF78607B68CA225A627E
:101240007B6853225A6200BF0C37BD465DF8047BB1
:10125000704780B483B000AF786039607B689B686A
:1012600023F007023B681A437B689A6000BF0C3783
:10127000BD465DF8047B704780B500AF044B4FF46A
:1012800000421A6100F060F800F065F800BF80BD10
:101290000040005880B500AF00F071F800F08AF807
:1012A0001E49002000F072FFFFF74FFE01210120D0
:1012B00011F096FD0021002008F014FC184811F0F0
:1012C00061FA002011F0B4FA0021002008F02EFE8F
:1012D000002008F0D7FC002008F000FD114811F0B4
:1012E000EFFAFF2011F0C4FA002011F0D5FA002126
:1012F000002008F01BFE002008F0F0FC01230A4A41
:101300000021002011F052FB002008F0E7FC00F063
:1013100085FA00F05DF800BF80BD00BF4C050020DD
:1013200028CA0108140200207460010880B400AFCC
:1013300000BFBD465DF8047B704780B500AF50200C
:10134000FFF7F8FE00BF80BD80B400AF00BFBD4610
:101350005DF8047B704780B582B000AF002010F0CC
:101360005BF878607B68002B05D07B689B7918461A
:10137000FFF7F4FE00BF00BF0837BD4680BD80B553
:1013800000AFFFF7D3FFFFF7D8FF00F003F800BF6F
:1013900080BD000080B500AF0548FFF74AFF00217F
:1013A0000348FFF756FF0248FFF736FF00BF80BD36
:1013B0000028004080B500AF4FF40040FFF7ECFE7E
:1013C00011F0FCFC0420FFF79FFE00BF80BD000071
:1013D00080B588B000AF10F093FF114A00212020A3
:1013E00011F02AFE0F4B3B600F4B7B603B461946CA
:1013F0000E4810F02BF90E4BBB600E4BFB600E4BF2
:101400003B6140F23C537B6107F10803184611F041
:10141000B9F810F06FFF00BF2037BD4680BD00BF98
:1014200085160108340703203D14000855140008F0
:101430004C09032040080320F801032080B483B046
:1014400000AF0346FB7100BF0C37BD465DF8047B5F
:101450007047000080B588B000AF78607B685B683B
:101460000B33FB61FB691B889BB2A3F51243072B6F
:1014700000F2D08001A252F823F000BF9D140008B2
:101480002F150008511500081516000895150008BD
:10149000B9150008D5150008F915000807F10C0367
:1014A000184610F025F85E480FF057FB01464FF440
:1014B000C8735C4A5C4812F0B5FC3B7B19467B7BE9
:1014C0001A46BB7B594812F0ADFC55480FF045FB5E
:1014D000014640F29113534A534812F0A3FC3B7C5F
:1014E0001946534812F09EFC4D480FF036FB01465A
:1014F0004FF4C9734B4A4C4812F094FCBB7D19461B
:10150000FB7D1A463B7E4B4812F08CFC44480FF0A2
:1015100024FB01464FF4CA73424A434812F082FC4E
:10152000454812F0E7FC786800F0E0F873E03C48CA
:101530000FF013FB014640F299133A4A3A4812F071
:1015400071FC3E4812F0D6FC786800F085F862E045
:1015500033480FF002FB01464FF4CF73314A324853
:1015600012F060FC364812F0C5FC2D480FF0F5FA79
:10157000014640F29F132B4A2B4812F053FCFB69A3
:1015800002331968FB6902335B681A462D4812F072
:1015900049FC40E022480FF0E0FA014640F2A51372
:1015A000204A214812F03EFCFB6902331B681946B1
:1015B000254812F037FC2EE019480FF0CEFA01460C
:1015C0004FF4D573174A184812F02CFC1F4812F03C
:1015D00091FC20E012480FF0C0FA01464FF4D77397
:1015E000104A114812F01EFCFB6902331B681946B1
:1015F000174812F017FC0EE009480FF0AEFA01464A
:1016000040F2B313074A084812F00CFC114812F0DC
:1016100071FC00E000BF00BF2037BD4680BD00BFA9
:1016200088600108387F01081061010828610108FD
:10163000506101087061010888610108A861010812
:10164000CC6101081C62010848620108846201083B
:10165000A8620108E462010880B584B000AF786038
:101660007B685B680B33FB60FB680233BB60194827
:101670000FF073FA014640F2CB13174A174812F0E5
:10168000D1FBBB681B781946154812F0CBFBBB6831
:101690001B78002B0DD10F480FF05FFA01464FF475
:1016A000E8730D4A0D4812F0BDFB0E4812F022FC03
:1016B0000DE008480FF051FA01464FF4EA73064A6C
:1016C000064812F0AFFB084812F014FC00BF1037B8
:1016D000BD4680BD886001084C7F0108106101088B
:1016E000086301083C6301087863010880B58AB08B
:1016F00000AF786007F1080300221A605A609A6010
:10170000DA6000237B6200233B627B685B680B33FB
:10171000FB61FB690233BB61BB691B78002B46D1BF
:1017200036480FF01AFA01464FF4F573344A35483B
:1017300012F078FB344812F0DDFBFFF719FC0F23A1
:101740003B727F23BB72FFF749FD78622B480FF095
:1017500004FA014640F20223294A2A4812F062FBA9
:10176000796A2A4812F05EFB7B6A9BB2BB82FFF764
:1017700027FD386221480FF0F0F9014640F20723B7
:101780001F4A204812F04EFB396A214812F04AFBEA
:101790003B6A9BB2FB8207F1080318460FF092FEEA
:1017A00002F05AF80021012011F01AFB22E0BB6977
:1017B0001B78012B10D111480FF0CFF901464FF4DF
:1017C00005730F4A0F4812F02DFB124812F092FBDE
:1017D0007B6800221A700DE008480FF0BEF9014640
:1017E00040F21B23064A074812F01CFB0A4812F07D
:1017F00081FB00BF2837BD4680BD00BF886001085F
:10180000607F010810610108B4630108D06301081A
:10181000F4630108186401084C64010880B500AF46
:101820000121002007F0AAFF0121012007F0A6FFF7
:1018300000BF80BD80B584B000AF786008F01AFEAC
:10184000B8607B68FB60FB68B3F1FF3F0AD008F02B
:1018500029FE03461A46FB681344FB6002E0FFF7CB
:10186000CBFC30BF08F006FE0246BB68D31AFA680C
:101870009A42F4D800BF00BF1037BD4680BD80B586
:1018800000AF4FF0FF3011F0DBFA00BF80BD80B435
:1018900000AF00BFBD465DF8047B704780B582B0E5
:1018A00000AF786039604FF0FF3011F0C9FA00BF27
:1018B0000837BD4680BD80B582B000AF786000219A
:1018C000202011F0DBFB00BF0837BD4680BD80B58E
:1018D00082B000AF7860022011F03CFC00BF0837F6
:1018E000BD4680BD80B582B000AF7860022011F0A7
:1018F00051FC00BF0837BD4680BD000080B582B0F6
:1019000000AF0346FB80FB88B3F5005F1FD0B3F543
:10191000005F1FDC102B0EDC022B1BDB1A46104B6A
:10192000D34003F00103002B14BF01230023DBB2DB
:10193000002B04D10EE0B3F5805F05D00AE0FB88F0
:10194000184606F0CFFE06E002F04CFD03E002F080
:1019500081FD00E000BF00BF0837BD4680BD00BF6D
:101960001401010080B483B000AF7860064BD3F857
:10197000802005497B681343C1F8803000BF0C37D5
:10198000BD465DF8047B70470008005880B483B002
:1019900000AF7860054B1A6804497B6813430B60FD
:1019A00000BF0C37BD465DF8047B70470008005847
:1019B00080B483B000AF0D4B9B6A9BB27B600B4B36
:1019C0009B6A9BB23B6005E03B687B60074B9B6A70
:1019D0009BB23B607A683B689A42F5D13B681846F7
:1019E0000C37BD465DF8047B704700BF00280040FF
:1019F00080B485B000AF03460A46FB711346BB7145
:101A0000BA791D4913465B001344DB000B441533C0
:101A10001B78FB73FB7B062B09D0FA7B1649134618
:101A20005B001344DB000B441433FA791A70FA7923
:101A3000114913465B001344DB000B441533FA7B5A
:101A40001A70FA790C4913465B001344DB000B440F
:101A50001433BA791A70BA79074913465B001344F4
:101A6000DB000B441533FA791A7000BF1437BD46FA
:101A70005DF8047B704700BF6C04002080B485B023
:101A800000AF03460A46FB711346BB71294B1B7816
:101A9000DBB2BA799A4232D0BA79274913465B0051
:101AA0001344DB000B4414331B78FB73FA7B22498D
:101AB00013465B001344DB000B441533FA791A70AC
:101AC000FA791D4913465B001344DB000B441533C0
:101AD000BA791A70FA79184913465B001344DB008F
:101AE0000B441433FA7B1A70BA79134913465B001E
:101AF0001344DB000B441433FA791A7014E0FA79BA
:101B00000D4913465B001344DB000B441533BA79CF
:101B10001A70BA79084913465B001344DB000B4482
:101B20001433FA791A7000BF1437BD465DF8047B90
:101B3000704700BFFC0400206C04002080B584B016
:101B400000AF0346FB714E4B1B78DBB2062B18D15E
:101B50004B4B1B78DAB24B4B1A70494AFB79137026
:101B6000FA79494913465B001344DB000B441533F3
:101B700006221A70454B4FF0FF321A600023FB819A
:101B800078E000F009F90346FB81FA793E491346F3
:101B90005B001344DB000B4408331968FB89FA79B6
:101BA0001944394813465B001344DB0003440833EF
:101BB0001960FA79344913465B001344DB000B4487
:101BC00008331B68BB602E4B1B78DBB219462E4ACC
:101BD0000B465B000B44DB00134408331B68BA68F8
:101BE0009A4237D3264B1B787B737A7B2649134660
:101BF0005B001344DB000B4415331B783B7313E08D
:101C00007A7B214913465B001344DB000B441533F8
:101C10001B787B737A7B1C4913465B001344DB0003
:101C20000B4415331B783B733B7B062B0BD03A7B65
:101C3000154913465B001344DB000B4408331B6853
:101C4000BA689A42DCD27A7BFB7911461846FFF7D4
:101C5000CFFE0FE00A4B1B78DAB2FB79114618462B
:101C6000FFF70CFF064B1B78DAB2064B1A70044ADA
:101C7000FB791370FB8918461037BD4680BD00BF45
:101C8000FC040020FD0400206C040020000500205E
:101C900080B485B000AF03460A46FB711346BB71A2
:101CA000394B1B78DBB2FA799A4211D1364B1B784B
:101CB000DAB2364B1A70FA79354913465B00134491
:101CC000DB000B4415331B78DAB22F4B1A703EE061
:101CD000FA792F4913465B001344DB000B4414339D
:101CE0001B78FB73FA792A4913465B001344DB0027
:101CF0000B4415331B78BB73F979FA7B24480B46E8
:101D00005B000B44DB00034415331B78D8B2204939
:101D100013465B001344DB000B44153302461A7074
:101D2000BB7B062B13D0F979BA7B19480B465B00B5
:101D30000B44DB00034414331B78D8B21449134618
:101D40005B001344DB000B44143302461A70FA792B
:101D50000F4913465B001344DB000B440C33012294
:101D60001A70094B1B78DBB2062B07D1BB79002B0D
:101D700004D1084B4FF0FF321A6000BF00BF143788
:101D8000BD465DF8047B7047FC040020FD04002084
:101D90006C0400200005002080B582B000AF1A4B13
:101DA0001B68B3F1FF3F26D0FFF702FE7860164BA9
:101DB0001B687A689A4205D8134B1A687B68D31A55
:101DC0007B600AE0114B1B881A467B68D31A3B6084
:101DD0000D4B1B683A6813447B600D4B1B781A4609
:101DE0007B6802FB03F37B600A4B1B781A467B6817
:101DF000D3407B6001E000237B607B689BB2184688
:101E00000837BD4680BD00BF000500200805002042
:101E1000060500200505002080B582B000AF03460E
:101E2000FB80FB88002B08D1FFF7C2FD0346214A47
:101E30001360032008F0CBFC39E0FB88012B03D8AA
:101E40001D4B1B78012B02D0FB88013BFB8000BFA0
:101E50001A4B1B68DB6803F00403002BF8D0174B08
:101E60001B68DB68DAB2154B1B6862F49062DA60BB
:101E7000134B4FF40022DA60032008F0B6FC114B3C
:101E80005B691B0C1B04FA880E4913434B61FFF777
:101E90008FFD0346074A1360084B1B689A68074B7F
:101EA0001B6842F480629A60AFF3008000BF08377D
:101EB000BD4680BD00050020050500204C05002022
:101EC000000800580028004080B584B000AF454BA2
:101ED0009B6803F48063B3F5806F07D100BF424B6A
:101EE0001B68DB6803F00403002BF8D13E4B1B6832
:101EF0009A683D4B1B6822F480629A603B4B1B78CA
:101F0000FB73FA7B3A4913465B001344DB000B4436
:101F100008331B68BB60FFF73FFF0346FB80FB886D
:101F2000BA689A4205D20023BB81324B01221A7053
:101F30004DE0FB88304A128892B213441A46BB68BF
:101F4000934206D92C4B1B88BB812A4B00221A7066
:101F50003DE0BB689AB2FB88D31ABB81254B0122B6
:101F60001A7034E0FA7B224913465B001344DB000D
:101F70000B4408331A68FB889A420AD2FA7B1C4940
:101F800013465B001344DB000B44083300221A6045
:101F900013E0FA7B164913465B001344DB000B4445
:101FA00008331968FB88FA7BC91A114813465B008D
:101FB0001344DB00034408331960FA7B0C491346D1
:101FC0005B001344DB000B4415331B78FB73FB7B76
:101FD000062BC7D1BB891846FFF71EFF00BF10377D
:101FE000BD4680BD002800404C050020FC040020B8
:101FF0006C040020040500200A05002080B58AB08A
:1020000000AFEFF310837B617B697B6272B600BF28
:10201000594B1B68CA225A62574B1B6853225A629B
:10202000554B1B689A68544B1B6822F480629A6077
:10203000524B1B7887F8233097F8232050491346DA
:102040005B001344DB000B440C331B78DBB2022B28
:102050006ED197F823204A4913465B001344DB00F6
:102060000B441B68FB6197F82320454913465B002E
:102070001344DB000B4410331B68BB61414B1B78DE
:10208000DBB2002B4CD097F823203D4913465B0070
:102090001344DB000B440D331B78DBB2012B24D13E
:1020A00097F8233001211846FFF7F2FD7B6A3B6168
:1020B0003B6983F3108800BF97F82320304913460B
:1020C0005B001344DB000B4404331A6897F8233099
:1020D0001146184600F032FA274B1B68CA225A6292
:1020E000254B1B6853225A6212E07B6AFB60FB6837
:1020F00083F3108800BF97F82330184600F09AF950
:102100001D4B1B68CA225A621B4B1B6853225A6222
:1021100097F82330FA691946B86900F095FA22E079
:10212000FFF7D2FE7B6ABB60BB6883F310881AE0BE
:1021300000BF114B1B68DB6803F00403002BF8D0D1
:102140000D4B1B68DB68DAB20B4B1B6862F49062C4
:10215000DA600D4B4FF40022DA607B6A7B607B68AB
:1021600083F3108800BF044B1B68FF225A6200BF34
:102170002837BD4680BD00BF4C050020FC04002070
:102180006C040020040500200008005880B588B0C9
:1021900000AF03463960FB715E4B1B68CA225A626E
:1021A0005C4B1B6853225A625B4B9B685A4A43F054
:1021B00020039360584B9B68DBB203F00703DBB24C
:1021C000C3F10403DAB2554B1A70534B1B6903F485
:1021D000FE034FF4FE023A613A6992FAA2F2FA6003
:1021E000FA687A617A69002A01D1202203E07A69CB
:1021F000B2FA82F2D2B2D340DBB20133DAB2484B48
:102200001A70454B1B699BB2C3F30E039BB201339B
:102210009AB2444B1A80434B1B88013B404A1278C8
:1022200002FB03F3A3F5A0733C4A1278D340BB61D1
:10223000BB694FF6FE72934204D93B4B4FF6FF72D7
:102240001A8003E0BB699AB2374B1A804FF4002022
:10225000FFF79CFB4FF40020FFF784FBFB79002B7A
:102260003DD1324B01221A70314B4FF0FF321A60D0
:102270000023FB770CE0FA7F2E4913465B001344E2
:10228000DB000B440C3300221A70FB7F0133FB7719
:10229000FB7F052BEFD9284B06221A701D4B1B68BC
:1022A0009A681C4B1B6822F480629A60194B1B6869
:1022B000DB68DAB2174B1B6862F49062DA601F4B7E
:1022C0004FF40022DA60032008F08FFA114B1B68EC
:1022D0009A68104B1B6842F480429A6009E00D4BEB
:1022E0001B68DB6803F48063002B02D0032008F036
:1022F0006EFA084B1B68FF225A620022032103205A
:1023000008F023FA032008F03AFA00BF2037BD4650
:1023100080BD00BF4C0500200028004005050020BE
:1023200006050020080500200A05002004050020FD
:10233000000500206C040020FC0400200008005868
:1023400080B48BB000AFF860B9603B601346FB719E
:10235000002387F82630EFF31083FB61FB693B62B3
:1023600072B600BF04E097F82630013387F82630B4
:1023700097F82630052B0CD897F826202C491346C1
:102380005B001344DB000B440C331B78DBB2002BE7
:10239000E9D197F82630062B38D097F82620244923
:1023A00013465B001344DB000B440C3301221A700C
:1023B0003B6ABB61BB6983F3108800BF97F8262096
:1023C0001B4913465B001344DB000B441033FA68CF
:1023D0001A6097F82620164913465B001344DB0069
:1023E0000B440D33FA791A7097F8262010491346DA
:1023F0005B001344DB000B443A681A60BB6897F833
:1024000026201A70002387F8273008E03B6A7B619A
:102410007B6983F3108800BF012387F8273097F882
:10242000273018462C37BD465DF8047B704700BF47
:102430006C04002080B586B000AF0346FB71EFF35B
:102440001083FB60FB687B6172B600BF032008F05D
:10245000A4F9344B1B68CA225A62324B1B685322C0
:102460005A62FA79304913465B001344DB000B448F
:102470000C331B78DBB2022B42D1FB7900211846CA
:10248000FFF706FC294B1B78FB74FB7C062B2FD136
:10249000274B9B6803F48063B3F5806F07D100BFBF
:1024A000204B1B68DB6803F00403002BF8D11D4BA5
:1024B0001B689A681B4B1B6822F480629A6000BFFD
:1024C000184B1B68DB6803F00403002BF8D0154B96
:1024D0001B68DB68DAB2134B1B6862F49062DA6047
:1024E000144B4FF40022DA60032008F07EF907E075
:1024F000114B1B78DBB2FA7C9A4201D0FFF7E4FC67
:10250000084B1B68FF225A62032008F038F97B69E8
:10251000BB60BB6883F3108800BF00BF1837BD469F
:1025200080BD00BF4C0500206C040020FC0400208E
:102530000028004000080058FD04002080B586B047
:1025400000AF03463960FB71FA793B4913465B00E3
:102550001344DB000B440C331B78DBB2022B03D19A
:10256000FB791846FFF766FFEFF31083FB60FB680B
:102570007B6172B600BF032008F00FF92F4B1B6878
:10258000CA225A622D4B1B6853225A62FA792A4991
:1025900013465B001344DB000B440C3302221A7019
:1025A000FA79254913465B001344DB000B440833DA
:1025B0003A681A60FA79204913465B001344DB003D
:1025C0000B4404333A681A60FB791846FFF7B6FAF1
:1025D00003467B821A4B1B787B741A4B1B78DBB249
:1025E0007A7C9A4202D0FFF76FFC13E0FA79124925
:1025F00013465B001344DB000B44083319687B8AE5
:10260000FA79C91A0C4813465B001344DB000344F3
:1026100008331960094B1B68FF225A62032008F037
:10262000AEF87B69BB60BB6883F3108800BF00BF56
:102630001837BD4680BD00BF6C0400204C0500204B
:10264000FC040020FD04002080B584B000AFF860D9
:102650000B467A60FB727B68984700BF1037BD4617
:1026600080BD000080B582B000AF78607B681B68D9
:102670001A46094B9A4207D1084B1B68002B05D01C
:10268000064B1B68984701E000BF00E000BF00BF99
:102690000837BD4680BD00BF008000400C0500200B
:1026A00080B483B000AF78604FF0B043D3F890307F
:1026B00023F018024FF0B0417B681343C1F890300B
:1026C00000BF0C37BD465DF8047B704780B485B011
:1026D00000AF78604FF0B0439A6C4FF0B0417B6828
:1026E00013438B644FF0B0439A6C7B681340FB60DC
:1026F000FB6800BF1437BD465DF8047B704780B4AB
:1027000085B000AF78604FF0B043DA6C4FF0B04165
:102710007B681343CB644FF0B043DA6C7B681340A3
:10272000FB60FB6800BF1437BD465DF8047B704753
:1027300080B483B000AF78607B68FF225A6200BF2C
:102740000C37BD465DF8047B704780B483B000AFA2
:1027500078607B68CA225A627B6853225A6200BF43
:102760000C37BD465DF8047B704780B483B000AF82
:10277000786039607B689B6823F007023B681A43E6
:102780007B689A6000BF0C37BD465DF8047B7047DC
:1027900080B500AF224B234A1A60214B4FF4E1323F
:1027A0005A601F4B00229A601D4B0022DA601C4BBE
:1027B00000221A611A4B0C225A61194B00229A61AD
:1027C000174B00221A62164B00225A62144B002249
:1027D0009A62134B00225A6611480BF013FD034610
:1027E000002B01D000F06DFC00210D480CF01BFE09
:1027F0000346002B01D000F064FC002108480CF0D7
:1028000050FE0346002B01D000F05BFC04480CF0A6
:10281000D1FD0346002B01D000F053FC00BF80BD6A
:10282000640600200080004080B500AF07F0B4FDD2
:10283000FEF722FD00F01EF800F078F800F096F8A0
:1028400000F038FC00F0F4F800F0E0F800F0AAF82E
:10285000FFF79EFF00F09EF800F0C8FB00F004FCBC
:10286000FEF718FD05F000FF03F024F8FFF707F866
:10287000FCE7000080B59AB000AF07F120034822C2
:102880000021184611F036FC3B1D00221A605A60E8
:102890009A60DA601A615A619A6108F09DFD102011
:1028A000FFF7FEFE204B1B6823F4C0631E4A43F46F
:1028B000007313601C4B1B6803F4C0633B603B68F0
:1028C00007233B624FF480337B620123BB624FF4EA
:1028D0008073FB6240233B630023FB6407F120030A
:1028E000184609F0C7F90346002B01D000F0E9FBB8
:1028F0006F237B600223BB600023FB6000233B61EE
:1029000000237B610023BB610023FB613B1D012190
:10291000184609F023FD0346002B01D000F0D1FB3F
:1029200000BF6837BD4680BD0004005880B594B034
:1029300000AF3B4650220021184611F0DBFB4FF45C
:1029400040533B604FF480437B640223BB6400230D
:10295000FB643B4618460AF03EF90346002B01D0C3
:1029600000F0AFFB00BF5037BD4680BD80B500AF63
:10297000064B074A1A60054808F0A8FC0346002BDE
:1029800001D000F09EFB00BF80BD00BF10050020FD
:10299000000C005880B400AF00BFBD465DF8047B5A
:1029A0007047000080B500AF164B174A1A60154BF0
:1029B00000225A60134B0F229A60124B47F6FF72A7
:1029C000DA60104B00221A610E4B00229A610D4B07
:1029D0000022DA610B4B00225A610A480AF082FB9E
:1029E0000346002B01D000F06CFB0748FFF7ADFE5B
:1029F00000210548FFF7B9FE0348FFF799FE00BF25
:102A000080BD00BF4C0500200028004080B500AF0D
:102A10000420FFF75BFE0220FFF758FE00220F2183
:102A20003A2007F092FE3A2007F0A9FE00BF80BDD1
:102A300080B586B000AF3B1D00221A605A609A60D4
:102A4000DA601A610120FFF75AFE0420FFF757FEF3
:102A50000220FFF754FE0820FFF751FE1020FFF779
:102A60004EFE8020FFF74BFE00220321BF4808F0F6
:102A7000D9FB00224FF44071BD4808F0D3FB00227F
:102A80004FF48071BB4808F0CDFB00220421BA4806
:102A900008F0C8FB00220121B64808F0C3FB002261
:102AA0004021B34808F0BEFB01224021B34808F0A2
:102AB000B9FB012220214FF0904008F0B3FB3A23EC
:102AC0007B600323BB600023FB603B1D1946A848C5
:102AD00008F042F940F604437B600023BB6000230A
:102AE000FB603B1D1946A24808F036F94FF400730D
:102AF0007B600223BB600023FB6000233B610A2351
:102B00007B613B1D19469D4808F026F901237B6037
:102B10000223BB600023FB6000233B6108237B6131
:102B20003B1D1946924808F017F94FF480737B60FB
:102B30001223BB600023FB6000233B6104237B6105
:102B40003B1D19468D4808F007F94FF481537B600F
:102B50000223BB600023FB6000233B6108237B61F1
:102B60003B1D1946854808F0F7F84FF400437B6099
:102B70000223BB600023FB6000233B6101237B61D8
:102B80003B1D19464FF0904008F0E6F84FF4806383
:102B90007B601223BB600023FB6000233B610423A6
:102BA0007B613B1D19464FF0904008F0D5F84FF47B
:102BB000C0537B600223BB600023FB6000233B61AA
:102BC0000A237B613B1D19464FF0904008F0C4F882
:102BD00012237B600023BB600023FB603B1D194672
:102BE000654808F0B9F84FF480637B600223BB604E
:102BF0000023FB6000233B6101237B613B1D1946E1
:102C00005E4808F0A9F804237B600023BB60002322
:102C1000FB603B1D1946594808F09EF84FF440737D
:102C20007B600223BB600023FB6000233B61032326
:102C30007B613B1D19464FF0904008F08DF8402312
:102C40007B600223BB600023FB6000233B61082301
:102C50007B613B1D19464FF0904008F07DF808233A
:102C60007B600223BB600023FB6000233B610A23DF
:102C70007B613B1D19464FF0904008F06DF803232F
:102C80007B600123BB600023FB6000233B613B1D95
:102C90001946364808F060F84FF440437B60022341
:102CA000BB600023FB6000233B6101237B613B1D74
:102CB0001946304808F050F843F210037B600023B7
:102CC000BB600023FB603B1D19462A4808F044F80E
:102CD0004FF401737B604FF48813BB600023FB60EB
:102CE0003B1D1946234808F037F84FF440737B60CA
:102CF0000123BB600023FB6000233B613B1D1946A1
:102D00001B4808F029F868237B600223BB6000237E
:102D1000FB6000233B610A237B613B1D194615487C
:102D200008F01AF808237B604FF48813BB60002377
:102D3000FB603B1D1946104808F00EF84FF48073F5
:102D40007B600123BB600023FB6000233B613B1DD4
:102D50001946084808F000F84FF440637B600223EE
:102D6000BB600023FB6000230AE000BF001C00489A
:102D700000080048000C004800100048000400480B
:102D80003B6109237B613B1D1946724807F0E4FF54
:102D900004237B600123BB600023FB6000233B61B5
:102DA0003B1D19466C4807F0D7FF01237B600223C7
:102DB000BB600023FB6000233B610E237B613B1D56
:102DC0001946654807F0C8FF01237B600123BB60FB
:102DD0000023FB6000233B613B1D19465D4807F063
:102DE000BBFF02237B600023BB600223FB603B1D13
:102DF0001946584807F0B0FF40237B600123BB60B1
:102E00000023FB6000233B613B1D1946534807F03C
:102E1000A3FF40237B600123BB600123FB600123F0
:102E20003B613B1D19464E4807F096FF20237B600F
:102E30000123BB600123FB6002233B613B1D19465C
:102E40004FF0904007F088FF00224FF400414FF010
:102E5000904008F0E7F9012210214FF0904008F06F
:102E6000E1F9002202213C4808F0DCF906237B60EE
:102E70004FF48813BB600023FB603B1D19464FF0E5
:102E8000904007F069FF18237B604FF48813BB6004
:102E90000023FB603B1D1946304807F05DFF4FF4EF
:102EA00080637B600123BB600023FB6000233B61E8
:102EB0003B1D1946294807F04FFF48F210037B607D
:102EC0000123BB600023FB6000233B613B1D1946CF
:102ED0004FF0904007F040FF4FF480437B600023A9
:102EE000BB600023FB603B1D19461A4807F034FF06
:102EF00002237B600123BB600023FB6000233B6156
:102F00003B1D1946144807F027FF00220521072022
:102F100007F01BFC072007F032FC002205210820E7
:102F200007F013FC082007F02AFC002205210920E5
:102F300007F00BFC092007F022FC002205210A20E3
:102F400007F003FC0A2007F01AFC00BF1837BD4643
:102F500080BD00BF000C0048001000480008004879
:102F60000004004880B582B000AF786039601D4B26
:102F70001D4A1A601B4B4FF482725A60194B002293
:102F80009A60184B4FF4E062DA60164B00221A6127
:102F9000144B00225A61134B4FF400729A61114B8B
:102FA0000022DA610F4B00221A620E4B00225A6295
:102FB0000C4B00229A620B4B0722DA62094B00226B
:102FC0001A63084B08225A6306480AF0C1F90346FF
:102FD000002B01D000F075F800BF18460837BD4639
:102FE00080BD00BF580700200030014080B500AF11
:102FF0001B4B1C4A1A601A4B4FF482725A60184BD2
:1030000000229A60164B4FF4E062DA60144B002203
:103010001A61134B00225A61114B4FF400729A61EE
:103020000F4B2022DA610E4B00221A620C4B002259
:103030005A620B4B00229A62094B0722DA62084B54
:1030400000221A63064B08225A6305480AF080F9E9
:103050000346002B01D000F034F800BF80BD00BF54
:10306000BC0700200038004080B500AF0F4B104A6D
:103070001A600E4B02225A600C4B01229A600B4BD5
:103080000022DA60094B17221A61084B00225A61AC
:10309000064B00229A61054808F0BCF90346002B54
:1030A00001D000F00EF800BF80BD00BF2008002056
:1030B000001000A080B400AF00BFBD465DF8047BE7
:1030C000704780B400AF72B600BF00BFFDE780B4A8
:1030D00083B000AF78604FF0B043D3F8903023F462
:1030E00040724FF0B0417B681343C1F8903000BF8D
:1030F0000C37BD465DF8047B704780B400AF4FF0DD
:10310000B043D3F890304FF0B04243F40043C2F8DC
:10311000903000BFBD465DF8047B704780B485B039
:1031200000AF78604FF0B043DA6C4FF0B0417B688D
:103130001343CB644FF0B043DA6C7B681340FB6001
:10314000FB6800BF1437BD465DF8047B704780B450
:1031500085B000AF78604FF0B0431A6D4FF0B041CA
:103160007B6813430B654FF0B0431A6D7B681340C7
:10317000FB60FB6800BF1437BD465DF8047B7047F9
:1031800080B485B000AF78604FF0B0439A6D4FF0D7
:10319000B0417B6813438B654FF0B0439A6D7B68F9
:1031A0001340FB60FB6800BF1437BD465DF8047B2D
:1031B000704780B485B000AF78604FF0B043DA6DEF
:1031C0004FF0B0417B681343CB654FF0B043DA6DED
:1031D0007B681340FB60FB6800BF1437BD465DF899
:1031E000047B704780B485B000AF78604FF0B04387
:1031F0001A6E4FF0B0417B6813430B664FF0B0433B
:103200001A6E7B681340FB60FB6800BF1437BD4635
:103210005DF8047B704780B500AF4FF40020FFF7E6
:1032200096FF002200212E2007F08FFA2E2007F0B3
:10323000A6FA00BF80BD000080B582B000AF786004
:103240007B681B68054A934203D14FF48010FFF757
:103250007EFF00BF0837BD4680BD00BF000C005890
:1032600080B596B000AF786007F1080350220021C6
:10327000184610F03FFF7B681B68144A934220D128
:1032800008F0AAF808F0A8F84FF48070FFF71FFFC5
:103290004FF40063BB604FF48073BB6407F1080315
:1032A000184609F098FC0346002B01D0FFF709FFF0
:1032B000FFF723FF4FF48060FFF762FF78680AF0A2
:1032C00011F800BF5837BD4680BD00BF0028004040
:1032D00080B59CB000AF786007F15C0300221A60F3
:1032E0005A609A60DA601A6107F10C0350220021DB
:1032F000184610F0FFFE7B681B685C4A934256D16B
:103300000123FB6000237B6207F10C03184609F0E0
:1033100062FC0346002B01D0FFF7D3FE4FF4804040
:10332000FFF760FF0220FFF7F9FEC023FB650223D1
:103330003B6601237B660323BB660723FB6607F11D
:103340005C0319464A4807F007FD4A4B4A4A1A608F
:10335000484B0F225A60474B10229A60454B00227F
:10336000DA60444B80221A61424B00225A61414B81
:1033700000229A613F4B0022DA613E4B00221A6222
:103380003C4807F041FA0346002B01D0FFF799FEB5
:103390007B68384ADA67374A7B68936200220021EB
:1033A000242007F0D2F9242007F0E9F959E07B68DE
:1033B0001B68324A934254D10223FB600023BB6254
:1033C00007F10C03184609F006FC0346002B01D058
:1033D000FFF777FE0120FFF7ECFE0420FFF79EFECB
:1033E0000323FB6502233B6600237B660023BB6649
:1033F0000823FB6607F15C031946214807F0ACFC83
:10340000204B214A1A601F4B11225A601D4B10227B
:103410009A601C4B0022DA601A4B80221A61194B09
:1034200000225A61174B00229A61164B0022DA6182
:10343000144B00221A62134807F0E6F90346002BEA
:1034400001D0FFF73EFE7B680E4ADA670D4A7B68C3
:10345000936200220021252007F077F9252007F04C
:103460008EF900BF7037BD4680BD00BF00380140F7
:10347000000400480406002044040240008000408C
:1034800000080048F80600204400024080B588B0DB
:1034900000AF786007F10C0300221A605A609A604E
:1034A000DA601A617B681B681D4A934217D14FF49A
:1034B0008050FFF797FE0220FFF730FE3823FB60B5
:1034C00002233B6100237B610223BB610523FB6177
:1034D00007F10C031946134807F03EFC1CE07B681B
:1034E0001B68114A934217D14FF48040FFF748FE02
:1034F0000220FFF713FE4FF46043FB6002233B61A1
:1035000000237B610023BB610523FB6107F10C03F2
:103510001946044807F020FC00BF2037BD4680BD97
:1035200000300140000400480038004080B588B0F9
:1035300000AF786007F10C0300221A605A609A60AD
:10354000DA601A617B681B68224A93423ED14FF4CD
:103550008070FFF7FCFD0220FFF7E0FD0120FFF780
:10356000DDFD0820FFF7DAFD4FF40073FB60022356
:103570003B6100237B610023BB610A23FB6107F1F0
:103580000C031946144807F0E7FB0823FB600223ED
:103590003B6100237B610023BB610A23FB6107F1D0
:1035A0000C0319464FF0904007F0D6FBE823FB6070
:1035B00002233B6100237B610023BB610A23FB6183
:1035C00007F10C031946054807F0C6FB00BF20377A
:1035D000BD4680BD001000A000040048000C00485B
:1035E00080B400AF00BFFDE780B400AF00BFFDE7CF
:1035F00080B400AF00BFFDE780B400AF00BFFDE7BF
:1036000080B400AF00BFFDE780B400AF00BFBD468F
:103610005DF8047B704780B400AF00BFBD465DF825
:10362000047B704780B400AF00BFBD465DF8047BEB
:10363000704780B500AF06F009FF00BF80BD0000F5
:1036400080B500AF02480AF0BBFE00BF80BD00BFDE
:103650007005002080B500AF07F014FE00BF80BDEC
:1036600080B500AF024807F035FA00BF80BD00BF4B
:103670000406002080B500AF01F01AFD00BF80BD38
:1036800080B500AF01F04AFD00BF80BD80B500AF3E
:103690004FF4805007F0DEFD4FF4005007F0DAFDE4
:1036A00000BF80BD80B500AFFEF7A8FC00BF80BDA5
:1036B00080B500AF06F04CF800BF80BD80B400AF0D
:1036C00001231846BD465DF8047B704780B582B083
:1036D00000AF7860396010F085FD034616221A604D
:1036E0004FF0FF3318460837BD4680BD80B582B025
:1036F00000AF78604FF0FF317868FFF7E7FF00BF59
:10370000FDE780B586B000AFF860B9607A6000234D
:103710007B610AE0AFF300800146BB685A1CBA60C7
:10372000CAB21A707B6901337B617A697B689A42FD
:10373000F0DB7B6818461837BD4680BD80B483B087
:1037400000AF78604FF0FF3318460C37BD465DF888
:10375000047B704780B483B000AF786039603B6809
:103760004FF400525A60002318460C37BD465DF8EE
:10377000047B704780B483B000AF786001231846A3
:103780000C37BD465DF8047B704780B485B000AF50
:10379000F860B9607A60002318461437BD465DF8BA
:1037A000047B704780B586B000AF7860144A154B33
:1037B000D31A7B617B693B61134B1B68002B02D1E1
:1037C000114B124A1A60104B1A687B6813443A690D
:1037D0009A4207D210F006FD03460C221A604FF001
:1037E000FF3309E0084B1B68FB60074B1A687B68D6
:1037F0001344054A1360FB6818461837BD4680BD60
:103800000000032000100000640800206026002053
:1038100080B400AF034B1B681846BD465DF8047BBF
:10382000704700BF8075FF1F80B400AF034B1B685B
:10383000DBB21846BD465DF8047B70478475FF1FF8
:1038400080B400AF034B1B681B0A1846BD465DF8E9
:10385000047B70478475FF1FF0B5B1B004AF07F16A
:103860009403C7F8AC309E4B3C1D1D460FCD0FC4D2
:103870000FCD0FC40FCD0FC495E8070003C42280FD
:1038800000F024FE012102200FF0AAFA954A00213F
:1038900004200FF0D1FB3B1D18460DF0E5FD03465B
:1038A00087F8AB3097F8AB30002B12D08E480DF074
:1038B00054F9014640F24F138C4A8D4810F0B2FA89
:1038C00097F8AB3019468B4810F0ACFAFFF7F9FBCC
:1038D0000CE085480DF041F9014640F25513834A4A
:1038E000834810F09FFA844810F004FB00F004FEB7
:1038F0000EF05AFC814B002283F880207F4B4FF65C
:10390000FF72DA827E4A002101200FF095FB01F060
:1039100081FA7C4B8922DA707B4B00227B490020A4
:10392000FEF70EFD754B02225A76744B01221A7671
:1039300041F60D0001F0DAF9754B80221A80754BC3
:10394000A0221A80012001F08BF8D7F8AC000DF00E
:10395000CFFD0346002B40F0928001F083F9C7F8B9
:10396000A400D7F8A43005331B781D46D7F8A4303F
:1039700004331B781E46D7F8A43003331B781A464D
:10398000D7F8A43002331B781946D7F8A430013396
:103990001B781C46D7F8A4301B7807F180000393EE
:1039A00002940191009233462A465B4910F0AAFA2C
:1039B000D7F8AC301B781A46D7F8AC305B7819468C
:1039C000D7F8AC309B7807F1680000930B46534959
:1039D00010F098FAD7F8AC30DB781A46D7F8AC304C
:1039E0001B7907F154004E4910F08CFAD7F8AC302F
:1039F0009B7A1A46D7F8AC30DB7A1946D7F8AC3048
:103A00001B7B07F1400000930B46464910F07AFA01
:103A10000021002006F08AFA002006F05FF907F185
:103A200080020323002100200EF0C0FF0EF05CFF97
:103A30000346DB88194607F16802032300200EF0D5
:103A4000B5FF0EF051FF0346DB885B00194607F116
:103A50005402032300200EF0A9FF0EF045FF034699
:103A6000DB881A4613465B001344194607F14002EF
:103A7000032300200EF09AFF002006F02FF94FF4E8
:103A80007A60FDF7D7FE0021002006F04FFA0020F3
:103A900006F024F90123244A002100200EF086FFBD
:103AA0000EF022FF0346DB88194607F1800203234C
:103AB00000200EF07BFF0EF017FF0346DB881A464E
:103AC00013465B00134419460323184A00200EF0E6
:103AD0006DFF002006F002F900BFB437BD46F0BD0F
:103AE0004C660108F50C0108D0640108AC7F0108A0
:103AF0005C65010874650108AC6501087008002068
:103B0000554D000808000020454D0008F108002030
:103B1000F4080020F6080020D4650108F4650108C7
:103B2000086601081C6601082C6601084066010849
:103B3000F0B597B004AF7860922387F847307B6880
:103B400001333B643B6C1B78FF2B00F04C82FF2B56
:103B500000F31884052B04D03E2B00F0878000F082
:103B600011BC3B6C02333B623B6AB3F801309AB242
:103B7000A84BDB8A9A4228D1A64B0022DA82A54BB9
:103B8000002283F88020A4480CF0E7FF014640F2B1
:103B9000DB13A24AA24810F045F9A24810F0AAF996
:103BA0009D480CF0DAFF01464FF4EE739B4A9C48A7
:103BB00010F038F93B6AB3F801309BB219463B6A02
:103BC000DB781A46984810F02DF901F04BF878622E
:103BD0007B6A05331B781D467B6A04331B781E46BF
:103BE0007B6A03331B781A467B6A02331B781946BB
:103BF0007B6A01331B781C467B6A1B7807F108003F
:103C0000039302940191009233462A46874910F0AB
:103C100079F90021002006F089F9002006F05EF80D
:103C20000123834A002100200EF0C0FE0EF05CFE4E
:103C30000346DB88194607F10802032300200EF033
:103C4000B5FE0EF051FE0346DB881A4613465B00B4
:103C5000134419460323774A00200EF0A7FE0020E4
:103C600006F03CF8012000F0FBFE8EE33B6C0233D3
:103C70007B637B6B1B780C2B48D00C2B00F3B18142
:103C8000012B00F0EB80032B40F0AB817B6B013309
:103C9000FB6261480CF061FF014640F205235F4A78
:103CA0005F4810F0BFF8644810F024F95A480CF04F
:103CB00054FF014640F20623584A594810F0B2F822
:103CC000FB6AB3F803309BB21846FCF703FC4FF0D5
:103CD00000025A4BFCF768FC02460B461046194698
:103CE000FB6AB3F805309BB21C46FB6AB3F8073099
:103CF0009BB21A4613469B0013445B000193009449
:103D000002460B464E4810F08DF86BE17B6B013399
:103D10003B6341480CF021FF014640F213233F4A28
:103D20003F4810F07FF8474810F0E4F83B6B1B78F1
:103D3000002B0DD138480CF010FF014640F216233D
:103D4000364A374810F06EF83F4810F0D3F80CE0D0
:103D500031480CF002FF014640F21A232F4A304846
:103D600010F060F8394810F0C5F82A4BDB8A07F1EB
:103D70001E0207F11F0118460CF0F4FD034687F8F8
:103D8000473097F84730002B0DD023480CF0E5FE64
:103D900001464FF40873214A214810F043F82C489B
:103DA00010F0A8F81EE11C480CF0D7FE01464FF4B5
:103DB00009731A4A1A4810F035F8264810F09AF894
:103DC000FB7F022B14D1BB7F022B11D112480CF0C8
:103DD000C4FE01464FF40A73104A114810F022F84D
:103DE000FB7F1946BB7F1A461B4810F01BF8F9E011
:103DF00009480CF0B2FE01464FF40B73074A08481D
:103E000010F010F8FB7F1946BB7F1A46124810F0DD
:103E100009F8E7E070080020D0640108BC7F0108C1
:103E20005C65010888660108B4660108D46501086C
:103E30002C66010840660108F06601080000F43FA6
:103E40002867010898670108C8670108D867010852
:103E5000E8670108086801082C6801087B6B0133DA
:103E6000BB62AC4B93F881301846FEF7E3FAAA48E0
:103E70000CF073FE014640F23D23A84AA8480FF01B
:103E8000D1FFBB6AB3F801309BB21946A5480FF0C9
:103E9000C9FFA1480CF061FE014640F23E239F4A53
:103EA0009F480FF0BFFFBB6A9B7A1846BB6A5B7ADC
:103EB0001C46BB6A1B7A1D46BB6ADB791A46BB6A85
:103EC0009B791946BB6A5B790293019100922B465C
:103ED0002246014694480FF0A5FF8F480CF03DFEA6
:103EE000014640F245238D4A8D480FF09BFFBB6A87
:103EF000B3F80B309BB21846FCF7ECFA4FF0000217
:103F00008A4BFCF751FB02460B4610461946BB6A2A
:103F1000B3F80D309BB21C46BB6AB3F80F309BB2AE
:103F20001A4613469B0013445B000193009402461B
:103F30000B467F480FF076FF764B93F88030042BCA
:103F400004D1744B062283F8802003E0714B0522D4
:103F500083F88020BB6AB3F801309AB26D4BDA82E5
:103F600000F080FE78627B6A05331B781D467B6A11
:103F700004331B781E467B6A03331B781A467B6A20
:103F800002331B7819467B6A01331B781C467B6A17
:103F90001B7807F1080003930294019100923346C5
:103FA0002A4664490FF0AEFF0EF09EFC0346DB8804
:103FB000194607F10802032300200EF0F7FC0EF06B
:103FC00093FC0346DB881A4613465B0013441946EC
:103FD0000323594A00200EF0E9FC002005F07EFE84
:103FE00000E000BFD1E13B6C0233FB63FB6B1B883D
:103FF0009BB240F20A42934222DCB3F5806FC0F2DA
:10400000C381A3F580630A2B00F2BE8101A252F89E
:1040100023F000BF4D400008BB4200086940000883
:10402000DB400008F74000085941000889430008B8
:1040300041430008C941000801420008E541000869
:1040400040F60E42934200F089819DE132480CF027
:1040500084FD01464FF41E73304A31480FF0E2FEF2
:1040600036480FF047FF8CE12B480CF076FD0146F7
:104070004FF41F73294A2A480FF0D4FE30480FF03E
:1040800039FF244BDB8A2F4918460BF0CDFC034641
:1040900087F8473097F84730002B10D01E480CF0B7
:1040A0005CFD014640F281231C4A1D480FF0BAFE18
:1040B00097F84730194624480FF0B4FE61E11648DE
:1040C0000CF04BFD014640F28523144A14480FF0D2
:1040D000A9FE1E480FF00EFF53E10F480CF03DFD06
:1040E000014640F28A230D4A0D480FF09BFE184806
:1040F0000FF000FF45E108480CF02FFD014640F2AB
:104100008E23064A06480FF08DFE12480FF0F2FE8D
:1041100037E100BF70080020D0640108BC7F0108AF
:104120005C650108506801089C6801080000F43FC4
:1041300028670108D4650108EC680108F8680108DF
:104140002869010840E201005069010884690108FA
:10415000AC690108D86901088E480CF0FEFC0146E4
:1041600040F292238C4A8D480FF05CFE8C480FF091
:10417000C1FE8C4BDB8A18460BF07BFE034687F8AA
:10418000473097F84730002B10D082480CF0E5FC00
:10419000014640F29623804A80480FF043FE97F88C
:1041A0004730194680480FF03DFEEAE079480CF0B0
:1041B000D4FC014640F29A23774A78480FF032FE49
:1041C0007A480FF097FEDCE072480CF0C6FC01461E
:1041D00040F29F23704A71480FF024FE74480FF09C
:1041E00089FECEE06B480CF0B8FC014640F2A323F8
:1041F000694A6A480FF016FE6E480FF07BFEC0E079
:1042000064480CF0AAFC014640F2A723624A6348C6
:104210000FF008FE68480FF06DFE5E480CF09DFC44
:1042200001464FF42A735C4A5C480FF0FBFDFB6BC0
:104230000233D3F80230194660480FF0F3FD5548B9
:104240000CF08BFC014640F2AA23534A53480FF06E
:10425000E9FDFB6B0233D3F80230194658480FF0E2
:10426000E1FD504BDB8A012118460BF056FE034658
:1042700087F8473097F84730002B10D045480CF0AE
:104280006CFC014640F2AF23434A44480FF0CAFD9C
:1042900097F8473019464B480FF0C4FD71E03D4890
:1042A0000CF05BFC014640F2B3233B4A3B480FF065
:1042B000B9FD45480FF01EFE63E0FB6B0233BB63A4
:1042C00034480CF04AFC014640F2BB23324A3348E2
:1042D0000FF0A8FD3D480FF00DFEBB6B9B78002B47
:1042E0000DD12C480CF039FC014640F2BE232A4A7D
:1042F0002A480FF097FD36480FF0FCFD12E02548E4
:104300000CF02BFC014640F2C223234A23480FF055
:1043100089FDBB6B9B781946BB6BDB781A462D4831
:104320000FF080FD1B480CF018FC01464FF4317370
:10433000194A1A480FF076FD27480FF0DBFD20E000
:1043400014480CF00AFC014640F2CA23124A1348F2
:104350000FF068FD21480FF0CDFD12E00D480CF084
:10436000FCFB014640F2D2230B4A0C480FF05AFDE9
:104370001B480FF0BFFD0B4BDB8A18460CF0E0F832
:1043800000BF01E000BF00E000BF012318464C372A
:10439000BD46F0BDD0640108BC7F01085C65010822
:1043A000146A0108700800203C6A0108706A01085C
:1043B000986A0108C86A0108F86A01082C6B0108AC
:1043C0004C6B0108686B0108BC6B0108046C0108A8
:1043D000306C01084C6C01088C6C0108906C010871
:1043E000BC6C010880B582B000AF9223FB710BF06A
:1043F0001CFD0346FB71FB79002B0FD010480CF01D
:10440000ACFB01464FF43E730E4A0F480FF00AFD15
:10441000FB7919460D480FF005FD0CE008480CF03B
:104420009CFB01464FF43F73064A07480FF0FAFC25
:1044300007480FF05FFD00BF0837BD4680BD00BFD5
:10444000D0640108D47F01085C650108E46C0108B0
:104450001C6D010880B582B000AF9223FB71154B33
:10446000DB8A18460BF0F4FB0346FB71FB79002B4B
:104470000FD011480CF071FB01464FF442730F4A04
:104480000F480FF0CFFCFB7919460E480FF0CAFC1D
:104490000CE009480CF061FB01464FF44373074AF6
:1044A00007480FF0BFFC08480FF024FD00BF083795
:1044B000BD4680BD70080020D0640108F07F01086F
:1044C0005C650108486D0108806D010880B582B007
:1044D00000AF064B3B60064B7B603B4619460548E8
:1044E0000CF0ECFB00BF0837BD4680BD2800032060
:1044F000DF4D0008A74D0008F0B58DB006AF4FF4B2
:1045000050733B809223FB75B1480CF026FB0146AB
:1045100040F22D33AF4AB0480FF084FCAF480FF0A3
:10452000E9FC0CF0FBF90346FB75FB7D002B0FD07B
:10453000A7480CF012FB014640F23633A54AA648C4
:104540000FF070FCFB7D1946A5480FF06BFC0CE0EA
:104550009F480CF002FB014640F23A339D4A9E48C8
:104560000FF060FC9F480FF0C5FC00F07BFB38614A
:104570003A69062100200CF0E5F80346FB75FB7D47
:10458000002B0FD092480CF0E8FA01464FF451731B
:10459000904A91480FF046FCFB7D194692480FF077
:1045A00041FC35E08A480CF0D8FA01464FF45273CA
:1045B000884A89480FF036FC8C480FF09BFC8448F1
:1045C0000CF0CBFA014640F24933824A82480FF0A0
:1045D00029FC3B6905331B7818463B6904331B787B
:1045E0001C463B6903331B781D463B6902331B782D
:1045F0001A463B6901331B7819463B691B780293C5
:10460000019100922B462246014679480FF00AFCA0
:104610003B6905331A78774B1A723B6904331A7871
:10462000744B5A723B6903331A78724B9A723B6926
:1046300002331A786F4BDA723B6901331A786D4B8B
:104640001A733B691A786B4B5A736B4A1021182006
:104650000CF078F80346FB75FB7D002B0FD05C480F
:104660000CF07BFA014640F27D335A4A5A480FF06B
:10467000D9FBFB7D194661480FF0D4FB0CE0544890
:104680000CF06BFA014640F28133524A52480FF067
:10469000C9FB5B480FF02EFC5A4A102108200CF091
:1046A00051F80346FB75FB7D002B0FD048480CF0FA
:1046B00054FA014640F28A33464A47480FF0B2FBAB
:1046C000FB7D194650480FF0ADFB0CE040480CF064
:1046D00044FA014640F28E333E4A3F480FF0A2FBB7
:1046E0004A480FF007FC182101200CF0B0F80346EF
:1046F000FB75FB7D002B0FD035480CF02EFA0146E0
:1047000040F29733334A34480FF08CFBFB7D194657
:104710003F480FF087FB0CE02D480CF01EFA0146D5
:1047200040F29B332B4A2C480FF07CFB39480FF0AA
:10473000E1FB0BF059FC0346FB75FB7D002B0FD012
:1047400023480CF00AFA01464FF46973214A2248C3
:104750000FF068FBFB7D19462F480FF063FB0CE060
:104760001B480CF0FAF901464FF46A73194A1A48CB
:104770000FF058FB29480FF0BDFB0023FB73FB7BB8
:1047800043F00103FB73FB7B002B6BD0244BBB601E
:10479000BA1DF87BBB1C01933B1D009313460722F7
:1047A00000210BF0A8F90346FB75FB7D002B3BD0E5
:1047B00007480CF0D2F901464FF47273054A0648D7
:1047C0000FF030FBFB7D194616480FF02BFB38E04D
:1047D000D06401080C8001085C650108B06D010817
:1047E000DC6D01080C6E01082C6E0108886E010852
:1047F000D46E010808000020847F0108146F0108AE
:104800006C6F0108947F0108B46F01080C700108F7
:104810005470010894700108C4700108F870010810
:104820001C710108247101087E480CF096F90146BC
:104830004FF473737C4A7D480FF0F4FA7C480FF014
:1048400059FBFC88BD88B868FBF7EAFC0346DAB27E
:10485000BB68009313460022294620460BF0C7FD93
:104860000346FB75F88879883B46009302230022B3
:104870000BF0BDFD0346FB750222022100200CF067
:10488000EFF80346FB75FB7D002B0FD065480CF05D
:1048900064F9014640F2EE33634A64480FF0C2FA0D
:1048A000FB7D194663480FF0BDFA0CE05D480CF043
:1048B00054F9014640F2F2335B4A5C480FF0B2FA19
:1048C0005D480FF017FB5D4B01221A705B4B1B78A4
:1048D00018460AF091FF0346FB75FB7D002B0FD0B5
:1048E00050480CF03AF901464FF47F734E4A4F4856
:1048F0000FF098FAFB7D194651480FF093FA0CE03F
:1049000048480CF02AF901464FF48063464A47486C
:104910000FF088FA4B480FF0EDFA484B01225A701D
:10492000464B08221A71454B10225A71434B002204
:10493000DA70424B444A9A60404B01229A703F4BD6
:104940009C783E4B5D783D4B1B793C4A52793B4904
:10495000C9783A4880680026049603900291019233
:10496000009300230122294620460AF099FF0346BE
:10497000FB75FB7D002B0FD02A480CF0EEF80146AA
:1049800040F21B43284A29480FF04CFAFB7D194698
:104990002E480FF047FA0CE022480CF0DEF80146F2
:1049A00040F21F43204A21480FF03CFA28480FF0FC
:1049B000A1FA224B9B78002B23D00BF012FA03466E
:1049C000FB75FB7D002B0FD016480CF0C6F8014696
:1049D00040F22A43144A15480FF024FAFB7D194689
:1049E0001C480FF01FFA0CE00E480CF0B6F8014618
:1049F00040F22E430C4A0D480FF014FA16480FF0FF
:104A000079FA08480CF0A9F8014640F23143064A09
:104A100006480FF007FA11480FF06CFA00BF1C3778
:104A2000BD46F0BDD06401080C8001085C6501083A
:104A3000587101087C710108B871010870080020E4
:104A4000E47101082472010807B2010054720108E0
:104A5000A0720108DC720108207301085473010878
:104A600080B58CB008AF0346FB719223FB72FB79D3
:104A7000012B06D1694B1B88FB81694B1B88BB81CD
:104A800005E04FF4C863FB814FF47A63BB81654B4B
:104A900093F881301846FDF7CDFCFB79022B2DD120
:104AA000604B93F88030012B04D05E4B93F880303C
:104AB000022B23D10AF082FD0346FB72FB7A002B06
:104AC0000FD059480CF049F8014640F25243574A7A
:104AD00057480FF0A7F9FB7A194656480FF0A2F98C
:104AE0000CE051480CF039F8014640F256434F4A69
:104AF0004F480FF097F950480FF0FCF9494AFB79FD
:104B000082F88030474B1B7EBA89F98900200690D5
:104B100000200590494804900393494B02930723D2
:104B2000019300230093002300200AF06BFD03464D
:104B3000FB72FB7A002B0FD03B480CF00EF80146BD
:104B400040F26943394A3A480FF06CF9FB7A19464A
:104B50003C480FF067F90CE033480BF0FEFF0146CC
:104B600040F26D43314A32480FF05CF936480FF09D
:104B7000C1F936490E200BF0C2F80346FB72FB7AEE
:104B8000002B22D0FB79012B0FD127480BF0E5FF3A
:104B9000014640F27643254A25480FF043F9FB7A57
:104BA00019462B480FF03EF935E01F480BF0D5FFB2
:104BB000014640F27A431D4A1D480FF033F9FB7A53
:104BC000194624480FF02EF925E0FB79012B14D16A
:104BD00015480BF0C2FF014640F28143134A1448C6
:104BE0000FF020F91C480FF085F90E4B93F8813037
:104BF0001A491846FDF7A2FC0DE00B480BF0ADFF7B
:104C0000014640F28743094A09480FF00BF914485E
:104C10000FF070F900BF1037BD4680BDF4080020CA
:104C2000F608002070080020D064010824800108E4
:104C30005C65010880730108D073010889080020B1
:104C4000A47F0108187401085074010808000020AE
:104C50007C740108B4740108F074010846E0010096
:104C60001C75010880B586B000AFFEF7D1FD386134
:104C70003B69B3F1FF3F23D0FEF7E2FDB860FEF7DA
:104C8000D3FD78603B69DAB2164B1A703B691B0A98
:104C9000DAB2144B5A707B68DAB2124B9A70BB6866
:104CA000DAB2104BDA70BB681B0ADAB20D4B1A711C
:104CB000BB681B0CDAB20B4B5A710A4B7B610BE0E1
:104CC00000200CF0A9FBF860FB68002B02D0FB6809
:104CD0007B6101E0044B7B617B6918461837BD4658
:104CE00080BD00BF680800207C7F010880B483B0CD
:104CF00000AF0346FB80124B1B7E1946FB88DAB2DD
:104D00000F4B0B445A760E4B1B7E0133DAB20C4B21
:104D10001A76FB881B0A9AB2094B1B7E1946D2B23F
:104D2000074B0B445A76064B1B7E0133DAB2044B19
:104D30001A7600BF0C37BD465DF8047B704700BF94
:104D40007008002080B500AF002101200EF096F918
:104D500000BF80BD80B500AF0220FFF781FE00BF1D
:104D600080BD80B582B000AF7860002104200EF0D5
:104D700085F900BF0837BD4680BD80B582B000AF61
:104D8000786001200EF0E6F900BF0837BD4680BD0F
:104D900080B582B000AF786001200EF0FBF900BF53
:104DA0000837BD4680BD80B584B000AF78607B68B1
:104DB000FB60FB685B68083318460DF047FA034652
:104DC000FB72FB7A002B03D0FB6801221A7003E010
:104DD000FB6800221A7000BF1037BD4680BD80B549
:104DE00084B000AF0346FB71FB79002B02D0012B8E
:104DF00006D00BE01F23FB60F8680EF06BF905E0AE
:104E00001F23FB60F8680EF085F900BF00BF103764
:104E1000BD4680BD80B582B000AF074B3B60042328
:104E20003B713B46194642F629200BF021FF00BF9B
:104E30000837BD4680BD00BF4C75010880B582B003
:104E400000AF78607B681B78022B1AD0022B1EDC27
:104E5000002B02D0012B07D019E00F4B00229A80C3
:104E60000D4B01221A7313E00B4B5B7B1846FDF7C9
:104E7000E1FA094B5B7B40F601011846FDF75EFB4A
:104E800006E0054B5B7B1846FDF7D4FA00E000BF57
:104E900000BF0837BD4680BDF808002080B400AFD1
:104EA000054BDB68044A43F40043D36000BFBD46B2
:104EB0005DF8047B704700BF0004005880B483B0E5
:104EC00000AF7860064BD3F8D42005497B681343C4
:104ED000C1F8D43000BF0C37BD465DF8047B704785
:104EE0000008005880B483B000AF7860054B1A6AA0
:104EF00004497B6813430B6200BF0C37BD465DF865
:104F0000047B70470008005880B485B000AF78601B
:104F10004FF0B0431A6D4FF0B0417B6813430B65FF
:104F20004FF0B0431A6D7B681340FB60FB6800BF15
:104F30001437BD465DF8047B704780B485B000AF80
:104F400078604FF0B043D3F850214FF0B0417B6808
:104F50001343C1F850314FF0B043D3F850217B6870
:104F60001340FB60FB6800BF1437BD465DF8047B4F
:104F7000704780B483B000AF78607B681B6843F4EF
:104F800080327B681A6000BF0C37BD465DF8047B39
:104F9000704780B483B000AF78607B681B6843F0D3
:104FA00001027B681A6000BF0C37BD465DF8047BC8
:104FB000704780B483B000AF786039607B685A680E
:104FC0003B681B04DB431A407B685A6000BF0C3708
:104FD000BD465DF8047B704780B483B000AF786055
:104FE00039607B685A683B681B041A437B685A60C7
:104FF00000BF0C37BD465DF8047B704780B483B0BA
:1050000000AF786039607B685A683B68DB431A40C0
:105010007B685A6000BF0C37BD465DF8047B704763
:1050200080B483B000AF786039607B683A689A607A
:1050300000BF0C37BD465DF8047B704780B483B079
:1050400000AF786039603B681A047B689A6000BFE3
:105050000C37BD465DF8047B704780B483B000AF69
:10506000786039607B68DA683B6813403A689A4236
:1050700001D1012300E0002318460C37BD465DF83E
:10508000047B704780B483B000AF786039607B6880
:10509000DA693B6813403A689A4201D1012300E083
:1050A000002318460C37BD465DF8047B70470000AE
:1050B00080B500AF02211848FFF7E4FF0346002B3C
:1050C00008D0154B5B6803F00203002B02D100F0FF
:1050D000D5F81EE001211048FFF7D4FF0346002B4E
:1050E00008D00D4B5B6803F00103002B02D100F0E8
:1050F00089F80EE008210848FFF7C4FF0346002B9B
:1051000008D0054B5B6803F00803002B02D100F0C8
:1051100001F900BF00BF80BD000C005880B500AF92
:1051200002211848FFF799FF0346002B08D1154BC1
:105130005B6803F40033002B02D100F093F81EE00B
:1051400008211048FFF789FF0346002B08D10D4BBB
:105150005B6803F40023002B02D100F0BDF80EE0E1
:1051600020210848FFF779FF0346002B08D1054BA3
:105170005B6803F40013002B02D100F04FF800BF6E
:1051800000BF80BD000C005880B500AF4FF4801008
:10519000FFF7D3FE4FF40070FFF7A4FE4FF400704A
:1051A000FFF78CFE40BF20BFFFF778FE00BF80BD39
:1051B00080B500AF4FF48010FFF7A6FE0648FFF75A
:1051C000E8FE0548FFF7D5FE2C2005F0D8FA2D2083
:1051D00005F0D5FA00BF80BD000C005880B500AFC7
:1051E00001210248FFF70AFF00BF80BD000C0058F4
:1051F00080B500AF01210248FFF720FF00BF80BD4E
:10520000000C005880B500AF0DF004F901210248F0
:10521000FFF706FF00BF80BD000C005880B500AF4F
:1052200020210348FFF7D8FE0DF024F900BF80BD10
:10523000000C005880B500AF02210248FFF7DEFEE7
:1052400000BF80BD000C005880B500AF02210448AB
:10525000FFF7F4FE02210248FFF7ABFE00BF80BD5E
:10526000000C005880B500AF02210348FFF7B4FEE0
:105270000DF050F900BF80BD000C005880B500AFA4
:105280000DF05EF902210248FFF7CAFE00BF80BDA3
:10529000000C005880B582B000AF786008210C483F
:1052A000FFF7DBFE0346002B07D00A4A7B6813603A
:1052B00008210748FFF77DFE06E07B689847082134
:1052C0000348FFF7BBFE00BF0837BD4680BD00BFE7
:1052D000000C00580809002080B500AF08210648DE
:1052E000FFF77AFE054B1B68984708210248FFF735
:1052F000A5FE00BF80BD00BF000C005808090020BB
:1053000080B500AF08210248FFF778FE00BF80BDDE
:10531000000C005880B500AF0DF0BAF90821024822
:10532000FFF77EFE00BF80BD000C005880B582B044
:1053300000AF0346FB71F91D4FF47A730122034855
:1053400008F0A9F800BF0837BD4680BDBC070020A3
:1053500080B500AF00224021074805F063FF00221E
:105360000121064805F05EFF01224021044805F0B6
:1053700059FF0023184680BD00080048000C004873
:105380000004004880B500AF00224021074805F026
:1053900049FF00220121064805F044FF0022402178
:1053A000044805F03FFF00BF80BD00BF0008004873
:1053B000000C00480004004880B500AF01224021E5
:1053C0000B4805F02FFF6420FCF734FA002240213F
:1053D000074805F027FF0220FCF72CFA01224021A4
:1053E000034805F01FFF6420FCF724FA00BF80BDCE
:1053F0000004004880B582B000AF0346FB71002274
:1054000040210A4805F00EFF00220121084805F05E
:1054100009FFFB791846FFF789FF012201210448A3
:1054200005F000FF00BF0837BD4680BD00080048FA
:10543000000C004880B582B000AF0346FB7101222A
:1054400040210A4805F0EEFE00220121084805F03F
:10545000E9FEFB791846FFF769FF012201210448A4
:1054600005F0E0FE00BF0837BD4680BD00080048DB
:10547000000C004880B500AF0B480EF03BFD022148
:105480000A4805F0B7FE0346002B03D03220FCF794
:10549000D1F9F4E700BF3220FCF7CCF904480EF054
:1054A00029FD00BF80BD00BF50750108000C0048F9
:1054B0006875010880B584B000AF78603220FFF7CE
:1054C00099FF0023FB7309E0FB7B7A6813441B7888
:1054D0001846FFF7AFFFFB7B0133FB73FB7B982B79
:1054E000F2D9FFF7C7FF00BF1037BD4680BD80B5BA
:1054F00082B000AF78607868FFF7DCFF3F20FFF7ED
:1055000079FF7B6899331B781846FFF793FF0320D8
:10551000FFF770FF7B689A331B781846FFF78AFF06
:105520000420FFF767FF7B689B331B781846FFF763
:1055300081FF7B689C331B781846FFF77BFF7B68F5
:105540009D331B781846FFF775FF2C20FFF752FF9D
:105550007B689E331B781846FFF76CFF00BF083747
:10556000BD4680BD80B500AF2220FFF743FFC720B6
:10557000FFF760FF2020FFF73DFFFFF77BFF00BF35
:1055800080BD80B500AF2220FFF734FF0F20FFF76A
:1055900051FF2020FFF72EFFFFF76CFF00BF80BDFB
:1055A00090B583B000AF0446084611461A4623461C
:1055B000FB800346BB800B467B8013463B80442028
:1055C000FFF718FFFB88DB089BB2DBB21846FFF73A
:1055D00031FF7B88DB089BB2DBB21846FFF72AFF5E
:1055E0004520FFF707FFBB88DBB21846FFF722FF15
:1055F000BB881B0A9BB2DBB21846FFF71BFF3B8838
:10560000DBB21846FFF716FF3B881B0A9BB2DBB2E2
:105610001846FFF70FFF00BF0C37BD4690BD80B5A1
:1056200082B000AF03460A46FB801346BB804E2083
:10563000FFF7E0FEFB88DBB21846FFF7FBFE4F20CA
:10564000FFF7D8FEBB88DBB21846FFF7F3FEBB8836
:105650001B0A9BB2DBB21846FFF7ECFE00BF08370F
:10566000BD4680BD80B500AFFFF7A6FE6420FCF705
:10567000E1F8FFF7FFFE1220FFF7BCFEFFF7FAFE8E
:105680000120FFF7B7FE2720FFF7D4FE0120FFF728
:10569000D1FE0020FFF7CEFE1120FFF7ABFE032066
:1056A000FFF7C8FE40F227137F2200210020FFF7FA
:1056B00077FF2120FFF79EFE0020FFF7BBFE802032
:1056C000FFF7B8FE00210020FFF7A9FFFFF7D2FE89
:1056D0000248FFF70CFF00BF80BD00BFB8000020EC
:1056E00080B582B000AF2420FFF784FE0023FB804A
:1056F00005E0FF20FFF79EFEFB880133FB80FB885F
:10570000B3F5945FF5D3FFF72DFF00BF0837BD4613
:1057100080BD80B584B000AF78602420FFF76AFEBA
:105720000023FB8109E0FB897A6813441B78184643
:10573000FFF780FEFB890133FB81FB89B3F5945FA2
:10574000F1D3FFF70FFF00BF1037BD4680BD80B516
:1057500084B000AF78602420FFF74CFE0023FB816B
:1057600009E0FB897A6813441B781846FFF762FE4C
:10577000FB890133FB81FB89B3F5945FF1D32620CC
:10578000FFF738FE0023FB8109E0FB897A681344A8
:105790001B781846FFF74EFEFB890133FB81FB891E
:1057A000B3F5945FF1D3FFF7DDFE00BF1037BD46C0
:1057B00080BD000080B584B000AF78600022402139
:1057C000334805F02FFD0220FCF734F80122402178
:1057D0002F4805F027FD0220FCF72CF82D48FFF795
:1057E00069FE3720FFF706FE0020FFF723FE0020AA
:1057F000FFF720FE0020FFF71DFE0020FFF71AFE36
:105800000020FFF717FE4020FFF714FE0020FFF7EF
:1058100011FE0020FFF70EFE0020FFF70BFE002018
:10582000FFF708FE3C20FFF7E5FD8020FFF702FEB2
:105830002220FFF7DFFDC020FFF7FCFD2020FFF74F
:10584000D9FDFFF717FE40F227137F220021002029
:10585000FFF7A6FE00210020FFF7E1FE2420FFF75E
:10586000C9FD0023FB8109E0FB897A6813441B789A
:105870001846FFF7DFFDFB890133FB81FB89B3F598
:10588000945FF1D3FFF77DFE00BF1037BD4680BDAA
:10589000000400481800002080B500AF1020FFF77A
:1058A000A9FD0120FFF7C6FD6420FBF7C3FF00BF81
:1058B00080BD000080B588B004AF12480EF01AFB1E
:1058C000FFF746FD0346002B02D04FF0FF3388E17F
:1058D0000D480EF00FFBFFF7C5FEFFF701FF4FF479
:1058E0009453FB81FB8918460DF0C4FC0346BB6052
:1058F000BB68002B0CD105480EF0FCFA4FF0FF33CB
:105900006FE100BF88750108A0750108BC7501082A
:10591000B6480EF0EFFAFF2300935A234FF4947227
:105920008021B86800F08AF9FF2000F039FBFF23DE
:1059300000935A234FF494728021B86800F07EF9E6
:10594000AB480EF0D7FAB86800F0CEF9FF2000F0AF
:1059500027FBA84801F0A4FBB868FFF7DAFE40F681
:10596000B830FBF767FFFF2300935A234FF494727C
:105970008021B86800F062F99F480EF0BBFAB86861
:1059800000F0B2F9FF2000F00BFB9C480EF0B2FAD9
:10599000012300930123002250210A2000F0CEFBB6
:1059A00001230093022300225A210A2000F0C6FBA3
:1059B000012300930323002264210A2000F0BEFB90
:1059C00000230293012301930023009378234622AE
:1059D0004621142000F05EFC002302930123019372
:1059E00000230093782314224621462000F052FC25
:1059F000002302930123019300230093782346227E
:105A00004621142000F0F2FC0123029301230193AC
:105A100000230093782382224621502000F0E6FCE8
:105A20000023019301230093002314225F212D20E2
:105A300000F060FD0123019301230093FF23142252
:105A40005F21692000F056FD012302930123019399
:105A5000002300935F237D225F21552000F01AFC74
:105A600001230293012301930023009373236922EE
:105A70004B21692000F00EFCFF23019300230093CB
:105A80005F4B604A00210A2000F068FF0023019369
:105A9000FF2300935C4B5D4A14210A2000F05EFF57
:105AA000FF23019300230093574B594A21210A20D9
:105AB00001F02AF900230193FF230093504B554A2C
:105AC00032210A2001F020F9FF23019300230093E3
:105AD000514B524A0021822000F094FF0023019391
