:020000040800F2
:1000000000000320610E0008C1360008C936000850
:10001000D1360008D9360008E1360008000000009B
:10002000000000000000000000000000E9360008A9
:10003000F7360008000000000537000813370008F5
:10004000B50E0008B50E0008B50E0008853700088B
:10005000B50E0008B50E0008B50E0008B50E000874
:10006000B50E0008B50E0008B50E0008B50E000864
:10007000B50E0008B50E0008B50E0008B50E000854
:10008000B50E0008B50E0008B50E0008B50E000844
:10009000B50E0008B50E0008B50E0008B50E000834
:1000A000B50E0008B50E000891370008B50E00081F
:1000B000B50E0008B50E0008B50E0008B50E000814
:1000C000B50E0008B50E0008B50E0008B50E000804
:1000D00021370008B50E0008B50E0008B50E00085F
:1000E0006D370008B50E0008B50E0008B50E000803
:1000F000553700086137000835370008B50E00088D
:10010000B50E0008B50E0008B50E0008B50E0008C3
:10011000B50E0008B50E0008B50E0008B50E0008B3
:10012000B50E0008B50E000841370008B50E0008EE
:0C013000B50E0008B50E0008B50E000862
:1001400010B5054C237833B9044B13B10448AFF311
:1001500000800123237010BD500600200000000025
:100160000067010808B5034B1BB103490348AFF30F
:10017000008008BD00000000540600200067010850
:1001800001F0FF01102A2BDB10F0070F08D010F848
:10019000013B013A8B422DD010F0070F42B3F6D14C
:1001A000F0B441EA012141EA014122F007047FF065
:1001B00000070023F0E80256083C85EA010586EABC
:1001C000010685FA47F5A3FA87F586FA47F6A5FAF8
:1001D00087F68EB9EED1F0BC01F0FF0102F0070204
:1001E00032B110F8013B013A83EA010313B1F8D1AF
:1001F0000020704701387047002D06BF3546033890
:10020000073815F0010F07D1013015F4807F02BFC8
:10021000013015F4C03F0130F0BC0138704700BF19
:10022000034613F8012B002AFBD1181A0138704736
:1002300081F0004102E000BF83F0004330B54FEA97
:1002400041044FEA430594EA050F08BF90EA020F04
:100250001FBF54EA000C55EA020C7FEA645C7FEA97
:10026000655C00F0E2804FEA5454D4EB5555B8BFBA
:100270006D420CDD2C4480EA020281EA030382EA2B
:10028000000083EA010180EA020281EA0303362DBD
:1002900088BF30BD11F0004F4FEA01314FF4801C90
:1002A0004CEA113102D0404261EB410113F0004FA2
:1002B0004FEA03334CEA133302D0524263EB430359
:1002C00094EA050F00F0A780A4F10104D5F1200EF7
:1002D0000DDB02FA0EFC22FA05F2801841F1000152
:1002E00003FA0EF2801843FA05F359410EE0A5F126
:1002F00020050EF1200E012A03FA0EFC28BF4CF057
:10030000020C43FA05F3C01851EBE37101F000450C
:1003100007D54FF0000EDCF1000C7EEB00006EEB19
:100320000101B1F5801F1BD3B1F5001F0CD34908A3
:100330005FEA30004FEA3C0C04F101044FEA4452FA
:1003400012F5800F80F09A80BCF1004F08BF5FEA81
:10035000500C50F1000041EB045141EA050130BD61
:100360005FEA4C0C404141EB0101013C28BFB1F573
:10037000801FE9D291F0000F04BF01460020B1FABE
:1003800081F308BF2033A3F10B03B3F120020CDA91
:100390000C3208DD02F1140CC2F10C0201FA0CF06F
:1003A00021FA02F10CE002F11402D8BFC2F1200CD4
:1003B00001FA02F120FA0CFCDCBF41EA0C0190408A
:1003C000E41AA2BF01EB0451294330BD6FEA0404D3
:1003D0001F3C1CDA0C340EDC04F11404C4F12002BE
:1003E00020FA04F001FA02F340EA030021FA04F3D0
:1003F00045EA030130BDC4F10C04C4F1200220FA27
:1004000002F001FA04F340EA0300294630BD21FA64
:1004100004F0294630BD94F0000F83F4801306BF2A
:1004200081F480110134013D4EE77FEA645C18BF1E
:100430007FEA655C29D094EA050F08BF90EA020FB5
:1004400005D054EA000C04BF1946104630BD91EAAD
:10045000030F1EBF0021002030BD5FEA545C05D1B0
:100460004000494128BF41F0004130BD14F58004EF
:100470003CBF01F5801130BD01F0004545F0FE4163
:1004800041F470014FF0000030BD7FEA645C1ABF98
:10049000194610467FEA655C1CBF0B46024650EACF
:1004A000013406BF52EA033591EA030F41F40021FB
:1004B00030BD00BF90F0000F04BF0021704730B581
:1004C0004FF4806404F132044FF000054FF0000156
:1004D00050E700BF90F0000F04BF0021704730B517
:1004E0004FF4806404F1320410F0004548BF4042EC
:1004F0004FF000013EE700BF42004FEAE2014FEA41
:1005000031014FEA02701FBF12F07F4393F07F4F1B
:1005100081F06051704732F07F4208BF704793F01E
:100520007F4F04BF41F40021704730B54FF4607431
:1005300001F0004521F000411CE700BF50EA010234
:1005400008BF704730B54FF000050AE050EA0102DD
:1005500008BF704730B511F0004502D5404261EB4D
:1005600041014FF4806404F132045FEA915C3FF48E
:10057000D8AE4FF003025FEADC0C18BF03325FEA2B
:10058000DC0C18BF033202EBDC02C2F1200300FADC
:1005900003FC20FA02F001FA03FE40EA0E0021FA01
:1005A00002F11444BDE600BF70B54FF0FF0C4CF4EF
:1005B000E06C1CEA11541DBF1CEA135594EA0C0FA1
:1005C00095EA0C0F00F0DEF82C4481EA030621EADC
:1005D0004C5123EA4C5350EA013518BF52EA033517
:1005E00041F4801143F4801338D0A0FB02CE4FF0C9
:1005F0000005E1FB02E506F00042E0FB03E54FF0F9
:100600000006E1FB03569CF0000F18BF4EF0010EF0
:10061000A4F1FF04B6F5007F64F5407404D25FEAEC
:100620004E0E6D4146EB060642EAC62141EA55519F
:100630004FEAC52040EA5E504FEACE2EB4F1FD0CE1
:1006400088BFBCF5E06F1ED8BEF1004F08BF5FEA5F
:10065000500E50F1000041EB045170BD06F0004611
:1006600046EA010140EA020081EA0301B4EB5C04BE
:10067000C2BFD4EB0C0541EA045170BD41F48011B6
:100680004FF0000E013C00F3AB8014F1360FDEBFDB
:10069000002001F0004170BDC4F10004203C35DAB7
:1006A0000C341BDC04F11404C4F1200500FA05F33A
:1006B00020FA04F001FA05F240EA020001F00042DB
:1006C00021F0004110EBD37021FA04F642EB060151
:1006D0005EEA430E08BF20EAD37070BDC4F10C047B
:1006E000C4F1200500FA04F320FA05F001FA04F23F
:1006F00040EA020001F0004110EBD37041F100012B
:100700005EEA430E08BF20EAD37070BDC4F1200535
:1007100000FA05F24EEA020E20FA04F301FA05F29D
:1007200043EA020321FA04F001F0004121FA04F245
:1007300020EA020000EBD3705EEA430E08BF20EA15
:10074000D37070BD94F0000F0FD101F0004640004F
:1007500041EB010111F4801F08BF013CF7D041EAD1
:10076000060195F0000F18BF704703F000465200D5
:1007700043EB030313F4801F08BF013DF7D043EAA6
:100780000603704794EA0C0F0CEA135518BF95EA5C
:100790000C0F0CD050EA410618BF52EA4306D1D1E3
:1007A00081EA030101F000414FF0000070BD50EA02
:1007B000410606BF1046194652EA430619D094EA8C
:1007C0000C0F02D150EA013613D195EA0C0F05D176
:1007D00052EA03361CBF104619460AD181EA0301CA
:1007E00001F0004141F0FE4141F470014FF0000082
:1007F00070BD41F0FE4141F4780170BD70B54FF01D
:10080000FF0C4CF4E06C1CEA11541DBF1CEA13559C
:1008100094EA0C0F95EA0C0F00F0A7F8A4EB05047E
:1008200081EA030E52EA03354FEA013100F0888075
:100830004FEA03334FF0805545EA131343EA12633E
:100840004FEA022245EA111545EA10654FEA0026F3
:100850000EF000419D4208BF964244F1FD0404F5AC
:10086000407402D25B084FEA3202B61A65EB030508
:100870005B084FEA32024FF480104FF4002CB6EBC5
:10088000020E75EB030E22BFB61A754640EA0C0045
:100890005B084FEA3202B6EB020E75EB030E22BF85
:1008A000B61A754640EA5C005B084FEA3202B6EBC6
:1008B000020E75EB030E22BFB61A754640EA9C0085
:1008C0005B084FEA3202B6EB020E75EB030E22BF55
:1008D000B61A754640EADC0055EA060E18D04FEA13
:1008E000051545EA16754FEA06164FEAC30343EAB3
:1008F00052734FEAC2025FEA1C1CC0D111F4801F80
:100900000BD141EA00014FF000004FF0004CB6E778
:1009100011F4801F04BF01430020B4F1FD0C88BF17
:10092000BCF5E06F3FF6AFAEB5EB030C04BFB6EB22
:10093000020C5FEA500C50F1000041EB045170BD15
:100940000EF0004E4EEA113114EB5C04C2BFD4EB42
:100950000C0541EA045170BD41F480114FF0000EC6
:10096000013C90E645EA060E8DE60CEA135594EA42
:100970000C0F08BF95EA0C0F3FF43BAF94EA0C0F45
:100980000AD150EA01347FF434AF95EA0C0F7FF4BA
:1009900025AF104619462CE795EA0C0F06D152EA0E
:1009A00003353FF4FDAE1046194622E750EA4106F2
:1009B00018BF52EA43067FF4C5AE50EA41047FF403
:1009C0000DAF52EA43057FF4EBAE12E74FF0FF3C68
:1009D00006E000BF4FF0010C02E000BF4FF0010C39
:1009E0004DF804CD4FEA410C7FEA6C5C4FEA430CB2
:1009F00018BF7FEA6C5C1BD001B050EA410C0CBF01
:100A000052EA430C91EA030F02BF90EA020F002062
:100A1000704710F1000F91EA030F58BF994208BFC9
:100A200090422CBFD8176FEAE37040F00100704786
:100A30004FEA410C7FEA6C5C02D150EA013C07D1DD
:100A40004FEA430C7FEA6C5CD6D152EA033CD3D028
:100A50005DF8040B704700BF8446104662468C4622
:100A60001946634600E000BF01B5FFF7B7FF002855
:100A700048BF10F1000F01BD4DF808EDFFF7F4FF7E
:100A80000CBF012000205DF808FB00BF4DF808ED09
:100A9000FFF7EAFF34BF012000205DF808FB00BF2C
:100AA0004DF808EDFFF7E0FF94BF012000205DF84E
:100AB00008FB00BF4DF808EDFFF7CEFF94BF012003
:100AC00000205DF808FB00BF4DF808EDFFF7C4FFFC
:100AD00034BF012000205DF808FB00BF4FEA410C45
:100AE0007FEA6C5C02D150EA013C0AD14FEA430C28
:100AF0007FEA6C5C02D152EA033C02D14FF0000065
:100B000070474FF0010070474FEA410212F50012A2
:100B100015D211D56FF47873B3EB625212D94FEA44
:100B2000C12343F0004343EA505311F0004F23FA2E
:100B300002F018BF404270474FF00000704750EA83
:100B4000013005D111F0004008BF6FF00040704740
:100B50004FF00000704700BF53B94AB9002908BFE1
:100B600000281CBF4FF0FF314FF0FF3000F06AB992
:100B7000ADF1080C6DE904CE00F006F8DDF804E0F4
:100B8000DDE9022304B070472DE9F047089D0C46CB
:100B9000002B4ED194468C458646B2FA82F262D939
:100BA0004AB1C2F12003914020FA03F30CFA02FC8F
:100BB000194300FA02FE4FEA1C471FFA8CF6B1FBFC
:100BC000F7F44FEA1E4307FB141143EA014304FB09
:100BD00006F199420AD91CEB030304F1FF3080F0BF
:100BE0001281994240F20F81023C6344591A1FFA64
:100BF0008EF3B1FBF7F007FB101143EA014300FB52
:100C000006F69E420AD91CEB030300F1FF3180F087
:100C1000FC809E4240F2F980634402389B1B40EA0C
:100C2000044000211DB1D3400022C5E90032BDE8D7
:100C3000F0878B4205D90DB1C5E9000100210846B6
:100C4000F5E7B3FA83F1002946D1A34202D39042DB
:100C5000C0F0F080861A64EB03030120002DE6D07B
:100C6000C5E90063E3E7002A40F09080A1EB0C04A3
:100C70004FEA1C481FFA8CF70121B4FBF8F64FEA43
:100C80001E4308FB164443EA044307FB06F0984260
:100C900008D91CEB030306F1FF3402D2984200F29C
:100CA000CD8026461C1A1FFA8EF3B4FBF8F008FB21
:100CB000104443EA044300FB07F79F4208D91CEBAA
:100CC000030300F1FF3402D29F4200F2B0802046BD
:100CD000DB1B40EA0640A5E7C1F120068B4022FA63
:100CE00006F71F4320FA06FC04FA01F343EA0C035B
:100CF000F44000FA01F8380C4FEA1349B4FBF0FE57
:100D00001FFA87FC00FB1E4449EA04440EFB0CF961
:100D1000A14502FA01F20AD93C190EF1FF3A80F01E
:100D20008480A14540F28180AEF1020E3C44A4EBE8
:100D300009041FFA83F9B4FBF0F300FB134449EAFA
:100D4000044403FB0CFCA44507D93C1903F1FF3014
:100D500067D2A44565D9023B3C4443EA0E40A0FB60
:100D60000293A4EB0C049C42CE469C4651D34ED039
:100D700055B1B8EB0E0364EB0C0404FA06F6CB4055
:100D80001E43CC40C5E90064002150E7C2F12003B6
:100D900020FA03F10CFA02FC24FA03F394400C430A
:100DA0004FEA1C4800FA02FE1FFA8CF7B3FBF8F07A
:100DB00008FB1031230C43EA014300FB07F1994281
:100DC00008D91CEB030300F1FF362CD299422AD933
:100DD000023863445B1AA4B2B3FBF8F108FB113389
:100DE00044EA034401FB07F3A34208D91CEB0404C3
:100DF00001F1FF3613D2A34211D902396444E41A37
:100E000041EA004139E70446F0E6084606E7C845EE
:100E1000AED2B9EB020E63EB070C0138A8E73146FE
:100E2000EDE7034699E73046D4E7D6467FE76344CB
:100E300002384DE70646234608460FE7023E634464
:100E400030E700BF704700BFD458C4500433C41803
:100E50008C42F9D37047036004308842FBD370475B
:100E60000C48854609F01AFA0B480C490C4A002335
:100E7000FFF7EDFF0B480C490023FFF7EEFF0B488F
:100E80000B490023FFF7E9FF13F0DEFC01F03CFD06
:100E9000FEE700000000032008000020EC05002011
:100EA00068DB010850060020FC3C0020E401032020
:100EB000670A0320FEE7000080B483B000AF7860CB
:100EC000064BD3F8902005497B681343C1F8903056
:100ED00000BF0C37BD465DF8047B70470008005822
:100EE00080B485B000AF78604FF0B043DA6C4FF05B
:100EF000B0417B681343CB644FF0B043DA6C7B683E
:100F00001340FB60FB6800BF1437BD465DF8047BEF
:100F1000704780B485B000AF78604FF0B043D3F82D
:100F20004C214FF0B0417B681343C1F84C314FF076
:100F3000B043D3F84C217B681340FB60FB6800BFD3
:100F40001437BD465DF8047B704780B500AF09F0EB
:100F50006BFA09F06FFA4FF48030FFF7ADFF10F035
:100F60003BF900F021F800F0C1F800BF80BD00009F
:100F7000B0B588B000AF0B4B3C1D1D460FCD0FC464
:100F800095E8070003C422800234130C237011F08B
:100F900081FE3B1D184610F082FE00BF2037BD4683
:100FA000B0BD00BF1867010880B588B000AF3B1D19
:100FB00000221A605A609A60DA601A610023BB83CB
:100FC00000237B8300233B830023FB7736E0FB7FFA
:100FD000434ADB0013449B79002B2CD0FB7F404A13
:100FE00052F833303F4A93421BD03E4A934221D8B5
:100FF000B3F1904F03D03C4A934209D01AE0FB7FF3
:10100000374ADB0013449A88BB8B1343BB8312E03F
:10101000FB7F334ADB0013449A887B8B13437B832B
:1010200009E0FB7F2E4ADB0013449A883B8B134375
:101030003B8300E000BFFB7F0133FB77FB7F252B69
:10104000C5D90023FB600123BB6003233B61BB8B3D
:10105000002B14D0BB8B7B600120FFF741FF0120E8
:10106000FFF757FF3B1D19464FF0904009F02AFE4D
:10107000BB8B002219464FF090400AF089F87B8B19
:10108000002B12D07B8B7B600220FFF729FF022010
:10109000FFF73FFF3B1D1946134809F013FE7B8BFA
:1010A0000022194610480AF073F83B8B002B13D02E
:1010B0003B8B7B600420FFF713FF0420FFF729FF21
:1010C0003B1D1946074809F0FDFD3B8B00221946E0
:1010D00004480AF05DF800BF00BF2037BD4680BD60
:1010E000FC860108000800480004004880B400AFF6
:1010F00000BFBD465DF8047B704780B500AF01F0CE
:1011000047FB00BF80BD000080B483B000AF7860B3
:10111000074BD3F8803023F0070205497B6813435F
:10112000C1F8803000BF0C37BD465DF8047B7047C6
:101130000004005880B483B000AF7860064BD3F849
:10114000902005497B681343C1F8903000BF0C37ED
:10115000BD465DF8047B70470008005880B483B03A
:1011600000AF78604FF0B0430A4AC3F89C204FF0BC
:10117000B043D3F89C3023F47C527B681B024FF0C1
:10118000B0411343C1F89C3000BF0C37BD465DF839
:10119000047B7047FECAFECA80B483B000AF78609B
:1011A0004FF0B0439B6823F400424FF0B0417B689E
:1011B00013438B6000BF0C37BD465DF8047B70475E
:1011C00080B400AF044B1B68C3F30B031846BD4645
:1011D0005DF8047B704700BF002004E080B400AFDE
:1011E000044B1B681B0C9BB21846BD465DF8047B84
:1011F000704700BF002004E080B400AF054B1B69BE
:10120000044A23F00403136100BFBD465DF8047B6C
:10121000704700BF00ED00E080B483B000AF78609D
:101220007B68FF225A6200BF0C37BD465DF8047B25
:10123000704780B483B000AF78607B68CA225A627E
:101240007B6853225A6200BF0C37BD465DF8047BB1
:10125000704780B483B000AF786039607B689B686A
:1012600023F007023B681A437B689A6000BF0C3783
:10127000BD465DF8047B704780B500AF044B4FF46A
:1012800000421A6100F060F800F065F800BF80BD10
:101290000040005880B500AF00F071F800F08AF807
:1012A0001E49002000F072FFFFF74FFE01210120D0
:1012B00012F0AAF80021002008F0CAFB184811F02B
:1012C00075FD002011F0C8FD0021002008F0E4FDAC
:1012D000002008F08DFC002008F0B6FC114811F049
:1012E00003FEFF2011F0D8FD002011F0E9FD0021E0
:1012F000002008F0D1FD002008F0A6FC01230A4AD6
:101300000021002011F066FE002008F09DFC00F096
:1013100085FA00F05DF800BF80BD00BF4C070020DB
:101320005CD20108140400203467010880B400AFC7
:1013300000BFBD465DF8047B704780B500AF50200C
:10134000FFF7F8FE00BF80BD80B400AF00BFBD4610
:101350005DF8047B704780B582B000AF002010F0CC
:101360005FFC78607B68002B05D07B689B79184612
:10137000FFF7F4FE00BF00BF0837BD4680BD80B553
:1013800000AFFFF7D3FFFFF7D8FF00F003F800BF6F
:1013900080BD000080B500AF0548FFF74AFF00217F
:1013A0000348FFF756FF0248FFF736FF00BF80BD36
:1013B0000028004080B500AF4FF40040FFF7ECFE7E
:1013C00012F010F80420FFF79FFE00BF80BD000060
:1013D00080B588B000AF11F0A7FA114A0021202093
:1013E00012F03EF90F4B3B600F4B7B603B461946BA
:1013F0000E4810F02FFD0E4BBB600E4BFB600E4BEA
:101400003B6140F23C537B6107F10803184611F041
:10141000CDFB11F083FA00BF2037BD4680BD00BF71
:101420008D1E0108340703203D14000855140008E0
:101430004C09032040080320F801032080B483B046
:1014400000AF0346FB7100BF0C37BD465DF8047B5F
:101450007047000080B588B000AF78607B685B683B
:101460000B33FB61FB691B889BB2A3F51243072B6F
:1014700000F2D08001A252F823F000BF9D140008B2
:101480002F150008511500081516000895150008BD
:10149000B9150008D5150008F915000807F10C0367
:1014A000184610F029FC5E480FF06EFE01464FF41E
:1014B000C8735C4A5C4812F0C9FF3B7B19467B7BD2
:1014C0001A46BB7B594812F0C1FF55480FF05CFE2D
:1014D000014640F29113534A534812F0B7FF3B7C48
:1014E0001946534812F0B2FF4D480FF04DFE014629
:1014F0004FF4C9734B4A4C4812F0A8FFBB7D194604
:10150000FB7D1A463B7E4B4812F0A0FF44480FF08B
:101510003BFE01464FF4CA73424A434812F096FF1D
:10152000454813F003F8786800F0E0F873E03C48B1
:101530000FF02AFE014640F299133A4A3A4812F057
:1015400085FF3E4812F0F2FF786800F085F862E00F
:1015500033480FF019FE01464FF4CF73314A324839
:1015600012F074FF364812F0E1FF2D480FF00CFE28
:10157000014640F29F132B4A2B4812F067FFFB698C
:1015800002331968FB6902335B681A462D4812F072
:101590005DFF40E022480FF0F7FD014640F2A51341
:1015A000204A214812F052FFFB6902331B6819469A
:1015B000254812F04BFF2EE019480FF0E5FD0146DB
:1015C0004FF4D573174A184812F040FF1F4812F025
:1015D000ADFF20E012480FF0D7FD01464FF4D7735E
:1015E000104A114812F032FFFB6902331B6819469A
:1015F000174812F02BFF0EE009480FF0C5FD014619
:1016000040F2B313074A084812F020FF114812F0C5
:101610008DFF00E000BF00BF2037BD4680BD00BF8A
:10162000486701082C880108D0670108E8670108AD
:1016300010680108306801084868010868680108F6
:101640008C680108DC680108086901084469010820
:1016500068690108A469010880B584B000AF7860AA
:101660007B685B680B33FB60FB680233BB60194827
:101670000FF08AFD014640F2CB13174A174812F0CB
:10168000E5FEBB681B781946154812F0DFFEBB6803
:101690001B78002B0DD10F480FF076FD01464FF45B
:1016A000E8730D4A0D4812F0D1FE0E4812F03EFFCD
:1016B0000DE008480FF068FD01464FF4EA73064A52
:1016C000064812F0C3FE084812F030FF00BF103782
:1016D000BD4680BD4867010840880108D067010801
:1016E000C8690108FC690108386A010880B58AB038
:1016F00000AF786007F1080300221A605A609A6010
:10170000DA6000237B6200233B627B685B680B33FB
:10171000FB61FB690233BB61BB691B78002B46D1BF
:1017200036480FF031FD01464FF4F573344A354821
:1017300012F08CFE344812F0F9FEFFF719FC0F236B
:101740003B727F23BB72FFF749FD78622B480FF095
:101750001BFD014640F20223294A2A4812F076FE78
:10176000796A2A4812F072FE7B6A9BB2BB82FFF74D
:1017700027FD386221480FF007FD014640F207239C
:101780001F4A204812F062FE396A214812F05EFEBC
:101790003B6A9BB2FB8207F10803184610F096FAE9
:1017A00002F0CAF80021012011F02EFE22E0BB69F0
:1017B0001B78012B10D111480FF0E6FC01464FF4C5
:1017C00005730F4A0F4812F041FE124812F0AEFEA8
:1017D0007B6800221A700DE008480FF0D5FC014626
:1017E00040F21B23064A074812F030FE0A4812F066
:1017F0009DFE00BF2837BD4680BD00BF4867010879
:1018000054880108D0670108746A0108906A0108C9
:10181000B46A0108D86A01080C6B010880B500AFF2
:101820000121002007F060FF0121012007F05CFF8B
:1018300000BF80BD80B584B000AF786008F0D0FDF7
:10184000B8607B68FB60FB68B3F1FF3F0AD008F02B
:10185000DFFD03461A46FB681344FB6002E0FFF716
:10186000CBFC30BF08F0BCFD0246BB68D31AFA6857
:101870009A42F4D800BF00BF1037BD4680BD80B586
:1018800000AF4FF0FF3011F0EFFD00BF80BD80B41E
:1018900000AF00BFBD465DF8047B704780B582B0E5
:1018A00000AF786039604FF0FF3011F0DDFD00BF10
:1018B0000837BD4680BD80B582B000AF786000219A
:1018C000202011F0EFFE00BF0837BD4680BD80B577
:1018D00082B000AF7860022011F050FF00BF0837DF
:1018E000BD4680BD80B582B000AF7860022011F0A7
:1018F00065FF00BF0837BD4680BD000080B582B0DF
:1019000000AF0346FB80FB88B3F5005F1FD0B3F543
:10191000005F1FDC102B0EDC022B1BDB1A46104B6A
:10192000D34003F00103002B14BF01230023DBB2DB
:10193000002B04D10EE0B3F5805F05D00AE0FB88F0
:10194000184606F085FE06E002F0BCFD03E002F05A
:10195000F1FD00E000BF00BF0837BD4680BD00BFFD
:101960001401010080B483B000AF7860064BD3F857
:10197000802005497B681343C1F8803000BF0C37D5
:10198000BD465DF8047B70470008005880B483B002
:1019900000AF7860054B1A6804497B6813430B60FD
:1019A00000BF0C37BD465DF8047B70470008005847
:1019B00080B483B000AF0D4B9B6A9BB27B600B4B36
:1019C0009B6A9BB23B6005E03B687B60074B9B6A70
:1019D0009BB23B607A683B689A42F5D13B681846F7
:1019E0000C37BD465DF8047B704700BF00280040FF
:1019F00080B485B000AF03460A46FB711346BB7145
:101A0000BA791D4913465B001344DB000B441533C0
:101A10001B78FB73FB7B062B09D0FA7B1649134618
:101A20005B001344DB000B441433FA791A70FA7923
:101A3000114913465B001344DB000B441533FA7B5A
:101A40001A70FA790C4913465B001344DB000B440F
:101A50001433BA791A70BA79074913465B001344F4
:101A6000DB000B441533FA791A7000BF1437BD46FA
:101A70005DF8047B704700BF6C06002080B485B021
:101A800000AF03460A46FB711346BB71294B1B7816
:101A9000DBB2BA799A4232D0BA79274913465B0051
:101AA0001344DB000B4414331B78FB73FA7B22498D
:101AB00013465B001344DB000B441533FA791A70AC
:101AC000FA791D4913465B001344DB000B441533C0
:101AD000BA791A70FA79184913465B001344DB008F
:101AE0000B441433FA7B1A70BA79134913465B001E
:101AF0001344DB000B441433FA791A7014E0FA79BA
:101B00000D4913465B001344DB000B441533BA79CF
:101B10001A70BA79084913465B001344DB000B4482
:101B20001433FA791A7000BF1437BD465DF8047B90
:101B3000704700BFFC0600206C06002080B584B012
:101B400000AF0346FB714E4B1B78DBB2062B18D15E
:101B50004B4B1B78DAB24B4B1A70494AFB79137026
:101B6000FA79494913465B001344DB000B441533F3
:101B700006221A70454B4FF0FF321A600023FB819A
:101B800078E000F009F90346FB81FA793E491346F3
:101B90005B001344DB000B4408331968FB89FA79B6
:101BA0001944394813465B001344DB0003440833EF
:101BB0001960FA79344913465B001344DB000B4487
:101BC00008331B68BB602E4B1B78DBB219462E4ACC
:101BD0000B465B000B44DB00134408331B68BA68F8
:101BE0009A4237D3264B1B787B737A7B2649134660
:101BF0005B001344DB000B4415331B783B7313E08D
:101C00007A7B214913465B001344DB000B441533F8
:101C10001B787B737A7B1C4913465B001344DB0003
:101C20000B4415331B783B733B7B062B0BD03A7B65
:101C3000154913465B001344DB000B4408331B6853
:101C4000BA689A42DCD27A7BFB7911461846FFF7D4
:101C5000CFFE0FE00A4B1B78DAB2FB79114618462B
:101C6000FFF70CFF064B1B78DAB2064B1A70044ADA
:101C7000FB791370FB8918461037BD4680BD00BF45
:101C8000FC060020FD0600206C0600200007002056
:101C900080B485B000AF03460A46FB711346BB71A2
:101CA000394B1B78DBB2FA799A4211D1364B1B784B
:101CB000DAB2364B1A70FA79354913465B00134491
:101CC000DB000B4415331B78DAB22F4B1A703EE061
:101CD000FA792F4913465B001344DB000B4414339D
:101CE0001B78FB73FA792A4913465B001344DB0027
:101CF0000B4415331B78BB73F979FA7B24480B46E8
:101D00005B000B44DB00034415331B78D8B2204939
:101D100013465B001344DB000B44153302461A7074
:101D2000BB7B062B13D0F979BA7B19480B465B00B5
:101D30000B44DB00034414331B78D8B21449134618
:101D40005B001344DB000B44143302461A70FA792B
:101D50000F4913465B001344DB000B440C33012294
:101D60001A70094B1B78DBB2062B07D1BB79002B0D
:101D700004D1084B4FF0FF321A6000BF00BF143788
:101D8000BD465DF8047B7047FC060020FD06002080
:101D90006C0600200007002080B582B000AF1A4B0F
:101DA0001B68B3F1FF3F26D0FFF702FE7860164BA9
:101DB0001B687A689A4205D8134B1A687B68D31A55
:101DC0007B600AE0114B1B881A467B68D31A3B6084
:101DD0000D4B1B683A6813447B600D4B1B781A4609
:101DE0007B6802FB03F37B600A4B1B781A467B6817
:101DF000D3407B6001E000237B607B689BB2184688
:101E00000837BD4680BD00BF00070020080700203E
:101E1000060700200507002080B582B000AF03460A
:101E2000FB80FB88002B08D1FFF7C2FD0346214A47
:101E30001360032008F081FC39E0FB88012B03D8F4
:101E40001D4B1B78012B02D0FB88013BFB8000BFA0
:101E50001A4B1B68DB6803F00403002BF8D0174B08
:101E60001B68DB68DAB2154B1B6862F49062DA60BB
:101E7000134B4FF40022DA60032008F06CFC114B86
:101E80005B691B0C1B04FA880E4913434B61FFF777
:101E90008FFD0346074A1360084B1B689A68074B7F
:101EA0001B6842F480629A60AFF3008000BF08377D
:101EB000BD4680BD00070020050700204C0700201C
:101EC000000800580028004080B584B000AF454BA2
:101ED0009B6803F48063B3F5806F07D100BF424B6A
:101EE0001B68DB6803F00403002BF8D13E4B1B6832
:101EF0009A683D4B1B6822F480629A603B4B1B78CA
:101F0000FB73FA7B3A4913465B001344DB000B4436
:101F100008331B68BB60FFF73FFF0346FB80FB886D
:101F2000BA689A4205D20023BB81324B01221A7053
:101F30004DE0FB88304A128892B213441A46BB68BF
:101F4000934206D92C4B1B88BB812A4B00221A7066
:101F50003DE0BB689AB2FB88D31ABB81254B0122B6
:101F60001A7034E0FA7B224913465B001344DB000D
:101F70000B4408331A68FB889A420AD2FA7B1C4940
:101F800013465B001344DB000B44083300221A6045
:101F900013E0FA7B164913465B001344DB000B4445
:101FA00008331968FB88FA7BC91A114813465B008D
:101FB0001344DB00034408331960FA7B0C491346D1
:101FC0005B001344DB000B4415331B78FB73FB7B76
:101FD000062BC7D1BB891846FFF71EFF00BF10377D
:101FE000BD4680BD002800404C070020FC060020B4
:101FF0006C060020040700200A07002080B58AB084
:1020000000AFEFF310837B617B697B6272B600BF28
:10201000594B1B68CA225A62574B1B6853225A629B
:10202000554B1B689A68544B1B6822F480629A6077
:10203000524B1B7887F8233097F8232050491346DA
:102040005B001344DB000B440C331B78DBB2022B28
:102050006ED197F823204A4913465B001344DB00F6
:102060000B441B68FB6197F82320454913465B002E
:102070001344DB000B4410331B68BB61414B1B78DE
:10208000DBB2002B4CD097F823203D4913465B0070
:102090001344DB000B440D331B78DBB2012B24D13E
:1020A00097F8233001211846FFF7F2FD7B6A3B6168
:1020B0003B6983F3108800BF97F82320304913460B
:1020C0005B001344DB000B4404331A6897F8233099
:1020D0001146184600F032FA274B1B68CA225A6292
:1020E000254B1B6853225A6212E07B6AFB60FB6837
:1020F00083F3108800BF97F82330184600F09AF950
:102100001D4B1B68CA225A621B4B1B6853225A6222
:1021100097F82330FA691946B86900F095FA22E079
:10212000FFF7D2FE7B6ABB60BB6883F310881AE0BE
:1021300000BF114B1B68DB6803F00403002BF8D0D1
:102140000D4B1B68DB68DAB20B4B1B6862F49062C4
:10215000DA600D4B4FF40022DA607B6A7B607B68AB
:1021600083F3108800BF044B1B68FF225A6200BF34
:102170002837BD4680BD00BF4C070020FC0600206C
:102180006C060020040700200008005880B588B0C5
:1021900000AF03463960FB715E4B1B68CA225A626E
:1021A0005C4B1B6853225A625B4B9B685A4A43F054
:1021B00020039360584B9B68DBB203F00703DBB24C
:1021C000C3F10403DAB2554B1A70534B1B6903F485
:1021D000FE034FF4FE023A613A6992FAA2F2FA6003
:1021E000FA687A617A69002A01D1202203E07A69CB
:1021F000B2FA82F2D2B2D340DBB20133DAB2484B48
:102200001A70454B1B699BB2C3F30E039BB201339B
:102210009AB2444B1A80434B1B88013B404A1278C8
:1022200002FB03F3A3F5A0733C4A1278D340BB61D1
:10223000BB694FF6FE72934204D93B4B4FF6FF72D7
:102240001A8003E0BB699AB2374B1A804FF4002022
:10225000FFF79CFB4FF40020FFF784FBFB79002B7A
:102260003DD1324B01221A70314B4FF0FF321A60D0
:102270000023FB770CE0FA7F2E4913465B001344E2
:10228000DB000B440C3300221A70FB7F0133FB7719
:10229000FB7F052BEFD9284B06221A701D4B1B68BC
:1022A0009A681C4B1B6822F480629A60194B1B6869
:1022B000DB68DAB2174B1B6862F49062DA601F4B7E
:1022C0004FF40022DA60032008F045FA114B1B6836
:1022D0009A68104B1B6842F480429A6009E00D4BEB
:1022E0001B68DB6803F48063002B02D0032008F036
:1022F00024FA084B1B68FF225A62002203210320A4
:1023000008F0D9F9032008F0F0F900BF2037BD46E6
:1023100080BD00BF4C0700200028004005070020BA
:1023200006070020080700200A07002004070020F5
:10233000000700206C060020FC0600200008005862
:1023400080B48BB000AFF860B9603B601346FB719E
:10235000002387F82630EFF31083FB61FB693B62B3
:1023600072B600BF04E097F82630013387F82630B4
:1023700097F82630052B0CD897F826202C491346C1
:102380005B001344DB000B440C331B78DBB2002BE7
:10239000E9D197F82630062B38D097F82620244923
:1023A00013465B001344DB000B440C3301221A700C
:1023B0003B6ABB61BB6983F3108800BF97F8262096
:1023C0001B4913465B001344DB000B441033FA68CF
:1023D0001A6097F82620164913465B001344DB0069
:1023E0000B440D33FA791A7097F8262010491346DA
:1023F0005B001344DB000B443A681A60BB6897F833
:1024000026201A70002387F8273008E03B6A7B619A
:102410007B6983F3108800BF012387F8273097F882
:10242000273018462C37BD465DF8047B704700BF47
:102430006C06002080B586B000AF0346FB71EFF359
:102440001083FB60FB687B6172B600BF032008F05D
:102450005AF9344B1B68CA225A62324B1B6853220A
:102460005A62FA79304913465B001344DB000B448F
:102470000C331B78DBB2022B42D1FB7900211846CA
:10248000FFF706FC294B1B78FB74FB7C062B2FD136
:10249000274B9B6803F48063B3F5806F07D100BFBF
:1024A000204B1B68DB6803F00403002BF8D11D4BA5
:1024B0001B689A681B4B1B6822F480629A6000BFFD
:1024C000184B1B68DB6803F00403002BF8D0154B96
:1024D0001B68DB68DAB2134B1B6862F49062DA6047
:1024E000144B4FF40022DA60032008F034F907E0BF
:1024F000114B1B78DBB2FA7C9A4201D0FFF7E4FC67
:10250000084B1B68FF225A62032008F0EEF87B6933
:10251000BB60BB6883F3108800BF00BF1837BD469F
:1025200080BD00BF4C0700206C060020FC06002088
:102530000028004000080058FD06002080B586B045
:1025400000AF03463960FB71FA793B4913465B00E3
:102550001344DB000B440C331B78DBB2022B03D19A
:10256000FB791846FFF766FFEFF31083FB60FB680B
:102570007B6172B600BF032008F0C5F82F4B1B68C3
:10258000CA225A622D4B1B6853225A62FA792A4991
:1025900013465B001344DB000B440C3302221A7019
:1025A000FA79254913465B001344DB000B440833DA
:1025B0003A681A60FA79204913465B001344DB003D
:1025C0000B4404333A681A60FB791846FFF7B6FAF1
:1025D00003467B821A4B1B787B741A4B1B78DBB249
:1025E0007A7C9A4202D0FFF76FFC13E0FA79124925
:1025F00013465B001344DB000B44083319687B8AE5
:10260000FA79C91A0C4813465B001344DB000344F3
:1026100008331960094B1B68FF225A62032008F037
:1026200064F87B69BB60BB6883F3108800BF00BFA0
:102630001837BD4680BD00BF6C0600204C07002047
:10264000FC060020FD06002080B584B000AFF860D5
:102650000B467A60FB727B68984700BF1037BD4617
:1026600080BD000080B582B000AF78607B681B68D9
:102670001A46094B9A4207D1084B1B68002B05D01C
:10268000064B1B68984701E000BF00E000BF00BF99
:102690000837BD4680BD00BF008000400C07002009
:1026A00080B483B000AF78604FF0B043D3F890307F
:1026B00023F018024FF0B0417B681343C1F890300B
:1026C00000BF0C37BD465DF8047B704780B485B011
:1026D00000AF78604FF0B0439A6C4FF0B0417B6828
:1026E00013438B644FF0B0439A6C7B681340FB60DC
:1026F000FB6800BF1437BD465DF8047B704780B4AB
:1027000085B000AF78604FF0B043DA6C4FF0B04165
:102710007B681343CB644FF0B043DA6C7B681340A3
:10272000FB60FB6800BF1437BD465DF8047B704753
:1027300080B483B000AF78607B68FF225A6200BF2C
:102740000C37BD465DF8047B704780B483B000AFA2
:1027500078607B68CA225A627B6853225A6200BF43
:102760000C37BD465DF8047B704780B483B000AF82
:10277000786039607B689B6823F007023B681A43E6
:102780007B689A6000BF0C37BD465DF8047B7047DC
:1027900080B500AF224B234A1A60214B4FF4E1323F
:1027A0005A601F4B00229A601D4B0022DA601C4BBE
:1027B00000221A611A4B0C225A61194B00229A61AD
:1027C000174B00221A62164B00225A62144B002249
:1027D0009A62134B00225A6611480BF0D5FF03464C
:1027E000002B01D000F0DDFC00210D480DF0DDF8DC
:1027F0000346002B01D000F0D4FC002108480DF066
:1028000012F90346002B01D000F0CBFC04480DF078
:1028100093F80346002B01D000F0C3FC00BF80BD3D
:10282000640800200080004080B586B002AF4FF4FD
:10283000A873FB600023BB600023FB8000237B7137
:1028400005F040F90023009300234FF4007228495B
:10285000284804F017FF0023009300234FF4007270
:102860002349254804F00EFF0023009300234FF472
:1028700000721F49214804F005FF3B461A462049D3
:102880001D4804F0F3FF03467B7197F90530002BD8
:1028900005D13B681A461A491A480EF021FC3B46FE
:1028A0001A461749134804F0E1FF03467B7197F974
:1028B0000530002B05D13B681A46114911480EF02E
:1028C0000FFC3B461A460E490C4804F0CFFF034666
:1028D0007B7197F90530002B05D13B681A460849F2
:1028E00008480EF0FDFB00BF1037BD4680BD00BF9D
:1028F00008000020906B01089C6B0108A86B010880
:10290000640A0020B46B010880B500AF07F0FAFC40
:10291000FEF7B2FC00F01EF800F078F800F096F830
:1029200000F038FC00F0F4F800F0E0F800F0AAF84D
:10293000FFF72EFF00F09EF800F0C8FB00F004FC4B
:10294000FEF7A8FCFFF770FF03F024F8FEF797FFEF
:10295000FCE7000080B59AB000AF07F120034822E1
:102960000021184611F0F2FE3B1D00221A605A6049
:102970009A60DA601A615A619A6108F0E3FC1020EB
:10298000FFF78EFE204B1B6823F4C0631E4A43F4FE
:10299000007313601C4B1B6803F4C0633B603B680F
:1029A00007233B624FF480337B620123BB624FF409
:1029B0008073FB6240233B630023FB6407F1200329
:1029C000184609F019FC0346002B01D000F0E9FB82
:1029D0006F237B600223BB600023FB6000233B610D
:1029E00000237B610023BB610023FB613B1D0121B0
:1029F000184609F075FF0346002B01D000F0D1FB0B
:102A000000BF6837BD4680BD0004005880B594B053
:102A100000AF3B4650220021184611F097FE4FF4BC
:102A200040533B604FF480437B640223BB6400232C
:102A3000FB643B4618460AF090FB0346002B01D08E
:102A400000F0AFFB00BF5037BD4680BD80B500AF82
:102A5000064B074A1A60054808F0EEFB0346002BB8
:102A600001D000F09EFB00BF80BD00BF100700201A
:102A7000000C005880B400AF00BFBD465DF8047B79
:102A80007047000080B500AF164B174A1A60154B0F
:102A900000225A60134B0F229A60124B47F6FF72C6
:102AA000DA60104B00221A610E4B00229A610D4B26
:102AB0000022DA610B4B00225A610A480AF0D4FD69
:102AC0000346002B01D000F06CFB0748FFF73DFEEA
:102AD00000210548FFF749FE0348FFF729FE00BF24
:102AE00080BD00BF4C0700200028004080B500AF2B
:102AF0000420FFF7EBFD0220FFF7E8FD00220F2185
:102B00003A2007F0D8FD3A2007F0EFFD00BF80BD66
:102B100080B586B000AF3B1D00221A605A609A60F3
:102B2000DA601A610120FFF7EAFD0420FFF7E7FDF4
:102B30000220FFF7E4FD0820FFF7E1FD1020FFF77A
:102B4000DEFD8020FFF7DBFD00220321BF4808F0F7
:102B50001FFB00224FF44071BD4808F019FB002212
:102B60004FF48071BB4808F013FB00220421BA48DF
:102B700008F00EFB00220121B64808F009FB0022F4
:102B80004021B34808F004FB01224021B34808F07B
:102B9000FFFA012220214FF0904008F0F9FA3A2381
:102BA0007B600323BB600023FB603B1D1946A848E4
:102BB00008F088F840F604437B600023BB600023E4
:102BC000FB603B1D1946A24808F07CF84FF40073E7
:102BD0007B600223BB600023FB6000233B610A2370
:102BE0007B613B1D19469D4808F06CF801237B6012
:102BF0000223BB600023FB6000233B6108237B6151
:102C00003B1D1946924808F05DF84FF480737B60D5
:102C10001223BB600023FB6000233B6104237B6124
:102C20003B1D19468D4808F04DF84FF481537B60E9
:102C30000223BB600023FB6000233B6108237B6110
:102C40003B1D1946854808F03DF84FF400437B6072
:102C50000223BB600023FB6000233B6101237B61F7
:102C60003B1D19464FF0904008F02CF84FF480635C
:102C70007B601223BB600023FB6000233B610423C5
:102C80007B613B1D19464FF0904008F01BF84FF454
:102C9000C0537B600223BB600023FB6000233B61C9
:102CA0000A237B613B1D19464FF0904008F00AF85B
:102CB00012237B600023BB600023FB603B1D194691
:102CC000654807F0FFFF4FF480637B600223BB6021
:102CD0000023FB6000233B6101237B613B1D194600
:102CE0005E4807F0EFFF04237B600023BB600023F6
:102CF000FB603B1D1946594807F0E4FF4FF4407351
:102D00007B600223BB600023FB6000233B61032345
:102D10007B613B1D19464FF0904007F0D3FF4023E5
:102D20007B600223BB600023FB6000233B61082320
:102D30007B613B1D19464FF0904007F0C3FF08230D
:102D40007B600223BB600023FB6000233B610A23FE
:102D50007B613B1D19464FF0904007F0B3FF032302
:102D60007B600123BB600023FB6000233B613B1DB4
:102D70001946364807F0A6FF4FF440437B60022314
:102D8000BB600023FB6000233B6101237B613B1D93
:102D90001946304807F096FF43F210037B6000238A
:102DA000BB600023FB603B1D19462A4807F08AFFE1
:102DB0004FF401737B604FF48813BB600023FB600A
:102DC0003B1D1946234807F07DFF4FF440737B609D
:102DD0000123BB600023FB6000233B613B1D1946C0
:102DE0001B4807F06FFF68237B600223BB60002352
:102DF000FB6000233B610A237B613B1D194615489C
:102E000007F060FF08237B604FF48813BB6000234A
:102E1000FB603B1D1946104807F054FF4FF48073C8
:102E20007B600123BB600023FB6000233B613B1DF3
:102E30001946084807F046FF4FF440637B600223C1
:102E4000BB600023FB6000230AE000BF001C0048B9
:102E500000080048000C004800100048000400482A
:102E60003B6109237B613B1D1946724807F02AFF2D
:102E700004237B600123BB600023FB6000233B61D4
:102E80003B1D19466C4807F01DFF01237B600223A0
:102E9000BB600023FB6000233B610E237B613B1D75
:102EA0001946654807F00EFF01237B600123BB60D4
:102EB0000023FB6000233B613B1D19465D4807F082
:102EC00001FF02237B600023BB600223FB603B1DEC
:102ED0001946584807F0F6FE40237B600123BB608B
:102EE0000023FB6000233B613B1D1946534807F05C
:102EF000E9FE40237B600123BB600123FB600123CB
:102F00003B613B1D19464E4807F0DCFE20237B60E9
:102F10000123BB600123FB6002233B613B1D19467B
:102F20004FF0904007F0CEFE00224FF400414FF0EA
:102F3000904008F02DF9012210214FF0904008F048
:102F400027F9002202213C4808F022F906237B6081
:102F50004FF48813BB600023FB603B1D19464FF004
:102F6000904007F0AFFE18237B604FF48813BB60DE
:102F70000023FB603B1D1946304807F0A3FE4FF4C9
:102F800080637B600123BB600023FB6000233B6107
:102F90003B1D1946294807F095FE48F210037B6057
:102FA0000123BB600023FB6000233B613B1D1946EE
:102FB0004FF0904007F086FE4FF480437B60002383
:102FC000BB600023FB603B1D19461A4807F07AFEE0
:102FD00002237B600123BB600023FB6000233B6175
:102FE0003B1D1946144807F06DFE002205210720FD
:102FF00007F061FB072007F078FB0022052108207D
:1030000007F059FB082007F070FB0022052109207A
:1030100007F051FB092007F068FB002205210A2078
:1030200007F049FB0A2007F060FB00BF1837BD46D8
:1030300080BD00BF000C0048001000480008004898
:103040000004004880B582B000AF786039601D4B45
:103050001D4A1A601B4B4FF482725A60194B0022B2
:103060009A60184B4FF4E062DA60164B00221A6146
:10307000144B00225A61134B4FF400729A61114BAA
:103080000022DA610F4B00221A620E4B00225A62B4
:103090000C4B00229A620B4B0722DA62094B00228A
:1030A0001A63084B08225A6306480AF013FC0346C9
:1030B000002B01D000F075F800BF18460837BD4658
:1030C00080BD00BF580900200030014080B500AF2E
:1030D0001B4B1C4A1A601A4B4FF482725A60184BF1
:1030E00000229A60164B4FF4E062DA60144B002223
:1030F0001A61134B00225A61114B4FF400729A610E
:103100000F4B2022DA610E4B00221A620C4B002278
:103110005A620B4B00229A62094B0722DA62084B73
:1031200000221A63064B08225A6305480AF0D2FBB4
:103130000346002B01D000F034F800BF80BD00BF73
:10314000BC0900200038004080B500AF0F4B104A8A
:103150001A600E4B02225A600C4B01229A600B4BF4
:103160000022DA60094B17221A61084B00225A61CB
:10317000064B00229A61054808F002F90346002B2D
:1031800001D000F00EF800BF80BD00BF200A002073
:10319000001000A080B400AF00BFBD465DF8047B06
:1031A000704780B400AF72B600BF00BFFDE780B4C7
:1031B00083B000AF78604FF0B043D3F8903023F481
:1031C00040724FF0B0417B681343C1F8903000BFAC
:1031D0000C37BD465DF8047B704780B400AF4FF0FC
:1031E000B043D3F890304FF0B04243F40043C2F8FC
:1031F000903000BFBD465DF8047B704780B485B059
:1032000000AF78604FF0B043DA6C4FF0B0417B68AC
:103210001343CB644FF0B043DA6C7B681340FB6020
:10322000FB6800BF1437BD465DF8047B704780B46F
:1032300085B000AF78604FF0B0431A6D4FF0B041E9
:103240007B6813430B654FF0B0431A6D7B681340E6
:10325000FB60FB6800BF1437BD465DF8047B704718
:1032600080B485B000AF78604FF0B0439A6D4FF0F6
:10327000B0417B6813438B654FF0B0439A6D7B6818
:103280001340FB60FB6800BF1437BD465DF8047B4C
:10329000704780B485B000AF78604FF0B043DA6D0E
:1032A0004FF0B0417B681343CB654FF0B043DA6D0C
:1032B0007B681340FB60FB6800BF1437BD465DF8B8
:1032C000047B704780B485B000AF78604FF0B043A6
:1032D0001A6E4FF0B0417B6813430B664FF0B0435A
:1032E0001A6E7B681340FB60FB6800BF1437BD4655
:1032F0005DF8047B704780B500AF4FF40020FFF706
:1033000096FF002200212E2007F0D5F92E2007F08D
:10331000ECF900BF80BD000080B582B000AF7860DE
:103320007B681B68054A934203D14FF48010FFF776
:103330007EFF00BF0837BD4680BD00BF000C0058AF
:1033400080B596B000AF786007F1080350220021E5
:10335000184611F0FBF97B681B68144A934220D190
:1033600007F0F0FF07F0EEFF4FF48070FFF71FFF4C
:103370004FF40063BB604FF48073BB6407F1080334
:10338000184609F0EAFE0346002B01D0FFF709FFBB
:10339000FFF723FF4FF48060FFF762FF78680AF0C1
:1033A00063FA00BF5837BD4680BD00BF002800400B
:1033B00080B59CB000AF786007F15C0300221A6012
:1033C0005A609A60DA601A6107F10C0350220021FA
:1033D000184611F0BBF97B681B685C4A934256D1D2
:1033E0000123FB6000237B6207F10C03184609F000
:1033F000B4FE0346002B01D0FFF7D3FE4FF480400C
:10340000FFF760FF0220FFF7F9FEC023FB650223F0
:103410003B6601237B660323BB660723FB6607F13C
:103420005C0319464A4807F04DFC4A4B4A4A1A6069
:10343000484B0F225A60474B10229A60454B00229E
:10344000DA60444B80221A61424B00225A61414BA0
:1034500000229A613F4B0022DA613E4B00221A6241
:103460003C4807F087F90346002B01D0FFF799FE8F
:103470007B68384ADA67374A7B689362002200210A
:10348000242007F018F9242007F02FF959E07B6871
:103490001B68324A934254D10223FB600023BB6273
:1034A00007F10C03184609F058FE0346002B01D023
:1034B000FFF777FE0120FFF7ECFE0420FFF79EFEEA
:1034C0000323FB6502233B6600237B660023BB6668
:1034D0000823FB6607F15C031946214807F0F2FB5D
:1034E000204B214A1A601F4B11225A601D4B10229B
:1034F0009A601C4B0022DA601A4B80221A61194B29
:1035000000225A61174B00229A61164B0022DA61A1
:10351000144B00221A62134807F02CF90346002BC3
:1035200001D0FFF73EFE7B680E4ADA670D4A7B68E2
:10353000936200220021252007F0BDF8252007F026
:10354000D4F800BF7037BD4680BD00BF00380140D1
:1035500000040048040800204404024000800040A9
:1035600000080048F80800204400024080B588B0F8
:1035700000AF786007F10C0300221A605A609A606D
:10358000DA601A617B681B681D4A934217D14FF4B9
:103590008050FFF797FE0220FFF730FE3823FB60D4
:1035A00002233B6100237B610223BB610523FB6196
:1035B00007F10C031946134807F084FB1CE07B68F5
:1035C0001B68114A934217D14FF48040FFF748FE21
:1035D0000220FFF713FE4FF46043FB6002233B61C0
:1035E00000237B610023BB610523FB6107F10C0312
:1035F0001946044807F066FB00BF2037BD4680BD72
:1036000000300140000400480038004080B588B018
:1036100000AF786007F10C0300221A605A609A60CC
:10362000DA601A617B681B68224A93423ED14FF4EC
:103630008070FFF7FCFD0220FFF7E0FD0120FFF79F
:10364000DDFD0820FFF7DAFD4FF40073FB60022375
:103650003B6100237B610023BB610A23FB6107F10F
:103660000C031946144807F02DFB0823FB600223C6
:103670003B6100237B610023BB610A23FB6107F1EF
:103680000C0319464FF0904007F01CFBE823FB6049
:1036900002233B6100237B610023BB610A23FB61A2
:1036A00007F10C031946054807F00CFB00BF203753
:1036B000BD4680BD001000A000040048000C00487A
:1036C00080B400AF00BFFDE780B400AF00BFFDE7EE
:1036D00080B400AF00BFFDE780B400AF00BFFDE7DE
:1036E00080B400AF00BFFDE780B400AF00BFBD46AF
:1036F0005DF8047B704780B400AF00BFBD465DF845
:10370000047B704780B400AF00BFBD465DF8047B0A
:10371000704780B500AF06F04FFE00BF80BD0000CF
:1037200080B500AF02480BF00DF900BF80BD00BFAF
:103730007007002080B500AF07F05AFD00BF80BDC4
:1037400080B500AF024807F07BF900BF80BD00BF25
:103750000408002080B500AF01F01AFD00BF80BD55
:1037600080B500AF01F04AFD00BF80BD80B500AF5D
:103770004FF4805007F024FD4FF4005007F020FD77
:1037800000BF80BD80B500AFFEF738FC00BF80BD34
:1037900080B500AF05F092FF00BF80BD80B400AFE0
:1037A00001231846BD465DF8047B704780B582B0A2
:1037B00000AF7860396011F041F8034616221A60B4
:1037C0004FF0FF3318460837BD4680BD80B582B044
:1037D00000AF78604FF0FF317868FFF7E7FF00BF78
:1037E000FDE780B586B000AFF860B9607A6000236D
:1037F0007B610AE0AFF300800146BB685A1CBA60E7
:10380000CAB21A707B6901337B617A697B689A421C
:10381000F0DB7B6818461837BD4680BD80B483B0A6
:1038200000AF78604FF0FF3318460C37BD465DF8A7
:10383000047B704780B483B000AF786039603B6828
:103840004FF400525A60002318460C37BD465DF80D
:10385000047B704780B483B000AF786001231846C2
:103860000C37BD465DF8047B704780B485B000AF6F
:10387000F860B9607A60002318461437BD465DF8D9
:10388000047B704780B586B000AF7860144A154B52
:10389000D31A7B617B693B61134B1B68002B02D100
:1038A000114B124A1A60104B1A687B6813443A692C
:1038B0009A4207D210F0C2FF03460C221A604FF062
:1038C000FF3309E0084B1B68FB60074B1A687B68F5
:1038D0001344054A1360FB6818461837BD4680BD7F
:1038E0000000032000100000640E0020003D0020B6
:1038F00080B400AF034B1B681846BD465DF8047BDF
:10390000704700BF8075FF1F80B400AF034B1B687A
:10391000DBB21846BD465DF8047B70478475FF1F17
:1039200080B400AF034B1B681B0A1846BD465DF808
:10393000047B70478475FF1FF0B5B1B004AF07F189
:103940009403C7F8AC309E4B3C1D1D460FCD0FC4F1
:103950000FCD0FC40FCD0FC495E8070003C422801C
:1039600000F024FE012102200FF04EFD954A0021B7
:1039700004200FF075FE3B1D18460EF079F9034642
:1039800087F8AB3097F8AB30002B12D08E480DF093
:10399000FBFB014640F24F138C4A8D4810F056FD58
:1039A00097F8AB3019468B4810F050FDFFF7F9FB44
:1039B0000CE085480DF0E8FB014640F25513834AC0
:1039C000834810F043FD844810F0B0FD00F004FE81
:1039D0000EF0FEFE814B002283F880207F4B4FF6D5
:1039E000FF72DA827E4A002101200FF039FE01F0D9
:1039F00081FA7C4B8922DA707B4B00227B490020C4
:103A0000FEF79EFC754B02225A76744B01221A7601
:103A100041F60D0001F0DAF9754B80221A80754BE2
:103A2000A0221A80012001F08BF8D7F8AC000EF02C
:103A300063F90346002B40F0928001F083F9C7F848
:103A4000A400D7F8A43005331B781D46D7F8A4305E
:103A500004331B781E46D7F8A43003331B781A466C
:103A6000D7F8A43002331B781946D7F8A4300133B5
:103A70001B781C46D7F8A4301B7807F1800003930D
:103A800002940191009233462A465B4910F056FD9C
:103A9000D7F8AC301B781A46D7F8AC305B781946AB
:103AA000D7F8AC309B7807F1680000930B46534978
:103AB00010F044FDD7F8AC30DB781A46D7F8AC30BC
:103AC0001B7907F154004E4910F038FDD7F8AC309F
:103AD0009B7A1A46D7F8AC30DB7A1946D7F8AC3067
:103AE0001B7B07F1400000930B46464910F026FD72
:103AF0000021002006F0D0F9002006F0A5F807F11B
:103B000080020323002100200FF064FA0FF000FA76
:103B10000346DB88194607F16802032300200FF0F3
:103B200059FA0FF0F5F90346DB885B00194607F1F7
:103B30005402032300200FF04DFA0FF0E9F9034679
:103B4000DB881A4613465B001344194607F140020E
:103B5000032300200FF03EFA002006F075F84FF422
:103B60007A60FDF767FE0021002006F095F900203D
:103B700006F06AF80123244A002100200FF02AFAF7
:103B80000FF0C6F90346DB88194607F180020323CC
:103B900000200FF01FFA0FF0BBF90346DB881A462E
:103BA00013465B00134419460323184A00200FF004
:103BB00011FA002006F048F800BFB437BD46F0BD4A
:103BC000446D010821130108C86B0108A088010891
:103BD000546C01086C6C0108A46C0108700E002084
:103BE000354E000808020020254E0008F10E002086
:103BF000F40E0020F60E0020CC6C0108EC6C0108DD
:103C0000006D0108146D0108246D0108386D01086C
:103C1000F0B597B004AF7860922387F847307B689F
:103C200001333B643B6C1B78FF2B00F04C82FF2B75
:103C300000F31884052B04D03E2B00F0878000F0A1
:103C400011BC3B6C02333B623B6AB3F801309AB261
:103C5000A84BDB8A9A4228D1A64B0022DA82A54BD8
:103C6000002283F88020A4480DF08EFA014640F22D
:103C7000DB13A24AA24810F0E9FBA24810F056FC60
:103C80009D480DF081FA01464FF4EE739B4A9C4823
:103C900010F0DCFB3B6AB3F801309BB219463B6A7B
:103CA000DB781A46984810F0D1FB01F04BF87862A7
:103CB0007B6A05331B781D467B6A04331B781E46DE
:103CC0007B6A03331B781A467B6A02331B781946DA
:103CD0007B6A01331B781C467B6A1B7807F108005E
:103CE000039302940191009233462A46874910F0CB
:103CF00025FC0021002006F0CFF8002005F0A4FFED
:103D00000123834A002100200FF064F90FF000F92D
:103D10000346DB88194607F10802032300200FF051
:103D200059F90FF0F5F80346DB881A4613465B0095
:103D3000134419460323774A00200FF04BF9002063
:103D400005F082FF012000F0FBFE8EE33B6C0233A6
:103D50007B637B6B1B780C2B48D00C2B00F3B18161
:103D6000012B00F0EB80032B40F0AB817B6B013328
:103D7000FB6261480DF008FA014640F205235F4AF4
:103D80005F4810F063FB644810F0D0FB5A480DF018
:103D9000FBF9014640F20623584A594810F056FBF9
:103DA000FB6AB3F803309BB21846FCF793FB4FF065
:103DB00000025A4BFCF7F8FB02460B461046194628
:103DC000FB6AB3F805309BB21C46FB6AB3F80730B8
:103DD0009BB21A4613469B0013445B000193009468
:103DE00002460B464E4810F031FB6BE17B6B013312
:103DF0003B6341480DF0C8F9014640F213233F4AA6
:103E00003F4810F023FB474810F090FB3B6B1B78BA
:103E1000002B0DD138480DF0B7F9014640F21623BA
:103E2000364A374810F012FB3F4810F07FFB0CE099
:103E300031480DF0A9F9014640F21A232F4A3048C3
:103E400010F004FB394810F071FB2A4BDB8A07F1B4
:103E50001E0207F11F0118460DF046F8034687F8C9
:103E6000473097F84730002B0DD023480DF08CF9E0
:103E700001464FF40873214A214810F0E7FA2C4814
:103E800010F054FB1EE11C480DF07EF901464FF482
:103E900009731A4A1A4810F0D9FA264810F046FB5E
:103EA000FB7F022B14D1BB7F022B11D112480DF0E6
:103EB0006BF901464FF40A73104A114810F0C6FA24
:103EC000FB7F1946BB7F1A461B4810F0BFFAF9E08A
:103ED00009480DF059F901464FF40B73074A084899
:103EE00010F0B4FAFB7F1946BB7F1A46124810F057
:103EF000ADFAE7E0700E0020C86B0108B088010839
:103F0000546C0108806D0108AC6D0108CC6C01088F
:103F1000246D0108386D0108E86D01080000F43FC8
:103F2000206E0108906E0108C06E0108D06E010875
:103F3000E06E0108006F0108246F01087B6B0133FC
:103F4000BB62AC4B93F881301846FEF773FAAA486F
:103F50000DF01AF9014640F23D23A84AA84810F096
:103F600075FABB6AB3F801309BB21946A54810F048
:103F70006DFAA1480DF008F9014640F23E239F4A30
:103F80009F4810F063FABB6A9B7A1846BB6A5B7A5B
:103F90001C46BB6A1B7A1D46BB6ADB791A46BB6AA4
:103FA0009B791946BB6A5B790293019100922B467B
:103FB00022460146944810F049FA8F480DF0E4F883
:103FC000014640F245238D4A8D4810F03FFABB6A06
:103FD000B3F80B309BB21846FCF77CFA4FF00002A6
:103FE0008A4BFCF7E1FA02460B4610461946BB6ABB
:103FF000B3F80D309BB21C46BB6AB3F80F309BB2CE
:104000001A4613469B0013445B000193009402463A
:104010000B467F4810F01AFA764B93F88030042B49
:1040200004D1744B062283F8802003E0714B0522F3
:1040300083F88020BB6AB3F801309AB26D4BDA8204
:1040400000F080FE78627B6A05331B781D467B6A30
:1040500004331B781E467B6A03331B781A467B6A3F
:1040600002331B7819467B6A01331B781C467B6A36
:104070001B7807F1080003930294019100923346E4
:104080002A46644910F05AFA0EF042FF0346DB88D4
:10409000194607F10802032300200EF09BFF0EF0E3
:1040A00037FF0346DB881A4613465B001344194664
:1040B0000323594A00200EF08DFF002005F0C4FDB7
:1040C00000E000BFD1E13B6C0233FB63FB6B1B885C
:1040D0009BB240F20A42934222DCB3F5806FC0F2F9
:1040E000C381A3F580630A2B00F2BE8101A252F8BE
:1040F00023F000BF2D4100089B4300084941000800
:10410000BB410008D7410008394200086944000853
:1041100021440008A9420008E1420008C542000805
:1041200040F60E42934200F089819DE132480DF045
:104130002BF801464FF41E73304A314810F086F9CF
:10414000364810F0F3F98CE12B480DF01DF80146CC
:104150004FF41F73294A2A4810F078F9304810F0BC
:10416000E5F9244BDB8A2F4918460BF01FFF034665
:1041700087F8473097F84730002B10D01E480DF0D5
:1041800003F8014640F281231C4A1D4810F05EF9F5
:1041900097F847301946244810F058F961E116485D
:1041A0000CF0F2FF014640F28523144A144810F047
:1041B0004DF91E4810F0BAF953E10F480CF0E4FF36
:1041C000014640F28A230D4A0D4810F03FF9184885
:1041D00010F0ACF945E108480CF0D6FF014640F27A
:1041E0008E23064A064810F031F9124810F09EF965
:1041F00037E100BF700E0020C86B0108B0880108CD
:10420000546C0108486F0108946F01080000F43FE6
:10421000206E0108CC6C0108E46F0108F06F010802
:104220002070010840E20100487001087C7001081C
:10423000A4700108D07001088E480CF0A5FF01465B
:1042400040F292238C4A8D4810F000F98C4810F00F
:104250006DF98C4BDB8A18460CF0CDF8034687F8D5
:10426000473097F84730002B10D082480CF08CFF75
:10427000014640F29623804A804810F0E7F897F80C
:1042800047301946804810F0E1F8EAE079480CF030
:104290007BFF014640F29A23774A784810F0D6F81F
:1042A0007A4810F043F9DCE072480CF06DFF0146EB
:1042B00040F29F23704A714810F0C8F8744810F01B
:1042C00035F9CEE06B480CF05FFF014640F2A323C6
:1042D000694A6A4810F0BAF86E4810F027F9C0E051
:1042E00064480CF051FF014640F2A723624A63483C
:1042F00010F0ACF8684810F019F95E480CF044FF73
:1043000001464FF42A735C4A5C4810F09FF8FB6B3F
:104310000233D3F802301946604810F097F8554838
:104320000CF032FF014640F2AA23534A534810F0E2
:104330008DF8FB6B0233D3F802301946584810F061
:1043400085F8504BDB8A012118460CF0A8F803468B
:1043500087F8473097F84730002B10D045480CF0CD
:1043600013FF014640F2AF23434A444810F06EF871
:1043700097F8473019464B4810F068F871E03D480F
:104380000CF002FF014640F2B3233B4A3B4810F0D9
:104390005DF8454810F0CAF863E0FB6B0233BB637D
:1043A00034480CF0F1FE014640F2BB23324A334858
:1043B00010F04CF83D4810F0B9F8BB6B9B78002B1F
:1043C0000DD12C480CF0E0FE014640F2BE232A4AF3
:1043D0002A4810F03BF8364810F0A8F812E02548BB
:1043E0000CF0D2FE014640F2C223234A234810F0CB
:1043F0002DF8BB6B9B781946BB6BDB781A462D48B2
:1044000010F024F81B480CF0BFFE01464FF4317346
:10441000194A1A4810F01AF8274810F087F820E0D7
:1044200014480CF0B1FE014640F2CA23124A134868
:1044300010F00CF8214810F079F812E00D480CF05B
:10444000A3FE014640F2D2230B4A0C480FF0FEFFB8
:104450001B4810F06BF80B4BDB8A18460CF032FB54
:1044600000BF01E000BF00E000BF012318464C3749
:10447000BD46F0BDC86B0108B0880108546C010846
:104480000C710108700E0020347101086871010878
:1044900090710108C0710108F071010824720108CF
:1044A0004472010860720108B4720108FC720108CC
:1044B0002873010844730108847301088873010894
:1044C000B473010880B582B000AF9223FB710BF08A
:1044D0006EFF0346FB71FB79002B0FD010480CF0E8
:1044E00053FE01464FF43E730E4A0F480FF0AEFFE5
:1044F000FB7919460D480FF0A9FF0CE008480CF0B5
:1045000043FE01464FF43F73064A07480FF09EFFF3
:10451000074810F00BF800BF0837BD4680BD00BF4C
:10452000C86B0108C8880108546C0108DC730108D5
:104530001474010880B582B000AF9223FB71154B53
:10454000DB8A18460BF046FE0346FB71FB79002B15
:104550000FD011480CF018FE01464FF442730F4A79
:104560000F480FF073FFFB7919460E480FF06EFFEE
:104570000CE009480CF008FE01464FF44373074A6B
:1045800007480FF063FF08480FF0D0FF00BF08375F
:10459000BD4680BD700E0020C86B0108E48801088C
:1045A000546C0108407401087874010880B582B029
:1045B00000AF064B3B60064B7B603B461946054807
:1045C0000CF092FE00BF0837BD4680BD28000320D6
:1045D000BF4E0008874E0008F0B58DB006AF4FF40F
:1045E00050733B809223FB75B1480CF0CDFD014622
:1045F00040F22D33AF4AB0480FF028FFAF480FF01C
:1046000095FF0CF04DFC0346FB75FB7D002B0FD096
:10461000A7480CF0B9FD014640F23633A54AA6483A
:104620000FF014FFFB7D1946A5480FF00FFF0CE0BB
:104630009F480CF0A9FD014640F23A339D4A9E483E
:104640000FF004FF9F480FF071FF00F07BFB386113
:104650003A69062100200CF037FB0346FB75FB7D11
:10466000002B0FD092480CF08FFD01464FF4517390
:10467000904A91480FF0EAFEFB7D194692480FF0F0
:10468000E5FE35E08A480CF07FFD01464FF4527399
:10469000884A89480FF0DAFE8C480FF047FF8448BB
:1046A0000CF072FD014640F24933824A82480FF015
:1046B000CDFE3B6905331B7818463B6904331B78F4
:1046C0001C463B6903331B781D463B6902331B784C
:1046D0001A463B6901331B7819463B691B780293E4
:1046E000019100922B462246014679480FF0AEFE1A
:1046F0003B6905331A78774B1A723B6904331A7891
:10470000744B5A723B6903331A78724B9A723B6945
:1047100002331A786F4BDA723B6901331A786D4BAA
:104720001A733B691A786B4B5A736B4A1021182025
:104730000CF0CAFA0346FB75FB7D002B0FD05C48DA
:104740000CF022FD014640F27D335A4A5A480FF0E0
:104750007DFEFB7D194661480FF078FE0CE0544861
:104760000CF012FD014640F28133524A52480FF0DC
:104770006DFE5B480FF0DAFE5A4A102108200CF05B
:10478000A3FA0346FB75FB7D002B0FD048480CF0C5
:10479000FBFC014640F28A33464A47480FF056FE7A
:1047A000FB7D194650480FF051FE0CE040480CF0DC
:1047B000EBFC014640F28E333E4A3F480FF046FE86
:1047C0004A480FF0B3FE182101200CF002FB03460B
:1047D000FB75FB7D002B0FD035480CF0D5FC014656
:1047E00040F29733334A34480FF030FEFB7D1946D0
:1047F0003F480FF02BFE0CE02D480CF0C5FC0146A5
:1048000040F29B332B4A2C480FF020FE39480FF022
:104810008DFE0BF0ABFE0346FB75FB7D002B0FD02E
:1048200023480CF0B1FC01464FF46973214A224839
:104830000FF00CFEFB7D19462F480FF007FE0CE031
:104840001B480CF0A1FC01464FF46A73194A1A4840
:104850000FF0FCFD29480FF069FE0023FB73FB7B82
:1048600043F00103FB73FB7B002B6BD0244BBB603D
:10487000BA1DF87BBB1C01933B1D00931346072216
:1048800000210BF0FAFB0346FB75FB7D002B3BD0B0
:1048900007480CF079FC01464FF47273054A06484C
:1048A0000FF0D4FDFB7D194616480FF0CFFD38E020
:1048B000C86B010800890108546C0108A87401083C
:1048C000D474010804750108247501088075010875
:1048D000CC75010808020020788801080C760108D0
:1048E0006476010888880108AC760108047701081D
:1048F0004C7701088C770108BC770108F077010834
:10490000147801081C7801087E480CF03DFC014633
:104910004FF473737C4A7D480FF098FD7C480FF08C
:1049200005FEFC88BD88B868FBF77AFC0346DAB25E
:10493000BB68009313460022294620460CF019F864
:104940000346FB75F88879883B46009302230022D2
:104950000CF00FF80346FB750222022100200CF038
:1049600041FB0346FB75FB7D002B0FD065480CF027
:104970000BFC014640F2EE33634A64480FF066FDDB
:10498000FB7D194663480FF061FD0CE05D480CF0BB
:10499000FBFB014640F2F2335B4A5C480FF056FDE8
:1049A0005D480FF0C3FD5D4B01221A705B4B1B7815
:1049B00018460BF0E3F90346FB75FB7D002B0FD087
:1049C00050480CF0E1FB01464FF47F734E4A4F48CC
:1049D0000FF03CFDFB7D194651480FF037FD0CE010
:1049E00048480CF0D1FB01464FF48063464A4748E3
:1049F0000FF02CFD4B480FF099FD484B01225A70E7
:104A0000464B08221A71454B10225A71434B002223
:104A1000DA70424B444A9A60404B01229A703F4BF5
:104A20009C783E4B5D783D4B1B793C4A52793B4923
:104A3000C9783A4880680026049603900291019252
:104A4000009300230122294620460BF0EBF9034690
:104A5000FB75FB7D002B0FD02A480CF095FB01461F
:104A600040F21B43284A29480FF0F0FCFB7D194611
:104A70002E480FF0EBFC0CE022480CF085FB0146C1
:104A800040F21F43204A21480FF0E0FC28480FF075
:104A90004DFD224B9B78002B23D00BF064FC03468A
:104AA000FB75FB7D002B0FD016480CF06DFB01460B
:104AB00040F22A43144A15480FF0C8FCFB7D194602
:104AC0001C480FF0C3FC0CE00E480CF05DFB0146E7
:104AD00040F22E430C4A0D480FF0B8FC16480FF078
:104AE00025FD08480CF050FB014640F23143064AD0
:104AF00006480FF0ABFC11480FF018FD00BF1C3743
:104B0000BD46F0BDC86B010800890108546C01085E
:104B10005078010874780108B0780108700E002000
:104B2000DC7801081C79010807B201004C79010802
:104B300098790108D4790108187A01084C7A01089B
:104B400080B58CB008AF0346FB719223FB72FB79F2
:104B5000012B06D1694B1B88FB81694B1B88BB81EC
:104B600005E04FF4C863FB814FF47A63BB81654B6A
:104B700093F881301846FDF75DFCFB79022B2DD1AF
:104B8000604B93F88030012B04D05E4B93F880305B
:104B9000022B23D10AF0D4FF0346FB72FB7A002BD1
:104BA0000FD059480CF0F0FA014640F25243574AF0
:104BB00057480FF04BFCFB7A194656480FF046FC5D
:104BC0000CE051480CF0E0FA014640F256434F4ADF
:104BD0004F480FF03BFC50480FF0A8FC494AFB79C6
:104BE00082F88030474B1B7EBA89F98900200690F5
:104BF00000200590494804900393494B02930723F2
:104C0000019300230093002300200AF0BDFF034618
:104C1000FB72FB7A002B0FD03B480CF0B5FA014633
:104C200040F26943394A3A480FF010FCFB7A1946C2
:104C30003C480FF00BFC0CE033480CF0A5FA0146A1
:104C400040F26D43314A32480FF000FC36480FF015
:104C50006DFC36490E200BF014FB0346FB72FB7A09
:104C6000002B22D0FB79012B0FD127480CF08CFAB6
:104C7000014640F27643254A25480FF0E7FBFB7AD0
:104C800019462B480FF0E2FB35E01F480CF07CFA88
:104C9000014640F27A431D4A1D480FF0D7FBFB7ACC
:104CA000194624480FF0D2FB25E0FB79012B14D1E3
:104CB00015480CF069FA014640F28143134A144842
:104CC0000FF0C4FB1C480FF031FC0E4B93F8813001
:104CD0001A491846FDF732FC0DE00B480CF054FA67
:104CE000014640F28743094A09480FF0AFFB1448D8
:104CF0000FF01CFC00BF1037BD4680BDF40E002035
:104D0000F60E0020700E0020C86B010818890108FB
:104D1000546C0108787A0108C87A0108890E0020CD
:104D200098880108107B0108487B010808020020D0
:104D3000747B0108AC7B0108E87B010846E00100B8
:104D4000147C010880B586B000AFFEF7D1FD386154
:104D50003B69B3F1FF3F23D0FEF7E2FDB860FEF7F9
:104D6000D3FD78603B69DAB2164B1A703B691B0AB7
:104D7000DAB2144B5A707B68DAB2124B9A70BB6885
:104D8000DAB2104BDA70BB681B0ADAB20D4B1A713B
:104D9000BB681B0CDAB20B4B5A710A4B7B610BE000
:104DA00000200CF03DFFF860FB68002B02D0FB6890
:104DB0007B6101E0044B7B617B6918461837BD4677
:104DC00080BD00BF680E00207088010880B483B0E9
:104DD00000AF0346FB80124B1B7E1946FB88DAB2FC
:104DE0000F4B0B445A760E4B1B7E0133DAB20C4B41
:104DF0001A76FB881B0A9AB2094B1B7E1946D2B25F
:104E0000074B0B445A76064B1B7E0133DAB2044B38
:104E10001A7600BF0C37BD465DF8047B704700BFB3
:104E2000700E002080B500AF002101200EF03AFC8A
:104E300000BF80BD80B500AF0220FFF781FE00BF3C
:104E400080BD80B582B000AF7860002104200EF0F4
:104E500029FC00BF0837BD4680BD80B582B000AFD9
:104E6000786001200EF08AFC00BF0837BD4680BD87
:104E700080B582B000AF786001200EF09FFC00BFCB
:104E80000837BD4680BD80B584B000AF78607B68D0
:104E9000FB60FB685B68083318460DF0EBFC0346CB
:104EA000FB72FB7A002B03D0FB6801221A7003E02F
:104EB000FB6800221A7000BF1037BD4680BD80B568
:104EC00084B000AF0346FB71FB79002B02D0012BAD
:104ED00006D00BE01F23FB60F8680EF00FFC05E026
:104EE0001F23FB60F8680EF029FC00BF00BF1037DD
:104EF000BD4680BD80B582B000AF074B3B60042348
:104F00003B713B46194642F629200CF0C7F900BF19
:104F10000837BD4680BD00BF447C010880B582B023
:104F200000AF78607B681B78022B1AD0022B1EDC46
:104F3000002B02D0012B07D019E00F4B00229A80E2
:104F40000D4B01221A7313E00B4B5B7B1846FDF7E8
:104F500071FA094B5B7B40F601011846FDF7EEFA4A
:104F600006E0054B5B7B1846FDF764FA00E000BFE6
:104F700000BF0837BD4680BDF80E002080B400AFEA
:104F8000054BDB68044A43F40043D36000BFBD46D1
:104F90005DF8047B704700BF0004005880B483B004
:104FA00000AF7860064BD3F8D42005497B681343E3
:104FB000C1F8D43000BF0C37BD465DF8047B7047A4
:104FC0000008005880B483B000AF7860054B1A6ABF
:104FD00004497B6813430B6200BF0C37BD465DF884
:104FE000047B70470008005880B485B000AF78603B
:104FF0004FF0B0431A6D4FF0B0417B6813430B651F
:105000004FF0B0431A6D7B681340FB60FB6800BF34
:105010001437BD465DF8047B704780B485B000AF9F
:1050200078604FF0B043D3F850214FF0B0417B6827
:105030001343C1F850314FF0B043D3F850217B688F
:105040001340FB60FB6800BF1437BD465DF8047B6E
:10505000704780B483B000AF78607B681B6843F40E
:1050600080327B681A6000BF0C37BD465DF8047B58
:10507000704780B483B000AF78607B681B6843F0F2
:1050800001027B681A6000BF0C37BD465DF8047BE7
:10509000704780B483B000AF786039607B685A682D
:1050A0003B681B04DB431A407B685A6000BF0C3727
:1050B000BD465DF8047B704780B483B000AF786074
:1050C00039607B685A683B681B041A437B685A60E6
:1050D00000BF0C37BD465DF8047B704780B483B0D9
:1050E00000AF786039607B685A683B68DB431A40E0
:1050F0007B685A6000BF0C37BD465DF8047B704783
:1051000080B483B000AF786039607B683A689A6099
:1051100000BF0C37BD465DF8047B704780B483B098
:1051200000AF786039603B681A047B689A6000BF02
:105130000C37BD465DF8047B704780B483B000AF88
:10514000786039607B68DA683B6813403A689A4255
:1051500001D1012300E0002318460C37BD465DF85D
:10516000047B704780B483B000AF786039607B689F
:10517000DA693B6813403A689A4201D1012300E0A2
:10518000002318460C37BD465DF8047B70470000CD
:1051900080B500AF02211848FFF7E4FF0346002B5B
:1051A00008D0154B5B6803F00203002B02D100F01E
:1051B000D5F81EE001211048FFF7D4FF0346002B6D
:1051C00008D00D4B5B6803F00103002B02D100F007
:1051D00089F80EE008210848FFF7C4FF0346002BBA
:1051E00008D0054B5B6803F00803002B02D100F0E8
:1051F00001F900BF00BF80BD000C005880B500AFB2
:1052000002211848FFF799FF0346002B08D1154BE0
:105210005B6803F40033002B02D100F093F81EE02A
:1052200008211048FFF789FF0346002B08D10D4BDA
:105230005B6803F40023002B02D100F0BDF80EE000
:1052400020210848FFF779FF0346002B08D1054BC2
:105250005B6803F40013002B02D100F04FF800BF8D
:1052600000BF80BD000C005880B500AF4FF4801027
:10527000FFF7D3FE4FF40070FFF7A4FE4FF4007069
:10528000FFF78CFE40BF20BFFFF778FE00BF80BD58
:1052900080B500AF4FF48010FFF7A6FE0648FFF779
:1052A000E8FE0548FFF7D5FE2C2005F01EFA2D205C
:1052B00005F01BFA00BF80BD000C005880B500AFA0
:1052C00001210248FFF70AFF00BF80BD000C005813
:1052D00080B500AF01210248FFF720FF00BF80BD6D
:1052E000000C005880B500AF0DF0A8FB012102486A
:1052F000FFF706FF00BF80BD000C005880B500AF6F
:1053000020210348FFF7D8FE0DF0C8FB00BF80BD89
:10531000000C005880B500AF02210248FFF7DEFE06
:1053200000BF80BD000C005880B500AF02210448CA
:10533000FFF7F4FE02210248FFF7ABFE00BF80BD7D
:10534000000C005880B500AF02210348FFF7B4FEFF
:105350000DF0F4FB00BF80BD000C005880B500AF1D
:105360000DF002FC02210248FFF7CAFE00BF80BD1B
:10537000000C005880B582B000AF786008210C485E
:10538000FFF7DBFE0346002B07D00A4A7B68136059
:1053900008210748FFF77DFE06E07B689847082153
:1053A0000348FFF7BBFE00BF0837BD4680BD00BF06
:1053B000000C0058080F002080B500AF08210648F7
:1053C000FFF77AFE054B1B68984708210248FFF754
:1053D000A5FE00BF80BD00BF000C0058080F0020D4
:1053E00080B500AF08210248FFF778FE00BF80BDFE
:1053F000000C005880B500AF0DF05EFC082102489B
:10540000FFF77EFE00BF80BD000C005880B582B063
:1054100000AF0346FB71F91D4FF47A730122034874
:1054200008F0FBFA00BF0837BD4680BDBC0900206C
:1054300080B500AF00224021074805F0A9FE0022F8
:105440000121064805F0A4FE01224021044805F090
:105450009FFE0023184680BD00080048000C00484D
:105460000004004880B500AF00224021074805F045
:105470008FFE00220121064805F08AFE002240210D
:10548000044805F085FE00BF80BD00BF000800484D
:10549000000C00480004004880B500AF0122402104
:1054A0000B4805F075FE6420FCF7C4F9002240218A
:1054B000074805F06DFE0220FCF7BCF901224021EF
:1054C000034805F065FE6420FCF7B4F900BF80BD19
:1054D0000004004880B582B000AF0346FB71002293
:1054E00040210A4805F054FE00220121084805F039
:1054F0004FFEFB791846FFF789FF0122012104487E
:1055000005F046FE00BF0837BD4680BD00080048D4
:10551000000C004880B582B000AF0346FB71012249
:1055200040210A4805F034FE00220121084805F018
:105530002FFEFB791846FFF769FF0122012104487D
:1055400005F026FE00BF0837BD4680BD00080048B4
:10555000000C004880B500AF0B480EF0E7FF0221B9
:105560000A4805F0FDFD0346002B03D03220FCF76E
:1055700061F9F4E700BF3220FCF75CF904480EF053
:10558000D5FF00BF80BD00BF487C0108000C00486B
:10559000607C010880B584B000AF78603220FFF7EE
:1055A00099FF0023FB7309E0FB7B7A6813441B78A7
:1055B0001846FFF7AFFFFB7B0133FB73FB7B982B98
:1055C000F2D9FFF7C7FF00BF1037BD4680BD80B5D9
:1055D00082B000AF78607868FFF7DCFF3F20FFF70C
:1055E00079FF7B6899331B781846FFF793FF0320F8
:1055F000FFF770FF7B689A331B781846FFF78AFF26
:105600000420FFF767FF7B689B331B781846FFF782
:1056100081FF7B689C331B781846FFF77BFF7B6814
:105620009D331B781846FFF775FF2C20FFF752FFBC
:105630007B689E331B781846FFF76CFF00BF083766
:10564000BD4680BD80B500AF2220FFF743FFC720D5
:10565000FFF760FF2020FFF73DFFFFF77BFF00BF54
:1056600080BD80B500AF2220FFF734FF0F20FFF789
:1056700051FF2020FFF72EFFFFF76CFF00BF80BD1A
:1056800090B583B000AF0446084611461A4623463B
:10569000FB800346BB800B467B8013463B80442047
:1056A000FFF718FFFB88DB089BB2DBB21846FFF759
:1056B00031FF7B88DB089BB2DBB21846FFF72AFF7D
:1056C0004520FFF707FFBB88DBB21846FFF722FF34
:1056D000BB881B0A9BB2DBB21846FFF71BFF3B8857
:1056E000DBB21846FFF716FF3B881B0A9BB2DBB202
:1056F0001846FFF70FFF00BF0C37BD4690BD80B5C1
:1057000082B000AF03460A46FB801346BB804E20A2
:10571000FFF7E0FEFB88DBB21846FFF7FBFE4F20E9
:10572000FFF7D8FEBB88DBB21846FFF7F3FEBB8855
:105730001B0A9BB2DBB21846FFF7ECFE00BF08372E
:10574000BD4680BD80B500AFFFF7A6FE6420FCF724
:1057500071F8FFF7FFFE1220FFF7BCFEFFF7FAFE1D
:105760000120FFF7B7FE2720FFF7D4FE0120FFF747
:10577000D1FE0020FFF7CEFE1120FFF7ABFE032085
:10578000FFF7C8FE40F227137F2200210020FFF719
:1057900077FF2120FFF79EFE0020FFF7BBFE802051
:1057A000FFF7B8FE00210020FFF7A9FFFFF7D2FEA8
:1057B0000248FFF70CFF00BF80BD00BFB802002009
:1057C00080B582B000AF2420FFF784FE0023FB8069
:1057D00005E0FF20FFF79EFEFB880133FB80FB887E
:1057E000B3F5945FF5D3FFF72DFF00BF0837BD4633
:1057F00080BD80B584B000AF78602420FFF76AFEDA
:105800000023FB8109E0FB897A6813441B78184662
:10581000FFF780FEFB890133FB81FB89B3F5945FC1
:10582000F1D3FFF70FFF00BF1037BD4680BD80B535
:1058300084B000AF78602420FFF74CFE0023FB818A
:1058400009E0FB897A6813441B781846FFF762FE6B
:10585000FB890133FB81FB89B3F5945FF1D32620EB
:10586000FFF738FE0023FB8109E0FB897A681344C7
:105870001B781846FFF74EFEFB890133FB81FB893D
:10588000B3F5945FF1D3FFF7DDFE00BF1037BD46DF
:1058900080BD000080B584B000AF78600022402158
:1058A000334805F075FC0220FBF7C4FF01224021BC
:1058B0002F4805F06DFC0220FBF7BCFF2D48FFF7D9
:1058C00069FE3720FFF706FE0020FFF723FE0020C9
:1058D000FFF720FE0020FFF71DFE0020FFF71AFE55
:1058E0000020FFF717FE4020FFF714FE0020FFF70F
:1058F00011FE0020FFF70EFE0020FFF70BFE002038
:10590000FFF708FE3C20FFF7E5FD8020FFF702FED1
:105910002220FFF7DFFDC020FFF7FCFD2020FFF76E
:10592000D9FDFFF717FE40F227137F220021002048
:10593000FFF7A6FE00210020FFF7E1FE2420FFF77D
:10594000C9FD0023FB8109E0FB897A6813441B78B9
:105950001846FFF7DFFDFB890133FB81FB89B3F5B7
:10596000945FF1D3FFF77DFE00BF1037BD4680BDC9
:10597000000400481802002080B500AF1020FFF797
:10598000A9FD0120FFF7C6FD6420FBF753FF00BF10
:1059900080BD000080B588B004AF12480EF0C6FD8F
:1059A000FFF746FD0346002B02D04FF0FF3388E19E
:1059B0000D480EF0BBFDFFF7C5FEFFF701FF4FF4EA
:1059C0009453FB81FB8918460DF068FF0346BB60CA
:1059D000BB68002B0CD105480EF0A8FD4FF0FF333B
:1059E0006FE100BF807C0108987C0108B47C01084D
:1059F000B6480EF09BFDFF2300935A234FF4947298
:105A00008021B86800F08AF9FF2000F039FBFF23FD
:105A100000935A234FF494728021B86800F07EF905
:105A2000AB480EF083FDB86800F0CEF9FF2000F01F
:105A300027FBA84801F0A4FBB868FFF7DAFE40F6A0
:105A4000B830FBF7F7FEFF2300935A234FF494720C
:105A50008021B86800F062F99F480EF067FDB868D1
:105A600000F0B2F9FF2000F00BFB9C480EF05EFD49
:105A7000012300930123002250210A2000F0CEFBD5
:105A800001230093022300225A210A2000F0C6FBC2
:105A9000012300930323002264210A2000F0BEFBAF
:105AA00000230293012301930023009378234622CD
:105AB0004621142000F05EFC002302930123019391
:105AC00000230093782314224621462000F052FC44
:105AD000002302930123019300230093782346229D
