:020000040800F2
:1000000000000320610E0008BD340008C53400085C
:10001000CD340008D5340008DD34000800000000AD
:10002000000000000000000000000000E5340008AF
:10003000F334000800000000013500080F35000807
:10004000B50E0008B50E0008B50E00088135000891
:10005000B50E0008B50E0008B50E0008B50E000874
:10006000B50E0008B50E0008B50E0008B50E000864
:10007000B50E0008B50E0008B50E0008B50E000854
:10008000B50E0008B50E0008B50E0008B50E000844
:10009000B50E0008B50E0008B50E0008B50E000834
:1000A000B50E0008B50E00088D350008B50E000825
:1000B000B50E0008B50E0008B50E0008B50E000814
:1000C000B50E0008B50E0008B50E0008B50E000804
:1000D0001D350008B50E0008B50E0008B50E000865
:1000E00069350008B50E0008B50E0008B50E000809
:1000F000513500085D35000831350008B50E00089F
:10010000B50E0008B50E0008B50E0008B50E0008C3
:10011000B50E0008B50E0008B50E0008B50E0008B3
:10012000B50E0008B50E00083D350008B50E0008F4
:0C013000B50E0008B50E0008B50E000862
:1001400010B5054C237833B9044B13B10448AFF311
:1001500000800123237010BD500600200000000025
:10016000A857010808B5034B1BB103490348AFF377
:10017000008008BD0000000054060020A8570108B8
:1001800001F0FF01102A2BDB10F0070F08D010F848
:10019000013B013A8B422DD010F0070F42B3F6D14C
:1001A000F0B441EA012141EA014122F007047FF065
:1001B00000070023F0E80256083C85EA010586EABC
:1001C000010685FA47F5A3FA87F586FA47F6A5FAF8
:1001D00087F68EB9EED1F0BC01F0FF0102F0070204
:1001E00032B110F8013B013A83EA010313B1F8D1AF
:1001F0000020704701387047002D06BF3546033890
:10020000073815F0010F07D1013015F4807F02BFC8
:10021000013015F4C03F0130F0BC0138704700BF19
:10022000034613F8012B002AFBD1181A0138704736
:1002300081F0004102E000BF83F0004330B54FEA97
:1002400041044FEA430594EA050F08BF90EA020F04
:100250001FBF54EA000C55EA020C7FEA645C7FEA97
:10026000655C00F0E2804FEA5454D4EB5555B8BFBA
:100270006D420CDD2C4480EA020281EA030382EA2B
:10028000000083EA010180EA020281EA0303362DBD
:1002900088BF30BD11F0004F4FEA01314FF4801C90
:1002A0004CEA113102D0404261EB410113F0004FA2
:1002B0004FEA03334CEA133302D0524263EB430359
:1002C00094EA050F00F0A780A4F10104D5F1200EF7
:1002D0000DDB02FA0EFC22FA05F2801841F1000152
:1002E00003FA0EF2801843FA05F359410EE0A5F126
:1002F00020050EF1200E012A03FA0EFC28BF4CF057
:10030000020C43FA05F3C01851EBE37101F000450C
:1003100007D54FF0000EDCF1000C7EEB00006EEB19
:100320000101B1F5801F1BD3B1F5001F0CD34908A3
:100330005FEA30004FEA3C0C04F101044FEA4452FA
:1003400012F5800F80F09A80BCF1004F08BF5FEA81
:10035000500C50F1000041EB045141EA050130BD61
:100360005FEA4C0C404141EB0101013C28BFB1F573
:10037000801FE9D291F0000F04BF01460020B1FABE
:1003800081F308BF2033A3F10B03B3F120020CDA91
:100390000C3208DD02F1140CC2F10C0201FA0CF06F
:1003A00021FA02F10CE002F11402D8BFC2F1200CD4
:1003B00001FA02F120FA0CFCDCBF41EA0C0190408A
:1003C000E41AA2BF01EB0451294330BD6FEA0404D3
:1003D0001F3C1CDA0C340EDC04F11404C4F12002BE
:1003E00020FA04F001FA02F340EA030021FA04F3D0
:1003F00045EA030130BDC4F10C04C4F1200220FA27
:1004000002F001FA04F340EA0300294630BD21FA64
:1004100004F0294630BD94F0000F83F4801306BF2A
:1004200081F480110134013D4EE77FEA645C18BF1E
:100430007FEA655C29D094EA050F08BF90EA020FB5
:1004400005D054EA000C04BF1946104630BD91EAAD
:10045000030F1EBF0021002030BD5FEA545C05D1B0
:100460004000494128BF41F0004130BD14F58004EF
:100470003CBF01F5801130BD01F0004545F0FE4163
:1004800041F470014FF0000030BD7FEA645C1ABF98
:10049000194610467FEA655C1CBF0B46024650EACF
:1004A000013406BF52EA033591EA030F41F40021FB
:1004B00030BD00BF90F0000F04BF0021704730B581
:1004C0004FF4806404F132044FF000054FF0000156
:1004D00050E700BF90F0000F04BF0021704730B517
:1004E0004FF4806404F1320410F0004548BF4042EC
:1004F0004FF000013EE700BF42004FEAE2014FEA41
:1005000031014FEA02701FBF12F07F4393F07F4F1B
:1005100081F06051704732F07F4208BF704793F01E
:100520007F4F04BF41F40021704730B54FF4607431
:1005300001F0004521F000411CE700BF50EA010234
:1005400008BF704730B54FF000050AE050EA0102DD
:1005500008BF704730B511F0004502D5404261EB4D
:1005600041014FF4806404F132045FEA915C3FF48E
:10057000D8AE4FF003025FEADC0C18BF03325FEA2B
:10058000DC0C18BF033202EBDC02C2F1200300FADC
:1005900003FC20FA02F001FA03FE40EA0E0021FA01
:1005A00002F11444BDE600BF70B54FF0FF0C4CF4EF
:1005B000E06C1CEA11541DBF1CEA135594EA0C0FA1
:1005C00095EA0C0F00F0DEF82C4481EA030621EADC
:1005D0004C5123EA4C5350EA013518BF52EA033517
:1005E00041F4801143F4801338D0A0FB02CE4FF0C9
:1005F0000005E1FB02E506F00042E0FB03E54FF0F9
:100600000006E1FB03569CF0000F18BF4EF0010EF0
:10061000A4F1FF04B6F5007F64F5407404D25FEAEC
:100620004E0E6D4146EB060642EAC62141EA55519F
:100630004FEAC52040EA5E504FEACE2EB4F1FD0CE1
:1006400088BFBCF5E06F1ED8BEF1004F08BF5FEA5F
:10065000500E50F1000041EB045170BD06F0004611
:1006600046EA010140EA020081EA0301B4EB5C04BE
:10067000C2BFD4EB0C0541EA045170BD41F48011B6
:100680004FF0000E013C00F3AB8014F1360FDEBFDB
:10069000002001F0004170BDC4F10004203C35DAB7
:1006A0000C341BDC04F11404C4F1200500FA05F33A
:1006B00020FA04F001FA05F240EA020001F00042DB
:1006C00021F0004110EBD37021FA04F642EB060151
:1006D0005EEA430E08BF20EAD37070BDC4F10C047B
:1006E000C4F1200500FA04F320FA05F001FA04F23F
:1006F00040EA020001F0004110EBD37041F100012B
:100700005EEA430E08BF20EAD37070BDC4F1200535
:1007100000FA05F24EEA020E20FA04F301FA05F29D
:1007200043EA020321FA04F001F0004121FA04F245
:1007300020EA020000EBD3705EEA430E08BF20EA15
:10074000D37070BD94F0000F0FD101F0004640004F
:1007500041EB010111F4801F08BF013CF7D041EAD1
:10076000060195F0000F18BF704703F000465200D5
:1007700043EB030313F4801F08BF013DF7D043EAA6
:100780000603704794EA0C0F0CEA135518BF95EA5C
:100790000C0F0CD050EA410618BF52EA4306D1D1E3
:1007A00081EA030101F000414FF0000070BD50EA02
:1007B000410606BF1046194652EA430619D094EA8C
:1007C0000C0F02D150EA013613D195EA0C0F05D176
:1007D00052EA03361CBF104619460AD181EA0301CA
:1007E00001F0004141F0FE4141F470014FF0000082
:1007F00070BD41F0FE4141F4780170BD70B54FF01D
:10080000FF0C4CF4E06C1CEA11541DBF1CEA13559C
:1008100094EA0C0F95EA0C0F00F0A7F8A4EB05047E
:1008200081EA030E52EA03354FEA013100F0888075
:100830004FEA03334FF0805545EA131343EA12633E
:100840004FEA022245EA111545EA10654FEA0026F3
:100850000EF000419D4208BF964244F1FD0404F5AC
:10086000407402D25B084FEA3202B61A65EB030508
:100870005B084FEA32024FF480104FF4002CB6EBC5
:10088000020E75EB030E22BFB61A754640EA0C0045
:100890005B084FEA3202B6EB020E75EB030E22BF85
:1008A000B61A754640EA5C005B084FEA3202B6EBC6
:1008B000020E75EB030E22BFB61A754640EA9C0085
:1008C0005B084FEA3202B6EB020E75EB030E22BF55
:1008D000B61A754640EADC0055EA060E18D04FEA13
:1008E000051545EA16754FEA06164FEAC30343EAB3
:1008F00052734FEAC2025FEA1C1CC0D111F4801F80
:100900000BD141EA00014FF000004FF0004CB6E778
:1009100011F4801F04BF01430020B4F1FD0C88BF17
:10092000BCF5E06F3FF6AFAEB5EB030C04BFB6EB22
:10093000020C5FEA500C50F1000041EB045170BD15
:100940000EF0004E4EEA113114EB5C04C2BFD4EB42
:100950000C0541EA045170BD41F480114FF0000EC6
:10096000013C90E645EA060E8DE60CEA135594EA42
:100970000C0F08BF95EA0C0F3FF43BAF94EA0C0F45
:100980000AD150EA01347FF434AF95EA0C0F7FF4BA
:1009900025AF104619462CE795EA0C0F06D152EA0E
:1009A00003353FF4FDAE1046194622E750EA4106F2
:1009B00018BF52EA43067FF4C5AE50EA41047FF403
:1009C0000DAF52EA43057FF4EBAE12E74FF0FF3C68
:1009D00006E000BF4FF0010C02E000BF4FF0010C39
:1009E0004DF804CD4FEA410C7FEA6C5C4FEA430CB2
:1009F00018BF7FEA6C5C1BD001B050EA410C0CBF01
:100A000052EA430C91EA030F02BF90EA020F002062
:100A1000704710F1000F91EA030F58BF994208BFC9
:100A200090422CBFD8176FEAE37040F00100704786
:100A30004FEA410C7FEA6C5C02D150EA013C07D1DD
:100A40004FEA430C7FEA6C5CD6D152EA033CD3D028
:100A50005DF8040B704700BF8446104662468C4622
:100A60001946634600E000BF01B5FFF7B7FF002855
:100A700048BF10F1000F01BD4DF808EDFFF7F4FF7E
:100A80000CBF012000205DF808FB00BF4DF808ED09
:100A9000FFF7EAFF34BF012000205DF808FB00BF2C
:100AA0004DF808EDFFF7E0FF94BF012000205DF84E
:100AB00008FB00BF4DF808EDFFF7CEFF94BF012003
:100AC00000205DF808FB00BF4DF808EDFFF7C4FFFC
:100AD00034BF012000205DF808FB00BF4FEA410C45
:100AE0007FEA6C5C02D150EA013C0AD14FEA430C28
:100AF0007FEA6C5C02D152EA033C02D14FF0000065
:100B000070474FF0010070474FEA410212F50012A2
:100B100015D211D56FF47873B3EB625212D94FEA44
:100B2000C12343F0004343EA505311F0004F23FA2E
:100B300002F018BF404270474FF00000704750EA83
:100B4000013005D111F0004008BF6FF00040704740
:100B50004FF00000704700BF53B94AB9002908BFE1
:100B600000281CBF4FF0FF314FF0FF3000F06AB992
:100B7000ADF1080C6DE904CE00F006F8DDF804E0F4
:100B8000DDE9022304B070472DE9F047089D0C46CB
:100B9000002B4ED194468C458646B2FA82F262D939
:100BA0004AB1C2F12003914020FA03F30CFA02FC8F
:100BB000194300FA02FE4FEA1C471FFA8CF6B1FBFC
:100BC000F7F44FEA1E4307FB141143EA014304FB09
:100BD00006F199420AD91CEB030304F1FF3080F0BF
:100BE0001281994240F20F81023C6344591A1FFA64
:100BF0008EF3B1FBF7F007FB101143EA014300FB52
:100C000006F69E420AD91CEB030300F1FF3180F087
:100C1000FC809E4240F2F980634402389B1B40EA0C
:100C2000044000211DB1D3400022C5E90032BDE8D7
:100C3000F0878B4205D90DB1C5E9000100210846B6
:100C4000F5E7B3FA83F1002946D1A34202D39042DB
:100C5000C0F0F080861A64EB03030120002DE6D07B
:100C6000C5E90063E3E7002A40F09080A1EB0C04A3
:100C70004FEA1C481FFA8CF70121B4FBF8F64FEA43
:100C80001E4308FB164443EA044307FB06F0984260
:100C900008D91CEB030306F1FF3402D2984200F29C
:100CA000CD8026461C1A1FFA8EF3B4FBF8F008FB21
:100CB000104443EA044300FB07F79F4208D91CEBAA
:100CC000030300F1FF3402D29F4200F2B0802046BD
:100CD000DB1B40EA0640A5E7C1F120068B4022FA63
:100CE00006F71F4320FA06FC04FA01F343EA0C035B
:100CF000F44000FA01F8380C4FEA1349B4FBF0FE57
:100D00001FFA87FC00FB1E4449EA04440EFB0CF961
:100D1000A14502FA01F20AD93C190EF1FF3A80F01E
:100D20008480A14540F28180AEF1020E3C44A4EBE8
:100D300009041FFA83F9B4FBF0F300FB134449EAFA
:100D4000044403FB0CFCA44507D93C1903F1FF3014
:100D500067D2A44565D9023B3C4443EA0E40A0FB60
:100D60000293A4EB0C049C42CE469C4651D34ED039
:100D700055B1B8EB0E0364EB0C0404FA06F6CB4055
:100D80001E43CC40C5E90064002150E7C2F12003B6
:100D900020FA03F10CFA02FC24FA03F394400C430A
:100DA0004FEA1C4800FA02FE1FFA8CF7B3FBF8F07A
:100DB00008FB1031230C43EA014300FB07F1994281
:100DC00008D91CEB030300F1FF362CD299422AD933
:100DD000023863445B1AA4B2B3FBF8F108FB113389
:100DE00044EA034401FB07F3A34208D91CEB0404C3
:100DF00001F1FF3613D2A34211D902396444E41A37
:100E000041EA004139E70446F0E6084606E7C845EE
:100E1000AED2B9EB020E63EB070C0138A8E73146FE
:100E2000EDE7034699E73046D4E7D6467FE76344CB
:100E300002384DE70646234608460FE7023E634464
:100E400030E700BF704700BFD458C4500433C41803
:100E50008C42F9D37047036004308842FBD370475B
:100E60000C48854608F014FF0B480C490C4A002337
:100E7000FFF7EDFF0B480C490023FFF7EEFF0B488F
:100E80000B490023FFF7E9FF12F034FD01F01EFDCE
:100E9000FEE700000000032008000020EC05002011
:100EA00050CB01085006002050280020E401032008
:100EB000670A0320FEE7000080B483B000AF7860CB
:100EC000064BD3F8902005497B681343C1F8903056
:100ED00000BF0C37BD465DF8047B70470008005822
:100EE00080B485B000AF78604FF0B043DA6C4FF05B
:100EF000B0417B681343CB644FF0B043DA6C7B683E
:100F00001340FB60FB6800BF1437BD465DF8047BEF
:100F1000704780B485B000AF78604FF0B043D3F82D
:100F20004C214FF0B0417B681343C1F84C314FF076
:100F3000B043D3F84C217B681340FB60FB6800BFD3
:100F40001437BD465DF8047B704780B500AF08F0EC
:100F500065FF08F069FF4FF48030FFF7ADFF0FF039
:100F6000A5FC00F021F800F0C1F800BF80BD000032
:100F7000B0B588B000AF0B4B3C1D1D460FCD0FC464
:100F800095E8070003C422800234130C237010F08C
:100F9000D7FE3B1D184610F0FEF800BF2037BD46B7
:100FA000B0BD00BFC057010880B588B000AF3B1D81
:100FB00000221A605A609A60DA601A610023BB83CB
:100FC00000237B8300233B830023FB7736E0FB7FFA
:100FD000434ADB0013449B79002B2CD0FB7F404A13
:100FE00052F833303F4A93421BD03E4A934221D8B5
:100FF000B3F1904F03D03C4A934209D01AE0FB7FF3
:10100000374ADB0013449A88BB8B1343BB8312E03F
:10101000FB7F334ADB0013449A887B8B13437B832B
:1010200009E0FB7F2E4ADB0013449A883B8B134375
:101030003B8300E000BFFB7F0133FB77FB7F252B69
:10104000C5D90023FB600123BB6003233B61BB8B3D
:10105000002B14D0BB8B7B600120FFF741FF0120E8
:10106000FFF757FF3B1D19464FF0904009F024FB56
:10107000BB8B002219464FF0904009F083FD7B8B1B
:10108000002B12D07B8B7B600220FFF729FF022010
:10109000FFF73FFF3B1D1946134809F00DFB7B8B03
:1010A00000221946104809F06DFD3B8B002B13D030
:1010B0003B8B7B600420FFF713FF0420FFF729FF21
:1010C0003B1D1946074809F0F7FA3B8B00221946E9
:1010D000044809F057FD00BF00BF2037BD4680BD62
:1010E000E0760108000800480004004880B400AF22
:1010F00000BFBD465DF8047B704780B500AF01F0CE
:1011000029FB00BF80BD000080B483B000AF7860D1
:10111000074BD3F8803023F0070205497B6813435F
:10112000C1F8803000BF0C37BD465DF8047B7047C6
:101130000004005880B483B000AF7860064BD3F849
:10114000902005497B681343C1F8903000BF0C37ED
:10115000BD465DF8047B70470008005880B483B03A
:1011600000AF78604FF0B0430A4AC3F89C204FF0BC
:10117000B043D3F89C3023F47C527B681B024FF0C1
:10118000B0411343C1F89C3000BF0C37BD465DF839
:10119000047B7047FECAFECA80B483B000AF78609B
:1011A0004FF0B0439B6823F400424FF0B0417B689E
:1011B00013438B6000BF0C37BD465DF8047B70475E
:1011C00080B400AF044B1B68C3F30B031846BD4645
:1011D0005DF8047B704700BF002004E080B400AFDE
:1011E000044B1B681B0C9BB21846BD465DF8047B84
:1011F000704700BF002004E080B400AF054B1B69BE
:10120000044A23F00403136100BFBD465DF8047B6C
:10121000704700BF00ED00E080B483B000AF78609D
:101220007B68FF225A6200BF0C37BD465DF8047B25
:10123000704780B483B000AF78607B68CA225A627E
:101240007B6853225A6200BF0C37BD465DF8047BB1
:10125000704780B483B000AF786039607B689B686A
:1012600023F007023B681A437B689A6000BF0C3783
:10127000BD465DF8047B704780B500AF044B4FF46A
:1012800000421A6100F060F800F065F800BF80BD10
:101290000040005880B500AF00F071F800F08AF807
:1012A0001E49002000F054FFFFF74FFE01210120EE
:1012B00011F000F90021002008F0C4F8184810F0DF
:1012C000CBFD002010F01EFE0021002008F0DEFA09
:1012D000002008F087F9002008F0B0F9114810F05C
:1012E00059FEFF2010F02EFE002010F03FFE0021DE
:1012F000002008F0CBFA002008F0A0F901230A4AE8
:101300000021002010F0BCFE002008F097F900F04A
:1013100085FA00F05DF800BF80BD00BF4C070020DB
:1013200040C2010814040020DC57010880B400AF5B
:1013300000BFBD465DF8047B704780B500AF50200C
:10134000FFF7F8FE00BF80BD80B400AF00BFBD4610
:101350005DF8047B704780B582B000AF00200FF0CD
:10136000DBFE78607B68002B05D07B689B79184694
:10137000FFF7F4FE00BF00BF0837BD4680BD80B553
:1013800000AFFFF7D3FFFFF7D8FF00F003F800BF6F
:1013900080BD000080B500AF0548FFF74AFF00217F
:1013A0000348FFF756FF0248FFF736FF00BF80BD36
:1013B0000028004080B500AF4FF40040FFF7ECFE7E
:1013C00011F066F80420FFF79FFE00BF80BD00000B
:1013D00080B588B000AF10F0FDFA114A002110204E
:1013E00011F094F90F4B3B600F4B7B603B46194665
:1013F0000E480FF0ABFF0E4BBB600E4BFB600E4B6D
:101400003B6140F23C537B6107F10803184610F042
:1014100023FC10F0D9FA00BF2037BD4680BD00BFC5
:1014200085130108340703203D14000855140008F3
:101430004C09032040080320F801032080B483B046
:1014400000AF0346FB7100BF0C37BD465DF8047B5F
:101450007047000080B588B000AF78607B685B683B
:101460000B33FB61FB691B889BB2A3F51243072B6F
:1014700000F2D08001A252F823F000BF9D140008B2
:101480002F150008511500081516000895150008BD
:10149000B9150008D5150008F915000807F10C0367
:1014A00018460FF0A5FE5E480FF0D8F901464FF43C
:1014B000C8735C4A5C4812F01FF83B7B19467B7B83
:1014C0001A46BB7B594812F017F855480FF0C6F979
:1014D000014640F29113534A534812F00DF83B7CF9
:1014E0001946534812F008F84D480FF0B7F9014675
:1014F0004FF4C9734B4A4C4811F0FEFFBB7D1946AF
:10150000FB7D1A463B7E4B4811F0F6FF44480FF036
:10151000A5F901464FF4CA73424A434811F0ECFF63
:10152000454812F059F8786800F0E0F873E03C485C
:101530000FF094F9014640F299133A4A3A4811F0F3
:10154000DBFF3E4812F048F8786800F085F862E06A
:1015500033480FF083F901464FF4CF73314A3248D4
:1015600011F0CAFF364812F037F82D480FF076F91F
:10157000014640F29F132B4A2B4811F0BDFFFB6937
:1015800002331968FB6902335B681A462D4811F073
:10159000B3FF40E022480FF061F9014640F2A51385
:1015A000204A214811F0A8FFFB6902331B68194645
:1015B000254811F0A1FF2EE019480FF04FF9014620
:1015C0004FF4D573174A184811F096FF1F4812F0D0
:1015D00003F820E012480FF041F901464FF4D773A9
:1015E000104A114811F088FFFB6902331B68194645
:1015F000174811F081FF0EE009480FF02FF901465E
:1016000040F2B313074A084811F076FF114811F071
:10161000E3FF00E000BF00BF2037BD4680BD00BF34
:10162000F05701081078010878580108905801080F
:10163000B8580108D8580108F05801081059010895
:101640003459010884590108B0590108EC590108BE
:10165000105A01084C5A010880B584B000AF786078
:101660007B685B680B33FB60FB680233BB60194827
:101670000FF0F4F8014640F2CB13174A174811F067
:101680003BFFBB681B781946154811F035FFBB6856
:101690001B78002B0DD10F480FF0E0F801464FF4F6
:1016A000E8730D4A0D4811F027FF0E4811F094FF22
:1016B0000DE008480FF0D2F801464FF4EA73064AED
:1016C000064811F019FF084811F086FF00BF1037D7
:1016D000BD4680BDF05701082478010878580108FC
:1016E000705A0108A45A0108E05A010880B58AB06E
:1016F00000AF786007F1080300221A605A609A6010
:10170000DA6000237B6200233B627B685B680B33FB
:10171000FB61FB690233BB61BB691B78002B46D1BF
:1017200036480FF09BF801464FF4F573344A3548BC
:1017300011F0E2FE344811F04FFFFFF719FC0F23C0
:101740003B727F23BB72FFF749FD78622B480FF095
:1017500085F8014640F20223294A2A4811F0CCFEBE
:10176000796A2A4811F0C8FE7B6A9BB2BB82FFF7F8
:1017700027FD386221480FF071F8014640F2072337
:101780001F4A204811F0B8FE396A214811F0B4FE12
:101790003B6A9BB2FB8207F1080318460FF012FD6B
:1017A00001F0C8FF0021012010F084FE22E0BB6997
:1017B0001B78012B10D111480FF050F801464FF45F
:1017C00005730F4A0F4811F097FE124811F004FFFD
:1017D0007B6800221A700DE008480FF03FF80146C0
:1017E00040F21B23064A074811F086FE0A4811F012
:1017F000F3FE00BF2837BD4680BD00BFF05701088B
:1018000038780108785801081C5B0108385B01082A
:101810005C5B0108805B0108B45B010880B500AF28
:101820000121002007F022FC0121012007F01EFC0D
:1018300000BF80BD80B584B000AF786008F0CAFA00
:10184000B8607B68FB60FB68B3F1FF3F0AD008F02B
:10185000D9FA03461A46FB681344FB6002E0FFF71F
:10186000CBFC30BF08F0B6FA0246BB68D31AFA6860
:101870009A42F4D800BF00BF1037BD4680BD80B586
:1018800000AF4FF0FF3010F045FE00BF80BD80B4C8
:1018900000AF00BFBD465DF8047B704780B582B0E5
:1018A00000AF786039604FF0FF3010F033FE00BFBA
:1018B0000837BD4680BD80B582B000AF786000219A
:1018C000102010F045FF00BF0837BD4680BD80B531
:1018D00082B000AF7860022010F0A6FF00BF08378A
:1018E000BD4680BD80B582B000AF7860022010F0A8
:1018F000BBFF00BF0837BD4680BD80B582B000AFDA
:101900000346FB80FB88B3F5805F03D0B3F5005F2F
:1019100003D005E002F0D4FC02E002F009FD00BFB4
:1019200000BF0837BD4680BD80B483B000AF78608B
:10193000064BD3F8802005497B681343C1F88030FB
:1019400000BF0C37BD465DF8047B704700080058A7
:1019500080B483B000AF7860054B1A6804497B6897
:1019600013430B6000BF0C37BD465DF8047B704726
:101970000008005880B483B000AF0D4B9B6A9BB247
:101980007B600B4B9B6A9BB23B6005E03B687B60D6
:10199000074B9B6A9BB23B607A683B689A42F5D1E1
:1019A0003B6818460C37BD465DF8047B704700BFA6
:1019B0000028004080B485B000AF03460A46FB71A2
:1019C0001346BB71BA791D4913465B001344DB0013
:1019D0000B4415331B78FB73FB7B062B09D0FA7B7A
:1019E000164913465B001344DB000B441433FA79A9
:1019F0001A70FA79114913465B001344DB000B445B
:101A00001533FA7B1A70FA790C4913465B001344BC
:101A1000DB000B441433BA791A70BA7907491346BC
:101A20005B001344DB000B441533FA791A7000BFD6
:101A30001437BD465DF8047B704700BF6C0600207C
:101A400080B485B000AF03460A46FB711346BB71F4
:101A5000294B1B78DBB2BA799A4232D0BA7927493E
:101A600013465B001344DB000B4414331B78FB73F9
:101A7000FA7B224913465B001344DB000B44153309
:101A8000FA791A70FA791D4913465B001344DB009A
:101A90000B441533BA791A70FA79184913465B006A
:101AA0001344DB000B441433FA7B1A70BA791349E0
:101AB00013465B001344DB000B441433FA791A70AD
:101AC00014E0FA790D4913465B001344DB000B4424
:101AD0001533BA791A70BA79084913465B00134472
:101AE000DB000B441433FA791A7000BF1437BD467B
:101AF0005DF8047B704700BFFC0600206C060020E8
:101B000080B584B000AF0346FB714E4B1B78DBB24F
:101B1000062B18D14B4B1B78DAB24B4B1A70494A43
:101B2000FB791370FA79494913465B001344DB00D3
:101B30000B44153306221A70454B4FF0FF321A60E2
:101B40000023FB8178E000F009F90346FB81FA7974
:101B50003E4913465B001344DB000B44083319680D
:101B6000FB89FA791944394813465B001344DB00BA
:101B7000034408331960FA79344913465B0013446F
:101B8000DB000B4408331B68BB602E4B1B78DBB2B9
:101B900019462E4A0B465B000B44DB001344083306
:101BA0001B68BA689A4237D3264B1B787B737A7BC3
:101BB000264913465B001344DB000B4415331B78A6
:101BC0003B7313E07A7B214913465B001344DB002F
:101BD0000B4415331B787B737A7B1C4913465B00DF
:101BE0001344DB000B4415331B783B733B7B062B04
:101BF0000BD03A7B154913465B001344DB000B44C2
:101C000008331B68BA689A42DCD27A7BFB791146AA
:101C10001846FFF7CFFE0FE00A4B1B78DAB2FB79CC
:101C200011461846FFF70CFF064B1B78DAB2064B3D
:101C30001A70044AFB791370FB8918461037BD46A9
:101C400080BD00BFFC060020FD0600206C060020C1
:101C50000007002080B485B000AF03460A46FB7140
:101C60001346BB71394B1B78DBB2FA799A4211D11A
:101C7000364B1B78DAB2364B1A70FA79354913466F
:101C80005B001344DB000B4415331B78DAB22F4B97
:101C90001A703EE0FA792F4913465B001344DB00CB
:101CA0000B4414331B78FB73FA792A4913465B0003
:101CB0001344DB000B4415331B78BB73F979FA7BB3
:101CC00024480B465B000B44DB00034415331B78B0
:101CD000D8B2204913465B001344DB000B44153394
:101CE00002461A70BB7B062B13D0F979BA7B1948D0
:101CF0000B465B000B44DB00034414331B78D8B263
:101D0000144913465B001344DB000B4414330246B2
:101D10001A70FA790F4913465B001344DB000B4439
:101D20000C3301221A70094B1B78DBB2062B07D14A
:101D3000BB79002B04D1084B4FF0FF321A6000BF73
:101D400000BF1437BD465DF8047B7047FC060020D9
:101D5000FD0600206C0600200007002080B582B040
:101D600000AF1A4B1B68B3F1FF3F26D0FFF702FE0E
:101D70007860164B1B687A689A4205D8134B1A682C
:101D80007B68D31A7B600AE0114B1B881A467B687C
:101D9000D31A3B600D4B1B683A6813447B600D4BB4
:101DA0001B781A467B6802FB03F37B600A4B1B78A7
:101DB0001A467B68D3407B6001E000237B607B6830
:101DC0009BB218460837BD4680BD00BF0007002003
:101DD00008070020060700200507002080B582B014
:101DE00000AF0346FB80FB88002B08D1FFF7C2FD44
:101DF0000346214A1360032008F099F939E0FB8873
:101E0000012B03D81D4B1B78012B02D0FB88013B13
:101E1000FB8000BF1A4B1B68DB6803F00403002B38
:101E2000F8D0174B1B68DB68DAB2154B1B6862F4FD
:101E30009062DA60134B4FF40022DA60032008F05E
:101E400084F9114B5B691B0C1B04FA880E49134380
:101E50004B61FFF78FFD0346074A1360084B1B6871
:101E60009A68074B1B6842F480629A60AFF3008067
:101E700000BF0837BD4680BD0007002005070020D1
:101E80004C070020000800580028004080B584B0AE
:101E900000AF454B9B6803F48063B3F5806F07D1B7
:101EA00000BF424B1B68DB6803F00403002BF8D132
:101EB0003E4B1B689A683D4B1B6822F480629A6017
:101EC0003B4B1B78FB73FA7B3A4913465B00134488
:101ED000DB000B4408331B68BB60FFF73FFF034682
:101EE000FB80FB88BA689A4205D20023BB81324B43
:101EF00001221A704DE0FB88304A128892B21344D6
:101F00001A46BB68934206D92C4B1B88BB812A4BCF
:101F100000221A703DE0BB689AB2FB88D31ABB81DD
:101F2000254B01221A7034E0FA7B224913465B00EC
:101F30001344DB000B4408331A68FB889A420AD228
:101F4000FA7B1C4913465B001344DB000B44083347
:101F500000221A6013E0FA7B164913465B00134413
:101F6000DB000B4408331968FB88FA7BC91A114857
:101F700013465B001344DB00034408331960FA7B0B
:101F80000C4913465B001344DB000B4415331B78EC
:101F9000FB73FB7B062BC7D1BB891846FFF71EFFDF
:101FA00000BF1037BD4680BD002800404C07002010
:101FB000FC0600206C060020040700200A07002011
:101FC00080B58AB000AFEFF310837B617B697B62E1
:101FD00072B600BF594B1B68CA225A62574B1B6826
:101FE00053225A62554B1B689A68544B1B6822F463
:101FF00080629A60524B1B7887F8233097F8232031
:10200000504913465B001344DB000B440C331B7830
:10201000DBB2022B6ED197F823204A4913465B00AE
:102020001344DB000B441B68FB6197F823204549F0
:1020300013465B001344DB000B4410331B68BB6189
:10204000414B1B78DBB2002B4CD097F823203D4945
:1020500013465B001344DB000B440D331B78DBB2EB
:10206000012B24D197F8233001211846FFF7F2FD08
:102070007B6A3B613B6983F3108800BF97F823209C
:10208000304913465B001344DB000B4404331A68E9
:1020900097F823301146184600F032FA274B1B6898
:1020A000CA225A62254B1B6853225A6212E07B6A8D
:1020B000FB60FB6883F3108800BF97F82330184655
:1020C00000F09AF91D4B1B68CA225A621B4B1B6811
:1020D00053225A6297F82330FA691946B86900F01A
:1020E00095FA22E0FFF7D2FE7B6ABB60BB6883F300
:1020F00010881AE000BF114B1B68DB6803F0040373
:10210000002BF8D00D4B1B68DB68DAB20B4B1B6859
:1021100062F49062DA600D4B4FF40022DA607B6A61
:102120007B607B6883F3108800BF044B1B68FF2231
:102130005A6200BF2837BD4680BD00BF4C07002053
:10214000FC0600206C060020040700200008005850
:1021500080B588B000AF03463960FB715E4B1B68E9
:10216000CA225A625C4B1B6853225A625B4B9B68C3
:102170005A4A43F020039360584B9B68DBB203F04C
:102180000703DBB2C3F10403DAB2554B1A70534BA9
:102190001B6903F4FE034FF4FE023A613A6992FAB6
:1021A000A2F2FA60FA687A617A69002A01D12022E3
:1021B00003E07A69B2FA82F2D2B2D340DBB20133E1
:1021C000DAB2484B1A70454B1B699BB2C3F30E033E
:1021D0009BB201339AB2444B1A80434B1B88013B9C
:1021E000404A127802FB03F3A3F5A0733C4A12782D
:1021F000D340BB61BB694FF6FE72934204D93B4B9F
:102200004FF6FF721A8003E0BB699AB2374B1A800F
:102210004FF40020FFF79CFB4FF40020FFF784FBF6
:10222000FB79002B3DD1324B01221A70314B4FF01C
:10223000FF321A600023FB770CE0FA7F2E49134629
:102240005B001344DB000B440C3300221A70FB7F4D
:102250000133FB77FB7F052BEFD9284B06221A7041
:102260001D4B1B689A681C4B1B6822F480629A60A5
:10227000194B1B68DB68DAB2174B1B6862F490627B
:10228000DA601F4B4FF40022DA60032007F05DFF95
:10229000114B1B689A68104B1B6842F480429A608D
:1022A00009E00D4B1B68DB6803F48063002B02D050
:1022B000032007F03CFF084B1B68FF225A620022F4
:1022C0000321032007F0F1FE032007F008FF00BF01
:1022D0002037BD4680BD00BF4C07002000280040CD
:1022E0000507002006070020080700200A07002035
:1022F00004070020000700206C060020FC060020D8
:102300000008005880B48BB000AFF860B9603B6043
:102310001346FB71002387F82630EFF31083FB612F
:10232000FB693B6272B600BF04E097F826300133C8
:1023300087F8263097F82630052B0CD897F82620FA
:102340002C4913465B001344DB000B440C331B7811
:10235000DBB2002BE9D197F82630062B38D097F85E
:102360002620244913465B001344DB000B440C3346
:1023700001221A703B6ABB61BB6983F3108800BFFE
:1023800097F826201B4913465B001344DB000B44DF
:102390001033FA681A6097F82620164913465B0036
:1023A0001344DB000B440D33FA791A7097F826209A
:1023B000104913465B001344DB000B443A681A6073
:1023C000BB6897F826201A70002387F8273008E0AA
:1023D0003B6A7B617B6983F3108800BF012387F828
:1023E000273097F8273018462C37BD465DF8047B18
:1023F000704700BF6C06002080B586B000AF034672
:10240000FB71EFF31083FB60FB687B6172B600BF6A
:10241000032007F072FE344B1B68CA225A62324B0B
:102420001B6853225A62FA79304913465B00134401
:10243000DB000B440C331B78DBB2022B42D1FB795F
:1024400000211846FFF706FC294B1B78FB74FB7C28
:10245000062B2FD1274B9B6803F48063B3F5806F65
:1024600007D100BF204B1B68DB6803F00403002B7F
:10247000F8D11D4B1B689A681B4B1B6822F48062C5
:102480009A6000BF184B1B68DB6803F00403002B45
:10249000F8D0154B1B68DB68DAB2134B1B6862F48B
:1024A0009062DA60144B4FF40022DA60032007F0E8
:1024B0004CFE07E0114B1B78DBB2FA7C9A4201D04C
:1024C000FFF7E4FC084B1B68FF225A62032007F069
:1024D00006FE7B69BB60BB6883F3108800BF00BF4A
:1024E0001837BD4680BD00BF4C0700206C06002099
:1024F000FC0600200028004000080058FD060020CF
:1025000080B586B000AF03463960FB71FA793B496C
:1025100013465B001344DB000B440C331B78DBB227
:10252000022B03D1FB791846FFF766FFEFF3108308
:10253000FB60FB687B6172B600BF032007F0DDFD26
:102540002F4B1B68CA225A622D4B1B6853225A62BA
:10255000FA792A4913465B001344DB000B440C3321
:1025600002221A70FA79254913465B001344DB00F6
:102570000B4408333A681A60FA79204913465B0025
:102580001344DB000B4404333A681A60FB791846A5
:10259000FFF7B6FA03467B821A4B1B787B741A4B03
:1025A0001B78DBB27A7C9A4202D0FFF76FFC13E013
:1025B000FA79124913465B001344DB000B440833DD
:1025C00019687B8AFA79C91A0C4813465B001344D0
:1025D000DB00034408331960094B1B68FF225A6271
:1025E000032007F07CFD7B69BB60BB6883F3108828
:1025F00000BF00BF1837BD4680BD00BF6C0600207D
:102600004C070020FC060020FD06002080B584B0A9
:1026100000AFF8600B467A60FB727B68984700BF9A
:102620001037BD4680BD000080B582B000AF786035
:102630007B681B681A46094B9A4207D1084B1B68F6
:10264000002B05D0064B1B68984701E000BF00E057
:1026500000BF00BF0837BD4680BD00BF00800040FE
:102660000C07002080B483B000AF78604FF0B04317
:10267000D3F8903023F018024FF0B0417B68134339
:10268000C1F8903000BF0C37BD465DF8047B704741
:1026900080B485B000AF78604FF0B0439A6C4FF0D3
:1026A000B0417B6813438B644FF0B0439A6C7B68F6
:1026B0001340FB60FB6800BF1437BD465DF8047B28
:1026C000704780B485B000AF78604FF0B043DA6CEB
:1026D0004FF0B0417B681343CB644FF0B043DA6CEA
:1026E0007B681340FB60FB6800BF1437BD465DF894
:1026F000047B704780B483B000AF78607B68FF22B2
:102700005A6200BF0C37BD465DF8047B704780B449
:1027100083B000AF78607B68CA225A627B6853221C
:102720005A6200BF0C37BD465DF8047B704780B429
:1027300083B000AF786039607B689B6823F0070244
:102740003B681A437B689A6000BF0C37BD465DF852
:10275000047B704780B500AF224B234A1A60214B9F
:102760004FF4E1325A601F4B00229A601D4B002249
:10277000DA601C4B00221A611A4B0C225A61194B69
:1027800000229A61174B00221A62164B00225A62ED
:10279000144B00229A62134B00225A6611480BF028
:1027A0005DFB0346002B01D000F017FC00210D4813
:1027B0000CF065FC0346002B01D000F00EFC00215C
:1027C00008480CF09AFC0346002B01D000F005FCF1
:1027D00004480CF01BFC0346002B01D000F0FDFB6D
:1027E00000BF80BD640800200080004080B586B036
:1027F00002AF4FF4A873FB600023BB600023FB8093
:1028000000237B7105F064F80023009300234FF44C
:1028100000722849284804F03BFE0023009300235F
:102820004FF400722349254804F032FE0023009340
:1028300000234FF400721F49214804F029FE3B4653
:102840001A4620491D4804F017FF03467B7197F98B
:102850000530002B05D13B681A461A491A480DF07D
:10286000A9FF3B461A461749134804F005FF0346E3
:102870007B7197F90530002B05D13B681A46114949
:1028800011480DF097FF3B461A460E490C4804F0DC
:10289000F3FE03467B7197F90530002B05D13B68A9
:1028A0001A46084908480DF085FF00BF1037BD469D
:1028B00080BD00BF08000020385C0108445C0108AE
:1028C000505C0108000A00205C5C010880B500AF84
:1028D00007F012FAFEF7D0FC00F01EF800F078F8CE
:1028E00000F096F800F072FB00F0F4F800F0E0F869
:1028F00000F0AAF8FFF72EFF00F09EF800F002FBB0
:1029000000F03EFBFEF7C6FCFFF770FF02F040FF51
:10291000FEF7B5FFFCE7000080B59AB000AF07F105
:10292000200348220021184610F066FF3B1D0022BC
:102930001A605A609A60DA601A615A619A6108F006
:10294000FBF91020FFF78EFE204B1B6823F4C063B9
:102950001E4A43F4007313601C4B1B6803F4C063EE
:102960003B603B6807233B624FF480337B6201236B
:10297000BB624FF48073FB6240233B630023FB6424
:1029800007F12003184609F031F90346002B01D066
:1029900000F023FB6F237B600223BB600023FB60FE
:1029A00000233B6100237B610023BB610023FB61AB
:1029B0003B1D0121184609F08DFC0346002B01D078
:1029C00000F00BFB00BF6837BD4680BD0004005817
:1029D00080B594B000AF3B4650220021184610F05D
:1029E0000BFF4FF440533B604FF480437B64022362
:1029F000BB640023FB643B4618460AF0A8F8034674
:102A0000002B01D000F0E9FA00BF5037BD4680BD71
:102A100080B500AF064B074A1A60054808F006F972
:102A20000346002B01D000F0D8FA00BF80BD00BFE4
:102A300010070020000C005880B400AF00BFBD4656
:102A40005DF8047B7047000080B500AF164B174A55
:102A50001A60154B00225A60134B0F229A60124BDA
:102A600047F6FF72DA60104B00221A610E4B00220B
:102A70009A610D4B0022DA610B4B00225A610A4821
:102A80000AF0ECFA0346002B01D000F0A6FA074842
:102A9000FFF73DFE00210548FFF749FE0348FFF719
:102AA00029FE00BF80BD00BF4C0700200028004069
:102AB00080B500AF0420FFF7EBFD0220FFF7E8FD33
:102AC00000220F213A2007F0F0FA3A2007F007FB26
:102AD00000BF80BD80B586B000AF3B1D00221A60EC
:102AE0005A609A60DA601A610120FFF7EAFD04205B
:102AF000FFF7E7FD0220FFF7E4FD0820FFF7E1FD07
:102B00001020FFF7DEFD8020FFF7DBFD0022032110
:102B1000BF4808F037F800224FF44071BD4808F074
:102B200031F800224FF48071BB4808F02BF80022E6
:102B30000421BA4808F026F800220121B64808F01E
:102B400021F800224021B34808F01CF8012240215E
:102B5000B34808F017F8012220214FF0904008F008
:102B600011F83A237B600323BB600023FB603B1D0D
:102B70001946A84807F0A0FD40F604437B600023F7
:102B8000BB600023FB603B1D1946A24807F094FD83
:102B90004FF400737B600223BB600023FB600023C3
:102BA0003B610A237B613B1D19469D4807F084FD6C
:102BB00001237B600223BB600023FB6000233B6199
:102BC00008237B613B1D1946924807F075FD4FF4C1
:102BD00080737B601223BB600023FB6000233B619A
:102BE00004237B613B1D19468D4807F065FD4FF4BA
:102BF00081537B600223BB600023FB6000233B61A9
:102C000008237B613B1D1946854807F055FD4FF4AD
:102C100000437B600223BB600023FB6000233B6119
:102C200001237B613B1D19464FF0904007F044FDA6
:102C30004FF480637B601223BB600023FB600023A2
:102C40003B6104237B613B1D19464FF0904007F028
:102C500033FD4FF4C0537B600223BB600023FB6055
:102C600000233B610A237B613B1D19464FF09040D6
:102C700007F022FD12237B600023BB600023FB6072
:102C80003B1D1946654807F017FD4FF480637B60D4
:102C90000223BB600023FB6000233B6101237B61B7
:102CA0003B1D19465E4807F007FD04237B600023A7
:102CB000BB600023FB603B1D1946594807F0FCFC34
:102CC0004FF440737B600223BB600023FB60002352
:102CD0003B6103237B613B1D19464FF0904007F099
:102CE000EBFC40237B600223BB600023FB600023DE
:102CF0003B6108237B613B1D19464FF0904007F074
:102D0000DBFC08237B600223BB600023FB60002305
:102D10003B610A237B613B1D19464FF0904007F051
:102D2000CBFC03237B600123BB600023FB600023FB
:102D30003B613B1D1946364807F0BEFC4FF440434B
:102D40007B600223BB600023FB6000233B61012307
:102D50007B613B1D1946304807F0AEFC43F210037F
:102D60007B600023BB600023FB603B1D19462A48A3
:102D700007F0A2FC4FF401737B604FF48813BB6033
:102D80000023FB603B1D1946234807F095FC4FF4D8
:102D900040737B600123BB600023FB6000233B6129
:102DA0003B1D19461B4807F087FC68237B60022304
:102DB000BB600023FB6000233B610A237B613B1D5A
:102DC0001946154807F078FC08237B604FF48813F8
:102DD000BB600023FB603B1D1946104807F06CFCEC
:102DE0004FF480737B600123BB600023FB600023F2
:102DF0003B613B1D1946084807F05EFC4FF44063F9
:102E00007B600223BB600023FB6000230AE000BF5D
:102E1000001C004800080048000C00480010004852
:102E2000000400483B6109237B613B1D1946314882
:102E300007F042FC04237B600123BB600023FB609E
:102E400000233B613B1D19462B4807F035FC01234D
:102E50007B600223BB600023FB6000233B610E23E9
:102E60007B613B1D1946244807F026FC01237B604B
:102E70000123BB600023FB6000233B613B1D19461F
:102E80001C4807F019FC02237B600023BB6002236F
:102E9000FB603B1D1946174807F00EFC40237B6082
:102EA0000123BB600023FB6000233B613B1D1946EF
:102EB000124807F001FC40237B600123BB60012323
:102EC000FB6001233B613B1D19460D4807F0F4FBF5
:102ED00020237B600123BB600123FB6002233B6155
:102EE0003B1D19464FF0904007F0E6FB00BF183736
:102EF000BD4680BD000C0048001000480008004896
:102F00000004004880B500AF1B4B1C4A1A601A4BE6
:102F10004FF482725A60184B00229A60164B4FF49D
:102F2000E062DA60144B00221A61134B00225A61EE
:102F3000114B4FF400729A610F4B2022DA610E4B55
:102F400000221A620C4B00225A620B4B00229A623A
:102F5000094B0722DA62084B00221A63064B08224B
:102F60005A6305480AF0B0F90346002B01D000F07F
:102F700034F800BF80BD00BF580900200038004071
:102F800080B500AF0F4B104A1A600E4B02225A60F8
:102F90000C4B01229A600B4B0022DA60094B17227E
:102FA0001A61084B00225A61064B00229A610548BB
:102FB00007F0E0FE0346002B01D000F00EF800BF42
:102FC00080BD00BFBC090020001000A080B400AF8D
:102FD00000BFBD465DF8047B704780B400AF72B699
:102FE00000BF00BFFDE780B483B000AF78604FF052
:102FF000B043D3F8903023F440724FF0B0417B6877
:103000001343C1F8903000BF0C37BD465DF8047B18
:10301000704780B400AF4FF0B043D3F890304FF01A
:10302000B04243F40043C2F8903000BFBD465DF8A3
:10303000047B704780B485B000AF78604FF0B04338
:10304000DA6C4FF0B0417B681343CB644FF0B04370
:10305000DA6C7B681340FB60FB6800BF1437BD4629
:103060005DF8047B704780B485B000AF78604FF0A6
:10307000B0431A6D4FF0B0417B6813430B654FF0BE
:10308000B0431A6D7B681340FB60FB6800BF1437C8
:10309000BD465DF8047B704780B485B000AF7860B2
:1030A0004FF0B0439A6D4FF0B0417B6813438B658E
:1030B0004FF0B0439A6D7B681340FB60FB6800BF24
:1030C0001437BD465DF8047B704780B485B000AF0F
:1030D00078604FF0B043DA6D4FF0B0417B68134336
:1030E000CB654FF0B043DA6D7B681340FB60FB6843
:1030F00000BF1437BD465DF8047B704780B485B0CF
:1031000000AF78604FF0B0431A6E4FF0B0417B686B
:1031100013430B664FF0B0431A6E7B681340FB609D
:10312000FB6800BF1437BD465DF8047B704780B56F
:1031300000AF4FF40020FFF796FF002200212E2061
:1031400006F0B3FF2E2006F0CAFF00BF80BD0000CE
:1031500080B582B000AF78607B681B68054A9342F7
:1031600003D14FF48010FFF77EFF00BF0837BD4644
:1031700080BD00BF000C005880B596B000AF7860ED
:1031800007F1080350220021184610F035FB7B6838
:103190001B68144A934220D107F0CEFD07F0CCFD06
:1031A0004FF48070FFF71FFF4FF40063BB604FF4D4
:1031B0008073BB6407F10803184609F0C8FC034696
:1031C000002B01D0FFF709FFFFF723FF4FF48060CA
:1031D000FFF762FF78680AF041F800BF5837BD4634
:1031E00080BD00BF0028004080B59CB000AF786073
:1031F00007F15C0300221A605A609A60DA601A6173
:1032000007F10C0350220021184610F0F5FA7B68F4
:103210001B685C4A934256D10123FB6000237B620A
:1032200007F10C03184609F092FC0346002B01D06D
:10323000FFF7D3FE4FF48040FFF760FF0220FFF757
:10324000F9FEC023FB6502233B6601237B66032353
:10325000BB660723FB6607F15C0319464A4807F083
:103260002BFA4A4B4A4A1A60484B0F225A60474B86
:1032700010229A60454B0022DA60444B80221A618A
:10328000424B00225A61414B00229A613F4B00227F
:10329000DA613E4B00221A623C4806F065FF0346A5
:1032A000002B01D0FFF799FE7B68384ADA67374A6E
:1032B0007B68936200220021242006F0F6FE242081
:1032C00006F00DFF59E07B681B68324A934254D1E7
:1032D0000223FB600023BB6207F10C03184609F0D0
:1032E00036FC0346002B01D0FFF777FE0120FFF7E5
:1032F000ECFE0420FFF79EFE0323FB6502233B66E2
:1033000000237B660023BB660823FB6607F15C0392
:103310001946214807F0D0F9204B214A1A601F4B6B
:1033200011225A601D4B10229A601C4B0022DA6059
:103330001A4B80221A61194B00225A61174B002246
:103340009A61164B0022DA61144B00221A6213486C
:1033500006F00AFF0346002B01D0FFF73EFE7B6814
:103360000E4ADA670D4A7B6893620022002125200D
:1033700006F09BFE252006F0B2FE00BF7037BD466A
:1033800080BD00BF00380140000400480408002050
:10339000440402400080004000080048F808002073
:1033A0004400024080B588B000AF786007F10C039C
:1033B00000221A605A609A60DA601A617B681B68A2
:1033C0000F4A934217D14FF48040FFF765FE022069
:1033D000FFF730FE4FF46043FB6002233B610023A4
:1033E0007B610023BB610523FB6107F10C031946D8
:1033F000044807F061F900BF2037BD4680BD00BF1B
:10340000003800400004004880B588B000AF786004
:1034100007F10C0300221A605A609A60DA601A61A0
:103420007B681B68224A93423ED14FF48070FFF7BD
:103430001AFE0220FFF7FEFD0120FFF7FBFD08202A
:10344000FFF7F8FD4FF40073FB6002233B6100239C
:103450007B610023BB610A23FB6107F10C03194662
:10346000144807F029F90823FB6002233B6100237D
:103470007B610023BB610A23FB6107F10C03194642
:103480004FF0904007F018F9E823FB6002233B61FE
:1034900000237B610023BB610A23FB6107F10C035E
:1034A0001946054807F008F900BF2037BD4680BD22
:1034B000001000A000040048000C004880B400AFD9
:1034C00000BFFDE780B400AF00BFFDE780B400AFF0
:1034D00000BFFDE780B400AF00BFFDE780B400AFE0
:1034E00000BFFDE780B400AF00BFBD465DF8047BC0
:1034F000704780B400AF00BFBD465DF8047B7047E5
:1035000080B400AF00BFBD465DF8047B704780B556
:1035100000AF06F04BFC00BF80BD000080B500AFDF
:1035200002480AF079FD00BF80BD00BF700700208F
:1035300080B500AF07F056FB00BF80BD80B500AF7F
:10354000024806F077FF00BF80BD00BF04080020DE
:1035500080B500AF01F01AFD00BF80BD80B500AF9F
:1035600001F04AFD00BF80BD80B500AF4FF4805030
:1035700007F020FB4FF4005007F01CFB00BF80BD9C
:1035800080B500AFFEF71CFD00BF80BD80B500AF69
:1035900005F056FD00BF80BD80B400AF0123184682
:1035A000BD465DF8047B704780B582B000AF78609F
:1035B000396010F099F9034616221A604FF0FF3374
:1035C00018460837BD4680BD80B582B000AF786030
:1035D0004FF0FF317868FFF7E7FF00BFFDE780B5E8
:1035E00086B000AFF860B9607A6000237B610AE0C2
:1035F000AFF300800146BB685A1CBA60CAB21A70A9
:103600007B6901337B617A697B689A42F0DB7B6876
:1036100018461837BD4680BD80B483B000AF7860CF
:103620004FF0FF3318460C37BD465DF8047B7047FA
:1036300080B483B000AF786039603B684FF40052CB
:103640005A60002318460C37BD465DF8047B70476E
:1036500080B483B000AF7860012318460C37BD46B4
:103660005DF8047B704780B485B000AFF860B96046
:103670007A60002318461437BD465DF8047B704716
:1036800080B586B000AF7860144A154BD31A7B61C1
:103690007B693B61134B1B68002B02D1114B124A13
:1036A0001A60104B1A687B6813443A699A4207D231
:1036B00010F01AF903460C221A604FF0FF3309E0AC
:1036C000084B1B68FB60074B1A687B681344054A6C
:1036D0001360FB6818461837BD4680BD0000032004
:1036E00000100000000E00205028002080B400AF21
:1036F000034B1B681846BD465DF8047B704700BF4E
:103700008075FF1F80B400AF034B1B68DBB2184607
:10371000BD465DF8047B70478475FF1F80B400AF21
:10372000034B1B681B0A1846BD465DF8047B7047B7
:103730008475FF1FF0B5B1B004AF07F19403C7F86B
:10374000AC309E4B3C1D1D460FCD0FC40FCD0FC49A
:103750000FCD0FC495E8070003C4228000F024FEBB
:10376000012102200EF0A6FE954A002104200EF051
:10377000CDFF3B1D18460DF0F7FC034687F8AB3034
:1037800097F8AB30002B12D08E480DF067F8014649
:1037900040F24F138C4A8D480FF0AEFE97F8AB30D5
:1037A00019468B480FF0A8FEFFF717FC0CE0854880
:1037B0000DF054F8014640F25513834A83480FF048
:1037C0009BFE84480FF008FF00F004FE0EF056F850
:1037D000814B002283F880207F4B4FF6FF72DA8204
:1037E0007E4A002101200EF091FF01F081FA7C4B0E
:1037F0008922DA707B4B00227B490020FEF782FD94
:10380000754B02225A76744B01221A7641F60D004E
:1038100001F0DAF9754B80221A80754BA0221A80CC
:10382000012001F08BF8D7F8AC000DF0E1FC034665
:10383000002B40F0928001F083F9C7F8A400D7F87C
:10384000A43005331B781D46D7F8A43004331B7809
:103850001E46D7F8A43003331B781A46D7F8A43095
:1038600002331B781946D7F8A43001331B781C4665
:10387000D7F8A4301B7807F18000039302940191DC
:10388000009233462A465B490FF0AEFED7F8AC30C3
:103890001B781A46D7F8AC305B781946D7F8AC30AD
:1038A0009B7807F1680000930B4653490FF09CFE8C
:1038B000D7F8AC30DB781A46D7F8AC301B7907F173
:1038C00054004E490FF090FED7F8AC309B7A1A4660
:1038D000D7F8AC30DB7A1946D7F8AC301B7B07F150
:1038E000400000930B4646490FF07EFE0021002069
:1038F00005F0CCFF002005F0A1FE07F180020323B4
:10390000002100200EF0BCFB0EF058FB0346DB88C4
:10391000194607F16802032300200EF0B1FB0EF0F8
:103920004DFB0346DB885B00194607F15402032375
:1039300000200EF0A5FB0EF041FB0346DB881A4683
:1039400013465B001344194607F14002032300208D
:103950000EF096FB002005F071FE4FF47A60FDF743
:1039600069FF0021002005F091FF002005F066FEB0
:103970000123244A002100200EF082FB0EF01EFBE2
:103980000346DB88194607F18002032300200EF06E
:1039900077FB0EF013FB0346DB881A4613465B00E9
:1039A000134419460323184A00200EF069FB002037
:1039B00005F044FE00BFB437BD46F0BDEC5D010824
:1039C000F5090108705C010884780108FC5C0108B5
:1039D000145D01084C5D01080C0E0020314C0008FC
:1039E00008020020214C00088D0E0020900E0020BF
:1039F000920E0020745D0108945D0108A85D010825
:103A0000BC5D0108CC5D0108E05D0108F0B597B030
:103A100004AF7860922387F847307B6801333B64BA
:103A20003B6C1B78FF2B00F04C82FF2B00F31884BB
:103A3000052B04D03E2B00F0878000F011BC3B6CBE
:103A400002333B623B6AB3F801309AB2A84BDB8A7F
:103A50009A4228D1A64B0022DA82A54B002283F895
:103A60008020A4480CF0FAFE014640F2DB13A24A83
:103A7000A2480FF041FDA2480FF0AEFD9D480CF0AA
:103A8000EDFE01464FF4EE739B4A9C480FF034FD67
:103A90003B6AB3F801309BB219463B6ADB781A46A1
:103AA00098480FF029FD01F04BF878627B6A0533E6
:103AB0001B781D467B6A04331B781E467B6A0333E2
:103AC0001B781A467B6A02331B7819467B6A0133DE
:103AD0001B781C467B6A1B7807F10800039302944D
:103AE0000191009233462A4687490FF07DFD00215F
:103AF000002005F0CBFE002005F0A0FD0123834A45
:103B0000002100200EF0BCFA0EF058FA0346DB88C4
:103B1000194607F10802032300200EF0B1FA0EF057
:103B20004DFA0346DB881A4613465B0013441946D8
:103B30000323774A00200EF0A3FA002005F07EFD53
:103B4000012000F0FBFE8EE33B6C02337B637B6B5A
:103B50001B780C2B48D00C2B00F3B181012B00F00B
:103B6000EB80032B40F0AB817B6B0133FB62614840
:103B70000CF074FE014640F205235F4A5F480FF0E7
:103B8000BBFC64480FF028FD5A480CF067FE014664
:103B900040F20623584A59480FF0AEFCFB6AB3F8CE
:103BA00003309BB21846FCF795FC4FF000025A4BCD
:103BB000FCF7FAFC02460B4610461946FB6AB3F8BE
:103BC00005309BB21C46FB6AB3F807309BB21A461D
:103BD00013469B0013445B000193009402460B467E
:103BE0004E480FF089FC6BE17B6B01333B6341482E
:103BF0000CF034FE014640F213233F4A3F480FF0D9
:103C00007BFC47480FF0E8FC3B6B1B78002B0DD189
:103C100038480CF023FE014640F21623364A374856
:103C20000FF06AFC3F480FF0D7FC0CE031480CF075
:103C300015FE014640F21A232F4A30480FF05CFC73
:103C400039480FF0C9FC2A4BDB8A07F11E0207F145
:103C50001F0118460CF0B2FC034687F8473097F86E
:103C60004730002B0DD023480CF0F8FD01464FF4EF
:103C70000873214A21480FF03FFC2C480FF0ACFCA0
:103C80001EE11C480CF0EAFD01464FF409731A4A84
:103C90001A480FF031FC26480FF09EFCFB7F022BE8
:103CA00014D1BB7F022B11D112480CF0D7FD014675
:103CB0004FF40A73104A11480FF01EFCFB7F19469F
:103CC000BB7F1A461B480FF017FCF9E009480CF0BF
:103CD000C5FD01464FF40B73074A08480FF00CFC72
:103CE000FB7F1946BB7F1A4612480FF005FCE7E040
:103CF0000C0E0020705C010894780108FC5C01083F
:103D0000285E0108545E0108745D0108CC5D01085D
:103D1000E05D0108905E01080000F43FC85E010804
:103D2000385F0108685F0108785F0108885F010853
:103D3000A85F0108CC5F01087B6B0133BB62AC4B11
:103D400093F881301846FEF757FBAA480CF086FD21
:103D5000014640F23D23A84AA8480FF0CDFBBB6ABC
:103D6000B3F801309BB21946A5480FF0C5FBA14836
:103D70000CF074FD014640F23E239F4A9F480FF02D
:103D8000BBFBBB6A9B7A1846BB6A5B7A1C46BB6A64
:103D90001B7A1D46BB6ADB791A46BB6A9B791946BA
:103DA000BB6A5B790293019100922B462246014641
:103DB00094480FF0A1FB8F480CF050FD014640F2F3
:103DC00045238D4A8D480FF097FBBB6AB3F80B3043
:103DD0009BB21846FCF77EFB4FF000028A4BFCF7C3
:103DE000E3FB02460B4610461946BB6AB3F80D309A
:103DF0009BB21C46BB6AB3F80F309BB21A461346FF
:103E00009B0013445B000193009402460B467F48DD
:103E10000FF072FB764B93F88030042B04D1744B77
:103E2000062283F8802003E0714B052283F880206E
:103E3000BB6AB3F801309AB26D4BDA8200F080FEB3
:103E400078627B6A05331B781D467B6A04331B78D6
:103E50001E467B6A03331B781A467B6A02331B7843
:103E600019467B6A01331B781C467B6A1B7807F175
:103E70000800039302940191009233462A46644954
:103E80000FF0B2FB0EF09AF80346DB88194607F1F3
:103E90000802032300200EF0F3F80EF08FF803461B
:103EA000DB881A4613465B00134419460323594A1C
:103EB00000200EF0E5F8002005F0C0FB00E000BF98
:103EC000D1E13B6C0233FB63FB6B1B889BB240F27E
:103ED0000A42934222DCB3F5806FC0F2C381A3F59E
:103EE00080630A2B00F2BE8101A252F823F000BFCA
:103EF000293F000897410008453F0008B73F0008E8
:103F0000D33F000835400008654200081D42000804
:103F1000A5400008DD400008C140000840F60E4200
:103F2000934200F089819DE132480CF097FC0146F4
:103F30004FF41E73304A31480FF0DEFA36480FF066
:103F40004BFB8CE12B480CF089FC01464FF41F73AE
:103F5000294A2A480FF0D0FA30480FF03DFB244B95
:103F6000DB8A2F4918460BF08BFB034687F8473056
:103F700097F84730002B10D01E480CF06FFC01461C
:103F800040F281231C4A1D480FF0B6FA97F84730DB
:103F9000194624480FF0B0FA61E116480CF05EFCB7
:103FA000014640F28523144A14480FF0A5FA1E4832
:103FB0000FF012FB53E10F480CF050FC014640F2A9
:103FC0008A230D4A0D480FF097FA18480FF004FBAA
:103FD00045E108480CF042FC014640F28E23064AB7
:103FE00006480FF089FA12480FF0F6FA37E100BFE1
:103FF0000C0E0020705C010894780108FC5C01083C
:10400000F05F01083C6001080000F43FC85E010851
:10401000745D01088C60010898600108C86001089F
:1040200040E20100F0600108246101084C610108D0
:10403000786101088E480CF011FC014640F2922391
:104040008C4A8D480FF058FA8C480FF0C5FA8C4B0B
:10405000DB8A18460BF039FD034687F8473097F89E
:104060004730002B10D082480CF0F8FB014640F29C
:104070009623804A80480FF03FFA97F84730194658
:1040800080480FF039FAEAE079480CF0E7FB014686
:1040900040F29A23774A78480FF02EFA7A480FF0C8
:1040A0009BFADCE072480CF0D9FB014640F29F23FA
:1040B000704A71480FF020FA74480FF08DFACEE084
:1040C0006B480CF0CBFB014640F2A323694A6A48D7
:1040D0000FF012FA6E480FF07FFAC0E064480CF05F
:1040E000BDFB014640F2A723624A63480FF004FA81
:1040F00068480FF071FA5E480CF0B0FB01464FF4CF
:104100002A735C4A5C480FF0F7F9FB6B0233D3F873
:104110000230194660480FF0EFF955480CF09EFB4D
:10412000014640F2AA23534A53480FF0E5F9FB6BCE
:104130000233D3F80230194658480FF0DDF9504BDE
:10414000DB8A012118460BF014FD034687F847303F
:1041500097F84730002B10D045480CF07FFB014604
:1041600040F2AF23434A44480FF0C6F997F847306E
:1041700019464B480FF0C0F971E03D480CF06EFB5A
:10418000014640F2B3233B4A3B480FF0B5F945489E
:104190000FF022FA63E0FB6B0233BB6334480CF090
:1041A0005DFB014640F2BB23324A33480FF0A4F9CD
:1041B0003D480FF011FABB6B9B78002B0DD12C48BA
:1041C0000CF04CFB014640F2BE232A4A2A480FF06D
:1041D00093F936480FF000FA12E025480CF03EFB48
:1041E000014640F2C223234A23480FF085F9BB6BF6
:1041F0009B781946BB6BDB781A462D480FF07CF98B
:104200001B480CF02BFB01464FF43173194A1A4836
:104210000FF072F927480FF0DFF920E014480CF096
:104220001DFB014640F2CA23124A13480FF064F9FD
:1042300021480FF0D1F912E00D480CF00FFB0146B8
:1042400040F2D2230B4A0C480FF056F91B480FF0EE
:10425000C3F90B4BDB8A18460BF09EFF00BF01E051
:1042600000BF00E000BF012318464C37BD46F0BD3B
:10427000705C010894780108FC5C0108B4610108D5
:104280000C0E0020DC610108106201083862010890
:104290006862010898620108CC620108EC620108BA
:1042A000086301085C630108A4630108D063010886
:1042B000EC6301082C640108306401085C640108A7
:1042C00080B582B000AF9223FB710BF0DAFB03469E
:1042D000FB71FB79002B0FD010480CF0BFFA0146A0
:1042E0004FF43E730E4A0F480FF006F9FB7919465A
:1042F0000D480FF001F90CE008480CF0AFFA014648
:104300004FF43F73064A07480FF0F6F807480FF0DE
:1043100063F900BF0837BD4680BD00BF705C01086F
:10432000AC780108FC5C010884640108BC640108E5
:1043300080B582B000AF9223FB71154BDB8A184623
:104340000BF0B2FA0346FB71FB79002B0FD011483A
:104350000CF084FA01464FF442730F4A0F480FF0F5
:10436000CBF8FB7919460E480FF0C6F80CE0094867
:104370000CF074FA01464FF44373074A07480FF0F4
:10438000BBF808480FF028F900BF0837BD4680BDCC
:104390000C0E0020705C0108C8780108FC5C010864
:1043A000E86401082065010880B582B000AF064BC3
:1043B0003B60064B7B603B46194605480CF0FEFA15
:1043C00000BF0837BD4680BD28000320BB4C000855
:1043D000834C0008F0B58DB006AF4FF450733B80AE
:1043E0009223FB75B1480CF039FA014640F22D33A7
:1043F000AF4AB0480FF080F8AF480FF0EDF80CF07E
:10440000B9F80346FB75FB7D002B0FD0A7480CF0D5
:1044100025FA014640F23633A54AA6480FF06CF85B
:10442000FB7D1946A5480FF067F80CE09F480CF09B
:1044300015FA014640F23A339D4A9E480FF05CF867
:104440009F480FF0C9F800F07BFB38613A690621FC
:1044500000200BF0A3FF0346FB75FB7D002B0FD064
:1044600092480CF0FBF901464FF45173904A914881
:104470000FF042F8FB7D194692480FF03DF835E009
:104480008A480CF0EBF901464FF45273884A894888
:104490000FF032F88C480FF09FF884480CF0DEF9EA
:1044A000014640F24933824A82480FF025F83B69C1
:1044B00005331B7818463B6904331B781C463B695F
:1044C00003331B781D463B6902331B781A463B6950
:1044D00001331B7819463B691B78029301910092C6
:1044E0002B462246014679480FF006F83B69053312
:1044F0001A78774B1A723B6904331A78744B5A72E4
:104500003B6903331A78724B9A723B6902331A780B
:104510006F4BDA723B6901331A786D4B1A733B6942
:104520001A786B4B5A736B4A102118200BF036FF28
:104530000346FB75FB7D002B0FD05C480CF08EF919
:10454000014640F27D335A4A5A480EF0D5FFFB7DB2
:10455000194661480EF0D0FF0CE054480CF07EF98B
:10456000014640F28133524A52480EF0C5FF5B4883
:104570000FF032F85A4A102108200BF00FFF0346C3
:10458000FB75FB7D002B0FD048480CF067F9014606
:1045900040F28A33464A47480EF0AEFFFB7D19468B
:1045A00050480EF0A9FF0CE040480CF057F90146C6
:1045B00040F28E333E4A3F480EF09EFF4A480FF0CD
:1045C0000BF8182101200BF06EFF0346FB75FB7DF5
:1045D000002B0FD035480CF041F9014640F29733DB
:1045E000334A34480EF088FFFB7D19463F480EF0F1
:1045F00083FF0CE02D480CF031F9014640F29B336B
:104600002B4A2C480EF078FF39480EF0E5FF0BF0EE
:1046100017FB0346FB75FB7D002B0FD023480CF0E6
:104620001DF901464FF46973214A22480EF064FFD8
:10463000FB7D19462F480EF05FFF0CE01B480CF085
:104640000DF901464FF46A73194A1A480EF054FFE7
:1046500029480EF0C1FF0023FB73FB7B43F00103ED
:10466000FB73FB7B002B6BD0244BBB60BA1DF87B2C
:10467000BB1C01933B1D00931346072200210BF046
:1046800066F80346FB75FB7D002B3BD007480CF01A
:10469000E5F801464FF47273054A06480EF02CFF08
:1046A000FB7D194616480EF027FF38E0705C0108C4
:1046B000E4780108FC5C0108506501087C6501088C
:1046C000AC650108CC65010828660108746601081C
:1046D000080200205C780108B46601080C67010834
:1046E0006C78010854670108AC670108F467010899
:1046F000346801086468010898680108BC6801080A
:10470000C46801087E480CF0A9F801464FF47373A1
:104710007C4A7D480EF0F0FE7C480EF05DFFFC8880
:10472000BD88B868FBF77CFD0346DAB2BB6800932E
:1047300013460022294620460BF085FC0346FB75F4
:10474000F88879883B460093022300220BF07BFC1B
:104750000346FB750222022100200BF0ADFF034649
:10476000FB75FB7D002B0FD065480CF077F80146F8
:1047700040F2EE33634A64480EF0BEFEFB7D1946FC
:1047800063480EF0B9FE0CE05D480CF067F8014696
:1047900040F2F2335B4A5C480EF0AEFE5D480EF02C
:1047A0001BFF5D4B01221A705B4B1B7818460AF009
:1047B0004FFE0346FB75FB7D002B0FD050480CF0DD
:1047C0004DF801464FF47F734E4A4F480EF094FE69
:1047D000FB7D194651480EF08FFE0CE048480CF066
:1047E0003DF801464FF48063464A47480EF084FE88
:1047F0004B480EF0F1FE484B01225A70464B0822FE
:104800001A71454B10225A71434B0022DA70424B09
:10481000444A9A60404B01229A703F4B9C783E4B31
:104820005D783D4B1B793C4A52793B49C9783A48FF
:104830008068002604960390029101920093002361
:104840000122294620460AF057FE0346FB75FB7DF0
:10485000002B0FD02A480CF001F8014640F21B4310
:10486000284A29480EF048FEFB7D19462E480EF0D6
:1048700043FE0CE022480BF0F1FF014640F21F43DB
:10488000204A21480EF038FE28480EF0A5FE224BA3
:104890009B78002B23D00BF0D0F80346FB75FB7DF3
:1048A000002B0FD016480BF0D9FF014640F22A43E7
:1048B000144A15480EF020FEFB7D19461C480EF0E8
:1048C0001BFE0CE00E480BF0C9FF014640F22E43E0
:1048D0000C4A0D480EF010FE16480EF07DFE0848FA
:1048E0000BF0BCFF014640F23143064A06480EF089
:1048F00003FE11480EF070FE00BF1C37BD46F0BD30
:10490000705C0108E4780108FC5C0108F8680108A3
:104910001C690108586901080C0E0020846901080F
:10492000C469010807B20100F4690108406A01087E
:104930007C6A0108C06A0108F46A010880B58CB07D
:1049400008AF0346FB719223FB72FB79012B06D162
:10495000694B1B88FB81694B1B88BB8105E04FF4C9
:10496000C863FB814FF47A63BB81654B93F8813058
:104970001846FDF741FDFB79022B2DD1604B93F8D2
:104980008030012B04D05E4B93F88030022B23D172
:104990000AF040FC0346FB72FB7A002B0FD059480B
:1049A0000BF05CFF014640F25243574A57480EF065
:1049B000A3FDFB7A194656480EF09EFD0CE05148C7
:1049C0000BF04CFF014640F256434F4A4F480EF061
:1049D00093FD50480EF000FE494AFB7982F8803082
:1049E000474B1B7EBA89F98900200690002005906C
:1049F000494804900393494B0293072301930023F2
:104A00000093002300200AF029FC0346FB72FB7A86
:104A1000002B0FD03B480BF021FF014640F26943C9
:104A2000394A3A480EF068FDFB7A19463C480EF0C8
:104A300063FD0CE033480BF011FF014640F26D437B
:104A4000314A32480EF058FD36480EF0C5FD364961
:104A50000E200AF080FF0346FB72FB7A002B22D067
:104A6000FB79012B0FD127480BF0F8FE014640F2ED
:104A70007643254A25480EF03FFDFB7A19462B4820
:104A80000EF03AFD35E01F480BF0E8FE014640F21B
:104A90007A431D4A1D480EF02FFDFB7A1946244823
:104AA0000EF02AFD25E0FB79012B14D115480BF0FF
:104AB000D5FE014640F28143134A14480EF01CFD16
:104AC0001C480EF089FD0E4B93F881301A491846A8
:104AD000FDF716FD0DE00B480BF0C0FE014640F25D
:104AE0008743094A09480EF007FD14480EF074FD8B
:104AF00000BF1037BD4680BD900E0020920E0020F2
:104B00000C0E0020705C0108FC780108FC5C0108B8
:104B1000206B0108706B0108250E00207C780108CD
:104B2000B86B0108F06B0108080200201C6C01083A
:104B3000546C0108906C010846E00100BC6C01084F
:104B400080B586B000AFFEF7D1FD38613B69B3F1A7
:104B5000FF3F23D0FEF7E2FDB860FEF7D3FD78609B
:104B60003B69DAB2164B1A703B691B0ADAB2144B76
:104B70005A707B68DAB2124B9A70BB68DAB2104B8B
:104B8000DA70BB681B0ADAB20D4B1A71BB681B0CDA
:104B9000DAB20B4B5A710A4B7B610BE000200CF030
:104BA000BBFAF860FB68002B02D0FB687B6101E078
:104BB000044B7B617B6918461837BD4680BD00BF3A
:104BC000040E00205478010880B483B000AF03467F
:104BD000FB80124B1B7E1946FB88DAB20F4B0B444D
:104BE0005A760E4B1B7E0133DAB20C4B1A76FB88D9
:104BF0001B0A9AB2094B1B7E1946D2B2074B0B44D3
:104C00005A76064B1B7E0133DAB2044B1A7600BF8C
:104C10000C37BD465DF8047B704700BF0C0E0020CA
:104C200080B500AF002101200DF092FD00BF80BDD6
:104C300080B500AF0220FFF781FE00BF80BD80B5C8
:104C400082B000AF7860002104200DF081FD00BF2C
:104C50000837BD4680BD80B582B000AF78600120C6
:104C60000DF0E2FD00BF0837BD4680BD80B582B0C3
:104C700000AF786001200DF0F7FD00BF0837BD469A
:104C800080BD80B584B000AF78607B68FB60FB6856
:104C90005B68083318460CF043FE0346FB72FB7A50
:104CA000002B03D0FB6801221A7003E0FB6800228E
:104CB0001A7000BF1037BD4680BD80B584B000AF0C
:104CC0000346FB71FB79002B02D0012B06D00BE0D1
:104CD0000F23FB60F8680DF067FD05E00F23FB6014
:104CE000F8680DF081FD00BF00BF1037BD4680BDE4
:104CF00080B582B000AF074B3B6004233B713B465D
:104D0000194642F629200BF033FE00BF0837BD4696
:104D100080BD00BFEC6C010880B582B000AF786048
:104D20007B681B78022B1AD0022B1EDC002B02D0D2
:104D3000012B07D019E00F4B00229A800D4B012266
:104D40001A7313E00B4B5B7B1846FDF755FB094BC1
:104D50005B7B40F601011846FDF7D2FB06E0054BF0
:104D60005B7B1846FDF748FB00E000BF00BF08373B
:104D7000BD4680BD940E002080B400AF054BDB68BB
:104D8000044A43F40043D36000BFBD465DF8047B92
:104D9000704700BF0004005880B483B000AF786053
:104DA000064BD3F8D42005497B681343C1F8D430AF
:104DB00000BF0C37BD465DF8047B70470008005803
:104DC00080B483B000AF7860054B1A6A04497B68F1
:104DD00013430B6200BF0C37BD465DF8047B704780
:104DE0000008005880B485B000AF78604FF0B04341
:104DF0001A6D4FF0B0417B6813430B654FF0B04321
:104E00001A6D7B681340FB60FB6800BF1437BD461A
:104E10005DF8047B704780B485B000AF78604FF0D8
:104E2000B043D3F850214FF0B0417B681343C1F831
:104E300050314FF0B043D3F850217B681340FB60F2
:104E4000FB6800BF1437BD465DF8047B704780B433
:104E500083B000AF78607B681B6843F480327B6866
:104E60001A6000BF0C37BD465DF8047B704780B404
:104E700083B000AF78607B681B6843F001027B68F9
:104E80001A6000BF0C37BD465DF8047B704780B4E4
:104E900083B000AF786039607B685A683B681B0458
:104EA000DB431A407B685A6000BF0C37BD465DF893
:104EB000047B704780B483B000AF786039607B6852
:104EC0005A683B681B041A437B685A6000BF0C3762
:104ED000BD465DF8047B704780B483B000AF786056
:104EE00039607B685A683B68DB431A407B685A60CC
:104EF00000BF0C37BD465DF8047B704780B483B0BB
:104F000000AF786039607B683A689A6000BF0C3700
:104F1000BD465DF8047B704780B483B000AF786015
:104F200039603B681A047B689A6000BF0C37BD4645
:104F30005DF8047B704780B483B000AF786039605F
:104F40007B68DA683B6813403A689A4201D10123D2
:104F500000E0002318460C37BD465DF8047B70471F
:104F600080B483B000AF786039607B68DA693B68F1
:104F700013403A689A4201D1012300E00023184609
:104F80000C37BD465DF8047B7047000080B500AF6C
:104F900002211848FFF7E4FF0346002B08D0154B09
:104FA0005B6803F00203002B02D100F0D5F81EE08D
:104FB00001211048FFF7D4FF0346002B08D00D4B0A
:104FC0005B6803F00103002B02D100F089F80EE0CA
:104FD00008210848FFF7C4FF0346002B08D0054B03
:104FE0005B6803F00803002B02D100F001F900BF59
:104FF00000BF80BD000C005880B500AF02211848EA
:10500000FFF799FF0346002B08D1154B5B6803F4AB
:105010000033002B02D100F093F81EE00821104865
:10502000FFF789FF0346002B08D10D4B5B6803F4A3
:105030000023002B02D100F0BDF80EE0202108482B
:10504000FFF779FF0346002B08D1054B5B6803F49B
:105050000013002B02D100F04FF800BF00BF80BD4D
:10506000000C005880B500AF4FF48010FFF7D3FE5E
:105070004FF40070FFF7A4FE4FF40070FFF78CFEB2
:1050800040BF20BFFFF778FE00BF80BD80B500AFF6
:105090004FF48010FFF7A6FE0648FFF7E8FE05482C
:1050A000FFF7D5FE2C2005F01AF82D2005F017F893
:1050B00000BF80BD000C005880B500AF0121024840
:1050C000FFF70AFF00BF80BD000C005880B500AF9D
:1050D00001210248FFF720FF00BF80BD000C0058EF
:1050E00080B500AF0CF000FD01210248FFF706FF7C
:1050F00000BF80BD000C005880B500AF20210348E0
:10510000FFF7D8FE0CF020FD00BF80BD000C00585A
:1051100080B500AF02210248FFF7DEFE00BF80BD70
:10512000000C005880B500AF02210448FFF7F4FEE0
:1051300002210248FFF7ABFE00BF80BD000C005803
:1051400080B500AF02210348FFF7B4FE0CF04CFD20
:1051500000BF80BD000C005880B500AF0CF05AFDB8
:1051600002210248FFF7CAFE00BF80BD000C0058B4
:1051700080B582B000AF786008210C48FFF7DBFEF5
:105180000346002B07D00A4A7B68136008210748B2
:10519000FFF77DFE06E07B68984708210348FFF78C
:1051A000BBFE00BF0837BD4680BD00BF000C0058E5
:1051B000A40E002080B500AF08210648FFF77AFE54
:1051C000054B1B68984708210248FFF7A5FE00BF62
:1051D00080BD00BF000C0058A40E002080B500AFB9
:1051E00008210248FFF778FE00BF80BD000C005880
:1051F00080B500AF0CF0B6FD08210248FFF77EFE37
:1052000000BF80BD000C005880B582B000AF0346DF
:10521000FB71F91D4FF47A730122034808F0F7F887
:1052200000BF0837BD4680BD5809002080B500AFDB
:1052300000224021074805F0A5FC00220121064874
:1052400005F0A0FC01224021044805F09BFC00234E
:10525000184680BD00080048000C004800040048C3
:1052600080B500AF00224021074805F08BFC0022EA
:105270000121064805F086FC00224021044805F083
:1052800081FC00BF80BD00BF00080048000C004842
:105290000004004880B500AF012240210B4805F012
:1052A00071FC6420FCF7C6FA00224021074805F093
:1052B00069FC0220FCF7BEFA01224021034805F0F8
:1052C00061FC6420FCF7B6FA00BF80BD0004004812
:1052D00080B582B000AF0346FB71002240210A482E
:1052E00005F050FC00220121084805F04BFCFB7939
:1052F0001846FFF789FF01220121044805F042FC0E
:1053000000BF0837BD4680BD00080048000C0048BB
:1053100080B582B000AF0346FB71012240210A48EC
:1053200005F030FC00220121084805F02BFCFB7938
:105330001846FFF769FF01220121044805F022FC0D
:1053400000BF0837BD4680BD00080048000C00487B
:1053500080B500AF0B480EF03FF902210A4805F076
:10536000F9FB0346002B03D03220FCF763FAF4E785
:1053700000BF3220FCF75EFA04480EF02DF900BFA2
:1053800080BD00BFF06C0108000C0048086D0108EA
:1053900080B584B000AF78603220FFF799FF00231A
:1053A000FB7309E0FB7B7A6813441B781846FFF710
:1053B000AFFFFB7B0133FB73FB7B982BF2D9FFF72D
:1053C000C7FF00BF1037BD4680BD80B582B000AFBB
:1053D00078607868FFF7DCFF3F20FFF779FF7B6894
:1053E00099331B781846FFF793FF0320FFF770FFF0
:1053F0007B689A331B781846FFF78AFF0420FFF773
:1054000067FF7B689B331B781846FFF781FF7B683B
:105410009C331B781846FFF77BFF7B689D331B7816
:105420001846FFF775FF2C20FFF752FF7B689E336D
:105430001B781846FFF76CFF00BF0837BD4680BDDC
:1054400080B500AF2220FFF743FFC720FFF760FFC2
:105450002020FFF73DFFFFF77BFF00BF80BD80B539
:1054600000AF2220FFF734FF0F20FFF751FF20206D
:10547000FFF72EFFFFF76CFF00BF80BD90B583B034
:1054800000AF0446084611461A462346FB800346F1
:10549000BB800B467B8013463B804420FFF718FF00
:1054A000FB88DB089BB2DBB21846FFF731FF7B8835
:1054B000DB089BB2DBB21846FFF72AFF4520FFF757
:1054C00007FFBB88DBB21846FFF722FFBB881B0A29
:1054D0009BB2DBB21846FFF71BFF3B88DBB21846D6
:1054E000FFF716FF3B881B0A9BB2DBB21846FFF79B
:1054F0000FFF00BF0C37BD4690BD80B582B000AF36
:1055000003460A46FB801346BB804E20FFF7E0FEB1
:10551000FB88DBB21846FFF7FBFE4F20FFF7D8FEF3
:10552000BB88DBB21846FFF7F3FEBB881B0A9BB2B1
:10553000DBB21846FFF7ECFE00BF0837BD4680BD62
:1055400080B500AFFFF7A6FE6420FCF773F9FFF704
:10555000FFFE1220FFF7BCFEFFF7FAFE0120FFF767
:10556000B7FE2720FFF7D4FE0120FFF7D1FE002071
:10557000FFF7CEFE1120FFF7ABFE0320FFF7C8FEBA
:1055800040F227137F2200210020FFF777FF212020
:10559000FFF79EFE0020FFF7BBFE8020FFF7B8FE5E
:1055A00000210020FFF7A9FFFFF7D2FE0248FFF716
:1055B0000CFF00BF80BD00BFB802002080B582B0E4
:1055C00000AF2420FFF784FE0023FB8005E0FF20CE
:1055D000FFF79EFEFB880133FB80FB88B3F5945FE9
:1055E000F5D3FFF72DFF00BF0837BD4680BD80B55E
:1055F00084B000AF78602420FFF76AFE0023FB81AF
:1056000009E0FB897A6813441B781846FFF780FE8F
:10561000FB890133FB81FB89B3F5945FF1D3FFF77D
:105620000FFF00BF1037BD4680BD80B584B000AF0E
:1056300078602420FFF74CFE0023FB8109E0FB8902
:105640007A6813441B781846FFF762FEFB89013322
:10565000FB81FB89B3F5945FF1D32620FFF738FE79
:105660000023FB8109E0FB897A6813441B78184604
:10567000FFF74EFEFB890133FB81FB89B3F5945F95
:10568000F1D3FFF7DDFE00BF1037BD4680BD00003F
:1056900080B584B000AF786000224021334805F027
:1056A00071FA0220FCF7C6F8012240212F4805F0CC
:1056B00069FA0220FCF7BEF82D48FFF769FE372093
:1056C000FFF706FE0020FFF723FE0020FFF720FE75
:1056D0000020FFF71DFE0020FFF71AFE0020FFF755
:1056E00017FE4020FFF714FE0020FFF711FE0020F8
:1056F000FFF70EFE0020FFF70BFE0020FFF708FE6D
:105700003C20FFF7E5FD8020FFF702FE2220FFF797
:10571000DFFDC020FFF7FCFD2020FFF7D9FDFFF7DC
:1057200017FE40F227137F2200210020FFF7A6FE7C
:1057300000210020FFF7E1FE2420FFF7C9FD002330
:10574000FB8109E0FB897A6813441B781846FFF750
:10575000DFFDFB890133FB81FB89B3F5945FF1D356
:10576000FFF77DFE00BF1037BD4680BD0004004836
:105770001802002080B500AF1020FFF7A9FD01201E
:10578000FFF7C6FD6420FCF755F800BF80BD0000A0
:1057900080B588B004AFBD480DF01EFFFFF746FD91
:1057A0000346002B02D04FF0FF33B3E1B8480DF0B1
:1057B00013FFFFF7C5FEFFF701FF4FF49453BB81C2
:1057C000BB8918460DF0C0F80346BB60BB68002BD0
:1057D00005D1B0480DF000FF4FF0FF339AE1AE481D
:1057E0000DF0FAFEFF2300935A234FF494728021A8
:1057F000B86800F099F9FF2000F048FBFF23009300
:105800005A234FF494728021B86800F08DF9A348B0
:105810000DF0E2FEB86800F0DDF9FF2000F036FB85
:105820009F4801F0B3FBB868FFF7E1FE40F6B830DF
:10583000FCF700F8FF2300935A234FF49472802161
:10584000B86800F071F997480DF0C6FEB86800F02E
:10585000C1F9FF2000F01AFB93480DF0BDFE0123B3
:1058600000930123002250210A2000F0DDFB0123D8
:105870000093022300225A210A2000F0D5FB0123C5
:1058800000930323002264210A2000F0CDFB0023B3
:10589000029301230193002300937823462246219B
:1058A000142000F06DFC00230293012301930023D8
:1058B0000093782314224621462000F061FC002347
:1058C000029301230193002300937823462246216B
:1058D000142000F001FD0123029301230193002312
:1058E0000093782382224621502000F0F5FC00230B
:1058F000019301230093002314225F212D2000F047
:105900006FFD0123019301230093FF2314225F21E4
:10591000692000F065FD0123029301230193002318
:1059200000935F237D225F21552000F029FC012395
:1059300002930123019300230093732369224B21D7
:10594000692000F01DFCFF23019300230093574BB7
:10595000574A00210A2000F077FF00230193FF231C
:105960000093544B544A14210A2000F06DFFFF238A
:105970000193002300934F4B504A21210A2001F04C
:1059800039F900230193FF230093484B4C4A3221FD
:105990000A2001F02FF9FF23019300230093494BC4
:1059A000494A0021822000F0A3FF00230193FF2336
:1059B0000093464B464A1421822000F099FFB868B4
:1059C000FFF733FE40F6B830FBF734FFFF230093B8
:1059D0005A234FF494728021B86800F0A5F83D482E
:1059E0000DF0FAFDB86800F0F5F80C233B712223A6
:1059F0007B713823BB710A23FB73BB790133DBB2A4
:105A0000BB71BB793C2B17D17B790133DBB27B7146
:105A10000023BB717B793C2B0ED13B790133DBB288
:105A20003B7100237B713B79182B05D100233B711F
:105A300000237B710023BB71274B9B881A46D20041
:105A4000D31A9BB296339AB2234BDB8850339BB266
:105A5000FF2100915021962000F0B8FA3A46002329
:105A60000193FF2300931C4B5021962001F094F9E1
:105A7000FB7B013BFB73FB7B002B2FD0B868FFF750
:105A800007FE4FF4FA70FBF7D5FEB6E7286D010864
:105A9000406D01085C6D0108846D0108946D01087A
:105AA00008790108AC6D0108B86D01086C0300208D
:105AB000CC6D010858030020D86D010815CD5B0797
:105AC000B168DE3A60030020E46D01087C03002029
:105AD000EC6D0108F86D01087403002000BF0F4849
