:020000040800F2
:1000000000000320610E0008653900086D39000802
:10001000753900087D3900088539000800000000A6
:100020000000000000000000000000008D39000802
:100030009B39000800000000A9390008B739000802
:10004000B50E0008B50E0008B50E0008293A0008E4
:10005000B50E0008B50E0008B50E0008413A0008BC
:100060004F3A00085D3A00086B3A0008B50E0008E8
:10007000B50E0008B50E0008B50E0008B50E000854
:10008000B50E0008B50E0008B50E0008B50E000844
:10009000B50E0008B50E0008B50E0008793A000844
:1000A000B50E0008B50E0008353A0008B50E000878
:1000B000B50E0008B50E0008B50E0008B50E000814
:1000C000B50E0008B50E0008B50E0008B50E000804
:1000D000C5390008B50E0008B50E0008B50E0008B9
:1000E000113A0008B50E0008B50E0008B50E00085C
:1000F000F9390008053A0008D9390008B50E00089A
:10010000B50E0008B50E0008B50E0008B50E0008C3
:10011000B50E0008B50E0008B50E0008B50E0008B3
:10012000B50E0008B50E0008E5390008B50E000848
:0C013000B50E0008B50E0008B50E000862
:1001400010B5054C237833B9044B13B10448AFF311
:1001500000800123237010BD200300200000000058
:100160005876010808B5034B1BB103490348AFF3A8
:10017000008008BD0000000024030020587601081C
:1001800001F0FF01102A2BDB10F0070F08D010F848
:10019000013B013A8B422DD010F0070F42B3F6D14C
:1001A000F0B441EA012141EA014122F007047FF065
:1001B00000070023F0E80256083C85EA010586EABC
:1001C000010685FA47F5A3FA87F586FA47F6A5FAF8
:1001D00087F68EB9EED1F0BC01F0FF0102F0070204
:1001E00032B110F8013B013A83EA010313B1F8D1AF
:1001F0000020704701387047002D06BF3546033890
:10020000073815F0010F07D1013015F4807F02BFC8
:10021000013015F4C03F0130F0BC0138704700BF19
:10022000034613F8012B002AFBD1181A0138704736
:1002300081F0004102E000BF83F0004330B54FEA97
:1002400041044FEA430594EA050F08BF90EA020F04
:100250001FBF54EA000C55EA020C7FEA645C7FEA97
:10026000655C00F0E2804FEA5454D4EB5555B8BFBA
:100270006D420CDD2C4480EA020281EA030382EA2B
:10028000000083EA010180EA020281EA0303362DBD
:1002900088BF30BD11F0004F4FEA01314FF4801C90
:1002A0004CEA113102D0404261EB410113F0004FA2
:1002B0004FEA03334CEA133302D0524263EB430359
:1002C00094EA050F00F0A780A4F10104D5F1200EF7
:1002D0000DDB02FA0EFC22FA05F2801841F1000152
:1002E00003FA0EF2801843FA05F359410EE0A5F126
:1002F00020050EF1200E012A03FA0EFC28BF4CF057
:10030000020C43FA05F3C01851EBE37101F000450C
:1003100007D54FF0000EDCF1000C7EEB00006EEB19
:100320000101B1F5801F1BD3B1F5001F0CD34908A3
:100330005FEA30004FEA3C0C04F101044FEA4452FA
:1003400012F5800F80F09A80BCF1004F08BF5FEA81
:10035000500C50F1000041EB045141EA050130BD61
:100360005FEA4C0C404141EB0101013C28BFB1F573
:10037000801FE9D291F0000F04BF01460020B1FABE
:1003800081F308BF2033A3F10B03B3F120020CDA91
:100390000C3208DD02F1140CC2F10C0201FA0CF06F
:1003A00021FA02F10CE002F11402D8BFC2F1200CD4
:1003B00001FA02F120FA0CFCDCBF41EA0C0190408A
:1003C000E41AA2BF01EB0451294330BD6FEA0404D3
:1003D0001F3C1CDA0C340EDC04F11404C4F12002BE
:1003E00020FA04F001FA02F340EA030021FA04F3D0
:1003F00045EA030130BDC4F10C04C4F1200220FA27
:1004000002F001FA04F340EA0300294630BD21FA64
:1004100004F0294630BD94F0000F83F4801306BF2A
:1004200081F480110134013D4EE77FEA645C18BF1E
:100430007FEA655C29D094EA050F08BF90EA020FB5
:1004400005D054EA000C04BF1946104630BD91EAAD
:10045000030F1EBF0021002030BD5FEA545C05D1B0
:100460004000494128BF41F0004130BD14F58004EF
:100470003CBF01F5801130BD01F0004545F0FE4163
:1004800041F470014FF0000030BD7FEA645C1ABF98
:10049000194610467FEA655C1CBF0B46024650EACF
:1004A000013406BF52EA033591EA030F41F40021FB
:1004B00030BD00BF90F0000F04BF0021704730B581
:1004C0004FF4806404F132044FF000054FF0000156
:1004D00050E700BF90F0000F04BF0021704730B517
:1004E0004FF4806404F1320410F0004548BF4042EC
:1004F0004FF000013EE700BF42004FEAE2014FEA41
:1005000031014FEA02701FBF12F07F4393F07F4F1B
:1005100081F06051704732F07F4208BF704793F01E
:100520007F4F04BF41F40021704730B54FF4607431
:1005300001F0004521F000411CE700BF50EA010234
:1005400008BF704730B54FF000050AE050EA0102DD
:1005500008BF704730B511F0004502D5404261EB4D
:1005600041014FF4806404F132045FEA915C3FF48E
:10057000D8AE4FF003025FEADC0C18BF03325FEA2B
:10058000DC0C18BF033202EBDC02C2F1200300FADC
:1005900003FC20FA02F001FA03FE40EA0E0021FA01
:1005A00002F11444BDE600BF70B54FF0FF0C4CF4EF
:1005B000E06C1CEA11541DBF1CEA135594EA0C0FA1
:1005C00095EA0C0F00F0DEF82C4481EA030621EADC
:1005D0004C5123EA4C5350EA013518BF52EA033517
:1005E00041F4801143F4801338D0A0FB02CE4FF0C9
:1005F0000005E1FB02E506F00042E0FB03E54FF0F9
:100600000006E1FB03569CF0000F18BF4EF0010EF0
:10061000A4F1FF04B6F5007F64F5407404D25FEAEC
:100620004E0E6D4146EB060642EAC62141EA55519F
:100630004FEAC52040EA5E504FEACE2EB4F1FD0CE1
:1006400088BFBCF5E06F1ED8BEF1004F08BF5FEA5F
:10065000500E50F1000041EB045170BD06F0004611
:1006600046EA010140EA020081EA0301B4EB5C04BE
:10067000C2BFD4EB0C0541EA045170BD41F48011B6
:100680004FF0000E013C00F3AB8014F1360FDEBFDB
:10069000002001F0004170BDC4F10004203C35DAB7
:1006A0000C341BDC04F11404C4F1200500FA05F33A
:1006B00020FA04F001FA05F240EA020001F00042DB
:1006C00021F0004110EBD37021FA04F642EB060151
:1006D0005EEA430E08BF20EAD37070BDC4F10C047B
:1006E000C4F1200500FA04F320FA05F001FA04F23F
:1006F00040EA020001F0004110EBD37041F100012B
:100700005EEA430E08BF20EAD37070BDC4F1200535
:1007100000FA05F24EEA020E20FA04F301FA05F29D
:1007200043EA020321FA04F001F0004121FA04F245
:1007300020EA020000EBD3705EEA430E08BF20EA15
:10074000D37070BD94F0000F0FD101F0004640004F
:1007500041EB010111F4801F08BF013CF7D041EAD1
:10076000060195F0000F18BF704703F000465200D5
:1007700043EB030313F4801F08BF013DF7D043EAA6
:100780000603704794EA0C0F0CEA135518BF95EA5C
:100790000C0F0CD050EA410618BF52EA4306D1D1E3
:1007A00081EA030101F000414FF0000070BD50EA02
:1007B000410606BF1046194652EA430619D094EA8C
:1007C0000C0F02D150EA013613D195EA0C0F05D176
:1007D00052EA03361CBF104619460AD181EA0301CA
:1007E00001F0004141F0FE4141F470014FF0000082
:1007F00070BD41F0FE4141F4780170BD70B54FF01D
:10080000FF0C4CF4E06C1CEA11541DBF1CEA13559C
:1008100094EA0C0F95EA0C0F00F0A7F8A4EB05047E
:1008200081EA030E52EA03354FEA013100F0888075
:100830004FEA03334FF0805545EA131343EA12633E
:100840004FEA022245EA111545EA10654FEA0026F3
:100850000EF000419D4208BF964244F1FD0404F5AC
:10086000407402D25B084FEA3202B61A65EB030508
:100870005B084FEA32024FF480104FF4002CB6EBC5
:10088000020E75EB030E22BFB61A754640EA0C0045
:100890005B084FEA3202B6EB020E75EB030E22BF85
:1008A000B61A754640EA5C005B084FEA3202B6EBC6
:1008B000020E75EB030E22BFB61A754640EA9C0085
:1008C0005B084FEA3202B6EB020E75EB030E22BF55
:1008D000B61A754640EADC0055EA060E18D04FEA13
:1008E000051545EA16754FEA06164FEAC30343EAB3
:1008F00052734FEAC2025FEA1C1CC0D111F4801F80
:100900000BD141EA00014FF000004FF0004CB6E778
:1009100011F4801F04BF01430020B4F1FD0C88BF17
:10092000BCF5E06F3FF6AFAEB5EB030C04BFB6EB22
:10093000020C5FEA500C50F1000041EB045170BD15
:100940000EF0004E4EEA113114EB5C04C2BFD4EB42
:100950000C0541EA045170BD41F480114FF0000EC6
:10096000013C90E645EA060E8DE60CEA135594EA42
:100970000C0F08BF95EA0C0F3FF43BAF94EA0C0F45
:100980000AD150EA01347FF434AF95EA0C0F7FF4BA
:1009900025AF104619462CE795EA0C0F06D152EA0E
:1009A00003353FF4FDAE1046194622E750EA4106F2
:1009B00018BF52EA43067FF4C5AE50EA41047FF403
:1009C0000DAF52EA43057FF4EBAE12E74FF0FF3C68
:1009D00006E000BF4FF0010C02E000BF4FF0010C39
:1009E0004DF804CD4FEA410C7FEA6C5C4FEA430CB2
:1009F00018BF7FEA6C5C1BD001B050EA410C0CBF01
:100A000052EA430C91EA030F02BF90EA020F002062
:100A1000704710F1000F91EA030F58BF994208BFC9
:100A200090422CBFD8176FEAE37040F00100704786
:100A30004FEA410C7FEA6C5C02D150EA013C07D1DD
:100A40004FEA430C7FEA6C5CD6D152EA033CD3D028
:100A50005DF8040B704700BF8446104662468C4622
:100A60001946634600E000BF01B5FFF7B7FF002855
:100A700048BF10F1000F01BD4DF808EDFFF7F4FF7E
:100A80000CBF012000205DF808FB00BF4DF808ED09
:100A9000FFF7EAFF34BF012000205DF808FB00BF2C
:100AA0004DF808EDFFF7E0FF94BF012000205DF84E
:100AB00008FB00BF4DF808EDFFF7CEFF94BF012003
:100AC00000205DF808FB00BF4DF808EDFFF7C4FFFC
:100AD00034BF012000205DF808FB00BF4FEA410C45
:100AE0007FEA6C5C02D150EA013C0AD14FEA430C28
:100AF0007FEA6C5C02D152EA033C02D14FF0000065
:100B000070474FF0010070474FEA410212F50012A2
:100B100015D211D56FF47873B3EB625212D94FEA44
:100B2000C12343F0004343EA505311F0004F23FA2E
:100B300002F018BF404270474FF00000704750EA83
:100B4000013005D111F0004008BF6FF00040704740
:100B50004FF00000704700BF53B94AB9002908BFE1
:100B600000281CBF4FF0FF314FF0FF3000F06AB992
:100B7000ADF1080C6DE904CE00F006F8DDF804E0F4
:100B8000DDE9022304B070472DE9F047089D0C46CB
:100B9000002B4ED194468C458646B2FA82F262D939
:100BA0004AB1C2F12003914020FA03F30CFA02FC8F
:100BB000194300FA02FE4FEA1C471FFA8CF6B1FBFC
:100BC000F7F44FEA1E4307FB141143EA014304FB09
:100BD00006F199420AD91CEB030304F1FF3080F0BF
:100BE0001281994240F20F81023C6344591A1FFA64
:100BF0008EF3B1FBF7F007FB101143EA014300FB52
:100C000006F69E420AD91CEB030300F1FF3180F087
:100C1000FC809E4240F2F980634402389B1B40EA0C
:100C2000044000211DB1D3400022C5E90032BDE8D7
:100C3000F0878B4205D90DB1C5E9000100210846B6
:100C4000F5E7B3FA83F1002946D1A34202D39042DB
:100C5000C0F0F080861A64EB03030120002DE6D07B
:100C6000C5E90063E3E7002A40F09080A1EB0C04A3
:100C70004FEA1C481FFA8CF70121B4FBF8F64FEA43
:100C80001E4308FB164443EA044307FB06F0984260
:100C900008D91CEB030306F1FF3402D2984200F29C
:100CA000CD8026461C1A1FFA8EF3B4FBF8F008FB21
:100CB000104443EA044300FB07F79F4208D91CEBAA
:100CC000030300F1FF3402D29F4200F2B0802046BD
:100CD000DB1B40EA0640A5E7C1F120068B4022FA63
:100CE00006F71F4320FA06FC04FA01F343EA0C035B
:100CF000F44000FA01F8380C4FEA1349B4FBF0FE57
:100D00001FFA87FC00FB1E4449EA04440EFB0CF961
:100D1000A14502FA01F20AD93C190EF1FF3A80F01E
:100D20008480A14540F28180AEF1020E3C44A4EBE8
:100D300009041FFA83F9B4FBF0F300FB134449EAFA
:100D4000044403FB0CFCA44507D93C1903F1FF3014
:100D500067D2A44565D9023B3C4443EA0E40A0FB60
:100D60000293A4EB0C049C42CE469C4651D34ED039
:100D700055B1B8EB0E0364EB0C0404FA06F6CB4055
:100D80001E43CC40C5E90064002150E7C2F12003B6
:100D900020FA03F10CFA02FC24FA03F394400C430A
:100DA0004FEA1C4800FA02FE1FFA8CF7B3FBF8F07A
:100DB00008FB1031230C43EA014300FB07F1994281
:100DC00008D91CEB030300F1FF362CD299422AD933
:100DD000023863445B1AA4B2B3FBF8F108FB113389
:100DE00044EA034401FB07F3A34208D91CEB0404C3
:100DF00001F1FF3613D2A34211D902396444E41A37
:100E000041EA004139E70446F0E6084606E7C845EE
:100E1000AED2B9EB020E63EB070C0138A8E73146FE
:100E2000EDE7034699E73046D4E7D6467FE76344CB
:100E300002384DE70646234608460FE7023E634464
:100E400030E700BF704700BFD458C4500433C41803
:100E50008C42F9D37047036004308842FBD370475B
:100E60000C48854609F0DAFB0B480C490C4A002374
:100E7000FFF7EDFF0B480C490023FFF7EEFF0B488F
:100E80000B490023FFF7E9FF14F08AFC01F0DAFDBB
:100E9000FEE700000000032008000020C40200203C
:100EA000C0220208200300207C3A0020E401032035
:100EB000670A0320FEE7000080B483B000AF7860CB
:100EC000064BD3F8902005497B681343C1F8903056
:100ED00000BF0C37BD465DF8047B70470008005822
:100EE00080B485B000AF78604FF0B043DA6C4FF05B
:100EF000B0417B681343CB644FF0B043DA6C7B683E
:100F00001340FB60FB6800BF1437BD465DF8047BEF
:100F1000704780B485B000AF78604FF0B043D3F82D
:100F20004C214FF0B0417B681343C1F84C314FF076
:100F3000B043D3F84C217B681340FB60FB6800BFD3
:100F40001437BD465DF8047B704780B500AF09F0EB
:100F50002BFC09F02FFC4FF48030FFF7ADFF11F0B0
:100F6000E3F800F021F800F0C1F800BF80BD0000F8
:100F7000B0B588B000AF0B4B3C1D1D460FCD0FC464
:100F800095E8070003C422800234130C237012F08A
:100F90002DFE3B1D184611F02EFE00BF2037BD462A
:100FA000B0BD00BF7076010880B588B000AF3B1DB2
:100FB00000221A605A609A60DA601A610023BB83CB
:100FC00000237B8300233B830023FB7736E0FB7FFA
:100FD000434ADB0013449B79002B2CD0FB7F404A13
:100FE00052F833303F4A93421BD03E4A934221D8B5
:100FF000B3F1904F03D03C4A934209D01AE0FB7FF3
:10100000374ADB0013449A88BB8B1343BB8312E03F
:10101000FB7F334ADB0013449A887B8B13437B832B
:1010200009E0FB7F2E4ADB0013449A883B8B134375
:101030003B8300E000BFFB7F0133FB77FB7F252B69
:10104000C5D90023FB600123BB6003233B61BB8B3D
:10105000002B14D0BB8B7B600120FFF741FF0120E8
:10106000FFF757FF3B1D19464FF0904009F0EAFF8C
:10107000BB8B002219464FF090400AF049FA7B8B57
:10108000002B12D07B8B7B600220FFF729FF022010
:10109000FFF73FFF3B1D1946134809F0D3FF7B8B39
:1010A0000022194610480AF033FA3B8B002B13D06C
:1010B0003B8B7B600420FFF713FF0420FFF729FF21
:1010C0003B1D1946074809F0BDFF3B8B002219461E
:1010D00004480AF01DFA00BF00BF2037BD4680BD9E
:1010E00064970108000800480004004880B400AF7D
:1010F00000BFBD465DF8047B704780B500AF01F0CE
:1011000055FC00BF80BD000080B483B000AF7860A4
:10111000074BD3F8803023F0070205497B6813435F
:10112000C1F8803000BF0C37BD465DF8047B7047C6
:101130000004005880B483B000AF7860064BD3F849
:10114000902005497B681343C1F8903000BF0C37ED
:10115000BD465DF8047B70470008005880B483B03A
:1011600000AF78604FF0B0430A4AC3F89C204FF0BC
:10117000B043D3F89C3023F47C527B681B024FF0C1
:10118000B0411343C1F89C3000BF0C37BD465DF839
:10119000047B7047FECAFECA80B483B000AF78609B
:1011A0004FF0B0439B6823F400424FF0B0417B689E
:1011B00013438B6000BF0C37BD465DF8047B70475E
:1011C00080B400AF044B1B68C3F30B031846BD4645
:1011D0005DF8047B704700BF002004E080B400AFDE
:1011E000044B1B681B0C9BB21846BD465DF8047B84
:1011F000704700BF002004E080B400AF054B1B69BE
:10120000044A23F00403136100BFBD465DF8047B6C
:10121000704700BF00ED00E080B483B000AF78609D
:101220007B68FF225A6200BF0C37BD465DF8047B25
:10123000704780B483B000AF78607B68CA225A627E
:101240007B6853225A6200BF0C37BD465DF8047BB1
:10125000704780B483B000AF786039607B689B686A
:1012600023F007023B681A437B689A6000BF0C3783
:10127000BD465DF8047B704780B500AF044B4FF46A
:1012800000421A6100F060F800F065F800BF80BD10
:101290000040005880B500AF00F071F800F08AF807
:1012A0001E49002001F080F8FFF74FFE01210120C8
:1012B00013F056F80021002008F08AFD184812F0BB
:1012C00021FD002012F074FD0021002008F0A4FF91
:1012D000002008F04DFE002008F076FE114812F0C4
:1012E000AFFDFF2012F084FD002012F095FD0021DB
:1012F000002008F091FF002008F066FE01230A4A52
:101300000021002012F012FE002008F05DFE00F027
:1013100085FA00F05DF800BF80BD00BF2404002006
:10132000B0190208EC0000208C76010880B400AFF0
:1013300000BFBD465DF8047B704780B500AF50200C
:10134000FFF7F8FE00BF80BD80B400AF00BFBD4610
:101350005DF8047B704780B582B000AF002011F0CB
:101360000BFC78607B68002B05D07B689B79184666
:10137000FFF7F4FE00BF00BF0837BD4680BD80B553
:1013800000AFFFF7D3FFFFF7D8FF00F003F800BF6F
:1013900080BD000080B500AF0548FFF74AFF00217F
:1013A0000348FFF756FF0248FFF736FF00BF80BD36
:1013B0000028004080B500AF4FF40040FFF7ECFE7E
:1013C00012F0BCFF0420FFF79FFE00BF80BD0000AD
:1013D00080B588B000AF12F053FA114A00214020C6
:1013E00013F0EAF80F4B3B600F4B7B603B4619460E
:1013F0000E4811F0DBFC0E4BBB600E4BFB600E4B3E
:101400003B6140F23C537B6107F10803184612F040
:1014100079FB12F02FFA00BF2037BD4680BD00BF18
:10142000E52D0108340703203D1400085514000879
:101430004C09032040080320F801032080B483B046
:1014400000AF0346FB7100BF0C37BD465DF8047B5F
:101450007047000080B588B000AF78607B685B683B
:101460000B33FB61FB691B889BB2A3F51243072B6F
:1014700000F2D08001A252F823F000BF9D140008B2
:101480002F150008511500081516000895150008BD
:10149000B9150008D5150008F915000807F10C0367
:1014A000184611F0D5FB5E4810F016FE01464FF4C9
:1014B000C8735C4A5C4813F075FF3B7B19467B7B25
:1014C0001A46BB7B594813F06DFF554810F004FED7
:1014D000014640F29113534A534813F063FF3B7C9B
:1014E0001946534813F05EFF4D4810F0F5FD0146D4
:1014F0004FF4C9734B4A4C4813F054FFBB7D194657
:10150000FB7D1A463B7E4B4813F04CFF444810F0DD
:10151000E3FD01464FF4CA73424A434813F042FFC9
:10152000454813F0AFFF786800F0E0F873E03C48FE
:1015300010F0D2FD014640F299133A4A3A4813F0AE
:1015400031FF3E4813F09EFF786800F085F862E0B6
:10155000334810F0C1FD01464FF4CF73314A324891
:1015600013F020FF364813F08DFF2D4810F0B4FD26
:10157000014640F29F132B4A2B4813F013FFFB69DF
:1015800002331968FB6902335B681A462D4813F071
:1015900009FF40E0224810F09FFD014640F2A513EC
:1015A000204A214813F0FEFEFB6902331B681946EE
:1015B000254813F0F7FE2EE0194810F08DFD014686
:1015C0004FF4D573174A184813F0ECFE1F4813F078
:1015D00059FF20E0124810F07FFD01464FF4D77309
:1015E000104A114813F0DEFEFB6902331B681946EE
:1015F000174813F0D7FE0EE0094810F06DFD0146C4
:1016000040F2B313074A084813F0CCFE114813F018
:1016100039FF00E000BF00BF2037BD4680BD00BFDE
:10162000A0760108949801082877010840770108FE
:101630006877010888770108A0770108C07701085A
:10164000E477010834780108607801089C78010883
:10165000C0780108FC78010880B584B000AF7860DC
:101660007B685B680B33FB60FB680233BB60194827
:1016700010F032FD014640F2CB13174A174813F021
:1016800091FEBB681B781946154813F08BFEBB68AA
:101690001B78002B0DD10F4810F01EFD01464FF4B2
:1016A000E8730D4A0D4813F07DFE0E4813F0EAFE74
:1016B0000DE0084810F010FD01464FF4EA73064AA9
:1016C000064813F06FFE084813F0DCFE00BF103729
:1016D000BD4680BDA0760108A898010828770108BA
:1016E00020790108547901089079010880B58AB001
:1016F00000AF786007F1080300221A605A609A6010
:10170000DA6000237B6200233B627B685B680B33FB
:10171000FB61FB690233BB61BB691B78002B46D1BF
:10172000364810F0D9FC01464FF4F573344A354879
:1017300013F038FE344813F0A5FEFFF719FC0F2311
:101740003B727F23BB72FFF749FD78622B4810F094
:10175000C3FC014640F20223294A2A4813F022FE24
:10176000796A2A4813F01EFE7B6A9BB2BB82FFF7A0
:1017700027FD3862214810F0AFFC014640F20723F4
:101780001F4A204813F00EFE396A214813F00AFE62
:101790003B6A9BB2FB8207F10803184611F042FA3C
:1017A00002F040FA0021012012F0DAFD22E0BB69CC
:1017B0001B78012B10D1114810F08EFC01464FF41C
:1017C00005730F4A0F4813F0EDFD124813F05AFE4F
:1017D0007B6800221A700DE0084810F07DFC01467D
:1017E00040F21B23064A074813F0DCFD0A4813F0B9
:1017F00049FE00BF2837BD4680BD00BFA076010866
:10180000BC98010828770108CC790108E87901081B
:101810000C7A0108307A0108647A010880B500AFBB
:101820000121002008F020F90121012008F01CF915
:1018300000BF80BD80B584B000AF786008F090FF35
:10184000B8607B68FB60FB68B3F1FF3F0AD008F02B
:101850009FFF03461A46FB681344FB6002E0FFF754
:10186000CBFC30BF08F07CFF0246BB68D31AFA6895
:101870009A42F4D800BF00BF1037BD4680BD80B586
:1018800000AF4FF0FF3012F09BFD00BF80BD80B471
:1018900000AF00BFBD465DF8047B704780B582B0E5
:1018A00000AF786039604FF0FF3012F089FD00BF63
:1018B0000837BD4680BD80B582B000AF786000219A
:1018C000402012F09BFE00BF0837BD4680BD80B5AA
:1018D00082B000AF7860022012F0FCFE00BF083733
:1018E000BD4680BD80B582B000AF7860022012F0A6
:1018F00011FF00BF0837BD4680BD000080B582B033
:1019000000AF0346FB80FB88B3F5005F1FD0B3F543
:10191000005F1FDC102B0EDC022B1BDB1A46104B6A
:10192000D34003F00103002B14BF01230023DBB2DB
:10193000002B04D10EE0B3F5805F05D00AE0FB88F0
:10194000184606F017FF06E002F032FF03E002F04F
:1019500067FF00E000BF00BF0837BD4680BD00BF85
:101960001401010080B582B000AF0346FB71094845
:1019700013F088FD084B1B78FA799A4205D0074B83
:1019800001221A70044AFB79137000BF0837BD4664
:1019900080BD00BFE87A0108080000203F03002056
:1019A00080B400AF034B00221A7000BFBD465DF843
:1019B000047B70473F03002080B400AF034B1B78CB
:1019C0001846BD465DF8047B704700BF3F0300200A
:1019D00080B483B000AF0346FB71044AFB791370F7
:1019E00000BF0C37BD465DF8047B70473E03002006
:1019F00080B400AF034B1B781846BD465DF8047BEE
:101A0000704700BF3E03002080B582B000AF786011
:101A1000064B18787A681346DB021344194600F027
:101A20009BFE00BF0837BD4680BD00BF3D030020C0
:101A300080B500AFFFF7DCFF0346022B0AD0022B74
:101A40000CDC002B0CD0012B00D007E00520FFF7A9
:101A500089FF06E00220FFF785FF02E000BF00E0FB
:101A600000BF00BF80BD000080B500AF084B1B78F1
:101A7000002B09D0064B1B781846FFF773FF044B69
:101A800000221A70002300E00123184680BD00BF29
:101A90004003002080B500AFFFF7E6FFFFF78CFFA3
:101AA0000346002B35D0FFF77BFF1B4B1B78013B18
:101AB000042B2BD801A252F823F000BFD11A000842
:101AC000D71A0008E31A0008E91A0008FB1A0008F0
:101AD00004F06CFF1DE004F0B5FF0020FFF778FF75
:101AE00017E005F0A1F814E005F08CF90120FFF7EC
:101AF0006FFF0320FFF788FF0BE005F071FA02206B
:101B0000FFF766FF0A20FFF77FFF02E004F04EFFB9
:101B100000BF00BF80BD00BF0800002080B500AF3F
:101B20000021202012F06AFD202012F049FC00BFA5
:101B300080BD000080B500AF0C4A0021202012F0CB
:101B40003BFD0B4B01220B49002000F007FD0A4B27
:101B500000220A49002000F001FD064B1B781421E9
:101B6000184600F0F9FD00BF80BD00BF951A0008BF
:101B70001D1B00083C030020311A00083D03002013
:101B800080B483B000AF7860064BD3F8802005495D
:101B90007B681343C1F8803000BF0C37BD465DF849
:101BA000047B70470008005880B483B000AF7860B1
:101BB000054B1A6804497B6813430B6000BF0C3760
:101BC000BD465DF8047B70470008005880B483B0C0
:101BD00000AF0D4B9B6A9BB27B600B4B9B6A9BB229
:101BE0003B6005E03B687B60074B9B6A9BB23B60B8
:101BF0007A683B689A42F5D13B6818460C37BD4677
:101C00005DF8047B704700BF0028004080B485B0B9
:101C100000AF03460A46FB711346BB71BA791D49F2
:101C200013465B001344DB000B4415331B78FB7336
:101C3000FB7B062B09D0FA7B164913465B00134445
:101C4000DB000B441433FA791A70FA791149134600
:101C50005B001344DB000B441533FA7B1A70FA79EE
:101C60000C4913465B001344DB000B441433BA7970
:101C70001A70BA79074913465B001344DB000B4422
:101C80001533FA791A7000BF1437BD465DF8047B2E
:101C9000704700BF4403002080B485B000AF034606
:101CA0000A46FB711346BB71294B1B78DBB2BA792C
:101CB0009A4232D0BA79274913465B001344DB00BD
:101CC0000B4414331B78FB73FA7B224913465B00E9
:101CD0001344DB000B441533FA791A70FA791D4965
:101CE00013465B001344DB000B441533BA791A70BA
:101CF000FA79184913465B001344DB000B44143394
:101D0000FA7B1A70BA79134913465B001344DB005F
:101D10000B441433FA791A7014E0FA790D4913461A
:101D20005B001344DB000B441533BA791A70BA799F
:101D3000084913465B001344DB000B441433FA7963
:101D40001A7000BF1437BD465DF8047B704700BFB2
:101D5000D40300204403002080B584B000AF0346C4
:101D6000FB714E4B1B78DBB2062B18D14B4B1B780B
:101D7000DAB24B4B1A70494AFB791370FA79494928
:101D800013465B001344DB000B44153306221A7024
:101D9000454B4FF0FF321A600023FB8178E000F0E2
:101DA00009F90346FB81FA793E4913465B00134467
:101DB000DB000B4408331968FB89FA791944394868
:101DC00013465B001344DB00034408331960FA79BF
:101DD000344913465B001344DB000B4408331B6893
:101DE000BB602E4B1B78DBB219462E4A0B465B00BC
:101DF0000B44DB00134408331B68BA689A4237D39C
:101E0000264B1B787B737A7B264913465B00134471
:101E1000DB000B4415331B783B7313E07A7B2149BD
:101E200013465B001344DB000B4415331B787B73B4
:101E30007A7B1C4913465B001344DB000B441533CB
:101E40001B783B733B7B062B0BD03A7B1549134623
:101E50005B001344DB000B4408331B68BA689A42EA
:101E6000DCD27A7BFB7911461846FFF7CFFE0FE0F4
:101E70000A4B1B78DAB2FB7911461846FFF70CFFC4
:101E8000064B1B78DAB2064B1A70044AFB791370C2
:101E9000FB8918461037BD4680BD00BFD403002023
:101EA000D503002044030020D803002080B485B06F
:101EB00000AF03460A46FB711346BB71394B1B78D2
:101EC000DBB2FA799A4211D1364B1B78DAB2364B33
:101ED0001A70FA79354913465B001344DB000B4452
:101EE00015331B78DAB22F4B1A703EE0FA792F497E
:101EF00013465B001344DB000B4414331B78FB7365
:101F0000FA792A4913465B001344DB000B4415336E
:101F10001B78BB73F979FA7B24480B465B000B44B2
:101F2000DB00034415331B78D8B2204913465B000D
:101F30001344DB000B44153302461A70BB7B062B9F
:101F400013D0F979BA7B19480B465B000B44DB00D0
:101F5000034414331B78D8B2144913465B0013446E
:101F6000DB000B44143302461A70FA790F4913460A
:101F70005B001344DB000B440C3301221A70094B45
:101F80001B78DBB2062B07D1BB79002B04D1084BA1
:101F90004FF0FF321A6000BF00BF1437BD465DF836
:101FA000047B7047D4030020D503002044030020A5
:101FB000D803002080B582B000AF1A4B1B68B3F184
:101FC000FF3F26D0FFF702FE7860164B1B687A6849
:101FD0009A4205D8134B1A687B68D31A7B600AE0D3
:101FE000114B1B881A467B68D31A3B600D4B1B684C
:101FF0003A6813447B600D4B1B781A467B6802FBE2
:1020000003F37B600A4B1B781A467B68D3407B60E6
:1020100001E000237B607B689BB218460837BD4611
:1020200080BD00BFD8030020E0030020DE030020B5
:10203000DD03002080B582B000AF0346FB80FB8843
:10204000002B08D1FFF7C2FD0346214A136003208D
:1020500008F033FD39E0FB88012B03D81D4B1B78BA
:10206000012B02D0FB88013BFB8000BF1A4B1B6891
:10207000DB6803F00403002BF8D0174B1B68DB6808
:10208000DAB2154B1B6862F49062DA60134B4FF4BE
:102090000022DA60032008F01EFD114B5B691B0C67
:1020A0001B04FA880E4913434B61FFF78FFD03466B
:1020B000074A1360084B1B689A68074B1B6842F479
:1020C00080629A60AFF3008000BF0837BD4680BDD4
:1020D000D8030020DD03002024040020000800585D
:1020E0000028004080B584B000AF454B9B6803F4E6
:1020F0008063B3F5806F07D100BF424B1B68DB687C
:1021000003F00403002BF8D13E4B1B689A683D4B4B
:102110001B6822F480629A603B4B1B78FB73FA7B4E
:102120003A4913465B001344DB000B4408331B6839
:10213000BB60FFF73FFF0346FB80FB88BA689A420B
:1021400005D20023BB81324B01221A704DE0FB887F
:10215000304A128892B213441A46BB68934206D999
:102160002C4B1B88BB812A4B00221A703DE0BB68B8
:102170009AB2FB88D31ABB81254B01221A7034E036
:10218000FA7B224913465B001344DB000B440833FF
:102190001A68FB889A420AD2FA7B1C4913465B00F4
:1021A0001344DB000B44083300221A6013E0FA7B6F
:1021B000164913465B001344DB000B4408331968CF
:1021C000FB88FA7BC91A114813465B001344DB00F5
:1021D000034408331960FA7B0C4913465B0013442F
:1021E000DB000B4415331B78FB73FB7B062BC7D13D
:1021F000BB891846FFF71EFF00BF1037BD4680BDE4
:102200000028004024040020D403002044030020C0
:10221000DC030020E203002080B58AB000AFEFF3BA
:1022200010837B617B697B6272B600BF594B1B6870
:10223000CA225A62574B1B6853225A62554B1B687D
:102240009A68544B1B6822F480629A60524B1B7848
:1022500087F8233097F82320504913465B00134436
:10226000DB000B440C331B78DBB2022B6ED197F8EA
:1022700023204A4913465B001344DB000B441B68D0
:10228000FB6197F82320454913465B001344DB00AC
:102290000B4410331B68BB61414B1B78DBB2002B36
:1022A0004CD097F823203D4913465B001344DB00D4
:1022B0000B440D331B78DBB2012B24D197F823306C
:1022C00001211846FFF7F2FD7B6A3B613B6983F30E
:1022D000108800BF97F82320304913465B00134451
:1022E000DB000B4404331A6897F823301146184674
:1022F00000F032FA274B1B68CA225A62254B1B6832
:1023000053225A6212E07B6AFB60FB6883F31088F9
:1023100000BF97F82330184600F09AF91D4B1B6850
:10232000CA225A621B4B1B6853225A6297F8233009
:10233000FA691946B86900F095FA22E0FFF7D2FE73
:102340007B6ABB60BB6883F310881AE000BF114B47
:102350001B68DB6803F00403002BF8D00D4B1B68EF
:10236000DB68DAB20B4B1B6862F49062DA600D4BEB
:102370004FF40022DA607B6A7B607B6883F310880D
:1023800000BF044B1B68FF225A6200BF2837BD46BE
:1023900080BD00BF24040020D4030020440300209B
:1023A000DC0300200008005880B588B000AF034669
:1023B0003960FB715E4B1B68CA225A625C4B1B681A
:1023C00053225A625B4B9B685A4A43F02003936046
:1023D000584B9B68DBB203F00703DBB2C3F1040385
:1023E000DAB2554B1A70534B1B6903F4FE034FF4DA
:1023F000FE023A613A6992FAA2F2FA60FA687A61E8
:102400007A69002A01D1202203E07A69B2FA82F2C5
:10241000D2B2D340DBB20133DAB2484B1A70454B2B
:102420001B699BB2C3F30E039BB201339AB2444BB8
:102430001A80434B1B88013B404A127802FB03F38E
:10244000A3F5A0733C4A1278D340BB61BB694FF639
:10245000FE72934204D93B4B4FF6FF721A8003E0A1
:10246000BB699AB2374B1A804FF40020FFF79CFBF0
:102470004FF40020FFF784FBFB79002B3DD1324B5A
:1024800001221A70314B4FF0FF321A600023FB77A4
:102490000CE0FA7F2E4913465B001344DB000B442B
:1024A0000C3300221A70FB7F0133FB77FB7F052B77
:1024B000EFD9284B06221A701D4B1B689A681C4BDB
:1024C0001B6822F480629A60194B1B68DB68DAB2E1
:1024D000174B1B6862F49062DA601F4B4FF40022C6
:1024E000DA60032008F0F7FA114B1B689A68104B6A
:1024F0001B6842F480429A6009E00D4B1B68DB6860
:1025000003F48063002B02D0032008F0D6FA084BB6
:102510001B68FF225A6200220321032008F08BFA75
:10252000032008F0A2FA00BF2037BD4680BD00BFDF
:102530002404002000280040DD030020DE030020EA
:10254000E0030020E2030020DC030020D803002089
:1025500044030020D40300200008005880B48BB04E
:1025600000AFF860B9603B601346FB71002387F849
:102570002630EFF31083FB61FB693B6272B600BF4C
:1025800004E097F82630013387F8263097F8263094
:10259000052B0CD897F826202C4913465B001344D2
:1025A000DB000B440C331B78DBB2002BE9D197F82E
:1025B0002630062B38D097F82620244913465B0096
:1025C0001344DB000B440C3301221A703B6ABB61DD
:1025D000BB6983F3108800BF97F826201B49134678
:1025E0005B001344DB000B441033FA681A6097F861
:1025F0002620164913465B001344DB000B440D33C1
:10260000FA791A7097F82620104913465B00134494
:10261000DB000B443A681A60BB6897F826201A70F2
:10262000002387F8273008E03B6A7B617B6983F3EE
:10263000108800BF012387F8273097F82730184605
:102640002C37BD465DF8047B704700BF4403002073
:1026500080B586B000AF0346FB71EFF31083FB60DB
:10266000FB687B6172B600BF032008F00CFA344BA4
:102670001B68CA225A62324B1B6853225A62FA798B
:10268000304913465B001344DB000B440C331B78CA
:10269000DBB2022B42D1FB7900211846FFF706FC82
:1026A000294B1B78FB74FB7C062B2FD1274B9B6897
:1026B00003F48063B3F5806F07D100BF204B1B6824
:1026C000DB6803F00403002BF8D11D4B1B689A68EC
:1026D0001B4B1B6822F480629A6000BF184B1B687A
:1026E000DB6803F00403002BF8D0154B1B68DB6894
:1026F000DAB2134B1B6862F49062DA60144B4FF449
:102700000022DA60032008F0E6F907E0114B1B789D
:10271000DBB2FA7C9A4201D0FFF7E4FC084B1B685D
:10272000FF225A62032008F0A0F97B69BB60BB68F6
:1027300083F3108800BF00BF1837BD4680BD00BFBF
:102740002404002044030020D4030020002800407B
:1027500000080058D503002080B586B000AF0346BE
:102760003960FB71FA793B4913465B001344DB0087
:102770000B440C331B78DBB2022B03D1FB791846D8
:10278000FFF766FFEFF31083FB60FB687B6172B6B7
:1027900000BF032008F077F92F4B1B68CA225A624A
:1027A0002D4B1B6853225A62FA792A4913465B0063
:1027B0001344DB000B440C3302221A70FA792549CA
:1027C00013465B001344DB000B4408333A681A607D
:1027D000FA79204913465B001344DB000B440433B1
:1027E0003A681A60FB791846FFF7B6FA03467B820F
:1027F0001A4B1B787B741A4B1B78DBB27A7C9A429B
:1028000002D0FFF76FFC13E0FA79124913465B0020
:102810001344DB000B44083319687B8AFA79C91A20
:102820000C4813465B001344DB0003440833196073
:10283000094B1B68FF225A62032008F016F97B69D6
:10284000BB60BB6883F3108800BF00BF1837BD466C
:1028500080BD00BF4403002024040020D4030020D6
:10286000D503002080B584B000AFF8600B467A60D5
:10287000FB727B68984700BF1037BD4680BD0000E3
:1028800080B582B000AF78607B681B681A46094B40
:102890009A4207D1084B1B68002B05D0064B1B68DA
:1028A000984701E000BF00E000BF00BF0837BD4609
:1028B00080BD00BF00800040E403002080B483B0EE
:1028C00000AF78604FF0B043D3F8903023F0180297
:1028D0004FF0B0417B681343C1F8903000BF0C3714
:1028E000BD465DF8047B704780B485B000AF78606A
:1028F0004FF0B0439A6C4FF0B0417B6813438B6448
:102900004FF0B0439A6C7B681340FB60FB6800BFDC
:102910001437BD465DF8047B704780B485B000AFC6
:1029200078604FF0B043DA6C4FF0B0417B681343EE
:10293000CB644FF0B043DA6C7B681340FB60FB68FC
:1029400000BF1437BD465DF8047B704780B483B088
:1029500000AF78607B68FF225A6200BF0C37BD462B
:102960005DF8047B704780B483B000AF78607B680B
:10297000CA225A627B6853225A6200BF0C37BD4696
:102980005DF8047B704780B483B000AF7860396035
:102990007B689B6823F007023B681A437B689A6058
:1029A00000BF0C37BD465DF8047B704780B500AFB3
:1029B000224B234A1A60214B4FF4E1325A601F4BDD
:1029C00000229A601D4B0022DA601C4B00221A6123
:1029D0001A4B0C225A61194B00229A61174B0022A4
:1029E0001A62164B00225A62144B00229A62134B51
:1029F00000225A6611480CF06FFE0346002B01D0EE
:102A000000F0D9FC00210D480DF077FF0346002BA4
:102A100001D000F0D0FC002108480DF0ACFF0346C7
:102A2000002B01D000F0C7FC04480DF02DFF034639
:102A3000002B01D000F0BFFC00BF80BD3C05002092
:102A40000080004080B500AF07F01CFEFEF714FCCC
:102A500000F028F800F082F800F0A0F800F0A4FCE4
:102A600000F0FEF800F0EAF800F0B4F8FFF79EFF7F
:102A700000F0A8F800F0F4FB00F056FC00F02EFC8B
:102A8000FEF708FC03F01CFFFFF754F805F0EAFE20
:102A90000220FEF767FF002005F00EFFFEF7EFFEB5
:102AA00000BFF8E780B59AB000AF07F120034822D5
:102AB0000021184612F0F6FD3B1D00221A605A60F4
:102AC0009A60DA601A615A619A6109F0E3FB10209A
:102AD000FFF7F4FE204B1B6823F4C0631E4A43F447
:102AE000007313601C4B1B6803F4C0633B603B68BE
:102AF00007233B624FF480337B620123BB624FF4B8
:102B00008073FB6240233B630023FB6407F12003D7
:102B100018460AF019FB0346002B01D000F04BFCCD
:102B20006F237B600223BB600023FB6000233B61BB
:102B300000237B610023BB610023FB613B1D01215E
:102B400018460AF075FE0346002B01D000F033FC56
:102B500000BF6837BD4680BD0004005880B594B002
:102B600000AF3B4650220021184612F09BFD4FF467
:102B700040533B604FF480437B640223BB640023DB
:102B8000FB643B4618460BF090FA0346002B01D03D
:102B900000F011FC00BF5037BD4680BD80B500AFCE
:102BA000064B074A1A60054809F0EEFA0346002B67
:102BB00001D000F000FC00BF80BD00BFE803002092
:102BC000000C005880B400AF00BFBD465DF8047B28
:102BD0007047000080B500AF164B174A1A60154BBE
:102BE00000225A60134B0F229A60124B47F6FF7275
:102BF000DA60104B00221A610E4B00229A610D4BD5
:102C00000022DA610B4B00225A610A480BF0D4FC17
:102C10000346002B01D000F0CEFB0748FFF7A3FED0
:102C200000210548FFF7AFFE0348FFF78FFE00BF06
:102C300080BD00BF240400200028004080B500AF04
:102C40000420FFF751FE0220FFF74EFE00220F2165
:102C50003A2007F0F0FE3A2007F007FF00BF80BDE2
:102C600080B586B000AF3B1D00221A605A609A60A2
:102C7000DA601A610120FFF750FE0420FFF74DFED5
:102C80000220FFF74AFE0820FFF747FE1020FFF75B
:102C900044FE8020FFF741FE00220321BF4808F0D8
:102CA00037FC00224FF44071BD4808F031FC00228F
:102CB0004FF48071BB4808F02BFC00220421BA4875
:102CC00008F026FC00220121B64808F021FC002271
:102CD0004021B34808F01CFC01224021B34808F011
:102CE00017FC012220214FF0904008F011FC3A23FC
:102CF0007B600323BB600023FB603B1D1946A84893
:102D000008F0A0F940F604437B600023BB60002379
:102D1000FB603B1D1946A24808F094F94FF400737C
:102D20007B600223BB600023FB6000233B610A231E
:102D30007B613B1D19469D4808F084F901237B60A7
:102D40000223BB600023FB6000233B6108237B61FF
:102D50003B1D1946924808F075F94FF480737B606B
:102D60001223BB600023FB6000233B6104237B61D3
:102D70003B1D19468D4808F065F94FF481537B607F
:102D80000223BB600023FB6000233B6108237B61BF
:102D90003B1D1946854808F055F94FF400437B6008
:102DA0000223BB600023FB6000233B6101237B61A6
:102DB0003B1D19464FF0904008F044F94FF48063F2
:102DC0007B601223BB600023FB6000233B61042374
:102DD0007B613B1D19464FF0904008F033F94FF4EA
:102DE000C0537B600223BB600023FB6000233B6178
:102DF0000A237B613B1D19464FF0904008F022F9F1
:102E000012237B600023BB600023FB603B1D19463F
:102E1000654808F017F94FF480637B600223BB60BC
:102E20000023FB6000233B6101237B613B1D1946AE
:102E30005E4808F007F904237B600023BB60002391
:102E4000FB603B1D1946594808F0FCF84FF44073ED
:102E50007B600223BB600023FB6000233B610323F4
:102E60007B613B1D19464FF0904008F0EBF8402382
:102E70007B600223BB600023FB6000233B610823CF
:102E80007B613B1D19464FF0904008F0DBF80823AA
:102E90007B600223BB600023FB6000233B610A23AD
:102EA0007B613B1D19464FF0904008F0CBF803239F
:102EB0007B600123BB600023FB6000233B613B1D63
:102EC0001946364808F0BEF84FF440437B600223B1
:102ED000BB600023FB6000233B6101237B613B1D42
:102EE0001946304808F0AEF843F210037B60002327
:102EF000BB600023FB603B1D19462A4808F0A2F87E
:102F00004FF401737B604FF48813BB600023FB60B8
:102F10003B1D1946234808F095F84FF440737B6039
:102F20000123BB600023FB6000233B613B1D19466E
:102F30001B4808F087F868237B600223BB600023EE
:102F4000FB6000233B610A237B613B1D194615484A
:102F500008F078F808237B604FF48813BB600023E7
:102F6000FB603B1D1946104808F06CF84FF4807365
:102F70007B600123BB600023FB6000233B613B1DA2
:102F80001946084808F05EF84FF440637B6002235E
:102F9000BB600023FB6000230AE000BF001C004868
:102FA00000080048000C00480010004800040048D9
:102FB0003B6109237B613B1D1946834808F042F8B9
:102FC00004237B600123BB600023FB6000233B6183
:102FD0003B1D19467D4808F035F801237B6002232C
:102FE000BB600023FB6000233B610E237B613B1D24
:102FF0001946764808F026F801237B600123BB6060
:103000000023FB6000233B613B1D19466E4808F01E
:1030100019F802237B600023BB600223FB603B1D89
:103020001946694808F00EF840237B600123BB6015
:103030000023FB6000233B613B1D1946644808F0F8
:1030400001F840237B600123BB600123FB60012367
:103050003B613B1D19465F4807F0F4FF20237B606E
:103060000123BB600123FB6002233B613B1D19462A
:103070004FF0904007F0E6FF00224FF400414FF080
:10308000904008F045FA012210214FF0904008F0DE
:103090003FFA002202214D4808F03AFA06237B60ED
:1030A0004FF48813BB600023FB603B1D19464FF0B3
:1030B000904007F0C7FF18237B604FF48813BB6074
:1030C0000023FB603B1D1946414807F0BBFF4FF44E
:1030D00080637B600123BB600023FB6000233B61B6
:1030E0003B1D19463A4807F0ADFF48F210037B60DC
:1030F0000123BB600023FB6000233B613B1D19469D
:103100004FF0904007F09EFF4FF480437B60002318
:10311000BB600023FB603B1D19462B4807F092FF64
:1031200002237B600123BB600023FB6000233B6123
:103130003B1D1946254807F085FF40237B6001238E
:10314000BB600023FB6000233B613B1D19464FF031
:10315000904007F077FF20237B604FF48813BB601B
:103160000023FB603B1D19464FF0904007F06AFFBB
:1031700000220521072007F05EFC072007F075FC00
:1031800000220521082007F056FC082007F06DFCFE
:1031900000220521092007F04EFC092007F065FCFC
:1031A000002205210A2007F046FC0A2007F05DFCFA
:1031B00000220521172007F03EFC172007F055FCE0
:1031C00000BF1837BD4680BD000C00480010004805
:1031D000000800480004004880B582B000AF786065
:1031E00039601D4B1D4A1A601B4B4FF482725A60A6
:1031F000194B00229A60184B4FF4E062DA60164BCC
:1032000000221A61144B00225A61134B4FF40072D2
:103210009A61114B0022DA610F4B00221A620E4BA9
:1032200000225A620C4B00229A620B4B0722DA6290
:10323000094B00221A63084B08225A6306480BF018
:10324000F1FA0346002B01D000F0B5F800BF184694
:103250000837BD4680BD00BF300600200030014069
:1032600080B500AF1B4B1C4A1A601A4B4FF4827298
:103270005A60184B00229A60164B4FF4E062DA60F5
:10328000144B00221A61134B00225A61114B4FF468
:1032900000729A610F4B2022DA610E4B00221A62F3
:1032A0000C4B00225A620B4B00229A62094B0722F8
:1032B000DA62084B00221A63064B08225A6305485B
:1032C0000BF0B0FA0346002B01D000F074F800BFF9
:1032D00080BD00BF940600200038004080B500AFDC
:1032E0000F4B104A1A600E4B02225A600C4B0122FF
:1032F0009A600B4B0022DA60094B17221A61084BC7
:1033000000225A61064B00229A61054808F0E0FF4E
:103310000346002B01D000F04EF800BF80BD00BF77
:10332000F8060020001000A080B500AF1B4B1C4A1F
:103330001A601A4B1B4A5A60184B00229A60174BAE
:103340000122DA60154B00221A61144B00225A61E7
:10335000124B00229A61114B0022DA610F4B0022BE
:103360001A620E4808F028F90346002B01D000F03D
:1033700022F80021094808F06FFE0346002B01D017
:1033800000F019F80021054808F0B1FE0346002BB3
:1033900001D000F010F800BF80BD00BF3C07002046
:1033A00000540040B57DB11080B400AF00BFBD46F1
:1033B0005DF8047B704780B400AF72B600BF00BFF9
:1033C000FDE780B483B000AF78604FF0B043D3F82E
:1033D000903023F440724FF0B0417B681343C1F842
:1033E000903000BF0C37BD465DF8047B704780B459
:1033F00000AF4FF0B043D3F890304FF0B04243F4F9
:103400000043C2F8903000BFBD465DF8047B7047B2
:1034100080B485B000AF78604FF0B043DA6C4FF005
:10342000B0417B681343CB644FF0B043DA6C7B68E8
:103430001340FB60FB6800BF1437BD465DF8047B9A
:10344000704780B485B000AF78604FF0B0431A6D1C
:103450004FF0B0417B6813430B654FF0B0431A6DDA
:103460007B681340FB60FB6800BF1437BD465DF806
:10347000047B704780B485B000AF78604FF0B043F4
:103480009A6D4FF0B0417B6813438B654FF0B043AA
:103490009A6D7B681340FB60FB6800BF1437BD4624
:1034A0005DF8047B704780B485B000AF78604FF062
:1034B000B043DA6D4FF0B0417B681343CB654FF0FA
:1034C000B043DA6D7B681340FB60FB6800BF1437C4
:1034D000BD465DF8047B704780B485B000AF78606E
:1034E0004FF0B0431A6E4FF0B0417B6813430B6648
:1034F0004FF0B0431A6E7B681340FB60FB6800BF5F
:103500001437BD465DF8047B704780B500AF4FF4BB
:103510000020FFF796FF002200212E2007F08BFAF3
:103520002E2007F0A2FA00BF80BD000080B582B057
:1035300000AF78607B681B68054A934203D14FF463
:103540008010FFF77EFF00BF0837BD4680BD00BF7B
:10355000000C005880B596B000AF786007F1080302
:1035600050220021184612F09DF87B681B68144A0F
:10357000934220D108F08EFE08F08CFE4FF480704C
:10358000FFF71FFF4FF40063BB604FF48073BB6411
:1035900007F1080318460AF088FD0346002B01D006
:1035A000FFF709FFFFF723FF4FF48060FFF762FF8B
:1035B00078680BF001F900BF5837BD4680BD00BFE9
:1035C0000028004080B59CB000AF786007F15C0334
:1035D00000221A605A609A60DA601A6107F10C03DF
:1035E00050220021184612F05DF87B681B685C4A87
:1035F000934256D10123FB6000237B6207F10C0349
:1036000018460AF052FD0346002B01D0FFF7D3FE07
:103610004FF48040FFF760FF0220FFF7F9FEC02360
:10362000FB6502233B6601237B660323BB660723FE
:10363000FB6607F15C0319464A4807F003FD4A4B55
:103640004A4A1A60484B0F225A60474B10229A6030
:10365000454B0022DA60444B80221A61424B002223
:103660005A61414B00229A613F4B0022DA613E4B86
:1036700000221A623C4807F03DFA0346002B01D0B5
:10368000FFF799FE7B68384ADA67374A7B689362AE
:1036900000220021242007F0CEF9242007F0E5F9CC
:1036A00059E07B681B68324A934254D10223FB6085
:1036B0000023BB6207F10C0318460AF0F6FC034630
:1036C000002B01D0FFF777FE0120FFF7ECFE04206E
:1036D000FFF79EFE0323FB6502233B6600237B6608
:1036E0000023BB660823FB6607F15C0319462148EB
:1036F00007F0A8FC204B214A1A601F4B11225A6088
:103700001D4B10229A601C4B0022DA601A4B80225B
:103710001A61194B00225A61174B00229A61164B0D
:103720000022DA61144B00221A62134807F0E2F912
:103730000346002B01D0FFF73EFE7B680E4ADA6796
:103740000D4A7B68936200220021252007F073F95F
:10375000252007F08AF900BF7037BD4680BD00BF45
:103760000038014000040048DC040020440402400A
:103770000080004000080048D005002044000240BE
:1037800080B588B000AF786007F10C0300221A60A2
:103790005A609A60DA601A617B681B681D4A93421E
:1037A00017D14FF48050FFF797FE0220FFF730FE4D
:1037B0003823FB6002233B6100237B610223BB6152
:1037C0000523FB6107F10C031946134807F03AFC87
:1037D0001CE07B681B68114A934217D14FF480406C
:1037E000FFF748FE0220FFF713FE4FF46043FB6033
:1037F00002233B6100237B610023BB610523FB6146
:1038000007F10C031946044807F01CFC00BF2037E1
:10381000BD4680BD00300140000400480038004033
:1038200080B588B000AF786007F10C0300221A6001
:103830005A609A60DA601A617B681B68224A934278
:103840003ED14FF48070FFF7FCFD0220FFF7E0FD52
:103850000120FFF7DDFD0820FFF7DAFD4FF40073CC
:10386000FB6002233B6100237B610023BB610A23D1
:10387000FB6107F10C031946144807F0E3FB08232A
:10388000FB6002233B6100237B610023BB610A23B1
:10389000FB6107F10C0319464FF0904007F0D2FB93
:1038A000E823FB6002233B6100237B610023BB61B3
:1038B0000A23FB6107F10C031946054807F0C2FB18
:1038C00000BF2037BD4680BD001000A000040048A6
:1038D000000C004880B59CB000AF786007F15C0335
:1038E00000221A605A609A60DA601A6107F10C03CC
:1038F00050220021184611F0D5FE7B681B68174A3C
:10390000934226D10423FB604FF44033FB6207F15E
:103910000C0318460AF0C9FB0346002B01D0FFF741
:103920004AFD0220FFF774FD4FF4C073FB651223BC
:103930003B6600237B660023BB660423FB6607F11E
:103940005C031946064807F07DFB4FF40010FFF7B3
:1039500091FD00BF7037BD4680BD00BF00540040E0
:103960000004004880B400AF00BFFDE780B400AFA2
:1039700000BFFDE780B400AF00BFFDE780B400AF3B
:1039800000BFFDE780B400AF00BFFDE780B400AF2B
:1039900000BFBD465DF8047B704780B400AF00BF38
:1039A000BD465DF8047B704780B400AF00BFBD46E4
:1039B0005DF8047B704780B500AF06F0BDFE00BF28
:1039C00080BD000080B500AF02480BF063FF00BF70
:1039D00080BD00BF4804002080B500AF07F0C8FDDF
:1039E00000BF80BD80B500AF024807F0E9F900BF15
:1039F00080BD00BFDC04002080B500AF01F03EFDBB
:103A000000BF80BD80B500AF01F06EFD00BF80BD7E
:103A100080B500AF4FF4805007F092FD4FF4005096
:103A200007F08EFD00BF80BD80B500AFFEF7F4FB50
:103A300000BF80BD80B500AF06F000F800BF80BDBC
:103A400080B500AF022007F07BFD00BF80BD80B5D0
:103A500000AF042007F074FD00BF80BD80B500AF4B
:103A6000082007F06DFD00BF80BD80B500AF1020BD
:103A700007F066FD00BF80BD80B500AF202007F0D5
:103A80005FFD00BF80BD80B400AF01231846BD4676
:103A90005DF8047B704780B582B000AF7860396014
:103AA00011F078FE034616221A604FF0FF331846D5
:103AB0000837BD4680BD80B582B000AF78604FF05A
:103AC000FF317868FFF7E7FF00BFFDE780B586B0FC
:103AD00000AFF860B9607A6000237B610AE0AFF361
:103AE00000800146BB685A1CBA60CAB21A707B6972
:103AF00001337B617A697B689A42F0DB7B68184608
:103B00001837BD4680BD80B483B000AF78604FF0F9
:103B1000FF3318460C37BD465DF8047B704780B410
:103B200083B000AF786039603B684FF400525A6050
:103B3000002318460C37BD465DF8047B704780B4FF
:103B400083B000AF7860012318460C37BD465DF89E
:103B5000047B704780B485B000AFF860B9607A60CC
:103B6000002318461437BD465DF8047B70470000FB
:103B700080B586B000AF7860144A154BD31A7B61CC
:103B80007B693B61134B1B68002B02D1114B124A1E
:103B90001A60104B1A687B6813443A699A4207D23C
:103BA00011F0F8FD03460C221A604FF0FF3309E0D4
:103BB000084B1B68FB60074B1A687B681344054A77
:103BC0001360FB6818461837BD4680BD000003200F
:103BD0000010000090070020803A002080B400AF61
:103BE000034B1B681846BD465DF8047B704700BF59
:103BF0008075FF1F80B400AF034B1B68DBB2184613
:103C0000BD465DF8047B70478475FF1F80B400AF2C
:103C1000034B1B681B0A1846BD465DF8047B7047C2
:103C20008475FF1FF0B5B1B004AF07F19403C7F876
:103C3000AC309E4B3C1D1D460FCD0FC40FCD0FC4A5
:103C40000FCD0FC495E8070003C4228000F024FEC6
:103C50000121022010F084FB954A0021042010F07D
:103C6000ABFC3B1D18460EF0AFFF034687F8AB30A8
:103C700097F8AB30002B12D08E480EF02DFA01468B
:103C800040F24F138C4A8D4811F08CFB97F8AB3003
:103C900019468B4811F086FBFFF78DFB0CE0854839
:103CA0000EF01AFA014640F25513834A834811F088
:103CB00079FB844811F0E6FB00F004FE0FF034FDC0
:103CC000814B002283F880207F4B4FF6FF72DA820F
:103CD0007E4A0021012010F06FFC01F081FA7C4B3C
:103CE0008922DA707B4B00227B490020FEF736FCEC
:103CF000754B02225A76744B01221A7641F60D005A
:103D000001F0DAF9754B80221A80754BA0221A80D7
:103D1000012001F08BF8D7F8AC000EF099FF0346B4
:103D2000002B40F0928001F083F9C7F8A400D7F887
:103D3000A43005331B781D46D7F8A43004331B7814
:103D40001E46D7F8A43003331B781A46D7F8A430A0
:103D500002331B781946D7F8A43001331B781C4670
:103D6000D7F8A4301B7807F18000039302940191E7
:103D7000009233462A465B4911F08CFBD7F8AC30F1
:103D80001B781A46D7F8AC305B781946D7F8AC30B8
:103D90009B7807F1680000930B46534911F07AFBBA
:103DA000D7F8AC30DB781A46D7F8AC301B7907F17E
:103DB00054004E4911F06EFBD7F8AC309B7A1A468E
:103DC000D7F8AC30DB7A1946D7F8AC301B7B07F15B
:103DD000400000930B46464911F05CFB0021002097
:103DE00006F01AFA002006F0EFF807F1800203232C
:103DF0000021002010F09AF810F036F80346DB8816
:103E0000194607F168020323002010F08FF810F024
:103E10002BF80346DB885B00194607F154020323A5
:103E2000002010F083F810F01FF80346DB881A46D4
:103E300013465B001344194607F140020323002098
:103E400010F074F8002006F0BFF84FF47A60FDF728
:103E5000F1FC0021002006F0DFF9002006F0B4F8A4
:103E60000123244A0021002010F060F80FF0FCFF2D
:103E70000346DB88194607F180020323002010F077
:103E800055F80FF0F1FF0346DB881A4613465B0036
:103E9000134419460323184A002010F047F8002065
:103EA00006F092F800BFB437BD46F0BD707C010843
:103EB00071220108F47A010808990108807B010841
:103EC000987B0108D07B01089C0700202151000845
:103ED0000C000020115100081D08002020080020BF
:103EE00022080020F87B0108187C01082C7C0108BE
:103EF000407C0108507C0108647C0108F0B597B053
:103F000004AF7860922387F847307B6801333B64C5
:103F10003B6C1B78FF2B00F04C82FF2B00F31884C6
:103F2000052B04D03E2B00F0878000F011BC3B6CC9
:103F300002333B623B6AB3F801309AB2A84BDB8A8A
:103F40009A4228D1A64B0022DA82A54B002283F8A0
:103F50008020A4480EF0C0F8014640F2DB13A24ACC
:103F6000A24811F01FFAA24811F08CFA9D480EF0F9
:103F7000B3F801464FF4EE739B4A9C4811F012FAD5
:103F80003B6AB3F801309BB219463B6ADB781A46AC
:103F9000984811F007FA01F04BF878627B6A053314
:103FA0001B781D467B6A04331B781E467B6A0333ED
:103FB0001B781A467B6A02331B7819467B6A0133E9
:103FC0001B781C467B6A1B7807F108000393029458
:103FD0000191009233462A46874911F05BFA00218D
:103FE000002006F019F9002005F0EEFF0123834AB6
:103FF000002100200FF09AFF0FF036FF0346DB8808
:10400000194607F10802032300200FF08FFF0FF07D
:104010002BFF0346DB881A4613465B001344194600
:104020000323774A00200FF081FF002005F0CCFF2A
:10403000012000F0FBFE8EE33B6C02337B637B6B65
:104040001B780C2B48D00C2B00F3B181012B00F016
:10405000EB80032B40F0AB817B6B0133FB6261484B
:104060000EF03AF8014640F205235F4A5F4811F02E
:1040700099F9644811F006FA5A480EF02DF80146F5
:1040800040F20623584A594811F08CF9FB6AB3F8FC
:1040900003309BB21846FCF71DFA4FF000025A4B52
:1040A000FCF782FA02460B4610461946FB6AB3F843
:1040B00005309BB21C46FB6AB3F807309BB21A4628
:1040C00013469B0013445B000193009402460B4689
:1040D0004E4811F067F96BE17B6B01333B6341485C
:1040E0000DF0FAFF014640F213233F4A3F4811F01A
:1040F00059F9474811F0C6F93B6B1B78002B0DD1DD
:1041000038480DF0E9FF014640F21623364A374899
:1041100011F048F93F4811F0B5F90CE031480DF0C5
:10412000DBFF014640F21A232F4A304811F03AF9DA
:10413000394811F0A7F92A4BDB8A07F11E0207F173
:104140001F0118460DF078FE034687F8473097F8B0
:104150004730002B0DD023480DF0BEFF01464FF431
:104160000873214A214811F01DF92C4811F08AF9F1
:104170001EE11C480DF0B0FF01464FF409731A4AC6
:104180001A4811F00FF9264811F07CF9FB7F022B39
:1041900014D1BB7F022B11D112480DF09DFF0146B7
:1041A0004FF40A73104A114811F0FCF8FB7F1946CE
:1041B000BB7F1A461B4811F0F5F8F9E009480DF0ED
:1041C0008BFF01464FF40B73074A084811F0EAF8D9
:1041D000FB7F1946BB7F1A46124811F0E3F8E7E06F
:1041E0009C070020F47A010818990108807B0108D7
:1041F000AC7C0108D87C0108F87B0108507C0108E0
:10420000647C0108147D01080000F43F4C7D010826
:10421000BC7D0108EC7D0108FC7D01080C7E0108D5
:104220002C7E0108507E01087B6B0133BB62AC4BD6
:1042300093F881301846FEF70BFAAA480DF04CFFB0
:10424000014640F23D23A84AA84811F0ABF8BB6AEA
:10425000B3F801309BB21946A54811F0A3F8A14864
:104260000DF03AFF014640F23E239F4A9F4811F06D
:1042700099F8BB6A9B7A1846BB6A5B7A1C46BB6A94
:104280001B7A1D46BB6ADB791A46BB6A9B791946C5
:10429000BB6A5B790293019100922B46224601464C
:1042A000944811F07FF88F480DF016FF014640F258
:1042B00045238D4A8D4811F075F8BB6AB3F80B3071
:1042C0009BB21846FCF706F94FF000028A4BFCF748
:1042D0006BF902460B4610461946BB6AB3F80D301F
:1042E0009BB21C46BB6AB3F80F309BB21A4613460A
:1042F0009B0013445B000193009402460B467F48E9
:1043000011F050F8764B93F88030042B04D1744BA5
:10431000062283F8802003E0714B052283F8802079
:10432000BB6AB3F801309AB26D4BDA8200F080FEBE
:1043300078627B6A05331B781D467B6A04331B78E1
:104340001E467B6A03331B781A467B6A02331B784E
:1043500019467B6A01331B781C467B6A1B7807F180
:104360000800039302940191009233462A4664495F
:1043700011F090F80FF078FD0346DB88194607F13D
:104380000802032300200FF0D1FD0FF06DFD03465E
:10439000DB881A4613465B00134419460323594A27
:1043A00000200FF0C3FD002005F00EFE00E000BF6E
:1043B000D1E13B6C0233FB63FB6B1B889BB240F289
:1043C0000A42934222DCB3F5806FC0F2C381A3F5A9
:1043D00080630A2B00F2BE8101A252F823F000BFD5
:1043E000194400088746000835440008A74400081F
:1043F000C344000825450008554700080D4700083C
:1044000095450008CD450008B145000840F60E422C
:10441000934200F089819DE132480DF05DFE014636
:104420004FF41E73304A314810F0BCFF364811F08B
:1044300029F88CE12B480DF04FFE01464FF41F7315
:10444000294A2A4810F0AEFF304811F01BF8244BDF
:10445000DB8A2F4918460CF051FD034687F8473098
:1044600097F84730002B10D01E480DF035FE01465E
:1044700040F281231C4A1D4810F094FF97F8473002
:104480001946244810F08EFF61E116480DF024FE15
:10449000014640F28523144A144810F083FF1E4859
:1044A00010F0F0FF53E10F480DF016FE014640F208
:1044B0008A230D4A0D4810F075FF184810F0E2FFEE
:1044C00045E108480DF008FE014640F28E23064AF9
:1044D000064810F067FF124810F0D4FF37E100BF24
:1044E0009C070020F47A010818990108807B0108D4
:1044F000747E0108C07E01080000F43F4C7D010875
:10450000F87B0108107F01081C7F01084C7F01081F
:1045100040E20100747F0108A87F0108D07F0108F4
:10452000FC7F01088E480DF0D7FD014640F2922332
:104530008C4A8D4810F036FF8C4810F0A3FF8C4B4E
:10454000DB8A18460CF0FFFE034687F8473097F8E1
:104550004730002B10D082480DF0BEFD014640F2DE
:104560009623804A804810F01DFF97F8473019467F
:10457000804810F017FFEAE079480DF0ADFD0146E4
:1045800040F29A23774A784810F00CFF7A4810F0EE
:1045900079FFDCE072480DF09FFD014640F29F2359
:1045A000704A714810F0FEFE744810F06BFFCEE0C8
:1045B0006B480DF091FD014640F2A323694A6A4819
:1045C00010F0F0FE6E4810F05DFFC0E064480DF0A2
:1045D00083FD014640F2A723624A634810F0E2FEE1
:1045E000684810F04FFF5E480DF076FD01464FF42D
:1045F0002A735C4A5C4810F0D5FEFB6B0233D3F89B
:1046000002301946604810F0CDFE55480DF064FDAB
:10461000014640F2AA23534A534810F0C3FEFB6BF5
:104620000233D3F802301946584810F0BBFE504B05
:10463000DB8A012118460CF0DAFE034687F8473082
:1046400097F84730002B10D045480DF045FD014646
:1046500040F2AF23434A444810F0A4FE97F8473095
:1046600019464B4810F09EFE71E03D480DF034FDB8
:10467000014640F2B3233B4A3B4810F093FE4548C5
:1046800010F000FF63E0FB6B0233BB6334480DF0B6
:1046900023FD014640F2BB23324A334810F082FE2C
:1046A0003D4810F0EFFEBB6B9B78002B0DD12C48E2
:1046B0000DF012FD014640F2BE232A4A2A4810F0AE
:1046C00071FE364810F0DEFE12E025480DF004FDC4
:1046D000014640F2C223234A234810F063FEBB6B1D
:1046E0009B781946BB6BDB781A462D4810F05AFEB2
:1046F0001B480DF0F1FC01464FF43173194A1A487A
:1047000010F050FE274810F0BDFE20E014480DF0D8
:10471000E3FC014640F2CA23124A134810F042FE5D
:10472000214810F0AFFE12E00D480DF0D5FC014617
:1047300040F2D2230B4A0C4810F034FE1B4810F014
:10474000A1FE0B4BDB8A18460DF064F900BF01E0B7
:1047500000BF00E000BF012318464C37BD46F0BD46
:10476000F47A010818990108807B01083880010853
:104770009C0700206080010894800108BC8001082B
:10478000EC8001081C81010850810108708101083A
:104790008C810108E0810108288201085482010807
:1047A00070820108B0820108B4820108E082010829
:1047B00080B582B000AF9223FB710CF0A0FD0346E0
:1047C000FB71FB79002B0FD010480DF085FC0146E2
:1047D0004FF43E730E4A0F4810F0E4FDFB79194682
:1047E0000D4810F0DFFD0CE008480DF075FC0146A7
:1047F0004FF43F73064A074810F0D4FD074810F005
:1048000041FE00BF0837BD4680BD00BFF47A0108F5
:1048100030990108807B0108088301084083010862
:1048200080B582B000AF9223FB71154BDB8A18462E
:104830000CF078FC0346FB71FB79002B0FD011487C
:104840000DF04AFC01464FF442730F4A0F4810F036
:10485000A9FDFB7919460E4810F0A4FD0CE00948AB
:104860000DF03AFC01464FF44373074A074810F035
:1048700099FD084810F006FE00BF0837BD4680BD10
:104880009C070020F47A01084C990108807B0108FC
:104890006C830108A483010880B582B000AF064B89
:1048A0003B60064B7B603B46194605480DF0C4FC57
:1048B00000BF0837BD4680BD28000320AB5100086B
:1048C00073510008F0B58DB006AF4FF450733B80C4
:1048D0009223FB75B1480DF0FFFB014640F22D33EA
:1048E000AF4AB04810F05EFDAF4810F0CBFD0DF0C0
:1048F0007FFA0346FB75FB7D002B0FD0A7480DF018
:10490000EBFB014640F23633A54AA64810F04AFDBB
:10491000FB7D1946A54810F045FD0CE09F480DF0C1
:10492000DBFB014640F23A339D4A9E4810F03AFDC7
:104930009F4810F0A7FD00F07BFB38613A69062123
:1049400000200DF069F90346FB75FB7D002B0FD0AD
:1049500092480DF0C1FB01464FF45173904A9148C3
:1049600010F020FDFB7D1946924810F01BFD35E04C
:104970008A480DF0B1FB01464FF45273884A8948CA
:1049800010F010FD8C4810F07DFD84480DF0A4FB64
:10499000014640F24933824A824810F003FD3B69E8
:1049A00005331B7818463B6904331B781C463B696A
:1049B00003331B781D463B6902331B781A463B695B
:1049C00001331B7819463B691B78029301910092D1
:1049D0002B4622460146794810F0E4FC3B6905333A
:1049E0001A78774B1A723B6904331A78744B5A72EF
:1049F0003B6903331A78724B9A723B6902331A7817
:104A00006F4BDA723B6901331A786D4B1A733B694D
:104A10001A786B4B5A736B4A102118200DF0FCF872
:104A20000346FB75FB7D002B0FD05C480DF054FB5B
:104A3000014640F27D335A4A5A4810F0B3FCFB7DE0
:104A40001946614810F0AEFC0CE054480DF044FBF0
:104A5000014640F28133524A524810F0A3FC5B48B1
:104A600010F010FD5A4A102108200DF0D5F8034629
:104A7000FB75FB7D002B0FD048480DF02DFB014648
:104A800040F28A33464A474810F08CFCFB7D1946B9
:104A9000504810F087FC0CE040480DF01DFB01462B
:104AA00040F28E333E4A3F4810F07CFC4A4810F0FA
:104AB000E9FC182101200DF034F90346FB75FB7D5C
:104AC000002B0FD035480DF007FB014640F297331D
:104AD000334A344810F066FCFB7D19463F4810F01D
:104AE00061FC0CE02D480DF0F7FA014640F29B33D3
:104AF0002B4A2C4810F056FC394810F0C3FC0CF03F
:104B0000DDFC0346FB75FB7D002B0FD023480DF029
:104B1000E3FA01464FF46973214A224810F042FC3F
:104B2000FB7D19462F4810F03DFC0CE01B480DF0B2
:104B3000D3FA01464FF46A73194A1A4810F032FC4E
:104B4000294810F09FFC0023FB73FB7B43F001031B
:104B5000FB73FB7B002B6BD0244BBB60BA1DF87B37
:104B6000BB1C01933B1D00931346072200210CF050
:104B70002CFA0346FB75FB7D002B3BD007480DF05C
:104B8000ABFA01464FF47273054A064810F00AFC6E
:104B9000FB7D1946164810F005FC38E0F47A010850
:104BA00068990108807B0108D4830108008401080A
:104BB0003084010850840108AC840108F88401089D
:104BC0000C000020E0980108388501089085010854
:104BD000F0980108D8850108308601087886010818
:104BE000B8860108E88601081C870108408701088B
:104BF000488701087E480DF06FFA01464FF4737341
:104C00007C4A7D4810F0CEFB7C4810F03BFCFC88D1
:104C1000BD88B868FBF704FB0346DAB2BB680093B3
:104C200013460022294620460CF04BFE0346FB7536
:104C3000F88879883B460093022300220CF041FE5D
:104C40000346FB750222022100200DF073F9034692
:104C5000FB75FB7D002B0FD065480DF03DFA01463A
:104C600040F2EE33634A644810F09CFBFB7D19462A
:104C7000634810F097FB0CE05D480DF02DFA0146FB
:104C800040F2F2335B4A5C4810F08CFB5D4810F058
:104C9000F9FB5D4B01221A705B4B1B7818460CF038
:104CA00015F80346FB75FB7D002B0FD050480DF027
:104CB00013FA01464FF47F734E4A4F4810F072FBCF
:104CC000FB7D1946514810F06DFB0CE048480DF093
:104CD00003FA01464FF48063464A474810F062FBEE
:104CE0004B4810F0CFFB484B01225A70464B08222C
:104CF0001A71454B10225A71434B0022DA70424B15
:104D0000444A9A60404B01229A703F4B9C783E4B3C
:104D10005D783D4B1B793C4A52793B49C9783A480A
:104D2000806800260496039002910192009300236C
:104D30000122294620460CF01DF80346FB75FB7D39
:104D4000002B0FD02A480DF0C7F9014640F21B4353
:104D5000284A294810F026FBFB7D19462E4810F002
:104D600021FB0CE022480DF0B7F9014640F21F4349
:104D7000204A214810F016FB284810F083FB224BF4
:104D80009B78002B23D00CF096FA0346FB75FB7D35
:104D9000002B0FD016480DF09FF9014640F22A4330
:104DA000144A154810F0FEFAFB7D19461C4810F015
:104DB000F9FA0CE00E480DF08FF9014640F22E434F
:104DC0000C4A0D4810F0EEFA164810F05BFB08484C
:104DD0000DF082F9014640F23143064A064810F0D0
:104DE000E1FA114810F04EFB00BF1C37BD46F0BD84
:104DF000F47A010868990108807B01087C87010822
:104E0000A0870108DC8701089C07002008880108AA
:104E10004888010807B2010078880108C4880108A1
:104E200000890108448901087889010880B58CB09F
:104E300008AF0346FB719223FB72FB79012B06D16D
:104E4000694B1B88FB81694B1B88BB8105E04FF4D4
:104E5000C863FB814FF47A63BB81654B93F8813063
:104E60001846FDF7F5FBFB79022B2DD1604B93F82B
:104E70008030012B04D05E4B93F88030022B23D17D
:104E80000BF006FE0346FB72FB7A002B0FD059484D
:104E90000DF022F9014640F25243574A574810F0AC
:104EA00081FAFB7A1946564810F07CFA0CE051481A
:104EB0000DF012F9014640F256434F4A4F4810F0A8
:104EC00071FA504810F0DEFA494AFB7982F88030D6
:104ED000474B1B7EBA89F989002006900020059077
:104EE000494804900393494B0293072301930023FD
:104EF0000093002300200BF0EFFD0346FB72FB7ACA
:104F0000002B0FD03B480DF0E7F8014640F2694313
:104F1000394A3A4810F046FAFB7A19463C4810F0F4
:104F200041FA0CE033480DF0D7F8014640F26D43EA
:104F3000314A324810F036FA364810F0A3FA3649B2
:104F40000E200CF046F90346FB72FB7A002B22D0B0
:104F5000FB79012B0FD127480DF0BEF8014640F236
:104F60007643254A254810F01DFAFB7A19462B484E
:104F700010F018FA35E01F480DF0AEF8014640F287
:104F80007A431D4A1D4810F00DFAFB7A1946244851
:104F900010F008FA25E0FB79012B14D115480DF02B
:104FA0009BF8014640F28143134A144810F0FAF985
:104FB0001C4810F067FA0E4B93F881301A491846D6
:104FC000FDF7CAFB0DE00B480DF086F8014640F2F4
:104FD0008743094A094810F0E5F9144810F052FADD
:104FE00000BF1037BD4680BD2008002022080020E9
:104FF0009C070020F47A010880990108807B010851
:10500000A4890108F4890108B50700200099010866
:105010003C8A0108748A01080C000020A08A01085B
:10502000D88A0108148B010846E00100408B010872
:1050300080B586B000AFFEF7D1FD38613B69B3F1B2
:10504000FF3F23D0FEF7E2FDB860FEF7D3FD7860A6
:105050003B69DAB2164B1A703B691B0ADAB2144B81
:105060005A707B68DAB2124B9A70BB68DAB2104B96
:10507000DA70BB681B0ADAB20D4B1A71BB681B0CE5
:10508000DAB20B4B5A710A4B7B610BE000200DF03A
:1050900073FDF860FB68002B02D0FB687B6101E0C8
:1050A000044B7B617B6918461837BD4680BD00BF45
:1050B00094070020D898010880B483B000AF03465D
:1050C000FB80124B1B7E1946FB88DAB20F4B0B4458
:1050D0005A760E4B1B7E0133DAB20C4B1A76FB88E4
:1050E0001B0A9AB2094B1B7E1946D2B2074B0B44DE
:1050F0005A76064B1B7E0133DAB2044B1A7600BF98
:105100000C37BD465DF8047B704700BF9C0700204C
:1051100080B500AF002101200FF070FA00BF80BD04
:1051200080B500AF0220FFF781FE00BF80BD80B5D3
:1051300082B000AF7860002104200FF05FFA00BF5A
:105140000837BD4680BD80B582B000AF78600120D1
:105150000FF0C0FA00BF0837BD4680BD80B582B0F1
:1051600000AF786001200FF0D5FA00BF0837BD46C8
:1051700080BD80B584B000AF78607B68FB60FB6861
:105180005B68083318460EF021FB0346FB72FB7A7E
:10519000002B03D0FB6801221A7003E0FB68002299
:1051A0001A7000BF1037BD4680BD80B584B000AF17
:1051B0000346FB71FB79002B02D0012B06D00BE0DC
:1051C0003F23FB60F8680FF045FA05E03F23FB60E2
:1051D000F8680FF05FFA00BF00BF1037BD4680BD12
:1051E00080B582B000AF074B3B6004233B713B4668
:1051F000194642F629200CF0F9FF00BF0837BD46DA
:1052000080BD00BF708B010880B582B000AF7860B0
:105210007B681B78022B1AD0022B1EDC002B02D0DD
:10522000012B07D019E00F4B00229A800D4B012271
:105230001A7313E00B4B5B7B1846FDF709FA094B19
:105240005B7B40F601011846FDF786FA06E0054B48
:105250005B7B1846FDF7FCF900E000BF00BF083794
:10526000BD4680BD2408002080B400AF054BDB683C
:10527000044A43F40043D36000BFBD465DF8047B9D
:10528000704700BF0004005880B483B000AF78605E
:10529000064BD3F8D42005497B681343C1F8D430BA
:1052A00000BF0C37BD465DF8047B7047000800580E
:1052B00080B483B000AF7860054B1A6A04497B68FC
:1052C00013430B6200BF0C37BD465DF8047B70478B
:1052D0000008005880B485B000AF78604FF0B0434C
:1052E0001A6D4FF0B0417B6813430B654FF0B0432C
:1052F0001A6D7B681340FB60FB6800BF1437BD4626
:105300005DF8047B704780B485B000AF78604FF0E3
:10531000B043D3F850214FF0B0417B681343C1F83C
:1053200050314FF0B043D3F850217B681340FB60FD
:10533000FB6800BF1437BD465DF8047B704780B43E
:1053400083B000AF78607B681B6843F480327B6871
:105350001A6000BF0C37BD465DF8047B704780B40F
:1053600083B000AF78607B681B6843F001027B6804
:105370001A6000BF0C37BD465DF8047B704780B4EF
:1053800083B000AF786039607B685A683B681B0463
:10539000DB431A407B685A6000BF0C37BD465DF89E
:1053A000047B704780B483B000AF786039607B685D
:1053B0005A683B681B041A437B685A6000BF0C376D
:1053C000BD465DF8047B704780B483B000AF786061
:1053D00039607B685A683B68DB431A407B685A60D7
:1053E00000BF0C37BD465DF8047B704780B483B0C6
:1053F00000AF786039607B683A689A6000BF0C370C
:10540000BD465DF8047B704780B483B000AF786020
:1054100039603B681A047B689A6000BF0C37BD4650
:105420005DF8047B704780B483B000AF786039606A
:105430007B68DA683B6813403A689A4201D10123DD
:1054400000E0002318460C37BD465DF8047B70472A
:1054500080B483B000AF786039607B68DA693B68FC
:1054600013403A689A4201D1012300E00023184614
:105470000C37BD465DF8047B7047000080B500AF77
:1054800002211848FFF7E4FF0346002B08D0154B14
:105490005B6803F00203002B02D100F0D5F81EE098
:1054A00001211048FFF7D4FF0346002B08D00D4B15
:1054B0005B6803F00103002B02D100F089F80EE0D5
:1054C00008210848FFF7C4FF0346002B08D0054B0E
:1054D0005B6803F00803002B02D100F001F900BF64
:1054E00000BF80BD000C005880B500AF02211848F5
:1054F000FFF799FF0346002B08D1154B5B6803F4B7
:105500000033002B02D100F093F81EE00821104870
:10551000FFF789FF0346002B08D10D4B5B6803F4AE
:105520000023002B02D100F0BDF80EE02021084836
:10553000FFF779FF0346002B08D1054B5B6803F4A6
:105540000013002B02D100F04FF800BF00BF80BD58
:10555000000C005880B500AF4FF48010FFF7D3FE69
:105560004FF40070FFF7A4FE4FF40070FFF78CFEBD
:1055700040BF20BFFFF778FE00BF80BD80B500AF01
:105580004FF48010FFF7A6FE0648FFF7E8FE054837
:10559000FFF7D5FE2C2005F068FA2D2005F065FAFE
:1055A00000BF80BD000C005880B500AF012102484B
:1055B000FFF70AFF00BF80BD000C005880B500AFA8
:1055C00001210248FFF720FF00BF80BD000C0058FA
:1055D00080B500AF0EF0DEF901210248FFF706FFAB
:1055E00000BF80BD000C005880B500AF20210348EB
:1055F000FFF7D8FE0EF0FEF900BF80BD000C00588A
:1056000080B500AF02210248FFF7DEFE00BF80BD7B
:10561000000C005880B500AF02210448FFF7F4FEEB
:1056200002210248FFF7ABFE00BF80BD000C00580E
:1056300080B500AF02210348FFF7B4FE0EF02AFA4E
:1056400000BF80BD000C005880B500AF0EF038FAE6
:1056500002210248FFF7CAFE00BF80BD000C0058BF
:1056600080B582B000AF786008210C48FFF7DBFE00
:105670000346002B07D00A4A7B68136008210748BD
:10568000FFF77DFE06E07B68984708210348FFF797
:10569000BBFE00BF0837BD4680BD00BF000C0058F0
:1056A0003408002080B500AF08210648FFF77AFED5
:1056B000054B1B68984708210248FFF7A5FE00BF6D
:1056C00080BD00BF000C00583408002080B500AF3A
:1056D00008210248FFF778FE00BF80BD000C00588B
:1056E00080B500AF0EF094FA08210248FFF77EFE65
:1056F00000BF80BD000C005880B582B000AF0346EB
:10570000FB71F91D4FF47A730122034809F02DF95A
:1057100000BF0837BD4680BD9406002080B500AFAD
:1057200000224021074805F0F3FE0022012106482F
:1057300005F0EEFE01224021044805F0E9FE0023B9
:10574000184680BD00080048000C004800040048CE
:1057500080B485B000AFF860084611461A4603468B
:105760007B810B463B811346FB80234B00221A6052
:10577000214AFB681360204A7B8913811E4A3B89BA
:1057800053811D4A3B8B93811B4B0222DA827B891A
:1057900003F007039BB2002B03D17B89DB089BB28C
:1057A00004E07B89DB089BB201339BB2124A53822F
:1057B000114A3B899382104AFB88D3810E4B002209
:1057C0001A82FB88002B02D0FB88B42B06D10A4A30
:1057D0007B899380084A3B89D38006E0064A3B894F
:1057E0009380054A7B89D38000BF00BF1437BD4634
:1057F0005DF8047B704700BF3808002080B483B098
:1058000000AF7860044A7B68136000BF0C37BD4668
:105810005DF8047B704700BF3808002080B58AB06F
:1058200000AF0346FB800B46BB8013467B809F4B3B
:105830009B88FA889A4204D89C4BDB88BA889A42A3
:1058400003D99B480FF01EFE2DE1984BDB89B3F581
:10585000877F2BD0B3F5877F00F32281B42B16D03E
:10586000B42B00F31D81002B02D05A2B05D017E179
:10587000FB88FB84BB88BB8422E08C4B1A89BB88E5
:10588000D31A9BB2013BFB84FB88BB8418E0874B97
:105890001A89FB88D31A9BB2013BFB84834B5A893C
:1058A000BB88D31A9BB2013BBB8409E0BB88FB8455
:1058B0007E4B5A89FB88D31A9BB2013BBB8400BF45
:1058C0007A4B1B8A032B00F2ED8001A252F823F0E1
:1058D0001F590008E1580008F15800080159000854
:1058E000724B1A89FB8CD31A9BB2013BFB8417E0E5
:1058F0006E4B5A89BB8CD31A9BB2013BBB840FE021
:105900006A4B1A89FB8CD31A9BB2013BFB84674B11
:105910005A89BB8CD31A9BB2013BBB8400E000BF09
:10592000624B1B89FA8C9A4204D8604B5B89BA8C13
:105930009A4203D95E480FF0A5FDB4E05B4BDB8AC9
:10594000022B39D1FB8CDB089BB21946BB8C574A22
:10595000528A02FB03F30B443B61544B1A683B69C8
:1059600013441B78FB737B88002B13D1FB8C03F053
:105970000703802242FA03F35BB2DB435AB297F982
:105980000F30134059B2494B1A683B691344CAB2ED
:105990001A7088E0FB8C03F00703802242FA03F3BD
:1059A0005AB297F90F30134359B2404B1A683B690A
:1059B0001344CAB21A7076E03C4BDB8A042B37D111
:1059C000FB8C9B089BB21946BB8C384A528A02FB5F
:1059D00003F30B44BB617B8803F003037B80334BF1
:1059E0001A68BB6913441B78FB75FB8C03F0030337
:1059F0005B00C02242FA03F35BB2DB435AB297F971
:105A0000173013405BB2FB757B889A01FB8C03F067
:105A100003035B0042FA03F35AB297F917301343BA
:105A200059B2224B1A68BB691344CAB21A703AE0E1
:105A30001E4BDB8A072B36D1FB8C5B089BB21946C9
:105A4000BB8C1A4A528A02FB03F30B443B62174B8E
:105A50001A683B6A13441B78FB77FB8C03F0010345
:105A60009B00F02242FA03F35BB2DB435AB297F990
:105A70001F3013405BB2FB777B881A01FB8C03F06D
:105A800001039B0042FA03F35AB297F91F30134304
:105A900059B2064B1A683B6A1344CAB21A7002E044
:105AA00000BF00E000BF2837BD4680BD3808002099
:105AB0009C8C010880B489B000AF0346FB804C4B3E
:105AC000DB8A022B25D10023FB831CE00023BB8350
:105AD00011E0BA8BFB8B4649498A01FB03F313445F
